{
	"GumdropsAlbumNFT1.sol": {
		"EuphoriaAlbumNFT": {
			"abi": [
				{
					"inputs": [
						{
							"internalType": "uint96",
							"name": "_royaltyFeesInBips",
							"type": "uint96"
						},
						{
							"internalType": "address",
							"name": "_royaltyReceiverAddress",
							"type": "address"
						}
					],
					"stateMutability": "nonpayable",
					"type": "constructor"
				},
				{
					"inputs": [
						{
							"internalType": "uint256",
							"name": "numerator",
							"type": "uint256"
						},
						{
							"internalType": "uint256",
							"name": "denominator",
							"type": "uint256"
						}
					],
					"name": "ERC2981InvalidDefaultRoyalty",
					"type": "error"
				},
				{
					"inputs": [
						{
							"internalType": "address",
							"name": "receiver",
							"type": "address"
						}
					],
					"name": "ERC2981InvalidDefaultRoyaltyReceiver",
					"type": "error"
				},
				{
					"inputs": [
						{
							"internalType": "uint256",
							"name": "tokenId",
							"type": "uint256"
						},
						{
							"internalType": "uint256",
							"name": "numerator",
							"type": "uint256"
						},
						{
							"internalType": "uint256",
							"name": "denominator",
							"type": "uint256"
						}
					],
					"name": "ERC2981InvalidTokenRoyalty",
					"type": "error"
				},
				{
					"inputs": [
						{
							"internalType": "uint256",
							"name": "tokenId",
							"type": "uint256"
						},
						{
							"internalType": "address",
							"name": "receiver",
							"type": "address"
						}
					],
					"name": "ERC2981InvalidTokenRoyaltyReceiver",
					"type": "error"
				},
				{
					"inputs": [
						{
							"internalType": "address",
							"name": "sender",
							"type": "address"
						},
						{
							"internalType": "uint256",
							"name": "tokenId",
							"type": "uint256"
						},
						{
							"internalType": "address",
							"name": "owner",
							"type": "address"
						}
					],
					"name": "ERC721IncorrectOwner",
					"type": "error"
				},
				{
					"inputs": [
						{
							"internalType": "address",
							"name": "operator",
							"type": "address"
						},
						{
							"internalType": "uint256",
							"name": "tokenId",
							"type": "uint256"
						}
					],
					"name": "ERC721InsufficientApproval",
					"type": "error"
				},
				{
					"inputs": [
						{
							"internalType": "address",
							"name": "approver",
							"type": "address"
						}
					],
					"name": "ERC721InvalidApprover",
					"type": "error"
				},
				{
					"inputs": [
						{
							"internalType": "address",
							"name": "operator",
							"type": "address"
						}
					],
					"name": "ERC721InvalidOperator",
					"type": "error"
				},
				{
					"inputs": [
						{
							"internalType": "address",
							"name": "owner",
							"type": "address"
						}
					],
					"name": "ERC721InvalidOwner",
					"type": "error"
				},
				{
					"inputs": [
						{
							"internalType": "address",
							"name": "receiver",
							"type": "address"
						}
					],
					"name": "ERC721InvalidReceiver",
					"type": "error"
				},
				{
					"inputs": [
						{
							"internalType": "address",
							"name": "sender",
							"type": "address"
						}
					],
					"name": "ERC721InvalidSender",
					"type": "error"
				},
				{
					"inputs": [
						{
							"internalType": "uint256",
							"name": "tokenId",
							"type": "uint256"
						}
					],
					"name": "ERC721NonexistentToken",
					"type": "error"
				},
				{
					"inputs": [
						{
							"internalType": "address",
							"name": "owner",
							"type": "address"
						}
					],
					"name": "OwnableInvalidOwner",
					"type": "error"
				},
				{
					"inputs": [
						{
							"internalType": "address",
							"name": "account",
							"type": "address"
						}
					],
					"name": "OwnableUnauthorizedAccount",
					"type": "error"
				},
				{
					"anonymous": false,
					"inputs": [
						{
							"indexed": true,
							"internalType": "address",
							"name": "owner",
							"type": "address"
						},
						{
							"indexed": true,
							"internalType": "address",
							"name": "approved",
							"type": "address"
						},
						{
							"indexed": true,
							"internalType": "uint256",
							"name": "tokenId",
							"type": "uint256"
						}
					],
					"name": "Approval",
					"type": "event"
				},
				{
					"anonymous": false,
					"inputs": [
						{
							"indexed": true,
							"internalType": "address",
							"name": "owner",
							"type": "address"
						},
						{
							"indexed": true,
							"internalType": "address",
							"name": "operator",
							"type": "address"
						},
						{
							"indexed": false,
							"internalType": "bool",
							"name": "approved",
							"type": "bool"
						}
					],
					"name": "ApprovalForAll",
					"type": "event"
				},
				{
					"anonymous": false,
					"inputs": [
						{
							"indexed": true,
							"internalType": "address",
							"name": "previousOwner",
							"type": "address"
						},
						{
							"indexed": true,
							"internalType": "address",
							"name": "newOwner",
							"type": "address"
						}
					],
					"name": "OwnershipTransferred",
					"type": "event"
				},
				{
					"anonymous": false,
					"inputs": [
						{
							"indexed": false,
							"internalType": "uint256",
							"name": "trackId",
							"type": "uint256"
						},
						{
							"indexed": false,
							"internalType": "uint256",
							"name": "amount",
							"type": "uint256"
						}
					],
					"name": "RoyaltyAccrued",
					"type": "event"
				},
				{
					"anonymous": false,
					"inputs": [
						{
							"indexed": false,
							"internalType": "uint256",
							"name": "trackId",
							"type": "uint256"
						},
						{
							"indexed": false,
							"internalType": "address",
							"name": "owner",
							"type": "address"
						},
						{
							"indexed": false,
							"internalType": "uint256",
							"name": "amount",
							"type": "uint256"
						}
					],
					"name": "RoyaltyWithdrawn",
					"type": "event"
				},
				{
					"anonymous": false,
					"inputs": [
						{
							"indexed": false,
							"internalType": "uint256",
							"name": "trackId",
							"type": "uint256"
						},
						{
							"indexed": false,
							"internalType": "address",
							"name": "buyer",
							"type": "address"
						},
						{
							"indexed": false,
							"internalType": "uint256",
							"name": "shares",
							"type": "uint256"
						}
					],
					"name": "SharePurchased",
					"type": "event"
				},
				{
					"anonymous": false,
					"inputs": [
						{
							"indexed": false,
							"internalType": "uint256",
							"name": "trackId",
							"type": "uint256"
						},
						{
							"indexed": false,
							"internalType": "string",
							"name": "title",
							"type": "string"
						},
						{
							"indexed": false,
							"internalType": "string",
							"name": "isrc",
							"type": "string"
						}
					],
					"name": "TrackCreated",
					"type": "event"
				},
				{
					"anonymous": false,
					"inputs": [
						{
							"indexed": true,
							"internalType": "address",
							"name": "from",
							"type": "address"
						},
						{
							"indexed": true,
							"internalType": "address",
							"name": "to",
							"type": "address"
						},
						{
							"indexed": true,
							"internalType": "uint256",
							"name": "tokenId",
							"type": "uint256"
						}
					],
					"name": "Transfer",
					"type": "event"
				},
				{
					"inputs": [],
					"name": "MAX_SHARES_PER_TRACK",
					"outputs": [
						{
							"internalType": "uint256",
							"name": "",
							"type": "uint256"
						}
					],
					"stateMutability": "view",
					"type": "function"
				},
				{
					"inputs": [],
					"name": "SHARE_PRICE_USD",
					"outputs": [
						{
							"internalType": "uint256",
							"name": "",
							"type": "uint256"
						}
					],
					"stateMutability": "view",
					"type": "function"
				},
				{
					"inputs": [
						{
							"internalType": "uint256",
							"name": "trackId",
							"type": "uint256"
						}
					],
					"name": "accumulateRoyalty",
					"outputs": [],
					"stateMutability": "payable",
					"type": "function"
				},
				{
					"inputs": [
						{
							"internalType": "address",
							"name": "to",
							"type": "address"
						},
						{
							"internalType": "uint256",
							"name": "tokenId",
							"type": "uint256"
						}
					],
					"name": "approve",
					"outputs": [],
					"stateMutability": "nonpayable",
					"type": "function"
				},
				{
					"inputs": [
						{
							"internalType": "address",
							"name": "owner",
							"type": "address"
						}
					],
					"name": "balanceOf",
					"outputs": [
						{
							"internalType": "uint256",
							"name": "",
							"type": "uint256"
						}
					],
					"stateMutability": "view",
					"type": "function"
				},
				{
					"inputs": [
						{
							"internalType": "string",
							"name": "_title",
							"type": "string"
						},
						{
							"internalType": "string",
							"name": "_isrc",
							"type": "string"
						}
					],
					"name": "createTrack",
					"outputs": [],
					"stateMutability": "nonpayable",
					"type": "function"
				},
				{
					"inputs": [
						{
							"internalType": "uint256",
							"name": "tokenId",
							"type": "uint256"
						}
					],
					"name": "getApproved",
					"outputs": [
						{
							"internalType": "address",
							"name": "",
							"type": "address"
						}
					],
					"stateMutability": "view",
					"type": "function"
				},
				{
					"inputs": [
						{
							"internalType": "uint256",
							"name": "trackId",
							"type": "uint256"
						},
						{
							"internalType": "address",
							"name": "owner",
							"type": "address"
						}
					],
					"name": "getOwnerSharePercentage",
					"outputs": [
						{
							"internalType": "uint256",
							"name": "",
							"type": "uint256"
						}
					],
					"stateMutability": "view",
					"type": "function"
				},
				{
					"inputs": [
						{
							"internalType": "address",
							"name": "owner",
							"type": "address"
						},
						{
							"internalType": "address",
							"name": "operator",
							"type": "address"
						}
					],
					"name": "isApprovedForAll",
					"outputs": [
						{
							"internalType": "bool",
							"name": "",
							"type": "bool"
						}
					],
					"stateMutability": "view",
					"type": "function"
				},
				{
					"inputs": [],
					"name": "name",
					"outputs": [
						{
							"internalType": "string",
							"name": "",
							"type": "string"
						}
					],
					"stateMutability": "view",
					"type": "function"
				},
				{
					"inputs": [],
					"name": "owner",
					"outputs": [
						{
							"internalType": "address",
							"name": "",
							"type": "address"
						}
					],
					"stateMutability": "view",
					"type": "function"
				},
				{
					"inputs": [
						{
							"internalType": "uint256",
							"name": "tokenId",
							"type": "uint256"
						}
					],
					"name": "ownerOf",
					"outputs": [
						{
							"internalType": "address",
							"name": "",
							"type": "address"
						}
					],
					"stateMutability": "view",
					"type": "function"
				},
				{
					"inputs": [
						{
							"internalType": "uint256",
							"name": "trackId",
							"type": "uint256"
						},
						{
							"internalType": "uint256",
							"name": "numShares",
							"type": "uint256"
						}
					],
					"name": "purchaseShares",
					"outputs": [],
					"stateMutability": "payable",
					"type": "function"
				},
				{
					"inputs": [],
					"name": "renounceOwnership",
					"outputs": [],
					"stateMutability": "nonpayable",
					"type": "function"
				},
				{
					"inputs": [
						{
							"internalType": "uint256",
							"name": "tokenId",
							"type": "uint256"
						},
						{
							"internalType": "uint256",
							"name": "salePrice",
							"type": "uint256"
						}
					],
					"name": "royaltyInfo",
					"outputs": [
						{
							"internalType": "address",
							"name": "",
							"type": "address"
						},
						{
							"internalType": "uint256",
							"name": "",
							"type": "uint256"
						}
					],
					"stateMutability": "view",
					"type": "function"
				},
				{
					"inputs": [
						{
							"internalType": "address",
							"name": "from",
							"type": "address"
						},
						{
							"internalType": "address",
							"name": "to",
							"type": "address"
						},
						{
							"internalType": "uint256",
							"name": "tokenId",
							"type": "uint256"
						}
					],
					"name": "safeTransferFrom",
					"outputs": [],
					"stateMutability": "nonpayable",
					"type": "function"
				},
				{
					"inputs": [
						{
							"internalType": "address",
							"name": "from",
							"type": "address"
						},
						{
							"internalType": "address",
							"name": "to",
							"type": "address"
						},
						{
							"internalType": "uint256",
							"name": "tokenId",
							"type": "uint256"
						},
						{
							"internalType": "bytes",
							"name": "data",
							"type": "bytes"
						}
					],
					"name": "safeTransferFrom",
					"outputs": [],
					"stateMutability": "nonpayable",
					"type": "function"
				},
				{
					"inputs": [
						{
							"internalType": "address",
							"name": "operator",
							"type": "address"
						},
						{
							"internalType": "bool",
							"name": "approved",
							"type": "bool"
						}
					],
					"name": "setApprovalForAll",
					"outputs": [],
					"stateMutability": "nonpayable",
					"type": "function"
				},
				{
					"inputs": [
						{
							"internalType": "address",
							"name": "_receiver",
							"type": "address"
						},
						{
							"internalType": "uint96",
							"name": "_royaltyFeesInBips",
							"type": "uint96"
						}
					],
					"name": "setRoyaltyInfo",
					"outputs": [],
					"stateMutability": "nonpayable",
					"type": "function"
				},
				{
					"inputs": [
						{
							"internalType": "bytes4",
							"name": "interfaceId",
							"type": "bytes4"
						}
					],
					"name": "supportsInterface",
					"outputs": [
						{
							"internalType": "bool",
							"name": "",
							"type": "bool"
						}
					],
					"stateMutability": "view",
					"type": "function"
				},
				{
					"inputs": [],
					"name": "symbol",
					"outputs": [
						{
							"internalType": "string",
							"name": "",
							"type": "string"
						}
					],
					"stateMutability": "view",
					"type": "function"
				},
				{
					"inputs": [
						{
							"internalType": "uint256",
							"name": "tokenId",
							"type": "uint256"
						}
					],
					"name": "tokenURI",
					"outputs": [
						{
							"internalType": "string",
							"name": "",
							"type": "string"
						}
					],
					"stateMutability": "view",
					"type": "function"
				},
				{
					"inputs": [],
					"name": "totalSupply",
					"outputs": [
						{
							"internalType": "uint256",
							"name": "",
							"type": "uint256"
						}
					],
					"stateMutability": "view",
					"type": "function"
				},
				{
					"inputs": [
						{
							"internalType": "uint256",
							"name": "",
							"type": "uint256"
						}
					],
					"name": "tracks",
					"outputs": [
						{
							"internalType": "string",
							"name": "title",
							"type": "string"
						},
						{
							"internalType": "string",
							"name": "isrc",
							"type": "string"
						},
						{
							"internalType": "uint256",
							"name": "pricePerShare",
							"type": "uint256"
						},
						{
							"internalType": "uint256",
							"name": "sharesRemaining",
							"type": "uint256"
						},
						{
							"internalType": "bool",
							"name": "isAvailable",
							"type": "bool"
						},
						{
							"internalType": "uint256",
							"name": "totalRoyalty",
							"type": "uint256"
						}
					],
					"stateMutability": "view",
					"type": "function"
				},
				{
					"inputs": [
						{
							"internalType": "address",
							"name": "from",
							"type": "address"
						},
						{
							"internalType": "address",
							"name": "to",
							"type": "address"
						},
						{
							"internalType": "uint256",
							"name": "tokenId",
							"type": "uint256"
						}
					],
					"name": "transferFrom",
					"outputs": [],
					"stateMutability": "nonpayable",
					"type": "function"
				},
				{
					"inputs": [
						{
							"internalType": "address",
							"name": "newOwner",
							"type": "address"
						}
					],
					"name": "transferOwnership",
					"outputs": [],
					"stateMutability": "nonpayable",
					"type": "function"
				},
				{
					"inputs": [
						{
							"internalType": "uint256",
							"name": "trackId",
							"type": "uint256"
						}
					],
					"name": "withdrawRoyalty",
					"outputs": [],
					"stateMutability": "nonpayable",
					"type": "function"
				}
			],
			"devdoc": {
				"errors": {
					"ERC2981InvalidDefaultRoyalty(uint256,uint256)": [
						{
							"details": "The default royalty set is invalid (eg. (numerator / denominator) >= 1)."
						}
					],
					"ERC2981InvalidDefaultRoyaltyReceiver(address)": [
						{
							"details": "The default royalty receiver is invalid."
						}
					],
					"ERC2981InvalidTokenRoyalty(uint256,uint256,uint256)": [
						{
							"details": "The royalty set for an specific `tokenId` is invalid (eg. (numerator / denominator) >= 1)."
						}
					],
					"ERC2981InvalidTokenRoyaltyReceiver(uint256,address)": [
						{
							"details": "The royalty receiver for `tokenId` is invalid."
						}
					],
					"ERC721IncorrectOwner(address,uint256,address)": [
						{
							"details": "Indicates an error related to the ownership over a particular token. Used in transfers.",
							"params": {
								"owner": "Address of the current owner of a token.",
								"sender": "Address whose tokens are being transferred.",
								"tokenId": "Identifier number of a token."
							}
						}
					],
					"ERC721InsufficientApproval(address,uint256)": [
						{
							"details": "Indicates a failure with the `operator`’s approval. Used in transfers.",
							"params": {
								"operator": "Address that may be allowed to operate on tokens without being their owner.",
								"tokenId": "Identifier number of a token."
							}
						}
					],
					"ERC721InvalidApprover(address)": [
						{
							"details": "Indicates a failure with the `approver` of a token to be approved. Used in approvals.",
							"params": {
								"approver": "Address initiating an approval operation."
							}
						}
					],
					"ERC721InvalidOperator(address)": [
						{
							"details": "Indicates a failure with the `operator` to be approved. Used in approvals.",
							"params": {
								"operator": "Address that may be allowed to operate on tokens without being their owner."
							}
						}
					],
					"ERC721InvalidOwner(address)": [
						{
							"details": "Indicates that an address can't be an owner. For example, `address(0)` is a forbidden owner in EIP-20. Used in balance queries.",
							"params": {
								"owner": "Address of the current owner of a token."
							}
						}
					],
					"ERC721InvalidReceiver(address)": [
						{
							"details": "Indicates a failure with the token `receiver`. Used in transfers.",
							"params": {
								"receiver": "Address to which tokens are being transferred."
							}
						}
					],
					"ERC721InvalidSender(address)": [
						{
							"details": "Indicates a failure with the token `sender`. Used in transfers.",
							"params": {
								"sender": "Address whose tokens are being transferred."
							}
						}
					],
					"ERC721NonexistentToken(uint256)": [
						{
							"details": "Indicates a `tokenId` whose `owner` is the zero address.",
							"params": {
								"tokenId": "Identifier number of a token."
							}
						}
					],
					"OwnableInvalidOwner(address)": [
						{
							"details": "The owner is not a valid owner account. (eg. `address(0)`)"
						}
					],
					"OwnableUnauthorizedAccount(address)": [
						{
							"details": "The caller account is not authorized to perform an operation."
						}
					]
				},
				"events": {
					"Approval(address,address,uint256)": {
						"details": "Emitted when `owner` enables `approved` to manage the `tokenId` token."
					},
					"ApprovalForAll(address,address,bool)": {
						"details": "Emitted when `owner` enables or disables (`approved`) `operator` to manage all of its assets."
					},
					"Transfer(address,address,uint256)": {
						"details": "Emitted when `tokenId` token is transferred from `from` to `to`."
					}
				},
				"kind": "dev",
				"methods": {
					"approve(address,uint256)": {
						"details": "See {IERC721-approve}."
					},
					"balanceOf(address)": {
						"details": "See {IERC721-balanceOf}."
					},
					"getApproved(uint256)": {
						"details": "See {IERC721-getApproved}."
					},
					"isApprovedForAll(address,address)": {
						"details": "See {IERC721-isApprovedForAll}."
					},
					"name()": {
						"details": "See {IERC721Metadata-name}."
					},
					"owner()": {
						"details": "Returns the address of the current owner."
					},
					"ownerOf(uint256)": {
						"details": "See {IERC721-ownerOf}."
					},
					"renounceOwnership()": {
						"details": "Leaves the contract without owner. It will not be possible to call `onlyOwner` functions. Can only be called by the current owner. NOTE: Renouncing ownership will leave the contract without an owner, thereby disabling any functionality that is only available to the owner."
					},
					"royaltyInfo(uint256,uint256)": {
						"details": "Returns how much royalty is owed and to whom, based on a sale price that may be denominated in any unit of exchange. The royalty amount is denominated and should be paid in that same unit of exchange."
					},
					"safeTransferFrom(address,address,uint256)": {
						"details": "See {IERC721-safeTransferFrom}."
					},
					"safeTransferFrom(address,address,uint256,bytes)": {
						"details": "See {IERC721-safeTransferFrom}."
					},
					"setApprovalForAll(address,bool)": {
						"details": "See {IERC721-setApprovalForAll}."
					},
					"symbol()": {
						"details": "See {IERC721Metadata-symbol}."
					},
					"tokenURI(uint256)": {
						"details": "See {IERC721Metadata-tokenURI}."
					},
					"transferFrom(address,address,uint256)": {
						"details": "See {IERC721-transferFrom}."
					},
					"transferOwnership(address)": {
						"details": "Transfers ownership of the contract to a new account (`newOwner`). Can only be called by the current owner."
					}
				},
				"version": 1
			},
			"evm": {
				"assembly": "    /* \"GumdropsAlbumNFT1.sol\":286:4887  contract EuphoriaAlbumNFT is ERC721, Ownable, ERC2981 {... */\n  mstore(0x40, 0x80)\n    /* \"GumdropsAlbumNFT1.sol\":1191:1540  constructor(uint96 _royaltyFeesInBips, address _royaltyReceiverAddress)... */\n  callvalue\n  dup1\n  iszero\n  tag_1\n  jumpi\n  0x00\n  dup1\n  revert\ntag_1:\n  pop\n  mload(0x40)\n  sub(codesize, bytecodeSize)\n  dup1\n  bytecodeSize\n  dup4\n  codecopy\n  dup2\n  add\n  0x40\n  dup2\n  swap1\n  mstore\n  tag_2\n  swap2\n  tag_3\n  jump\t// in\ntag_2:\n    /* \"GumdropsAlbumNFT1.sol\":1304:1314  msg.sender */\n  caller\n    /* \"@openzeppelin/contracts/token/ERC721/ERC721.sol\":1381:1494  constructor(string memory name_, string memory symbol_) {... */\n  mload(0x40)\n  dup1\n  0x40\n  add\n  0x40\n  mstore\n  dup1\n  0x0e\n  dup2\n  mstore\n  0x20\n  add\n  shl(0x90, 0x457570686f72696120416c62756d)\n  dup2\n  mstore\n  pop\n  mload(0x40)\n  dup1\n  0x40\n  add\n  0x40\n  mstore\n  dup1\n  0x03\n  dup2\n  mstore\n  0x20\n  add\n  shl(0xe8, 0x544541)\n  dup2\n  mstore\n  pop\n    /* \"@openzeppelin/contracts/token/ERC721/ERC721.sol\":1455:1460  name_ */\n  dup2\n    /* \"@openzeppelin/contracts/token/ERC721/ERC721.sol\":1447:1452  _name */\n  0x00\n    /* \"@openzeppelin/contracts/token/ERC721/ERC721.sol\":1447:1460  _name = name_ */\n  swap1\n  dup2\n  tag_8\n  swap2\n  swap1\n  tag_9\n  jump\t// in\ntag_8:\n  pop\n    /* \"@openzeppelin/contracts/token/ERC721/ERC721.sol\":1470:1477  _symbol */\n  0x01\n    /* \"@openzeppelin/contracts/token/ERC721/ERC721.sol\":1470:1487  _symbol = symbol_ */\n  tag_10\n    /* \"@openzeppelin/contracts/token/ERC721/ERC721.sol\":1480:1487  symbol_ */\n  dup3\n    /* \"@openzeppelin/contracts/token/ERC721/ERC721.sol\":1470:1477  _symbol */\n  dup3\n    /* \"@openzeppelin/contracts/token/ERC721/ERC721.sol\":1470:1487  _symbol = symbol_ */\n  tag_9\n  jump\t// in\ntag_10:\n  pop\n  pop\n  pop\n  sub(shl(0xa0, 0x01), 0x01)\n    /* \"@openzeppelin/contracts/access/Ownable.sol\":1273:1299  initialOwner == address(0) */\n  dup2\n  and\n    /* \"@openzeppelin/contracts/access/Ownable.sol\":1269:1364  if (initialOwner == address(0)) {... */\n  tag_12\n  jumpi\n    /* \"@openzeppelin/contracts/access/Ownable.sol\":1322:1353  OwnableInvalidOwner(address(0)) */\n  mload(0x40)\n  shl(0xe0, 0x1e4fbdf7)\n  dup2\n  mstore\n    /* \"@openzeppelin/contracts/access/Ownable.sol\":1350:1351  0 */\n  0x00\n    /* \"@openzeppelin/contracts/access/Ownable.sol\":1322:1353  OwnableInvalidOwner(address(0)) */\n  0x04\n  dup3\n  add\n    /* \"#utility.yul\":3269:3320   */\n  mstore\n    /* \"#utility.yul\":3242:3260   */\n  0x24\n  add\n    /* \"@openzeppelin/contracts/access/Ownable.sol\":1322:1353  OwnableInvalidOwner(address(0)) */\ntag_13:\n  mload(0x40)\n  dup1\n  swap2\n  sub\n  swap1\n  revert\n    /* \"@openzeppelin/contracts/access/Ownable.sol\":1269:1364  if (initialOwner == address(0)) {... */\ntag_12:\n    /* \"@openzeppelin/contracts/access/Ownable.sol\":1373:1405  _transferOwnership(initialOwner) */\n  tag_15\n    /* \"@openzeppelin/contracts/access/Ownable.sol\":1392:1404  initialOwner */\n  dup2\n    /* \"@openzeppelin/contracts/access/Ownable.sol\":1373:1391  _transferOwnership */\n  tag_16\n    /* \"@openzeppelin/contracts/access/Ownable.sol\":1373:1405  _transferOwnership(initialOwner) */\n  jump\t// in\ntag_15:\n  pop\n    /* \"GumdropsAlbumNFT1.sol\":1348:1407  setRoyaltyInfo(_royaltyReceiverAddress, _royaltyFeesInBips) */\n  tag_18\n    /* \"GumdropsAlbumNFT1.sol\":1363:1386  _royaltyReceiverAddress */\n  dup2\n    /* \"GumdropsAlbumNFT1.sol\":1388:1406  _royaltyFeesInBips */\n  dup4\n    /* \"GumdropsAlbumNFT1.sol\":1348:1362  setRoyaltyInfo */\n  tag_19\n    /* \"GumdropsAlbumNFT1.sol\":1348:1407  setRoyaltyInfo(_royaltyReceiverAddress, _royaltyFeesInBips) */\n  jump\t// in\ntag_18:\n    /* \"GumdropsAlbumNFT1.sol\":1475:1536  transferOwnership(0xA39c821C6999acC27D71882b1Ca49fDdfA264cCA) */\n  tag_20\n    /* \"GumdropsAlbumNFT1.sol\":1493:1535  0xA39c821C6999acC27D71882b1Ca49fDdfA264cCA */\n  0xa39c821c6999acc27d71882b1ca49fddfa264cca\n    /* \"GumdropsAlbumNFT1.sol\":1475:1492  transferOwnership */\n  tag_21\n    /* \"GumdropsAlbumNFT1.sol\":1475:1536  transferOwnership(0xA39c821C6999acC27D71882b1Ca49fDdfA264cCA) */\n  jump\t// in\ntag_20:\n    /* \"GumdropsAlbumNFT1.sol\":1191:1540  constructor(uint96 _royaltyFeesInBips, address _royaltyReceiverAddress)... */\n  pop\n  pop\n    /* \"GumdropsAlbumNFT1.sol\":286:4887  contract EuphoriaAlbumNFT is ERC721, Ownable, ERC2981 {... */\n  jump(tag_60)\n    /* \"@openzeppelin/contracts/access/Ownable.sol\":2912:3099  function _transferOwnership(address newOwner) internal virtual {... */\ntag_16:\n    /* \"@openzeppelin/contracts/access/Ownable.sol\":3004:3010  _owner */\n  0x06\n  dup1\n  sload\n  sub(shl(0xa0, 0x01), 0x01)\n    /* \"@openzeppelin/contracts/access/Ownable.sol\":3020:3037  _owner = newOwner */\n  dup4\n  dup2\n  and\n  not(sub(shl(0xa0, 0x01), 0x01))\n  dup4\n  and\n  dup2\n  or\n  swap1\n  swap4\n  sstore\n    /* \"@openzeppelin/contracts/access/Ownable.sol\":3052:3092  OwnershipTransferred(oldOwner, newOwner) */\n  mload(0x40)\n    /* \"@openzeppelin/contracts/access/Ownable.sol\":3004:3010  _owner */\n  swap2\n  and\n  swap2\n    /* \"@openzeppelin/contracts/access/Ownable.sol\":3020:3037  _owner = newOwner */\n  swap1\n    /* \"@openzeppelin/contracts/access/Ownable.sol\":3004:3010  _owner */\n  dup3\n  swap1\n    /* \"@openzeppelin/contracts/access/Ownable.sol\":3052:3092  OwnershipTransferred(oldOwner, newOwner) */\n  0x8be0079c531659141344cd1fd0a4f28419497f9722a3daafe3b4186f6b6457e0\n  swap1\n    /* \"@openzeppelin/contracts/access/Ownable.sol\":2985:3001  address oldOwner */\n  0x00\n  swap1\n    /* \"@openzeppelin/contracts/access/Ownable.sol\":3052:3092  OwnershipTransferred(oldOwner, newOwner) */\n  log3\n    /* \"@openzeppelin/contracts/access/Ownable.sol\":2975:3099  {... */\n  pop\n    /* \"@openzeppelin/contracts/access/Ownable.sol\":2912:3099  function _transferOwnership(address newOwner) internal virtual {... */\n  pop\n  jump\t// out\n    /* \"GumdropsAlbumNFT1.sol\":4535:4678  function setRoyaltyInfo(address _receiver, uint96 _royaltyFeesInBips) public onlyOwner {... */\ntag_19:\n    /* \"@openzeppelin/contracts/access/Ownable.sol\":1531:1544  _checkOwner() */\n  tag_25\n    /* \"@openzeppelin/contracts/access/Ownable.sol\":1531:1542  _checkOwner */\n  tag_26\n    /* \"@openzeppelin/contracts/access/Ownable.sol\":1531:1544  _checkOwner() */\n  jump\t// in\ntag_25:\n    /* \"GumdropsAlbumNFT1.sol\":4625:4674  _setDefaultRoyalty(_receiver, _royaltyFeesInBips) */\n  tag_28\n    /* \"GumdropsAlbumNFT1.sol\":4644:4653  _receiver */\n  dup3\n    /* \"GumdropsAlbumNFT1.sol\":4655:4673  _royaltyFeesInBips */\n  dup3\n    /* \"GumdropsAlbumNFT1.sol\":4625:4643  _setDefaultRoyalty */\n  tag_29\n    /* \"GumdropsAlbumNFT1.sol\":4625:4674  _setDefaultRoyalty(_receiver, _royaltyFeesInBips) */\n  jump\t// in\ntag_28:\n    /* \"GumdropsAlbumNFT1.sol\":4535:4678  function setRoyaltyInfo(address _receiver, uint96 _royaltyFeesInBips) public onlyOwner {... */\n  pop\n  pop\n  jump\t// out\n    /* \"@openzeppelin/contracts/access/Ownable.sol\":2543:2758  function transferOwnership(address newOwner) public virtual onlyOwner {... */\ntag_21:\n    /* \"@openzeppelin/contracts/access/Ownable.sol\":1531:1544  _checkOwner() */\n  tag_31\n    /* \"@openzeppelin/contracts/access/Ownable.sol\":1531:1542  _checkOwner */\n  tag_26\n    /* \"@openzeppelin/contracts/access/Ownable.sol\":1531:1544  _checkOwner() */\n  jump\t// in\ntag_31:\n  sub(shl(0xa0, 0x01), 0x01)\n    /* \"@openzeppelin/contracts/access/Ownable.sol\":2627:2649  newOwner == address(0) */\n  dup2\n  and\n    /* \"@openzeppelin/contracts/access/Ownable.sol\":2623:2714  if (newOwner == address(0)) {... */\n  tag_33\n  jumpi\n    /* \"@openzeppelin/contracts/access/Ownable.sol\":2672:2703  OwnableInvalidOwner(address(0)) */\n  mload(0x40)\n  shl(0xe0, 0x1e4fbdf7)\n  dup2\n  mstore\n    /* \"@openzeppelin/contracts/access/Ownable.sol\":2700:2701  0 */\n  0x00\n    /* \"@openzeppelin/contracts/access/Ownable.sol\":2672:2703  OwnableInvalidOwner(address(0)) */\n  0x04\n  dup3\n  add\n    /* \"#utility.yul\":3269:3320   */\n  mstore\n    /* \"#utility.yul\":3242:3260   */\n  0x24\n  add\n    /* \"@openzeppelin/contracts/access/Ownable.sol\":2672:2703  OwnableInvalidOwner(address(0)) */\n  tag_13\n    /* \"#utility.yul\":3123:3326   */\n  jump\n    /* \"@openzeppelin/contracts/access/Ownable.sol\":2623:2714  if (newOwner == address(0)) {... */\ntag_33:\n    /* \"@openzeppelin/contracts/access/Ownable.sol\":2723:2751  _transferOwnership(newOwner) */\n  tag_35\n    /* \"@openzeppelin/contracts/access/Ownable.sol\":2742:2750  newOwner */\n  dup2\n    /* \"@openzeppelin/contracts/access/Ownable.sol\":2723:2741  _transferOwnership */\n  tag_16\n    /* \"@openzeppelin/contracts/access/Ownable.sol\":2723:2751  _transferOwnership(newOwner) */\n  jump\t// in\ntag_35:\n    /* \"@openzeppelin/contracts/access/Ownable.sol\":2543:2758  function transferOwnership(address newOwner) public virtual onlyOwner {... */\n  pop\n  jump\t// out\n    /* \"@openzeppelin/contracts/access/Ownable.sol\":1796:1958  function _checkOwner() internal view virtual {... */\ntag_26:\n    /* \"@openzeppelin/contracts/access/Ownable.sol\":1710:1716  _owner */\n  and(sub(shl(0xa0, 0x01), 0x01), sload(0x06))\n    /* \"@openzeppelin/contracts/utils/Context.sol\":735:745  msg.sender */\n  caller\n    /* \"@openzeppelin/contracts/access/Ownable.sol\":1855:1878  owner() != _msgSender() */\n  eq\n    /* \"@openzeppelin/contracts/access/Ownable.sol\":1851:1952  if (owner() != _msgSender()) {... */\n  tag_41\n  jumpi\n    /* \"@openzeppelin/contracts/access/Ownable.sol\":1901:1941  OwnableUnauthorizedAccount(_msgSender()) */\n  mload(0x40)\n  shl(0xe0, 0x118cdaa7)\n  dup2\n  mstore\n    /* \"@openzeppelin/contracts/utils/Context.sol\":735:745  msg.sender */\n  caller\n    /* \"@openzeppelin/contracts/access/Ownable.sol\":1901:1941  OwnableUnauthorizedAccount(_msgSender()) */\n  0x04\n  dup3\n  add\n    /* \"#utility.yul\":3269:3320   */\n  mstore\n    /* \"#utility.yul\":3242:3260   */\n  0x24\n  add\n    /* \"@openzeppelin/contracts/access/Ownable.sol\":1901:1941  OwnableUnauthorizedAccount(_msgSender()) */\n  tag_13\n    /* \"#utility.yul\":3123:3326   */\n  jump\n    /* \"@openzeppelin/contracts/access/Ownable.sol\":1851:1952  if (owner() != _msgSender()) {... */\ntag_41:\n    /* \"@openzeppelin/contracts/access/Ownable.sol\":1796:1958  function _checkOwner() internal view virtual {... */\n  jump\t// out\n    /* \"@openzeppelin/contracts/token/common/ERC2981.sol\":3429:3936  function _setDefaultRoyalty(address receiver, uint96 feeNumerator) internal virtual {... */\ntag_29:\n    /* \"@openzeppelin/contracts/token/common/ERC2981.sol\":3156:3161  10000 */\n  0x2710\n  sub(shl(0x60, 0x01), 0x01)\n    /* \"@openzeppelin/contracts/token/common/ERC2981.sol\":3576:3602  feeNumerator > denominator */\n  dup3\n  and\n  dup2\n  lt\n    /* \"@openzeppelin/contracts/token/common/ERC2981.sol\":3572:3745  if (feeNumerator > denominator) {... */\n  iszero\n  tag_47\n  jumpi\n    /* \"@openzeppelin/contracts/token/common/ERC2981.sol\":3679:3734  ERC2981InvalidDefaultRoyalty(feeNumerator, denominator) */\n  mload(0x40)\n  shl(0xe0, 0x6f483d09)\n  dup2\n  mstore\n  sub(shl(0x60, 0x01), 0x01)\n    /* \"#utility.yul\":3522:3553   */\n  dup4\n  and\n    /* \"@openzeppelin/contracts/token/common/ERC2981.sol\":3679:3734  ERC2981InvalidDefaultRoyalty(feeNumerator, denominator) */\n  0x04\n  dup3\n  add\n    /* \"#utility.yul\":3504:3554   */\n  mstore\n    /* \"#utility.yul\":3570:3588   */\n  0x24\n  dup2\n  add\n    /* \"#utility.yul\":3563:3597   */\n  dup3\n  swap1\n  mstore\n    /* \"#utility.yul\":3477:3495   */\n  0x44\n  add\n    /* \"@openzeppelin/contracts/token/common/ERC2981.sol\":3679:3734  ERC2981InvalidDefaultRoyalty(feeNumerator, denominator) */\n  tag_13\n    /* \"#utility.yul\":3331:3603   */\n  jump\n    /* \"@openzeppelin/contracts/token/common/ERC2981.sol\":3572:3745  if (feeNumerator > denominator) {... */\ntag_47:\n  sub(shl(0xa0, 0x01), 0x01)\n    /* \"@openzeppelin/contracts/token/common/ERC2981.sol\":3758:3780  receiver == address(0) */\n  dup4\n  and\n    /* \"@openzeppelin/contracts/token/common/ERC2981.sol\":3754:3862  if (receiver == address(0)) {... */\n  tag_50\n  jumpi\n    /* \"@openzeppelin/contracts/token/common/ERC2981.sol\":3803:3851  ERC2981InvalidDefaultRoyaltyReceiver(address(0)) */\n  mload(0x40)\n  shl(0xe1, 0x5b6cc805)\n  dup2\n  mstore\n    /* \"@openzeppelin/contracts/token/common/ERC2981.sol\":3848:3849  0 */\n  0x00\n    /* \"@openzeppelin/contracts/token/common/ERC2981.sol\":3803:3851  ERC2981InvalidDefaultRoyaltyReceiver(address(0)) */\n  0x04\n  dup3\n  add\n    /* \"#utility.yul\":3269:3320   */\n  mstore\n    /* \"#utility.yul\":3242:3260   */\n  0x24\n  add\n    /* \"@openzeppelin/contracts/token/common/ERC2981.sol\":3803:3851  ERC2981InvalidDefaultRoyaltyReceiver(address(0)) */\n  tag_13\n    /* \"#utility.yul\":3123:3326   */\n  jump\n    /* \"@openzeppelin/contracts/token/common/ERC2981.sol\":3754:3862  if (receiver == address(0)) {... */\ntag_50:\n  pop\n    /* \"@openzeppelin/contracts/token/common/ERC2981.sol\":3894:3929  RoyaltyInfo(receiver, feeNumerator) */\n  0x40\n  dup1\n  mload\n  dup1\n  dup3\n  add\n  swap1\n  swap2\n  mstore\n  sub(shl(0xa0, 0x01), 0x01)\n  swap1\n  swap3\n  and\n  dup1\n  dup4\n  mstore\n  sub(shl(0x60, 0x01), 0x01)\n  swap1\n  swap2\n  and\n  0x20\n  swap1\n  swap3\n  add\n  dup3\n  swap1\n  mstore\n  shl(0xa0, 0x01)\n    /* \"@openzeppelin/contracts/token/common/ERC2981.sol\":3872:3929  _defaultRoyaltyInfo = RoyaltyInfo(receiver, feeNumerator) */\n  swap1\n  swap2\n  mul\n  or\n    /* \"@openzeppelin/contracts/token/common/ERC2981.sol\":3872:3891  _defaultRoyaltyInfo */\n  0x07\n    /* \"@openzeppelin/contracts/token/common/ERC2981.sol\":3872:3929  _defaultRoyaltyInfo = RoyaltyInfo(receiver, feeNumerator) */\n  sstore\n    /* \"@openzeppelin/contracts/token/common/ERC2981.sol\":3429:3936  function _setDefaultRoyalty(address receiver, uint96 feeNumerator) internal virtual {... */\n  jump\t// out\n    /* \"#utility.yul\":14:477   */\ntag_3:\n    /* \"#utility.yul\":92:98   */\n  0x00\n    /* \"#utility.yul\":100:106   */\n  dup1\n    /* \"#utility.yul\":153:155   */\n  0x40\n    /* \"#utility.yul\":141:150   */\n  dup4\n    /* \"#utility.yul\":132:139   */\n  dup6\n    /* \"#utility.yul\":128:151   */\n  sub\n    /* \"#utility.yul\":124:156   */\n  slt\n    /* \"#utility.yul\":121:173   */\n  iszero\n  tag_62\n  jumpi\n    /* \"#utility.yul\":169:170   */\n  0x00\n    /* \"#utility.yul\":166:167   */\n  dup1\n    /* \"#utility.yul\":159:171   */\n  revert\n    /* \"#utility.yul\":121:173   */\ntag_62:\n    /* \"#utility.yul\":195:211   */\n  dup3\n  mload\n  sub(shl(0x60, 0x01), 0x01)\n    /* \"#utility.yul\":240:270   */\n  dup2\n  and\n    /* \"#utility.yul\":230:271   */\n  dup2\n  eq\n    /* \"#utility.yul\":220:289   */\n  tag_63\n  jumpi\n    /* \"#utility.yul\":285:286   */\n  0x00\n    /* \"#utility.yul\":282:283   */\n  dup1\n    /* \"#utility.yul\":275:287   */\n  revert\n    /* \"#utility.yul\":220:289   */\ntag_63:\n    /* \"#utility.yul\":358:360   */\n  0x20\n    /* \"#utility.yul\":343:361   */\n  dup5\n  add\n    /* \"#utility.yul\":337:362   */\n  mload\n    /* \"#utility.yul\":308:313   */\n  swap1\n  swap3\n  pop\n  sub(shl(0xa0, 0x01), 0x01)\n    /* \"#utility.yul\":393:426   */\n  dup2\n  and\n    /* \"#utility.yul\":381:427   */\n  dup2\n  eq\n    /* \"#utility.yul\":371:445   */\n  tag_64\n  jumpi\n    /* \"#utility.yul\":441:442   */\n  0x00\n    /* \"#utility.yul\":438:439   */\n  dup1\n    /* \"#utility.yul\":431:443   */\n  revert\n    /* \"#utility.yul\":371:445   */\ntag_64:\n    /* \"#utility.yul\":464:471   */\n  dup1\n    /* \"#utility.yul\":454:471   */\n  swap2\n  pop\n  pop\n    /* \"#utility.yul\":14:477   */\n  swap3\n  pop\n  swap3\n  swap1\n  pop\n  jump\t// out\n    /* \"#utility.yul\":482:609   */\ntag_55:\n    /* \"#utility.yul\":543:553   */\n  0x4e487b71\n    /* \"#utility.yul\":538:541   */\n  0xe0\n    /* \"#utility.yul\":534:554   */\n  shl\n    /* \"#utility.yul\":531:532   */\n  0x00\n    /* \"#utility.yul\":524:555   */\n  mstore\n    /* \"#utility.yul\":574:578   */\n  0x41\n    /* \"#utility.yul\":571:572   */\n  0x04\n    /* \"#utility.yul\":564:579   */\n  mstore\n    /* \"#utility.yul\":598:602   */\n  0x24\n    /* \"#utility.yul\":595:596   */\n  0x00\n    /* \"#utility.yul\":588:603   */\n  revert\n    /* \"#utility.yul\":614:994   */\ntag_56:\n    /* \"#utility.yul\":693:694   */\n  0x01\n    /* \"#utility.yul\":689:701   */\n  dup2\n  dup2\n  shr\n  swap1\n    /* \"#utility.yul\":736:748   */\n  dup3\n  and\n  dup1\n    /* \"#utility.yul\":757:818   */\n  tag_67\n  jumpi\n    /* \"#utility.yul\":811:815   */\n  0x7f\n    /* \"#utility.yul\":803:809   */\n  dup3\n    /* \"#utility.yul\":799:816   */\n  and\n    /* \"#utility.yul\":789:816   */\n  swap2\n  pop\n    /* \"#utility.yul\":757:818   */\ntag_67:\n    /* \"#utility.yul\":864:866   */\n  0x20\n    /* \"#utility.yul\":856:862   */\n  dup3\n    /* \"#utility.yul\":853:867   */\n  lt\n    /* \"#utility.yul\":833:851   */\n  dup2\n    /* \"#utility.yul\":830:868   */\n  sub\n    /* \"#utility.yul\":827:988   */\n  tag_68\n  jumpi\n    /* \"#utility.yul\":910:920   */\n  0x4e487b71\n    /* \"#utility.yul\":905:908   */\n  0xe0\n    /* \"#utility.yul\":901:921   */\n  shl\n    /* \"#utility.yul\":898:899   */\n  0x00\n    /* \"#utility.yul\":891:922   */\n  mstore\n    /* \"#utility.yul\":945:949   */\n  0x22\n    /* \"#utility.yul\":942:943   */\n  0x04\n    /* \"#utility.yul\":935:950   */\n  mstore\n    /* \"#utility.yul\":973:977   */\n  0x24\n    /* \"#utility.yul\":970:971   */\n  0x00\n    /* \"#utility.yul\":963:978   */\n  revert\n    /* \"#utility.yul\":827:988   */\ntag_68:\n  pop\n    /* \"#utility.yul\":614:994   */\n  swap2\n  swap1\n  pop\n  jump\t// out\n    /* \"#utility.yul\":1125:1643   */\ntag_58:\n    /* \"#utility.yul\":1227:1229   */\n  0x1f\n    /* \"#utility.yul\":1222:1225   */\n  dup3\n    /* \"#utility.yul\":1219:1230   */\n  gt\n    /* \"#utility.yul\":1216:1637   */\n  iszero\n  tag_71\n  jumpi\n    /* \"#utility.yul\":1263:1268   */\n  dup1\n    /* \"#utility.yul\":1260:1261   */\n  0x00\n    /* \"#utility.yul\":1253:1269   */\n  mstore\n    /* \"#utility.yul\":1307:1311   */\n  0x20\n    /* \"#utility.yul\":1304:1305   */\n  0x00\n    /* \"#utility.yul\":1294:1312   */\n  keccak256\n    /* \"#utility.yul\":1377:1379   */\n  0x1f\n    /* \"#utility.yul\":1365:1375   */\n  dup5\n    /* \"#utility.yul\":1361:1380   */\n  add\n    /* \"#utility.yul\":1358:1359   */\n  0x05\n    /* \"#utility.yul\":1354:1381   */\n  shr\n    /* \"#utility.yul\":1348:1352   */\n  dup2\n    /* \"#utility.yul\":1344:1382   */\n  add\n    /* \"#utility.yul\":1413:1417   */\n  0x20\n    /* \"#utility.yul\":1401:1411   */\n  dup6\n    /* \"#utility.yul\":1398:1418   */\n  lt\n    /* \"#utility.yul\":1395:1442   */\n  iszero\n  tag_72\n  jumpi\n  pop\n    /* \"#utility.yul\":1436:1440   */\n  dup1\n    /* \"#utility.yul\":1395:1442   */\ntag_72:\n    /* \"#utility.yul\":1491:1493   */\n  0x1f\n    /* \"#utility.yul\":1486:1489   */\n  dup5\n    /* \"#utility.yul\":1482:1494   */\n  add\n    /* \"#utility.yul\":1479:1480   */\n  0x05\n    /* \"#utility.yul\":1475:1495   */\n  shr\n    /* \"#utility.yul\":1469:1473   */\n  dup3\n    /* \"#utility.yul\":1465:1496   */\n  add\n    /* \"#utility.yul\":1455:1496   */\n  swap2\n  pop\n    /* \"#utility.yul\":1546:1627   */\ntag_73:\n    /* \"#utility.yul\":1564:1566   */\n  dup2\n    /* \"#utility.yul\":1557:1562   */\n  dup2\n    /* \"#utility.yul\":1554:1567   */\n  lt\n    /* \"#utility.yul\":1546:1627   */\n  iszero\n  tag_75\n  jumpi\n    /* \"#utility.yul\":1623:1624   */\n  0x00\n    /* \"#utility.yul\":1609:1625   */\n  dup2\n  sstore\n    /* \"#utility.yul\":1590:1591   */\n  0x01\n    /* \"#utility.yul\":1579:1592   */\n  add\n    /* \"#utility.yul\":1546:1627   */\n  jump(tag_73)\ntag_75:\n    /* \"#utility.yul\":1550:1553   */\n  pop\n  pop\n    /* \"#utility.yul\":1216:1637   */\ntag_71:\n    /* \"#utility.yul\":1125:1643   */\n  pop\n  pop\n  pop\n  jump\t// out\n    /* \"#utility.yul\":1819:3118   */\ntag_9:\n    /* \"#utility.yul\":1939:1949   */\n  dup2\n  mload\n  sub(shl(0x40, 0x01), 0x01)\n    /* \"#utility.yul\":1961:1991   */\n  dup2\n  gt\n    /* \"#utility.yul\":1958:2014   */\n  iszero\n  tag_79\n  jumpi\n    /* \"#utility.yul\":1994:2012   */\n  tag_79\n  tag_55\n  jump\t// in\ntag_79:\n    /* \"#utility.yul\":2023:2120   */\n  tag_80\n    /* \"#utility.yul\":2113:2119   */\n  dup2\n    /* \"#utility.yul\":2073:2111   */\n  tag_81\n    /* \"#utility.yul\":2105:2109   */\n  dup5\n    /* \"#utility.yul\":2099:2110   */\n  sload\n    /* \"#utility.yul\":2073:2111   */\n  tag_56\n  jump\t// in\ntag_81:\n    /* \"#utility.yul\":2067:2071   */\n  dup5\n    /* \"#utility.yul\":2023:2120   */\n  tag_58\n  jump\t// in\ntag_80:\n    /* \"#utility.yul\":2169:2173   */\n  0x20\n    /* \"#utility.yul\":2200:2202   */\n  0x1f\n    /* \"#utility.yul\":2189:2203   */\n  dup3\n  gt\n    /* \"#utility.yul\":2217:2218   */\n  0x01\n    /* \"#utility.yul\":2212:2861   */\n  dup2\n  eq\n  tag_83\n  jumpi\n    /* \"#utility.yul\":2905:2906   */\n  0x00\n    /* \"#utility.yul\":2922:2928   */\n  dup4\n    /* \"#utility.yul\":2919:3008   */\n  iszero\n  tag_84\n  jumpi\n  pop\n    /* \"#utility.yul\":2974:2993   */\n  dup5\n  dup3\n  add\n    /* \"#utility.yul\":2968:2994   */\n  mload\n    /* \"#utility.yul\":2919:3008   */\ntag_84:\n  not(0x00)\n    /* \"#utility.yul\":1776:1777   */\n  0x03\n    /* \"#utility.yul\":1772:1783   */\n  dup6\n  swap1\n  shl\n    /* \"#utility.yul\":1768:1792   */\n  shr\n    /* \"#utility.yul\":1764:1793   */\n  not\n    /* \"#utility.yul\":1754:1794   */\n  and\n    /* \"#utility.yul\":1800:1801   */\n  0x01\n    /* \"#utility.yul\":1796:1807   */\n  dup5\n  swap1\n  shl\n    /* \"#utility.yul\":1751:1808   */\n  or\n    /* \"#utility.yul\":3021:3102   */\n  dup5\n  sstore\n    /* \"#utility.yul\":2182:3112   */\n  jump(tag_75)\n    /* \"#utility.yul\":2212:2861   */\ntag_83:\n    /* \"#utility.yul\":1072:1073   */\n  0x00\n    /* \"#utility.yul\":1065:1079   */\n  dup5\n  dup2\n  mstore\n    /* \"#utility.yul\":1109:1113   */\n  0x20\n    /* \"#utility.yul\":1096:1114   */\n  dup2\n  keccak256\n  not(0x1f)\n    /* \"#utility.yul\":2248:2268   */\n  dup6\n  and\n  swap2\n    /* \"#utility.yul\":2366:2588   */\ntag_87:\n    /* \"#utility.yul\":2380:2387   */\n  dup3\n    /* \"#utility.yul\":2377:2378   */\n  dup2\n    /* \"#utility.yul\":2374:2388   */\n  lt\n    /* \"#utility.yul\":2366:2588   */\n  iszero\n  tag_89\n  jumpi\n    /* \"#utility.yul\":2462:2481   */\n  dup8\n  dup6\n  add\n    /* \"#utility.yul\":2456:2482   */\n  mload\n    /* \"#utility.yul\":2441:2483   */\n  dup3\n  sstore\n    /* \"#utility.yul\":2569:2573   */\n  0x20\n    /* \"#utility.yul\":2554:2574   */\n  swap5\n  dup6\n  add\n  swap5\n    /* \"#utility.yul\":2522:2523   */\n  0x01\n    /* \"#utility.yul\":2510:2524   */\n  swap1\n  swap3\n  add\n  swap2\n    /* \"#utility.yul\":2396:2408   */\n  add\n    /* \"#utility.yul\":2366:2588   */\n  jump(tag_87)\ntag_89:\n    /* \"#utility.yul\":2370:2373   */\n  pop\n    /* \"#utility.yul\":2616:2622   */\n  dup5\n    /* \"#utility.yul\":2607:2614   */\n  dup3\n    /* \"#utility.yul\":2604:2623   */\n  lt\n    /* \"#utility.yul\":2601:2802   */\n  iszero\n  tag_90\n  jumpi\n    /* \"#utility.yul\":2677:2696   */\n  dup7\n  dup5\n  add\n    /* \"#utility.yul\":2671:2697   */\n  mload\n  not(0x00)\n    /* \"#utility.yul\":2760:2761   */\n  0x03\n    /* \"#utility.yul\":2756:2770   */\n  dup8\n  swap1\n  shl\n    /* \"#utility.yul\":2772:2775   */\n  0xf8\n    /* \"#utility.yul\":2752:2776   */\n  and\n    /* \"#utility.yul\":2748:2785   */\n  shr\n    /* \"#utility.yul\":2744:2786   */\n  not\n    /* \"#utility.yul\":2729:2787   */\n  and\n    /* \"#utility.yul\":2714:2788   */\n  dup2\n  sstore\n    /* \"#utility.yul\":2601:2802   */\ntag_90:\n  pop\n  pop\n  pop\n  pop\n    /* \"#utility.yul\":2848:2849   */\n  0x01\n    /* \"#utility.yul\":2832:2846   */\n  swap1\n  dup2\n  shl\n    /* \"#utility.yul\":2828:2850   */\n  add\n    /* \"#utility.yul\":2815:2851   */\n  swap1\n  sstore\n  pop\n    /* \"#utility.yul\":1819:3118   */\n  jump\t// out\n    /* \"#utility.yul\":3331:3603   */\ntag_60:\n    /* \"GumdropsAlbumNFT1.sol\":286:4887  contract EuphoriaAlbumNFT is ERC721, Ownable, ERC2981 {... */\n  dataSize(sub_0)\n  dup1\n  dataOffset(sub_0)\n  0x00\n  codecopy\n  0x00\n  return\nstop\n\nsub_0: assembly {\n        /* \"GumdropsAlbumNFT1.sol\":286:4887  contract EuphoriaAlbumNFT is ERC721, Ownable, ERC2981 {... */\n      mstore(0x40, 0x80)\n      jumpi(tag_1, lt(calldatasize, 0x04))\n      shr(0xe0, calldataload(0x00))\n      dup1\n      0x6352211e\n      gt\n      tag_29\n      jumpi\n      dup1\n      0xb88d4fde\n      gt\n      tag_30\n      jumpi\n      dup1\n      0xb88d4fde\n      eq\n      tag_22\n      jumpi\n      dup1\n      0xbb86759f\n      eq\n      tag_23\n      jumpi\n      dup1\n      0xc87b56dd\n      eq\n      tag_24\n      jumpi\n      dup1\n      0xd2bcdc60\n      eq\n      tag_25\n      jumpi\n      dup1\n      0xe985e9c5\n      eq\n      tag_26\n      jumpi\n      dup1\n      0xf2fde38b\n      eq\n      tag_27\n      jumpi\n      dup1\n      0xf3720cca\n      eq\n      tag_28\n      jumpi\n      0x00\n      dup1\n      revert\n    tag_30:\n      dup1\n      0x6352211e\n      eq\n      tag_15\n      jumpi\n      dup1\n      0x70a08231\n      eq\n      tag_16\n      jumpi\n      dup1\n      0x715018a6\n      eq\n      tag_17\n      jumpi\n      dup1\n      0x8da5cb5b\n      eq\n      tag_18\n      jumpi\n      dup1\n      0x95d89b41\n      eq\n      tag_19\n      jumpi\n      dup1\n      0xa22cb465\n      eq\n      tag_20\n      jumpi\n      dup1\n      0xa2e34586\n      eq\n      tag_21\n      jumpi\n      0x00\n      dup1\n      revert\n    tag_29:\n      dup1\n      0x23b872dd\n      gt\n      tag_31\n      jumpi\n      dup1\n      0x23b872dd\n      eq\n      tag_8\n      jumpi\n      dup1\n      0x293945b4\n      eq\n      tag_9\n      jumpi\n      dup1\n      0x2a55205a\n      eq\n      tag_10\n      jumpi\n      dup1\n      0x343e988c\n      eq\n      tag_11\n      jumpi\n      dup1\n      0x414e8029\n      eq\n      tag_9\n      jumpi\n      dup1\n      0x42842e0e\n      eq\n      tag_13\n      jumpi\n      dup1\n      0x57a2eda9\n      eq\n      tag_14\n      jumpi\n      0x00\n      dup1\n      revert\n    tag_31:\n      dup1\n      0x01ffc9a7\n      eq\n      tag_2\n      jumpi\n      dup1\n      0x02fa7c47\n      eq\n      tag_3\n      jumpi\n      dup1\n      0x06fdde03\n      eq\n      tag_4\n      jumpi\n      dup1\n      0x081812fc\n      eq\n      tag_5\n      jumpi\n      dup1\n      0x095ea7b3\n      eq\n      tag_6\n      jumpi\n      dup1\n      0x18160ddd\n      eq\n      tag_7\n      jumpi\n    tag_1:\n      0x00\n      dup1\n      revert\n        /* \"GumdropsAlbumNFT1.sol\":4729:4884  function supportsInterface(bytes4 interfaceId)... */\n    tag_2:\n      callvalue\n      dup1\n      iszero\n      tag_32\n      jumpi\n      0x00\n      dup1\n      revert\n    tag_32:\n      pop\n      tag_33\n      tag_34\n      calldatasize\n      0x04\n      tag_35\n      jump\t// in\n    tag_34:\n      tag_36\n      jump\t// in\n    tag_33:\n      mload(0x40)\n        /* \"#utility.yul\":565:579   */\n      swap1\n      iszero\n        /* \"#utility.yul\":558:580   */\n      iszero\n        /* \"#utility.yul\":540:581   */\n      dup2\n      mstore\n        /* \"#utility.yul\":528:530   */\n      0x20\n        /* \"#utility.yul\":513:531   */\n      add\n        /* \"GumdropsAlbumNFT1.sol\":4729:4884  function supportsInterface(bytes4 interfaceId)... */\n    tag_37:\n      mload(0x40)\n      dup1\n      swap2\n      sub\n      swap1\n      return\n        /* \"GumdropsAlbumNFT1.sol\":4535:4678  function setRoyaltyInfo(address _receiver, uint96 _royaltyFeesInBips) public onlyOwner {... */\n    tag_3:\n      callvalue\n      dup1\n      iszero\n      tag_39\n      jumpi\n      0x00\n      dup1\n      revert\n    tag_39:\n      pop\n      tag_40\n      tag_41\n      calldatasize\n      0x04\n      tag_42\n      jump\t// in\n    tag_41:\n      tag_43\n      jump\t// in\n    tag_40:\n      stop\n        /* \"@openzeppelin/contracts/token/ERC721/ERC721.sol\":2365:2454  function name() public view virtual returns (string memory) {... */\n    tag_4:\n      callvalue\n      dup1\n      iszero\n      tag_44\n      jumpi\n      0x00\n      dup1\n      revert\n    tag_44:\n      pop\n      tag_45\n      tag_46\n      jump\t// in\n    tag_45:\n      mload(0x40)\n      tag_37\n      swap2\n      swap1\n      tag_48\n      jump\t// in\n        /* \"@openzeppelin/contracts/token/ERC721/ERC721.sol\":3497:3651  function getApproved(uint256 tokenId) public view virtual returns (address) {... */\n    tag_5:\n      callvalue\n      dup1\n      iszero\n      tag_49\n      jumpi\n      0x00\n      dup1\n      revert\n    tag_49:\n      pop\n      tag_50\n      tag_51\n      calldatasize\n      0x04\n      tag_52\n      jump\t// in\n    tag_51:\n      tag_53\n      jump\t// in\n    tag_50:\n      mload(0x40)\n      tag_37\n      swap2\n      swap1\n      tag_55\n      jump\t// in\n        /* \"@openzeppelin/contracts/token/ERC721/ERC721.sol\":3323:3436  function approve(address to, uint256 tokenId) public virtual {... */\n    tag_6:\n      callvalue\n      dup1\n      iszero\n      tag_56\n      jumpi\n      0x00\n      dup1\n      revert\n    tag_56:\n      pop\n      tag_40\n      tag_58\n      calldatasize\n      0x04\n      tag_59\n      jump\t// in\n    tag_58:\n      tag_60\n      jump\t// in\n        /* \"GumdropsAlbumNFT1.sol\":4385:4475  function totalSupply() public view returns (uint256) {... */\n    tag_7:\n      callvalue\n      dup1\n      iszero\n      tag_61\n      jumpi\n      0x00\n      dup1\n      revert\n    tag_61:\n      pop\n      tag_62\n      tag_63\n      jump\t// in\n    tag_62:\n      mload(0x40)\n        /* \"#utility.yul\":2572:2597   */\n      swap1\n      dup2\n      mstore\n        /* \"#utility.yul\":2560:2562   */\n      0x20\n        /* \"#utility.yul\":2545:2563   */\n      add\n        /* \"GumdropsAlbumNFT1.sol\":4385:4475  function totalSupply() public view returns (uint256) {... */\n      tag_37\n        /* \"#utility.yul\":2426:2603   */\n      jump\n        /* \"@openzeppelin/contracts/token/ERC721/ERC721.sol\":4143:4721  function transferFrom(address from, address to, uint256 tokenId) public virtual {... */\n    tag_8:\n      callvalue\n      dup1\n      iszero\n      tag_66\n      jumpi\n      0x00\n      dup1\n      revert\n    tag_66:\n      pop\n      tag_40\n      tag_68\n      calldatasize\n      0x04\n      tag_69\n      jump\t// in\n    tag_68:\n      tag_70\n      jump\t// in\n        /* \"GumdropsAlbumNFT1.sol\":750:801  uint256 public constant MAX_SHARES_PER_TRACK = 1250 */\n    tag_9:\n      callvalue\n      dup1\n      iszero\n      tag_71\n      jumpi\n      0x00\n      dup1\n      revert\n    tag_71:\n      pop\n      tag_62\n        /* \"GumdropsAlbumNFT1.sol\":797:801  1250 */\n      0x04e2\n        /* \"GumdropsAlbumNFT1.sol\":750:801  uint256 public constant MAX_SHARES_PER_TRACK = 1250 */\n      dup2\n      jump\n        /* \"@openzeppelin/contracts/token/common/ERC2981.sol\":2379:2798  function royaltyInfo(uint256 tokenId, uint256 salePrice) public view virtual returns (address, uint256) {... */\n    tag_10:\n      callvalue\n      dup1\n      iszero\n      tag_75\n      jumpi\n      0x00\n      dup1\n      revert\n    tag_75:\n      pop\n      tag_76\n      tag_77\n      calldatasize\n      0x04\n      tag_78\n      jump\t// in\n    tag_77:\n      tag_79\n      jump\t// in\n    tag_76:\n      0x40\n      dup1\n      mload\n      sub(shl(0xa0, 0x01), 0x01)\n        /* \"#utility.yul\":3530:3562   */\n      swap1\n      swap4\n      and\n        /* \"#utility.yul\":3512:3563   */\n      dup4\n      mstore\n        /* \"#utility.yul\":3594:3596   */\n      0x20\n        /* \"#utility.yul\":3579:3597   */\n      dup4\n      add\n        /* \"#utility.yul\":3572:3606   */\n      swap2\n      swap1\n      swap2\n      mstore\n        /* \"#utility.yul\":3485:3503   */\n      add\n        /* \"@openzeppelin/contracts/token/common/ERC2981.sol\":2379:2798  function royaltyInfo(uint256 tokenId, uint256 salePrice) public view virtual returns (address, uint256) {... */\n      tag_37\n        /* \"#utility.yul\":3338:3612   */\n      jump\n        /* \"GumdropsAlbumNFT1.sol\":3209:3508  function getOwnerSharePercentage(uint256 trackId, address owner) public view returns... */\n    tag_11:\n      callvalue\n      dup1\n      iszero\n      tag_82\n      jumpi\n      0x00\n      dup1\n      revert\n    tag_82:\n      pop\n      tag_62\n      tag_84\n      calldatasize\n      0x04\n      tag_85\n      jump\t// in\n    tag_84:\n      tag_86\n      jump\t// in\n        /* \"@openzeppelin/contracts/token/ERC721/ERC721.sol\":4787:4919  function safeTransferFrom(address from, address to, uint256 tokenId) public {... */\n    tag_13:\n      callvalue\n      dup1\n      iszero\n      tag_92\n      jumpi\n      0x00\n      dup1\n      revert\n    tag_92:\n      pop\n      tag_40\n      tag_94\n      calldatasize\n      0x04\n      tag_69\n      jump\t// in\n    tag_94:\n      tag_95\n      jump\t// in\n        /* \"GumdropsAlbumNFT1.sol\":3568:4343  function withdrawRoyalty(uint256 trackId) public {... */\n    tag_14:\n      callvalue\n      dup1\n      iszero\n      tag_96\n      jumpi\n      0x00\n      dup1\n      revert\n    tag_96:\n      pop\n      tag_40\n      tag_98\n      calldatasize\n      0x04\n      tag_52\n      jump\t// in\n    tag_98:\n      tag_99\n      jump\t// in\n        /* \"@openzeppelin/contracts/token/ERC721/ERC721.sol\":2185:2303  function ownerOf(uint256 tokenId) public view virtual returns (address) {... */\n    tag_15:\n      callvalue\n      dup1\n      iszero\n      tag_100\n      jumpi\n      0x00\n      dup1\n      revert\n    tag_100:\n      pop\n      tag_50\n      tag_102\n      calldatasize\n      0x04\n      tag_52\n      jump\t// in\n    tag_102:\n      tag_103\n      jump\t// in\n        /* \"@openzeppelin/contracts/token/ERC721/ERC721.sol\":1920:2128  function balanceOf(address owner) public view virtual returns (uint256) {... */\n    tag_16:\n      callvalue\n      dup1\n      iszero\n      tag_105\n      jumpi\n      0x00\n      dup1\n      revert\n    tag_105:\n      pop\n      tag_62\n      tag_107\n      calldatasize\n      0x04\n      tag_108\n      jump\t// in\n    tag_107:\n      tag_109\n      jump\t// in\n        /* \"@openzeppelin/contracts/access/Ownable.sol\":2293:2394  function renounceOwnership() public virtual onlyOwner {... */\n    tag_17:\n      callvalue\n      dup1\n      iszero\n      tag_111\n      jumpi\n      0x00\n      dup1\n      revert\n    tag_111:\n      pop\n      tag_40\n      tag_113\n      jump\t// in\n        /* \"@openzeppelin/contracts/access/Ownable.sol\":1638:1723  function owner() public view virtual returns (address) {... */\n    tag_18:\n      callvalue\n      dup1\n      iszero\n      tag_114\n      jumpi\n      0x00\n      dup1\n      revert\n    tag_114:\n      pop\n        /* \"@openzeppelin/contracts/access/Ownable.sol\":1710:1716  _owner */\n      and(sub(shl(0xa0, 0x01), 0x01), sload(0x06))\n        /* \"@openzeppelin/contracts/access/Ownable.sol\":1638:1723  function owner() public view virtual returns (address) {... */\n      jump(tag_50)\n        /* \"@openzeppelin/contracts/token/ERC721/ERC721.sol\":2518:2611  function symbol() public view virtual returns (string memory) {... */\n    tag_19:\n      callvalue\n      dup1\n      iszero\n      tag_118\n      jumpi\n      0x00\n      dup1\n      revert\n    tag_118:\n      pop\n      tag_45\n      tag_120\n      jump\t// in\n        /* \"@openzeppelin/contracts/token/ERC721/ERC721.sol\":3718:3862  function setApprovalForAll(address operator, bool approved) public virtual {... */\n    tag_20:\n      callvalue\n      dup1\n      iszero\n      tag_122\n      jumpi\n      0x00\n      dup1\n      revert\n    tag_122:\n      pop\n      tag_40\n      tag_124\n      calldatasize\n      0x04\n      tag_125\n      jump\t// in\n    tag_124:\n      tag_126\n      jump\t// in\n        /* \"GumdropsAlbumNFT1.sol\":653:692  mapping(uint256 => Track) public tracks */\n    tag_21:\n      callvalue\n      dup1\n      iszero\n      tag_127\n      jumpi\n      0x00\n      dup1\n      revert\n    tag_127:\n      pop\n      tag_128\n      tag_129\n      calldatasize\n      0x04\n      tag_52\n      jump\t// in\n    tag_129:\n      tag_130\n      jump\t// in\n    tag_128:\n      mload(0x40)\n      tag_37\n      swap7\n      swap6\n      swap5\n      swap4\n      swap3\n      swap2\n      swap1\n      tag_132\n      jump\t// in\n        /* \"@openzeppelin/contracts/token/ERC721/ERC721.sol\":4985:5193  function safeTransferFrom(address from, address to, uint256 tokenId, bytes memory data) public virtual {... */\n    tag_22:\n      callvalue\n      dup1\n      iszero\n      tag_133\n      jumpi\n      0x00\n      dup1\n      revert\n    tag_133:\n      pop\n      tag_40\n      tag_135\n      calldatasize\n      0x04\n      tag_136\n      jump\t// in\n    tag_135:\n      tag_137\n      jump\t// in\n        /* \"GumdropsAlbumNFT1.sol\":2890:3148  function accumulateRoyalty(uint256 trackId) public payable onlyOwner {... */\n    tag_23:\n      tag_40\n      tag_139\n      calldatasize\n      0x04\n      tag_52\n      jump\t// in\n    tag_139:\n      tag_140\n      jump\t// in\n        /* \"@openzeppelin/contracts/token/ERC721/ERC721.sol\":2677:2932  function tokenURI(uint256 tokenId) public view virtual returns (string memory) {... */\n    tag_24:\n      callvalue\n      dup1\n      iszero\n      tag_141\n      jumpi\n      0x00\n      dup1\n      revert\n    tag_141:\n      pop\n      tag_45\n      tag_143\n      calldatasize\n      0x04\n      tag_52\n      jump\t// in\n    tag_143:\n      tag_144\n      jump\t// in\n        /* \"GumdropsAlbumNFT1.sol\":2252:2844  function purchaseShares(uint256 trackId, uint256 numShares) public payable {... */\n    tag_25:\n      tag_40\n      tag_147\n      calldatasize\n      0x04\n      tag_78\n      jump\t// in\n    tag_147:\n      tag_148\n      jump\t// in\n        /* \"@openzeppelin/contracts/token/ERC721/ERC721.sol\":3928:4081  function isApprovedForAll(address owner, address operator) public view virtual returns (bool) {... */\n    tag_26:\n      callvalue\n      dup1\n      iszero\n      tag_149\n      jumpi\n      0x00\n      dup1\n      revert\n    tag_149:\n      pop\n      tag_33\n      tag_151\n      calldatasize\n      0x04\n      tag_152\n      jump\t// in\n    tag_151:\n      tag_153\n      jump\t// in\n        /* \"@openzeppelin/contracts/access/Ownable.sol\":2543:2758  function transferOwnership(address newOwner) public virtual onlyOwner {... */\n    tag_27:\n      callvalue\n      dup1\n      iszero\n      tag_155\n      jumpi\n      0x00\n      dup1\n      revert\n    tag_155:\n      pop\n      tag_40\n      tag_157\n      calldatasize\n      0x04\n      tag_108\n      jump\t// in\n    tag_157:\n      tag_158\n      jump\t// in\n        /* \"GumdropsAlbumNFT1.sol\":1787:2219  function createTrack(string memory _title, string memory _isrc) public onlyOwner {... */\n    tag_28:\n      callvalue\n      dup1\n      iszero\n      tag_159\n      jumpi\n      0x00\n      dup1\n      revert\n    tag_159:\n      pop\n      tag_40\n      tag_161\n      calldatasize\n      0x04\n      tag_162\n      jump\t// in\n    tag_161:\n      tag_163\n      jump\t// in\n        /* \"GumdropsAlbumNFT1.sol\":4729:4884  function supportsInterface(bytes4 interfaceId)... */\n    tag_36:\n        /* \"GumdropsAlbumNFT1.sol\":4827:4831  bool */\n      0x00\n        /* \"GumdropsAlbumNFT1.sol\":4844:4880  super.supportsInterface(interfaceId) */\n      tag_165\n        /* \"GumdropsAlbumNFT1.sol\":4868:4879  interfaceId */\n      dup3\n        /* \"GumdropsAlbumNFT1.sol\":4844:4867  super.supportsInterface */\n      tag_166\n        /* \"GumdropsAlbumNFT1.sol\":4844:4880  super.supportsInterface(interfaceId) */\n      jump\t// in\n    tag_165:\n        /* \"GumdropsAlbumNFT1.sol\":4837:4880  return super.supportsInterface(interfaceId) */\n      swap3\n        /* \"GumdropsAlbumNFT1.sol\":4729:4884  function supportsInterface(bytes4 interfaceId)... */\n      swap2\n      pop\n      pop\n      jump\t// out\n        /* \"GumdropsAlbumNFT1.sol\":4535:4678  function setRoyaltyInfo(address _receiver, uint96 _royaltyFeesInBips) public onlyOwner {... */\n    tag_43:\n        /* \"@openzeppelin/contracts/access/Ownable.sol\":1531:1544  _checkOwner() */\n      tag_168\n        /* \"@openzeppelin/contracts/access/Ownable.sol\":1531:1542  _checkOwner */\n      tag_169\n        /* \"@openzeppelin/contracts/access/Ownable.sol\":1531:1544  _checkOwner() */\n      jump\t// in\n    tag_168:\n        /* \"GumdropsAlbumNFT1.sol\":4625:4674  _setDefaultRoyalty(_receiver, _royaltyFeesInBips) */\n      tag_171\n        /* \"GumdropsAlbumNFT1.sol\":4644:4653  _receiver */\n      dup3\n        /* \"GumdropsAlbumNFT1.sol\":4655:4673  _royaltyFeesInBips */\n      dup3\n        /* \"GumdropsAlbumNFT1.sol\":4625:4643  _setDefaultRoyalty */\n      tag_172\n        /* \"GumdropsAlbumNFT1.sol\":4625:4674  _setDefaultRoyalty(_receiver, _royaltyFeesInBips) */\n      jump\t// in\n    tag_171:\n        /* \"GumdropsAlbumNFT1.sol\":4535:4678  function setRoyaltyInfo(address _receiver, uint96 _royaltyFeesInBips) public onlyOwner {... */\n      pop\n      pop\n      jump\t// out\n        /* \"@openzeppelin/contracts/token/ERC721/ERC721.sol\":2365:2454  function name() public view virtual returns (string memory) {... */\n    tag_46:\n        /* \"@openzeppelin/contracts/token/ERC721/ERC721.sol\":2410:2423  string memory */\n      0x60\n        /* \"@openzeppelin/contracts/token/ERC721/ERC721.sol\":2442:2447  _name */\n      0x00\n        /* \"@openzeppelin/contracts/token/ERC721/ERC721.sol\":2435:2447  return _name */\n      dup1\n      sload\n      tag_174\n      swap1\n      tag_175\n      jump\t// in\n    tag_174:\n      dup1\n      0x1f\n      add\n      0x20\n      dup1\n      swap2\n      div\n      mul\n      0x20\n      add\n      mload(0x40)\n      swap1\n      dup2\n      add\n      0x40\n      mstore\n      dup1\n      swap3\n      swap2\n      swap1\n      dup2\n      dup2\n      mstore\n      0x20\n      add\n      dup3\n      dup1\n      sload\n      tag_176\n      swap1\n      tag_175\n      jump\t// in\n    tag_176:\n      dup1\n      iszero\n      tag_177\n      jumpi\n      dup1\n      0x1f\n      lt\n      tag_178\n      jumpi\n      0x0100\n      dup1\n      dup4\n      sload\n      div\n      mul\n      dup4\n      mstore\n      swap2\n      0x20\n      add\n      swap2\n      jump(tag_177)\n    tag_178:\n      dup3\n      add\n      swap2\n      swap1\n      0x00\n      mstore\n      keccak256(0x00, 0x20)\n      swap1\n    tag_179:\n      dup2\n      sload\n      dup2\n      mstore\n      swap1\n      0x01\n      add\n      swap1\n      0x20\n      add\n      dup1\n      dup4\n      gt\n      tag_179\n      jumpi\n      dup3\n      swap1\n      sub\n      0x1f\n      and\n      dup3\n      add\n      swap2\n    tag_177:\n      pop\n      pop\n      pop\n      pop\n      pop\n      swap1\n      pop\n        /* \"@openzeppelin/contracts/token/ERC721/ERC721.sol\":2365:2454  function name() public view virtual returns (string memory) {... */\n      swap1\n      jump\t// out\n        /* \"@openzeppelin/contracts/token/ERC721/ERC721.sol\":3497:3651  function getApproved(uint256 tokenId) public view virtual returns (address) {... */\n    tag_53:\n        /* \"@openzeppelin/contracts/token/ERC721/ERC721.sol\":3564:3571  address */\n      0x00\n        /* \"@openzeppelin/contracts/token/ERC721/ERC721.sol\":3583:3605  _requireOwned(tokenId) */\n      tag_181\n        /* \"@openzeppelin/contracts/token/ERC721/ERC721.sol\":3597:3604  tokenId */\n      dup3\n        /* \"@openzeppelin/contracts/token/ERC721/ERC721.sol\":3583:3596  _requireOwned */\n      tag_182\n        /* \"@openzeppelin/contracts/token/ERC721/ERC721.sol\":3583:3605  _requireOwned(tokenId) */\n      jump\t// in\n    tag_181:\n      pop\n        /* \"@openzeppelin/contracts/token/ERC721/ERC721.sol\":6008:6015  address */\n      0x00\n        /* \"@openzeppelin/contracts/token/ERC721/ERC721.sol\":6034:6058  _tokenApprovals[tokenId] */\n      dup3\n      dup2\n      mstore\n        /* \"@openzeppelin/contracts/token/ERC721/ERC721.sol\":6034:6049  _tokenApprovals */\n      0x04\n        /* \"@openzeppelin/contracts/token/ERC721/ERC721.sol\":6034:6058  _tokenApprovals[tokenId] */\n      0x20\n      mstore\n      0x40\n      swap1\n      keccak256\n      sload\n      sub(shl(0xa0, 0x01), 0x01)\n      and\n        /* \"@openzeppelin/contracts/token/ERC721/ERC721.sol\":3623:3644  _getApproved(tokenId) */\n      tag_165\n        /* \"@openzeppelin/contracts/token/ERC721/ERC721.sol\":5938:6065  function _getApproved(uint256 tokenId) internal view virtual returns (address) {... */\n      jump\n        /* \"@openzeppelin/contracts/token/ERC721/ERC721.sol\":3323:3436  function approve(address to, uint256 tokenId) public virtual {... */\n    tag_60:\n        /* \"@openzeppelin/contracts/token/ERC721/ERC721.sol\":3394:3429  _approve(to, tokenId, _msgSender()) */\n      tag_171\n        /* \"@openzeppelin/contracts/token/ERC721/ERC721.sol\":3403:3405  to */\n      dup3\n        /* \"@openzeppelin/contracts/token/ERC721/ERC721.sol\":3407:3414  tokenId */\n      dup3\n        /* \"@openzeppelin/contracts/utils/Context.sol\":735:745  msg.sender */\n      caller\n        /* \"@openzeppelin/contracts/token/ERC721/ERC721.sol\":3394:3402  _approve */\n      tag_189\n        /* \"@openzeppelin/contracts/token/ERC721/ERC721.sol\":3394:3429  _approve(to, tokenId, _msgSender()) */\n      jump\t// in\n        /* \"GumdropsAlbumNFT1.sol\":4385:4475  function totalSupply() public view returns (uint256) {... */\n    tag_63:\n        /* \"GumdropsAlbumNFT1.sol\":4429:4436  uint256 */\n      0x00\n        /* \"GumdropsAlbumNFT1.sol\":4448:4471  _trackCounter.current() */\n      tag_191\n        /* \"GumdropsAlbumNFT1.sol\":4448:4461  _trackCounter */\n      0x0a\n        /* \"@openzeppelin/contracts/utils/Counters.sol\":918:932  counter._value */\n      sload\n      swap1\n        /* \"@openzeppelin/contracts/utils/Counters.sol\":827:939  function current(Counter storage counter) internal view returns (uint256) {... */\n      jump\n        /* \"GumdropsAlbumNFT1.sol\":4448:4471  _trackCounter.current() */\n    tag_191:\n        /* \"GumdropsAlbumNFT1.sol\":4441:4471  return _trackCounter.current() */\n      swap1\n      pop\n        /* \"GumdropsAlbumNFT1.sol\":4385:4475  function totalSupply() public view returns (uint256) {... */\n      swap1\n      jump\t// out\n        /* \"@openzeppelin/contracts/token/ERC721/ERC721.sol\":4143:4721  function transferFrom(address from, address to, uint256 tokenId) public virtual {... */\n    tag_70:\n      sub(shl(0xa0, 0x01), 0x01)\n        /* \"@openzeppelin/contracts/token/ERC721/ERC721.sol\":4237:4253  to == address(0) */\n      dup3\n      and\n        /* \"@openzeppelin/contracts/token/ERC721/ERC721.sol\":4233:4320  if (to == address(0)) {... */\n      tag_194\n      jumpi\n        /* \"@openzeppelin/contracts/token/ERC721/ERC721.sol\":4306:4307  0 */\n      0x00\n        /* \"@openzeppelin/contracts/token/ERC721/ERC721.sol\":4276:4309  ERC721InvalidReceiver(address(0)) */\n      mload(0x40)\n      shl(0xe1, 0x32505749)\n      dup2\n      mstore\n      0x04\n      add\n      tag_195\n      swap2\n      swap1\n      tag_55\n      jump\t// in\n    tag_195:\n      mload(0x40)\n      dup1\n      swap2\n      sub\n      swap1\n      revert\n        /* \"@openzeppelin/contracts/token/ERC721/ERC721.sol\":4233:4320  if (to == address(0)) {... */\n    tag_194:\n        /* \"@openzeppelin/contracts/token/ERC721/ERC721.sol\":4538:4559  address previousOwner */\n      0x00\n        /* \"@openzeppelin/contracts/token/ERC721/ERC721.sol\":4562:4596  _update(to, tokenId, _msgSender()) */\n      tag_196\n        /* \"@openzeppelin/contracts/token/ERC721/ERC721.sol\":4570:4572  to */\n      dup4\n        /* \"@openzeppelin/contracts/token/ERC721/ERC721.sol\":4574:4581  tokenId */\n      dup4\n        /* \"@openzeppelin/contracts/utils/Context.sol\":735:745  msg.sender */\n      caller\n        /* \"@openzeppelin/contracts/token/ERC721/ERC721.sol\":4562:4569  _update */\n      tag_198\n        /* \"@openzeppelin/contracts/token/ERC721/ERC721.sol\":4562:4596  _update(to, tokenId, _msgSender()) */\n      jump\t// in\n    tag_196:\n        /* \"@openzeppelin/contracts/token/ERC721/ERC721.sol\":4538:4596  address previousOwner = _update(to, tokenId, _msgSender()) */\n      swap1\n      pop\n        /* \"@openzeppelin/contracts/token/ERC721/ERC721.sol\":4627:4631  from */\n      dup4\n      sub(shl(0xa0, 0x01), 0x01)\n        /* \"@openzeppelin/contracts/token/ERC721/ERC721.sol\":4610:4631  previousOwner != from */\n      and\n        /* \"@openzeppelin/contracts/token/ERC721/ERC721.sol\":4610:4623  previousOwner */\n      dup2\n      sub(shl(0xa0, 0x01), 0x01)\n        /* \"@openzeppelin/contracts/token/ERC721/ERC721.sol\":4610:4631  previousOwner != from */\n      and\n      eq\n        /* \"@openzeppelin/contracts/token/ERC721/ERC721.sol\":4606:4715  if (previousOwner != from) {... */\n      tag_199\n      jumpi\n        /* \"@openzeppelin/contracts/token/ERC721/ERC721.sol\":4654:4704  ERC721IncorrectOwner(from, tokenId, previousOwner) */\n      mload(0x40)\n      shl(0xe0, 0x64283d7b)\n      dup2\n      mstore\n      sub(shl(0xa0, 0x01), 0x01)\n        /* \"#utility.yul\":8381:8413   */\n      dup1\n      dup7\n      and\n        /* \"@openzeppelin/contracts/token/ERC721/ERC721.sol\":4654:4704  ERC721IncorrectOwner(from, tokenId, previousOwner) */\n      0x04\n      dup4\n      add\n        /* \"#utility.yul\":8363:8414   */\n      mstore\n        /* \"#utility.yul\":8430:8448   */\n      0x24\n      dup3\n      add\n        /* \"#utility.yul\":8423:8457   */\n      dup5\n      swap1\n      mstore\n        /* \"#utility.yul\":8493:8525   */\n      dup3\n      and\n        /* \"#utility.yul\":8473:8491   */\n      0x44\n      dup3\n      add\n        /* \"#utility.yul\":8466:8526   */\n      mstore\n        /* \"#utility.yul\":8336:8354   */\n      0x64\n      add\n        /* \"@openzeppelin/contracts/token/ERC721/ERC721.sol\":4654:4704  ERC721IncorrectOwner(from, tokenId, previousOwner) */\n      tag_195\n        /* \"#utility.yul\":8161:8532   */\n      jump\n        /* \"@openzeppelin/contracts/token/ERC721/ERC721.sol\":4606:4715  if (previousOwner != from) {... */\n    tag_199:\n        /* \"@openzeppelin/contracts/token/ERC721/ERC721.sol\":4223:4721  {... */\n      pop\n        /* \"@openzeppelin/contracts/token/ERC721/ERC721.sol\":4143:4721  function transferFrom(address from, address to, uint256 tokenId) public virtual {... */\n      pop\n      pop\n      pop\n      jump\t// out\n        /* \"@openzeppelin/contracts/token/common/ERC2981.sol\":2379:2798  function royaltyInfo(uint256 tokenId, uint256 salePrice) public view virtual returns (address, uint256) {... */\n    tag_79:\n        /* \"@openzeppelin/contracts/token/common/ERC2981.sol\":2465:2472  address */\n      0x00\n        /* \"@openzeppelin/contracts/token/common/ERC2981.sol\":2522:2548  _tokenRoyaltyInfo[tokenId] */\n      dup3\n      dup2\n      mstore\n        /* \"@openzeppelin/contracts/token/common/ERC2981.sol\":2522:2539  _tokenRoyaltyInfo */\n      0x08\n        /* \"@openzeppelin/contracts/token/common/ERC2981.sol\":2522:2548  _tokenRoyaltyInfo[tokenId] */\n      0x20\n      swap1\n      dup2\n      mstore\n      0x40\n      dup1\n      dup4\n      keccak256\n        /* \"@openzeppelin/contracts/token/common/ERC2981.sol\":2493:2548  RoyaltyInfo memory royalty = _tokenRoyaltyInfo[tokenId] */\n      dup2\n      mload\n      dup1\n      dup4\n      add\n      swap1\n      swap3\n      mstore\n      sload\n      sub(shl(0xa0, 0x01), 0x01)\n      dup2\n      and\n      dup1\n      dup4\n      mstore\n      shl(0xa0, 0x01)\n      swap1\n      swap2\n      div\n      sub(shl(0x60, 0x01), 0x01)\n      and\n      swap3\n      dup3\n      add\n      swap3\n      swap1\n      swap3\n      mstore\n        /* \"@openzeppelin/contracts/token/common/ERC2981.sol\":2465:2472  address */\n      dup3\n      swap2\n        /* \"@openzeppelin/contracts/token/common/ERC2981.sol\":2559:2649  if (royalty.receiver == address(0)) {... */\n      tag_203\n      jumpi\n      pop\n        /* \"@openzeppelin/contracts/token/common/ERC2981.sol\":2609:2638  royalty = _defaultRoyaltyInfo */\n      0x40\n      dup1\n      mload\n      dup1\n      dup3\n      add\n      swap1\n      swap2\n      mstore\n        /* \"@openzeppelin/contracts/token/common/ERC2981.sol\":2619:2638  _defaultRoyaltyInfo */\n      0x07\n        /* \"@openzeppelin/contracts/token/common/ERC2981.sol\":2609:2638  royalty = _defaultRoyaltyInfo */\n      sload\n      sub(shl(0xa0, 0x01), 0x01)\n      dup2\n      and\n      dup3\n      mstore\n      shl(0xa0, 0x01)\n      swap1\n      div\n      sub(shl(0x60, 0x01), 0x01)\n      and\n      0x20\n      dup3\n      add\n      mstore\n        /* \"@openzeppelin/contracts/token/common/ERC2981.sol\":2559:2649  if (royalty.receiver == address(0)) {... */\n    tag_203:\n        /* \"@openzeppelin/contracts/token/common/ERC2981.sol\":2696:2719  royalty.royaltyFraction */\n      0x20\n      dup2\n      add\n      mload\n        /* \"@openzeppelin/contracts/token/common/ERC2981.sol\":2659:2680  uint256 royaltyAmount */\n      0x00\n      swap1\n        /* \"@openzeppelin/contracts/token/common/ERC2981.sol\":3156:3161  10000 */\n      0x2710\n      swap1\n        /* \"@openzeppelin/contracts/token/common/ERC2981.sol\":2684:2719  salePrice * royalty.royaltyFraction */\n      tag_206\n      swap1\n      sub(shl(0x60, 0x01), 0x01)\n      and\n        /* \"@openzeppelin/contracts/token/common/ERC2981.sol\":2684:2693  salePrice */\n      dup8\n        /* \"@openzeppelin/contracts/token/common/ERC2981.sol\":2684:2719  salePrice * royalty.royaltyFraction */\n      tag_207\n      jump\t// in\n    tag_206:\n        /* \"@openzeppelin/contracts/token/common/ERC2981.sol\":2683:2740  (salePrice * royalty.royaltyFraction) / _feeDenominator() */\n      tag_208\n      swap2\n      swap1\n      tag_209\n      jump\t// in\n    tag_208:\n        /* \"@openzeppelin/contracts/token/common/ERC2981.sol\":2759:2775  royalty.receiver */\n      swap2\n      mload\n      swap7\n      swap2\n      swap6\n      pop\n        /* \"@openzeppelin/contracts/token/common/ERC2981.sol\":2379:2798  function royaltyInfo(uint256 tokenId, uint256 salePrice) public view virtual returns (address, uint256) {... */\n      swap1\n      swap4\n      pop\n      pop\n      pop\n      pop\n      jump\t// out\n        /* \"GumdropsAlbumNFT1.sol\":3209:3508  function getOwnerSharePercentage(uint256 trackId, address owner) public view returns... */\n    tag_86:\n        /* \"GumdropsAlbumNFT1.sol\":3296:3303  uint256 */\n      0x00\n        /* \"GumdropsAlbumNFT1.sol\":3330:3345  tracks[trackId] */\n      dup3\n      dup2\n      mstore\n        /* \"GumdropsAlbumNFT1.sol\":3330:3336  tracks */\n      0x09\n        /* \"GumdropsAlbumNFT1.sol\":3330:3345  tracks[trackId] */\n      0x20\n      swap1\n      dup2\n      mstore\n      0x40\n      dup1\n      dup4\n      keccak256\n      sub(shl(0xa0, 0x01), 0x01)\n        /* \"GumdropsAlbumNFT1.sol\":3370:3397  track.shareOwnership[owner] */\n      dup6\n      and\n      dup5\n      mstore\n        /* \"GumdropsAlbumNFT1.sol\":3370:3390  track.shareOwnership */\n      0x06\n      dup2\n      add\n        /* \"GumdropsAlbumNFT1.sol\":3370:3397  track.shareOwnership[owner] */\n      swap1\n      swap3\n      mstore\n      dup3\n      keccak256\n      sload\n        /* \"GumdropsAlbumNFT1.sol\":797:801  1250 */\n      0x04e2\n        /* \"GumdropsAlbumNFT1.sol\":3408:3426  ownerShares * 1e18 */\n      tag_211\n        /* \"GumdropsAlbumNFT1.sol\":3370:3397  track.shareOwnership[owner] */\n      dup3\n        /* \"GumdropsAlbumNFT1.sol\":3422:3426  1e18 */\n      0x0de0b6b3a7640000\n        /* \"GumdropsAlbumNFT1.sol\":3408:3426  ownerShares * 1e18 */\n      tag_207\n      jump\t// in\n    tag_211:\n        /* \"GumdropsAlbumNFT1.sol\":3407:3450  (ownerShares * 1e18) / MAX_SHARES_PER_TRACK */\n      tag_212\n      swap2\n      swap1\n      tag_209\n      jump\t// in\n    tag_212:\n        /* \"GumdropsAlbumNFT1.sol\":3400:3450  return (ownerShares * 1e18) / MAX_SHARES_PER_TRACK */\n      swap6\n        /* \"GumdropsAlbumNFT1.sol\":3209:3508  function getOwnerSharePercentage(uint256 trackId, address owner) public view returns... */\n      swap5\n      pop\n      pop\n      pop\n      pop\n      pop\n      jump\t// out\n        /* \"@openzeppelin/contracts/token/ERC721/ERC721.sol\":4787:4919  function safeTransferFrom(address from, address to, uint256 tokenId) public {... */\n    tag_95:\n        /* \"@openzeppelin/contracts/token/ERC721/ERC721.sol\":4873:4912  safeTransferFrom(from, to, tokenId, \"\") */\n      tag_214\n        /* \"@openzeppelin/contracts/token/ERC721/ERC721.sol\":4890:4894  from */\n      dup4\n        /* \"@openzeppelin/contracts/token/ERC721/ERC721.sol\":4896:4898  to */\n      dup4\n        /* \"@openzeppelin/contracts/token/ERC721/ERC721.sol\":4900:4907  tokenId */\n      dup4\n        /* \"@openzeppelin/contracts/token/ERC721/ERC721.sol\":4873:4912  safeTransferFrom(from, to, tokenId, \"\") */\n      mload(0x40)\n      dup1\n      0x20\n      add\n      0x40\n      mstore\n      dup1\n      0x00\n      dup2\n      mstore\n      pop\n        /* \"@openzeppelin/contracts/token/ERC721/ERC721.sol\":4873:4889  safeTransferFrom */\n      tag_137\n        /* \"@openzeppelin/contracts/token/ERC721/ERC721.sol\":4873:4912  safeTransferFrom(from, to, tokenId, \"\") */\n      jump\t// in\n    tag_214:\n        /* \"@openzeppelin/contracts/token/ERC721/ERC721.sol\":4787:4919  function safeTransferFrom(address from, address to, uint256 tokenId) public {... */\n      pop\n      pop\n      pop\n      jump\t// out\n        /* \"GumdropsAlbumNFT1.sol\":3568:4343  function withdrawRoyalty(uint256 trackId) public {... */\n    tag_99:\n        /* \"GumdropsAlbumNFT1.sol\":3620:3639  Track storage track */\n      0x00\n        /* \"GumdropsAlbumNFT1.sol\":3642:3657  tracks[trackId] */\n      dup2\n      dup2\n      mstore\n        /* \"GumdropsAlbumNFT1.sol\":3642:3648  tracks */\n      0x09\n        /* \"GumdropsAlbumNFT1.sol\":3642:3657  tracks[trackId] */\n      0x20\n      swap1\n      dup2\n      mstore\n      0x40\n      dup1\n      dup4\n      keccak256\n        /* \"GumdropsAlbumNFT1.sol\":3703:3713  msg.sender */\n      caller\n        /* \"GumdropsAlbumNFT1.sol\":3682:3714  track.shareOwnership[msg.sender] */\n      dup5\n      mstore\n        /* \"GumdropsAlbumNFT1.sol\":3682:3702  track.shareOwnership */\n      0x06\n      dup2\n      add\n        /* \"GumdropsAlbumNFT1.sol\":3682:3714  track.shareOwnership[msg.sender] */\n      swap1\n      swap3\n      mstore\n      swap1\n      swap2\n      keccak256\n      sload\n        /* \"GumdropsAlbumNFT1.sol\":3725:3740  ownerShares > 0 */\n      dup1\n        /* \"GumdropsAlbumNFT1.sol\":3717:3784  require(ownerShares > 0, \"You do not own any shares of this track\") */\n      tag_216\n      jumpi\n      mload(0x40)\n      shl(0xe5, 0x461bcd)\n      dup2\n      mstore\n        /* \"#utility.yul\":9398:9400   */\n      0x20\n        /* \"GumdropsAlbumNFT1.sol\":3717:3784  require(ownerShares > 0, \"You do not own any shares of this track\") */\n      0x04\n      dup3\n      add\n        /* \"#utility.yul\":9380:9401   */\n      mstore\n        /* \"#utility.yul\":9437:9439   */\n      0x27\n        /* \"#utility.yul\":9417:9435   */\n      0x24\n      dup3\n      add\n        /* \"#utility.yul\":9410:9440   */\n      mstore\n        /* \"#utility.yul\":9476:9510   */\n      0x596f7520646f206e6f74206f776e20616e7920736861726573206f6620746869\n        /* \"#utility.yul\":9456:9474   */\n      0x44\n      dup3\n      add\n        /* \"#utility.yul\":9449:9511   */\n      mstore\n      shl(0xc8, 0x7320747261636b)\n        /* \"#utility.yul\":9527:9545   */\n      0x64\n      dup3\n      add\n        /* \"#utility.yul\":9520:9557   */\n      mstore\n        /* \"#utility.yul\":9574:9593   */\n      0x84\n      add\n        /* \"GumdropsAlbumNFT1.sol\":3717:3784  require(ownerShares > 0, \"You do not own any shares of this track\") */\n      tag_195\n        /* \"#utility.yul\":9196:9599   */\n      jump\n        /* \"GumdropsAlbumNFT1.sol\":3717:3784  require(ownerShares > 0, \"You do not own any shares of this track\") */\n    tag_216:\n        /* \"GumdropsAlbumNFT1.sol\":3830:3853  uint256 ownerPercentage */\n      0x00\n        /* \"GumdropsAlbumNFT1.sol\":3856:3900  getOwnerSharePercentage(trackId, msg.sender) */\n      tag_219\n        /* \"GumdropsAlbumNFT1.sol\":3880:3887  trackId */\n      dup5\n        /* \"GumdropsAlbumNFT1.sol\":3889:3899  msg.sender */\n      caller\n        /* \"GumdropsAlbumNFT1.sol\":3856:3879  getOwnerSharePercentage */\n      tag_86\n        /* \"GumdropsAlbumNFT1.sol\":3856:3900  getOwnerSharePercentage(trackId, msg.sender) */\n      jump\t// in\n    tag_219:\n        /* \"GumdropsAlbumNFT1.sol\":3830:3900  uint256 ownerPercentage = getOwnerSharePercentage(trackId, msg.sender) */\n      swap1\n      pop\n        /* \"GumdropsAlbumNFT1.sol\":3903:3923  uint256 ownerRoyalty */\n      0x00\n        /* \"GumdropsAlbumNFT1.sol\":3967:3971  1e18 */\n      0x0de0b6b3a7640000\n        /* \"GumdropsAlbumNFT1.sol\":3948:3963  ownerPercentage */\n      dup3\n        /* \"GumdropsAlbumNFT1.sol\":3927:3932  track */\n      dup6\n        /* \"GumdropsAlbumNFT1.sol\":3927:3945  track.totalRoyalty */\n      0x05\n      add\n      sload\n        /* \"GumdropsAlbumNFT1.sol\":3927:3963  track.totalRoyalty * ownerPercentage */\n      tag_220\n      swap2\n      swap1\n      tag_207\n      jump\t// in\n    tag_220:\n        /* \"GumdropsAlbumNFT1.sol\":3926:3971  (track.totalRoyalty * ownerPercentage) / 1e18 */\n      tag_221\n      swap2\n      swap1\n      tag_209\n      jump\t// in\n    tag_221:\n        /* \"GumdropsAlbumNFT1.sol\":3903:3971  uint256 ownerRoyalty = (track.totalRoyalty * ownerPercentage) / 1e18 */\n      swap1\n      pop\n        /* \"GumdropsAlbumNFT1.sol\":4034:4035  0 */\n      0x00\n        /* \"GumdropsAlbumNFT1.sol\":4019:4031  ownerRoyalty */\n      dup2\n        /* \"GumdropsAlbumNFT1.sol\":4019:4035  ownerRoyalty > 0 */\n      gt\n        /* \"GumdropsAlbumNFT1.sol\":4011:4075  require(ownerRoyalty > 0, \"No royalty available for withdrawal\") */\n      tag_222\n      jumpi\n      mload(0x40)\n      shl(0xe5, 0x461bcd)\n      dup2\n      mstore\n        /* \"#utility.yul\":9806:9808   */\n      0x20\n        /* \"GumdropsAlbumNFT1.sol\":4011:4075  require(ownerRoyalty > 0, \"No royalty available for withdrawal\") */\n      0x04\n      dup3\n      add\n        /* \"#utility.yul\":9788:9809   */\n      mstore\n        /* \"#utility.yul\":9845:9847   */\n      0x23\n        /* \"#utility.yul\":9825:9843   */\n      0x24\n      dup3\n      add\n        /* \"#utility.yul\":9818:9848   */\n      mstore\n        /* \"#utility.yul\":9884:9918   */\n      0x4e6f20726f79616c747920617661696c61626c6520666f722077697468647261\n        /* \"#utility.yul\":9864:9882   */\n      0x44\n      dup3\n      add\n        /* \"#utility.yul\":9857:9919   */\n      mstore\n      shl(0xea, 0x1dd85b)\n        /* \"#utility.yul\":9935:9953   */\n      0x64\n      dup3\n      add\n        /* \"#utility.yul\":9928:9961   */\n      mstore\n        /* \"#utility.yul\":9978:9997   */\n      0x84\n      add\n        /* \"GumdropsAlbumNFT1.sol\":4011:4075  require(ownerRoyalty > 0, \"No royalty available for withdrawal\") */\n      tag_195\n        /* \"#utility.yul\":9604:10003   */\n      jump\n        /* \"GumdropsAlbumNFT1.sol\":4011:4075  require(ownerRoyalty > 0, \"No royalty available for withdrawal\") */\n    tag_222:\n        /* \"GumdropsAlbumNFT1.sol\":4161:4173  ownerRoyalty */\n      dup1\n        /* \"GumdropsAlbumNFT1.sol\":4139:4144  track */\n      dup5\n        /* \"GumdropsAlbumNFT1.sol\":4139:4157  track.totalRoyalty */\n      0x05\n      add\n      0x00\n        /* \"GumdropsAlbumNFT1.sol\":4139:4173  track.totalRoyalty -= ownerRoyalty */\n      dup3\n      dup3\n      sload\n      tag_225\n      swap2\n      swap1\n      tag_226\n      jump\t// in\n    tag_225:\n      swap1\n      swap2\n      sstore\n      pop\n      pop\n        /* \"GumdropsAlbumNFT1.sol\":4238:4280  payable(msg.sender).transfer(ownerRoyalty) */\n      mload(0x40)\n        /* \"GumdropsAlbumNFT1.sol\":4246:4256  msg.sender */\n      caller\n      swap1\n        /* \"GumdropsAlbumNFT1.sol\":4238:4280  payable(msg.sender).transfer(ownerRoyalty) */\n      dup3\n      iszero\n      0x08fc\n      mul\n      swap1\n        /* \"GumdropsAlbumNFT1.sol\":4267:4279  ownerRoyalty */\n      dup4\n      swap1\n        /* \"GumdropsAlbumNFT1.sol\":4238:4280  payable(msg.sender).transfer(ownerRoyalty) */\n      0x00\n      dup2\n      dup2\n      dup2\n        /* \"GumdropsAlbumNFT1.sol\":4267:4279  ownerRoyalty */\n      dup6\n        /* \"GumdropsAlbumNFT1.sol\":4246:4256  msg.sender */\n      dup9\n        /* \"GumdropsAlbumNFT1.sol\":4238:4280  payable(msg.sender).transfer(ownerRoyalty) */\n      dup9\n      call\n      swap4\n      pop\n      pop\n      pop\n      pop\n      iszero\n      dup1\n      iszero\n      tag_228\n      jumpi\n      returndatasize\n      0x00\n      dup1\n      returndatacopy\n      revert(0x00, returndatasize)\n    tag_228:\n      pop\n        /* \"GumdropsAlbumNFT1.sol\":4288:4339  RoyaltyWithdrawn(trackId, msg.sender, ownerRoyalty) */\n      0xd6ce75900eecaacadb4848f3b1a4e89cba8434d748d82adab2caf1bf248b5d17\n        /* \"GumdropsAlbumNFT1.sol\":4305:4312  trackId */\n      dup6\n        /* \"GumdropsAlbumNFT1.sol\":4314:4324  msg.sender */\n      caller\n        /* \"GumdropsAlbumNFT1.sol\":4326:4338  ownerRoyalty */\n      dup4\n        /* \"GumdropsAlbumNFT1.sol\":4288:4339  RoyaltyWithdrawn(trackId, msg.sender, ownerRoyalty) */\n      mload(0x40)\n      tag_229\n      swap4\n      swap3\n      swap2\n      swap1\n      tag_230\n      jump\t// in\n    tag_229:\n      mload(0x40)\n      dup1\n      swap2\n      sub\n      swap1\n      log1\n        /* \"GumdropsAlbumNFT1.sol\":3617:4343  {... */\n      pop\n      pop\n      pop\n      pop\n        /* \"GumdropsAlbumNFT1.sol\":3568:4343  function withdrawRoyalty(uint256 trackId) public {... */\n      pop\n      jump\t// out\n        /* \"@openzeppelin/contracts/token/ERC721/ERC721.sol\":2185:2303  function ownerOf(uint256 tokenId) public view virtual returns (address) {... */\n    tag_103:\n        /* \"@openzeppelin/contracts/token/ERC721/ERC721.sol\":2248:2255  address */\n      0x00\n        /* \"@openzeppelin/contracts/token/ERC721/ERC721.sol\":2274:2296  _requireOwned(tokenId) */\n      tag_165\n        /* \"@openzeppelin/contracts/token/ERC721/ERC721.sol\":2288:2295  tokenId */\n      dup3\n        /* \"@openzeppelin/contracts/token/ERC721/ERC721.sol\":2274:2287  _requireOwned */\n      tag_182\n        /* \"@openzeppelin/contracts/token/ERC721/ERC721.sol\":2274:2296  _requireOwned(tokenId) */\n      jump\t// in\n        /* \"@openzeppelin/contracts/token/ERC721/ERC721.sol\":1920:2128  function balanceOf(address owner) public view virtual returns (uint256) {... */\n    tag_109:\n        /* \"@openzeppelin/contracts/token/ERC721/ERC721.sol\":1983:1990  uint256 */\n      0x00\n      sub(shl(0xa0, 0x01), 0x01)\n        /* \"@openzeppelin/contracts/token/ERC721/ERC721.sol\":2006:2025  owner == address(0) */\n      dup3\n      and\n        /* \"@openzeppelin/contracts/token/ERC721/ERC721.sol\":2002:2089  if (owner == address(0)) {... */\n      tag_234\n      jumpi\n        /* \"@openzeppelin/contracts/token/ERC721/ERC721.sol\":2075:2076  0 */\n      0x00\n        /* \"@openzeppelin/contracts/token/ERC721/ERC721.sol\":2048:2078  ERC721InvalidOwner(address(0)) */\n      mload(0x40)\n      shl(0xe2, 0x22718ad9)\n      dup2\n      mstore\n      0x04\n      add\n      tag_195\n      swap2\n      swap1\n      tag_55\n      jump\t// in\n        /* \"@openzeppelin/contracts/token/ERC721/ERC721.sol\":2002:2089  if (owner == address(0)) {... */\n    tag_234:\n      pop\n      sub(shl(0xa0, 0x01), 0x01)\n        /* \"@openzeppelin/contracts/token/ERC721/ERC721.sol\":2105:2121  _balances[owner] */\n      and\n      0x00\n      swap1\n      dup2\n      mstore\n        /* \"@openzeppelin/contracts/token/ERC721/ERC721.sol\":2105:2114  _balances */\n      0x03\n        /* \"@openzeppelin/contracts/token/ERC721/ERC721.sol\":2105:2121  _balances[owner] */\n      0x20\n      mstore\n      0x40\n      swap1\n      keccak256\n      sload\n      swap1\n        /* \"@openzeppelin/contracts/token/ERC721/ERC721.sol\":1920:2128  function balanceOf(address owner) public view virtual returns (uint256) {... */\n      jump\t// out\n        /* \"@openzeppelin/contracts/access/Ownable.sol\":2293:2394  function renounceOwnership() public virtual onlyOwner {... */\n    tag_113:\n        /* \"@openzeppelin/contracts/access/Ownable.sol\":1531:1544  _checkOwner() */\n      tag_237\n        /* \"@openzeppelin/contracts/access/Ownable.sol\":1531:1542  _checkOwner */\n      tag_169\n        /* \"@openzeppelin/contracts/access/Ownable.sol\":1531:1544  _checkOwner() */\n      jump\t// in\n    tag_237:\n        /* \"@openzeppelin/contracts/access/Ownable.sol\":2357:2387  _transferOwnership(address(0)) */\n      tag_239\n        /* \"@openzeppelin/contracts/access/Ownable.sol\":2384:2385  0 */\n      0x00\n        /* \"@openzeppelin/contracts/access/Ownable.sol\":2357:2375  _transferOwnership */\n      tag_240\n        /* \"@openzeppelin/contracts/access/Ownable.sol\":2357:2387  _transferOwnership(address(0)) */\n      jump\t// in\n    tag_239:\n        /* \"@openzeppelin/contracts/access/Ownable.sol\":2293:2394  function renounceOwnership() public virtual onlyOwner {... */\n      jump\t// out\n        /* \"@openzeppelin/contracts/token/ERC721/ERC721.sol\":2518:2611  function symbol() public view virtual returns (string memory) {... */\n    tag_120:\n        /* \"@openzeppelin/contracts/token/ERC721/ERC721.sol\":2565:2578  string memory */\n      0x60\n        /* \"@openzeppelin/contracts/token/ERC721/ERC721.sol\":2597:2604  _symbol */\n      0x01\n        /* \"@openzeppelin/contracts/token/ERC721/ERC721.sol\":2590:2604  return _symbol */\n      dup1\n      sload\n      tag_174\n      swap1\n      tag_175\n      jump\t// in\n        /* \"@openzeppelin/contracts/token/ERC721/ERC721.sol\":3718:3862  function setApprovalForAll(address operator, bool approved) public virtual {... */\n    tag_126:\n        /* \"@openzeppelin/contracts/token/ERC721/ERC721.sol\":3803:3855  _setApprovalForAll(_msgSender(), operator, approved) */\n      tag_171\n        /* \"@openzeppelin/contracts/utils/Context.sol\":735:745  msg.sender */\n      caller\n        /* \"@openzeppelin/contracts/token/ERC721/ERC721.sol\":3836:3844  operator */\n      dup4\n        /* \"@openzeppelin/contracts/token/ERC721/ERC721.sol\":3846:3854  approved */\n      dup4\n        /* \"@openzeppelin/contracts/token/ERC721/ERC721.sol\":3803:3821  _setApprovalForAll */\n      tag_251\n        /* \"@openzeppelin/contracts/token/ERC721/ERC721.sol\":3803:3855  _setApprovalForAll(_msgSender(), operator, approved) */\n      jump\t// in\n        /* \"GumdropsAlbumNFT1.sol\":653:692  mapping(uint256 => Track) public tracks */\n    tag_130:\n      mstore(0x20, 0x09)\n      0x00\n      swap1\n      dup2\n      mstore\n      0x40\n      swap1\n      keccak256\n      dup1\n      sload\n      dup2\n      swap1\n      tag_252\n      swap1\n      tag_175\n      jump\t// in\n    tag_252:\n      dup1\n      0x1f\n      add\n      0x20\n      dup1\n      swap2\n      div\n      mul\n      0x20\n      add\n      mload(0x40)\n      swap1\n      dup2\n      add\n      0x40\n      mstore\n      dup1\n      swap3\n      swap2\n      swap1\n      dup2\n      dup2\n      mstore\n      0x20\n      add\n      dup3\n      dup1\n      sload\n      tag_253\n      swap1\n      tag_175\n      jump\t// in\n    tag_253:\n      dup1\n      iszero\n      tag_254\n      jumpi\n      dup1\n      0x1f\n      lt\n      tag_255\n      jumpi\n      0x0100\n      dup1\n      dup4\n      sload\n      div\n      mul\n      dup4\n      mstore\n      swap2\n      0x20\n      add\n      swap2\n      jump(tag_254)\n    tag_255:\n      dup3\n      add\n      swap2\n      swap1\n      0x00\n      mstore\n      keccak256(0x00, 0x20)\n      swap1\n    tag_256:\n      dup2\n      sload\n      dup2\n      mstore\n      swap1\n      0x01\n      add\n      swap1\n      0x20\n      add\n      dup1\n      dup4\n      gt\n      tag_256\n      jumpi\n      dup3\n      swap1\n      sub\n      0x1f\n      and\n      dup3\n      add\n      swap2\n    tag_254:\n      pop\n      pop\n      pop\n      pop\n      pop\n      swap1\n      dup1\n      0x01\n      add\n      dup1\n      sload\n      tag_257\n      swap1\n      tag_175\n      jump\t// in\n    tag_257:\n      dup1\n      0x1f\n      add\n      0x20\n      dup1\n      swap2\n      div\n      mul\n      0x20\n      add\n      mload(0x40)\n      swap1\n      dup2\n      add\n      0x40\n      mstore\n      dup1\n      swap3\n      swap2\n      swap1\n      dup2\n      dup2\n      mstore\n      0x20\n      add\n      dup3\n      dup1\n      sload\n      tag_258\n      swap1\n      tag_175\n      jump\t// in\n    tag_258:\n      dup1\n      iszero\n      tag_259\n      jumpi\n      dup1\n      0x1f\n      lt\n      tag_260\n      jumpi\n      0x0100\n      dup1\n      dup4\n      sload\n      div\n      mul\n      dup4\n      mstore\n      swap2\n      0x20\n      add\n      swap2\n      jump(tag_259)\n    tag_260:\n      dup3\n      add\n      swap2\n      swap1\n      0x00\n      mstore\n      keccak256(0x00, 0x20)\n      swap1\n    tag_261:\n      dup2\n      sload\n      dup2\n      mstore\n      swap1\n      0x01\n      add\n      swap1\n      0x20\n      add\n      dup1\n      dup4\n      gt\n      tag_261\n      jumpi\n      dup3\n      swap1\n      sub\n      0x1f\n      and\n      dup3\n      add\n      swap2\n    tag_259:\n      pop\n      pop\n      pop\n      0x02\n      dup5\n      add\n      sload\n      0x03\n      dup6\n      add\n      sload\n      0x04\n      dup7\n      add\n      sload\n      0x05\n      swap1\n      swap7\n      add\n      sload\n      swap5\n      swap6\n      swap2\n      swap5\n      swap1\n      swap4\n      pop\n      0xff\n      swap1\n      swap2\n      and\n      swap2\n      pop\n      dup7\n      jump\t// out\n        /* \"@openzeppelin/contracts/token/ERC721/ERC721.sol\":4985:5193  function safeTransferFrom(address from, address to, uint256 tokenId, bytes memory data) public virtual {... */\n    tag_137:\n        /* \"@openzeppelin/contracts/token/ERC721/ERC721.sol\":5098:5129  transferFrom(from, to, tokenId) */\n      tag_263\n        /* \"@openzeppelin/contracts/token/ERC721/ERC721.sol\":5111:5115  from */\n      dup5\n        /* \"@openzeppelin/contracts/token/ERC721/ERC721.sol\":5117:5119  to */\n      dup5\n        /* \"@openzeppelin/contracts/token/ERC721/ERC721.sol\":5121:5128  tokenId */\n      dup5\n        /* \"@openzeppelin/contracts/token/ERC721/ERC721.sol\":5098:5110  transferFrom */\n      tag_70\n        /* \"@openzeppelin/contracts/token/ERC721/ERC721.sol\":5098:5129  transferFrom(from, to, tokenId) */\n      jump\t// in\n    tag_263:\n        /* \"@openzeppelin/contracts/token/ERC721/ERC721.sol\":5139:5186  _checkOnERC721Received(from, to, tokenId, data) */\n      tag_199\n        /* \"@openzeppelin/contracts/token/ERC721/ERC721.sol\":5162:5166  from */\n      dup5\n        /* \"@openzeppelin/contracts/token/ERC721/ERC721.sol\":5168:5170  to */\n      dup5\n        /* \"@openzeppelin/contracts/token/ERC721/ERC721.sol\":5172:5179  tokenId */\n      dup5\n        /* \"@openzeppelin/contracts/token/ERC721/ERC721.sol\":5181:5185  data */\n      dup5\n        /* \"@openzeppelin/contracts/token/ERC721/ERC721.sol\":5139:5161  _checkOnERC721Received */\n      tag_265\n        /* \"@openzeppelin/contracts/token/ERC721/ERC721.sol\":5139:5186  _checkOnERC721Received(from, to, tokenId, data) */\n      jump\t// in\n        /* \"GumdropsAlbumNFT1.sol\":2890:3148  function accumulateRoyalty(uint256 trackId) public payable onlyOwner {... */\n    tag_140:\n        /* \"@openzeppelin/contracts/access/Ownable.sol\":1531:1544  _checkOwner() */\n      tag_267\n        /* \"@openzeppelin/contracts/access/Ownable.sol\":1531:1542  _checkOwner */\n      tag_169\n        /* \"@openzeppelin/contracts/access/Ownable.sol\":1531:1544  _checkOwner() */\n      jump\t// in\n    tag_267:\n        /* \"GumdropsAlbumNFT1.sol\":2962:2981  Track storage track */\n      0x00\n        /* \"GumdropsAlbumNFT1.sol\":2984:2999  tracks[trackId] */\n      dup2\n      dup2\n      mstore\n        /* \"GumdropsAlbumNFT1.sol\":2984:2990  tracks */\n      0x09\n        /* \"GumdropsAlbumNFT1.sol\":2984:2999  tracks[trackId] */\n      0x20\n      mstore\n      0x40\n      swap1\n      keccak256\n        /* \"GumdropsAlbumNFT1.sol\":3010:3019  msg.value */\n      callvalue\n        /* \"GumdropsAlbumNFT1.sol\":3002:3068  require(msg.value > 0, \"Royalty amount must be greater than zero\") */\n      tag_269\n      jumpi\n      mload(0x40)\n      shl(0xe5, 0x461bcd)\n      dup2\n      mstore\n        /* \"#utility.yul\":10693:10695   */\n      0x20\n        /* \"GumdropsAlbumNFT1.sol\":3002:3068  require(msg.value > 0, \"Royalty amount must be greater than zero\") */\n      0x04\n      dup3\n      add\n        /* \"#utility.yul\":10675:10696   */\n      mstore\n        /* \"#utility.yul\":10732:10734   */\n      0x28\n        /* \"#utility.yul\":10712:10730   */\n      0x24\n      dup3\n      add\n        /* \"#utility.yul\":10705:10735   */\n      mstore\n        /* \"#utility.yul\":10771:10805   */\n      0x526f79616c747920616d6f756e74206d75737420626520677265617465722074\n        /* \"#utility.yul\":10751:10769   */\n      0x44\n      dup3\n      add\n        /* \"#utility.yul\":10744:10806   */\n      mstore\n      shl(0xc0, 0x68616e207a65726f)\n        /* \"#utility.yul\":10822:10840   */\n      0x64\n      dup3\n      add\n        /* \"#utility.yul\":10815:10853   */\n      mstore\n        /* \"#utility.yul\":10870:10889   */\n      0x84\n      add\n        /* \"GumdropsAlbumNFT1.sol\":3002:3068  require(msg.value > 0, \"Royalty amount must be greater than zero\") */\n      tag_195\n        /* \"#utility.yul\":10491:10895   */\n      jump\n        /* \"GumdropsAlbumNFT1.sol\":3002:3068  require(msg.value > 0, \"Royalty amount must be greater than zero\") */\n    tag_269:\n        /* \"GumdropsAlbumNFT1.sol\":3093:3102  msg.value */\n      callvalue\n        /* \"GumdropsAlbumNFT1.sol\":3071:3076  track */\n      dup2\n        /* \"GumdropsAlbumNFT1.sol\":3071:3089  track.totalRoyalty */\n      0x05\n      add\n      0x00\n        /* \"GumdropsAlbumNFT1.sol\":3071:3102  track.totalRoyalty += msg.value */\n      dup3\n      dup3\n      sload\n      tag_272\n      swap2\n      swap1\n      tag_273\n      jump\t// in\n    tag_272:\n      swap1\n      swap2\n      sstore\n      pop\n      pop\n        /* \"GumdropsAlbumNFT1.sol\":3110:3144  RoyaltyAccrued(trackId, msg.value) */\n      0x40\n      dup1\n      mload\n        /* \"#utility.yul\":11204:11229   */\n      dup4\n      dup2\n      mstore\n        /* \"GumdropsAlbumNFT1.sol\":3134:3143  msg.value */\n      callvalue\n        /* \"#utility.yul\":11260:11262   */\n      0x20\n        /* \"#utility.yul\":11245:11263   */\n      dup3\n      add\n        /* \"#utility.yul\":11238:11272   */\n      mstore\n        /* \"GumdropsAlbumNFT1.sol\":3110:3144  RoyaltyAccrued(trackId, msg.value) */\n      0xe03872bdffa6568df2cc485cf9f211d60a716c99c5633e1edc87102d16112500\n      swap2\n        /* \"#utility.yul\":11177:11195   */\n      add\n        /* \"GumdropsAlbumNFT1.sol\":3110:3144  RoyaltyAccrued(trackId, msg.value) */\n      mload(0x40)\n      dup1\n      swap2\n      sub\n      swap1\n      log1\n        /* \"GumdropsAlbumNFT1.sol\":2959:3148  {... */\n      pop\n        /* \"GumdropsAlbumNFT1.sol\":2890:3148  function accumulateRoyalty(uint256 trackId) public payable onlyOwner {... */\n      pop\n      jump\t// out\n        /* \"@openzeppelin/contracts/token/ERC721/ERC721.sol\":2677:2932  function tokenURI(uint256 tokenId) public view virtual returns (string memory) {... */\n    tag_144:\n        /* \"@openzeppelin/contracts/token/ERC721/ERC721.sol\":2741:2754  string memory */\n      0x60\n        /* \"@openzeppelin/contracts/token/ERC721/ERC721.sol\":2766:2788  _requireOwned(tokenId) */\n      tag_277\n        /* \"@openzeppelin/contracts/token/ERC721/ERC721.sol\":2780:2787  tokenId */\n      dup3\n        /* \"@openzeppelin/contracts/token/ERC721/ERC721.sol\":2766:2779  _requireOwned */\n      tag_182\n        /* \"@openzeppelin/contracts/token/ERC721/ERC721.sol\":2766:2788  _requireOwned(tokenId) */\n      jump\t// in\n    tag_277:\n      pop\n        /* \"@openzeppelin/contracts/token/ERC721/ERC721.sol\":2799:2820  string memory baseURI */\n      0x00\n        /* \"@openzeppelin/contracts/token/ERC721/ERC721.sol\":2823:2833  _baseURI() */\n      tag_278\n        /* \"@openzeppelin/contracts/token/ERC721/ERC721.sol\":2823:2831  _baseURI */\n      tag_279\n        /* \"@openzeppelin/contracts/token/ERC721/ERC721.sol\":2823:2833  _baseURI() */\n      jump\t// in\n    tag_278:\n        /* \"@openzeppelin/contracts/token/ERC721/ERC721.sol\":2799:2833  string memory baseURI = _baseURI() */\n      swap1\n      pop\n        /* \"@openzeppelin/contracts/token/ERC721/ERC721.sol\":2874:2875  0 */\n      0x00\n        /* \"@openzeppelin/contracts/token/ERC721/ERC721.sol\":2856:2863  baseURI */\n      dup2\n        /* \"@openzeppelin/contracts/token/ERC721/ERC721.sol\":2850:2871  bytes(baseURI).length */\n      mload\n        /* \"@openzeppelin/contracts/token/ERC721/ERC721.sol\":2850:2875  bytes(baseURI).length > 0 */\n      gt\n        /* \"@openzeppelin/contracts/token/ERC721/ERC721.sol\":2850:2925  bytes(baseURI).length > 0 ? string.concat(baseURI, tokenId.toString()) : \"\" */\n      tag_280\n      jumpi\n      mload(0x40)\n      dup1\n      0x20\n      add\n      0x40\n      mstore\n      dup1\n      0x00\n      dup2\n      mstore\n      pop\n      jump(tag_281)\n    tag_280:\n        /* \"@openzeppelin/contracts/token/ERC721/ERC721.sol\":2892:2899  baseURI */\n      dup1\n        /* \"@openzeppelin/contracts/token/ERC721/ERC721.sol\":2901:2919  tokenId.toString() */\n      tag_282\n        /* \"@openzeppelin/contracts/token/ERC721/ERC721.sol\":2901:2908  tokenId */\n      dup5\n        /* \"@openzeppelin/contracts/token/ERC721/ERC721.sol\":2901:2917  tokenId.toString */\n      tag_283\n        /* \"@openzeppelin/contracts/token/ERC721/ERC721.sol\":2901:2919  tokenId.toString() */\n      jump\t// in\n    tag_282:\n        /* \"@openzeppelin/contracts/token/ERC721/ERC721.sol\":2878:2920  string.concat(baseURI, tokenId.toString()) */\n      add(0x20, mload(0x40))\n      tag_284\n      swap3\n      swap2\n      swap1\n      tag_285\n      jump\t// in\n    tag_284:\n      mload(0x40)\n      0x20\n      dup2\n      dup4\n      sub\n      sub\n      dup2\n      mstore\n      swap1\n      0x40\n      mstore\n        /* \"@openzeppelin/contracts/token/ERC721/ERC721.sol\":2850:2925  bytes(baseURI).length > 0 ? string.concat(baseURI, tokenId.toString()) : \"\" */\n    tag_281:\n        /* \"@openzeppelin/contracts/token/ERC721/ERC721.sol\":2843:2925  return bytes(baseURI).length > 0 ? string.concat(baseURI, tokenId.toString()) : \"\" */\n      swap4\n        /* \"@openzeppelin/contracts/token/ERC721/ERC721.sol\":2677:2932  function tokenURI(uint256 tokenId) public view virtual returns (string memory) {... */\n      swap3\n      pop\n      pop\n      pop\n      jump\t// out\n        /* \"GumdropsAlbumNFT1.sol\":2252:2844  function purchaseShares(uint256 trackId, uint256 numShares) public payable {... */\n    tag_148:\n        /* \"GumdropsAlbumNFT1.sol\":2330:2349  Track storage track */\n      0x00\n        /* \"GumdropsAlbumNFT1.sol\":2352:2367  tracks[trackId] */\n      dup3\n      dup2\n      mstore\n        /* \"GumdropsAlbumNFT1.sol\":2352:2358  tracks */\n      0x09\n        /* \"GumdropsAlbumNFT1.sol\":2352:2367  tracks[trackId] */\n      0x20\n      mstore\n      0x40\n      swap1\n      keccak256\n        /* \"GumdropsAlbumNFT1.sol\":2378:2395  track.isAvailable */\n      0x04\n      dup2\n      add\n      sload\n      0xff\n      and\n        /* \"GumdropsAlbumNFT1.sol\":2370:2419  require(track.isAvailable, \"Track not available\") */\n      tag_287\n      jumpi\n      mload(0x40)\n      shl(0xe5, 0x461bcd)\n      dup2\n      mstore\n        /* \"#utility.yul\":11974:11976   */\n      0x20\n        /* \"GumdropsAlbumNFT1.sol\":2370:2419  require(track.isAvailable, \"Track not available\") */\n      0x04\n      dup3\n      add\n        /* \"#utility.yul\":11956:11977   */\n      mstore\n        /* \"#utility.yul\":12013:12015   */\n      0x13\n        /* \"#utility.yul\":11993:12011   */\n      0x24\n      dup3\n      add\n        /* \"#utility.yul\":11986:12016   */\n      mstore\n      shl(0x68, 0x547261636b206e6f7420617661696c61626c65)\n        /* \"#utility.yul\":12032:12050   */\n      0x44\n      dup3\n      add\n        /* \"#utility.yul\":12025:12074   */\n      mstore\n        /* \"#utility.yul\":12091:12109   */\n      0x64\n      add\n        /* \"GumdropsAlbumNFT1.sol\":2370:2419  require(track.isAvailable, \"Track not available\") */\n      tag_195\n        /* \"#utility.yul\":11772:12115   */\n      jump\n        /* \"GumdropsAlbumNFT1.sol\":2370:2419  require(track.isAvailable, \"Track not available\") */\n    tag_287:\n        /* \"GumdropsAlbumNFT1.sol\":2442:2443  0 */\n      0x00\n        /* \"GumdropsAlbumNFT1.sol\":2430:2439  numShares */\n      dup3\n        /* \"GumdropsAlbumNFT1.sol\":2430:2443  numShares > 0 */\n      gt\n        /* \"GumdropsAlbumNFT1.sol\":2430:2481  numShares > 0 && numShares <= track.sharesRemaining */\n      dup1\n      iszero\n      tag_290\n      jumpi\n      pop\n        /* \"GumdropsAlbumNFT1.sol\":2460:2465  track */\n      dup1\n        /* \"GumdropsAlbumNFT1.sol\":2460:2481  track.sharesRemaining */\n      0x03\n      add\n      sload\n        /* \"GumdropsAlbumNFT1.sol\":2447:2456  numShares */\n      dup3\n        /* \"GumdropsAlbumNFT1.sol\":2447:2481  numShares <= track.sharesRemaining */\n      gt\n      iszero\n        /* \"GumdropsAlbumNFT1.sol\":2430:2481  numShares > 0 && numShares <= track.sharesRemaining */\n    tag_290:\n        /* \"GumdropsAlbumNFT1.sol\":2422:2509  require(numShares > 0 && numShares <= track.sharesRemaining, \"Invalid number ofshares\") */\n      tag_291\n      jumpi\n      mload(0x40)\n      shl(0xe5, 0x461bcd)\n      dup2\n      mstore\n        /* \"#utility.yul\":12322:12324   */\n      0x20\n        /* \"GumdropsAlbumNFT1.sol\":2422:2509  require(numShares > 0 && numShares <= track.sharesRemaining, \"Invalid number ofshares\") */\n      0x04\n      dup3\n      add\n        /* \"#utility.yul\":12304:12325   */\n      mstore\n        /* \"#utility.yul\":12361:12363   */\n      0x17\n        /* \"#utility.yul\":12341:12359   */\n      0x24\n      dup3\n      add\n        /* \"#utility.yul\":12334:12364   */\n      mstore\n      shl(0x48, 0x496e76616c6964206e756d626572206f66736861726573)\n        /* \"#utility.yul\":12380:12398   */\n      0x44\n      dup3\n      add\n        /* \"#utility.yul\":12373:12426   */\n      mstore\n        /* \"#utility.yul\":12443:12461   */\n      0x64\n      add\n        /* \"GumdropsAlbumNFT1.sol\":2422:2509  require(numShares > 0 && numShares <= track.sharesRemaining, \"Invalid number ofshares\") */\n      tag_195\n        /* \"#utility.yul\":12120:12467   */\n      jump\n        /* \"GumdropsAlbumNFT1.sol\":2422:2509  require(numShares > 0 && numShares <= track.sharesRemaining, \"Invalid number ofshares\") */\n    tag_291:\n        /* \"GumdropsAlbumNFT1.sol\":2545:2564  track.pricePerShare */\n      0x02\n      dup2\n      add\n      sload\n        /* \"GumdropsAlbumNFT1.sol\":2533:2564  numShares * track.pricePerShare */\n      tag_294\n      swap1\n        /* \"GumdropsAlbumNFT1.sol\":2533:2542  numShares */\n      dup4\n        /* \"GumdropsAlbumNFT1.sol\":2533:2564  numShares * track.pricePerShare */\n      tag_207\n      jump\t// in\n    tag_294:\n        /* \"GumdropsAlbumNFT1.sol\":2533:2571  numShares * track.pricePerShare * 1e16 */\n      tag_295\n      swap1\n        /* \"GumdropsAlbumNFT1.sol\":2567:2571  1e16 */\n      0x2386f26fc10000\n        /* \"GumdropsAlbumNFT1.sol\":2533:2571  numShares * track.pricePerShare * 1e16 */\n      tag_207\n      jump\t// in\n    tag_295:\n        /* \"GumdropsAlbumNFT1.sol\":2520:2529  msg.value */\n      callvalue\n        /* \"GumdropsAlbumNFT1.sol\":2520:2571  msg.value >= numShares * track.pricePerShare * 1e16 */\n      lt\n      iszero\n        /* \"GumdropsAlbumNFT1.sol\":2512:2596  require(msg.value >= numShares * track.pricePerShare * 1e16, \"Insufficient payment\") */\n      tag_296\n      jumpi\n      mload(0x40)\n      shl(0xe5, 0x461bcd)\n      dup2\n      mstore\n        /* \"#utility.yul\":12674:12676   */\n      0x20\n        /* \"GumdropsAlbumNFT1.sol\":2512:2596  require(msg.value >= numShares * track.pricePerShare * 1e16, \"Insufficient payment\") */\n      0x04\n      dup3\n      add\n        /* \"#utility.yul\":12656:12677   */\n      mstore\n        /* \"#utility.yul\":12713:12715   */\n      0x14\n        /* \"#utility.yul\":12693:12711   */\n      0x24\n      dup3\n      add\n        /* \"#utility.yul\":12686:12716   */\n      mstore\n      shl(0x62, 0x125b9cdd59999a58da595b9d081c185e5b595b9d)\n        /* \"#utility.yul\":12732:12750   */\n      0x44\n      dup3\n      add\n        /* \"#utility.yul\":12725:12775   */\n      mstore\n        /* \"#utility.yul\":12792:12810   */\n      0x64\n      add\n        /* \"GumdropsAlbumNFT1.sol\":2512:2596  require(msg.value >= numShares * track.pricePerShare * 1e16, \"Insufficient payment\") */\n      tag_195\n        /* \"#utility.yul\":12472:12816   */\n      jump\n        /* \"GumdropsAlbumNFT1.sol\":2512:2596  require(msg.value >= numShares * track.pricePerShare * 1e16, \"Insufficient payment\") */\n    tag_296:\n        /* \"GumdropsAlbumNFT1.sol\":2645:2655  msg.sender */\n      caller\n        /* \"GumdropsAlbumNFT1.sol\":2624:2656  track.shareOwnership[msg.sender] */\n      0x00\n      swap1\n      dup2\n      mstore\n        /* \"GumdropsAlbumNFT1.sol\":2624:2644  track.shareOwnership */\n      0x06\n      dup3\n      add\n        /* \"GumdropsAlbumNFT1.sol\":2624:2656  track.shareOwnership[msg.sender] */\n      0x20\n      mstore\n      0x40\n      dup2\n      keccak256\n        /* \"GumdropsAlbumNFT1.sol\":2624:2669  track.shareOwnership[msg.sender] += numShares */\n      dup1\n      sload\n        /* \"GumdropsAlbumNFT1.sol\":2660:2669  numShares */\n      dup5\n      swap3\n        /* \"GumdropsAlbumNFT1.sol\":2624:2656  track.shareOwnership[msg.sender] */\n      swap1\n        /* \"GumdropsAlbumNFT1.sol\":2624:2669  track.shareOwnership[msg.sender] += numShares */\n      tag_299\n      swap1\n        /* \"GumdropsAlbumNFT1.sol\":2660:2669  numShares */\n      dup5\n      swap1\n        /* \"GumdropsAlbumNFT1.sol\":2624:2669  track.shareOwnership[msg.sender] += numShares */\n      tag_273\n      jump\t// in\n    tag_299:\n      swap3\n      pop\n      pop\n      dup2\n      swap1\n      sstore\n      pop\n        /* \"GumdropsAlbumNFT1.sol\":2697:2706  numShares */\n      dup2\n        /* \"GumdropsAlbumNFT1.sol\":2672:2677  track */\n      dup2\n        /* \"GumdropsAlbumNFT1.sol\":2672:2693  track.sharesRemaining */\n      0x03\n      add\n      0x00\n        /* \"GumdropsAlbumNFT1.sol\":2672:2706  track.sharesRemaining -= numShares */\n      dup3\n      dup3\n      sload\n      tag_300\n      swap2\n      swap1\n      tag_226\n      jump\t// in\n    tag_300:\n      swap1\n      swap2\n      sstore\n      pop\n      pop\n        /* \"@openzeppelin/contracts/access/Ownable.sol\":1710:1716  _owner */\n      sload(0x06)\n        /* \"GumdropsAlbumNFT1.sol\":2750:2786  payable(owner()).transfer(msg.value) */\n      mload(0x40)\n      sub(shl(0xa0, 0x01), 0x01)\n        /* \"@openzeppelin/contracts/access/Ownable.sol\":1710:1716  _owner */\n      swap1\n      swap2\n      and\n      swap1\n        /* \"GumdropsAlbumNFT1.sol\":2776:2785  msg.value */\n      callvalue\n        /* \"GumdropsAlbumNFT1.sol\":2750:2786  payable(owner()).transfer(msg.value) */\n      dup1\n      iszero\n      0x08fc\n      mul\n      swap2\n      0x00\n      dup2\n      dup2\n      dup2\n        /* \"GumdropsAlbumNFT1.sol\":2776:2785  msg.value */\n      dup6\n        /* \"@openzeppelin/contracts/access/Ownable.sol\":1710:1716  _owner */\n      dup9\n        /* \"GumdropsAlbumNFT1.sol\":2750:2786  payable(owner()).transfer(msg.value) */\n      dup9\n      call\n      swap4\n      pop\n      pop\n      pop\n      pop\n      iszero\n      dup1\n      iszero\n      tag_303\n      jumpi\n      returndatasize\n      0x00\n      dup1\n      returndatacopy\n      revert(0x00, returndatasize)\n    tag_303:\n      pop\n        /* \"GumdropsAlbumNFT1.sol\":2794:2840  SharePurchased(trackId, msg.sender, numShares) */\n      0xa5afafc7c052a234f91512f360beeb7b6db7a0692bbd017ab5632d80a03a4bc0\n        /* \"GumdropsAlbumNFT1.sol\":2809:2816  trackId */\n      dup4\n        /* \"GumdropsAlbumNFT1.sol\":2818:2828  msg.sender */\n      caller\n        /* \"GumdropsAlbumNFT1.sol\":2830:2839  numShares */\n      dup5\n        /* \"GumdropsAlbumNFT1.sol\":2794:2840  SharePurchased(trackId, msg.sender, numShares) */\n      mload(0x40)\n      tag_304\n      swap4\n      swap3\n      swap2\n      swap1\n      tag_230\n      jump\t// in\n    tag_304:\n      mload(0x40)\n      dup1\n      swap2\n      sub\n      swap1\n      log1\n        /* \"GumdropsAlbumNFT1.sol\":2327:2844  {... */\n      pop\n        /* \"GumdropsAlbumNFT1.sol\":2252:2844  function purchaseShares(uint256 trackId, uint256 numShares) public payable {... */\n      pop\n      pop\n      jump\t// out\n        /* \"@openzeppelin/contracts/token/ERC721/ERC721.sol\":3928:4081  function isApprovedForAll(address owner, address operator) public view virtual returns (bool) {... */\n    tag_153:\n      sub(shl(0xa0, 0x01), 0x01)\n        /* \"@openzeppelin/contracts/token/ERC721/ERC721.sol\":4039:4064  _operatorApprovals[owner] */\n      swap2\n      dup3\n      and\n        /* \"@openzeppelin/contracts/token/ERC721/ERC721.sol\":4016:4020  bool */\n      0x00\n        /* \"@openzeppelin/contracts/token/ERC721/ERC721.sol\":4039:4064  _operatorApprovals[owner] */\n      swap1\n      dup2\n      mstore\n        /* \"@openzeppelin/contracts/token/ERC721/ERC721.sol\":4039:4057  _operatorApprovals */\n      0x05\n        /* \"@openzeppelin/contracts/token/ERC721/ERC721.sol\":4039:4064  _operatorApprovals[owner] */\n      0x20\n      swap1\n      dup2\n      mstore\n      0x40\n      dup1\n      dup4\n      keccak256\n        /* \"@openzeppelin/contracts/token/ERC721/ERC721.sol\":4039:4074  _operatorApprovals[owner][operator] */\n      swap4\n      swap1\n      swap5\n      and\n      dup3\n      mstore\n      swap2\n      swap1\n      swap2\n      mstore\n      keccak256\n      sload\n      0xff\n      and\n      swap1\n        /* \"@openzeppelin/contracts/token/ERC721/ERC721.sol\":3928:4081  function isApprovedForAll(address owner, address operator) public view virtual returns (bool) {... */\n      jump\t// out\n        /* \"@openzeppelin/contracts/access/Ownable.sol\":2543:2758  function transferOwnership(address newOwner) public virtual onlyOwner {... */\n    tag_158:\n        /* \"@openzeppelin/contracts/access/Ownable.sol\":1531:1544  _checkOwner() */\n      tag_307\n        /* \"@openzeppelin/contracts/access/Ownable.sol\":1531:1542  _checkOwner */\n      tag_169\n        /* \"@openzeppelin/contracts/access/Ownable.sol\":1531:1544  _checkOwner() */\n      jump\t// in\n    tag_307:\n      sub(shl(0xa0, 0x01), 0x01)\n        /* \"@openzeppelin/contracts/access/Ownable.sol\":2627:2649  newOwner == address(0) */\n      dup2\n      and\n        /* \"@openzeppelin/contracts/access/Ownable.sol\":2623:2714  if (newOwner == address(0)) {... */\n      tag_309\n      jumpi\n        /* \"@openzeppelin/contracts/access/Ownable.sol\":2700:2701  0 */\n      0x00\n        /* \"@openzeppelin/contracts/access/Ownable.sol\":2672:2703  OwnableInvalidOwner(address(0)) */\n      mload(0x40)\n      shl(0xe0, 0x1e4fbdf7)\n      dup2\n      mstore\n      0x04\n      add\n      tag_195\n      swap2\n      swap1\n      tag_55\n      jump\t// in\n        /* \"@openzeppelin/contracts/access/Ownable.sol\":2623:2714  if (newOwner == address(0)) {... */\n    tag_309:\n        /* \"@openzeppelin/contracts/access/Ownable.sol\":2723:2751  _transferOwnership(newOwner) */\n      tag_311\n        /* \"@openzeppelin/contracts/access/Ownable.sol\":2742:2750  newOwner */\n      dup2\n        /* \"@openzeppelin/contracts/access/Ownable.sol\":2723:2741  _transferOwnership */\n      tag_240\n        /* \"@openzeppelin/contracts/access/Ownable.sol\":2723:2751  _transferOwnership(newOwner) */\n      jump\t// in\n    tag_311:\n        /* \"@openzeppelin/contracts/access/Ownable.sol\":2543:2758  function transferOwnership(address newOwner) public virtual onlyOwner {... */\n      pop\n      jump\t// out\n        /* \"GumdropsAlbumNFT1.sol\":1787:2219  function createTrack(string memory _title, string memory _isrc) public onlyOwner {... */\n    tag_163:\n        /* \"@openzeppelin/contracts/access/Ownable.sol\":1531:1544  _checkOwner() */\n      tag_313\n        /* \"@openzeppelin/contracts/access/Ownable.sol\":1531:1542  _checkOwner */\n      tag_169\n        /* \"@openzeppelin/contracts/access/Ownable.sol\":1531:1544  _checkOwner() */\n      jump\t// in\n    tag_313:\n        /* \"GumdropsAlbumNFT1.sol\":1871:1886  uint256 trackId */\n      0x00\n        /* \"GumdropsAlbumNFT1.sol\":1889:1912  _trackCounter.current() */\n      tag_315\n        /* \"GumdropsAlbumNFT1.sol\":1889:1902  _trackCounter */\n      0x0a\n        /* \"@openzeppelin/contracts/utils/Counters.sol\":918:932  counter._value */\n      sload\n      swap1\n        /* \"@openzeppelin/contracts/utils/Counters.sol\":827:939  function current(Counter storage counter) internal view returns (uint256) {... */\n      jump\n        /* \"GumdropsAlbumNFT1.sol\":1889:1912  _trackCounter.current() */\n    tag_315:\n        /* \"GumdropsAlbumNFT1.sol\":1871:1912  uint256 trackId = _trackCounter.current() */\n      swap1\n      pop\n        /* \"GumdropsAlbumNFT1.sol\":1915:1945  _safeMint(msg.sender, trackId) */\n      tag_316\n        /* \"GumdropsAlbumNFT1.sol\":1925:1935  msg.sender */\n      caller\n        /* \"GumdropsAlbumNFT1.sol\":1937:1944  trackId */\n      dup3\n        /* \"GumdropsAlbumNFT1.sol\":1915:1924  _safeMint */\n      tag_317\n        /* \"GumdropsAlbumNFT1.sol\":1915:1945  _safeMint(msg.sender, trackId) */\n      jump\t// in\n    tag_316:\n        /* \"GumdropsAlbumNFT1.sol\":1948:1967  Track storage track */\n      0x00\n        /* \"GumdropsAlbumNFT1.sol\":1970:1985  tracks[trackId] */\n      dup2\n      dup2\n      mstore\n        /* \"GumdropsAlbumNFT1.sol\":1970:1976  tracks */\n      0x09\n        /* \"GumdropsAlbumNFT1.sol\":1970:1985  tracks[trackId] */\n      0x20\n      mstore\n      0x40\n      swap1\n      keccak256\n      dup1\n        /* \"GumdropsAlbumNFT1.sol\":1988:2008  track.title = _title */\n      tag_318\n        /* \"GumdropsAlbumNFT1.sol\":2002:2008  _title */\n      dup6\n        /* \"GumdropsAlbumNFT1.sol\":1970:1985  tracks[trackId] */\n      dup3\n        /* \"GumdropsAlbumNFT1.sol\":1988:2008  track.title = _title */\n      tag_319\n      jump\t// in\n    tag_318:\n      pop\n        /* \"GumdropsAlbumNFT1.sol\":2011:2021  track.isrc */\n      0x01\n      dup2\n      add\n        /* \"GumdropsAlbumNFT1.sol\":2011:2029  track.isrc = _isrc */\n      tag_320\n        /* \"GumdropsAlbumNFT1.sol\":2024:2029  _isrc */\n      dup5\n        /* \"GumdropsAlbumNFT1.sol\":2011:2021  track.isrc */\n      dup3\n        /* \"GumdropsAlbumNFT1.sol\":2011:2029  track.isrc = _isrc */\n      tag_319\n      jump\t// in\n    tag_320:\n      pop\n        /* \"GumdropsAlbumNFT1.sol\":846:850  1250 */\n      0x04e2\n        /* \"GumdropsAlbumNFT1.sol\":2032:2051  track.pricePerShare */\n      0x02\n      dup3\n      add\n        /* \"GumdropsAlbumNFT1.sol\":2032:2069  track.pricePerShare = SHARE_PRICE_USD */\n      dup2\n      swap1\n      sstore\n        /* \"GumdropsAlbumNFT1.sol\":2072:2093  track.sharesRemaining */\n      0x03\n      dup3\n      add\n        /* \"GumdropsAlbumNFT1.sol\":2072:2116  track.sharesRemaining = MAX_SHARES_PER_TRACK */\n      sstore\n        /* \"GumdropsAlbumNFT1.sol\":2119:2136  track.isAvailable */\n      0x04\n      dup2\n      add\n        /* \"GumdropsAlbumNFT1.sol\":2119:2143  track.isAvailable = true */\n      dup1\n      sload\n      not(0xff)\n      and\n        /* \"GumdropsAlbumNFT1.sol\":2139:2143  true */\n      0x01\n        /* \"GumdropsAlbumNFT1.sol\":2119:2143  track.isAvailable = true */\n      or\n      swap1\n      sstore\n        /* \"GumdropsAlbumNFT1.sol\":2146:2171  _trackCounter.increment() */\n      tag_321\n        /* \"GumdropsAlbumNFT1.sol\":2146:2159  _trackCounter */\n      0x0a\n        /* \"@openzeppelin/contracts/utils/Counters.sol\":1032:1051  counter._value += 1 */\n      dup1\n      sload\n        /* \"@openzeppelin/contracts/utils/Counters.sol\":1050:1051  1 */\n      0x01\n        /* \"@openzeppelin/contracts/utils/Counters.sol\":1032:1051  counter._value += 1 */\n      add\n      swap1\n      sstore\n        /* \"@openzeppelin/contracts/utils/Counters.sol\":945:1068  function increment(Counter storage counter) internal {... */\n      jump\n        /* \"GumdropsAlbumNFT1.sol\":2146:2171  _trackCounter.increment() */\n    tag_321:\n        /* \"GumdropsAlbumNFT1.sol\":2179:2215  TrackCreated(trackId, _title, _isrc) */\n      0x21579433a032855e20e8afc48e980ddae0b6285e4aa03370f03192be12bea28b\n        /* \"GumdropsAlbumNFT1.sol\":2192:2199  trackId */\n      dup3\n        /* \"GumdropsAlbumNFT1.sol\":2201:2207  _title */\n      dup6\n        /* \"GumdropsAlbumNFT1.sol\":2209:2214  _isrc */\n      dup6\n        /* \"GumdropsAlbumNFT1.sol\":2179:2215  TrackCreated(trackId, _title, _isrc) */\n      mload(0x40)\n      tag_323\n      swap4\n      swap3\n      swap2\n      swap1\n      tag_324\n      jump\t// in\n    tag_323:\n      mload(0x40)\n      dup1\n      swap2\n      sub\n      swap1\n      log1\n        /* \"GumdropsAlbumNFT1.sol\":1868:2219  {... */\n      pop\n      pop\n        /* \"GumdropsAlbumNFT1.sol\":1787:2219  function createTrack(string memory _title, string memory _isrc) public onlyOwner {... */\n      pop\n      pop\n      jump\t// out\n        /* \"@openzeppelin/contracts/token/common/ERC2981.sol\":2116:2329  function supportsInterface(bytes4 interfaceId) public view virtual override(IERC165, ERC165) returns (bool) {... */\n    tag_166:\n        /* \"@openzeppelin/contracts/token/common/ERC2981.sol\":2218:2222  bool */\n      0x00\n      not(sub(shl(0xe0, 0x01), 0x01))\n        /* \"@openzeppelin/contracts/token/common/ERC2981.sol\":2241:2282  interfaceId == type(IERC2981).interfaceId */\n      dup3\n      and\n      shl(0xe1, 0x152a902d)\n      eq\n      dup1\n        /* \"@openzeppelin/contracts/token/common/ERC2981.sol\":2241:2322  interfaceId == type(IERC2981).interfaceId || super.supportsInterface(interfaceId) */\n      tag_165\n      jumpi\n      pop\n        /* \"@openzeppelin/contracts/token/common/ERC2981.sol\":2286:2322  super.supportsInterface(interfaceId) */\n      tag_165\n        /* \"@openzeppelin/contracts/token/common/ERC2981.sol\":2310:2321  interfaceId */\n      dup3\n        /* \"@openzeppelin/contracts/token/common/ERC2981.sol\":2286:2309  super.supportsInterface */\n      tag_328\n        /* \"@openzeppelin/contracts/token/common/ERC2981.sol\":2286:2322  super.supportsInterface(interfaceId) */\n      jump\t// in\n        /* \"@openzeppelin/contracts/access/Ownable.sol\":1796:1958  function _checkOwner() internal view virtual {... */\n    tag_169:\n        /* \"@openzeppelin/contracts/access/Ownable.sol\":1710:1716  _owner */\n      and(sub(shl(0xa0, 0x01), 0x01), sload(0x06))\n        /* \"@openzeppelin/contracts/utils/Context.sol\":735:745  msg.sender */\n      caller\n        /* \"@openzeppelin/contracts/access/Ownable.sol\":1855:1878  owner() != _msgSender() */\n      eq\n        /* \"@openzeppelin/contracts/access/Ownable.sol\":1851:1952  if (owner() != _msgSender()) {... */\n      tag_239\n      jumpi\n        /* \"@openzeppelin/contracts/utils/Context.sol\":735:745  msg.sender */\n      caller\n        /* \"@openzeppelin/contracts/access/Ownable.sol\":1901:1941  OwnableUnauthorizedAccount(_msgSender()) */\n      mload(0x40)\n      shl(0xe0, 0x118cdaa7)\n      dup2\n      mstore\n      0x04\n      add\n      tag_195\n      swap2\n      swap1\n      tag_55\n      jump\t// in\n        /* \"@openzeppelin/contracts/token/common/ERC2981.sol\":3429:3936  function _setDefaultRoyalty(address receiver, uint96 feeNumerator) internal virtual {... */\n    tag_172:\n        /* \"@openzeppelin/contracts/token/common/ERC2981.sol\":3156:3161  10000 */\n      0x2710\n      sub(shl(0x60, 0x01), 0x01)\n        /* \"@openzeppelin/contracts/token/common/ERC2981.sol\":3576:3602  feeNumerator > denominator */\n      dup3\n      and\n      dup2\n      lt\n        /* \"@openzeppelin/contracts/token/common/ERC2981.sol\":3572:3745  if (feeNumerator > denominator) {... */\n      iszero\n      tag_337\n      jumpi\n        /* \"@openzeppelin/contracts/token/common/ERC2981.sol\":3679:3734  ERC2981InvalidDefaultRoyalty(feeNumerator, denominator) */\n      mload(0x40)\n      shl(0xe0, 0x6f483d09)\n      dup2\n      mstore\n      sub(shl(0x60, 0x01), 0x01)\n        /* \"#utility.yul\":15617:15656   */\n      dup4\n      and\n        /* \"@openzeppelin/contracts/token/common/ERC2981.sol\":3679:3734  ERC2981InvalidDefaultRoyalty(feeNumerator, denominator) */\n      0x04\n      dup3\n      add\n        /* \"#utility.yul\":15599:15657   */\n      mstore\n        /* \"#utility.yul\":15673:15691   */\n      0x24\n      dup2\n      add\n        /* \"#utility.yul\":15666:15700   */\n      dup3\n      swap1\n      mstore\n        /* \"#utility.yul\":15572:15590   */\n      0x44\n      add\n        /* \"@openzeppelin/contracts/token/common/ERC2981.sol\":3679:3734  ERC2981InvalidDefaultRoyalty(feeNumerator, denominator) */\n      tag_195\n        /* \"#utility.yul\":15426:15706   */\n      jump\n        /* \"@openzeppelin/contracts/token/common/ERC2981.sol\":3572:3745  if (feeNumerator > denominator) {... */\n    tag_337:\n      sub(shl(0xa0, 0x01), 0x01)\n        /* \"@openzeppelin/contracts/token/common/ERC2981.sol\":3758:3780  receiver == address(0) */\n      dup4\n      and\n        /* \"@openzeppelin/contracts/token/common/ERC2981.sol\":3754:3862  if (receiver == address(0)) {... */\n      tag_340\n      jumpi\n        /* \"@openzeppelin/contracts/token/common/ERC2981.sol\":3848:3849  0 */\n      0x00\n        /* \"@openzeppelin/contracts/token/common/ERC2981.sol\":3803:3851  ERC2981InvalidDefaultRoyaltyReceiver(address(0)) */\n      mload(0x40)\n      shl(0xe1, 0x5b6cc805)\n      dup2\n      mstore\n      0x04\n      add\n      tag_195\n      swap2\n      swap1\n      tag_55\n      jump\t// in\n        /* \"@openzeppelin/contracts/token/common/ERC2981.sol\":3754:3862  if (receiver == address(0)) {... */\n    tag_340:\n      pop\n        /* \"@openzeppelin/contracts/token/common/ERC2981.sol\":3894:3929  RoyaltyInfo(receiver, feeNumerator) */\n      0x40\n      dup1\n      mload\n      dup1\n      dup3\n      add\n      swap1\n      swap2\n      mstore\n      sub(shl(0xa0, 0x01), 0x01)\n      swap1\n      swap3\n      and\n      dup1\n      dup4\n      mstore\n      sub(shl(0x60, 0x01), 0x01)\n      swap1\n      swap2\n      and\n      0x20\n      swap1\n      swap3\n      add\n      dup3\n      swap1\n      mstore\n      shl(0xa0, 0x01)\n        /* \"@openzeppelin/contracts/token/common/ERC2981.sol\":3872:3929  _defaultRoyaltyInfo = RoyaltyInfo(receiver, feeNumerator) */\n      swap1\n      swap2\n      mul\n      or\n        /* \"@openzeppelin/contracts/token/common/ERC2981.sol\":3872:3891  _defaultRoyaltyInfo */\n      0x07\n        /* \"@openzeppelin/contracts/token/common/ERC2981.sol\":3872:3929  _defaultRoyaltyInfo = RoyaltyInfo(receiver, feeNumerator) */\n      sstore\n        /* \"@openzeppelin/contracts/token/common/ERC2981.sol\":3429:3936  function _setDefaultRoyalty(address receiver, uint96 feeNumerator) internal virtual {... */\n      jump\t// out\n        /* \"@openzeppelin/contracts/token/ERC721/ERC721.sol\":16138:16379  function _requireOwned(uint256 tokenId) internal view returns (address) {... */\n    tag_182:\n        /* \"@openzeppelin/contracts/token/ERC721/ERC721.sol\":16201:16208  address */\n      0x00\n        /* \"@openzeppelin/contracts/token/ERC721/ERC721.sol\":5799:5815  _owners[tokenId] */\n      dup2\n      dup2\n      mstore\n        /* \"@openzeppelin/contracts/token/ERC721/ERC721.sol\":5799:5806  _owners */\n      0x02\n        /* \"@openzeppelin/contracts/token/ERC721/ERC721.sol\":5799:5815  _owners[tokenId] */\n      0x20\n      mstore\n      0x40\n      dup2\n      keccak256\n      sload\n      sub(shl(0xa0, 0x01), 0x01)\n      and\n      dup1\n        /* \"@openzeppelin/contracts/token/ERC721/ERC721.sol\":16263:16351  if (owner == address(0)) {... */\n      tag_165\n      jumpi\n        /* \"@openzeppelin/contracts/token/ERC721/ERC721.sol\":16309:16340  ERC721NonexistentToken(tokenId) */\n      mload(0x40)\n      shl(0xe0, 0x7e273289)\n      dup2\n      mstore\n      0x04\n      dup2\n      add\n        /* \"#utility.yul\":2572:2597   */\n      dup5\n      swap1\n      mstore\n        /* \"#utility.yul\":2545:2563   */\n      0x24\n      add\n        /* \"@openzeppelin/contracts/token/ERC721/ERC721.sol\":16309:16340  ERC721NonexistentToken(tokenId) */\n      tag_195\n        /* \"#utility.yul\":2426:2603   */\n      jump\n        /* \"@openzeppelin/contracts/token/ERC721/ERC721.sol\":14418:14538  function _approve(address to, uint256 tokenId, address auth) internal {... */\n    tag_189:\n        /* \"@openzeppelin/contracts/token/ERC721/ERC721.sol\":14498:14531  _approve(to, tokenId, auth, true) */\n      tag_214\n        /* \"@openzeppelin/contracts/token/ERC721/ERC721.sol\":14507:14509  to */\n      dup4\n        /* \"@openzeppelin/contracts/token/ERC721/ERC721.sol\":14511:14518  tokenId */\n      dup4\n        /* \"@openzeppelin/contracts/token/ERC721/ERC721.sol\":14520:14524  auth */\n      dup4\n        /* \"@openzeppelin/contracts/token/ERC721/ERC721.sol\":14526:14530  true */\n      0x01\n        /* \"@openzeppelin/contracts/token/ERC721/ERC721.sol\":14498:14506  _approve */\n      tag_351\n        /* \"@openzeppelin/contracts/token/ERC721/ERC721.sol\":14498:14531  _approve(to, tokenId, auth, true) */\n      jump\t// in\n        /* \"@openzeppelin/contracts/token/ERC721/ERC721.sol\":8838:9633  function _update(address to, uint256 tokenId, address auth) internal virtual returns (address) {... */\n    tag_198:\n        /* \"@openzeppelin/contracts/token/ERC721/ERC721.sol\":8924:8931  address */\n      0x00\n        /* \"@openzeppelin/contracts/token/ERC721/ERC721.sol\":5799:5815  _owners[tokenId] */\n      dup3\n      dup2\n      mstore\n        /* \"@openzeppelin/contracts/token/ERC721/ERC721.sol\":5799:5806  _owners */\n      0x02\n        /* \"@openzeppelin/contracts/token/ERC721/ERC721.sol\":5799:5815  _owners[tokenId] */\n      0x20\n      mstore\n      0x40\n      dup2\n      keccak256\n      sload\n      sub(shl(0xa0, 0x01), 0x01)\n      swap1\n      dup2\n      and\n      swap1\n        /* \"@openzeppelin/contracts/token/ERC721/ERC721.sol\":9035:9053  auth != address(0) */\n      dup4\n      and\n      iszero\n        /* \"@openzeppelin/contracts/token/ERC721/ERC721.sol\":9031:9117  if (auth != address(0)) {... */\n      tag_356\n      jumpi\n        /* \"@openzeppelin/contracts/token/ERC721/ERC721.sol\":9069:9106  _checkAuthorized(from, auth, tokenId) */\n      tag_356\n        /* \"@openzeppelin/contracts/token/ERC721/ERC721.sol\":9086:9090  from */\n      dup2\n        /* \"@openzeppelin/contracts/token/ERC721/ERC721.sol\":9092:9096  auth */\n      dup5\n        /* \"@openzeppelin/contracts/token/ERC721/ERC721.sol\":9098:9105  tokenId */\n      dup7\n        /* \"@openzeppelin/contracts/token/ERC721/ERC721.sol\":9069:9085  _checkAuthorized */\n      tag_357\n        /* \"@openzeppelin/contracts/token/ERC721/ERC721.sol\":9069:9106  _checkAuthorized(from, auth, tokenId) */\n      jump\t// in\n    tag_356:\n      sub(shl(0xa0, 0x01), 0x01)\n        /* \"@openzeppelin/contracts/token/ERC721/ERC721.sol\":9161:9179  from != address(0) */\n      dup2\n      and\n      iszero\n        /* \"@openzeppelin/contracts/token/ERC721/ERC721.sol\":9157:9413  if (from != address(0)) {... */\n      tag_358\n      jumpi\n        /* \"@openzeppelin/contracts/token/ERC721/ERC721.sol\":9277:9325  _approve(address(0), tokenId, address(0), false) */\n      tag_359\n        /* \"@openzeppelin/contracts/token/ERC721/ERC721.sol\":9294:9295  0 */\n      0x00\n        /* \"@openzeppelin/contracts/token/ERC721/ERC721.sol\":9298:9305  tokenId */\n      dup6\n        /* \"@openzeppelin/contracts/token/ERC721/ERC721.sol\":9315:9316  0 */\n      0x00\n        /* \"@openzeppelin/contracts/token/ERC721/ERC721.sol\":9319:9324  false */\n      dup1\n        /* \"@openzeppelin/contracts/token/ERC721/ERC721.sol\":9277:9285  _approve */\n      tag_351\n        /* \"@openzeppelin/contracts/token/ERC721/ERC721.sol\":9277:9325  _approve(address(0), tokenId, address(0), false) */\n      jump\t// in\n    tag_359:\n      sub(shl(0xa0, 0x01), 0x01)\n        /* \"@openzeppelin/contracts/token/ERC721/ERC721.sol\":9368:9383  _balances[from] */\n      dup2\n      and\n      0x00\n      swap1\n      dup2\n      mstore\n        /* \"@openzeppelin/contracts/token/ERC721/ERC721.sol\":9368:9377  _balances */\n      0x03\n        /* \"@openzeppelin/contracts/token/ERC721/ERC721.sol\":9368:9383  _balances[from] */\n      0x20\n      mstore\n      0x40\n      swap1\n      keccak256\n        /* \"@openzeppelin/contracts/token/ERC721/ERC721.sol\":9368:9388  _balances[from] -= 1 */\n      dup1\n      sload\n      not(0x00)\n      add\n      swap1\n      sstore\n        /* \"@openzeppelin/contracts/token/ERC721/ERC721.sol\":9157:9413  if (from != address(0)) {... */\n    tag_358:\n      sub(shl(0xa0, 0x01), 0x01)\n        /* \"@openzeppelin/contracts/token/ERC721/ERC721.sol\":9427:9443  to != address(0) */\n      dup6\n      and\n      iszero\n        /* \"@openzeppelin/contracts/token/ERC721/ERC721.sol\":9423:9530  if (to != address(0)) {... */\n      tag_360\n      jumpi\n      sub(shl(0xa0, 0x01), 0x01)\n        /* \"@openzeppelin/contracts/token/ERC721/ERC721.sol\":9487:9500  _balances[to] */\n      dup6\n      and\n      0x00\n      swap1\n      dup2\n      mstore\n        /* \"@openzeppelin/contracts/token/ERC721/ERC721.sol\":9487:9496  _balances */\n      0x03\n        /* \"@openzeppelin/contracts/token/ERC721/ERC721.sol\":9487:9500  _balances[to] */\n      0x20\n      mstore\n      0x40\n      swap1\n      keccak256\n        /* \"@openzeppelin/contracts/token/ERC721/ERC721.sol\":9487:9505  _balances[to] += 1 */\n      dup1\n      sload\n        /* \"@openzeppelin/contracts/token/ERC721/ERC721.sol\":9504:9505  1 */\n      0x01\n        /* \"@openzeppelin/contracts/token/ERC721/ERC721.sol\":9487:9505  _balances[to] += 1 */\n      add\n      swap1\n      sstore\n        /* \"@openzeppelin/contracts/token/ERC721/ERC721.sol\":9423:9530  if (to != address(0)) {... */\n    tag_360:\n        /* \"@openzeppelin/contracts/token/ERC721/ERC721.sol\":9540:9556  _owners[tokenId] */\n      0x00\n      dup5\n      dup2\n      mstore\n        /* \"@openzeppelin/contracts/token/ERC721/ERC721.sol\":9540:9547  _owners */\n      0x02\n        /* \"@openzeppelin/contracts/token/ERC721/ERC721.sol\":9540:9556  _owners[tokenId] */\n      0x20\n      mstore\n      0x40\n      dup1\n      dup3\n      keccak256\n        /* \"@openzeppelin/contracts/token/ERC721/ERC721.sol\":9540:9561  _owners[tokenId] = to */\n      dup1\n      sload\n      not(sub(shl(0xa0, 0x01), 0x01))\n      and\n      sub(shl(0xa0, 0x01), 0x01)\n      dup10\n      dup2\n      and\n      swap2\n      dup3\n      or\n      swap1\n      swap3\n      sstore\n        /* \"@openzeppelin/contracts/token/ERC721/ERC721.sol\":9577:9604  Transfer(from, to, tokenId) */\n      swap2\n      mload\n        /* \"@openzeppelin/contracts/token/ERC721/ERC721.sol\":9540:9556  _owners[tokenId] */\n      dup8\n      swap4\n        /* \"@openzeppelin/contracts/token/ERC721/ERC721.sol\":9577:9604  Transfer(from, to, tokenId) */\n      swap2\n      dup6\n      and\n      swap2\n      0xddf252ad1be2c89b69c2b068fc378daa952ba7f163c4a11628f55a4df523b3ef\n      swap2\n      log4\n        /* \"@openzeppelin/contracts/token/ERC721/ERC721.sol\":9622:9626  from */\n      swap5\n        /* \"@openzeppelin/contracts/token/ERC721/ERC721.sol\":8838:9633  function _update(address to, uint256 tokenId, address auth) internal virtual returns (address) {... */\n      swap4\n      pop\n      pop\n      pop\n      pop\n      jump\t// out\n        /* \"@openzeppelin/contracts/access/Ownable.sol\":2912:3099  function _transferOwnership(address newOwner) internal virtual {... */\n    tag_240:\n        /* \"@openzeppelin/contracts/access/Ownable.sol\":3004:3010  _owner */\n      0x06\n      dup1\n      sload\n      sub(shl(0xa0, 0x01), 0x01)\n        /* \"@openzeppelin/contracts/access/Ownable.sol\":3020:3037  _owner = newOwner */\n      dup4\n      dup2\n      and\n      not(sub(shl(0xa0, 0x01), 0x01))\n      dup4\n      and\n      dup2\n      or\n      swap1\n      swap4\n      sstore\n        /* \"@openzeppelin/contracts/access/Ownable.sol\":3052:3092  OwnershipTransferred(oldOwner, newOwner) */\n      mload(0x40)\n        /* \"@openzeppelin/contracts/access/Ownable.sol\":3004:3010  _owner */\n      swap2\n      and\n      swap2\n        /* \"@openzeppelin/contracts/access/Ownable.sol\":3020:3037  _owner = newOwner */\n      swap1\n        /* \"@openzeppelin/contracts/access/Ownable.sol\":3004:3010  _owner */\n      dup3\n      swap1\n        /* \"@openzeppelin/contracts/access/Ownable.sol\":3052:3092  OwnershipTransferred(oldOwner, newOwner) */\n      0x8be0079c531659141344cd1fd0a4f28419497f9722a3daafe3b4186f6b6457e0\n      swap1\n        /* \"@openzeppelin/contracts/access/Ownable.sol\":2985:3001  address oldOwner */\n      0x00\n      swap1\n        /* \"@openzeppelin/contracts/access/Ownable.sol\":3052:3092  OwnershipTransferred(oldOwner, newOwner) */\n      log3\n        /* \"@openzeppelin/contracts/access/Ownable.sol\":2975:3099  {... */\n      pop\n        /* \"@openzeppelin/contracts/access/Ownable.sol\":2912:3099  function _transferOwnership(address newOwner) internal virtual {... */\n      pop\n      jump\t// out\n        /* \"@openzeppelin/contracts/token/ERC721/ERC721.sol\":15591:15903  function _setApprovalForAll(address owner, address operator, bool approved) internal virtual {... */\n    tag_251:\n      sub(shl(0xa0, 0x01), 0x01)\n        /* \"@openzeppelin/contracts/token/ERC721/ERC721.sol\":15698:15720  operator == address(0) */\n      dup3\n      and\n        /* \"@openzeppelin/contracts/token/ERC721/ERC721.sol\":15694:15785  if (operator == address(0)) {... */\n      tag_364\n      jumpi\n        /* \"@openzeppelin/contracts/token/ERC721/ERC721.sol\":15765:15773  operator */\n      dup2\n        /* \"@openzeppelin/contracts/token/ERC721/ERC721.sol\":15743:15774  ERC721InvalidOperator(operator) */\n      mload(0x40)\n      shl(0xe3, 0x0b611743)\n      dup2\n      mstore\n      0x04\n      add\n      tag_195\n      swap2\n      swap1\n      tag_55\n      jump\t// in\n        /* \"@openzeppelin/contracts/token/ERC721/ERC721.sol\":15694:15785  if (operator == address(0)) {... */\n    tag_364:\n      sub(shl(0xa0, 0x01), 0x01)\n        /* \"@openzeppelin/contracts/token/ERC721/ERC721.sol\":15794:15819  _operatorApprovals[owner] */\n      dup4\n      dup2\n      and\n      0x00\n      dup2\n      dup2\n      mstore\n        /* \"@openzeppelin/contracts/token/ERC721/ERC721.sol\":15794:15812  _operatorApprovals */\n      0x05\n        /* \"@openzeppelin/contracts/token/ERC721/ERC721.sol\":15794:15819  _operatorApprovals[owner] */\n      0x20\n      swap1\n      dup2\n      mstore\n      0x40\n      dup1\n      dup4\n      keccak256\n        /* \"@openzeppelin/contracts/token/ERC721/ERC721.sol\":15794:15829  _operatorApprovals[owner][operator] */\n      swap5\n      dup8\n      and\n      dup1\n      dup5\n      mstore\n      swap5\n      dup3\n      mstore\n      swap2\n      dup3\n      swap1\n      keccak256\n        /* \"@openzeppelin/contracts/token/ERC721/ERC721.sol\":15794:15840  _operatorApprovals[owner][operator] = approved */\n      dup1\n      sload\n      not(0xff)\n      and\n      dup7\n      iszero\n      iszero\n      swap1\n      dup2\n      or\n      swap1\n      swap2\n      sstore\n        /* \"@openzeppelin/contracts/token/ERC721/ERC721.sol\":15855:15896  ApprovalForAll(owner, operator, approved) */\n      swap2\n      mload\n        /* \"#utility.yul\":540:581   */\n      swap2\n      dup3\n      mstore\n        /* \"@openzeppelin/contracts/token/ERC721/ERC721.sol\":15855:15896  ApprovalForAll(owner, operator, approved) */\n      0x17307eab39ab6107e8899845ad3d59bd9653f200f220920489ca2b5937696c31\n      swap2\n        /* \"#utility.yul\":513:531   */\n      add\n        /* \"@openzeppelin/contracts/token/ERC721/ERC721.sol\":15855:15896  ApprovalForAll(owner, operator, approved) */\n      mload(0x40)\n      dup1\n      swap2\n      sub\n      swap1\n      log3\n        /* \"@openzeppelin/contracts/token/ERC721/ERC721.sol\":15591:15903  function _setApprovalForAll(address owner, address operator, bool approved) internal virtual {... */\n      pop\n      pop\n      pop\n      jump\t// out\n        /* \"@openzeppelin/contracts/token/ERC721/ERC721.sol\":16918:17700  function _checkOnERC721Received(address from, address to, uint256 tokenId, bytes memory data) private {... */\n    tag_265:\n      sub(shl(0xa0, 0x01), 0x01)\n        /* \"@openzeppelin/contracts/token/ERC721/ERC721.sol\":17034:17048  to.code.length */\n      dup4\n      and\n      extcodesize\n        /* \"@openzeppelin/contracts/token/ERC721/ERC721.sol\":17034:17052  to.code.length > 0 */\n      iszero\n        /* \"@openzeppelin/contracts/token/ERC721/ERC721.sol\":17030:17694  if (to.code.length > 0) {... */\n      tag_199\n      jumpi\n        /* \"@openzeppelin/contracts/token/ERC721/ERC721.sol\":17072:17143  IERC721Receiver(to).onERC721Received(_msgSender(), from, tokenId, data) */\n      mload(0x40)\n      shl(0xe1, 0x0a85bd01)\n      dup2\n      mstore\n      sub(shl(0xa0, 0x01), 0x01)\n        /* \"@openzeppelin/contracts/token/ERC721/ERC721.sol\":17072:17108  IERC721Receiver(to).onERC721Received */\n      dup5\n      and\n      swap1\n      0x150b7a02\n      swap1\n        /* \"@openzeppelin/contracts/token/ERC721/ERC721.sol\":17072:17143  IERC721Receiver(to).onERC721Received(_msgSender(), from, tokenId, data) */\n      tag_370\n      swap1\n        /* \"@openzeppelin/contracts/utils/Context.sol\":735:745  msg.sender */\n      caller\n      swap1\n        /* \"@openzeppelin/contracts/token/ERC721/ERC721.sol\":17123:17127  from */\n      dup9\n      swap1\n        /* \"@openzeppelin/contracts/token/ERC721/ERC721.sol\":17129:17136  tokenId */\n      dup8\n      swap1\n        /* \"@openzeppelin/contracts/token/ERC721/ERC721.sol\":17138:17142  data */\n      dup8\n      swap1\n        /* \"@openzeppelin/contracts/token/ERC721/ERC721.sol\":17072:17143  IERC721Receiver(to).onERC721Received(_msgSender(), from, tokenId, data) */\n      0x04\n      add\n      tag_371\n      jump\t// in\n    tag_370:\n      0x20\n      mload(0x40)\n      dup1\n      dup4\n      sub\n      dup2\n      0x00\n      dup8\n      gas\n      call\n      swap3\n      pop\n      pop\n      pop\n      dup1\n      iszero\n      tag_372\n      jumpi\n      pop\n      0x40\n      dup1\n      mload\n      0x1f\n      returndatasize\n      swap1\n      dup2\n      add\n      not(0x1f)\n      and\n      dup3\n      add\n      swap1\n      swap3\n      mstore\n      tag_373\n      swap2\n      dup2\n      add\n      swap1\n      tag_374\n      jump\t// in\n    tag_373:\n      0x01\n    tag_372:\n        /* \"@openzeppelin/contracts/token/ERC721/ERC721.sol\":17068:17684  try IERC721Receiver(to).onERC721Received(_msgSender(), from, tokenId, data) returns (bytes4 retval) {... */\n      tag_375\n      jumpi\n      returndatasize\n      dup1\n      dup1\n      iszero\n      tag_380\n      jumpi\n      mload(0x40)\n      swap2\n      pop\n      and(add(returndatasize, 0x3f), not(0x1f))\n      dup3\n      add\n      0x40\n      mstore\n      returndatasize\n      dup3\n      mstore\n      returndatasize\n      0x00\n      0x20\n      dup5\n      add\n      returndatacopy\n      jump(tag_379)\n    tag_380:\n      0x60\n      swap2\n      pop\n    tag_379:\n      pop\n        /* \"@openzeppelin/contracts/token/ERC721/ERC721.sol\":17381:17387  reason */\n      dup1\n        /* \"@openzeppelin/contracts/token/ERC721/ERC721.sol\":17381:17394  reason.length */\n      mload\n        /* \"@openzeppelin/contracts/token/ERC721/ERC721.sol\":17398:17399  0 */\n      0x00\n        /* \"@openzeppelin/contracts/token/ERC721/ERC721.sol\":17381:17399  reason.length == 0 */\n      sub\n        /* \"@openzeppelin/contracts/token/ERC721/ERC721.sol\":17377:17670  if (reason.length == 0) {... */\n      tag_381\n      jumpi\n        /* \"@openzeppelin/contracts/token/ERC721/ERC721.sol\":17452:17454  to */\n      dup4\n        /* \"@openzeppelin/contracts/token/ERC721/ERC721.sol\":17430:17455  ERC721InvalidReceiver(to) */\n      mload(0x40)\n      shl(0xe1, 0x32505749)\n      dup2\n      mstore\n      0x04\n      add\n      tag_195\n      swap2\n      swap1\n      tag_55\n      jump\t// in\n        /* \"@openzeppelin/contracts/token/ERC721/ERC721.sol\":17377:17670  if (reason.length == 0) {... */\n    tag_381:\n        /* \"@openzeppelin/contracts/token/ERC721/ERC721.sol\":17622:17628  reason */\n      dup1\n        /* \"@openzeppelin/contracts/token/ERC721/ERC721.sol\":17616:17629  mload(reason) */\n      mload\n        /* \"@openzeppelin/contracts/token/ERC721/ERC721.sol\":17607:17613  reason */\n      dup2\n        /* \"@openzeppelin/contracts/token/ERC721/ERC721.sol\":17603:17605  32 */\n      0x20\n        /* \"@openzeppelin/contracts/token/ERC721/ERC721.sol\":17599:17614  add(32, reason) */\n      add\n        /* \"@openzeppelin/contracts/token/ERC721/ERC721.sol\":17592:17630  revert(add(32, reason), mload(reason)) */\n      revert\n        /* \"@openzeppelin/contracts/token/ERC721/ERC721.sol\":17068:17684  try IERC721Receiver(to).onERC721Received(_msgSender(), from, tokenId, data) returns (bytes4 retval) {... */\n    tag_375:\n      not(sub(shl(0xe0, 0x01), 0x01))\n        /* \"@openzeppelin/contracts/token/ERC721/ERC721.sol\":17190:17241  retval != IERC721Receiver.onERC721Received.selector */\n      dup2\n      and\n      shl(0xe1, 0x0a85bd01)\n      eq\n        /* \"@openzeppelin/contracts/token/ERC721/ERC721.sol\":17186:17316  if (retval != IERC721Receiver.onERC721Received.selector) {... */\n      tag_385\n      jumpi\n        /* \"@openzeppelin/contracts/token/ERC721/ERC721.sol\":17294:17296  to */\n      dup4\n        /* \"@openzeppelin/contracts/token/ERC721/ERC721.sol\":17272:17297  ERC721InvalidReceiver(to) */\n      mload(0x40)\n      shl(0xe1, 0x32505749)\n      dup2\n      mstore\n      0x04\n      add\n      tag_195\n      swap2\n      swap1\n      tag_55\n      jump\t// in\n        /* \"@openzeppelin/contracts/token/ERC721/ERC721.sol\":17186:17316  if (retval != IERC721Receiver.onERC721Received.selector) {... */\n    tag_385:\n        /* \"@openzeppelin/contracts/token/ERC721/ERC721.sol\":17144:17330  returns (bytes4 retval) {... */\n      pop\n        /* \"@openzeppelin/contracts/token/ERC721/ERC721.sol\":16918:17700  function _checkOnERC721Received(address from, address to, uint256 tokenId, bytes memory data) private {... */\n      pop\n      pop\n      pop\n      pop\n      jump\t// out\n        /* \"GumdropsAlbumNFT1.sol\":1568:1752  function _baseURI() internal pure override returns (string memory) {... */\n    tag_279:\n        /* \"GumdropsAlbumNFT1.sol\":1620:1633  string memory */\n      0x60\n        /* \"GumdropsAlbumNFT1.sol\":1638:1748  return... */\n      mload(0x40)\n      dup1\n      0xa0\n      add\n      0x40\n      mstore\n      dup1\n      0x64\n      dup2\n      mstore\n      0x20\n      add\n      data_7771773f702b4e939e4f13bb3109b5b3069fc424947ed7997233d08ce9476e9b\n      0x64\n      swap2\n      codecopy\n      swap1\n      pop\n        /* \"GumdropsAlbumNFT1.sol\":1568:1752  function _baseURI() internal pure override returns (string memory) {... */\n      swap1\n      jump\t// out\n        /* \"@openzeppelin/contracts/utils/Strings.sol\":637:1335  function toString(uint256 value) internal pure returns (string memory) {... */\n    tag_283:\n        /* \"@openzeppelin/contracts/utils/Strings.sol\":693:706  string memory */\n      0x60\n        /* \"@openzeppelin/contracts/utils/Strings.sol\":742:756  uint256 length */\n      0x00\n        /* \"@openzeppelin/contracts/utils/Strings.sol\":759:776  Math.log10(value) */\n      tag_389\n        /* \"@openzeppelin/contracts/utils/Strings.sol\":770:775  value */\n      dup4\n        /* \"@openzeppelin/contracts/utils/Strings.sol\":759:769  Math.log10 */\n      tag_390\n        /* \"@openzeppelin/contracts/utils/Strings.sol\":759:776  Math.log10(value) */\n      jump\t// in\n    tag_389:\n        /* \"@openzeppelin/contracts/utils/Strings.sol\":779:780  1 */\n      0x01\n        /* \"@openzeppelin/contracts/utils/Strings.sol\":759:780  Math.log10(value) + 1 */\n      add\n        /* \"@openzeppelin/contracts/utils/Strings.sol\":742:780  uint256 length = Math.log10(value) + 1 */\n      swap1\n      pop\n        /* \"@openzeppelin/contracts/utils/Strings.sol\":794:814  string memory buffer */\n      0x00\n        /* \"@openzeppelin/contracts/utils/Strings.sol\":828:834  length */\n      dup2\n      sub(shl(0x40, 0x01), 0x01)\n        /* \"@openzeppelin/contracts/utils/Strings.sol\":817:835  new string(length) */\n      dup2\n      gt\n      iszero\n      tag_392\n      jumpi\n      tag_392\n      tag_393\n      jump\t// in\n    tag_392:\n      mload(0x40)\n      swap1\n      dup1\n      dup3\n      mstore\n      dup1\n      0x1f\n      add\n      not(0x1f)\n      and\n      0x20\n      add\n      dup3\n      add\n      0x40\n      mstore\n      dup1\n      iszero\n      tag_394\n      jumpi\n      0x20\n      dup3\n      add\n      dup2\n      dup1\n      calldatasize\n      dup4\n      calldatacopy\n      add\n      swap1\n      pop\n    tag_394:\n      pop\n        /* \"@openzeppelin/contracts/utils/Strings.sol\":794:835  string memory buffer = new string(length) */\n      swap1\n      pop\n        /* \"@openzeppelin/contracts/utils/Strings.sol\":955:983  add(buffer, add(32, length)) */\n      dup2\n      dup2\n      add\n        /* \"@openzeppelin/contracts/utils/Strings.sol\":971:973  32 */\n      0x20\n        /* \"@openzeppelin/contracts/utils/Strings.sol\":955:983  add(buffer, add(32, length)) */\n      add\n        /* \"@openzeppelin/contracts/utils/Strings.sol\":1010:1292  while (true) {... */\n    tag_395:\n      not(0x00)\n        /* \"@openzeppelin/contracts/utils/Strings.sol\":1041:1046  ptr-- */\n      add\n      shl(0x81, 0x181899199a1a9b1b9c1cb0b131b232b3)\n        /* \"@openzeppelin/contracts/utils/Strings.sol\":1175:1177  10 */\n      0x0a\n        /* \"@openzeppelin/contracts/utils/Strings.sol\":1164:1178  mod(value, 10) */\n      dup7\n      mod\n        /* \"@openzeppelin/contracts/utils/Strings.sol\":1159:1191  byte(mod(value, 10), HEX_DIGITS) */\n      byte\n        /* \"@openzeppelin/contracts/utils/Strings.sol\":1041:1046  ptr-- */\n      dup2\n        /* \"@openzeppelin/contracts/utils/Strings.sol\":1146:1192  mstore8(ptr, byte(mod(value, 10), HEX_DIGITS)) */\n      mstore8\n        /* \"@openzeppelin/contracts/utils/Strings.sol\":1236:1238  10 */\n      0x0a\n        /* \"@openzeppelin/contracts/utils/Strings.sol\":1227:1238  value /= 10 */\n      dup6\n      div\n      swap5\n      pop\n        /* \"@openzeppelin/contracts/utils/Strings.sol\":1256:1277  if (value == 0) break */\n      dup5\n        /* \"@openzeppelin/contracts/utils/Strings.sol\":1010:1292  while (true) {... */\n      tag_395\n        /* \"@openzeppelin/contracts/utils/Strings.sol\":1256:1277  if (value == 0) break */\n      jumpi\n      pop\n        /* \"@openzeppelin/contracts/utils/Strings.sol\":1312:1318  buffer */\n      swap4\n        /* \"@openzeppelin/contracts/utils/Strings.sol\":637:1335  function toString(uint256 value) internal pure returns (string memory) {... */\n      swap3\n      pop\n      pop\n      pop\n      jump\t// out\n        /* \"@openzeppelin/contracts/token/ERC721/ERC721.sol\":10633:10733  function _safeMint(address to, uint256 tokenId) internal {... */\n    tag_317:\n        /* \"@openzeppelin/contracts/token/ERC721/ERC721.sol\":10700:10726  _safeMint(to, tokenId, \"\") */\n      tag_171\n        /* \"@openzeppelin/contracts/token/ERC721/ERC721.sol\":10710:10712  to */\n      dup3\n        /* \"@openzeppelin/contracts/token/ERC721/ERC721.sol\":10714:10721  tokenId */\n      dup3\n        /* \"@openzeppelin/contracts/token/ERC721/ERC721.sol\":10700:10726  _safeMint(to, tokenId, \"\") */\n      mload(0x40)\n      dup1\n      0x20\n      add\n      0x40\n      mstore\n      dup1\n      0x00\n      dup2\n      mstore\n      pop\n        /* \"@openzeppelin/contracts/token/ERC721/ERC721.sol\":10700:10709  _safeMint */\n      tag_403\n        /* \"@openzeppelin/contracts/token/ERC721/ERC721.sol\":10700:10726  _safeMint(to, tokenId, \"\") */\n      jump\t// in\n        /* \"@openzeppelin/contracts/token/ERC721/ERC721.sol\":1561:1861  function supportsInterface(bytes4 interfaceId) public view virtual override(ERC165, IERC165) returns (bool) {... */\n    tag_328:\n        /* \"@openzeppelin/contracts/token/ERC721/ERC721.sol\":1663:1667  bool */\n      0x00\n      not(sub(shl(0xe0, 0x01), 0x01))\n        /* \"@openzeppelin/contracts/token/ERC721/ERC721.sol\":1698:1738  interfaceId == type(IERC721).interfaceId */\n      dup3\n      and\n      shl(0xe0, 0x80ac58cd)\n      eq\n      dup1\n        /* \"@openzeppelin/contracts/token/ERC721/ERC721.sol\":1698:1802  interfaceId == type(IERC721).interfaceId ||... */\n      tag_406\n      jumpi\n      pop\n      not(sub(shl(0xe0, 0x01), 0x01))\n        /* \"@openzeppelin/contracts/token/ERC721/ERC721.sol\":1754:1802  interfaceId == type(IERC721Metadata).interfaceId */\n      dup3\n      and\n      shl(0xe0, 0x5b5e139f)\n      eq\n        /* \"@openzeppelin/contracts/token/ERC721/ERC721.sol\":1698:1802  interfaceId == type(IERC721).interfaceId ||... */\n    tag_406:\n        /* \"@openzeppelin/contracts/token/ERC721/ERC721.sol\":1698:1854  interfaceId == type(IERC721).interfaceId ||... */\n      dup1\n      tag_165\n      jumpi\n      pop\n      shl(0xe0, 0x01ffc9a7)\n      not(sub(shl(0xe0, 0x01), 0x01))\n        /* \"@openzeppelin/contracts/utils/introspection/ERC165.sol\":861:901  interfaceId == type(IERC165).interfaceId */\n      dup4\n      and\n      eq\n        /* \"@openzeppelin/contracts/token/ERC721/ERC721.sol\":1818:1854  super.supportsInterface(interfaceId) */\n      tag_165\n        /* \"@openzeppelin/contracts/utils/introspection/ERC165.sol\":762:908  function supportsInterface(bytes4 interfaceId) public view virtual returns (bool) {... */\n      jump\n        /* \"@openzeppelin/contracts/token/ERC721/ERC721.sol\":14720:15382  function _approve(address to, uint256 tokenId, address auth, bool emitEvent) internal virtual {... */\n    tag_351:\n        /* \"@openzeppelin/contracts/token/ERC721/ERC721.sol\":14880:14889  emitEvent */\n      dup1\n        /* \"@openzeppelin/contracts/token/ERC721/ERC721.sol\":14880:14911  emitEvent || auth != address(0) */\n      dup1\n      tag_412\n      jumpi\n      pop\n      sub(shl(0xa0, 0x01), 0x01)\n        /* \"@openzeppelin/contracts/token/ERC721/ERC721.sol\":14893:14911  auth != address(0) */\n      dup3\n      and\n      iszero\n      iszero\n        /* \"@openzeppelin/contracts/token/ERC721/ERC721.sol\":14880:14911  emitEvent || auth != address(0) */\n    tag_412:\n        /* \"@openzeppelin/contracts/token/ERC721/ERC721.sol\":14876:15336  if (emitEvent || auth != address(0)) {... */\n      iszero\n      tag_413\n      jumpi\n        /* \"@openzeppelin/contracts/token/ERC721/ERC721.sol\":14927:14940  address owner */\n      0x00\n        /* \"@openzeppelin/contracts/token/ERC721/ERC721.sol\":14943:14965  _requireOwned(tokenId) */\n      tag_414\n        /* \"@openzeppelin/contracts/token/ERC721/ERC721.sol\":14957:14964  tokenId */\n      dup5\n        /* \"@openzeppelin/contracts/token/ERC721/ERC721.sol\":14943:14956  _requireOwned */\n      tag_182\n        /* \"@openzeppelin/contracts/token/ERC721/ERC721.sol\":14943:14965  _requireOwned(tokenId) */\n      jump\t// in\n    tag_414:\n        /* \"@openzeppelin/contracts/token/ERC721/ERC721.sol\":14927:14965  address owner = _requireOwned(tokenId) */\n      swap1\n      pop\n      sub(shl(0xa0, 0x01), 0x01)\n        /* \"@openzeppelin/contracts/token/ERC721/ERC721.sol\":15093:15111  auth != address(0) */\n      dup4\n      and\n      iszero\n      dup1\n      iszero\n      swap1\n        /* \"@openzeppelin/contracts/token/ERC721/ERC721.sol\":15093:15128  auth != address(0) && owner != auth */\n      tag_415\n      jumpi\n      pop\n        /* \"@openzeppelin/contracts/token/ERC721/ERC721.sol\":15124:15128  auth */\n      dup3\n      sub(shl(0xa0, 0x01), 0x01)\n        /* \"@openzeppelin/contracts/token/ERC721/ERC721.sol\":15115:15128  owner != auth */\n      and\n        /* \"@openzeppelin/contracts/token/ERC721/ERC721.sol\":15115:15120  owner */\n      dup2\n      sub(shl(0xa0, 0x01), 0x01)\n        /* \"@openzeppelin/contracts/token/ERC721/ERC721.sol\":15115:15128  owner != auth */\n      and\n      eq\n      iszero\n        /* \"@openzeppelin/contracts/token/ERC721/ERC721.sol\":15093:15128  auth != address(0) && owner != auth */\n    tag_415:\n        /* \"@openzeppelin/contracts/token/ERC721/ERC721.sol\":15093:15162  auth != address(0) && owner != auth && !isApprovedForAll(owner, auth) */\n      dup1\n      iszero\n      tag_416\n      jumpi\n      pop\n        /* \"@openzeppelin/contracts/token/ERC721/ERC721.sol\":15133:15162  isApprovedForAll(owner, auth) */\n      tag_417\n        /* \"@openzeppelin/contracts/token/ERC721/ERC721.sol\":15150:15155  owner */\n      dup2\n        /* \"@openzeppelin/contracts/token/ERC721/ERC721.sol\":15157:15161  auth */\n      dup5\n        /* \"@openzeppelin/contracts/token/ERC721/ERC721.sol\":15133:15149  isApprovedForAll */\n      tag_153\n        /* \"@openzeppelin/contracts/token/ERC721/ERC721.sol\":15133:15162  isApprovedForAll(owner, auth) */\n      jump\t// in\n    tag_417:\n        /* \"@openzeppelin/contracts/token/ERC721/ERC721.sol\":15132:15162  !isApprovedForAll(owner, auth) */\n      iszero\n        /* \"@openzeppelin/contracts/token/ERC721/ERC721.sol\":15093:15162  auth != address(0) && owner != auth && !isApprovedForAll(owner, auth) */\n    tag_416:\n        /* \"@openzeppelin/contracts/token/ERC721/ERC721.sol\":15089:15231  if (auth != address(0) && owner != auth && !isApprovedForAll(owner, auth)) {... */\n      iszero\n      tag_418\n      jumpi\n        /* \"@openzeppelin/contracts/token/ERC721/ERC721.sol\":15211:15215  auth */\n      dup3\n        /* \"@openzeppelin/contracts/token/ERC721/ERC721.sol\":15189:15216  ERC721InvalidApprover(auth) */\n      mload(0x40)\n      shl(0xe0, 0xa9fbf51f)\n      dup2\n      mstore\n      0x04\n      add\n      tag_195\n      swap2\n      swap1\n      tag_55\n      jump\t// in\n        /* \"@openzeppelin/contracts/token/ERC721/ERC721.sol\":15089:15231  if (auth != address(0) && owner != auth && !isApprovedForAll(owner, auth)) {... */\n    tag_418:\n        /* \"@openzeppelin/contracts/token/ERC721/ERC721.sol\":15249:15258  emitEvent */\n      dup2\n        /* \"@openzeppelin/contracts/token/ERC721/ERC721.sol\":15245:15326  if (emitEvent) {... */\n      iszero\n      tag_420\n      jumpi\n        /* \"@openzeppelin/contracts/token/ERC721/ERC721.sol\":15303:15310  tokenId */\n      dup4\n        /* \"@openzeppelin/contracts/token/ERC721/ERC721.sol\":15299:15301  to */\n      dup6\n      sub(shl(0xa0, 0x01), 0x01)\n        /* \"@openzeppelin/contracts/token/ERC721/ERC721.sol\":15283:15311  Approval(owner, to, tokenId) */\n      and\n        /* \"@openzeppelin/contracts/token/ERC721/ERC721.sol\":15292:15297  owner */\n      dup3\n      sub(shl(0xa0, 0x01), 0x01)\n        /* \"@openzeppelin/contracts/token/ERC721/ERC721.sol\":15283:15311  Approval(owner, to, tokenId) */\n      and\n      0x8c5be1e5ebec7d5bd14f71427d1e84f3dd0314c0f7b2291e5b200ac8c7c3b925\n      mload(0x40)\n      mload(0x40)\n      dup1\n      swap2\n      sub\n      swap1\n      log4\n        /* \"@openzeppelin/contracts/token/ERC721/ERC721.sol\":15245:15326  if (emitEvent) {... */\n    tag_420:\n        /* \"@openzeppelin/contracts/token/ERC721/ERC721.sol\":14913:15336  {... */\n      pop\n        /* \"@openzeppelin/contracts/token/ERC721/ERC721.sol\":14876:15336  if (emitEvent || auth != address(0)) {... */\n    tag_413:\n      pop\n      pop\n        /* \"@openzeppelin/contracts/token/ERC721/ERC721.sol\":15346:15370  _tokenApprovals[tokenId] */\n      0x00\n      swap1\n      dup2\n      mstore\n        /* \"@openzeppelin/contracts/token/ERC721/ERC721.sol\":15346:15361  _tokenApprovals */\n      0x04\n        /* \"@openzeppelin/contracts/token/ERC721/ERC721.sol\":15346:15370  _tokenApprovals[tokenId] */\n      0x20\n      mstore\n      0x40\n      swap1\n      keccak256\n        /* \"@openzeppelin/contracts/token/ERC721/ERC721.sol\":15346:15375  _tokenApprovals[tokenId] = to */\n      dup1\n      sload\n      not(sub(shl(0xa0, 0x01), 0x01))\n      and\n      sub(shl(0xa0, 0x01), 0x01)\n      swap3\n      swap1\n      swap3\n      and\n      swap2\n      swap1\n      swap2\n      or\n      swap1\n      sstore\n        /* \"@openzeppelin/contracts/token/ERC721/ERC721.sol\":14720:15382  function _approve(address to, uint256 tokenId, address auth, bool emitEvent) internal virtual {... */\n      jump\t// out\n        /* \"@openzeppelin/contracts/token/ERC721/ERC721.sol\":7082:7450  function _checkAuthorized(address owner, address spender, uint256 tokenId) internal view virtual {... */\n    tag_357:\n        /* \"@openzeppelin/contracts/token/ERC721/ERC721.sol\":7194:7232  _isAuthorized(owner, spender, tokenId) */\n      tag_422\n        /* \"@openzeppelin/contracts/token/ERC721/ERC721.sol\":7208:7213  owner */\n      dup4\n        /* \"@openzeppelin/contracts/token/ERC721/ERC721.sol\":7215:7222  spender */\n      dup4\n        /* \"@openzeppelin/contracts/token/ERC721/ERC721.sol\":7224:7231  tokenId */\n      dup4\n        /* \"@openzeppelin/contracts/token/ERC721/ERC721.sol\":7194:7207  _isAuthorized */\n      tag_423\n        /* \"@openzeppelin/contracts/token/ERC721/ERC721.sol\":7194:7232  _isAuthorized(owner, spender, tokenId) */\n      jump\t// in\n    tag_422:\n        /* \"@openzeppelin/contracts/token/ERC721/ERC721.sol\":7189:7444  if (!_isAuthorized(owner, spender, tokenId)) {... */\n      tag_214\n      jumpi\n      sub(shl(0xa0, 0x01), 0x01)\n        /* \"@openzeppelin/contracts/token/ERC721/ERC721.sol\":7252:7271  owner == address(0) */\n      dup4\n      and\n        /* \"@openzeppelin/contracts/token/ERC721/ERC721.sol\":7248:7434  if (owner == address(0)) {... */\n      tag_425\n      jumpi\n        /* \"@openzeppelin/contracts/token/ERC721/ERC721.sol\":7298:7329  ERC721NonexistentToken(tokenId) */\n      mload(0x40)\n      shl(0xe0, 0x7e273289)\n      dup2\n      mstore\n      0x04\n      dup2\n      add\n        /* \"#utility.yul\":2572:2597   */\n      dup3\n      swap1\n      mstore\n        /* \"#utility.yul\":2545:2563   */\n      0x24\n      add\n        /* \"@openzeppelin/contracts/token/ERC721/ERC721.sol\":7298:7329  ERC721NonexistentToken(tokenId) */\n      tag_195\n        /* \"#utility.yul\":2426:2603   */\n      jump\n        /* \"@openzeppelin/contracts/token/ERC721/ERC721.sol\":7248:7434  if (owner == address(0)) {... */\n    tag_425:\n        /* \"@openzeppelin/contracts/token/ERC721/ERC721.sol\":7375:7419  ERC721InsufficientApproval(spender, tokenId) */\n      mload(0x40)\n      shl(0xe0, 0x177e802f)\n      dup2\n      mstore\n      sub(shl(0xa0, 0x01), 0x01)\n        /* \"#utility.yul\":3530:3562   */\n      dup4\n      and\n        /* \"@openzeppelin/contracts/token/ERC721/ERC721.sol\":7375:7419  ERC721InsufficientApproval(spender, tokenId) */\n      0x04\n      dup3\n      add\n        /* \"#utility.yul\":3512:3563   */\n      mstore\n        /* \"#utility.yul\":3579:3597   */\n      0x24\n      dup2\n      add\n        /* \"#utility.yul\":3572:3606   */\n      dup3\n      swap1\n      mstore\n        /* \"#utility.yul\":3485:3503   */\n      0x44\n      add\n        /* \"@openzeppelin/contracts/token/ERC721/ERC721.sol\":7375:7419  ERC721InsufficientApproval(spender, tokenId) */\n      tag_195\n        /* \"#utility.yul\":3338:3612   */\n      jump\n        /* \"@openzeppelin/contracts/utils/math/Math.sol\":12214:13130  function log10(uint256 value) internal pure returns (uint256) {... */\n    tag_390:\n        /* \"@openzeppelin/contracts/utils/math/Math.sol\":12267:12274  uint256 */\n      0x00\n      dup1\n      shl(0x40, 0x184f03e93ff9f4daa797ed6e38ed64bf6a1f01)\n        /* \"@openzeppelin/contracts/utils/math/Math.sol\":12342:12359  value >= 10 ** 64 */\n      dup4\n      lt\n        /* \"@openzeppelin/contracts/utils/math/Math.sol\":12338:12441  if (value >= 10 ** 64) {... */\n      tag_430\n      jumpi\n      shl(0x40, 0x184f03e93ff9f4daa797ed6e38ed64bf6a1f01)\n        /* \"@openzeppelin/contracts/utils/math/Math.sol\":12379:12396  value /= 10 ** 64 */\n      dup4\n      div\n      swap3\n      pop\n        /* \"@openzeppelin/contracts/utils/math/Math.sol\":12424:12426  64 */\n      0x40\n        /* \"@openzeppelin/contracts/utils/math/Math.sol\":12414:12426  result += 64 */\n      add\n        /* \"@openzeppelin/contracts/utils/math/Math.sol\":12338:12441  if (value >= 10 ** 64) {... */\n    tag_430:\n        /* \"@openzeppelin/contracts/utils/math/Math.sol\":12467:12475  10 ** 32 */\n      0x04ee2d6d415b85acef8100000000\n        /* \"@openzeppelin/contracts/utils/math/Math.sol\":12458:12463  value */\n      dup4\n        /* \"@openzeppelin/contracts/utils/math/Math.sol\":12458:12475  value >= 10 ** 32 */\n      lt\n        /* \"@openzeppelin/contracts/utils/math/Math.sol\":12454:12557  if (value >= 10 ** 32) {... */\n      tag_433\n      jumpi\n        /* \"@openzeppelin/contracts/utils/math/Math.sol\":12504:12512  10 ** 32 */\n      0x04ee2d6d415b85acef8100000000\n        /* \"@openzeppelin/contracts/utils/math/Math.sol\":12495:12512  value /= 10 ** 32 */\n      dup4\n      div\n      swap3\n      pop\n        /* \"@openzeppelin/contracts/utils/math/Math.sol\":12540:12542  32 */\n      0x20\n        /* \"@openzeppelin/contracts/utils/math/Math.sol\":12530:12542  result += 32 */\n      add\n        /* \"@openzeppelin/contracts/utils/math/Math.sol\":12454:12557  if (value >= 10 ** 32) {... */\n    tag_433:\n        /* \"@openzeppelin/contracts/utils/math/Math.sol\":12583:12591  10 ** 16 */\n      0x2386f26fc10000\n        /* \"@openzeppelin/contracts/utils/math/Math.sol\":12574:12579  value */\n      dup4\n        /* \"@openzeppelin/contracts/utils/math/Math.sol\":12574:12591  value >= 10 ** 16 */\n      lt\n        /* \"@openzeppelin/contracts/utils/math/Math.sol\":12570:12673  if (value >= 10 ** 16) {... */\n      tag_436\n      jumpi\n        /* \"@openzeppelin/contracts/utils/math/Math.sol\":12620:12628  10 ** 16 */\n      0x2386f26fc10000\n        /* \"@openzeppelin/contracts/utils/math/Math.sol\":12611:12628  value /= 10 ** 16 */\n      dup4\n      div\n      swap3\n      pop\n        /* \"@openzeppelin/contracts/utils/math/Math.sol\":12656:12658  16 */\n      0x10\n        /* \"@openzeppelin/contracts/utils/math/Math.sol\":12646:12658  result += 16 */\n      add\n        /* \"@openzeppelin/contracts/utils/math/Math.sol\":12570:12673  if (value >= 10 ** 16) {... */\n    tag_436:\n        /* \"@openzeppelin/contracts/utils/math/Math.sol\":12699:12706  10 ** 8 */\n      0x05f5e100\n        /* \"@openzeppelin/contracts/utils/math/Math.sol\":12690:12695  value */\n      dup4\n        /* \"@openzeppelin/contracts/utils/math/Math.sol\":12690:12706  value >= 10 ** 8 */\n      lt\n        /* \"@openzeppelin/contracts/utils/math/Math.sol\":12686:12786  if (value >= 10 ** 8) {... */\n      tag_439\n      jumpi\n        /* \"@openzeppelin/contracts/utils/math/Math.sol\":12735:12742  10 ** 8 */\n      0x05f5e100\n        /* \"@openzeppelin/contracts/utils/math/Math.sol\":12726:12742  value /= 10 ** 8 */\n      dup4\n      div\n      swap3\n      pop\n        /* \"@openzeppelin/contracts/utils/math/Math.sol\":12770:12771  8 */\n      0x08\n        /* \"@openzeppelin/contracts/utils/math/Math.sol\":12760:12771  result += 8 */\n      add\n        /* \"@openzeppelin/contracts/utils/math/Math.sol\":12686:12786  if (value >= 10 ** 8) {... */\n    tag_439:\n        /* \"@openzeppelin/contracts/utils/math/Math.sol\":12812:12819  10 ** 4 */\n      0x2710\n        /* \"@openzeppelin/contracts/utils/math/Math.sol\":12803:12808  value */\n      dup4\n        /* \"@openzeppelin/contracts/utils/math/Math.sol\":12803:12819  value >= 10 ** 4 */\n      lt\n        /* \"@openzeppelin/contracts/utils/math/Math.sol\":12799:12899  if (value >= 10 ** 4) {... */\n      tag_442\n      jumpi\n        /* \"@openzeppelin/contracts/utils/math/Math.sol\":12848:12855  10 ** 4 */\n      0x2710\n        /* \"@openzeppelin/contracts/utils/math/Math.sol\":12839:12855  value /= 10 ** 4 */\n      dup4\n      div\n      swap3\n      pop\n        /* \"@openzeppelin/contracts/utils/math/Math.sol\":12883:12884  4 */\n      0x04\n        /* \"@openzeppelin/contracts/utils/math/Math.sol\":12873:12884  result += 4 */\n      add\n        /* \"@openzeppelin/contracts/utils/math/Math.sol\":12799:12899  if (value >= 10 ** 4) {... */\n    tag_442:\n        /* \"@openzeppelin/contracts/utils/math/Math.sol\":12925:12932  10 ** 2 */\n      0x64\n        /* \"@openzeppelin/contracts/utils/math/Math.sol\":12916:12921  value */\n      dup4\n        /* \"@openzeppelin/contracts/utils/math/Math.sol\":12916:12932  value >= 10 ** 2 */\n      lt\n        /* \"@openzeppelin/contracts/utils/math/Math.sol\":12912:13012  if (value >= 10 ** 2) {... */\n      tag_445\n      jumpi\n        /* \"@openzeppelin/contracts/utils/math/Math.sol\":12961:12968  10 ** 2 */\n      0x64\n        /* \"@openzeppelin/contracts/utils/math/Math.sol\":12952:12968  value /= 10 ** 2 */\n      dup4\n      div\n      swap3\n      pop\n        /* \"@openzeppelin/contracts/utils/math/Math.sol\":12996:12997  2 */\n      0x02\n        /* \"@openzeppelin/contracts/utils/math/Math.sol\":12986:12997  result += 2 */\n      add\n        /* \"@openzeppelin/contracts/utils/math/Math.sol\":12912:13012  if (value >= 10 ** 2) {... */\n    tag_445:\n        /* \"@openzeppelin/contracts/utils/math/Math.sol\":13038:13045  10 ** 1 */\n      0x0a\n        /* \"@openzeppelin/contracts/utils/math/Math.sol\":13029:13034  value */\n      dup4\n        /* \"@openzeppelin/contracts/utils/math/Math.sol\":13029:13045  value >= 10 ** 1 */\n      lt\n        /* \"@openzeppelin/contracts/utils/math/Math.sol\":13025:13091  if (value >= 10 ** 1) {... */\n      tag_165\n      jumpi\n        /* \"@openzeppelin/contracts/utils/math/Math.sol\":13075:13076  1 */\n      0x01\n        /* \"@openzeppelin/contracts/utils/math/Math.sol\":13065:13076  result += 1 */\n      add\n        /* \"@openzeppelin/contracts/utils/math/Math.sol\":13117:13123  result */\n      swap3\n        /* \"@openzeppelin/contracts/utils/math/Math.sol\":12214:13130  function log10(uint256 value) internal pure returns (uint256) {... */\n      swap2\n      pop\n      pop\n      jump\t// out\n        /* \"@openzeppelin/contracts/token/ERC721/ERC721.sol\":10954:11136  function _safeMint(address to, uint256 tokenId, bytes memory data) internal virtual {... */\n    tag_403:\n        /* \"@openzeppelin/contracts/token/ERC721/ERC721.sol\":11048:11066  _mint(to, tokenId) */\n      tag_450\n        /* \"@openzeppelin/contracts/token/ERC721/ERC721.sol\":11054:11056  to */\n      dup4\n        /* \"@openzeppelin/contracts/token/ERC721/ERC721.sol\":11058:11065  tokenId */\n      dup4\n        /* \"@openzeppelin/contracts/token/ERC721/ERC721.sol\":11048:11053  _mint */\n      tag_451\n        /* \"@openzeppelin/contracts/token/ERC721/ERC721.sol\":11048:11066  _mint(to, tokenId) */\n      jump\t// in\n    tag_450:\n        /* \"@openzeppelin/contracts/token/ERC721/ERC721.sol\":11076:11129  _checkOnERC721Received(address(0), to, tokenId, data) */\n      tag_214\n        /* \"@openzeppelin/contracts/token/ERC721/ERC721.sol\":11107:11108  0 */\n      0x00\n        /* \"@openzeppelin/contracts/token/ERC721/ERC721.sol\":11111:11113  to */\n      dup5\n        /* \"@openzeppelin/contracts/token/ERC721/ERC721.sol\":11115:11122  tokenId */\n      dup5\n        /* \"@openzeppelin/contracts/token/ERC721/ERC721.sol\":11124:11128  data */\n      dup5\n        /* \"@openzeppelin/contracts/token/ERC721/ERC721.sol\":11076:11098  _checkOnERC721Received */\n      tag_265\n        /* \"@openzeppelin/contracts/token/ERC721/ERC721.sol\":11076:11129  _checkOnERC721Received(address(0), to, tokenId, data) */\n      jump\t// in\n        /* \"@openzeppelin/contracts/token/ERC721/ERC721.sol\":6376:6648  function _isAuthorized(address owner, address spender, uint256 tokenId) internal view virtual returns (bool) {... */\n    tag_423:\n        /* \"@openzeppelin/contracts/token/ERC721/ERC721.sol\":6479:6483  bool */\n      0x00\n      sub(shl(0xa0, 0x01), 0x01)\n        /* \"@openzeppelin/contracts/token/ERC721/ERC721.sol\":6514:6535  spender != address(0) */\n      dup4\n      and\n      iszero\n      dup1\n      iszero\n      swap1\n        /* \"@openzeppelin/contracts/token/ERC721/ERC721.sol\":6514:6641  spender != address(0) &&... */\n      tag_458\n      jumpi\n      pop\n        /* \"@openzeppelin/contracts/token/ERC721/ERC721.sol\":6561:6568  spender */\n      dup3\n      sub(shl(0xa0, 0x01), 0x01)\n        /* \"@openzeppelin/contracts/token/ERC721/ERC721.sol\":6552:6568  owner == spender */\n      and\n        /* \"@openzeppelin/contracts/token/ERC721/ERC721.sol\":6552:6557  owner */\n      dup5\n      sub(shl(0xa0, 0x01), 0x01)\n        /* \"@openzeppelin/contracts/token/ERC721/ERC721.sol\":6552:6568  owner == spender */\n      and\n      eq\n        /* \"@openzeppelin/contracts/token/ERC721/ERC721.sol\":6552:6604  owner == spender || isApprovedForAll(owner, spender) */\n      dup1\n      tag_457\n      jumpi\n      pop\n        /* \"@openzeppelin/contracts/token/ERC721/ERC721.sol\":6572:6604  isApprovedForAll(owner, spender) */\n      tag_457\n        /* \"@openzeppelin/contracts/token/ERC721/ERC721.sol\":6589:6594  owner */\n      dup5\n        /* \"@openzeppelin/contracts/token/ERC721/ERC721.sol\":6596:6603  spender */\n      dup5\n        /* \"@openzeppelin/contracts/token/ERC721/ERC721.sol\":6572:6588  isApprovedForAll */\n      tag_153\n        /* \"@openzeppelin/contracts/token/ERC721/ERC721.sol\":6572:6604  isApprovedForAll(owner, spender) */\n      jump\t// in\n    tag_457:\n        /* \"@openzeppelin/contracts/token/ERC721/ERC721.sol\":6552:6640  owner == spender || isApprovedForAll(owner, spender) || _getApproved(tokenId) == spender */\n      dup1\n      tag_458\n      jumpi\n      pop\n        /* \"@openzeppelin/contracts/token/ERC721/ERC721.sol\":6008:6015  address */\n      0x00\n        /* \"@openzeppelin/contracts/token/ERC721/ERC721.sol\":6034:6058  _tokenApprovals[tokenId] */\n      dup3\n      dup2\n      mstore\n        /* \"@openzeppelin/contracts/token/ERC721/ERC721.sol\":6034:6049  _tokenApprovals */\n      0x04\n        /* \"@openzeppelin/contracts/token/ERC721/ERC721.sol\":6034:6058  _tokenApprovals[tokenId] */\n      0x20\n      mstore\n      0x40\n      swap1\n      keccak256\n      sload\n      sub(shl(0xa0, 0x01), 0x01)\n        /* \"@openzeppelin/contracts/token/ERC721/ERC721.sol\":6608:6640  _getApproved(tokenId) == spender */\n      dup5\n      dup2\n      and\n        /* \"@openzeppelin/contracts/token/ERC721/ERC721.sol\":6034:6058  _tokenApprovals[tokenId] */\n      swap2\n      and\n        /* \"@openzeppelin/contracts/token/ERC721/ERC721.sol\":6608:6640  _getApproved(tokenId) == spender */\n      eq\n        /* \"@openzeppelin/contracts/token/ERC721/ERC721.sol\":6552:6640  owner == spender || isApprovedForAll(owner, spender) || _getApproved(tokenId) == spender */\n    tag_458:\n        /* \"@openzeppelin/contracts/token/ERC721/ERC721.sol\":6495:6641  return... */\n      swap5\n        /* \"@openzeppelin/contracts/token/ERC721/ERC721.sol\":6376:6648  function _isAuthorized(address owner, address spender, uint256 tokenId) internal view virtual returns (bool) {... */\n      swap4\n      pop\n      pop\n      pop\n      pop\n      jump\t// out\n        /* \"@openzeppelin/contracts/token/ERC721/ERC721.sol\":9955:10282  function _mint(address to, uint256 tokenId) internal {... */\n    tag_451:\n      sub(shl(0xa0, 0x01), 0x01)\n        /* \"@openzeppelin/contracts/token/ERC721/ERC721.sol\":10022:10038  to == address(0) */\n      dup3\n      and\n        /* \"@openzeppelin/contracts/token/ERC721/ERC721.sol\":10018:10105  if (to == address(0)) {... */\n      tag_461\n      jumpi\n        /* \"@openzeppelin/contracts/token/ERC721/ERC721.sol\":10091:10092  0 */\n      0x00\n        /* \"@openzeppelin/contracts/token/ERC721/ERC721.sol\":10061:10094  ERC721InvalidReceiver(address(0)) */\n      mload(0x40)\n      shl(0xe1, 0x32505749)\n      dup2\n      mstore\n      0x04\n      add\n      tag_195\n      swap2\n      swap1\n      tag_55\n      jump\t// in\n        /* \"@openzeppelin/contracts/token/ERC721/ERC721.sol\":10018:10105  if (to == address(0)) {... */\n    tag_461:\n        /* \"@openzeppelin/contracts/token/ERC721/ERC721.sol\":10114:10135  address previousOwner */\n      0x00\n        /* \"@openzeppelin/contracts/token/ERC721/ERC721.sol\":10138:10170  _update(to, tokenId, address(0)) */\n      tag_463\n        /* \"@openzeppelin/contracts/token/ERC721/ERC721.sol\":10146:10148  to */\n      dup4\n        /* \"@openzeppelin/contracts/token/ERC721/ERC721.sol\":10150:10157  tokenId */\n      dup4\n        /* \"@openzeppelin/contracts/token/ERC721/ERC721.sol\":10167:10168  0 */\n      0x00\n        /* \"@openzeppelin/contracts/token/ERC721/ERC721.sol\":10138:10145  _update */\n      tag_198\n        /* \"@openzeppelin/contracts/token/ERC721/ERC721.sol\":10138:10170  _update(to, tokenId, address(0)) */\n      jump\t// in\n    tag_463:\n        /* \"@openzeppelin/contracts/token/ERC721/ERC721.sol\":10114:10170  address previousOwner = _update(to, tokenId, address(0)) */\n      swap1\n      pop\n      sub(shl(0xa0, 0x01), 0x01)\n        /* \"@openzeppelin/contracts/token/ERC721/ERC721.sol\":10184:10211  previousOwner != address(0) */\n      dup2\n      and\n      iszero\n        /* \"@openzeppelin/contracts/token/ERC721/ERC721.sol\":10180:10276  if (previousOwner != address(0)) {... */\n      tag_214\n      jumpi\n        /* \"@openzeppelin/contracts/token/ERC721/ERC721.sol\":10262:10263  0 */\n      0x00\n        /* \"@openzeppelin/contracts/token/ERC721/ERC721.sol\":10234:10265  ERC721InvalidSender(address(0)) */\n      mload(0x40)\n      shl(0xe1, 0x39e35637)\n      dup2\n      mstore\n      0x04\n      add\n      tag_195\n      swap2\n      swap1\n      tag_55\n      jump\t// in\n        /* \"#utility.yul\":14:145   */\n    tag_466:\n      not(sub(shl(0xe0, 0x01), 0x01))\n        /* \"#utility.yul\":88:120   */\n      dup2\n      and\n        /* \"#utility.yul\":78:121   */\n      dup2\n      eq\n        /* \"#utility.yul\":68:139   */\n      tag_311\n      jumpi\n        /* \"#utility.yul\":135:136   */\n      0x00\n        /* \"#utility.yul\":132:133   */\n      dup1\n        /* \"#utility.yul\":125:137   */\n      revert\n        /* \"#utility.yul\":150:395   */\n    tag_35:\n        /* \"#utility.yul\":208:214   */\n      0x00\n        /* \"#utility.yul\":261:263   */\n      0x20\n        /* \"#utility.yul\":249:258   */\n      dup3\n        /* \"#utility.yul\":240:247   */\n      dup5\n        /* \"#utility.yul\":236:259   */\n      sub\n        /* \"#utility.yul\":232:264   */\n      slt\n        /* \"#utility.yul\":229:281   */\n      iszero\n      tag_480\n      jumpi\n        /* \"#utility.yul\":277:278   */\n      0x00\n        /* \"#utility.yul\":274:275   */\n      dup1\n        /* \"#utility.yul\":267:279   */\n      revert\n        /* \"#utility.yul\":229:281   */\n    tag_480:\n        /* \"#utility.yul\":316:325   */\n      dup2\n        /* \"#utility.yul\":303:326   */\n      calldataload\n        /* \"#utility.yul\":335:365   */\n      tag_281\n        /* \"#utility.yul\":359:364   */\n      dup2\n        /* \"#utility.yul\":335:365   */\n      tag_466\n      jump\t// in\n        /* \"#utility.yul\":592:765   */\n    tag_467:\n        /* \"#utility.yul\":660:680   */\n      dup1\n      calldataload\n      sub(shl(0xa0, 0x01), 0x01)\n        /* \"#utility.yul\":709:740   */\n      dup2\n      and\n        /* \"#utility.yul\":699:741   */\n      dup2\n      eq\n        /* \"#utility.yul\":689:759   */\n      tag_484\n      jumpi\n        /* \"#utility.yul\":755:756   */\n      0x00\n        /* \"#utility.yul\":752:753   */\n      dup1\n        /* \"#utility.yul\":745:757   */\n      revert\n        /* \"#utility.yul\":689:759   */\n    tag_484:\n        /* \"#utility.yul\":592:765   */\n      swap2\n      swap1\n      pop\n      jump\t// out\n        /* \"#utility.yul\":770:1136   */\n    tag_42:\n        /* \"#utility.yul\":837:843   */\n      0x00\n        /* \"#utility.yul\":845:851   */\n      dup1\n        /* \"#utility.yul\":898:900   */\n      0x40\n        /* \"#utility.yul\":886:895   */\n      dup4\n        /* \"#utility.yul\":877:884   */\n      dup6\n        /* \"#utility.yul\":873:896   */\n      sub\n        /* \"#utility.yul\":869:901   */\n      slt\n        /* \"#utility.yul\":866:918   */\n      iszero\n      tag_486\n      jumpi\n        /* \"#utility.yul\":914:915   */\n      0x00\n        /* \"#utility.yul\":911:912   */\n      dup1\n        /* \"#utility.yul\":904:916   */\n      revert\n        /* \"#utility.yul\":866:918   */\n    tag_486:\n        /* \"#utility.yul\":937:966   */\n      tag_487\n        /* \"#utility.yul\":956:965   */\n      dup4\n        /* \"#utility.yul\":937:966   */\n      tag_467\n      jump\t// in\n    tag_487:\n        /* \"#utility.yul\":927:966   */\n      swap2\n      pop\n        /* \"#utility.yul\":1016:1018   */\n      0x20\n        /* \"#utility.yul\":1005:1014   */\n      dup4\n        /* \"#utility.yul\":1001:1019   */\n      add\n        /* \"#utility.yul\":988:1020   */\n      calldataload\n      sub(shl(0x60, 0x01), 0x01)\n        /* \"#utility.yul\":1053:1058   */\n      dup2\n        /* \"#utility.yul\":1049:1087   */\n      and\n        /* \"#utility.yul\":1042:1047   */\n      dup2\n        /* \"#utility.yul\":1039:1088   */\n      eq\n        /* \"#utility.yul\":1029:1106   */\n      tag_488\n      jumpi\n        /* \"#utility.yul\":1102:1103   */\n      0x00\n        /* \"#utility.yul\":1099:1100   */\n      dup1\n        /* \"#utility.yul\":1092:1104   */\n      revert\n        /* \"#utility.yul\":1029:1106   */\n    tag_488:\n        /* \"#utility.yul\":1125:1130   */\n      dup1\n        /* \"#utility.yul\":1115:1130   */\n      swap2\n      pop\n      pop\n        /* \"#utility.yul\":770:1136   */\n      swap3\n      pop\n      swap3\n      swap1\n      pop\n      jump\t// out\n        /* \"#utility.yul\":1141:1441   */\n    tag_468:\n        /* \"#utility.yul\":1194:1197   */\n      0x00\n        /* \"#utility.yul\":1232:1237   */\n      dup2\n        /* \"#utility.yul\":1226:1238   */\n      mload\n        /* \"#utility.yul\":1259:1265   */\n      dup1\n        /* \"#utility.yul\":1254:1257   */\n      dup5\n        /* \"#utility.yul\":1247:1266   */\n      mstore\n        /* \"#utility.yul\":1315:1321   */\n      dup1\n        /* \"#utility.yul\":1308:1312   */\n      0x20\n        /* \"#utility.yul\":1301:1306   */\n      dup5\n        /* \"#utility.yul\":1297:1313   */\n      add\n        /* \"#utility.yul\":1290:1294   */\n      0x20\n        /* \"#utility.yul\":1285:1288   */\n      dup7\n        /* \"#utility.yul\":1281:1295   */\n      add\n        /* \"#utility.yul\":1275:1322   */\n      mcopy\n        /* \"#utility.yul\":1367:1368   */\n      0x00\n        /* \"#utility.yul\":1360:1364   */\n      0x20\n        /* \"#utility.yul\":1351:1357   */\n      dup3\n        /* \"#utility.yul\":1346:1349   */\n      dup7\n        /* \"#utility.yul\":1342:1358   */\n      add\n        /* \"#utility.yul\":1338:1365   */\n      add\n        /* \"#utility.yul\":1331:1369   */\n      mstore\n        /* \"#utility.yul\":1430:1434   */\n      0x20\n        /* \"#utility.yul\":1423:1425   */\n      0x1f\n        /* \"#utility.yul\":1419:1426   */\n      not\n        /* \"#utility.yul\":1414:1416   */\n      0x1f\n        /* \"#utility.yul\":1406:1412   */\n      dup4\n        /* \"#utility.yul\":1402:1417   */\n      add\n        /* \"#utility.yul\":1398:1427   */\n      and\n        /* \"#utility.yul\":1393:1396   */\n      dup6\n        /* \"#utility.yul\":1389:1428   */\n      add\n        /* \"#utility.yul\":1385:1435   */\n      add\n        /* \"#utility.yul\":1378:1435   */\n      swap2\n      pop\n      pop\n        /* \"#utility.yul\":1141:1441   */\n      swap3\n      swap2\n      pop\n      pop\n      jump\t// out\n        /* \"#utility.yul\":1446:1677   */\n    tag_48:\n        /* \"#utility.yul\":1595:1597   */\n      0x20\n        /* \"#utility.yul\":1584:1593   */\n      dup2\n        /* \"#utility.yul\":1577:1598   */\n      mstore\n        /* \"#utility.yul\":1558:1562   */\n      0x00\n        /* \"#utility.yul\":1615:1671   */\n      tag_281\n        /* \"#utility.yul\":1667:1669   */\n      0x20\n        /* \"#utility.yul\":1656:1665   */\n      dup4\n        /* \"#utility.yul\":1652:1670   */\n      add\n        /* \"#utility.yul\":1644:1650   */\n      dup5\n        /* \"#utility.yul\":1615:1671   */\n      tag_468\n      jump\t// in\n        /* \"#utility.yul\":1682:1908   */\n    tag_52:\n        /* \"#utility.yul\":1741:1747   */\n      0x00\n        /* \"#utility.yul\":1794:1796   */\n      0x20\n        /* \"#utility.yul\":1782:1791   */\n      dup3\n        /* \"#utility.yul\":1773:1780   */\n      dup5\n        /* \"#utility.yul\":1769:1792   */\n      sub\n        /* \"#utility.yul\":1765:1797   */\n      slt\n        /* \"#utility.yul\":1762:1814   */\n      iszero\n      tag_493\n      jumpi\n        /* \"#utility.yul\":1810:1811   */\n      0x00\n        /* \"#utility.yul\":1807:1808   */\n      dup1\n        /* \"#utility.yul\":1800:1812   */\n      revert\n        /* \"#utility.yul\":1762:1814   */\n    tag_493:\n      pop\n        /* \"#utility.yul\":1855:1878   */\n      calldataload\n      swap2\n        /* \"#utility.yul\":1682:1908   */\n      swap1\n      pop\n      jump\t// out\n        /* \"#utility.yul\":1913:2116   */\n    tag_55:\n      sub(shl(0xa0, 0x01), 0x01)\n        /* \"#utility.yul\":2077:2109   */\n      swap2\n      swap1\n      swap2\n      and\n        /* \"#utility.yul\":2059:2110   */\n      dup2\n      mstore\n        /* \"#utility.yul\":2047:2049   */\n      0x20\n        /* \"#utility.yul\":2032:2050   */\n      add\n      swap1\n        /* \"#utility.yul\":1913:2116   */\n      jump\t// out\n        /* \"#utility.yul\":2121:2421   */\n    tag_59:\n        /* \"#utility.yul\":2189:2195   */\n      0x00\n        /* \"#utility.yul\":2197:2203   */\n      dup1\n        /* \"#utility.yul\":2250:2252   */\n      0x40\n        /* \"#utility.yul\":2238:2247   */\n      dup4\n        /* \"#utility.yul\":2229:2236   */\n      dup6\n        /* \"#utility.yul\":2225:2248   */\n      sub\n        /* \"#utility.yul\":2221:2253   */\n      slt\n        /* \"#utility.yul\":2218:2270   */\n      iszero\n      tag_496\n      jumpi\n        /* \"#utility.yul\":2266:2267   */\n      0x00\n        /* \"#utility.yul\":2263:2264   */\n      dup1\n        /* \"#utility.yul\":2256:2268   */\n      revert\n        /* \"#utility.yul\":2218:2270   */\n    tag_496:\n        /* \"#utility.yul\":2289:2318   */\n      tag_497\n        /* \"#utility.yul\":2308:2317   */\n      dup4\n        /* \"#utility.yul\":2289:2318   */\n      tag_467\n      jump\t// in\n    tag_497:\n        /* \"#utility.yul\":2279:2318   */\n      swap5\n        /* \"#utility.yul\":2387:2389   */\n      0x20\n        /* \"#utility.yul\":2372:2390   */\n      swap4\n      swap1\n      swap4\n      add\n        /* \"#utility.yul\":2359:2391   */\n      calldataload\n      swap4\n      pop\n      pop\n      pop\n        /* \"#utility.yul\":2121:2421   */\n      jump\t// out\n        /* \"#utility.yul\":2608:2982   */\n    tag_69:\n        /* \"#utility.yul\":2685:2691   */\n      0x00\n        /* \"#utility.yul\":2693:2699   */\n      dup1\n        /* \"#utility.yul\":2701:2707   */\n      0x00\n        /* \"#utility.yul\":2754:2756   */\n      0x60\n        /* \"#utility.yul\":2742:2751   */\n      dup5\n        /* \"#utility.yul\":2733:2740   */\n      dup7\n        /* \"#utility.yul\":2729:2752   */\n      sub\n        /* \"#utility.yul\":2725:2757   */\n      slt\n        /* \"#utility.yul\":2722:2774   */\n      iszero\n      tag_500\n      jumpi\n        /* \"#utility.yul\":2770:2771   */\n      0x00\n        /* \"#utility.yul\":2767:2768   */\n      dup1\n        /* \"#utility.yul\":2760:2772   */\n      revert\n        /* \"#utility.yul\":2722:2774   */\n    tag_500:\n        /* \"#utility.yul\":2793:2822   */\n      tag_501\n        /* \"#utility.yul\":2812:2821   */\n      dup5\n        /* \"#utility.yul\":2793:2822   */\n      tag_467\n      jump\t// in\n    tag_501:\n        /* \"#utility.yul\":2783:2822   */\n      swap3\n      pop\n        /* \"#utility.yul\":2841:2879   */\n      tag_502\n        /* \"#utility.yul\":2875:2877   */\n      0x20\n        /* \"#utility.yul\":2864:2873   */\n      dup6\n        /* \"#utility.yul\":2860:2878   */\n      add\n        /* \"#utility.yul\":2841:2879   */\n      tag_467\n      jump\t// in\n    tag_502:\n        /* \"#utility.yul\":2608:2982   */\n      swap3\n      swap6\n        /* \"#utility.yul\":2831:2879   */\n      swap3\n      swap5\n      pop\n      pop\n      pop\n        /* \"#utility.yul\":2948:2950   */\n      0x40\n        /* \"#utility.yul\":2933:2951   */\n      swap2\n      swap1\n      swap2\n      add\n        /* \"#utility.yul\":2920:2952   */\n      calldataload\n      swap1\n        /* \"#utility.yul\":2608:2982   */\n      jump\t// out\n        /* \"#utility.yul\":2987:3333   */\n    tag_78:\n        /* \"#utility.yul\":3055:3061   */\n      0x00\n        /* \"#utility.yul\":3063:3069   */\n      dup1\n        /* \"#utility.yul\":3116:3118   */\n      0x40\n        /* \"#utility.yul\":3104:3113   */\n      dup4\n        /* \"#utility.yul\":3095:3102   */\n      dup6\n        /* \"#utility.yul\":3091:3114   */\n      sub\n        /* \"#utility.yul\":3087:3119   */\n      slt\n        /* \"#utility.yul\":3084:3136   */\n      iszero\n      tag_504\n      jumpi\n        /* \"#utility.yul\":3132:3133   */\n      0x00\n        /* \"#utility.yul\":3129:3130   */\n      dup1\n        /* \"#utility.yul\":3122:3134   */\n      revert\n        /* \"#utility.yul\":3084:3136   */\n    tag_504:\n      pop\n      pop\n        /* \"#utility.yul\":3177:3200   */\n      dup1\n      calldataload\n      swap3\n        /* \"#utility.yul\":3297:3299   */\n      0x20\n        /* \"#utility.yul\":3282:3300   */\n      swap1\n      swap2\n      add\n        /* \"#utility.yul\":3269:3301   */\n      calldataload\n      swap2\n      pop\n        /* \"#utility.yul\":2987:3333   */\n      jump\t// out\n        /* \"#utility.yul\":3617:3917   */\n    tag_85:\n        /* \"#utility.yul\":3685:3691   */\n      0x00\n        /* \"#utility.yul\":3693:3699   */\n      dup1\n        /* \"#utility.yul\":3746:3748   */\n      0x40\n        /* \"#utility.yul\":3734:3743   */\n      dup4\n        /* \"#utility.yul\":3725:3732   */\n      dup6\n        /* \"#utility.yul\":3721:3744   */\n      sub\n        /* \"#utility.yul\":3717:3749   */\n      slt\n        /* \"#utility.yul\":3714:3766   */\n      iszero\n      tag_507\n      jumpi\n        /* \"#utility.yul\":3762:3763   */\n      0x00\n        /* \"#utility.yul\":3759:3760   */\n      dup1\n        /* \"#utility.yul\":3752:3764   */\n      revert\n        /* \"#utility.yul\":3714:3766   */\n    tag_507:\n        /* \"#utility.yul\":3807:3830   */\n      dup3\n      calldataload\n      swap2\n      pop\n        /* \"#utility.yul\":3873:3911   */\n      tag_508\n        /* \"#utility.yul\":3907:3909   */\n      0x20\n        /* \"#utility.yul\":3892:3910   */\n      dup5\n      add\n        /* \"#utility.yul\":3873:3911   */\n      tag_467\n      jump\t// in\n    tag_508:\n        /* \"#utility.yul\":3863:3911   */\n      swap1\n      pop\n        /* \"#utility.yul\":3617:3917   */\n      swap3\n      pop\n      swap3\n      swap1\n      pop\n      jump\t// out\n        /* \"#utility.yul\":3922:4108   */\n    tag_108:\n        /* \"#utility.yul\":3981:3987   */\n      0x00\n        /* \"#utility.yul\":4034:4036   */\n      0x20\n        /* \"#utility.yul\":4022:4031   */\n      dup3\n        /* \"#utility.yul\":4013:4020   */\n      dup5\n        /* \"#utility.yul\":4009:4032   */\n      sub\n        /* \"#utility.yul\":4005:4037   */\n      slt\n        /* \"#utility.yul\":4002:4054   */\n      iszero\n      tag_510\n      jumpi\n        /* \"#utility.yul\":4050:4051   */\n      0x00\n        /* \"#utility.yul\":4047:4048   */\n      dup1\n        /* \"#utility.yul\":4040:4052   */\n      revert\n        /* \"#utility.yul\":4002:4054   */\n    tag_510:\n        /* \"#utility.yul\":4073:4102   */\n      tag_281\n        /* \"#utility.yul\":4092:4101   */\n      dup3\n        /* \"#utility.yul\":4073:4102   */\n      tag_467\n      jump\t// in\n        /* \"#utility.yul\":4113:4460   */\n    tag_125:\n        /* \"#utility.yul\":4178:4184   */\n      0x00\n        /* \"#utility.yul\":4186:4192   */\n      dup1\n        /* \"#utility.yul\":4239:4241   */\n      0x40\n        /* \"#utility.yul\":4227:4236   */\n      dup4\n        /* \"#utility.yul\":4218:4225   */\n      dup6\n        /* \"#utility.yul\":4214:4237   */\n      sub\n        /* \"#utility.yul\":4210:4242   */\n      slt\n        /* \"#utility.yul\":4207:4259   */\n      iszero\n      tag_513\n      jumpi\n        /* \"#utility.yul\":4255:4256   */\n      0x00\n        /* \"#utility.yul\":4252:4253   */\n      dup1\n        /* \"#utility.yul\":4245:4257   */\n      revert\n        /* \"#utility.yul\":4207:4259   */\n    tag_513:\n        /* \"#utility.yul\":4278:4307   */\n      tag_514\n        /* \"#utility.yul\":4297:4306   */\n      dup4\n        /* \"#utility.yul\":4278:4307   */\n      tag_467\n      jump\t// in\n    tag_514:\n        /* \"#utility.yul\":4268:4307   */\n      swap2\n      pop\n        /* \"#utility.yul\":4357:4359   */\n      0x20\n        /* \"#utility.yul\":4346:4355   */\n      dup4\n        /* \"#utility.yul\":4342:4360   */\n      add\n        /* \"#utility.yul\":4329:4361   */\n      calldataload\n        /* \"#utility.yul\":4404:4409   */\n      dup1\n        /* \"#utility.yul\":4397:4410   */\n      iszero\n        /* \"#utility.yul\":4390:4411   */\n      iszero\n        /* \"#utility.yul\":4383:4388   */\n      dup2\n        /* \"#utility.yul\":4380:4412   */\n      eq\n        /* \"#utility.yul\":4370:4430   */\n      tag_488\n      jumpi\n        /* \"#utility.yul\":4426:4427   */\n      0x00\n        /* \"#utility.yul\":4423:4424   */\n      dup1\n        /* \"#utility.yul\":4416:4428   */\n      revert\n        /* \"#utility.yul\":4465:5168   */\n    tag_132:\n        /* \"#utility.yul\":4768:4771   */\n      0xc0\n        /* \"#utility.yul\":4757:4766   */\n      dup2\n        /* \"#utility.yul\":4750:4772   */\n      mstore\n        /* \"#utility.yul\":4731:4735   */\n      0x00\n        /* \"#utility.yul\":4795:4852   */\n      tag_517\n        /* \"#utility.yul\":4847:4850   */\n      0xc0\n        /* \"#utility.yul\":4836:4845   */\n      dup4\n        /* \"#utility.yul\":4832:4851   */\n      add\n        /* \"#utility.yul\":4824:4830   */\n      dup10\n        /* \"#utility.yul\":4795:4852   */\n      tag_468\n      jump\t// in\n    tag_517:\n        /* \"#utility.yul\":4900:4909   */\n      dup3\n        /* \"#utility.yul\":4892:4898   */\n      dup2\n        /* \"#utility.yul\":4888:4910   */\n      sub\n        /* \"#utility.yul\":4883:4885   */\n      0x20\n        /* \"#utility.yul\":4872:4881   */\n      dup5\n        /* \"#utility.yul\":4868:4886   */\n      add\n        /* \"#utility.yul\":4861:4911   */\n      mstore\n        /* \"#utility.yul\":4928:4972   */\n      tag_518\n        /* \"#utility.yul\":4965:4971   */\n      dup2\n        /* \"#utility.yul\":4957:4963   */\n      dup10\n        /* \"#utility.yul\":4928:4972   */\n      tag_468\n      jump\t// in\n    tag_518:\n        /* \"#utility.yul\":5003:5005   */\n      0x40\n        /* \"#utility.yul\":4988:5006   */\n      dup5\n      add\n        /* \"#utility.yul\":4981:5015   */\n      swap8\n      swap1\n      swap8\n      mstore\n      pop\n      pop\n        /* \"#utility.yul\":5046:5048   */\n      0x60\n        /* \"#utility.yul\":5031:5049   */\n      dup2\n      add\n        /* \"#utility.yul\":5024:5058   */\n      swap4\n      swap1\n      swap4\n      mstore\n        /* \"#utility.yul\":5102:5116   */\n      swap1\n      iszero\n        /* \"#utility.yul\":5095:5117   */\n      iszero\n        /* \"#utility.yul\":5089:5092   */\n      0x80\n        /* \"#utility.yul\":5074:5093   */\n      dup4\n      add\n        /* \"#utility.yul\":5067:5118   */\n      mstore\n        /* \"#utility.yul\":5149:5152   */\n      0xa0\n        /* \"#utility.yul\":5134:5153   */\n      swap1\n      swap2\n      add\n        /* \"#utility.yul\":5127:5162   */\n      mstore\n        /* \"#utility.yul\":4920:4972   */\n      swap3\n        /* \"#utility.yul\":4465:5168   */\n      swap2\n      pop\n      pop\n      jump\t// out\n        /* \"#utility.yul\":5173:5300   */\n    tag_393:\n        /* \"#utility.yul\":5234:5244   */\n      0x4e487b71\n        /* \"#utility.yul\":5229:5232   */\n      0xe0\n        /* \"#utility.yul\":5225:5245   */\n      shl\n        /* \"#utility.yul\":5222:5223   */\n      0x00\n        /* \"#utility.yul\":5215:5246   */\n      mstore\n        /* \"#utility.yul\":5265:5269   */\n      0x41\n        /* \"#utility.yul\":5262:5263   */\n      0x04\n        /* \"#utility.yul\":5255:5270   */\n      mstore\n        /* \"#utility.yul\":5289:5293   */\n      0x24\n        /* \"#utility.yul\":5286:5287   */\n      0x00\n        /* \"#utility.yul\":5279:5294   */\n      revert\n        /* \"#utility.yul\":5305:6020   */\n    tag_469:\n        /* \"#utility.yul\":5369:5374   */\n      0x00\n        /* \"#utility.yul\":5401:5402   */\n      dup1\n      sub(shl(0x40, 0x01), 0x01)\n        /* \"#utility.yul\":5417:5423   */\n      dup5\n        /* \"#utility.yul\":5414:5444   */\n      gt\n        /* \"#utility.yul\":5411:5467   */\n      iszero\n      tag_522\n      jumpi\n        /* \"#utility.yul\":5447:5465   */\n      tag_522\n      tag_393\n      jump\t// in\n    tag_522:\n      pop\n        /* \"#utility.yul\":5602:5604   */\n      0x40\n        /* \"#utility.yul\":5596:5605   */\n      mload\n      not(0x1f)\n        /* \"#utility.yul\":5515:5517   */\n      0x1f\n        /* \"#utility.yul\":5494:5509   */\n      dup6\n      add\n        /* \"#utility.yul\":5490:5519   */\n      dup2\n      and\n        /* \"#utility.yul\":5660:5662   */\n      0x3f\n        /* \"#utility.yul\":5648:5663   */\n      add\n        /* \"#utility.yul\":5644:5673   */\n      and\n        /* \"#utility.yul\":5632:5674   */\n      dup2\n      add\n        /* \"#utility.yul\":5725:5747   */\n      dup2\n      dup2\n      lt\n      sub(shl(0x40, 0x01), 0x01)\n        /* \"#utility.yul\":5689:5723   */\n      dup3\n      gt\n        /* \"#utility.yul\":5686:5748   */\n      or\n        /* \"#utility.yul\":5683:5771   */\n      iszero\n      tag_524\n      jumpi\n        /* \"#utility.yul\":5751:5769   */\n      tag_524\n      tag_393\n      jump\t// in\n    tag_524:\n        /* \"#utility.yul\":5787:5789   */\n      0x40\n        /* \"#utility.yul\":5780:5802   */\n      mstore\n        /* \"#utility.yul\":5835:5857   */\n      dup4\n      dup2\n      mstore\n        /* \"#utility.yul\":5820:5826   */\n      swap1\n      pop\n      dup1\n        /* \"#utility.yul\":5872:5888   */\n      dup3\n      dup5\n      add\n        /* \"#utility.yul\":5869:5894   */\n      dup6\n      lt\n        /* \"#utility.yul\":5866:5911   */\n      iszero\n      tag_525\n      jumpi\n        /* \"#utility.yul\":5907:5908   */\n      0x00\n        /* \"#utility.yul\":5904:5905   */\n      dup1\n        /* \"#utility.yul\":5897:5909   */\n      revert\n        /* \"#utility.yul\":5866:5911   */\n    tag_525:\n        /* \"#utility.yul\":5957:5963   */\n      dup4\n        /* \"#utility.yul\":5952:5955   */\n      dup4\n        /* \"#utility.yul\":5945:5949   */\n      0x20\n        /* \"#utility.yul\":5937:5943   */\n      dup4\n        /* \"#utility.yul\":5933:5950   */\n      add\n        /* \"#utility.yul\":5920:5964   */\n      calldatacopy\n        /* \"#utility.yul\":6012:6013   */\n      0x00\n        /* \"#utility.yul\":6005:6009   */\n      0x20\n        /* \"#utility.yul\":5996:6002   */\n      dup6\n        /* \"#utility.yul\":5988:5994   */\n      dup4\n        /* \"#utility.yul\":5984:6003   */\n      add\n        /* \"#utility.yul\":5980:6010   */\n      add\n        /* \"#utility.yul\":5973:6014   */\n      mstore\n      pop\n        /* \"#utility.yul\":5305:6020   */\n      swap4\n      swap3\n      pop\n      pop\n      pop\n      jump\t// out\n        /* \"#utility.yul\":6025:6737   */\n    tag_136:\n        /* \"#utility.yul\":6120:6126   */\n      0x00\n        /* \"#utility.yul\":6128:6134   */\n      dup1\n        /* \"#utility.yul\":6136:6142   */\n      0x00\n        /* \"#utility.yul\":6144:6150   */\n      dup1\n        /* \"#utility.yul\":6197:6200   */\n      0x80\n        /* \"#utility.yul\":6185:6194   */\n      dup6\n        /* \"#utility.yul\":6176:6183   */\n      dup8\n        /* \"#utility.yul\":6172:6195   */\n      sub\n        /* \"#utility.yul\":6168:6201   */\n      slt\n        /* \"#utility.yul\":6165:6218   */\n      iszero\n      tag_527\n      jumpi\n        /* \"#utility.yul\":6214:6215   */\n      0x00\n        /* \"#utility.yul\":6211:6212   */\n      dup1\n        /* \"#utility.yul\":6204:6216   */\n      revert\n        /* \"#utility.yul\":6165:6218   */\n    tag_527:\n        /* \"#utility.yul\":6237:6266   */\n      tag_528\n        /* \"#utility.yul\":6256:6265   */\n      dup6\n        /* \"#utility.yul\":6237:6266   */\n      tag_467\n      jump\t// in\n    tag_528:\n        /* \"#utility.yul\":6227:6266   */\n      swap4\n      pop\n        /* \"#utility.yul\":6285:6323   */\n      tag_529\n        /* \"#utility.yul\":6319:6321   */\n      0x20\n        /* \"#utility.yul\":6308:6317   */\n      dup7\n        /* \"#utility.yul\":6304:6322   */\n      add\n        /* \"#utility.yul\":6285:6323   */\n      tag_467\n      jump\t// in\n    tag_529:\n        /* \"#utility.yul\":6275:6323   */\n      swap3\n      pop\n        /* \"#utility.yul\":6392:6394   */\n      0x40\n        /* \"#utility.yul\":6377:6395   */\n      dup6\n      add\n        /* \"#utility.yul\":6364:6396   */\n      calldataload\n      swap2\n      pop\n        /* \"#utility.yul\":6471:6473   */\n      0x60\n        /* \"#utility.yul\":6456:6474   */\n      dup6\n      add\n        /* \"#utility.yul\":6443:6475   */\n      calldataload\n      sub(shl(0x40, 0x01), 0x01)\n        /* \"#utility.yul\":6487:6517   */\n      dup2\n      gt\n        /* \"#utility.yul\":6484:6534   */\n      iszero\n      tag_530\n      jumpi\n        /* \"#utility.yul\":6530:6531   */\n      0x00\n        /* \"#utility.yul\":6527:6528   */\n      dup1\n        /* \"#utility.yul\":6520:6532   */\n      revert\n        /* \"#utility.yul\":6484:6534   */\n    tag_530:\n        /* \"#utility.yul\":6553:6575   */\n      dup6\n      add\n        /* \"#utility.yul\":6606:6610   */\n      0x1f\n        /* \"#utility.yul\":6598:6611   */\n      dup2\n      add\n        /* \"#utility.yul\":6594:6621   */\n      dup8\n      sgt\n        /* \"#utility.yul\":6584:6639   */\n      tag_531\n      jumpi\n        /* \"#utility.yul\":6635:6636   */\n      0x00\n        /* \"#utility.yul\":6632:6633   */\n      dup1\n        /* \"#utility.yul\":6625:6637   */\n      revert\n        /* \"#utility.yul\":6584:6639   */\n    tag_531:\n        /* \"#utility.yul\":6658:6731   */\n      tag_532\n        /* \"#utility.yul\":6723:6730   */\n      dup8\n        /* \"#utility.yul\":6718:6720   */\n      dup3\n        /* \"#utility.yul\":6705:6721   */\n      calldataload\n        /* \"#utility.yul\":6700:6702   */\n      0x20\n        /* \"#utility.yul\":6696:6698   */\n      dup5\n        /* \"#utility.yul\":6692:6703   */\n      add\n        /* \"#utility.yul\":6658:6731   */\n      tag_469\n      jump\t// in\n    tag_532:\n        /* \"#utility.yul\":6648:6731   */\n      swap2\n      pop\n      pop\n        /* \"#utility.yul\":6025:6737   */\n      swap3\n      swap6\n      swap2\n      swap5\n      pop\n      swap3\n      pop\n      jump\t// out\n        /* \"#utility.yul\":6742:7002   */\n    tag_152:\n        /* \"#utility.yul\":6810:6816   */\n      0x00\n        /* \"#utility.yul\":6818:6824   */\n      dup1\n        /* \"#utility.yul\":6871:6873   */\n      0x40\n        /* \"#utility.yul\":6859:6868   */\n      dup4\n        /* \"#utility.yul\":6850:6857   */\n      dup6\n        /* \"#utility.yul\":6846:6869   */\n      sub\n        /* \"#utility.yul\":6842:6874   */\n      slt\n        /* \"#utility.yul\":6839:6891   */\n      iszero\n      tag_534\n      jumpi\n        /* \"#utility.yul\":6887:6888   */\n      0x00\n        /* \"#utility.yul\":6884:6885   */\n      dup1\n        /* \"#utility.yul\":6877:6889   */\n      revert\n        /* \"#utility.yul\":6839:6891   */\n    tag_534:\n        /* \"#utility.yul\":6910:6939   */\n      tag_535\n        /* \"#utility.yul\":6929:6938   */\n      dup4\n        /* \"#utility.yul\":6910:6939   */\n      tag_467\n      jump\t// in\n    tag_535:\n        /* \"#utility.yul\":6900:6939   */\n      swap2\n      pop\n        /* \"#utility.yul\":6958:6996   */\n      tag_508\n        /* \"#utility.yul\":6992:6994   */\n      0x20\n        /* \"#utility.yul\":6981:6990   */\n      dup5\n        /* \"#utility.yul\":6977:6995   */\n      add\n        /* \"#utility.yul\":6958:6996   */\n      tag_467\n      jump\t// in\n        /* \"#utility.yul\":7007:7228   */\n    tag_470:\n        /* \"#utility.yul\":7050:7055   */\n      0x00\n        /* \"#utility.yul\":7103:7106   */\n      dup3\n        /* \"#utility.yul\":7096:7100   */\n      0x1f\n        /* \"#utility.yul\":7088:7094   */\n      dup4\n        /* \"#utility.yul\":7084:7101   */\n      add\n        /* \"#utility.yul\":7080:7107   */\n      slt\n        /* \"#utility.yul\":7070:7125   */\n      tag_538\n      jumpi\n        /* \"#utility.yul\":7121:7122   */\n      0x00\n        /* \"#utility.yul\":7118:7119   */\n      dup1\n        /* \"#utility.yul\":7111:7123   */\n      revert\n        /* \"#utility.yul\":7070:7125   */\n    tag_538:\n        /* \"#utility.yul\":7143:7222   */\n      tag_281\n        /* \"#utility.yul\":7218:7221   */\n      dup4\n        /* \"#utility.yul\":7209:7215   */\n      dup4\n        /* \"#utility.yul\":7196:7216   */\n      calldataload\n        /* \"#utility.yul\":7189:7193   */\n      0x20\n        /* \"#utility.yul\":7181:7187   */\n      dup6\n        /* \"#utility.yul\":7177:7194   */\n      add\n        /* \"#utility.yul\":7143:7222   */\n      tag_469\n      jump\t// in\n        /* \"#utility.yul\":7233:7771   */\n    tag_162:\n        /* \"#utility.yul\":7321:7327   */\n      0x00\n        /* \"#utility.yul\":7329:7335   */\n      dup1\n        /* \"#utility.yul\":7382:7384   */\n      0x40\n        /* \"#utility.yul\":7370:7379   */\n      dup4\n        /* \"#utility.yul\":7361:7368   */\n      dup6\n        /* \"#utility.yul\":7357:7380   */\n      sub\n        /* \"#utility.yul\":7353:7385   */\n      slt\n        /* \"#utility.yul\":7350:7402   */\n      iszero\n      tag_541\n      jumpi\n        /* \"#utility.yul\":7398:7399   */\n      0x00\n        /* \"#utility.yul\":7395:7396   */\n      dup1\n        /* \"#utility.yul\":7388:7400   */\n      revert\n        /* \"#utility.yul\":7350:7402   */\n    tag_541:\n        /* \"#utility.yul\":7438:7447   */\n      dup3\n        /* \"#utility.yul\":7425:7448   */\n      calldataload\n      sub(shl(0x40, 0x01), 0x01)\n        /* \"#utility.yul\":7463:7469   */\n      dup2\n        /* \"#utility.yul\":7460:7490   */\n      gt\n        /* \"#utility.yul\":7457:7507   */\n      iszero\n      tag_542\n      jumpi\n        /* \"#utility.yul\":7503:7504   */\n      0x00\n        /* \"#utility.yul\":7500:7501   */\n      dup1\n        /* \"#utility.yul\":7493:7505   */\n      revert\n        /* \"#utility.yul\":7457:7507   */\n    tag_542:\n        /* \"#utility.yul\":7526:7576   */\n      tag_543\n        /* \"#utility.yul\":7568:7575   */\n      dup6\n        /* \"#utility.yul\":7559:7565   */\n      dup3\n        /* \"#utility.yul\":7548:7557   */\n      dup7\n        /* \"#utility.yul\":7544:7566   */\n      add\n        /* \"#utility.yul\":7526:7576   */\n      tag_470\n      jump\t// in\n    tag_543:\n        /* \"#utility.yul\":7516:7576   */\n      swap3\n      pop\n      pop\n        /* \"#utility.yul\":7629:7631   */\n      0x20\n        /* \"#utility.yul\":7618:7627   */\n      dup4\n        /* \"#utility.yul\":7614:7632   */\n      add\n        /* \"#utility.yul\":7601:7633   */\n      calldataload\n      sub(shl(0x40, 0x01), 0x01)\n        /* \"#utility.yul\":7648:7656   */\n      dup2\n        /* \"#utility.yul\":7645:7677   */\n      gt\n        /* \"#utility.yul\":7642:7694   */\n      iszero\n      tag_544\n      jumpi\n        /* \"#utility.yul\":7690:7691   */\n      0x00\n        /* \"#utility.yul\":7687:7688   */\n      dup1\n        /* \"#utility.yul\":7680:7692   */\n      revert\n        /* \"#utility.yul\":7642:7694   */\n    tag_544:\n        /* \"#utility.yul\":7713:7765   */\n      tag_545\n        /* \"#utility.yul\":7757:7764   */\n      dup6\n        /* \"#utility.yul\":7746:7754   */\n      dup3\n        /* \"#utility.yul\":7735:7744   */\n      dup7\n        /* \"#utility.yul\":7731:7755   */\n      add\n        /* \"#utility.yul\":7713:7765   */\n      tag_470\n      jump\t// in\n    tag_545:\n        /* \"#utility.yul\":7703:7765   */\n      swap2\n      pop\n      pop\n        /* \"#utility.yul\":7233:7771   */\n      swap3\n      pop\n      swap3\n      swap1\n      pop\n      jump\t// out\n        /* \"#utility.yul\":7776:8156   */\n    tag_175:\n        /* \"#utility.yul\":7855:7856   */\n      0x01\n        /* \"#utility.yul\":7851:7863   */\n      dup2\n      dup2\n      shr\n      swap1\n        /* \"#utility.yul\":7898:7910   */\n      dup3\n      and\n      dup1\n        /* \"#utility.yul\":7919:7980   */\n      tag_547\n      jumpi\n        /* \"#utility.yul\":7973:7977   */\n      0x7f\n        /* \"#utility.yul\":7965:7971   */\n      dup3\n        /* \"#utility.yul\":7961:7978   */\n      and\n        /* \"#utility.yul\":7951:7978   */\n      swap2\n      pop\n        /* \"#utility.yul\":7919:7980   */\n    tag_547:\n        /* \"#utility.yul\":8026:8028   */\n      0x20\n        /* \"#utility.yul\":8018:8024   */\n      dup3\n        /* \"#utility.yul\":8015:8029   */\n      lt\n        /* \"#utility.yul\":7995:8013   */\n      dup2\n        /* \"#utility.yul\":7992:8030   */\n      sub\n        /* \"#utility.yul\":7989:8150   */\n      tag_548\n      jumpi\n        /* \"#utility.yul\":8072:8082   */\n      0x4e487b71\n        /* \"#utility.yul\":8067:8070   */\n      0xe0\n        /* \"#utility.yul\":8063:8083   */\n      shl\n        /* \"#utility.yul\":8060:8061   */\n      0x00\n        /* \"#utility.yul\":8053:8084   */\n      mstore\n        /* \"#utility.yul\":8107:8111   */\n      0x22\n        /* \"#utility.yul\":8104:8105   */\n      0x04\n        /* \"#utility.yul\":8097:8112   */\n      mstore\n        /* \"#utility.yul\":8135:8139   */\n      0x24\n        /* \"#utility.yul\":8132:8133   */\n      0x00\n        /* \"#utility.yul\":8125:8140   */\n      revert\n        /* \"#utility.yul\":7989:8150   */\n    tag_548:\n      pop\n        /* \"#utility.yul\":7776:8156   */\n      swap2\n      swap1\n      pop\n      jump\t// out\n        /* \"#utility.yul\":8537:8664   */\n    tag_471:\n        /* \"#utility.yul\":8598:8608   */\n      0x4e487b71\n        /* \"#utility.yul\":8593:8596   */\n      0xe0\n        /* \"#utility.yul\":8589:8609   */\n      shl\n        /* \"#utility.yul\":8586:8587   */\n      0x00\n        /* \"#utility.yul\":8579:8610   */\n      mstore\n        /* \"#utility.yul\":8629:8633   */\n      0x11\n        /* \"#utility.yul\":8626:8627   */\n      0x04\n        /* \"#utility.yul\":8619:8634   */\n      mstore\n        /* \"#utility.yul\":8653:8657   */\n      0x24\n        /* \"#utility.yul\":8650:8651   */\n      0x00\n        /* \"#utility.yul\":8643:8658   */\n      revert\n        /* \"#utility.yul\":8669:8837   */\n    tag_207:\n        /* \"#utility.yul\":8742:8751   */\n      dup1\n      dup3\n      mul\n        /* \"#utility.yul\":8773:8782   */\n      dup2\n      iszero\n        /* \"#utility.yul\":8790:8805   */\n      dup3\n      dup3\n      div\n        /* \"#utility.yul\":8784:8806   */\n      dup5\n      eq\n        /* \"#utility.yul\":8770:8807   */\n      or\n        /* \"#utility.yul\":8760:8831   */\n      tag_165\n      jumpi\n        /* \"#utility.yul\":8811:8829   */\n      tag_165\n      tag_471\n      jump\t// in\n        /* \"#utility.yul\":8974:9191   */\n    tag_209:\n        /* \"#utility.yul\":9014:9015   */\n      0x00\n        /* \"#utility.yul\":9040:9041   */\n      dup3\n        /* \"#utility.yul\":9030:9162   */\n      tag_556\n      jumpi\n        /* \"#utility.yul\":9084:9094   */\n      0x4e487b71\n        /* \"#utility.yul\":9079:9082   */\n      0xe0\n        /* \"#utility.yul\":9075:9095   */\n      shl\n        /* \"#utility.yul\":9072:9073   */\n      0x00\n        /* \"#utility.yul\":9065:9096   */\n      mstore\n        /* \"#utility.yul\":9119:9123   */\n      0x12\n        /* \"#utility.yul\":9116:9117   */\n      0x04\n        /* \"#utility.yul\":9109:9124   */\n      mstore\n        /* \"#utility.yul\":9147:9151   */\n      0x24\n        /* \"#utility.yul\":9144:9145   */\n      0x00\n        /* \"#utility.yul\":9137:9152   */\n      revert\n        /* \"#utility.yul\":9030:9162   */\n    tag_556:\n      pop\n        /* \"#utility.yul\":9176:9185   */\n      div\n      swap1\n        /* \"#utility.yul\":8974:9191   */\n      jump\t// out\n        /* \"#utility.yul\":10008:10136   */\n    tag_226:\n        /* \"#utility.yul\":10075:10084   */\n      dup2\n      dup2\n      sub\n        /* \"#utility.yul\":10096:10107   */\n      dup2\n      dup2\n      gt\n        /* \"#utility.yul\":10093:10130   */\n      iszero\n      tag_165\n      jumpi\n        /* \"#utility.yul\":10110:10128   */\n      tag_165\n      tag_471\n      jump\t// in\n        /* \"#utility.yul\":10141:10486   */\n    tag_230:\n        /* \"#utility.yul\":10343:10368   */\n      swap3\n      dup4\n      mstore\n      sub(shl(0xa0, 0x01), 0x01)\n        /* \"#utility.yul\":10404:10436   */\n      swap2\n      swap1\n      swap2\n      and\n        /* \"#utility.yul\":10399:10401   */\n      0x20\n        /* \"#utility.yul\":10384:10402   */\n      dup4\n      add\n        /* \"#utility.yul\":10377:10437   */\n      mstore\n        /* \"#utility.yul\":10468:10470   */\n      0x40\n        /* \"#utility.yul\":10453:10471   */\n      dup3\n      add\n        /* \"#utility.yul\":10446:10480   */\n      mstore\n        /* \"#utility.yul\":10331:10333   */\n      0x60\n        /* \"#utility.yul\":10316:10334   */\n      add\n      swap1\n        /* \"#utility.yul\":10141:10486   */\n      jump\t// out\n        /* \"#utility.yul\":10900:11025   */\n    tag_273:\n        /* \"#utility.yul\":10965:10974   */\n      dup1\n      dup3\n      add\n        /* \"#utility.yul\":10986:10996   */\n      dup1\n      dup3\n      gt\n        /* \"#utility.yul\":10983:11019   */\n      iszero\n      tag_165\n      jumpi\n        /* \"#utility.yul\":10999:11017   */\n      tag_165\n      tag_471\n      jump\t// in\n        /* \"#utility.yul\":11283:11495   */\n    tag_472:\n        /* \"#utility.yul\":11325:11328   */\n      0x00\n        /* \"#utility.yul\":11363:11368   */\n      dup2\n        /* \"#utility.yul\":11357:11369   */\n      mload\n        /* \"#utility.yul\":11407:11413   */\n      dup1\n        /* \"#utility.yul\":11400:11404   */\n      0x20\n        /* \"#utility.yul\":11393:11398   */\n      dup5\n        /* \"#utility.yul\":11389:11405   */\n      add\n        /* \"#utility.yul\":11384:11387   */\n      dup6\n        /* \"#utility.yul\":11378:11414   */\n      mcopy\n        /* \"#utility.yul\":11469:11470   */\n      0x00\n        /* \"#utility.yul\":11433:11449   */\n      swap4\n      add\n        /* \"#utility.yul\":11458:11471   */\n      swap3\n      dup4\n      mstore\n      pop\n        /* \"#utility.yul\":11433:11449   */\n      swap1\n      swap2\n        /* \"#utility.yul\":11283:11495   */\n      swap1\n      pop\n      jump\t// out\n        /* \"#utility.yul\":11500:11767   */\n    tag_285:\n        /* \"#utility.yul\":11679:11682   */\n      0x00\n        /* \"#utility.yul\":11704:11761   */\n      tag_458\n        /* \"#utility.yul\":11730:11760   */\n      tag_571\n        /* \"#utility.yul\":11756:11759   */\n      dup4\n        /* \"#utility.yul\":11748:11754   */\n      dup7\n        /* \"#utility.yul\":11730:11760   */\n      tag_472\n      jump\t// in\n    tag_571:\n        /* \"#utility.yul\":11722:11728   */\n      dup5\n        /* \"#utility.yul\":11704:11761   */\n      tag_472\n      jump\t// in\n        /* \"#utility.yul\":12947:13465   */\n    tag_474:\n        /* \"#utility.yul\":13049:13051   */\n      0x1f\n        /* \"#utility.yul\":13044:13047   */\n      dup3\n        /* \"#utility.yul\":13041:13052   */\n      gt\n        /* \"#utility.yul\":13038:13459   */\n      iszero\n      tag_214\n      jumpi\n        /* \"#utility.yul\":13085:13090   */\n      dup1\n        /* \"#utility.yul\":13082:13083   */\n      0x00\n        /* \"#utility.yul\":13075:13091   */\n      mstore\n        /* \"#utility.yul\":13129:13133   */\n      0x20\n        /* \"#utility.yul\":13126:13127   */\n      0x00\n        /* \"#utility.yul\":13116:13134   */\n      keccak256\n        /* \"#utility.yul\":13199:13201   */\n      0x1f\n        /* \"#utility.yul\":13187:13197   */\n      dup5\n        /* \"#utility.yul\":13183:13202   */\n      add\n        /* \"#utility.yul\":13180:13181   */\n      0x05\n        /* \"#utility.yul\":13176:13203   */\n      shr\n        /* \"#utility.yul\":13170:13174   */\n      dup2\n        /* \"#utility.yul\":13166:13204   */\n      add\n        /* \"#utility.yul\":13235:13239   */\n      0x20\n        /* \"#utility.yul\":13223:13233   */\n      dup6\n        /* \"#utility.yul\":13220:13240   */\n      lt\n        /* \"#utility.yul\":13217:13264   */\n      iszero\n      tag_578\n      jumpi\n      pop\n        /* \"#utility.yul\":13258:13262   */\n      dup1\n        /* \"#utility.yul\":13217:13264   */\n    tag_578:\n        /* \"#utility.yul\":13313:13315   */\n      0x1f\n        /* \"#utility.yul\":13308:13311   */\n      dup5\n        /* \"#utility.yul\":13304:13316   */\n      add\n        /* \"#utility.yul\":13301:13302   */\n      0x05\n        /* \"#utility.yul\":13297:13317   */\n      shr\n        /* \"#utility.yul\":13291:13295   */\n      dup3\n        /* \"#utility.yul\":13287:13318   */\n      add\n        /* \"#utility.yul\":13277:13318   */\n      swap2\n      pop\n        /* \"#utility.yul\":13368:13449   */\n    tag_579:\n        /* \"#utility.yul\":13386:13388   */\n      dup2\n        /* \"#utility.yul\":13379:13384   */\n      dup2\n        /* \"#utility.yul\":13376:13389   */\n      lt\n        /* \"#utility.yul\":13368:13449   */\n      iszero\n      tag_385\n      jumpi\n        /* \"#utility.yul\":13445:13446   */\n      0x00\n        /* \"#utility.yul\":13431:13447   */\n      dup2\n      sstore\n        /* \"#utility.yul\":13412:13413   */\n      0x01\n        /* \"#utility.yul\":13401:13414   */\n      add\n        /* \"#utility.yul\":13368:13449   */\n      jump(tag_579)\n        /* \"#utility.yul\":13641:14940   */\n    tag_319:\n        /* \"#utility.yul\":13767:13770   */\n      dup2\n        /* \"#utility.yul\":13761:13771   */\n      mload\n      sub(shl(0x40, 0x01), 0x01)\n        /* \"#utility.yul\":13786:13792   */\n      dup2\n        /* \"#utility.yul\":13783:13813   */\n      gt\n        /* \"#utility.yul\":13780:13836   */\n      iszero\n      tag_585\n      jumpi\n        /* \"#utility.yul\":13816:13834   */\n      tag_585\n      tag_393\n      jump\t// in\n    tag_585:\n        /* \"#utility.yul\":13845:13942   */\n      tag_586\n        /* \"#utility.yul\":13935:13941   */\n      dup2\n        /* \"#utility.yul\":13895:13933   */\n      tag_587\n        /* \"#utility.yul\":13927:13931   */\n      dup5\n        /* \"#utility.yul\":13921:13932   */\n      sload\n        /* \"#utility.yul\":13895:13933   */\n      tag_175\n      jump\t// in\n    tag_587:\n        /* \"#utility.yul\":13889:13893   */\n      dup5\n        /* \"#utility.yul\":13845:13942   */\n      tag_474\n      jump\t// in\n    tag_586:\n        /* \"#utility.yul\":13991:13995   */\n      0x20\n        /* \"#utility.yul\":14022:14024   */\n      0x1f\n        /* \"#utility.yul\":14011:14025   */\n      dup3\n      gt\n        /* \"#utility.yul\":14039:14040   */\n      0x01\n        /* \"#utility.yul\":14034:14683   */\n      dup2\n      eq\n      tag_589\n      jumpi\n        /* \"#utility.yul\":14727:14728   */\n      0x00\n        /* \"#utility.yul\":14744:14750   */\n      dup4\n        /* \"#utility.yul\":14741:14830   */\n      iszero\n      tag_590\n      jumpi\n      pop\n        /* \"#utility.yul\":14796:14815   */\n      dup5\n      dup3\n      add\n        /* \"#utility.yul\":14790:14816   */\n      mload\n        /* \"#utility.yul\":14741:14830   */\n    tag_590:\n      not(0x00)\n        /* \"#utility.yul\":13598:13599   */\n      0x03\n        /* \"#utility.yul\":13594:13605   */\n      dup6\n      swap1\n      shl\n        /* \"#utility.yul\":13590:13614   */\n      shr\n        /* \"#utility.yul\":13586:13615   */\n      not\n        /* \"#utility.yul\":13576:13616   */\n      and\n        /* \"#utility.yul\":13622:13623   */\n      0x01\n        /* \"#utility.yul\":13618:13629   */\n      dup5\n      swap1\n      shl\n        /* \"#utility.yul\":13573:13630   */\n      or\n        /* \"#utility.yul\":14843:14924   */\n      dup5\n      sstore\n        /* \"#utility.yul\":14004:14934   */\n      jump(tag_385)\n        /* \"#utility.yul\":14034:14683   */\n    tag_589:\n        /* \"#utility.yul\":12894:12895   */\n      0x00\n        /* \"#utility.yul\":12887:12901   */\n      dup5\n      dup2\n      mstore\n        /* \"#utility.yul\":12931:12935   */\n      0x20\n        /* \"#utility.yul\":12918:12936   */\n      dup2\n      keccak256\n      not(0x1f)\n        /* \"#utility.yul\":14070:14090   */\n      dup6\n      and\n      swap2\n        /* \"#utility.yul\":14188:14410   */\n    tag_593:\n        /* \"#utility.yul\":14202:14209   */\n      dup3\n        /* \"#utility.yul\":14199:14200   */\n      dup2\n        /* \"#utility.yul\":14196:14210   */\n      lt\n        /* \"#utility.yul\":14188:14410   */\n      iszero\n      tag_595\n      jumpi\n        /* \"#utility.yul\":14284:14303   */\n      dup8\n      dup6\n      add\n        /* \"#utility.yul\":14278:14304   */\n      mload\n        /* \"#utility.yul\":14263:14305   */\n      dup3\n      sstore\n        /* \"#utility.yul\":14391:14395   */\n      0x20\n        /* \"#utility.yul\":14376:14396   */\n      swap5\n      dup6\n      add\n      swap5\n        /* \"#utility.yul\":14344:14345   */\n      0x01\n        /* \"#utility.yul\":14332:14346   */\n      swap1\n      swap3\n      add\n      swap2\n        /* \"#utility.yul\":14218:14230   */\n      add\n        /* \"#utility.yul\":14188:14410   */\n      jump(tag_593)\n    tag_595:\n        /* \"#utility.yul\":14192:14195   */\n      pop\n        /* \"#utility.yul\":14438:14444   */\n      dup5\n        /* \"#utility.yul\":14429:14436   */\n      dup3\n        /* \"#utility.yul\":14426:14445   */\n      lt\n        /* \"#utility.yul\":14423:14624   */\n      iszero\n      tag_596\n      jumpi\n        /* \"#utility.yul\":14499:14518   */\n      dup7\n      dup5\n      add\n        /* \"#utility.yul\":14493:14519   */\n      mload\n      not(0x00)\n        /* \"#utility.yul\":14582:14583   */\n      0x03\n        /* \"#utility.yul\":14578:14592   */\n      dup8\n      swap1\n      shl\n        /* \"#utility.yul\":14594:14597   */\n      0xf8\n        /* \"#utility.yul\":14574:14598   */\n      and\n        /* \"#utility.yul\":14570:14607   */\n      shr\n        /* \"#utility.yul\":14566:14608   */\n      not\n        /* \"#utility.yul\":14551:14609   */\n      and\n        /* \"#utility.yul\":14536:14610   */\n      dup2\n      sstore\n        /* \"#utility.yul\":14423:14624   */\n    tag_596:\n      pop\n      pop\n      pop\n      pop\n        /* \"#utility.yul\":14670:14671   */\n      0x01\n        /* \"#utility.yul\":14654:14668   */\n      swap1\n      dup2\n      shl\n        /* \"#utility.yul\":14650:14672   */\n      add\n        /* \"#utility.yul\":14637:14673   */\n      swap1\n      sstore\n      pop\n        /* \"#utility.yul\":13641:14940   */\n      jump\t// out\n        /* \"#utility.yul\":14945:15421   */\n    tag_324:\n        /* \"#utility.yul\":15170:15176   */\n      dup4\n        /* \"#utility.yul\":15159:15168   */\n      dup2\n        /* \"#utility.yul\":15152:15177   */\n      mstore\n        /* \"#utility.yul\":15213:15215   */\n      0x60\n        /* \"#utility.yul\":15208:15210   */\n      0x20\n        /* \"#utility.yul\":15197:15206   */\n      dup3\n        /* \"#utility.yul\":15193:15211   */\n      add\n        /* \"#utility.yul\":15186:15216   */\n      mstore\n        /* \"#utility.yul\":15133:15137   */\n      0x00\n        /* \"#utility.yul\":15239:15295   */\n      tag_598\n        /* \"#utility.yul\":15291:15293   */\n      0x60\n        /* \"#utility.yul\":15280:15289   */\n      dup4\n        /* \"#utility.yul\":15276:15294   */\n      add\n        /* \"#utility.yul\":15268:15274   */\n      dup6\n        /* \"#utility.yul\":15239:15295   */\n      tag_468\n      jump\t// in\n    tag_598:\n        /* \"#utility.yul\":15343:15352   */\n      dup3\n        /* \"#utility.yul\":15335:15341   */\n      dup2\n        /* \"#utility.yul\":15331:15353   */\n      sub\n        /* \"#utility.yul\":15326:15328   */\n      0x40\n        /* \"#utility.yul\":15315:15324   */\n      dup5\n        /* \"#utility.yul\":15311:15329   */\n      add\n        /* \"#utility.yul\":15304:15354   */\n      mstore\n        /* \"#utility.yul\":15371:15415   */\n      tag_599\n        /* \"#utility.yul\":15408:15414   */\n      dup2\n        /* \"#utility.yul\":15400:15406   */\n      dup6\n        /* \"#utility.yul\":15371:15415   */\n      tag_468\n      jump\t// in\n    tag_599:\n        /* \"#utility.yul\":15363:15415   */\n      swap7\n        /* \"#utility.yul\":14945:15421   */\n      swap6\n      pop\n      pop\n      pop\n      pop\n      pop\n      pop\n      jump\t// out\n        /* \"#utility.yul\":15711:16207   */\n    tag_371:\n      sub(shl(0xa0, 0x01), 0x01)\n        /* \"#utility.yul\":15942:15974   */\n      dup6\n      dup2\n      and\n        /* \"#utility.yul\":15924:15975   */\n      dup3\n      mstore\n        /* \"#utility.yul\":16011:16043   */\n      dup5\n      and\n        /* \"#utility.yul\":16006:16008   */\n      0x20\n        /* \"#utility.yul\":15991:16009   */\n      dup3\n      add\n        /* \"#utility.yul\":15984:16044   */\n      mstore\n        /* \"#utility.yul\":16075:16077   */\n      0x40\n        /* \"#utility.yul\":16060:16078   */\n      dup2\n      add\n        /* \"#utility.yul\":16053:16087   */\n      dup4\n      swap1\n      mstore\n        /* \"#utility.yul\":16123:16126   */\n      0x80\n        /* \"#utility.yul\":16118:16120   */\n      0x60\n        /* \"#utility.yul\":16103:16121   */\n      dup3\n      add\n        /* \"#utility.yul\":16096:16127   */\n      dup2\n      swap1\n      mstore\n      0x00\n      swap1\n        /* \"#utility.yul\":16144:16201   */\n      tag_599\n      swap1\n        /* \"#utility.yul\":16181:16200   */\n      dup4\n      add\n        /* \"#utility.yul\":16173:16179   */\n      dup5\n        /* \"#utility.yul\":16144:16201   */\n      tag_468\n      jump\t// in\n        /* \"#utility.yul\":16212:16461   */\n    tag_374:\n        /* \"#utility.yul\":16281:16287   */\n      0x00\n        /* \"#utility.yul\":16334:16336   */\n      0x20\n        /* \"#utility.yul\":16322:16331   */\n      dup3\n        /* \"#utility.yul\":16313:16320   */\n      dup5\n        /* \"#utility.yul\":16309:16332   */\n      sub\n        /* \"#utility.yul\":16305:16337   */\n      slt\n        /* \"#utility.yul\":16302:16354   */\n      iszero\n      tag_604\n      jumpi\n        /* \"#utility.yul\":16350:16351   */\n      0x00\n        /* \"#utility.yul\":16347:16348   */\n      dup1\n        /* \"#utility.yul\":16340:16352   */\n      revert\n        /* \"#utility.yul\":16302:16354   */\n    tag_604:\n        /* \"#utility.yul\":16382:16391   */\n      dup2\n        /* \"#utility.yul\":16376:16392   */\n      mload\n        /* \"#utility.yul\":16401:16431   */\n      tag_281\n        /* \"#utility.yul\":16425:16430   */\n      dup2\n        /* \"#utility.yul\":16401:16431   */\n      tag_466\n      jump\t// in\n    stop\n    data_7771773f702b4e939e4f13bb3109b5b3069fc424947ed7997233d08ce9476e9b 68747470733a2f2f696e686572656e742d736361726c65742d746172736965722e6d7966696c65626173652e636f6d2f697066732f516d5035674e44766f5245477859345842547468413933733436595775333459656b3569733650677a67576770472f\n\n    auxdata: 0xa2646970667358221220cc50976b0df94dd12a9ee7c6a94e938982609508a82e8eb79645b7b724f3580e64736f6c634300081a0033\n}\n",
				"bytecode": {
					"linkReferences": {},
					"object": "608060405234801561000f575f80fd5b5060405161221738038061221783398101604081905261002e9161026b565b336040518060400160405280600e81526020016d457570686f72696120416c62756d60901b8152506040518060400160405280600381526020016254454160e81b815250815f90816100809190610351565b50600161008d8282610351565b5050506001600160a01b0381166100be57604051631e4fbdf760e01b81525f60048201526024015b60405180910390fd5b6100c7816100f6565b506100d28183610147565b6100ef73a39c821c6999acc27d71882b1ca49fddfa264cca61015d565b505061040b565b600680546001600160a01b038381166001600160a01b0319831681179093556040519116919082907f8be0079c531659141344cd1fd0a4f28419497f9722a3daafe3b4186f6b6457e0905f90a35050565b61014f61019a565b61015982826101c9565b5050565b61016561019a565b6001600160a01b03811661018e57604051631e4fbdf760e01b81525f60048201526024016100b5565b610197816100f6565b50565b6006546001600160a01b031633146101c75760405163118cdaa760e01b81523360048201526024016100b5565b565b6127106001600160601b03821681101561020857604051636f483d0960e01b81526001600160601b0383166004820152602481018290526044016100b5565b6001600160a01b03831661023157604051635b6cc80560e11b81525f60048201526024016100b5565b50604080518082019091526001600160a01b039092168083526001600160601b039091166020909201829052600160a01b90910217600755565b5f806040838503121561027c575f80fd5b82516001600160601b0381168114610292575f80fd5b60208401519092506001600160a01b03811681146102ae575f80fd5b809150509250929050565b634e487b7160e01b5f52604160045260245ffd5b600181811c908216806102e157607f821691505b6020821081036102ff57634e487b7160e01b5f52602260045260245ffd5b50919050565b601f82111561034c57805f5260205f20601f840160051c8101602085101561032a5750805b601f840160051c820191505b81811015610349575f8155600101610336565b50505b505050565b81516001600160401b0381111561036a5761036a6102b9565b61037e8161037884546102cd565b84610305565b6020601f8211600181146103b0575f83156103995750848201515b5f19600385901b1c1916600184901b178455610349565b5f84815260208120601f198516915b828110156103df57878501518255602094850194600190920191016103bf565b50848210156103fc57868401515f19600387901b60f8161c191681555b50505050600190811b01905550565b611dff806104185f395ff3fe608060405260043610610168575f3560e01c80636352211e116100c9578063b88d4fde11610078578063b88d4fde146103f1578063bb86759f14610410578063c87b56dd14610423578063d2bcdc6014610442578063e985e9c514610455578063f2fde38b14610474578063f3720cca14610493575f80fd5b80636352211e1461031e57806370a082311461033d578063715018a61461035c5780638da5cb5b1461037057806395d89b411461038d578063a22cb465146103a1578063a2e34586146103c0575f80fd5b806323b872dd1161012557806323b872dd1461024f578063293945b41461026e5780632a55205a14610283578063343e988c146102c1578063414e80291461026e57806342842e0e146102e057806357a2eda9146102ff575f80fd5b806301ffc9a71461016c57806302fa7c47146101a057806306fdde03146101c1578063081812fc146101e2578063095ea7b31461020e57806318160ddd1461022d575b5f80fd5b348015610177575f80fd5b5061018b61018636600461172e565b6104b2565b60405190151581526020015b60405180910390f35b3480156101ab575f80fd5b506101bf6101ba366004611764565b6104c2565b005b3480156101cc575f80fd5b506101d56104d8565b60405161019791906117d2565b3480156101ed575f80fd5b506102016101fc3660046117e4565b610567565b60405161019791906117fb565b348015610219575f80fd5b506101bf61022836600461180f565b61058e565b348015610238575f80fd5b50610241610599565b604051908152602001610197565b34801561025a575f80fd5b506101bf610269366004611837565b6105a8565b348015610279575f80fd5b506102416104e281565b34801561028e575f80fd5b506102a261029d366004611871565b61063a565b604080516001600160a01b039093168352602083019190915201610197565b3480156102cc575f80fd5b506102416102db366004611891565b6106e4565b3480156102eb575f80fd5b506101bf6102fa366004611837565b610732565b34801561030a575f80fd5b506101bf6103193660046117e4565b610751565b348015610329575f80fd5b506102016103383660046117e4565b6108df565b348015610348575f80fd5b506102416103573660046118bb565b6108e9565b348015610367575f80fd5b506101bf61092e565b34801561037b575f80fd5b506006546001600160a01b0316610201565b348015610398575f80fd5b506101d5610941565b3480156103ac575f80fd5b506101bf6103bb3660046118d4565b610950565b3480156103cb575f80fd5b506103df6103da3660046117e4565b61095b565b60405161019796959493929190611902565b3480156103fc575f80fd5b506101bf61040b3660046119d5565b610aa1565b6101bf61041e3660046117e4565b610ab8565b34801561042e575f80fd5b506101d561043d3660046117e4565b610b7f565b6101bf610450366004611871565b610be4565b348015610460575f80fd5b5061018b61046f366004611a4b565b610db0565b34801561047f575f80fd5b506101bf61048e3660046118bb565b610ddd565b34801561049e575f80fd5b506101bf6104ad366004611a91565b610e1a565b5f6104bc82610ecd565b92915050565b6104ca610ef1565b6104d48282610f1e565b5050565b60605f80546104e690611af4565b80601f016020809104026020016040519081016040528092919081815260200182805461051290611af4565b801561055d5780601f106105345761010080835404028352916020019161055d565b820191905f5260205f20905b81548152906001019060200180831161054057829003601f168201915b5050505050905090565b5f61057182610fc0565b505f828152600460205260409020546001600160a01b03166104bc565b6104d4828233610ff8565b5f6105a3600a5490565b905090565b6001600160a01b0382166105da575f604051633250574960e11b81526004016105d191906117fb565b60405180910390fd5b5f6105e6838333611005565b9050836001600160a01b0316816001600160a01b031614610634576040516364283d7b60e01b81526001600160a01b03808616600483015260248201849052821660448201526064016105d1565b50505050565b5f8281526008602090815260408083208151808301909252546001600160a01b038116808352600160a01b9091046001600160601b03169282019290925282916106ae5750604080518082019091526007546001600160a01b0381168252600160a01b90046001600160601b031660208201525b60208101515f90612710906106cc906001600160601b031687611b40565b6106d69190611b57565b915196919550909350505050565b5f8281526009602090815260408083206001600160a01b0385168452600681019092528220546104e261071f82670de0b6b3a7640000611b40565b6107299190611b57565b95945050505050565b61074c83838360405180602001604052805f815250610aa1565b505050565b5f8181526009602090815260408083203384526006810190925290912054806107cc5760405162461bcd60e51b815260206004820152602760248201527f596f7520646f206e6f74206f776e20616e7920736861726573206f66207468696044820152667320747261636b60c81b60648201526084016105d1565b5f6107d784336106e4565b90505f670de0b6b3a76400008285600501546107f39190611b40565b6107fd9190611b57565b90505f811161085a5760405162461bcd60e51b815260206004820152602360248201527f4e6f20726f79616c747920617661696c61626c6520666f7220776974686472616044820152621dd85b60ea1b60648201526084016105d1565b80846005015f82825461086d9190611b76565b9091555050604051339082156108fc029083905f818181858888f1935050505015801561089c573d5f803e3d5ffd5b507fd6ce75900eecaacadb4848f3b1a4e89cba8434d748d82adab2caf1bf248b5d178533836040516108d093929190611b89565b60405180910390a15050505050565b5f6104bc82610fc0565b5f6001600160a01b038216610913575f6040516322718ad960e21b81526004016105d191906117fb565b506001600160a01b03165f9081526003602052604090205490565b610936610ef1565b61093f5f6110f7565b565b6060600180546104e690611af4565b6104d4338383611148565b60096020525f908152604090208054819061097590611af4565b80601f01602080910402602001604051908101604052809291908181526020018280546109a190611af4565b80156109ec5780601f106109c3576101008083540402835291602001916109ec565b820191905f5260205f20905b8154815290600101906020018083116109cf57829003601f168201915b505050505090806001018054610a0190611af4565b80601f0160208091040260200160405190810160405280929190818152602001828054610a2d90611af4565b8015610a785780601f10610a4f57610100808354040283529160200191610a78565b820191905f5260205f20905b815481529060010190602001808311610a5b57829003601f168201915b5050506002840154600385015460048601546005909601549495919490935060ff909116915086565b610aac8484846105a8565b610634848484846111dd565b610ac0610ef1565b5f81815260096020526040902034610b2b5760405162461bcd60e51b815260206004820152602860248201527f526f79616c747920616d6f756e74206d7573742062652067726561746572207460448201526768616e207a65726f60c01b60648201526084016105d1565b34816005015f828254610b3e9190611ba8565b9091555050604080518381523460208201527fe03872bdffa6568df2cc485cf9f211d60a716c99c5633e1edc87102d16112500910160405180910390a15050565b6060610b8a82610fc0565b505f610b946112f1565b90505f815111610bb25760405180602001604052805f815250610bdd565b80610bbc84611311565b604051602001610bcd929190611bd2565b6040516020818303038152906040525b9392505050565b5f828152600960205260409020600481015460ff16610c3b5760405162461bcd60e51b8152602060048201526013602482015272547261636b206e6f7420617661696c61626c6560681b60448201526064016105d1565b5f82118015610c4e575080600301548211155b610c945760405162461bcd60e51b8152602060048201526017602482015276496e76616c6964206e756d626572206f6673686172657360481b60448201526064016105d1565b6002810154610ca39083611b40565b610cb490662386f26fc10000611b40565b341015610cfa5760405162461bcd60e51b8152602060048201526014602482015273125b9cdd59999a58da595b9d081c185e5b595b9d60621b60448201526064016105d1565b335f90815260068201602052604081208054849290610d1a908490611ba8565b9250508190555081816003015f828254610d349190611b76565b90915550506006546040516001600160a01b03909116903480156108fc02915f818181858888f19350505050158015610d6f573d5f803e3d5ffd5b507fa5afafc7c052a234f91512f360beeb7b6db7a0692bbd017ab5632d80a03a4bc0833384604051610da393929190611b89565b60405180910390a1505050565b6001600160a01b039182165f90815260056020908152604080832093909416825291909152205460ff1690565b610de5610ef1565b6001600160a01b038116610e0e575f604051631e4fbdf760e01b81526004016105d191906117fb565b610e17816110f7565b50565b610e22610ef1565b5f610e2c600a5490565b9050610e3833826113a0565b5f81815260096020526040902080610e508582611c2a565b5060018101610e5f8482611c2a565b506104e260028201819055600382015560048101805460ff19166001179055610e8c600a80546001019055565b7f21579433a032855e20e8afc48e980ddae0b6285e4aa03370f03192be12bea28b828585604051610ebf93929190611ce4565b60405180910390a150505050565b5f6001600160e01b0319821663152a902d60e11b14806104bc57506104bc826113b9565b6006546001600160a01b0316331461093f573360405163118cdaa760e01b81526004016105d191906117fb565b6127106001600160601b038216811015610f5d57604051636f483d0960e01b81526001600160601b0383166004820152602481018290526044016105d1565b6001600160a01b038316610f86575f604051635b6cc80560e11b81526004016105d191906117fb565b50604080518082019091526001600160a01b039092168083526001600160601b039091166020909201829052600160a01b90910217600755565b5f818152600260205260408120546001600160a01b0316806104bc57604051637e27328960e01b8152600481018490526024016105d1565b61074c8383836001611408565b5f828152600260205260408120546001600160a01b039081169083161561103157611031818486611503565b6001600160a01b0381161561106b5761104c5f855f80611408565b6001600160a01b0381165f90815260036020526040902080545f190190555b6001600160a01b03851615611099576001600160a01b0385165f908152600360205260409020805460010190555b5f8481526002602052604080822080546001600160a01b0319166001600160a01b0389811691821790925591518793918516917fddf252ad1be2c89b69c2b068fc378daa952ba7f163c4a11628f55a4df523b3ef91a4949350505050565b600680546001600160a01b038381166001600160a01b0319831681179093556040519116919082907f8be0079c531659141344cd1fd0a4f28419497f9722a3daafe3b4186f6b6457e0905f90a35050565b6001600160a01b0382166111715781604051630b61174360e31b81526004016105d191906117fb565b6001600160a01b038381165f81815260056020908152604080832094871680845294825291829020805460ff191686151590811790915591519182527f17307eab39ab6107e8899845ad3d59bd9653f200f220920489ca2b5937696c31910160405180910390a3505050565b6001600160a01b0383163b1561063457604051630a85bd0160e11b81526001600160a01b0384169063150b7a029061121f903390889087908790600401611d18565b6020604051808303815f875af1925050508015611259575060408051601f3d908101601f1916820190925261125691810190611d4a565b60015b6112b7573d808015611286576040519150601f19603f3d011682016040523d82523d5f602084013e61128b565b606091505b5080515f036112af5783604051633250574960e11b81526004016105d191906117fb565b805181602001fd5b6001600160e01b03198116630a85bd0160e11b146112ea5783604051633250574960e11b81526004016105d191906117fb565b5050505050565b60606040518060a0016040528060648152602001611d6660649139905090565b60605f61131d83611567565b60010190505f816001600160401b0381111561133b5761133b61194c565b6040519080825280601f01601f191660200182016040528015611365576020820181803683370190505b5090508181016020015b5f19016f181899199a1a9b1b9c1cb0b131b232b360811b600a86061a8153600a850494508461136f57509392505050565b6104d4828260405180602001604052805f81525061163e565b5f6001600160e01b031982166380ac58cd60e01b14806113e957506001600160e01b03198216635b5e139f60e01b145b806104bc57506301ffc9a760e01b6001600160e01b03198316146104bc565b808061141c57506001600160a01b03821615155b156114d4575f61142b84610fc0565b90506001600160a01b038316158015906114575750826001600160a01b0316816001600160a01b031614155b801561146a57506114688184610db0565b155b1561148a578260405163a9fbf51f60e01b81526004016105d191906117fb565b81156114d25783856001600160a01b0316826001600160a01b03167f8c5be1e5ebec7d5bd14f71427d1e84f3dd0314c0f7b2291e5b200ac8c7c3b92560405160405180910390a45b505b50505f90815260046020526040902080546001600160a01b0319166001600160a01b0392909216919091179055565b61150e838383611654565b61074c576001600160a01b03831661153c57604051637e27328960e01b8152600481018290526024016105d1565b60405163177e802f60e01b81526001600160a01b0383166004820152602481018290526044016105d1565b5f8072184f03e93ff9f4daa797ed6e38ed64bf6a1f0160401b83106115a55772184f03e93ff9f4daa797ed6e38ed64bf6a1f0160401b830492506040015b6d04ee2d6d415b85acef810000000083106115d1576d04ee2d6d415b85acef8100000000830492506020015b662386f26fc1000083106115ef57662386f26fc10000830492506010015b6305f5e1008310611607576305f5e100830492506008015b612710831061161b57612710830492506004015b6064831061162d576064830492506002015b600a83106104bc5760010192915050565b61164883836116b8565b61074c5f8484846111dd565b5f6001600160a01b038316158015906116b05750826001600160a01b0316846001600160a01b0316148061168d575061168d8484610db0565b806116b057505f828152600460205260409020546001600160a01b038481169116145b949350505050565b6001600160a01b0382166116e1575f604051633250574960e11b81526004016105d191906117fb565b5f6116ed83835f611005565b90506001600160a01b0381161561074c575f6040516339e3563760e11b81526004016105d191906117fb565b6001600160e01b031981168114610e17575f80fd5b5f6020828403121561173e575f80fd5b8135610bdd81611719565b80356001600160a01b038116811461175f575f80fd5b919050565b5f8060408385031215611775575f80fd5b61177e83611749565b915060208301356001600160601b0381168114611799575f80fd5b809150509250929050565b5f81518084528060208401602086015e5f602082860101526020601f19601f83011685010191505092915050565b602081525f610bdd60208301846117a4565b5f602082840312156117f4575f80fd5b5035919050565b6001600160a01b0391909116815260200190565b5f8060408385031215611820575f80fd5b61182983611749565b946020939093013593505050565b5f805f60608486031215611849575f80fd5b61185284611749565b925061186060208501611749565b929592945050506040919091013590565b5f8060408385031215611882575f80fd5b50508035926020909101359150565b5f80604083850312156118a2575f80fd5b823591506118b260208401611749565b90509250929050565b5f602082840312156118cb575f80fd5b610bdd82611749565b5f80604083850312156118e5575f80fd5b6118ee83611749565b915060208301358015158114611799575f80fd5b60c081525f61191460c08301896117a4565b828103602084015261192681896117a4565b604084019790975250506060810193909352901515608083015260a09091015292915050565b634e487b7160e01b5f52604160045260245ffd5b5f806001600160401b038411156119795761197961194c565b50604051601f19601f85018116603f011681018181106001600160401b03821117156119a7576119a761194c565b6040528381529050808284018510156119be575f80fd5b838360208301375f60208583010152509392505050565b5f805f80608085870312156119e8575f80fd5b6119f185611749565b93506119ff60208601611749565b92506040850135915060608501356001600160401b03811115611a20575f80fd5b8501601f81018713611a30575f80fd5b611a3f87823560208401611960565b91505092959194509250565b5f8060408385031215611a5c575f80fd5b611a6583611749565b91506118b260208401611749565b5f82601f830112611a82575f80fd5b610bdd83833560208501611960565b5f8060408385031215611aa2575f80fd5b82356001600160401b03811115611ab7575f80fd5b611ac385828601611a73565b92505060208301356001600160401b03811115611ade575f80fd5b611aea85828601611a73565b9150509250929050565b600181811c90821680611b0857607f821691505b602082108103611b2657634e487b7160e01b5f52602260045260245ffd5b50919050565b634e487b7160e01b5f52601160045260245ffd5b80820281158282048414176104bc576104bc611b2c565b5f82611b7157634e487b7160e01b5f52601260045260245ffd5b500490565b818103818111156104bc576104bc611b2c565b9283526001600160a01b03919091166020830152604082015260600190565b808201808211156104bc576104bc611b2c565b5f81518060208401855e5f93019283525090919050565b5f6116b0611be08386611bbb565b84611bbb565b601f82111561074c57805f5260205f20601f840160051c81016020851015611c0b5750805b601f840160051c820191505b818110156112ea575f8155600101611c17565b81516001600160401b03811115611c4357611c4361194c565b611c5781611c518454611af4565b84611be6565b6020601f821160018114611c89575f8315611c725750848201515b5f19600385901b1c1916600184901b1784556112ea565b5f84815260208120601f198516915b82811015611cb85787850151825560209485019460019092019101611c98565b5084821015611cd557868401515f19600387901b60f8161c191681555b50505050600190811b01905550565b838152606060208201525f611cfc60608301856117a4565b8281036040840152611d0e81856117a4565b9695505050505050565b6001600160a01b03858116825284166020820152604081018390526080606082018190525f90611d0e908301846117a4565b5f60208284031215611d5a575f80fd5b8151610bdd8161171956fe68747470733a2f2f696e686572656e742d736361726c65742d746172736965722e6d7966696c65626173652e636f6d2f697066732f516d5035674e44766f5245477859345842547468413933733436595775333459656b3569733650677a67576770472fa2646970667358221220cc50976b0df94dd12a9ee7c6a94e938982609508a82e8eb79645b7b724f3580e64736f6c634300081a0033",
					"opcodes": "PUSH1 0x80 PUSH1 0x40 MSTORE CALLVALUE DUP1 ISZERO PUSH2 0xF JUMPI PUSH0 DUP1 REVERT JUMPDEST POP PUSH1 0x40 MLOAD PUSH2 0x2217 CODESIZE SUB DUP1 PUSH2 0x2217 DUP4 CODECOPY DUP2 ADD PUSH1 0x40 DUP2 SWAP1 MSTORE PUSH2 0x2E SWAP2 PUSH2 0x26B JUMP JUMPDEST CALLER PUSH1 0x40 MLOAD DUP1 PUSH1 0x40 ADD PUSH1 0x40 MSTORE DUP1 PUSH1 0xE DUP2 MSTORE PUSH1 0x20 ADD PUSH14 0x457570686F72696120416C62756D PUSH1 0x90 SHL DUP2 MSTORE POP PUSH1 0x40 MLOAD DUP1 PUSH1 0x40 ADD PUSH1 0x40 MSTORE DUP1 PUSH1 0x3 DUP2 MSTORE PUSH1 0x20 ADD PUSH3 0x544541 PUSH1 0xE8 SHL DUP2 MSTORE POP DUP2 PUSH0 SWAP1 DUP2 PUSH2 0x80 SWAP2 SWAP1 PUSH2 0x351 JUMP JUMPDEST POP PUSH1 0x1 PUSH2 0x8D DUP3 DUP3 PUSH2 0x351 JUMP JUMPDEST POP POP POP PUSH1 0x1 PUSH1 0x1 PUSH1 0xA0 SHL SUB DUP2 AND PUSH2 0xBE JUMPI PUSH1 0x40 MLOAD PUSH4 0x1E4FBDF7 PUSH1 0xE0 SHL DUP2 MSTORE PUSH0 PUSH1 0x4 DUP3 ADD MSTORE PUSH1 0x24 ADD JUMPDEST PUSH1 0x40 MLOAD DUP1 SWAP2 SUB SWAP1 REVERT JUMPDEST PUSH2 0xC7 DUP2 PUSH2 0xF6 JUMP JUMPDEST POP PUSH2 0xD2 DUP2 DUP4 PUSH2 0x147 JUMP JUMPDEST PUSH2 0xEF PUSH20 0xA39C821C6999ACC27D71882B1CA49FDDFA264CCA PUSH2 0x15D JUMP JUMPDEST POP POP PUSH2 0x40B JUMP JUMPDEST PUSH1 0x6 DUP1 SLOAD PUSH1 0x1 PUSH1 0x1 PUSH1 0xA0 SHL SUB DUP4 DUP2 AND PUSH1 0x1 PUSH1 0x1 PUSH1 0xA0 SHL SUB NOT DUP4 AND DUP2 OR SWAP1 SWAP4 SSTORE PUSH1 0x40 MLOAD SWAP2 AND SWAP2 SWAP1 DUP3 SWAP1 PUSH32 0x8BE0079C531659141344CD1FD0A4F28419497F9722A3DAAFE3B4186F6B6457E0 SWAP1 PUSH0 SWAP1 LOG3 POP POP JUMP JUMPDEST PUSH2 0x14F PUSH2 0x19A JUMP JUMPDEST PUSH2 0x159 DUP3 DUP3 PUSH2 0x1C9 JUMP JUMPDEST POP POP JUMP JUMPDEST PUSH2 0x165 PUSH2 0x19A JUMP JUMPDEST PUSH1 0x1 PUSH1 0x1 PUSH1 0xA0 SHL SUB DUP2 AND PUSH2 0x18E JUMPI PUSH1 0x40 MLOAD PUSH4 0x1E4FBDF7 PUSH1 0xE0 SHL DUP2 MSTORE PUSH0 PUSH1 0x4 DUP3 ADD MSTORE PUSH1 0x24 ADD PUSH2 0xB5 JUMP JUMPDEST PUSH2 0x197 DUP2 PUSH2 0xF6 JUMP JUMPDEST POP JUMP JUMPDEST PUSH1 0x6 SLOAD PUSH1 0x1 PUSH1 0x1 PUSH1 0xA0 SHL SUB AND CALLER EQ PUSH2 0x1C7 JUMPI PUSH1 0x40 MLOAD PUSH4 0x118CDAA7 PUSH1 0xE0 SHL DUP2 MSTORE CALLER PUSH1 0x4 DUP3 ADD MSTORE PUSH1 0x24 ADD PUSH2 0xB5 JUMP JUMPDEST JUMP JUMPDEST PUSH2 0x2710 PUSH1 0x1 PUSH1 0x1 PUSH1 0x60 SHL SUB DUP3 AND DUP2 LT ISZERO PUSH2 0x208 JUMPI PUSH1 0x40 MLOAD PUSH4 0x6F483D09 PUSH1 0xE0 SHL DUP2 MSTORE PUSH1 0x1 PUSH1 0x1 PUSH1 0x60 SHL SUB DUP4 AND PUSH1 0x4 DUP3 ADD MSTORE PUSH1 0x24 DUP2 ADD DUP3 SWAP1 MSTORE PUSH1 0x44 ADD PUSH2 0xB5 JUMP JUMPDEST PUSH1 0x1 PUSH1 0x1 PUSH1 0xA0 SHL SUB DUP4 AND PUSH2 0x231 JUMPI PUSH1 0x40 MLOAD PUSH4 0x5B6CC805 PUSH1 0xE1 SHL DUP2 MSTORE PUSH0 PUSH1 0x4 DUP3 ADD MSTORE PUSH1 0x24 ADD PUSH2 0xB5 JUMP JUMPDEST POP PUSH1 0x40 DUP1 MLOAD DUP1 DUP3 ADD SWAP1 SWAP2 MSTORE PUSH1 0x1 PUSH1 0x1 PUSH1 0xA0 SHL SUB SWAP1 SWAP3 AND DUP1 DUP4 MSTORE PUSH1 0x1 PUSH1 0x1 PUSH1 0x60 SHL SUB SWAP1 SWAP2 AND PUSH1 0x20 SWAP1 SWAP3 ADD DUP3 SWAP1 MSTORE PUSH1 0x1 PUSH1 0xA0 SHL SWAP1 SWAP2 MUL OR PUSH1 0x7 SSTORE JUMP JUMPDEST PUSH0 DUP1 PUSH1 0x40 DUP4 DUP6 SUB SLT ISZERO PUSH2 0x27C JUMPI PUSH0 DUP1 REVERT JUMPDEST DUP3 MLOAD PUSH1 0x1 PUSH1 0x1 PUSH1 0x60 SHL SUB DUP2 AND DUP2 EQ PUSH2 0x292 JUMPI PUSH0 DUP1 REVERT JUMPDEST PUSH1 0x20 DUP5 ADD MLOAD SWAP1 SWAP3 POP PUSH1 0x1 PUSH1 0x1 PUSH1 0xA0 SHL SUB DUP2 AND DUP2 EQ PUSH2 0x2AE JUMPI PUSH0 DUP1 REVERT JUMPDEST DUP1 SWAP2 POP POP SWAP3 POP SWAP3 SWAP1 POP JUMP JUMPDEST PUSH4 0x4E487B71 PUSH1 0xE0 SHL PUSH0 MSTORE PUSH1 0x41 PUSH1 0x4 MSTORE PUSH1 0x24 PUSH0 REVERT JUMPDEST PUSH1 0x1 DUP2 DUP2 SHR SWAP1 DUP3 AND DUP1 PUSH2 0x2E1 JUMPI PUSH1 0x7F DUP3 AND SWAP2 POP JUMPDEST PUSH1 0x20 DUP3 LT DUP2 SUB PUSH2 0x2FF JUMPI PUSH4 0x4E487B71 PUSH1 0xE0 SHL PUSH0 MSTORE PUSH1 0x22 PUSH1 0x4 MSTORE PUSH1 0x24 PUSH0 REVERT JUMPDEST POP SWAP2 SWAP1 POP JUMP JUMPDEST PUSH1 0x1F DUP3 GT ISZERO PUSH2 0x34C JUMPI DUP1 PUSH0 MSTORE PUSH1 0x20 PUSH0 KECCAK256 PUSH1 0x1F DUP5 ADD PUSH1 0x5 SHR DUP2 ADD PUSH1 0x20 DUP6 LT ISZERO PUSH2 0x32A JUMPI POP DUP1 JUMPDEST PUSH1 0x1F DUP5 ADD PUSH1 0x5 SHR DUP3 ADD SWAP2 POP JUMPDEST DUP2 DUP2 LT ISZERO PUSH2 0x349 JUMPI PUSH0 DUP2 SSTORE PUSH1 0x1 ADD PUSH2 0x336 JUMP JUMPDEST POP POP JUMPDEST POP POP POP JUMP JUMPDEST DUP2 MLOAD PUSH1 0x1 PUSH1 0x1 PUSH1 0x40 SHL SUB DUP2 GT ISZERO PUSH2 0x36A JUMPI PUSH2 0x36A PUSH2 0x2B9 JUMP JUMPDEST PUSH2 0x37E DUP2 PUSH2 0x378 DUP5 SLOAD PUSH2 0x2CD JUMP JUMPDEST DUP5 PUSH2 0x305 JUMP JUMPDEST PUSH1 0x20 PUSH1 0x1F DUP3 GT PUSH1 0x1 DUP2 EQ PUSH2 0x3B0 JUMPI PUSH0 DUP4 ISZERO PUSH2 0x399 JUMPI POP DUP5 DUP3 ADD MLOAD JUMPDEST PUSH0 NOT PUSH1 0x3 DUP6 SWAP1 SHL SHR NOT AND PUSH1 0x1 DUP5 SWAP1 SHL OR DUP5 SSTORE PUSH2 0x349 JUMP JUMPDEST PUSH0 DUP5 DUP2 MSTORE PUSH1 0x20 DUP2 KECCAK256 PUSH1 0x1F NOT DUP6 AND SWAP2 JUMPDEST DUP3 DUP2 LT ISZERO PUSH2 0x3DF JUMPI DUP8 DUP6 ADD MLOAD DUP3 SSTORE PUSH1 0x20 SWAP5 DUP6 ADD SWAP5 PUSH1 0x1 SWAP1 SWAP3 ADD SWAP2 ADD PUSH2 0x3BF JUMP JUMPDEST POP DUP5 DUP3 LT ISZERO PUSH2 0x3FC JUMPI DUP7 DUP5 ADD MLOAD PUSH0 NOT PUSH1 0x3 DUP8 SWAP1 SHL PUSH1 0xF8 AND SHR NOT AND DUP2 SSTORE JUMPDEST POP POP POP POP PUSH1 0x1 SWAP1 DUP2 SHL ADD SWAP1 SSTORE POP JUMP JUMPDEST PUSH2 0x1DFF DUP1 PUSH2 0x418 PUSH0 CODECOPY PUSH0 RETURN INVALID PUSH1 0x80 PUSH1 0x40 MSTORE PUSH1 0x4 CALLDATASIZE LT PUSH2 0x168 JUMPI PUSH0 CALLDATALOAD PUSH1 0xE0 SHR DUP1 PUSH4 0x6352211E GT PUSH2 0xC9 JUMPI DUP1 PUSH4 0xB88D4FDE GT PUSH2 0x78 JUMPI DUP1 PUSH4 0xB88D4FDE EQ PUSH2 0x3F1 JUMPI DUP1 PUSH4 0xBB86759F EQ PUSH2 0x410 JUMPI DUP1 PUSH4 0xC87B56DD EQ PUSH2 0x423 JUMPI DUP1 PUSH4 0xD2BCDC60 EQ PUSH2 0x442 JUMPI DUP1 PUSH4 0xE985E9C5 EQ PUSH2 0x455 JUMPI DUP1 PUSH4 0xF2FDE38B EQ PUSH2 0x474 JUMPI DUP1 PUSH4 0xF3720CCA EQ PUSH2 0x493 JUMPI PUSH0 DUP1 REVERT JUMPDEST DUP1 PUSH4 0x6352211E EQ PUSH2 0x31E JUMPI DUP1 PUSH4 0x70A08231 EQ PUSH2 0x33D JUMPI DUP1 PUSH4 0x715018A6 EQ PUSH2 0x35C JUMPI DUP1 PUSH4 0x8DA5CB5B EQ PUSH2 0x370 JUMPI DUP1 PUSH4 0x95D89B41 EQ PUSH2 0x38D JUMPI DUP1 PUSH4 0xA22CB465 EQ PUSH2 0x3A1 JUMPI DUP1 PUSH4 0xA2E34586 EQ PUSH2 0x3C0 JUMPI PUSH0 DUP1 REVERT JUMPDEST DUP1 PUSH4 0x23B872DD GT PUSH2 0x125 JUMPI DUP1 PUSH4 0x23B872DD EQ PUSH2 0x24F JUMPI DUP1 PUSH4 0x293945B4 EQ PUSH2 0x26E JUMPI DUP1 PUSH4 0x2A55205A EQ PUSH2 0x283 JUMPI DUP1 PUSH4 0x343E988C EQ PUSH2 0x2C1 JUMPI DUP1 PUSH4 0x414E8029 EQ PUSH2 0x26E JUMPI DUP1 PUSH4 0x42842E0E EQ PUSH2 0x2E0 JUMPI DUP1 PUSH4 0x57A2EDA9 EQ PUSH2 0x2FF JUMPI PUSH0 DUP1 REVERT JUMPDEST DUP1 PUSH4 0x1FFC9A7 EQ PUSH2 0x16C JUMPI DUP1 PUSH4 0x2FA7C47 EQ PUSH2 0x1A0 JUMPI DUP1 PUSH4 0x6FDDE03 EQ PUSH2 0x1C1 JUMPI DUP1 PUSH4 0x81812FC EQ PUSH2 0x1E2 JUMPI DUP1 PUSH4 0x95EA7B3 EQ PUSH2 0x20E JUMPI DUP1 PUSH4 0x18160DDD EQ PUSH2 0x22D JUMPI JUMPDEST PUSH0 DUP1 REVERT JUMPDEST CALLVALUE DUP1 ISZERO PUSH2 0x177 JUMPI PUSH0 DUP1 REVERT JUMPDEST POP PUSH2 0x18B PUSH2 0x186 CALLDATASIZE PUSH1 0x4 PUSH2 0x172E JUMP JUMPDEST PUSH2 0x4B2 JUMP JUMPDEST PUSH1 0x40 MLOAD SWAP1 ISZERO ISZERO DUP2 MSTORE PUSH1 0x20 ADD JUMPDEST PUSH1 0x40 MLOAD DUP1 SWAP2 SUB SWAP1 RETURN JUMPDEST CALLVALUE DUP1 ISZERO PUSH2 0x1AB JUMPI PUSH0 DUP1 REVERT JUMPDEST POP PUSH2 0x1BF PUSH2 0x1BA CALLDATASIZE PUSH1 0x4 PUSH2 0x1764 JUMP JUMPDEST PUSH2 0x4C2 JUMP JUMPDEST STOP JUMPDEST CALLVALUE DUP1 ISZERO PUSH2 0x1CC JUMPI PUSH0 DUP1 REVERT JUMPDEST POP PUSH2 0x1D5 PUSH2 0x4D8 JUMP JUMPDEST PUSH1 0x40 MLOAD PUSH2 0x197 SWAP2 SWAP1 PUSH2 0x17D2 JUMP JUMPDEST CALLVALUE DUP1 ISZERO PUSH2 0x1ED JUMPI PUSH0 DUP1 REVERT JUMPDEST POP PUSH2 0x201 PUSH2 0x1FC CALLDATASIZE PUSH1 0x4 PUSH2 0x17E4 JUMP JUMPDEST PUSH2 0x567 JUMP JUMPDEST PUSH1 0x40 MLOAD PUSH2 0x197 SWAP2 SWAP1 PUSH2 0x17FB JUMP JUMPDEST CALLVALUE DUP1 ISZERO PUSH2 0x219 JUMPI PUSH0 DUP1 REVERT JUMPDEST POP PUSH2 0x1BF PUSH2 0x228 CALLDATASIZE PUSH1 0x4 PUSH2 0x180F JUMP JUMPDEST PUSH2 0x58E JUMP JUMPDEST CALLVALUE DUP1 ISZERO PUSH2 0x238 JUMPI PUSH0 DUP1 REVERT JUMPDEST POP PUSH2 0x241 PUSH2 0x599 JUMP JUMPDEST PUSH1 0x40 MLOAD SWAP1 DUP2 MSTORE PUSH1 0x20 ADD PUSH2 0x197 JUMP JUMPDEST CALLVALUE DUP1 ISZERO PUSH2 0x25A JUMPI PUSH0 DUP1 REVERT JUMPDEST POP PUSH2 0x1BF PUSH2 0x269 CALLDATASIZE PUSH1 0x4 PUSH2 0x1837 JUMP JUMPDEST PUSH2 0x5A8 JUMP JUMPDEST CALLVALUE DUP1 ISZERO PUSH2 0x279 JUMPI PUSH0 DUP1 REVERT JUMPDEST POP PUSH2 0x241 PUSH2 0x4E2 DUP2 JUMP JUMPDEST CALLVALUE DUP1 ISZERO PUSH2 0x28E JUMPI PUSH0 DUP1 REVERT JUMPDEST POP PUSH2 0x2A2 PUSH2 0x29D CALLDATASIZE PUSH1 0x4 PUSH2 0x1871 JUMP JUMPDEST PUSH2 0x63A JUMP JUMPDEST PUSH1 0x40 DUP1 MLOAD PUSH1 0x1 PUSH1 0x1 PUSH1 0xA0 SHL SUB SWAP1 SWAP4 AND DUP4 MSTORE PUSH1 0x20 DUP4 ADD SWAP2 SWAP1 SWAP2 MSTORE ADD PUSH2 0x197 JUMP JUMPDEST CALLVALUE DUP1 ISZERO PUSH2 0x2CC JUMPI PUSH0 DUP1 REVERT JUMPDEST POP PUSH2 0x241 PUSH2 0x2DB CALLDATASIZE PUSH1 0x4 PUSH2 0x1891 JUMP JUMPDEST PUSH2 0x6E4 JUMP JUMPDEST CALLVALUE DUP1 ISZERO PUSH2 0x2EB JUMPI PUSH0 DUP1 REVERT JUMPDEST POP PUSH2 0x1BF PUSH2 0x2FA CALLDATASIZE PUSH1 0x4 PUSH2 0x1837 JUMP JUMPDEST PUSH2 0x732 JUMP JUMPDEST CALLVALUE DUP1 ISZERO PUSH2 0x30A JUMPI PUSH0 DUP1 REVERT JUMPDEST POP PUSH2 0x1BF PUSH2 0x319 CALLDATASIZE PUSH1 0x4 PUSH2 0x17E4 JUMP JUMPDEST PUSH2 0x751 JUMP JUMPDEST CALLVALUE DUP1 ISZERO PUSH2 0x329 JUMPI PUSH0 DUP1 REVERT JUMPDEST POP PUSH2 0x201 PUSH2 0x338 CALLDATASIZE PUSH1 0x4 PUSH2 0x17E4 JUMP JUMPDEST PUSH2 0x8DF JUMP JUMPDEST CALLVALUE DUP1 ISZERO PUSH2 0x348 JUMPI PUSH0 DUP1 REVERT JUMPDEST POP PUSH2 0x241 PUSH2 0x357 CALLDATASIZE PUSH1 0x4 PUSH2 0x18BB JUMP JUMPDEST PUSH2 0x8E9 JUMP JUMPDEST CALLVALUE DUP1 ISZERO PUSH2 0x367 JUMPI PUSH0 DUP1 REVERT JUMPDEST POP PUSH2 0x1BF PUSH2 0x92E JUMP JUMPDEST CALLVALUE DUP1 ISZERO PUSH2 0x37B JUMPI PUSH0 DUP1 REVERT JUMPDEST POP PUSH1 0x6 SLOAD PUSH1 0x1 PUSH1 0x1 PUSH1 0xA0 SHL SUB AND PUSH2 0x201 JUMP JUMPDEST CALLVALUE DUP1 ISZERO PUSH2 0x398 JUMPI PUSH0 DUP1 REVERT JUMPDEST POP PUSH2 0x1D5 PUSH2 0x941 JUMP JUMPDEST CALLVALUE DUP1 ISZERO PUSH2 0x3AC JUMPI PUSH0 DUP1 REVERT JUMPDEST POP PUSH2 0x1BF PUSH2 0x3BB CALLDATASIZE PUSH1 0x4 PUSH2 0x18D4 JUMP JUMPDEST PUSH2 0x950 JUMP JUMPDEST CALLVALUE DUP1 ISZERO PUSH2 0x3CB JUMPI PUSH0 DUP1 REVERT JUMPDEST POP PUSH2 0x3DF PUSH2 0x3DA CALLDATASIZE PUSH1 0x4 PUSH2 0x17E4 JUMP JUMPDEST PUSH2 0x95B JUMP JUMPDEST PUSH1 0x40 MLOAD PUSH2 0x197 SWAP7 SWAP6 SWAP5 SWAP4 SWAP3 SWAP2 SWAP1 PUSH2 0x1902 JUMP JUMPDEST CALLVALUE DUP1 ISZERO PUSH2 0x3FC JUMPI PUSH0 DUP1 REVERT JUMPDEST POP PUSH2 0x1BF PUSH2 0x40B CALLDATASIZE PUSH1 0x4 PUSH2 0x19D5 JUMP JUMPDEST PUSH2 0xAA1 JUMP JUMPDEST PUSH2 0x1BF PUSH2 0x41E CALLDATASIZE PUSH1 0x4 PUSH2 0x17E4 JUMP JUMPDEST PUSH2 0xAB8 JUMP JUMPDEST CALLVALUE DUP1 ISZERO PUSH2 0x42E JUMPI PUSH0 DUP1 REVERT JUMPDEST POP PUSH2 0x1D5 PUSH2 0x43D CALLDATASIZE PUSH1 0x4 PUSH2 0x17E4 JUMP JUMPDEST PUSH2 0xB7F JUMP JUMPDEST PUSH2 0x1BF PUSH2 0x450 CALLDATASIZE PUSH1 0x4 PUSH2 0x1871 JUMP JUMPDEST PUSH2 0xBE4 JUMP JUMPDEST CALLVALUE DUP1 ISZERO PUSH2 0x460 JUMPI PUSH0 DUP1 REVERT JUMPDEST POP PUSH2 0x18B PUSH2 0x46F CALLDATASIZE PUSH1 0x4 PUSH2 0x1A4B JUMP JUMPDEST PUSH2 0xDB0 JUMP JUMPDEST CALLVALUE DUP1 ISZERO PUSH2 0x47F JUMPI PUSH0 DUP1 REVERT JUMPDEST POP PUSH2 0x1BF PUSH2 0x48E CALLDATASIZE PUSH1 0x4 PUSH2 0x18BB JUMP JUMPDEST PUSH2 0xDDD JUMP JUMPDEST CALLVALUE DUP1 ISZERO PUSH2 0x49E JUMPI PUSH0 DUP1 REVERT JUMPDEST POP PUSH2 0x1BF PUSH2 0x4AD CALLDATASIZE PUSH1 0x4 PUSH2 0x1A91 JUMP JUMPDEST PUSH2 0xE1A JUMP JUMPDEST PUSH0 PUSH2 0x4BC DUP3 PUSH2 0xECD JUMP JUMPDEST SWAP3 SWAP2 POP POP JUMP JUMPDEST PUSH2 0x4CA PUSH2 0xEF1 JUMP JUMPDEST PUSH2 0x4D4 DUP3 DUP3 PUSH2 0xF1E JUMP JUMPDEST POP POP JUMP JUMPDEST PUSH1 0x60 PUSH0 DUP1 SLOAD PUSH2 0x4E6 SWAP1 PUSH2 0x1AF4 JUMP JUMPDEST DUP1 PUSH1 0x1F ADD PUSH1 0x20 DUP1 SWAP2 DIV MUL PUSH1 0x20 ADD PUSH1 0x40 MLOAD SWAP1 DUP2 ADD PUSH1 0x40 MSTORE DUP1 SWAP3 SWAP2 SWAP1 DUP2 DUP2 MSTORE PUSH1 0x20 ADD DUP3 DUP1 SLOAD PUSH2 0x512 SWAP1 PUSH2 0x1AF4 JUMP JUMPDEST DUP1 ISZERO PUSH2 0x55D JUMPI DUP1 PUSH1 0x1F LT PUSH2 0x534 JUMPI PUSH2 0x100 DUP1 DUP4 SLOAD DIV MUL DUP4 MSTORE SWAP2 PUSH1 0x20 ADD SWAP2 PUSH2 0x55D JUMP JUMPDEST DUP3 ADD SWAP2 SWAP1 PUSH0 MSTORE PUSH1 0x20 PUSH0 KECCAK256 SWAP1 JUMPDEST DUP2 SLOAD DUP2 MSTORE SWAP1 PUSH1 0x1 ADD SWAP1 PUSH1 0x20 ADD DUP1 DUP4 GT PUSH2 0x540 JUMPI DUP3 SWAP1 SUB PUSH1 0x1F AND DUP3 ADD SWAP2 JUMPDEST POP POP POP POP POP SWAP1 POP SWAP1 JUMP JUMPDEST PUSH0 PUSH2 0x571 DUP3 PUSH2 0xFC0 JUMP JUMPDEST POP PUSH0 DUP3 DUP2 MSTORE PUSH1 0x4 PUSH1 0x20 MSTORE PUSH1 0x40 SWAP1 KECCAK256 SLOAD PUSH1 0x1 PUSH1 0x1 PUSH1 0xA0 SHL SUB AND PUSH2 0x4BC JUMP JUMPDEST PUSH2 0x4D4 DUP3 DUP3 CALLER PUSH2 0xFF8 JUMP JUMPDEST PUSH0 PUSH2 0x5A3 PUSH1 0xA SLOAD SWAP1 JUMP JUMPDEST SWAP1 POP SWAP1 JUMP JUMPDEST PUSH1 0x1 PUSH1 0x1 PUSH1 0xA0 SHL SUB DUP3 AND PUSH2 0x5DA JUMPI PUSH0 PUSH1 0x40 MLOAD PUSH4 0x32505749 PUSH1 0xE1 SHL DUP2 MSTORE PUSH1 0x4 ADD PUSH2 0x5D1 SWAP2 SWAP1 PUSH2 0x17FB JUMP JUMPDEST PUSH1 0x40 MLOAD DUP1 SWAP2 SUB SWAP1 REVERT JUMPDEST PUSH0 PUSH2 0x5E6 DUP4 DUP4 CALLER PUSH2 0x1005 JUMP JUMPDEST SWAP1 POP DUP4 PUSH1 0x1 PUSH1 0x1 PUSH1 0xA0 SHL SUB AND DUP2 PUSH1 0x1 PUSH1 0x1 PUSH1 0xA0 SHL SUB AND EQ PUSH2 0x634 JUMPI PUSH1 0x40 MLOAD PUSH4 0x64283D7B PUSH1 0xE0 SHL DUP2 MSTORE PUSH1 0x1 PUSH1 0x1 PUSH1 0xA0 SHL SUB DUP1 DUP7 AND PUSH1 0x4 DUP4 ADD MSTORE PUSH1 0x24 DUP3 ADD DUP5 SWAP1 MSTORE DUP3 AND PUSH1 0x44 DUP3 ADD MSTORE PUSH1 0x64 ADD PUSH2 0x5D1 JUMP JUMPDEST POP POP POP POP JUMP JUMPDEST PUSH0 DUP3 DUP2 MSTORE PUSH1 0x8 PUSH1 0x20 SWAP1 DUP2 MSTORE PUSH1 0x40 DUP1 DUP4 KECCAK256 DUP2 MLOAD DUP1 DUP4 ADD SWAP1 SWAP3 MSTORE SLOAD PUSH1 0x1 PUSH1 0x1 PUSH1 0xA0 SHL SUB DUP2 AND DUP1 DUP4 MSTORE PUSH1 0x1 PUSH1 0xA0 SHL SWAP1 SWAP2 DIV PUSH1 0x1 PUSH1 0x1 PUSH1 0x60 SHL SUB AND SWAP3 DUP3 ADD SWAP3 SWAP1 SWAP3 MSTORE DUP3 SWAP2 PUSH2 0x6AE JUMPI POP PUSH1 0x40 DUP1 MLOAD DUP1 DUP3 ADD SWAP1 SWAP2 MSTORE PUSH1 0x7 SLOAD PUSH1 0x1 PUSH1 0x1 PUSH1 0xA0 SHL SUB DUP2 AND DUP3 MSTORE PUSH1 0x1 PUSH1 0xA0 SHL SWAP1 DIV PUSH1 0x1 PUSH1 0x1 PUSH1 0x60 SHL SUB AND PUSH1 0x20 DUP3 ADD MSTORE JUMPDEST PUSH1 0x20 DUP2 ADD MLOAD PUSH0 SWAP1 PUSH2 0x2710 SWAP1 PUSH2 0x6CC SWAP1 PUSH1 0x1 PUSH1 0x1 PUSH1 0x60 SHL SUB AND DUP8 PUSH2 0x1B40 JUMP JUMPDEST PUSH2 0x6D6 SWAP2 SWAP1 PUSH2 0x1B57 JUMP JUMPDEST SWAP2 MLOAD SWAP7 SWAP2 SWAP6 POP SWAP1 SWAP4 POP POP POP POP JUMP JUMPDEST PUSH0 DUP3 DUP2 MSTORE PUSH1 0x9 PUSH1 0x20 SWAP1 DUP2 MSTORE PUSH1 0x40 DUP1 DUP4 KECCAK256 PUSH1 0x1 PUSH1 0x1 PUSH1 0xA0 SHL SUB DUP6 AND DUP5 MSTORE PUSH1 0x6 DUP2 ADD SWAP1 SWAP3 MSTORE DUP3 KECCAK256 SLOAD PUSH2 0x4E2 PUSH2 0x71F DUP3 PUSH8 0xDE0B6B3A7640000 PUSH2 0x1B40 JUMP JUMPDEST PUSH2 0x729 SWAP2 SWAP1 PUSH2 0x1B57 JUMP JUMPDEST SWAP6 SWAP5 POP POP POP POP POP JUMP JUMPDEST PUSH2 0x74C DUP4 DUP4 DUP4 PUSH1 0x40 MLOAD DUP1 PUSH1 0x20 ADD PUSH1 0x40 MSTORE DUP1 PUSH0 DUP2 MSTORE POP PUSH2 0xAA1 JUMP JUMPDEST POP POP POP JUMP JUMPDEST PUSH0 DUP2 DUP2 MSTORE PUSH1 0x9 PUSH1 0x20 SWAP1 DUP2 MSTORE PUSH1 0x40 DUP1 DUP4 KECCAK256 CALLER DUP5 MSTORE PUSH1 0x6 DUP2 ADD SWAP1 SWAP3 MSTORE SWAP1 SWAP2 KECCAK256 SLOAD DUP1 PUSH2 0x7CC JUMPI PUSH1 0x40 MLOAD PUSH3 0x461BCD PUSH1 0xE5 SHL DUP2 MSTORE PUSH1 0x20 PUSH1 0x4 DUP3 ADD MSTORE PUSH1 0x27 PUSH1 0x24 DUP3 ADD MSTORE PUSH32 0x596F7520646F206E6F74206F776E20616E7920736861726573206F6620746869 PUSH1 0x44 DUP3 ADD MSTORE PUSH7 0x7320747261636B PUSH1 0xC8 SHL PUSH1 0x64 DUP3 ADD MSTORE PUSH1 0x84 ADD PUSH2 0x5D1 JUMP JUMPDEST PUSH0 PUSH2 0x7D7 DUP5 CALLER PUSH2 0x6E4 JUMP JUMPDEST SWAP1 POP PUSH0 PUSH8 0xDE0B6B3A7640000 DUP3 DUP6 PUSH1 0x5 ADD SLOAD PUSH2 0x7F3 SWAP2 SWAP1 PUSH2 0x1B40 JUMP JUMPDEST PUSH2 0x7FD SWAP2 SWAP1 PUSH2 0x1B57 JUMP JUMPDEST SWAP1 POP PUSH0 DUP2 GT PUSH2 0x85A JUMPI PUSH1 0x40 MLOAD PUSH3 0x461BCD PUSH1 0xE5 SHL DUP2 MSTORE PUSH1 0x20 PUSH1 0x4 DUP3 ADD MSTORE PUSH1 0x23 PUSH1 0x24 DUP3 ADD MSTORE PUSH32 0x4E6F20726F79616C747920617661696C61626C6520666F722077697468647261 PUSH1 0x44 DUP3 ADD MSTORE PUSH3 0x1DD85B PUSH1 0xEA SHL PUSH1 0x64 DUP3 ADD MSTORE PUSH1 0x84 ADD PUSH2 0x5D1 JUMP JUMPDEST DUP1 DUP5 PUSH1 0x5 ADD PUSH0 DUP3 DUP3 SLOAD PUSH2 0x86D SWAP2 SWAP1 PUSH2 0x1B76 JUMP JUMPDEST SWAP1 SWAP2 SSTORE POP POP PUSH1 0x40 MLOAD CALLER SWAP1 DUP3 ISZERO PUSH2 0x8FC MUL SWAP1 DUP4 SWAP1 PUSH0 DUP2 DUP2 DUP2 DUP6 DUP9 DUP9 CALL SWAP4 POP POP POP POP ISZERO DUP1 ISZERO PUSH2 0x89C JUMPI RETURNDATASIZE PUSH0 DUP1 RETURNDATACOPY RETURNDATASIZE PUSH0 REVERT JUMPDEST POP PUSH32 0xD6CE75900EECAACADB4848F3B1A4E89CBA8434D748D82ADAB2CAF1BF248B5D17 DUP6 CALLER DUP4 PUSH1 0x40 MLOAD PUSH2 0x8D0 SWAP4 SWAP3 SWAP2 SWAP1 PUSH2 0x1B89 JUMP JUMPDEST PUSH1 0x40 MLOAD DUP1 SWAP2 SUB SWAP1 LOG1 POP POP POP POP POP JUMP JUMPDEST PUSH0 PUSH2 0x4BC DUP3 PUSH2 0xFC0 JUMP JUMPDEST PUSH0 PUSH1 0x1 PUSH1 0x1 PUSH1 0xA0 SHL SUB DUP3 AND PUSH2 0x913 JUMPI PUSH0 PUSH1 0x40 MLOAD PUSH4 0x22718AD9 PUSH1 0xE2 SHL DUP2 MSTORE PUSH1 0x4 ADD PUSH2 0x5D1 SWAP2 SWAP1 PUSH2 0x17FB JUMP JUMPDEST POP PUSH1 0x1 PUSH1 0x1 PUSH1 0xA0 SHL SUB AND PUSH0 SWAP1 DUP2 MSTORE PUSH1 0x3 PUSH1 0x20 MSTORE PUSH1 0x40 SWAP1 KECCAK256 SLOAD SWAP1 JUMP JUMPDEST PUSH2 0x936 PUSH2 0xEF1 JUMP JUMPDEST PUSH2 0x93F PUSH0 PUSH2 0x10F7 JUMP JUMPDEST JUMP JUMPDEST PUSH1 0x60 PUSH1 0x1 DUP1 SLOAD PUSH2 0x4E6 SWAP1 PUSH2 0x1AF4 JUMP JUMPDEST PUSH2 0x4D4 CALLER DUP4 DUP4 PUSH2 0x1148 JUMP JUMPDEST PUSH1 0x9 PUSH1 0x20 MSTORE PUSH0 SWAP1 DUP2 MSTORE PUSH1 0x40 SWAP1 KECCAK256 DUP1 SLOAD DUP2 SWAP1 PUSH2 0x975 SWAP1 PUSH2 0x1AF4 JUMP JUMPDEST DUP1 PUSH1 0x1F ADD PUSH1 0x20 DUP1 SWAP2 DIV MUL PUSH1 0x20 ADD PUSH1 0x40 MLOAD SWAP1 DUP2 ADD PUSH1 0x40 MSTORE DUP1 SWAP3 SWAP2 SWAP1 DUP2 DUP2 MSTORE PUSH1 0x20 ADD DUP3 DUP1 SLOAD PUSH2 0x9A1 SWAP1 PUSH2 0x1AF4 JUMP JUMPDEST DUP1 ISZERO PUSH2 0x9EC JUMPI DUP1 PUSH1 0x1F LT PUSH2 0x9C3 JUMPI PUSH2 0x100 DUP1 DUP4 SLOAD DIV MUL DUP4 MSTORE SWAP2 PUSH1 0x20 ADD SWAP2 PUSH2 0x9EC JUMP JUMPDEST DUP3 ADD SWAP2 SWAP1 PUSH0 MSTORE PUSH1 0x20 PUSH0 KECCAK256 SWAP1 JUMPDEST DUP2 SLOAD DUP2 MSTORE SWAP1 PUSH1 0x1 ADD SWAP1 PUSH1 0x20 ADD DUP1 DUP4 GT PUSH2 0x9CF JUMPI DUP3 SWAP1 SUB PUSH1 0x1F AND DUP3 ADD SWAP2 JUMPDEST POP POP POP POP POP SWAP1 DUP1 PUSH1 0x1 ADD DUP1 SLOAD PUSH2 0xA01 SWAP1 PUSH2 0x1AF4 JUMP JUMPDEST DUP1 PUSH1 0x1F ADD PUSH1 0x20 DUP1 SWAP2 DIV MUL PUSH1 0x20 ADD PUSH1 0x40 MLOAD SWAP1 DUP2 ADD PUSH1 0x40 MSTORE DUP1 SWAP3 SWAP2 SWAP1 DUP2 DUP2 MSTORE PUSH1 0x20 ADD DUP3 DUP1 SLOAD PUSH2 0xA2D SWAP1 PUSH2 0x1AF4 JUMP JUMPDEST DUP1 ISZERO PUSH2 0xA78 JUMPI DUP1 PUSH1 0x1F LT PUSH2 0xA4F JUMPI PUSH2 0x100 DUP1 DUP4 SLOAD DIV MUL DUP4 MSTORE SWAP2 PUSH1 0x20 ADD SWAP2 PUSH2 0xA78 JUMP JUMPDEST DUP3 ADD SWAP2 SWAP1 PUSH0 MSTORE PUSH1 0x20 PUSH0 KECCAK256 SWAP1 JUMPDEST DUP2 SLOAD DUP2 MSTORE SWAP1 PUSH1 0x1 ADD SWAP1 PUSH1 0x20 ADD DUP1 DUP4 GT PUSH2 0xA5B JUMPI DUP3 SWAP1 SUB PUSH1 0x1F AND DUP3 ADD SWAP2 JUMPDEST POP POP POP PUSH1 0x2 DUP5 ADD SLOAD PUSH1 0x3 DUP6 ADD SLOAD PUSH1 0x4 DUP7 ADD SLOAD PUSH1 0x5 SWAP1 SWAP7 ADD SLOAD SWAP5 SWAP6 SWAP2 SWAP5 SWAP1 SWAP4 POP PUSH1 0xFF SWAP1 SWAP2 AND SWAP2 POP DUP7 JUMP JUMPDEST PUSH2 0xAAC DUP5 DUP5 DUP5 PUSH2 0x5A8 JUMP JUMPDEST PUSH2 0x634 DUP5 DUP5 DUP5 DUP5 PUSH2 0x11DD JUMP JUMPDEST PUSH2 0xAC0 PUSH2 0xEF1 JUMP JUMPDEST PUSH0 DUP2 DUP2 MSTORE PUSH1 0x9 PUSH1 0x20 MSTORE PUSH1 0x40 SWAP1 KECCAK256 CALLVALUE PUSH2 0xB2B JUMPI PUSH1 0x40 MLOAD PUSH3 0x461BCD PUSH1 0xE5 SHL DUP2 MSTORE PUSH1 0x20 PUSH1 0x4 DUP3 ADD MSTORE PUSH1 0x28 PUSH1 0x24 DUP3 ADD MSTORE PUSH32 0x526F79616C747920616D6F756E74206D75737420626520677265617465722074 PUSH1 0x44 DUP3 ADD MSTORE PUSH8 0x68616E207A65726F PUSH1 0xC0 SHL PUSH1 0x64 DUP3 ADD MSTORE PUSH1 0x84 ADD PUSH2 0x5D1 JUMP JUMPDEST CALLVALUE DUP2 PUSH1 0x5 ADD PUSH0 DUP3 DUP3 SLOAD PUSH2 0xB3E SWAP2 SWAP1 PUSH2 0x1BA8 JUMP JUMPDEST SWAP1 SWAP2 SSTORE POP POP PUSH1 0x40 DUP1 MLOAD DUP4 DUP2 MSTORE CALLVALUE PUSH1 0x20 DUP3 ADD MSTORE PUSH32 0xE03872BDFFA6568DF2CC485CF9F211D60A716C99C5633E1EDC87102D16112500 SWAP2 ADD PUSH1 0x40 MLOAD DUP1 SWAP2 SUB SWAP1 LOG1 POP POP JUMP JUMPDEST PUSH1 0x60 PUSH2 0xB8A DUP3 PUSH2 0xFC0 JUMP JUMPDEST POP PUSH0 PUSH2 0xB94 PUSH2 0x12F1 JUMP JUMPDEST SWAP1 POP PUSH0 DUP2 MLOAD GT PUSH2 0xBB2 JUMPI PUSH1 0x40 MLOAD DUP1 PUSH1 0x20 ADD PUSH1 0x40 MSTORE DUP1 PUSH0 DUP2 MSTORE POP PUSH2 0xBDD JUMP JUMPDEST DUP1 PUSH2 0xBBC DUP5 PUSH2 0x1311 JUMP JUMPDEST PUSH1 0x40 MLOAD PUSH1 0x20 ADD PUSH2 0xBCD SWAP3 SWAP2 SWAP1 PUSH2 0x1BD2 JUMP JUMPDEST PUSH1 0x40 MLOAD PUSH1 0x20 DUP2 DUP4 SUB SUB DUP2 MSTORE SWAP1 PUSH1 0x40 MSTORE JUMPDEST SWAP4 SWAP3 POP POP POP JUMP JUMPDEST PUSH0 DUP3 DUP2 MSTORE PUSH1 0x9 PUSH1 0x20 MSTORE PUSH1 0x40 SWAP1 KECCAK256 PUSH1 0x4 DUP2 ADD SLOAD PUSH1 0xFF AND PUSH2 0xC3B JUMPI PUSH1 0x40 MLOAD PUSH3 0x461BCD PUSH1 0xE5 SHL DUP2 MSTORE PUSH1 0x20 PUSH1 0x4 DUP3 ADD MSTORE PUSH1 0x13 PUSH1 0x24 DUP3 ADD MSTORE PUSH19 0x547261636B206E6F7420617661696C61626C65 PUSH1 0x68 SHL PUSH1 0x44 DUP3 ADD MSTORE PUSH1 0x64 ADD PUSH2 0x5D1 JUMP JUMPDEST PUSH0 DUP3 GT DUP1 ISZERO PUSH2 0xC4E JUMPI POP DUP1 PUSH1 0x3 ADD SLOAD DUP3 GT ISZERO JUMPDEST PUSH2 0xC94 JUMPI PUSH1 0x40 MLOAD PUSH3 0x461BCD PUSH1 0xE5 SHL DUP2 MSTORE PUSH1 0x20 PUSH1 0x4 DUP3 ADD MSTORE PUSH1 0x17 PUSH1 0x24 DUP3 ADD MSTORE PUSH23 0x496E76616C6964206E756D626572206F66736861726573 PUSH1 0x48 SHL PUSH1 0x44 DUP3 ADD MSTORE PUSH1 0x64 ADD PUSH2 0x5D1 JUMP JUMPDEST PUSH1 0x2 DUP2 ADD SLOAD PUSH2 0xCA3 SWAP1 DUP4 PUSH2 0x1B40 JUMP JUMPDEST PUSH2 0xCB4 SWAP1 PUSH7 0x2386F26FC10000 PUSH2 0x1B40 JUMP JUMPDEST CALLVALUE LT ISZERO PUSH2 0xCFA JUMPI PUSH1 0x40 MLOAD PUSH3 0x461BCD PUSH1 0xE5 SHL DUP2 MSTORE PUSH1 0x20 PUSH1 0x4 DUP3 ADD MSTORE PUSH1 0x14 PUSH1 0x24 DUP3 ADD MSTORE PUSH20 0x125B9CDD59999A58DA595B9D081C185E5B595B9D PUSH1 0x62 SHL PUSH1 0x44 DUP3 ADD MSTORE PUSH1 0x64 ADD PUSH2 0x5D1 JUMP JUMPDEST CALLER PUSH0 SWAP1 DUP2 MSTORE PUSH1 0x6 DUP3 ADD PUSH1 0x20 MSTORE PUSH1 0x40 DUP2 KECCAK256 DUP1 SLOAD DUP5 SWAP3 SWAP1 PUSH2 0xD1A SWAP1 DUP5 SWAP1 PUSH2 0x1BA8 JUMP JUMPDEST SWAP3 POP POP DUP2 SWAP1 SSTORE POP DUP2 DUP2 PUSH1 0x3 ADD PUSH0 DUP3 DUP3 SLOAD PUSH2 0xD34 SWAP2 SWAP1 PUSH2 0x1B76 JUMP JUMPDEST SWAP1 SWAP2 SSTORE POP POP PUSH1 0x6 SLOAD PUSH1 0x40 MLOAD PUSH1 0x1 PUSH1 0x1 PUSH1 0xA0 SHL SUB SWAP1 SWAP2 AND SWAP1 CALLVALUE DUP1 ISZERO PUSH2 0x8FC MUL SWAP2 PUSH0 DUP2 DUP2 DUP2 DUP6 DUP9 DUP9 CALL SWAP4 POP POP POP POP ISZERO DUP1 ISZERO PUSH2 0xD6F JUMPI RETURNDATASIZE PUSH0 DUP1 RETURNDATACOPY RETURNDATASIZE PUSH0 REVERT JUMPDEST POP PUSH32 0xA5AFAFC7C052A234F91512F360BEEB7B6DB7A0692BBD017AB5632D80A03A4BC0 DUP4 CALLER DUP5 PUSH1 0x40 MLOAD PUSH2 0xDA3 SWAP4 SWAP3 SWAP2 SWAP1 PUSH2 0x1B89 JUMP JUMPDEST PUSH1 0x40 MLOAD DUP1 SWAP2 SUB SWAP1 LOG1 POP POP POP JUMP JUMPDEST PUSH1 0x1 PUSH1 0x1 PUSH1 0xA0 SHL SUB SWAP2 DUP3 AND PUSH0 SWAP1 DUP2 MSTORE PUSH1 0x5 PUSH1 0x20 SWAP1 DUP2 MSTORE PUSH1 0x40 DUP1 DUP4 KECCAK256 SWAP4 SWAP1 SWAP5 AND DUP3 MSTORE SWAP2 SWAP1 SWAP2 MSTORE KECCAK256 SLOAD PUSH1 0xFF AND SWAP1 JUMP JUMPDEST PUSH2 0xDE5 PUSH2 0xEF1 JUMP JUMPDEST PUSH1 0x1 PUSH1 0x1 PUSH1 0xA0 SHL SUB DUP2 AND PUSH2 0xE0E JUMPI PUSH0 PUSH1 0x40 MLOAD PUSH4 0x1E4FBDF7 PUSH1 0xE0 SHL DUP2 MSTORE PUSH1 0x4 ADD PUSH2 0x5D1 SWAP2 SWAP1 PUSH2 0x17FB JUMP JUMPDEST PUSH2 0xE17 DUP2 PUSH2 0x10F7 JUMP JUMPDEST POP JUMP JUMPDEST PUSH2 0xE22 PUSH2 0xEF1 JUMP JUMPDEST PUSH0 PUSH2 0xE2C PUSH1 0xA SLOAD SWAP1 JUMP JUMPDEST SWAP1 POP PUSH2 0xE38 CALLER DUP3 PUSH2 0x13A0 JUMP JUMPDEST PUSH0 DUP2 DUP2 MSTORE PUSH1 0x9 PUSH1 0x20 MSTORE PUSH1 0x40 SWAP1 KECCAK256 DUP1 PUSH2 0xE50 DUP6 DUP3 PUSH2 0x1C2A JUMP JUMPDEST POP PUSH1 0x1 DUP2 ADD PUSH2 0xE5F DUP5 DUP3 PUSH2 0x1C2A JUMP JUMPDEST POP PUSH2 0x4E2 PUSH1 0x2 DUP3 ADD DUP2 SWAP1 SSTORE PUSH1 0x3 DUP3 ADD SSTORE PUSH1 0x4 DUP2 ADD DUP1 SLOAD PUSH1 0xFF NOT AND PUSH1 0x1 OR SWAP1 SSTORE PUSH2 0xE8C PUSH1 0xA DUP1 SLOAD PUSH1 0x1 ADD SWAP1 SSTORE JUMP JUMPDEST PUSH32 0x21579433A032855E20E8AFC48E980DDAE0B6285E4AA03370F03192BE12BEA28B DUP3 DUP6 DUP6 PUSH1 0x40 MLOAD PUSH2 0xEBF SWAP4 SWAP3 SWAP2 SWAP1 PUSH2 0x1CE4 JUMP JUMPDEST PUSH1 0x40 MLOAD DUP1 SWAP2 SUB SWAP1 LOG1 POP POP POP POP JUMP JUMPDEST PUSH0 PUSH1 0x1 PUSH1 0x1 PUSH1 0xE0 SHL SUB NOT DUP3 AND PUSH4 0x152A902D PUSH1 0xE1 SHL EQ DUP1 PUSH2 0x4BC JUMPI POP PUSH2 0x4BC DUP3 PUSH2 0x13B9 JUMP JUMPDEST PUSH1 0x6 SLOAD PUSH1 0x1 PUSH1 0x1 PUSH1 0xA0 SHL SUB AND CALLER EQ PUSH2 0x93F JUMPI CALLER PUSH1 0x40 MLOAD PUSH4 0x118CDAA7 PUSH1 0xE0 SHL DUP2 MSTORE PUSH1 0x4 ADD PUSH2 0x5D1 SWAP2 SWAP1 PUSH2 0x17FB JUMP JUMPDEST PUSH2 0x2710 PUSH1 0x1 PUSH1 0x1 PUSH1 0x60 SHL SUB DUP3 AND DUP2 LT ISZERO PUSH2 0xF5D JUMPI PUSH1 0x40 MLOAD PUSH4 0x6F483D09 PUSH1 0xE0 SHL DUP2 MSTORE PUSH1 0x1 PUSH1 0x1 PUSH1 0x60 SHL SUB DUP4 AND PUSH1 0x4 DUP3 ADD MSTORE PUSH1 0x24 DUP2 ADD DUP3 SWAP1 MSTORE PUSH1 0x44 ADD PUSH2 0x5D1 JUMP JUMPDEST PUSH1 0x1 PUSH1 0x1 PUSH1 0xA0 SHL SUB DUP4 AND PUSH2 0xF86 JUMPI PUSH0 PUSH1 0x40 MLOAD PUSH4 0x5B6CC805 PUSH1 0xE1 SHL DUP2 MSTORE PUSH1 0x4 ADD PUSH2 0x5D1 SWAP2 SWAP1 PUSH2 0x17FB JUMP JUMPDEST POP PUSH1 0x40 DUP1 MLOAD DUP1 DUP3 ADD SWAP1 SWAP2 MSTORE PUSH1 0x1 PUSH1 0x1 PUSH1 0xA0 SHL SUB SWAP1 SWAP3 AND DUP1 DUP4 MSTORE PUSH1 0x1 PUSH1 0x1 PUSH1 0x60 SHL SUB SWAP1 SWAP2 AND PUSH1 0x20 SWAP1 SWAP3 ADD DUP3 SWAP1 MSTORE PUSH1 0x1 PUSH1 0xA0 SHL SWAP1 SWAP2 MUL OR PUSH1 0x7 SSTORE JUMP JUMPDEST PUSH0 DUP2 DUP2 MSTORE PUSH1 0x2 PUSH1 0x20 MSTORE PUSH1 0x40 DUP2 KECCAK256 SLOAD PUSH1 0x1 PUSH1 0x1 PUSH1 0xA0 SHL SUB AND DUP1 PUSH2 0x4BC JUMPI PUSH1 0x40 MLOAD PUSH4 0x7E273289 PUSH1 0xE0 SHL DUP2 MSTORE PUSH1 0x4 DUP2 ADD DUP5 SWAP1 MSTORE PUSH1 0x24 ADD PUSH2 0x5D1 JUMP JUMPDEST PUSH2 0x74C DUP4 DUP4 DUP4 PUSH1 0x1 PUSH2 0x1408 JUMP JUMPDEST PUSH0 DUP3 DUP2 MSTORE PUSH1 0x2 PUSH1 0x20 MSTORE PUSH1 0x40 DUP2 KECCAK256 SLOAD PUSH1 0x1 PUSH1 0x1 PUSH1 0xA0 SHL SUB SWAP1 DUP2 AND SWAP1 DUP4 AND ISZERO PUSH2 0x1031 JUMPI PUSH2 0x1031 DUP2 DUP5 DUP7 PUSH2 0x1503 JUMP JUMPDEST PUSH1 0x1 PUSH1 0x1 PUSH1 0xA0 SHL SUB DUP2 AND ISZERO PUSH2 0x106B JUMPI PUSH2 0x104C PUSH0 DUP6 PUSH0 DUP1 PUSH2 0x1408 JUMP JUMPDEST PUSH1 0x1 PUSH1 0x1 PUSH1 0xA0 SHL SUB DUP2 AND PUSH0 SWAP1 DUP2 MSTORE PUSH1 0x3 PUSH1 0x20 MSTORE PUSH1 0x40 SWAP1 KECCAK256 DUP1 SLOAD PUSH0 NOT ADD SWAP1 SSTORE JUMPDEST PUSH1 0x1 PUSH1 0x1 PUSH1 0xA0 SHL SUB DUP6 AND ISZERO PUSH2 0x1099 JUMPI PUSH1 0x1 PUSH1 0x1 PUSH1 0xA0 SHL SUB DUP6 AND PUSH0 SWAP1 DUP2 MSTORE PUSH1 0x3 PUSH1 0x20 MSTORE PUSH1 0x40 SWAP1 KECCAK256 DUP1 SLOAD PUSH1 0x1 ADD SWAP1 SSTORE JUMPDEST PUSH0 DUP5 DUP2 MSTORE PUSH1 0x2 PUSH1 0x20 MSTORE PUSH1 0x40 DUP1 DUP3 KECCAK256 DUP1 SLOAD PUSH1 0x1 PUSH1 0x1 PUSH1 0xA0 SHL SUB NOT AND PUSH1 0x1 PUSH1 0x1 PUSH1 0xA0 SHL SUB DUP10 DUP2 AND SWAP2 DUP3 OR SWAP1 SWAP3 SSTORE SWAP2 MLOAD DUP8 SWAP4 SWAP2 DUP6 AND SWAP2 PUSH32 0xDDF252AD1BE2C89B69C2B068FC378DAA952BA7F163C4A11628F55A4DF523B3EF SWAP2 LOG4 SWAP5 SWAP4 POP POP POP POP JUMP JUMPDEST PUSH1 0x6 DUP1 SLOAD PUSH1 0x1 PUSH1 0x1 PUSH1 0xA0 SHL SUB DUP4 DUP2 AND PUSH1 0x1 PUSH1 0x1 PUSH1 0xA0 SHL SUB NOT DUP4 AND DUP2 OR SWAP1 SWAP4 SSTORE PUSH1 0x40 MLOAD SWAP2 AND SWAP2 SWAP1 DUP3 SWAP1 PUSH32 0x8BE0079C531659141344CD1FD0A4F28419497F9722A3DAAFE3B4186F6B6457E0 SWAP1 PUSH0 SWAP1 LOG3 POP POP JUMP JUMPDEST PUSH1 0x1 PUSH1 0x1 PUSH1 0xA0 SHL SUB DUP3 AND PUSH2 0x1171 JUMPI DUP2 PUSH1 0x40 MLOAD PUSH4 0xB611743 PUSH1 0xE3 SHL DUP2 MSTORE PUSH1 0x4 ADD PUSH2 0x5D1 SWAP2 SWAP1 PUSH2 0x17FB JUMP JUMPDEST PUSH1 0x1 PUSH1 0x1 PUSH1 0xA0 SHL SUB DUP4 DUP2 AND PUSH0 DUP2 DUP2 MSTORE PUSH1 0x5 PUSH1 0x20 SWAP1 DUP2 MSTORE PUSH1 0x40 DUP1 DUP4 KECCAK256 SWAP5 DUP8 AND DUP1 DUP5 MSTORE SWAP5 DUP3 MSTORE SWAP2 DUP3 SWAP1 KECCAK256 DUP1 SLOAD PUSH1 0xFF NOT AND DUP7 ISZERO ISZERO SWAP1 DUP2 OR SWAP1 SWAP2 SSTORE SWAP2 MLOAD SWAP2 DUP3 MSTORE PUSH32 0x17307EAB39AB6107E8899845AD3D59BD9653F200F220920489CA2B5937696C31 SWAP2 ADD PUSH1 0x40 MLOAD DUP1 SWAP2 SUB SWAP1 LOG3 POP POP POP JUMP JUMPDEST PUSH1 0x1 PUSH1 0x1 PUSH1 0xA0 SHL SUB DUP4 AND EXTCODESIZE ISZERO PUSH2 0x634 JUMPI PUSH1 0x40 MLOAD PUSH4 0xA85BD01 PUSH1 0xE1 SHL DUP2 MSTORE PUSH1 0x1 PUSH1 0x1 PUSH1 0xA0 SHL SUB DUP5 AND SWAP1 PUSH4 0x150B7A02 SWAP1 PUSH2 0x121F SWAP1 CALLER SWAP1 DUP9 SWAP1 DUP8 SWAP1 DUP8 SWAP1 PUSH1 0x4 ADD PUSH2 0x1D18 JUMP JUMPDEST PUSH1 0x20 PUSH1 0x40 MLOAD DUP1 DUP4 SUB DUP2 PUSH0 DUP8 GAS CALL SWAP3 POP POP POP DUP1 ISZERO PUSH2 0x1259 JUMPI POP PUSH1 0x40 DUP1 MLOAD PUSH1 0x1F RETURNDATASIZE SWAP1 DUP2 ADD PUSH1 0x1F NOT AND DUP3 ADD SWAP1 SWAP3 MSTORE PUSH2 0x1256 SWAP2 DUP2 ADD SWAP1 PUSH2 0x1D4A JUMP JUMPDEST PUSH1 0x1 JUMPDEST PUSH2 0x12B7 JUMPI RETURNDATASIZE DUP1 DUP1 ISZERO PUSH2 0x1286 JUMPI PUSH1 0x40 MLOAD SWAP2 POP PUSH1 0x1F NOT PUSH1 0x3F RETURNDATASIZE ADD AND DUP3 ADD PUSH1 0x40 MSTORE RETURNDATASIZE DUP3 MSTORE RETURNDATASIZE PUSH0 PUSH1 0x20 DUP5 ADD RETURNDATACOPY PUSH2 0x128B JUMP JUMPDEST PUSH1 0x60 SWAP2 POP JUMPDEST POP DUP1 MLOAD PUSH0 SUB PUSH2 0x12AF JUMPI DUP4 PUSH1 0x40 MLOAD PUSH4 0x32505749 PUSH1 0xE1 SHL DUP2 MSTORE PUSH1 0x4 ADD PUSH2 0x5D1 SWAP2 SWAP1 PUSH2 0x17FB JUMP JUMPDEST DUP1 MLOAD DUP2 PUSH1 0x20 ADD REVERT JUMPDEST PUSH1 0x1 PUSH1 0x1 PUSH1 0xE0 SHL SUB NOT DUP2 AND PUSH4 0xA85BD01 PUSH1 0xE1 SHL EQ PUSH2 0x12EA JUMPI DUP4 PUSH1 0x40 MLOAD PUSH4 0x32505749 PUSH1 0xE1 SHL DUP2 MSTORE PUSH1 0x4 ADD PUSH2 0x5D1 SWAP2 SWAP1 PUSH2 0x17FB JUMP JUMPDEST POP POP POP POP POP JUMP JUMPDEST PUSH1 0x60 PUSH1 0x40 MLOAD DUP1 PUSH1 0xA0 ADD PUSH1 0x40 MSTORE DUP1 PUSH1 0x64 DUP2 MSTORE PUSH1 0x20 ADD PUSH2 0x1D66 PUSH1 0x64 SWAP2 CODECOPY SWAP1 POP SWAP1 JUMP JUMPDEST PUSH1 0x60 PUSH0 PUSH2 0x131D DUP4 PUSH2 0x1567 JUMP JUMPDEST PUSH1 0x1 ADD SWAP1 POP PUSH0 DUP2 PUSH1 0x1 PUSH1 0x1 PUSH1 0x40 SHL SUB DUP2 GT ISZERO PUSH2 0x133B JUMPI PUSH2 0x133B PUSH2 0x194C JUMP JUMPDEST PUSH1 0x40 MLOAD SWAP1 DUP1 DUP3 MSTORE DUP1 PUSH1 0x1F ADD PUSH1 0x1F NOT AND PUSH1 0x20 ADD DUP3 ADD PUSH1 0x40 MSTORE DUP1 ISZERO PUSH2 0x1365 JUMPI PUSH1 0x20 DUP3 ADD DUP2 DUP1 CALLDATASIZE DUP4 CALLDATACOPY ADD SWAP1 POP JUMPDEST POP SWAP1 POP DUP2 DUP2 ADD PUSH1 0x20 ADD JUMPDEST PUSH0 NOT ADD PUSH16 0x181899199A1A9B1B9C1CB0B131B232B3 PUSH1 0x81 SHL PUSH1 0xA DUP7 MOD BYTE DUP2 MSTORE8 PUSH1 0xA DUP6 DIV SWAP5 POP DUP5 PUSH2 0x136F JUMPI POP SWAP4 SWAP3 POP POP POP JUMP JUMPDEST PUSH2 0x4D4 DUP3 DUP3 PUSH1 0x40 MLOAD DUP1 PUSH1 0x20 ADD PUSH1 0x40 MSTORE DUP1 PUSH0 DUP2 MSTORE POP PUSH2 0x163E JUMP JUMPDEST PUSH0 PUSH1 0x1 PUSH1 0x1 PUSH1 0xE0 SHL SUB NOT DUP3 AND PUSH4 0x80AC58CD PUSH1 0xE0 SHL EQ DUP1 PUSH2 0x13E9 JUMPI POP PUSH1 0x1 PUSH1 0x1 PUSH1 0xE0 SHL SUB NOT DUP3 AND PUSH4 0x5B5E139F PUSH1 0xE0 SHL EQ JUMPDEST DUP1 PUSH2 0x4BC JUMPI POP PUSH4 0x1FFC9A7 PUSH1 0xE0 SHL PUSH1 0x1 PUSH1 0x1 PUSH1 0xE0 SHL SUB NOT DUP4 AND EQ PUSH2 0x4BC JUMP JUMPDEST DUP1 DUP1 PUSH2 0x141C JUMPI POP PUSH1 0x1 PUSH1 0x1 PUSH1 0xA0 SHL SUB DUP3 AND ISZERO ISZERO JUMPDEST ISZERO PUSH2 0x14D4 JUMPI PUSH0 PUSH2 0x142B DUP5 PUSH2 0xFC0 JUMP JUMPDEST SWAP1 POP PUSH1 0x1 PUSH1 0x1 PUSH1 0xA0 SHL SUB DUP4 AND ISZERO DUP1 ISZERO SWAP1 PUSH2 0x1457 JUMPI POP DUP3 PUSH1 0x1 PUSH1 0x1 PUSH1 0xA0 SHL SUB AND DUP2 PUSH1 0x1 PUSH1 0x1 PUSH1 0xA0 SHL SUB AND EQ ISZERO JUMPDEST DUP1 ISZERO PUSH2 0x146A JUMPI POP PUSH2 0x1468 DUP2 DUP5 PUSH2 0xDB0 JUMP JUMPDEST ISZERO JUMPDEST ISZERO PUSH2 0x148A JUMPI DUP3 PUSH1 0x40 MLOAD PUSH4 0xA9FBF51F PUSH1 0xE0 SHL DUP2 MSTORE PUSH1 0x4 ADD PUSH2 0x5D1 SWAP2 SWAP1 PUSH2 0x17FB JUMP JUMPDEST DUP2 ISZERO PUSH2 0x14D2 JUMPI DUP4 DUP6 PUSH1 0x1 PUSH1 0x1 PUSH1 0xA0 SHL SUB AND DUP3 PUSH1 0x1 PUSH1 0x1 PUSH1 0xA0 SHL SUB AND PUSH32 0x8C5BE1E5EBEC7D5BD14F71427D1E84F3DD0314C0F7B2291E5B200AC8C7C3B925 PUSH1 0x40 MLOAD PUSH1 0x40 MLOAD DUP1 SWAP2 SUB SWAP1 LOG4 JUMPDEST POP JUMPDEST POP POP PUSH0 SWAP1 DUP2 MSTORE PUSH1 0x4 PUSH1 0x20 MSTORE PUSH1 0x40 SWAP1 KECCAK256 DUP1 SLOAD PUSH1 0x1 PUSH1 0x1 PUSH1 0xA0 SHL SUB NOT AND PUSH1 0x1 PUSH1 0x1 PUSH1 0xA0 SHL SUB SWAP3 SWAP1 SWAP3 AND SWAP2 SWAP1 SWAP2 OR SWAP1 SSTORE JUMP JUMPDEST PUSH2 0x150E DUP4 DUP4 DUP4 PUSH2 0x1654 JUMP JUMPDEST PUSH2 0x74C JUMPI PUSH1 0x1 PUSH1 0x1 PUSH1 0xA0 SHL SUB DUP4 AND PUSH2 0x153C JUMPI PUSH1 0x40 MLOAD PUSH4 0x7E273289 PUSH1 0xE0 SHL DUP2 MSTORE PUSH1 0x4 DUP2 ADD DUP3 SWAP1 MSTORE PUSH1 0x24 ADD PUSH2 0x5D1 JUMP JUMPDEST PUSH1 0x40 MLOAD PUSH4 0x177E802F PUSH1 0xE0 SHL DUP2 MSTORE PUSH1 0x1 PUSH1 0x1 PUSH1 0xA0 SHL SUB DUP4 AND PUSH1 0x4 DUP3 ADD MSTORE PUSH1 0x24 DUP2 ADD DUP3 SWAP1 MSTORE PUSH1 0x44 ADD PUSH2 0x5D1 JUMP JUMPDEST PUSH0 DUP1 PUSH19 0x184F03E93FF9F4DAA797ED6E38ED64BF6A1F01 PUSH1 0x40 SHL DUP4 LT PUSH2 0x15A5 JUMPI PUSH19 0x184F03E93FF9F4DAA797ED6E38ED64BF6A1F01 PUSH1 0x40 SHL DUP4 DIV SWAP3 POP PUSH1 0x40 ADD JUMPDEST PUSH14 0x4EE2D6D415B85ACEF8100000000 DUP4 LT PUSH2 0x15D1 JUMPI PUSH14 0x4EE2D6D415B85ACEF8100000000 DUP4 DIV SWAP3 POP PUSH1 0x20 ADD JUMPDEST PUSH7 0x2386F26FC10000 DUP4 LT PUSH2 0x15EF JUMPI PUSH7 0x2386F26FC10000 DUP4 DIV SWAP3 POP PUSH1 0x10 ADD JUMPDEST PUSH4 0x5F5E100 DUP4 LT PUSH2 0x1607 JUMPI PUSH4 0x5F5E100 DUP4 DIV SWAP3 POP PUSH1 0x8 ADD JUMPDEST PUSH2 0x2710 DUP4 LT PUSH2 0x161B JUMPI PUSH2 0x2710 DUP4 DIV SWAP3 POP PUSH1 0x4 ADD JUMPDEST PUSH1 0x64 DUP4 LT PUSH2 0x162D JUMPI PUSH1 0x64 DUP4 DIV SWAP3 POP PUSH1 0x2 ADD JUMPDEST PUSH1 0xA DUP4 LT PUSH2 0x4BC JUMPI PUSH1 0x1 ADD SWAP3 SWAP2 POP POP JUMP JUMPDEST PUSH2 0x1648 DUP4 DUP4 PUSH2 0x16B8 JUMP JUMPDEST PUSH2 0x74C PUSH0 DUP5 DUP5 DUP5 PUSH2 0x11DD JUMP JUMPDEST PUSH0 PUSH1 0x1 PUSH1 0x1 PUSH1 0xA0 SHL SUB DUP4 AND ISZERO DUP1 ISZERO SWAP1 PUSH2 0x16B0 JUMPI POP DUP3 PUSH1 0x1 PUSH1 0x1 PUSH1 0xA0 SHL SUB AND DUP5 PUSH1 0x1 PUSH1 0x1 PUSH1 0xA0 SHL SUB AND EQ DUP1 PUSH2 0x168D JUMPI POP PUSH2 0x168D DUP5 DUP5 PUSH2 0xDB0 JUMP JUMPDEST DUP1 PUSH2 0x16B0 JUMPI POP PUSH0 DUP3 DUP2 MSTORE PUSH1 0x4 PUSH1 0x20 MSTORE PUSH1 0x40 SWAP1 KECCAK256 SLOAD PUSH1 0x1 PUSH1 0x1 PUSH1 0xA0 SHL SUB DUP5 DUP2 AND SWAP2 AND EQ JUMPDEST SWAP5 SWAP4 POP POP POP POP JUMP JUMPDEST PUSH1 0x1 PUSH1 0x1 PUSH1 0xA0 SHL SUB DUP3 AND PUSH2 0x16E1 JUMPI PUSH0 PUSH1 0x40 MLOAD PUSH4 0x32505749 PUSH1 0xE1 SHL DUP2 MSTORE PUSH1 0x4 ADD PUSH2 0x5D1 SWAP2 SWAP1 PUSH2 0x17FB JUMP JUMPDEST PUSH0 PUSH2 0x16ED DUP4 DUP4 PUSH0 PUSH2 0x1005 JUMP JUMPDEST SWAP1 POP PUSH1 0x1 PUSH1 0x1 PUSH1 0xA0 SHL SUB DUP2 AND ISZERO PUSH2 0x74C JUMPI PUSH0 PUSH1 0x40 MLOAD PUSH4 0x39E35637 PUSH1 0xE1 SHL DUP2 MSTORE PUSH1 0x4 ADD PUSH2 0x5D1 SWAP2 SWAP1 PUSH2 0x17FB JUMP JUMPDEST PUSH1 0x1 PUSH1 0x1 PUSH1 0xE0 SHL SUB NOT DUP2 AND DUP2 EQ PUSH2 0xE17 JUMPI PUSH0 DUP1 REVERT JUMPDEST PUSH0 PUSH1 0x20 DUP3 DUP5 SUB SLT ISZERO PUSH2 0x173E JUMPI PUSH0 DUP1 REVERT JUMPDEST DUP2 CALLDATALOAD PUSH2 0xBDD DUP2 PUSH2 0x1719 JUMP JUMPDEST DUP1 CALLDATALOAD PUSH1 0x1 PUSH1 0x1 PUSH1 0xA0 SHL SUB DUP2 AND DUP2 EQ PUSH2 0x175F JUMPI PUSH0 DUP1 REVERT JUMPDEST SWAP2 SWAP1 POP JUMP JUMPDEST PUSH0 DUP1 PUSH1 0x40 DUP4 DUP6 SUB SLT ISZERO PUSH2 0x1775 JUMPI PUSH0 DUP1 REVERT JUMPDEST PUSH2 0x177E DUP4 PUSH2 0x1749 JUMP JUMPDEST SWAP2 POP PUSH1 0x20 DUP4 ADD CALLDATALOAD PUSH1 0x1 PUSH1 0x1 PUSH1 0x60 SHL SUB DUP2 AND DUP2 EQ PUSH2 0x1799 JUMPI PUSH0 DUP1 REVERT JUMPDEST DUP1 SWAP2 POP POP SWAP3 POP SWAP3 SWAP1 POP JUMP JUMPDEST PUSH0 DUP2 MLOAD DUP1 DUP5 MSTORE DUP1 PUSH1 0x20 DUP5 ADD PUSH1 0x20 DUP7 ADD MCOPY PUSH0 PUSH1 0x20 DUP3 DUP7 ADD ADD MSTORE PUSH1 0x20 PUSH1 0x1F NOT PUSH1 0x1F DUP4 ADD AND DUP6 ADD ADD SWAP2 POP POP SWAP3 SWAP2 POP POP JUMP JUMPDEST PUSH1 0x20 DUP2 MSTORE PUSH0 PUSH2 0xBDD PUSH1 0x20 DUP4 ADD DUP5 PUSH2 0x17A4 JUMP JUMPDEST PUSH0 PUSH1 0x20 DUP3 DUP5 SUB SLT ISZERO PUSH2 0x17F4 JUMPI PUSH0 DUP1 REVERT JUMPDEST POP CALLDATALOAD SWAP2 SWAP1 POP JUMP JUMPDEST PUSH1 0x1 PUSH1 0x1 PUSH1 0xA0 SHL SUB SWAP2 SWAP1 SWAP2 AND DUP2 MSTORE PUSH1 0x20 ADD SWAP1 JUMP JUMPDEST PUSH0 DUP1 PUSH1 0x40 DUP4 DUP6 SUB SLT ISZERO PUSH2 0x1820 JUMPI PUSH0 DUP1 REVERT JUMPDEST PUSH2 0x1829 DUP4 PUSH2 0x1749 JUMP JUMPDEST SWAP5 PUSH1 0x20 SWAP4 SWAP1 SWAP4 ADD CALLDATALOAD SWAP4 POP POP POP JUMP JUMPDEST PUSH0 DUP1 PUSH0 PUSH1 0x60 DUP5 DUP7 SUB SLT ISZERO PUSH2 0x1849 JUMPI PUSH0 DUP1 REVERT JUMPDEST PUSH2 0x1852 DUP5 PUSH2 0x1749 JUMP JUMPDEST SWAP3 POP PUSH2 0x1860 PUSH1 0x20 DUP6 ADD PUSH2 0x1749 JUMP JUMPDEST SWAP3 SWAP6 SWAP3 SWAP5 POP POP POP PUSH1 0x40 SWAP2 SWAP1 SWAP2 ADD CALLDATALOAD SWAP1 JUMP JUMPDEST PUSH0 DUP1 PUSH1 0x40 DUP4 DUP6 SUB SLT ISZERO PUSH2 0x1882 JUMPI PUSH0 DUP1 REVERT JUMPDEST POP POP DUP1 CALLDATALOAD SWAP3 PUSH1 0x20 SWAP1 SWAP2 ADD CALLDATALOAD SWAP2 POP JUMP JUMPDEST PUSH0 DUP1 PUSH1 0x40 DUP4 DUP6 SUB SLT ISZERO PUSH2 0x18A2 JUMPI PUSH0 DUP1 REVERT JUMPDEST DUP3 CALLDATALOAD SWAP2 POP PUSH2 0x18B2 PUSH1 0x20 DUP5 ADD PUSH2 0x1749 JUMP JUMPDEST SWAP1 POP SWAP3 POP SWAP3 SWAP1 POP JUMP JUMPDEST PUSH0 PUSH1 0x20 DUP3 DUP5 SUB SLT ISZERO PUSH2 0x18CB JUMPI PUSH0 DUP1 REVERT JUMPDEST PUSH2 0xBDD DUP3 PUSH2 0x1749 JUMP JUMPDEST PUSH0 DUP1 PUSH1 0x40 DUP4 DUP6 SUB SLT ISZERO PUSH2 0x18E5 JUMPI PUSH0 DUP1 REVERT JUMPDEST PUSH2 0x18EE DUP4 PUSH2 0x1749 JUMP JUMPDEST SWAP2 POP PUSH1 0x20 DUP4 ADD CALLDATALOAD DUP1 ISZERO ISZERO DUP2 EQ PUSH2 0x1799 JUMPI PUSH0 DUP1 REVERT JUMPDEST PUSH1 0xC0 DUP2 MSTORE PUSH0 PUSH2 0x1914 PUSH1 0xC0 DUP4 ADD DUP10 PUSH2 0x17A4 JUMP JUMPDEST DUP3 DUP2 SUB PUSH1 0x20 DUP5 ADD MSTORE PUSH2 0x1926 DUP2 DUP10 PUSH2 0x17A4 JUMP JUMPDEST PUSH1 0x40 DUP5 ADD SWAP8 SWAP1 SWAP8 MSTORE POP POP PUSH1 0x60 DUP2 ADD SWAP4 SWAP1 SWAP4 MSTORE SWAP1 ISZERO ISZERO PUSH1 0x80 DUP4 ADD MSTORE PUSH1 0xA0 SWAP1 SWAP2 ADD MSTORE SWAP3 SWAP2 POP POP JUMP JUMPDEST PUSH4 0x4E487B71 PUSH1 0xE0 SHL PUSH0 MSTORE PUSH1 0x41 PUSH1 0x4 MSTORE PUSH1 0x24 PUSH0 REVERT JUMPDEST PUSH0 DUP1 PUSH1 0x1 PUSH1 0x1 PUSH1 0x40 SHL SUB DUP5 GT ISZERO PUSH2 0x1979 JUMPI PUSH2 0x1979 PUSH2 0x194C JUMP JUMPDEST POP PUSH1 0x40 MLOAD PUSH1 0x1F NOT PUSH1 0x1F DUP6 ADD DUP2 AND PUSH1 0x3F ADD AND DUP2 ADD DUP2 DUP2 LT PUSH1 0x1 PUSH1 0x1 PUSH1 0x40 SHL SUB DUP3 GT OR ISZERO PUSH2 0x19A7 JUMPI PUSH2 0x19A7 PUSH2 0x194C JUMP JUMPDEST PUSH1 0x40 MSTORE DUP4 DUP2 MSTORE SWAP1 POP DUP1 DUP3 DUP5 ADD DUP6 LT ISZERO PUSH2 0x19BE JUMPI PUSH0 DUP1 REVERT JUMPDEST DUP4 DUP4 PUSH1 0x20 DUP4 ADD CALLDATACOPY PUSH0 PUSH1 0x20 DUP6 DUP4 ADD ADD MSTORE POP SWAP4 SWAP3 POP POP POP JUMP JUMPDEST PUSH0 DUP1 PUSH0 DUP1 PUSH1 0x80 DUP6 DUP8 SUB SLT ISZERO PUSH2 0x19E8 JUMPI PUSH0 DUP1 REVERT JUMPDEST PUSH2 0x19F1 DUP6 PUSH2 0x1749 JUMP JUMPDEST SWAP4 POP PUSH2 0x19FF PUSH1 0x20 DUP7 ADD PUSH2 0x1749 JUMP JUMPDEST SWAP3 POP PUSH1 0x40 DUP6 ADD CALLDATALOAD SWAP2 POP PUSH1 0x60 DUP6 ADD CALLDATALOAD PUSH1 0x1 PUSH1 0x1 PUSH1 0x40 SHL SUB DUP2 GT ISZERO PUSH2 0x1A20 JUMPI PUSH0 DUP1 REVERT JUMPDEST DUP6 ADD PUSH1 0x1F DUP2 ADD DUP8 SGT PUSH2 0x1A30 JUMPI PUSH0 DUP1 REVERT JUMPDEST PUSH2 0x1A3F DUP8 DUP3 CALLDATALOAD PUSH1 0x20 DUP5 ADD PUSH2 0x1960 JUMP JUMPDEST SWAP2 POP POP SWAP3 SWAP6 SWAP2 SWAP5 POP SWAP3 POP JUMP JUMPDEST PUSH0 DUP1 PUSH1 0x40 DUP4 DUP6 SUB SLT ISZERO PUSH2 0x1A5C JUMPI PUSH0 DUP1 REVERT JUMPDEST PUSH2 0x1A65 DUP4 PUSH2 0x1749 JUMP JUMPDEST SWAP2 POP PUSH2 0x18B2 PUSH1 0x20 DUP5 ADD PUSH2 0x1749 JUMP JUMPDEST PUSH0 DUP3 PUSH1 0x1F DUP4 ADD SLT PUSH2 0x1A82 JUMPI PUSH0 DUP1 REVERT JUMPDEST PUSH2 0xBDD DUP4 DUP4 CALLDATALOAD PUSH1 0x20 DUP6 ADD PUSH2 0x1960 JUMP JUMPDEST PUSH0 DUP1 PUSH1 0x40 DUP4 DUP6 SUB SLT ISZERO PUSH2 0x1AA2 JUMPI PUSH0 DUP1 REVERT JUMPDEST DUP3 CALLDATALOAD PUSH1 0x1 PUSH1 0x1 PUSH1 0x40 SHL SUB DUP2 GT ISZERO PUSH2 0x1AB7 JUMPI PUSH0 DUP1 REVERT JUMPDEST PUSH2 0x1AC3 DUP6 DUP3 DUP7 ADD PUSH2 0x1A73 JUMP JUMPDEST SWAP3 POP POP PUSH1 0x20 DUP4 ADD CALLDATALOAD PUSH1 0x1 PUSH1 0x1 PUSH1 0x40 SHL SUB DUP2 GT ISZERO PUSH2 0x1ADE JUMPI PUSH0 DUP1 REVERT JUMPDEST PUSH2 0x1AEA DUP6 DUP3 DUP7 ADD PUSH2 0x1A73 JUMP JUMPDEST SWAP2 POP POP SWAP3 POP SWAP3 SWAP1 POP JUMP JUMPDEST PUSH1 0x1 DUP2 DUP2 SHR SWAP1 DUP3 AND DUP1 PUSH2 0x1B08 JUMPI PUSH1 0x7F DUP3 AND SWAP2 POP JUMPDEST PUSH1 0x20 DUP3 LT DUP2 SUB PUSH2 0x1B26 JUMPI PUSH4 0x4E487B71 PUSH1 0xE0 SHL PUSH0 MSTORE PUSH1 0x22 PUSH1 0x4 MSTORE PUSH1 0x24 PUSH0 REVERT JUMPDEST POP SWAP2 SWAP1 POP JUMP JUMPDEST PUSH4 0x4E487B71 PUSH1 0xE0 SHL PUSH0 MSTORE PUSH1 0x11 PUSH1 0x4 MSTORE PUSH1 0x24 PUSH0 REVERT JUMPDEST DUP1 DUP3 MUL DUP2 ISZERO DUP3 DUP3 DIV DUP5 EQ OR PUSH2 0x4BC JUMPI PUSH2 0x4BC PUSH2 0x1B2C JUMP JUMPDEST PUSH0 DUP3 PUSH2 0x1B71 JUMPI PUSH4 0x4E487B71 PUSH1 0xE0 SHL PUSH0 MSTORE PUSH1 0x12 PUSH1 0x4 MSTORE PUSH1 0x24 PUSH0 REVERT JUMPDEST POP DIV SWAP1 JUMP JUMPDEST DUP2 DUP2 SUB DUP2 DUP2 GT ISZERO PUSH2 0x4BC JUMPI PUSH2 0x4BC PUSH2 0x1B2C JUMP JUMPDEST SWAP3 DUP4 MSTORE PUSH1 0x1 PUSH1 0x1 PUSH1 0xA0 SHL SUB SWAP2 SWAP1 SWAP2 AND PUSH1 0x20 DUP4 ADD MSTORE PUSH1 0x40 DUP3 ADD MSTORE PUSH1 0x60 ADD SWAP1 JUMP JUMPDEST DUP1 DUP3 ADD DUP1 DUP3 GT ISZERO PUSH2 0x4BC JUMPI PUSH2 0x4BC PUSH2 0x1B2C JUMP JUMPDEST PUSH0 DUP2 MLOAD DUP1 PUSH1 0x20 DUP5 ADD DUP6 MCOPY PUSH0 SWAP4 ADD SWAP3 DUP4 MSTORE POP SWAP1 SWAP2 SWAP1 POP JUMP JUMPDEST PUSH0 PUSH2 0x16B0 PUSH2 0x1BE0 DUP4 DUP7 PUSH2 0x1BBB JUMP JUMPDEST DUP5 PUSH2 0x1BBB JUMP JUMPDEST PUSH1 0x1F DUP3 GT ISZERO PUSH2 0x74C JUMPI DUP1 PUSH0 MSTORE PUSH1 0x20 PUSH0 KECCAK256 PUSH1 0x1F DUP5 ADD PUSH1 0x5 SHR DUP2 ADD PUSH1 0x20 DUP6 LT ISZERO PUSH2 0x1C0B JUMPI POP DUP1 JUMPDEST PUSH1 0x1F DUP5 ADD PUSH1 0x5 SHR DUP3 ADD SWAP2 POP JUMPDEST DUP2 DUP2 LT ISZERO PUSH2 0x12EA JUMPI PUSH0 DUP2 SSTORE PUSH1 0x1 ADD PUSH2 0x1C17 JUMP JUMPDEST DUP2 MLOAD PUSH1 0x1 PUSH1 0x1 PUSH1 0x40 SHL SUB DUP2 GT ISZERO PUSH2 0x1C43 JUMPI PUSH2 0x1C43 PUSH2 0x194C JUMP JUMPDEST PUSH2 0x1C57 DUP2 PUSH2 0x1C51 DUP5 SLOAD PUSH2 0x1AF4 JUMP JUMPDEST DUP5 PUSH2 0x1BE6 JUMP JUMPDEST PUSH1 0x20 PUSH1 0x1F DUP3 GT PUSH1 0x1 DUP2 EQ PUSH2 0x1C89 JUMPI PUSH0 DUP4 ISZERO PUSH2 0x1C72 JUMPI POP DUP5 DUP3 ADD MLOAD JUMPDEST PUSH0 NOT PUSH1 0x3 DUP6 SWAP1 SHL SHR NOT AND PUSH1 0x1 DUP5 SWAP1 SHL OR DUP5 SSTORE PUSH2 0x12EA JUMP JUMPDEST PUSH0 DUP5 DUP2 MSTORE PUSH1 0x20 DUP2 KECCAK256 PUSH1 0x1F NOT DUP6 AND SWAP2 JUMPDEST DUP3 DUP2 LT ISZERO PUSH2 0x1CB8 JUMPI DUP8 DUP6 ADD MLOAD DUP3 SSTORE PUSH1 0x20 SWAP5 DUP6 ADD SWAP5 PUSH1 0x1 SWAP1 SWAP3 ADD SWAP2 ADD PUSH2 0x1C98 JUMP JUMPDEST POP DUP5 DUP3 LT ISZERO PUSH2 0x1CD5 JUMPI DUP7 DUP5 ADD MLOAD PUSH0 NOT PUSH1 0x3 DUP8 SWAP1 SHL PUSH1 0xF8 AND SHR NOT AND DUP2 SSTORE JUMPDEST POP POP POP POP PUSH1 0x1 SWAP1 DUP2 SHL ADD SWAP1 SSTORE POP JUMP JUMPDEST DUP4 DUP2 MSTORE PUSH1 0x60 PUSH1 0x20 DUP3 ADD MSTORE PUSH0 PUSH2 0x1CFC PUSH1 0x60 DUP4 ADD DUP6 PUSH2 0x17A4 JUMP JUMPDEST DUP3 DUP2 SUB PUSH1 0x40 DUP5 ADD MSTORE PUSH2 0x1D0E DUP2 DUP6 PUSH2 0x17A4 JUMP JUMPDEST SWAP7 SWAP6 POP POP POP POP POP POP JUMP JUMPDEST PUSH1 0x1 PUSH1 0x1 PUSH1 0xA0 SHL SUB DUP6 DUP2 AND DUP3 MSTORE DUP5 AND PUSH1 0x20 DUP3 ADD MSTORE PUSH1 0x40 DUP2 ADD DUP4 SWAP1 MSTORE PUSH1 0x80 PUSH1 0x60 DUP3 ADD DUP2 SWAP1 MSTORE PUSH0 SWAP1 PUSH2 0x1D0E SWAP1 DUP4 ADD DUP5 PUSH2 0x17A4 JUMP JUMPDEST PUSH0 PUSH1 0x20 DUP3 DUP5 SUB SLT ISZERO PUSH2 0x1D5A JUMPI PUSH0 DUP1 REVERT JUMPDEST DUP2 MLOAD PUSH2 0xBDD DUP2 PUSH2 0x1719 JUMP INVALID PUSH9 0x747470733A2F2F696E PUSH9 0x6572656E742D736361 PUSH19 0x6C65742D746172736965722E6D7966696C6562 PUSH2 0x7365 0x2E PUSH4 0x6F6D2F69 PUSH17 0x66732F516D5035674E44766F5245477859 CALLVALUE PC TIMESTAMP SLOAD PUSH21 0x68413933733436595775333459656B356973365067 PUSH27 0x67576770472FA2646970667358221220CC50976B0DF94DD12A9EE7 0xC6 0xA9 0x4E SWAP4 DUP10 DUP3 PUSH1 0x95 ADDMOD 0xA8 0x2E DUP15 0xB7 SWAP7 GASLIMIT 0xB7 0xB7 0x24 RETURN PC 0xE PUSH5 0x736F6C6343 STOP ADDMOD BYTE STOP CALLER "
				},
				"gasEstimates": {
					"creation": {
						"codeDepositCost": "1535800",
						"executionCost": "infinite",
						"totalCost": "infinite"
					},
					"external": {
						"MAX_SHARES_PER_TRACK()": "239",
						"SHARE_PRICE_USD()": "305",
						"accumulateRoyalty(uint256)": "28125",
						"approve(address,uint256)": "31553",
						"balanceOf(address)": "2630",
						"createTrack(string,string)": "infinite",
						"getApproved(uint256)": "infinite",
						"getOwnerSharePercentage(uint256,address)": "2908",
						"isApprovedForAll(address,address)": "infinite",
						"name()": "infinite",
						"owner()": "2443",
						"ownerOf(uint256)": "infinite",
						"purchaseShares(uint256,uint256)": "infinite",
						"renounceOwnership()": "infinite",
						"royaltyInfo(uint256,uint256)": "5161",
						"safeTransferFrom(address,address,uint256)": "infinite",
						"safeTransferFrom(address,address,uint256,bytes)": "infinite",
						"setApprovalForAll(address,bool)": "26789",
						"setRoyaltyInfo(address,uint96)": "24940",
						"supportsInterface(bytes4)": "infinite",
						"symbol()": "infinite",
						"tokenURI(uint256)": "infinite",
						"totalSupply()": "2462",
						"tracks(uint256)": "infinite",
						"transferFrom(address,address,uint256)": "infinite",
						"transferOwnership(address)": "28465",
						"withdrawRoyalty(uint256)": "infinite"
					},
					"internal": {
						"_baseURI()": "infinite"
					}
				},
				"methodIdentifiers": {
					"MAX_SHARES_PER_TRACK()": "293945b4",
					"SHARE_PRICE_USD()": "414e8029",
					"accumulateRoyalty(uint256)": "bb86759f",
					"approve(address,uint256)": "095ea7b3",
					"balanceOf(address)": "70a08231",
					"createTrack(string,string)": "f3720cca",
					"getApproved(uint256)": "081812fc",
					"getOwnerSharePercentage(uint256,address)": "343e988c",
					"isApprovedForAll(address,address)": "e985e9c5",
					"name()": "06fdde03",
					"owner()": "8da5cb5b",
					"ownerOf(uint256)": "6352211e",
					"purchaseShares(uint256,uint256)": "d2bcdc60",
					"renounceOwnership()": "715018a6",
					"royaltyInfo(uint256,uint256)": "2a55205a",
					"safeTransferFrom(address,address,uint256)": "42842e0e",
					"safeTransferFrom(address,address,uint256,bytes)": "b88d4fde",
					"setApprovalForAll(address,bool)": "a22cb465",
					"setRoyaltyInfo(address,uint96)": "02fa7c47",
					"supportsInterface(bytes4)": "01ffc9a7",
					"symbol()": "95d89b41",
					"tokenURI(uint256)": "c87b56dd",
					"totalSupply()": "18160ddd",
					"tracks(uint256)": "a2e34586",
					"transferFrom(address,address,uint256)": "23b872dd",
					"transferOwnership(address)": "f2fde38b",
					"withdrawRoyalty(uint256)": "57a2eda9"
				}
			},
			"storageLayout": {
				"storage": [
					{
						"astId": 337,
						"contract": "GumdropsAlbumNFT1.sol:EuphoriaAlbumNFT",
						"label": "_name",
						"offset": 0,
						"slot": "0",
						"type": "t_string_storage"
					},
					{
						"astId": 339,
						"contract": "GumdropsAlbumNFT1.sol:EuphoriaAlbumNFT",
						"label": "_symbol",
						"offset": 0,
						"slot": "1",
						"type": "t_string_storage"
					},
					{
						"astId": 343,
						"contract": "GumdropsAlbumNFT1.sol:EuphoriaAlbumNFT",
						"label": "_owners",
						"offset": 0,
						"slot": "2",
						"type": "t_mapping(t_uint256,t_address)"
					},
					{
						"astId": 347,
						"contract": "GumdropsAlbumNFT1.sol:EuphoriaAlbumNFT",
						"label": "_balances",
						"offset": 0,
						"slot": "3",
						"type": "t_mapping(t_address,t_uint256)"
					},
					{
						"astId": 351,
						"contract": "GumdropsAlbumNFT1.sol:EuphoriaAlbumNFT",
						"label": "_tokenApprovals",
						"offset": 0,
						"slot": "4",
						"type": "t_mapping(t_uint256,t_address)"
					},
					{
						"astId": 357,
						"contract": "GumdropsAlbumNFT1.sol:EuphoriaAlbumNFT",
						"label": "_operatorApprovals",
						"offset": 0,
						"slot": "5",
						"type": "t_mapping(t_address,t_mapping(t_address,t_bool))"
					},
					{
						"astId": 8,
						"contract": "GumdropsAlbumNFT1.sol:EuphoriaAlbumNFT",
						"label": "_owner",
						"offset": 0,
						"slot": "6",
						"type": "t_address"
					},
					{
						"astId": 1496,
						"contract": "GumdropsAlbumNFT1.sol:EuphoriaAlbumNFT",
						"label": "_defaultRoyaltyInfo",
						"offset": 0,
						"slot": "7",
						"type": "t_struct(RoyaltyInfo)1493_storage"
					},
					{
						"astId": 1501,
						"contract": "GumdropsAlbumNFT1.sol:EuphoriaAlbumNFT",
						"label": "_tokenRoyaltyInfo",
						"offset": 0,
						"slot": "8",
						"type": "t_mapping(t_uint256,t_struct(RoyaltyInfo)1493_storage)"
					},
					{
						"astId": 3322,
						"contract": "GumdropsAlbumNFT1.sol:EuphoriaAlbumNFT",
						"label": "tracks",
						"offset": 0,
						"slot": "9",
						"type": "t_mapping(t_uint256,t_struct(Track)3317_storage)"
					},
					{
						"astId": 3325,
						"contract": "GumdropsAlbumNFT1.sol:EuphoriaAlbumNFT",
						"label": "_trackCounter",
						"offset": 0,
						"slot": "10",
						"type": "t_struct(Counter)1766_storage"
					}
				],
				"types": {
					"t_address": {
						"encoding": "inplace",
						"label": "address",
						"numberOfBytes": "20"
					},
					"t_bool": {
						"encoding": "inplace",
						"label": "bool",
						"numberOfBytes": "1"
					},
					"t_mapping(t_address,t_bool)": {
						"encoding": "mapping",
						"key": "t_address",
						"label": "mapping(address => bool)",
						"numberOfBytes": "32",
						"value": "t_bool"
					},
					"t_mapping(t_address,t_mapping(t_address,t_bool))": {
						"encoding": "mapping",
						"key": "t_address",
						"label": "mapping(address => mapping(address => bool))",
						"numberOfBytes": "32",
						"value": "t_mapping(t_address,t_bool)"
					},
					"t_mapping(t_address,t_uint256)": {
						"encoding": "mapping",
						"key": "t_address",
						"label": "mapping(address => uint256)",
						"numberOfBytes": "32",
						"value": "t_uint256"
					},
					"t_mapping(t_uint256,t_address)": {
						"encoding": "mapping",
						"key": "t_uint256",
						"label": "mapping(uint256 => address)",
						"numberOfBytes": "32",
						"value": "t_address"
					},
					"t_mapping(t_uint256,t_struct(RoyaltyInfo)1493_storage)": {
						"encoding": "mapping",
						"key": "t_uint256",
						"label": "mapping(uint256 => struct ERC2981.RoyaltyInfo)",
						"numberOfBytes": "32",
						"value": "t_struct(RoyaltyInfo)1493_storage"
					},
					"t_mapping(t_uint256,t_struct(Track)3317_storage)": {
						"encoding": "mapping",
						"key": "t_uint256",
						"label": "mapping(uint256 => struct EuphoriaAlbumNFT.Track)",
						"numberOfBytes": "32",
						"value": "t_struct(Track)3317_storage"
					},
					"t_string_storage": {
						"encoding": "bytes",
						"label": "string",
						"numberOfBytes": "32"
					},
					"t_struct(Counter)1766_storage": {
						"encoding": "inplace",
						"label": "struct Counters.Counter",
						"members": [
							{
								"astId": 1765,
								"contract": "GumdropsAlbumNFT1.sol:EuphoriaAlbumNFT",
								"label": "_value",
								"offset": 0,
								"slot": "0",
								"type": "t_uint256"
							}
						],
						"numberOfBytes": "32"
					},
					"t_struct(RoyaltyInfo)1493_storage": {
						"encoding": "inplace",
						"label": "struct ERC2981.RoyaltyInfo",
						"members": [
							{
								"astId": 1490,
								"contract": "GumdropsAlbumNFT1.sol:EuphoriaAlbumNFT",
								"label": "receiver",
								"offset": 0,
								"slot": "0",
								"type": "t_address"
							},
							{
								"astId": 1492,
								"contract": "GumdropsAlbumNFT1.sol:EuphoriaAlbumNFT",
								"label": "royaltyFraction",
								"offset": 20,
								"slot": "0",
								"type": "t_uint96"
							}
						],
						"numberOfBytes": "32"
					},
					"t_struct(Track)3317_storage": {
						"encoding": "inplace",
						"label": "struct EuphoriaAlbumNFT.Track",
						"members": [
							{
								"astId": 3302,
								"contract": "GumdropsAlbumNFT1.sol:EuphoriaAlbumNFT",
								"label": "title",
								"offset": 0,
								"slot": "0",
								"type": "t_string_storage"
							},
							{
								"astId": 3304,
								"contract": "GumdropsAlbumNFT1.sol:EuphoriaAlbumNFT",
								"label": "isrc",
								"offset": 0,
								"slot": "1",
								"type": "t_string_storage"
							},
							{
								"astId": 3306,
								"contract": "GumdropsAlbumNFT1.sol:EuphoriaAlbumNFT",
								"label": "pricePerShare",
								"offset": 0,
								"slot": "2",
								"type": "t_uint256"
							},
							{
								"astId": 3308,
								"contract": "GumdropsAlbumNFT1.sol:EuphoriaAlbumNFT",
								"label": "sharesRemaining",
								"offset": 0,
								"slot": "3",
								"type": "t_uint256"
							},
							{
								"astId": 3310,
								"contract": "GumdropsAlbumNFT1.sol:EuphoriaAlbumNFT",
								"label": "isAvailable",
								"offset": 0,
								"slot": "4",
								"type": "t_bool"
							},
							{
								"astId": 3312,
								"contract": "GumdropsAlbumNFT1.sol:EuphoriaAlbumNFT",
								"label": "totalRoyalty",
								"offset": 0,
								"slot": "5",
								"type": "t_uint256"
							},
							{
								"astId": 3316,
								"contract": "GumdropsAlbumNFT1.sol:EuphoriaAlbumNFT",
								"label": "shareOwnership",
								"offset": 0,
								"slot": "6",
								"type": "t_mapping(t_address,t_uint256)"
							}
						],
						"numberOfBytes": "224"
					},
					"t_uint256": {
						"encoding": "inplace",
						"label": "uint256",
						"numberOfBytes": "32"
					},
					"t_uint96": {
						"encoding": "inplace",
						"label": "uint96",
						"numberOfBytes": "12"
					}
				}
			},
			"userdoc": {
				"kind": "user",
				"methods": {},
				"version": 1
			}
		}
	}
}