{
	"totalEclipseNFT.sol": {
		"totalEclipseNFT": {
			"abi": [
				{
					"inputs": [
						{
							"internalType": "uint96",
							"name": "_royaltyFeesInBips",
							"type": "uint96"
						},
						{
							"internalType": "address",
							"name": "_royaltyReceiverAddress",
							"type": "address"
						},
						{
							"internalType": "address",
							"name": "_approvalToVaultAddress",
							"type": "address"
						}
					],
					"stateMutability": "nonpayable",
					"type": "constructor"
				},
				{
					"inputs": [
						{
							"internalType": "uint256",
							"name": "numerator",
							"type": "uint256"
						},
						{
							"internalType": "uint256",
							"name": "denominator",
							"type": "uint256"
						}
					],
					"name": "ERC2981InvalidDefaultRoyalty",
					"type": "error"
				},
				{
					"inputs": [
						{
							"internalType": "address",
							"name": "receiver",
							"type": "address"
						}
					],
					"name": "ERC2981InvalidDefaultRoyaltyReceiver",
					"type": "error"
				},
				{
					"inputs": [
						{
							"internalType": "uint256",
							"name": "tokenId",
							"type": "uint256"
						},
						{
							"internalType": "uint256",
							"name": "numerator",
							"type": "uint256"
						},
						{
							"internalType": "uint256",
							"name": "denominator",
							"type": "uint256"
						}
					],
					"name": "ERC2981InvalidTokenRoyalty",
					"type": "error"
				},
				{
					"inputs": [
						{
							"internalType": "uint256",
							"name": "tokenId",
							"type": "uint256"
						},
						{
							"internalType": "address",
							"name": "receiver",
							"type": "address"
						}
					],
					"name": "ERC2981InvalidTokenRoyaltyReceiver",
					"type": "error"
				},
				{
					"inputs": [
						{
							"internalType": "address",
							"name": "sender",
							"type": "address"
						},
						{
							"internalType": "uint256",
							"name": "tokenId",
							"type": "uint256"
						},
						{
							"internalType": "address",
							"name": "owner",
							"type": "address"
						}
					],
					"name": "ERC721IncorrectOwner",
					"type": "error"
				},
				{
					"inputs": [
						{
							"internalType": "address",
							"name": "operator",
							"type": "address"
						},
						{
							"internalType": "uint256",
							"name": "tokenId",
							"type": "uint256"
						}
					],
					"name": "ERC721InsufficientApproval",
					"type": "error"
				},
				{
					"inputs": [
						{
							"internalType": "address",
							"name": "approver",
							"type": "address"
						}
					],
					"name": "ERC721InvalidApprover",
					"type": "error"
				},
				{
					"inputs": [
						{
							"internalType": "address",
							"name": "operator",
							"type": "address"
						}
					],
					"name": "ERC721InvalidOperator",
					"type": "error"
				},
				{
					"inputs": [
						{
							"internalType": "address",
							"name": "owner",
							"type": "address"
						}
					],
					"name": "ERC721InvalidOwner",
					"type": "error"
				},
				{
					"inputs": [
						{
							"internalType": "address",
							"name": "receiver",
							"type": "address"
						}
					],
					"name": "ERC721InvalidReceiver",
					"type": "error"
				},
				{
					"inputs": [
						{
							"internalType": "address",
							"name": "sender",
							"type": "address"
						}
					],
					"name": "ERC721InvalidSender",
					"type": "error"
				},
				{
					"inputs": [
						{
							"internalType": "uint256",
							"name": "tokenId",
							"type": "uint256"
						}
					],
					"name": "ERC721NonexistentToken",
					"type": "error"
				},
				{
					"inputs": [
						{
							"internalType": "address",
							"name": "owner",
							"type": "address"
						}
					],
					"name": "OwnableInvalidOwner",
					"type": "error"
				},
				{
					"inputs": [
						{
							"internalType": "address",
							"name": "account",
							"type": "address"
						}
					],
					"name": "OwnableUnauthorizedAccount",
					"type": "error"
				},
				{
					"anonymous": false,
					"inputs": [
						{
							"indexed": true,
							"internalType": "address",
							"name": "owner",
							"type": "address"
						},
						{
							"indexed": true,
							"internalType": "address",
							"name": "approved",
							"type": "address"
						},
						{
							"indexed": true,
							"internalType": "uint256",
							"name": "tokenId",
							"type": "uint256"
						}
					],
					"name": "Approval",
					"type": "event"
				},
				{
					"anonymous": false,
					"inputs": [
						{
							"indexed": true,
							"internalType": "address",
							"name": "owner",
							"type": "address"
						},
						{
							"indexed": true,
							"internalType": "address",
							"name": "operator",
							"type": "address"
						},
						{
							"indexed": false,
							"internalType": "bool",
							"name": "approved",
							"type": "bool"
						}
					],
					"name": "ApprovalForAll",
					"type": "event"
				},
				{
					"anonymous": false,
					"inputs": [
						{
							"indexed": true,
							"internalType": "address",
							"name": "previousOwner",
							"type": "address"
						},
						{
							"indexed": true,
							"internalType": "address",
							"name": "newOwner",
							"type": "address"
						}
					],
					"name": "OwnershipTransferred",
					"type": "event"
				},
				{
					"anonymous": false,
					"inputs": [
						{
							"indexed": true,
							"internalType": "address",
							"name": "from",
							"type": "address"
						},
						{
							"indexed": true,
							"internalType": "address",
							"name": "to",
							"type": "address"
						},
						{
							"indexed": true,
							"internalType": "uint256",
							"name": "tokenId",
							"type": "uint256"
						}
					],
					"name": "Transfer",
					"type": "event"
				},
				{
					"inputs": [
						{
							"internalType": "address",
							"name": "to",
							"type": "address"
						},
						{
							"internalType": "uint256",
							"name": "tokenId",
							"type": "uint256"
						}
					],
					"name": "approve",
					"outputs": [],
					"stateMutability": "nonpayable",
					"type": "function"
				},
				{
					"inputs": [
						{
							"internalType": "address",
							"name": "owner",
							"type": "address"
						}
					],
					"name": "balanceOf",
					"outputs": [
						{
							"internalType": "uint256",
							"name": "",
							"type": "uint256"
						}
					],
					"stateMutability": "view",
					"type": "function"
				},
				{
					"inputs": [
						{
							"internalType": "uint256",
							"name": "tokenId",
							"type": "uint256"
						}
					],
					"name": "getApproved",
					"outputs": [
						{
							"internalType": "address",
							"name": "",
							"type": "address"
						}
					],
					"stateMutability": "view",
					"type": "function"
				},
				{
					"inputs": [
						{
							"internalType": "address",
							"name": "owner",
							"type": "address"
						},
						{
							"internalType": "address",
							"name": "operator",
							"type": "address"
						}
					],
					"name": "isApprovedForAll",
					"outputs": [
						{
							"internalType": "bool",
							"name": "",
							"type": "bool"
						}
					],
					"stateMutability": "view",
					"type": "function"
				},
				{
					"inputs": [],
					"name": "name",
					"outputs": [
						{
							"internalType": "string",
							"name": "",
							"type": "string"
						}
					],
					"stateMutability": "view",
					"type": "function"
				},
				{
					"inputs": [],
					"name": "owner",
					"outputs": [
						{
							"internalType": "address",
							"name": "",
							"type": "address"
						}
					],
					"stateMutability": "view",
					"type": "function"
				},
				{
					"inputs": [
						{
							"internalType": "uint256",
							"name": "tokenId",
							"type": "uint256"
						}
					],
					"name": "ownerOf",
					"outputs": [
						{
							"internalType": "address",
							"name": "",
							"type": "address"
						}
					],
					"stateMutability": "view",
					"type": "function"
				},
				{
					"inputs": [],
					"name": "renounceOwnership",
					"outputs": [],
					"stateMutability": "nonpayable",
					"type": "function"
				},
				{
					"inputs": [
						{
							"internalType": "uint256",
							"name": "tokenId",
							"type": "uint256"
						},
						{
							"internalType": "uint256",
							"name": "salePrice",
							"type": "uint256"
						}
					],
					"name": "royaltyInfo",
					"outputs": [
						{
							"internalType": "address",
							"name": "",
							"type": "address"
						},
						{
							"internalType": "uint256",
							"name": "",
							"type": "uint256"
						}
					],
					"stateMutability": "view",
					"type": "function"
				},
				{
					"inputs": [
						{
							"internalType": "address",
							"name": "from",
							"type": "address"
						},
						{
							"internalType": "address",
							"name": "to",
							"type": "address"
						},
						{
							"internalType": "uint256",
							"name": "tokenId",
							"type": "uint256"
						}
					],
					"name": "safeTransferFrom",
					"outputs": [],
					"stateMutability": "nonpayable",
					"type": "function"
				},
				{
					"inputs": [
						{
							"internalType": "address",
							"name": "from",
							"type": "address"
						},
						{
							"internalType": "address",
							"name": "to",
							"type": "address"
						},
						{
							"internalType": "uint256",
							"name": "tokenId",
							"type": "uint256"
						},
						{
							"internalType": "bytes",
							"name": "data",
							"type": "bytes"
						}
					],
					"name": "safeTransferFrom",
					"outputs": [],
					"stateMutability": "nonpayable",
					"type": "function"
				},
				{
					"inputs": [
						{
							"internalType": "address",
							"name": "operator",
							"type": "address"
						},
						{
							"internalType": "bool",
							"name": "approved",
							"type": "bool"
						}
					],
					"name": "setApprovalForAll",
					"outputs": [],
					"stateMutability": "nonpayable",
					"type": "function"
				},
				{
					"inputs": [
						{
							"internalType": "address",
							"name": "_receiver",
							"type": "address"
						},
						{
							"internalType": "uint96",
							"name": "_royaltyFeesInBips",
							"type": "uint96"
						}
					],
					"name": "setRoyaltyInfo",
					"outputs": [],
					"stateMutability": "nonpayable",
					"type": "function"
				},
				{
					"inputs": [
						{
							"internalType": "bytes4",
							"name": "interfaceId",
							"type": "bytes4"
						}
					],
					"name": "supportsInterface",
					"outputs": [
						{
							"internalType": "bool",
							"name": "",
							"type": "bool"
						}
					],
					"stateMutability": "view",
					"type": "function"
				},
				{
					"inputs": [],
					"name": "symbol",
					"outputs": [
						{
							"internalType": "string",
							"name": "",
							"type": "string"
						}
					],
					"stateMutability": "view",
					"type": "function"
				},
				{
					"inputs": [
						{
							"internalType": "uint256",
							"name": "tokenId",
							"type": "uint256"
						}
					],
					"name": "tokenURI",
					"outputs": [
						{
							"internalType": "string",
							"name": "",
							"type": "string"
						}
					],
					"stateMutability": "view",
					"type": "function"
				},
				{
					"inputs": [],
					"name": "totalSupply",
					"outputs": [
						{
							"internalType": "uint256",
							"name": "",
							"type": "uint256"
						}
					],
					"stateMutability": "view",
					"type": "function"
				},
				{
					"inputs": [
						{
							"internalType": "address",
							"name": "from",
							"type": "address"
						},
						{
							"internalType": "address",
							"name": "to",
							"type": "address"
						},
						{
							"internalType": "uint256",
							"name": "tokenId",
							"type": "uint256"
						}
					],
					"name": "transferFrom",
					"outputs": [],
					"stateMutability": "nonpayable",
					"type": "function"
				},
				{
					"inputs": [
						{
							"internalType": "address",
							"name": "newOwner",
							"type": "address"
						}
					],
					"name": "transferOwnership",
					"outputs": [],
					"stateMutability": "nonpayable",
					"type": "function"
				}
			],
			"devdoc": {
				"errors": {
					"ERC2981InvalidDefaultRoyalty(uint256,uint256)": [
						{
							"details": "The default royalty set is invalid (eg. (numerator / denominator) >= 1)."
						}
					],
					"ERC2981InvalidDefaultRoyaltyReceiver(address)": [
						{
							"details": "The default royalty receiver is invalid."
						}
					],
					"ERC2981InvalidTokenRoyalty(uint256,uint256,uint256)": [
						{
							"details": "The royalty set for an specific `tokenId` is invalid (eg. (numerator / denominator) >= 1)."
						}
					],
					"ERC2981InvalidTokenRoyaltyReceiver(uint256,address)": [
						{
							"details": "The royalty receiver for `tokenId` is invalid."
						}
					],
					"ERC721IncorrectOwner(address,uint256,address)": [
						{
							"details": "Indicates an error related to the ownership over a particular token. Used in transfers.",
							"params": {
								"owner": "Address of the current owner of a token.",
								"sender": "Address whose tokens are being transferred.",
								"tokenId": "Identifier number of a token."
							}
						}
					],
					"ERC721InsufficientApproval(address,uint256)": [
						{
							"details": "Indicates a failure with the `operator`’s approval. Used in transfers.",
							"params": {
								"operator": "Address that may be allowed to operate on tokens without being their owner.",
								"tokenId": "Identifier number of a token."
							}
						}
					],
					"ERC721InvalidApprover(address)": [
						{
							"details": "Indicates a failure with the `approver` of a token to be approved. Used in approvals.",
							"params": {
								"approver": "Address initiating an approval operation."
							}
						}
					],
					"ERC721InvalidOperator(address)": [
						{
							"details": "Indicates a failure with the `operator` to be approved. Used in approvals.",
							"params": {
								"operator": "Address that may be allowed to operate on tokens without being their owner."
							}
						}
					],
					"ERC721InvalidOwner(address)": [
						{
							"details": "Indicates that an address can't be an owner. For example, `address(0)` is a forbidden owner in EIP-20. Used in balance queries.",
							"params": {
								"owner": "Address of the current owner of a token."
							}
						}
					],
					"ERC721InvalidReceiver(address)": [
						{
							"details": "Indicates a failure with the token `receiver`. Used in transfers.",
							"params": {
								"receiver": "Address to which tokens are being transferred."
							}
						}
					],
					"ERC721InvalidSender(address)": [
						{
							"details": "Indicates a failure with the token `sender`. Used in transfers.",
							"params": {
								"sender": "Address whose tokens are being transferred."
							}
						}
					],
					"ERC721NonexistentToken(uint256)": [
						{
							"details": "Indicates a `tokenId` whose `owner` is the zero address.",
							"params": {
								"tokenId": "Identifier number of a token."
							}
						}
					],
					"OwnableInvalidOwner(address)": [
						{
							"details": "The owner is not a valid owner account. (eg. `address(0)`)"
						}
					],
					"OwnableUnauthorizedAccount(address)": [
						{
							"details": "The caller account is not authorized to perform an operation."
						}
					]
				},
				"events": {
					"Approval(address,address,uint256)": {
						"details": "Emitted when `owner` enables `approved` to manage the `tokenId` token."
					},
					"ApprovalForAll(address,address,bool)": {
						"details": "Emitted when `owner` enables or disables (`approved`) `operator` to manage all of its assets."
					},
					"Transfer(address,address,uint256)": {
						"details": "Emitted when `tokenId` token is transferred from `from` to `to`."
					}
				},
				"kind": "dev",
				"methods": {
					"approve(address,uint256)": {
						"details": "See {IERC721-approve}."
					},
					"balanceOf(address)": {
						"details": "See {IERC721-balanceOf}."
					},
					"constructor": {
						"params": {
							"_approvalToVaultAddress": "The address approved to operate all NFTs (e.g., for fractionalization).",
							"_royaltyFeesInBips": "The royalty fee percentage in basis points (1% = 100 bips).",
							"_royaltyReceiverAddress": "The address that will receive royalty payments."
						}
					},
					"getApproved(uint256)": {
						"details": "See {IERC721-getApproved}."
					},
					"isApprovedForAll(address,address)": {
						"details": "See {IERC721-isApprovedForAll}."
					},
					"name()": {
						"details": "See {IERC721Metadata-name}."
					},
					"owner()": {
						"details": "Returns the address of the current owner."
					},
					"ownerOf(uint256)": {
						"details": "See {IERC721-ownerOf}."
					},
					"renounceOwnership()": {
						"details": "Leaves the contract without owner. It will not be possible to call `onlyOwner` functions. Can only be called by the current owner. NOTE: Renouncing ownership will leave the contract without an owner, thereby disabling any functionality that is only available to the owner."
					},
					"royaltyInfo(uint256,uint256)": {
						"details": "Returns how much royalty is owed and to whom, based on a sale price that may be denominated in any unit of exchange. The royalty amount is denominated and should be paid in that same unit of exchange."
					},
					"safeTransferFrom(address,address,uint256)": {
						"details": "See {IERC721-safeTransferFrom}."
					},
					"safeTransferFrom(address,address,uint256,bytes)": {
						"details": "See {IERC721-safeTransferFrom}."
					},
					"setApprovalForAll(address,bool)": {
						"details": "See {IERC721-setApprovalForAll}."
					},
					"symbol()": {
						"details": "See {IERC721Metadata-symbol}."
					},
					"tokenURI(uint256)": {
						"details": "See {IERC721Metadata-tokenURI}."
					},
					"transferFrom(address,address,uint256)": {
						"details": "See {IERC721-transferFrom}."
					},
					"transferOwnership(address)": {
						"details": "Transfers ownership of the contract to a new account (`newOwner`). Can only be called by the current owner."
					}
				},
				"version": 1
			},
			"evm": {
				"assembly": "    /* \"totalEclipseNFT.sol\":236:2526  contract totalEclipseNFT is ERC721, Ownable, ERC2981 {... */\n  mstore(0x40, 0x80)\n    /* \"totalEclipseNFT.sol\":327:328  1 */\n  0x01\n    /* \"totalEclipseNFT.sol\":296:328  uint256 private _nextTokenId = 1 */\n  0x09\n  sstore\n    /* \"totalEclipseNFT.sol\":680:1272  constructor(... */\n  callvalue\n  dup1\n  iszero\n  tag_1\n  jumpi\n  0x00\n  dup1\n  revert\ntag_1:\n  pop\n  mload(0x40)\n  sub(codesize, bytecodeSize)\n  dup1\n  bytecodeSize\n  dup4\n  codecopy\n  dup2\n  add\n  0x40\n  dup2\n  swap1\n  mstore\n  tag_2\n  swap2\n  tag_3\n  jump\t// in\ntag_2:\n    /* \"totalEclipseNFT.sol\":858:868  msg.sender */\n  caller\n    /* \"@openzeppelin/contracts/token/ERC721/ERC721.sol\":1381:1494  constructor(string memory name_, string memory symbol_) {... */\n  mload(0x40)\n  dup1\n  0x40\n  add\n  0x40\n  mstore\n  dup1\n  0x0d\n  dup2\n  mstore\n  0x20\n  add\n  shl(0x98, 0x546f74616c2045636c69707365)\n  dup2\n  mstore\n  pop\n  mload(0x40)\n  dup1\n  0x40\n  add\n  0x40\n  mstore\n  dup1\n  0x03\n  dup2\n  mstore\n  0x20\n  add\n  shl(0xe8, 0x544541)\n  dup2\n  mstore\n  pop\n    /* \"@openzeppelin/contracts/token/ERC721/ERC721.sol\":1455:1460  name_ */\n  dup2\n    /* \"@openzeppelin/contracts/token/ERC721/ERC721.sol\":1447:1452  _name */\n  0x00\n    /* \"@openzeppelin/contracts/token/ERC721/ERC721.sol\":1447:1460  _name = name_ */\n  swap1\n  dup2\n  tag_8\n  swap2\n  swap1\n  tag_9\n  jump\t// in\ntag_8:\n  pop\n    /* \"@openzeppelin/contracts/token/ERC721/ERC721.sol\":1470:1477  _symbol */\n  0x01\n    /* \"@openzeppelin/contracts/token/ERC721/ERC721.sol\":1470:1487  _symbol = symbol_ */\n  tag_10\n    /* \"@openzeppelin/contracts/token/ERC721/ERC721.sol\":1480:1487  symbol_ */\n  dup3\n    /* \"@openzeppelin/contracts/token/ERC721/ERC721.sol\":1470:1477  _symbol */\n  dup3\n    /* \"@openzeppelin/contracts/token/ERC721/ERC721.sol\":1470:1487  _symbol = symbol_ */\n  tag_9\n  jump\t// in\ntag_10:\n  pop\n  pop\n  pop\n  sub(shl(0xa0, 0x01), 0x01)\n    /* \"@openzeppelin/contracts/access/Ownable.sol\":1273:1299  initialOwner == address(0) */\n  dup2\n  and\n    /* \"@openzeppelin/contracts/access/Ownable.sol\":1269:1364  if (initialOwner == address(0)) {... */\n  tag_12\n  jumpi\n    /* \"@openzeppelin/contracts/access/Ownable.sol\":1322:1353  OwnableInvalidOwner(address(0)) */\n  mload(0x40)\n  shl(0xe0, 0x1e4fbdf7)\n  dup2\n  mstore\n    /* \"@openzeppelin/contracts/access/Ownable.sol\":1350:1351  0 */\n  0x00\n    /* \"@openzeppelin/contracts/access/Ownable.sol\":1322:1353  OwnableInvalidOwner(address(0)) */\n  0x04\n  dup3\n  add\n    /* \"#utility.yul\":3446:3497   */\n  mstore\n    /* \"#utility.yul\":3419:3437   */\n  0x24\n  add\n    /* \"@openzeppelin/contracts/access/Ownable.sol\":1322:1353  OwnableInvalidOwner(address(0)) */\ntag_13:\n  mload(0x40)\n  dup1\n  swap2\n  sub\n  swap1\n  revert\n    /* \"@openzeppelin/contracts/access/Ownable.sol\":1269:1364  if (initialOwner == address(0)) {... */\ntag_12:\n    /* \"@openzeppelin/contracts/access/Ownable.sol\":1373:1405  _transferOwnership(initialOwner) */\n  tag_15\n    /* \"@openzeppelin/contracts/access/Ownable.sol\":1392:1404  initialOwner */\n  dup2\n    /* \"@openzeppelin/contracts/access/Ownable.sol\":1373:1391  _transferOwnership */\n  tag_16\n    /* \"@openzeppelin/contracts/access/Ownable.sol\":1373:1405  _transferOwnership(initialOwner) */\n  jump\t// in\ntag_15:\n  pop\n    /* \"totalEclipseNFT.sol\":881:940  setRoyaltyInfo(_royaltyReceiverAddress, _royaltyFeesInBips) */\n  tag_18\n    /* \"totalEclipseNFT.sol\":896:919  _royaltyReceiverAddress */\n  dup3\n    /* \"totalEclipseNFT.sol\":921:939  _royaltyFeesInBips */\n  dup5\n    /* \"totalEclipseNFT.sol\":881:895  setRoyaltyInfo */\n  tag_19\n    /* \"totalEclipseNFT.sol\":881:940  setRoyaltyInfo(_royaltyReceiverAddress, _royaltyFeesInBips) */\n  jump\t// in\ntag_18:\n    /* \"totalEclipseNFT.sol\":975:1021  collectiveMinting(_royaltyReceiverAddress, 10) */\n  tag_20\n    /* \"totalEclipseNFT.sol\":993:1016  _royaltyReceiverAddress */\n  dup3\n    /* \"totalEclipseNFT.sol\":1018:1020  10 */\n  0x0a\n    /* \"totalEclipseNFT.sol\":975:992  collectiveMinting */\n  tag_21\n    /* \"totalEclipseNFT.sol\":975:1021  collectiveMinting(_royaltyReceiverAddress, 10) */\n  jump\t// in\ntag_20:\n    /* \"totalEclipseNFT.sol\":1066:1190  _setApprovalForAll(... */\n  tag_22\n    /* \"totalEclipseNFT.sol\":1099:1122  _royaltyReceiverAddress */\n  dup3\n    /* \"totalEclipseNFT.sol\":1137:1160  _approvalToVaultAddress */\n  dup3\n    /* \"totalEclipseNFT.sol\":1175:1179  true */\n  0x01\n    /* \"totalEclipseNFT.sol\":1066:1084  _setApprovalForAll */\n  tag_23\n    /* \"totalEclipseNFT.sol\":1066:1190  _setApprovalForAll(... */\n  jump\t// in\ntag_22:\n    /* \"totalEclipseNFT.sol\":680:1272  constructor(... */\n  pop\n  pop\n  pop\n    /* \"totalEclipseNFT.sol\":236:2526  contract totalEclipseNFT is ERC721, Ownable, ERC2981 {... */\n  jump(tag_153)\n    /* \"@openzeppelin/contracts/access/Ownable.sol\":2912:3099  function _transferOwnership(address newOwner) internal virtual {... */\ntag_16:\n    /* \"@openzeppelin/contracts/access/Ownable.sol\":3004:3010  _owner */\n  0x06\n  dup1\n  sload\n  sub(shl(0xa0, 0x01), 0x01)\n    /* \"@openzeppelin/contracts/access/Ownable.sol\":3020:3037  _owner = newOwner */\n  dup4\n  dup2\n  and\n  not(sub(shl(0xa0, 0x01), 0x01))\n  dup4\n  and\n  dup2\n  or\n  swap1\n  swap4\n  sstore\n    /* \"@openzeppelin/contracts/access/Ownable.sol\":3052:3092  OwnershipTransferred(oldOwner, newOwner) */\n  mload(0x40)\n    /* \"@openzeppelin/contracts/access/Ownable.sol\":3004:3010  _owner */\n  swap2\n  and\n  swap2\n    /* \"@openzeppelin/contracts/access/Ownable.sol\":3020:3037  _owner = newOwner */\n  swap1\n    /* \"@openzeppelin/contracts/access/Ownable.sol\":3004:3010  _owner */\n  dup3\n  swap1\n    /* \"@openzeppelin/contracts/access/Ownable.sol\":3052:3092  OwnershipTransferred(oldOwner, newOwner) */\n  0x8be0079c531659141344cd1fd0a4f28419497f9722a3daafe3b4186f6b6457e0\n  swap1\n    /* \"@openzeppelin/contracts/access/Ownable.sol\":2985:3001  address oldOwner */\n  0x00\n  swap1\n    /* \"@openzeppelin/contracts/access/Ownable.sol\":3052:3092  OwnershipTransferred(oldOwner, newOwner) */\n  log3\n    /* \"@openzeppelin/contracts/access/Ownable.sol\":2975:3099  {... */\n  pop\n    /* \"@openzeppelin/contracts/access/Ownable.sol\":2912:3099  function _transferOwnership(address newOwner) internal virtual {... */\n  pop\n  jump\t// out\n    /* \"totalEclipseNFT.sol\":2134:2312  function setRoyaltyInfo(address _receiver, uint96 _royaltyFeesInBips)... */\ntag_19:\n    /* \"@openzeppelin/contracts/access/Ownable.sol\":1531:1544  _checkOwner() */\n  tag_27\n    /* \"@openzeppelin/contracts/access/Ownable.sol\":1531:1542  _checkOwner */\n  tag_28\n    /* \"@openzeppelin/contracts/access/Ownable.sol\":1531:1544  _checkOwner() */\n  jump\t// in\ntag_27:\n    /* \"totalEclipseNFT.sol\":2255:2304  _setDefaultRoyalty(_receiver, _royaltyFeesInBips) */\n  tag_30\n    /* \"totalEclipseNFT.sol\":2274:2283  _receiver */\n  dup3\n    /* \"totalEclipseNFT.sol\":2285:2303  _royaltyFeesInBips */\n  dup3\n    /* \"totalEclipseNFT.sol\":2255:2273  _setDefaultRoyalty */\n  tag_31\n    /* \"totalEclipseNFT.sol\":2255:2304  _setDefaultRoyalty(_receiver, _royaltyFeesInBips) */\n  jump\t// in\ntag_30:\n    /* \"totalEclipseNFT.sol\":2134:2312  function setRoyaltyInfo(address _receiver, uint96 _royaltyFeesInBips)... */\n  pop\n  pop\n  jump\t// out\n    /* \"totalEclipseNFT.sol\":1636:1895  function collectiveMinting(address _to, uint256 _mintAmount)... */\ntag_21:\n    /* \"@openzeppelin/contracts/access/Ownable.sol\":1531:1544  _checkOwner() */\n  tag_33\n    /* \"@openzeppelin/contracts/access/Ownable.sol\":1531:1542  _checkOwner */\n  tag_28\n    /* \"@openzeppelin/contracts/access/Ownable.sol\":1531:1544  _checkOwner() */\n  jump\t// in\ntag_33:\n    /* \"totalEclipseNFT.sol\":1754:1763  uint256 i */\n  0x00\n    /* \"totalEclipseNFT.sol\":1749:1888  for (uint256 i = 0; i < _mintAmount; i++) {... */\ntag_35:\n    /* \"totalEclipseNFT.sol\":1773:1784  _mintAmount */\n  dup2\n    /* \"totalEclipseNFT.sol\":1769:1770  i */\n  dup2\n    /* \"totalEclipseNFT.sol\":1769:1784  i < _mintAmount */\n  lt\n    /* \"totalEclipseNFT.sol\":1749:1888  for (uint256 i = 0; i < _mintAmount; i++) {... */\n  iszero\n  tag_36\n  jumpi\n    /* \"totalEclipseNFT.sol\":1824:1836  _nextTokenId */\n  0x09\n    /* \"totalEclipseNFT.sol\":1824:1838  _nextTokenId++ */\n  dup1\n  sload\n    /* \"totalEclipseNFT.sol\":1806:1821  uint256 tokenId */\n  0x00\n  swap2\n  dup3\n    /* \"totalEclipseNFT.sol\":1824:1838  _nextTokenId++ */\n  tag_38\n  dup4\n  tag_39\n  jump\t// in\ntag_38:\n  swap1\n  swap2\n  sstore\n  pop\n    /* \"totalEclipseNFT.sol\":1806:1838  uint256 tokenId = _nextTokenId++ */\n  swap1\n  pop\n    /* \"totalEclipseNFT.sol\":1853:1876  _safeMint(_to, tokenId) */\n  tag_40\n    /* \"totalEclipseNFT.sol\":1863:1866  _to */\n  dup5\n    /* \"totalEclipseNFT.sol\":1806:1838  uint256 tokenId = _nextTokenId++ */\n  dup3\n    /* \"totalEclipseNFT.sol\":1853:1862  _safeMint */\n  tag_41\n    /* \"totalEclipseNFT.sol\":1853:1876  _safeMint(_to, tokenId) */\n  jump\t// in\ntag_40:\n  pop\n    /* \"totalEclipseNFT.sol\":1786:1789  i++ */\n  0x01\n  add\n    /* \"totalEclipseNFT.sol\":1749:1888  for (uint256 i = 0; i < _mintAmount; i++) {... */\n  jump(tag_35)\ntag_36:\n  pop\n    /* \"totalEclipseNFT.sol\":1636:1895  function collectiveMinting(address _to, uint256 _mintAmount)... */\n  pop\n  pop\n  jump\t// out\n    /* \"@openzeppelin/contracts/token/ERC721/ERC721.sol\":15591:15903  function _setApprovalForAll(address owner, address operator, bool approved) internal virtual {... */\ntag_23:\n  sub(shl(0xa0, 0x01), 0x01)\n    /* \"@openzeppelin/contracts/token/ERC721/ERC721.sol\":15698:15720  operator == address(0) */\n  dup3\n  and\n    /* \"@openzeppelin/contracts/token/ERC721/ERC721.sol\":15694:15785  if (operator == address(0)) {... */\n  tag_43\n  jumpi\n    /* \"@openzeppelin/contracts/token/ERC721/ERC721.sol\":15743:15774  ERC721InvalidOperator(operator) */\n  mload(0x40)\n  shl(0xe3, 0x0b611743)\n  dup2\n  mstore\n  sub(shl(0xa0, 0x01), 0x01)\n    /* \"#utility.yul\":3464:3496   */\n  dup4\n  and\n    /* \"@openzeppelin/contracts/token/ERC721/ERC721.sol\":15743:15774  ERC721InvalidOperator(operator) */\n  0x04\n  dup3\n  add\n    /* \"#utility.yul\":3446:3497   */\n  mstore\n    /* \"#utility.yul\":3419:3437   */\n  0x24\n  add\n    /* \"@openzeppelin/contracts/token/ERC721/ERC721.sol\":15743:15774  ERC721InvalidOperator(operator) */\n  tag_13\n    /* \"#utility.yul\":3300:3503   */\n  jump\n    /* \"@openzeppelin/contracts/token/ERC721/ERC721.sol\":15694:15785  if (operator == address(0)) {... */\ntag_43:\n  sub(shl(0xa0, 0x01), 0x01)\n    /* \"@openzeppelin/contracts/token/ERC721/ERC721.sol\":15794:15819  _operatorApprovals[owner] */\n  dup4\n  dup2\n  and\n  0x00\n  dup2\n  dup2\n  mstore\n    /* \"@openzeppelin/contracts/token/ERC721/ERC721.sol\":15794:15812  _operatorApprovals */\n  0x05\n    /* \"@openzeppelin/contracts/token/ERC721/ERC721.sol\":15794:15819  _operatorApprovals[owner] */\n  0x20\n  swap1\n  dup2\n  mstore\n  0x40\n  dup1\n  dup4\n  keccak256\n    /* \"@openzeppelin/contracts/token/ERC721/ERC721.sol\":15794:15829  _operatorApprovals[owner][operator] */\n  swap5\n  dup8\n  and\n  dup1\n  dup5\n  mstore\n  swap5\n  dup3\n  mstore\n  swap2\n  dup3\n  swap1\n  keccak256\n    /* \"@openzeppelin/contracts/token/ERC721/ERC721.sol\":15794:15840  _operatorApprovals[owner][operator] = approved */\n  dup1\n  sload\n  not(0xff)\n  and\n  dup7\n  iszero\n  iszero\n  swap1\n  dup2\n  or\n  swap1\n  swap2\n  sstore\n    /* \"@openzeppelin/contracts/token/ERC721/ERC721.sol\":15855:15896  ApprovalForAll(owner, operator, approved) */\n  swap2\n  mload\n    /* \"#utility.yul\":3885:3926   */\n  swap2\n  dup3\n  mstore\n    /* \"@openzeppelin/contracts/token/ERC721/ERC721.sol\":15855:15896  ApprovalForAll(owner, operator, approved) */\n  0x17307eab39ab6107e8899845ad3d59bd9653f200f220920489ca2b5937696c31\n  swap2\n    /* \"#utility.yul\":3858:3876   */\n  add\n    /* \"@openzeppelin/contracts/token/ERC721/ERC721.sol\":15855:15896  ApprovalForAll(owner, operator, approved) */\n  mload(0x40)\n  dup1\n  swap2\n  sub\n  swap1\n  log3\n    /* \"@openzeppelin/contracts/token/ERC721/ERC721.sol\":15591:15903  function _setApprovalForAll(address owner, address operator, bool approved) internal virtual {... */\n  pop\n  pop\n  pop\n  jump\t// out\n    /* \"@openzeppelin/contracts/access/Ownable.sol\":1796:1958  function _checkOwner() internal view virtual {... */\ntag_28:\n    /* \"@openzeppelin/contracts/access/Ownable.sol\":1710:1716  _owner */\n  and(sub(shl(0xa0, 0x01), 0x01), sload(0x06))\n    /* \"@openzeppelin/contracts/utils/Context.sol\":735:745  msg.sender */\n  caller\n    /* \"@openzeppelin/contracts/access/Ownable.sol\":1855:1878  owner() != _msgSender() */\n  eq\n    /* \"@openzeppelin/contracts/access/Ownable.sol\":1851:1952  if (owner() != _msgSender()) {... */\n  tag_52\n  jumpi\n    /* \"@openzeppelin/contracts/access/Ownable.sol\":1901:1941  OwnableUnauthorizedAccount(_msgSender()) */\n  mload(0x40)\n  shl(0xe0, 0x118cdaa7)\n  dup2\n  mstore\n    /* \"@openzeppelin/contracts/utils/Context.sol\":735:745  msg.sender */\n  caller\n    /* \"@openzeppelin/contracts/access/Ownable.sol\":1901:1941  OwnableUnauthorizedAccount(_msgSender()) */\n  0x04\n  dup3\n  add\n    /* \"#utility.yul\":3446:3497   */\n  mstore\n    /* \"#utility.yul\":3419:3437   */\n  0x24\n  add\n    /* \"@openzeppelin/contracts/access/Ownable.sol\":1901:1941  OwnableUnauthorizedAccount(_msgSender()) */\n  tag_13\n    /* \"#utility.yul\":3300:3503   */\n  jump\n    /* \"@openzeppelin/contracts/access/Ownable.sol\":1851:1952  if (owner() != _msgSender()) {... */\ntag_52:\n    /* \"@openzeppelin/contracts/access/Ownable.sol\":1796:1958  function _checkOwner() internal view virtual {... */\n  jump\t// out\n    /* \"@openzeppelin/contracts/token/common/ERC2981.sol\":3429:3936  function _setDefaultRoyalty(address receiver, uint96 feeNumerator) internal virtual {... */\ntag_31:\n    /* \"@openzeppelin/contracts/token/common/ERC2981.sol\":3156:3161  10000 */\n  0x2710\n  sub(shl(0x60, 0x01), 0x01)\n    /* \"@openzeppelin/contracts/token/common/ERC2981.sol\":3576:3602  feeNumerator > denominator */\n  dup3\n  and\n  dup2\n  lt\n    /* \"@openzeppelin/contracts/token/common/ERC2981.sol\":3572:3745  if (feeNumerator > denominator) {... */\n  iszero\n  tag_58\n  jumpi\n    /* \"@openzeppelin/contracts/token/common/ERC2981.sol\":3679:3734  ERC2981InvalidDefaultRoyalty(feeNumerator, denominator) */\n  mload(0x40)\n  shl(0xe0, 0x6f483d09)\n  dup2\n  mstore\n  sub(shl(0x60, 0x01), 0x01)\n    /* \"#utility.yul\":4128:4159   */\n  dup4\n  and\n    /* \"@openzeppelin/contracts/token/common/ERC2981.sol\":3679:3734  ERC2981InvalidDefaultRoyalty(feeNumerator, denominator) */\n  0x04\n  dup3\n  add\n    /* \"#utility.yul\":4110:4160   */\n  mstore\n    /* \"#utility.yul\":4176:4194   */\n  0x24\n  dup2\n  add\n    /* \"#utility.yul\":4169:4203   */\n  dup3\n  swap1\n  mstore\n    /* \"#utility.yul\":4083:4101   */\n  0x44\n  add\n    /* \"@openzeppelin/contracts/token/common/ERC2981.sol\":3679:3734  ERC2981InvalidDefaultRoyalty(feeNumerator, denominator) */\n  tag_13\n    /* \"#utility.yul\":3937:4209   */\n  jump\n    /* \"@openzeppelin/contracts/token/common/ERC2981.sol\":3572:3745  if (feeNumerator > denominator) {... */\ntag_58:\n  sub(shl(0xa0, 0x01), 0x01)\n    /* \"@openzeppelin/contracts/token/common/ERC2981.sol\":3758:3780  receiver == address(0) */\n  dup4\n  and\n    /* \"@openzeppelin/contracts/token/common/ERC2981.sol\":3754:3862  if (receiver == address(0)) {... */\n  tag_61\n  jumpi\n    /* \"@openzeppelin/contracts/token/common/ERC2981.sol\":3803:3851  ERC2981InvalidDefaultRoyaltyReceiver(address(0)) */\n  mload(0x40)\n  shl(0xe1, 0x5b6cc805)\n  dup2\n  mstore\n    /* \"@openzeppelin/contracts/token/common/ERC2981.sol\":3848:3849  0 */\n  0x00\n    /* \"@openzeppelin/contracts/token/common/ERC2981.sol\":3803:3851  ERC2981InvalidDefaultRoyaltyReceiver(address(0)) */\n  0x04\n  dup3\n  add\n    /* \"#utility.yul\":3446:3497   */\n  mstore\n    /* \"#utility.yul\":3419:3437   */\n  0x24\n  add\n    /* \"@openzeppelin/contracts/token/common/ERC2981.sol\":3803:3851  ERC2981InvalidDefaultRoyaltyReceiver(address(0)) */\n  tag_13\n    /* \"#utility.yul\":3300:3503   */\n  jump\n    /* \"@openzeppelin/contracts/token/common/ERC2981.sol\":3754:3862  if (receiver == address(0)) {... */\ntag_61:\n  pop\n    /* \"@openzeppelin/contracts/token/common/ERC2981.sol\":3894:3929  RoyaltyInfo(receiver, feeNumerator) */\n  0x40\n  dup1\n  mload\n  dup1\n  dup3\n  add\n  swap1\n  swap2\n  mstore\n  sub(shl(0xa0, 0x01), 0x01)\n  swap1\n  swap3\n  and\n  dup1\n  dup4\n  mstore\n  sub(shl(0x60, 0x01), 0x01)\n  swap1\n  swap2\n  and\n  0x20\n  swap1\n  swap3\n  add\n  dup3\n  swap1\n  mstore\n  shl(0xa0, 0x01)\n    /* \"@openzeppelin/contracts/token/common/ERC2981.sol\":3872:3929  _defaultRoyaltyInfo = RoyaltyInfo(receiver, feeNumerator) */\n  swap1\n  swap2\n  mul\n  or\n    /* \"@openzeppelin/contracts/token/common/ERC2981.sol\":3872:3891  _defaultRoyaltyInfo */\n  0x07\n    /* \"@openzeppelin/contracts/token/common/ERC2981.sol\":3872:3929  _defaultRoyaltyInfo = RoyaltyInfo(receiver, feeNumerator) */\n  sstore\n    /* \"@openzeppelin/contracts/token/common/ERC2981.sol\":3429:3936  function _setDefaultRoyalty(address receiver, uint96 feeNumerator) internal virtual {... */\n  jump\t// out\n    /* \"@openzeppelin/contracts/token/ERC721/ERC721.sol\":10633:10733  function _safeMint(address to, uint256 tokenId) internal {... */\ntag_41:\n    /* \"@openzeppelin/contracts/token/ERC721/ERC721.sol\":10700:10726  _safeMint(to, tokenId, \"\") */\n  tag_30\n    /* \"@openzeppelin/contracts/token/ERC721/ERC721.sol\":10710:10712  to */\n  dup3\n    /* \"@openzeppelin/contracts/token/ERC721/ERC721.sol\":10714:10721  tokenId */\n  dup3\n    /* \"@openzeppelin/contracts/token/ERC721/ERC721.sol\":10700:10726  _safeMint(to, tokenId, \"\") */\n  mload(0x40)\n  dup1\n  0x20\n  add\n  0x40\n  mstore\n  dup1\n  0x00\n  dup2\n  mstore\n  pop\n    /* \"@openzeppelin/contracts/token/ERC721/ERC721.sol\":10700:10709  _safeMint */\n  shl(0x20, tag_65)\n    /* \"@openzeppelin/contracts/token/ERC721/ERC721.sol\":10700:10726  _safeMint(to, tokenId, \"\") */\n  0x20\n  shr\n  jump\t// in\n    /* \"@openzeppelin/contracts/token/ERC721/ERC721.sol\":10954:11136  function _safeMint(address to, uint256 tokenId, bytes memory data) internal virtual {... */\ntag_65:\n    /* \"@openzeppelin/contracts/token/ERC721/ERC721.sol\":11048:11066  _mint(to, tokenId) */\n  tag_70\n    /* \"@openzeppelin/contracts/token/ERC721/ERC721.sol\":11054:11056  to */\n  dup4\n    /* \"@openzeppelin/contracts/token/ERC721/ERC721.sol\":11058:11065  tokenId */\n  dup4\n    /* \"@openzeppelin/contracts/token/ERC721/ERC721.sol\":11048:11053  _mint */\n  tag_71\n    /* \"@openzeppelin/contracts/token/ERC721/ERC721.sol\":11048:11066  _mint(to, tokenId) */\n  jump\t// in\ntag_70:\n    /* \"@openzeppelin/contracts/token/ERC721/ERC721.sol\":11076:11129  _checkOnERC721Received(address(0), to, tokenId, data) */\n  tag_36\n    /* \"@openzeppelin/contracts/token/ERC721/ERC721.sol\":11107:11108  0 */\n  0x00\n    /* \"@openzeppelin/contracts/token/ERC721/ERC721.sol\":11111:11113  to */\n  dup5\n    /* \"@openzeppelin/contracts/token/ERC721/ERC721.sol\":11115:11122  tokenId */\n  dup5\n    /* \"@openzeppelin/contracts/token/ERC721/ERC721.sol\":11124:11128  data */\n  dup5\n    /* \"@openzeppelin/contracts/token/ERC721/ERC721.sol\":11076:11098  _checkOnERC721Received */\n  tag_73\n    /* \"@openzeppelin/contracts/token/ERC721/ERC721.sol\":11076:11129  _checkOnERC721Received(address(0), to, tokenId, data) */\n  jump\t// in\n    /* \"@openzeppelin/contracts/token/ERC721/ERC721.sol\":9955:10282  function _mint(address to, uint256 tokenId) internal {... */\ntag_71:\n  sub(shl(0xa0, 0x01), 0x01)\n    /* \"@openzeppelin/contracts/token/ERC721/ERC721.sol\":10022:10038  to == address(0) */\n  dup3\n  and\n    /* \"@openzeppelin/contracts/token/ERC721/ERC721.sol\":10018:10105  if (to == address(0)) {... */\n  tag_75\n  jumpi\n    /* \"@openzeppelin/contracts/token/ERC721/ERC721.sol\":10061:10094  ERC721InvalidReceiver(address(0)) */\n  mload(0x40)\n  shl(0xe1, 0x32505749)\n  dup2\n  mstore\n    /* \"@openzeppelin/contracts/token/ERC721/ERC721.sol\":10091:10092  0 */\n  0x00\n    /* \"@openzeppelin/contracts/token/ERC721/ERC721.sol\":10061:10094  ERC721InvalidReceiver(address(0)) */\n  0x04\n  dup3\n  add\n    /* \"#utility.yul\":3446:3497   */\n  mstore\n    /* \"#utility.yul\":3419:3437   */\n  0x24\n  add\n    /* \"@openzeppelin/contracts/token/ERC721/ERC721.sol\":10061:10094  ERC721InvalidReceiver(address(0)) */\n  tag_13\n    /* \"#utility.yul\":3300:3503   */\n  jump\n    /* \"@openzeppelin/contracts/token/ERC721/ERC721.sol\":10018:10105  if (to == address(0)) {... */\ntag_75:\n    /* \"@openzeppelin/contracts/token/ERC721/ERC721.sol\":10114:10135  address previousOwner */\n  0x00\n    /* \"@openzeppelin/contracts/token/ERC721/ERC721.sol\":10138:10170  _update(to, tokenId, address(0)) */\n  tag_77\n    /* \"@openzeppelin/contracts/token/ERC721/ERC721.sol\":10146:10148  to */\n  dup4\n    /* \"@openzeppelin/contracts/token/ERC721/ERC721.sol\":10150:10157  tokenId */\n  dup4\n    /* \"@openzeppelin/contracts/token/ERC721/ERC721.sol\":10114:10135  address previousOwner */\n  dup4\n    /* \"@openzeppelin/contracts/token/ERC721/ERC721.sol\":10138:10145  _update */\n  tag_78\n    /* \"@openzeppelin/contracts/token/ERC721/ERC721.sol\":10138:10170  _update(to, tokenId, address(0)) */\n  jump\t// in\ntag_77:\n    /* \"@openzeppelin/contracts/token/ERC721/ERC721.sol\":10114:10170  address previousOwner = _update(to, tokenId, address(0)) */\n  swap1\n  pop\n  sub(shl(0xa0, 0x01), 0x01)\n    /* \"@openzeppelin/contracts/token/ERC721/ERC721.sol\":10184:10211  previousOwner != address(0) */\n  dup2\n  and\n  iszero\n    /* \"@openzeppelin/contracts/token/ERC721/ERC721.sol\":10180:10276  if (previousOwner != address(0)) {... */\n  tag_36\n  jumpi\n    /* \"@openzeppelin/contracts/token/ERC721/ERC721.sol\":10234:10265  ERC721InvalidSender(address(0)) */\n  mload(0x40)\n  shl(0xe1, 0x39e35637)\n  dup2\n  mstore\n    /* \"@openzeppelin/contracts/token/ERC721/ERC721.sol\":10262:10263  0 */\n  0x00\n    /* \"@openzeppelin/contracts/token/ERC721/ERC721.sol\":10234:10265  ERC721InvalidSender(address(0)) */\n  0x04\n  dup3\n  add\n    /* \"#utility.yul\":3446:3497   */\n  mstore\n    /* \"#utility.yul\":3419:3437   */\n  0x24\n  add\n    /* \"@openzeppelin/contracts/token/ERC721/ERC721.sol\":10234:10265  ERC721InvalidSender(address(0)) */\n  tag_13\n    /* \"#utility.yul\":3300:3503   */\n  jump\n    /* \"@openzeppelin/contracts/token/ERC721/ERC721.sol\":16918:17700  function _checkOnERC721Received(address from, address to, uint256 tokenId, bytes memory data) private {... */\ntag_73:\n  sub(shl(0xa0, 0x01), 0x01)\n    /* \"@openzeppelin/contracts/token/ERC721/ERC721.sol\":17034:17048  to.code.length */\n  dup4\n  and\n  extcodesize\n    /* \"@openzeppelin/contracts/token/ERC721/ERC721.sol\":17034:17052  to.code.length > 0 */\n  iszero\n    /* \"@openzeppelin/contracts/token/ERC721/ERC721.sol\":17030:17694  if (to.code.length > 0) {... */\n  tag_98\n  jumpi\n    /* \"@openzeppelin/contracts/token/ERC721/ERC721.sol\":17072:17143  IERC721Receiver(to).onERC721Received(_msgSender(), from, tokenId, data) */\n  mload(0x40)\n  shl(0xe1, 0x0a85bd01)\n  dup2\n  mstore\n  sub(shl(0xa0, 0x01), 0x01)\n    /* \"@openzeppelin/contracts/token/ERC721/ERC721.sol\":17072:17108  IERC721Receiver(to).onERC721Received */\n  dup5\n  and\n  swap1\n  0x150b7a02\n  swap1\n    /* \"@openzeppelin/contracts/token/ERC721/ERC721.sol\":17072:17143  IERC721Receiver(to).onERC721Received(_msgSender(), from, tokenId, data) */\n  tag_84\n  swap1\n    /* \"@openzeppelin/contracts/utils/Context.sol\":735:745  msg.sender */\n  caller\n  swap1\n    /* \"@openzeppelin/contracts/token/ERC721/ERC721.sol\":17123:17127  from */\n  dup9\n  swap1\n    /* \"@openzeppelin/contracts/token/ERC721/ERC721.sol\":17129:17136  tokenId */\n  dup8\n  swap1\n    /* \"@openzeppelin/contracts/token/ERC721/ERC721.sol\":17138:17142  data */\n  dup8\n  swap1\n    /* \"@openzeppelin/contracts/token/ERC721/ERC721.sol\":17072:17143  IERC721Receiver(to).onERC721Received(_msgSender(), from, tokenId, data) */\n  0x04\n  add\n  tag_85\n  jump\t// in\ntag_84:\n  0x20\n  mload(0x40)\n  dup1\n  dup4\n  sub\n  dup2\n  0x00\n  dup8\n  gas\n  call\n  swap3\n  pop\n  pop\n  pop\n  dup1\n  iszero\n  tag_86\n  jumpi\n  pop\n  0x40\n  dup1\n  mload\n  0x1f\n  returndatasize\n  swap1\n  dup2\n  add\n  not(0x1f)\n  and\n  dup3\n  add\n  swap1\n  swap3\n  mstore\n  tag_87\n  swap2\n  dup2\n  add\n  swap1\n  tag_88\n  jump\t// in\ntag_87:\n  0x01\ntag_86:\n    /* \"@openzeppelin/contracts/token/ERC721/ERC721.sol\":17068:17684  try IERC721Receiver(to).onERC721Received(_msgSender(), from, tokenId, data) returns (bytes4 retval) {... */\n  tag_89\n  jumpi\n  returndatasize\n  dup1\n  dup1\n  iszero\n  tag_94\n  jumpi\n  mload(0x40)\n  swap2\n  pop\n  and(add(returndatasize, 0x3f), not(0x1f))\n  dup3\n  add\n  0x40\n  mstore\n  returndatasize\n  dup3\n  mstore\n  returndatasize\n  0x00\n  0x20\n  dup5\n  add\n  returndatacopy\n  jump(tag_93)\ntag_94:\n  0x60\n  swap2\n  pop\ntag_93:\n  pop\n    /* \"@openzeppelin/contracts/token/ERC721/ERC721.sol\":17381:17387  reason */\n  dup1\n    /* \"@openzeppelin/contracts/token/ERC721/ERC721.sol\":17381:17394  reason.length */\n  mload\n    /* \"@openzeppelin/contracts/token/ERC721/ERC721.sol\":17398:17399  0 */\n  0x00\n    /* \"@openzeppelin/contracts/token/ERC721/ERC721.sol\":17381:17399  reason.length == 0 */\n  sub\n    /* \"@openzeppelin/contracts/token/ERC721/ERC721.sol\":17377:17670  if (reason.length == 0) {... */\n  tag_95\n  jumpi\n    /* \"@openzeppelin/contracts/token/ERC721/ERC721.sol\":17430:17455  ERC721InvalidReceiver(to) */\n  mload(0x40)\n  shl(0xe1, 0x32505749)\n  dup2\n  mstore\n  sub(shl(0xa0, 0x01), 0x01)\n    /* \"#utility.yul\":3464:3496   */\n  dup6\n  and\n    /* \"@openzeppelin/contracts/token/ERC721/ERC721.sol\":17430:17455  ERC721InvalidReceiver(to) */\n  0x04\n  dup3\n  add\n    /* \"#utility.yul\":3446:3497   */\n  mstore\n    /* \"#utility.yul\":3419:3437   */\n  0x24\n  add\n    /* \"@openzeppelin/contracts/token/ERC721/ERC721.sol\":17430:17455  ERC721InvalidReceiver(to) */\n  tag_13\n    /* \"#utility.yul\":3300:3503   */\n  jump\n    /* \"@openzeppelin/contracts/token/ERC721/ERC721.sol\":17377:17670  if (reason.length == 0) {... */\ntag_95:\n    /* \"@openzeppelin/contracts/token/ERC721/ERC721.sol\":17622:17628  reason */\n  dup1\n    /* \"@openzeppelin/contracts/token/ERC721/ERC721.sol\":17616:17629  mload(reason) */\n  mload\n    /* \"@openzeppelin/contracts/token/ERC721/ERC721.sol\":17607:17613  reason */\n  dup2\n    /* \"@openzeppelin/contracts/token/ERC721/ERC721.sol\":17603:17605  32 */\n  0x20\n    /* \"@openzeppelin/contracts/token/ERC721/ERC721.sol\":17599:17614  add(32, reason) */\n  add\n    /* \"@openzeppelin/contracts/token/ERC721/ERC721.sol\":17592:17630  revert(add(32, reason), mload(reason)) */\n  revert\n    /* \"@openzeppelin/contracts/token/ERC721/ERC721.sol\":17068:17684  try IERC721Receiver(to).onERC721Received(_msgSender(), from, tokenId, data) returns (bytes4 retval) {... */\ntag_89:\n  not(sub(shl(0xe0, 0x01), 0x01))\n    /* \"@openzeppelin/contracts/token/ERC721/ERC721.sol\":17190:17241  retval != IERC721Receiver.onERC721Received.selector */\n  dup2\n  and\n  shl(0xe1, 0x0a85bd01)\n  eq\n    /* \"@openzeppelin/contracts/token/ERC721/ERC721.sol\":17186:17316  if (retval != IERC721Receiver.onERC721Received.selector) {... */\n  tag_99\n  jumpi\n    /* \"@openzeppelin/contracts/token/ERC721/ERC721.sol\":17272:17297  ERC721InvalidReceiver(to) */\n  mload(0x40)\n  shl(0xe1, 0x32505749)\n  dup2\n  mstore\n  sub(shl(0xa0, 0x01), 0x01)\n    /* \"#utility.yul\":3464:3496   */\n  dup6\n  and\n    /* \"@openzeppelin/contracts/token/ERC721/ERC721.sol\":17272:17297  ERC721InvalidReceiver(to) */\n  0x04\n  dup3\n  add\n    /* \"#utility.yul\":3446:3497   */\n  mstore\n    /* \"#utility.yul\":3419:3437   */\n  0x24\n  add\n    /* \"@openzeppelin/contracts/token/ERC721/ERC721.sol\":17272:17297  ERC721InvalidReceiver(to) */\n  tag_13\n    /* \"#utility.yul\":3300:3503   */\n  jump\n    /* \"@openzeppelin/contracts/token/ERC721/ERC721.sol\":17186:17316  if (retval != IERC721Receiver.onERC721Received.selector) {... */\ntag_99:\n    /* \"@openzeppelin/contracts/token/ERC721/ERC721.sol\":17144:17330  returns (bytes4 retval) {... */\n  pop\n    /* \"@openzeppelin/contracts/token/ERC721/ERC721.sol\":17068:17684  try IERC721Receiver(to).onERC721Received(_msgSender(), from, tokenId, data) returns (bytes4 retval) {... */\ntag_98:\n    /* \"@openzeppelin/contracts/token/ERC721/ERC721.sol\":16918:17700  function _checkOnERC721Received(address from, address to, uint256 tokenId, bytes memory data) private {... */\n  pop\n  pop\n  pop\n  pop\n  jump\t// out\n    /* \"@openzeppelin/contracts/token/ERC721/ERC721.sol\":8838:9633  function _update(address to, uint256 tokenId, address auth) internal virtual returns (address) {... */\ntag_78:\n    /* \"@openzeppelin/contracts/token/ERC721/ERC721.sol\":8924:8931  address */\n  0x00\n    /* \"@openzeppelin/contracts/token/ERC721/ERC721.sol\":5799:5815  _owners[tokenId] */\n  dup3\n  dup2\n  mstore\n    /* \"@openzeppelin/contracts/token/ERC721/ERC721.sol\":5799:5806  _owners */\n  0x02\n    /* \"@openzeppelin/contracts/token/ERC721/ERC721.sol\":5799:5815  _owners[tokenId] */\n  0x20\n  mstore\n  0x40\n  dup2\n  keccak256\n  sload\n  sub(shl(0xa0, 0x01), 0x01)\n  swap1\n  dup2\n  and\n  swap1\n    /* \"@openzeppelin/contracts/token/ERC721/ERC721.sol\":9035:9053  auth != address(0) */\n  dup4\n  and\n  iszero\n    /* \"@openzeppelin/contracts/token/ERC721/ERC721.sol\":9031:9117  if (auth != address(0)) {... */\n  tag_105\n  jumpi\n    /* \"@openzeppelin/contracts/token/ERC721/ERC721.sol\":9069:9106  _checkAuthorized(from, auth, tokenId) */\n  tag_105\n    /* \"@openzeppelin/contracts/token/ERC721/ERC721.sol\":9086:9090  from */\n  dup2\n    /* \"@openzeppelin/contracts/token/ERC721/ERC721.sol\":9092:9096  auth */\n  dup5\n    /* \"@openzeppelin/contracts/token/ERC721/ERC721.sol\":9098:9105  tokenId */\n  dup7\n    /* \"@openzeppelin/contracts/token/ERC721/ERC721.sol\":9069:9085  _checkAuthorized */\n  tag_106\n    /* \"@openzeppelin/contracts/token/ERC721/ERC721.sol\":9069:9106  _checkAuthorized(from, auth, tokenId) */\n  jump\t// in\ntag_105:\n  sub(shl(0xa0, 0x01), 0x01)\n    /* \"@openzeppelin/contracts/token/ERC721/ERC721.sol\":9161:9179  from != address(0) */\n  dup2\n  and\n  iszero\n    /* \"@openzeppelin/contracts/token/ERC721/ERC721.sol\":9157:9413  if (from != address(0)) {... */\n  tag_107\n  jumpi\n    /* \"@openzeppelin/contracts/token/ERC721/ERC721.sol\":9277:9325  _approve(address(0), tokenId, address(0), false) */\n  tag_108\n    /* \"@openzeppelin/contracts/token/ERC721/ERC721.sol\":9294:9295  0 */\n  0x00\n    /* \"@openzeppelin/contracts/token/ERC721/ERC721.sol\":9298:9305  tokenId */\n  dup6\n    /* \"@openzeppelin/contracts/token/ERC721/ERC721.sol\":9294:9295  0 */\n  dup2\n  dup1\n    /* \"@openzeppelin/contracts/token/ERC721/ERC721.sol\":9277:9285  _approve */\n  tag_109\n    /* \"@openzeppelin/contracts/token/ERC721/ERC721.sol\":9277:9325  _approve(address(0), tokenId, address(0), false) */\n  jump\t// in\ntag_108:\n  sub(shl(0xa0, 0x01), 0x01)\n    /* \"@openzeppelin/contracts/token/ERC721/ERC721.sol\":9368:9383  _balances[from] */\n  dup2\n  and\n  0x00\n  swap1\n  dup2\n  mstore\n    /* \"@openzeppelin/contracts/token/ERC721/ERC721.sol\":9368:9377  _balances */\n  0x03\n    /* \"@openzeppelin/contracts/token/ERC721/ERC721.sol\":9368:9383  _balances[from] */\n  0x20\n  mstore\n  0x40\n  swap1\n  keccak256\n    /* \"@openzeppelin/contracts/token/ERC721/ERC721.sol\":9368:9388  _balances[from] -= 1 */\n  dup1\n  sload\n  not(0x00)\n  add\n  swap1\n  sstore\n    /* \"@openzeppelin/contracts/token/ERC721/ERC721.sol\":9157:9413  if (from != address(0)) {... */\ntag_107:\n  sub(shl(0xa0, 0x01), 0x01)\n    /* \"@openzeppelin/contracts/token/ERC721/ERC721.sol\":9427:9443  to != address(0) */\n  dup6\n  and\n  iszero\n    /* \"@openzeppelin/contracts/token/ERC721/ERC721.sol\":9423:9530  if (to != address(0)) {... */\n  tag_110\n  jumpi\n  sub(shl(0xa0, 0x01), 0x01)\n    /* \"@openzeppelin/contracts/token/ERC721/ERC721.sol\":9487:9500  _balances[to] */\n  dup6\n  and\n  0x00\n  swap1\n  dup2\n  mstore\n    /* \"@openzeppelin/contracts/token/ERC721/ERC721.sol\":9487:9496  _balances */\n  0x03\n    /* \"@openzeppelin/contracts/token/ERC721/ERC721.sol\":9487:9500  _balances[to] */\n  0x20\n  mstore\n  0x40\n  swap1\n  keccak256\n    /* \"@openzeppelin/contracts/token/ERC721/ERC721.sol\":9487:9505  _balances[to] += 1 */\n  dup1\n  sload\n    /* \"@openzeppelin/contracts/token/ERC721/ERC721.sol\":9504:9505  1 */\n  0x01\n    /* \"@openzeppelin/contracts/token/ERC721/ERC721.sol\":9487:9505  _balances[to] += 1 */\n  add\n  swap1\n  sstore\n    /* \"@openzeppelin/contracts/token/ERC721/ERC721.sol\":9423:9530  if (to != address(0)) {... */\ntag_110:\n    /* \"@openzeppelin/contracts/token/ERC721/ERC721.sol\":9540:9556  _owners[tokenId] */\n  0x00\n  dup5\n  dup2\n  mstore\n    /* \"@openzeppelin/contracts/token/ERC721/ERC721.sol\":9540:9547  _owners */\n  0x02\n    /* \"@openzeppelin/contracts/token/ERC721/ERC721.sol\":9540:9556  _owners[tokenId] */\n  0x20\n  mstore\n  0x40\n  dup1\n  dup3\n  keccak256\n    /* \"@openzeppelin/contracts/token/ERC721/ERC721.sol\":9540:9561  _owners[tokenId] = to */\n  dup1\n  sload\n  not(sub(shl(0xa0, 0x01), 0x01))\n  and\n  sub(shl(0xa0, 0x01), 0x01)\n  dup10\n  dup2\n  and\n  swap2\n  dup3\n  or\n  swap1\n  swap3\n  sstore\n    /* \"@openzeppelin/contracts/token/ERC721/ERC721.sol\":9577:9604  Transfer(from, to, tokenId) */\n  swap2\n  mload\n    /* \"@openzeppelin/contracts/token/ERC721/ERC721.sol\":9540:9556  _owners[tokenId] */\n  dup8\n  swap4\n    /* \"@openzeppelin/contracts/token/ERC721/ERC721.sol\":9577:9604  Transfer(from, to, tokenId) */\n  swap2\n  dup6\n  and\n  swap2\n  0xddf252ad1be2c89b69c2b068fc378daa952ba7f163c4a11628f55a4df523b3ef\n  swap2\n  log4\n    /* \"@openzeppelin/contracts/token/ERC721/ERC721.sol\":9622:9626  from */\n  swap5\n    /* \"@openzeppelin/contracts/token/ERC721/ERC721.sol\":8838:9633  function _update(address to, uint256 tokenId, address auth) internal virtual returns (address) {... */\n  swap4\n  pop\n  pop\n  pop\n  pop\n  jump\t// out\n    /* \"@openzeppelin/contracts/token/ERC721/ERC721.sol\":7082:7450  function _checkAuthorized(address owner, address spender, uint256 tokenId) internal view virtual {... */\ntag_106:\n    /* \"@openzeppelin/contracts/token/ERC721/ERC721.sol\":7194:7232  _isAuthorized(owner, spender, tokenId) */\n  tag_113\n    /* \"@openzeppelin/contracts/token/ERC721/ERC721.sol\":7208:7213  owner */\n  dup4\n    /* \"@openzeppelin/contracts/token/ERC721/ERC721.sol\":7215:7222  spender */\n  dup4\n    /* \"@openzeppelin/contracts/token/ERC721/ERC721.sol\":7224:7231  tokenId */\n  dup4\n    /* \"@openzeppelin/contracts/token/ERC721/ERC721.sol\":7194:7207  _isAuthorized */\n  tag_114\n    /* \"@openzeppelin/contracts/token/ERC721/ERC721.sol\":7194:7232  _isAuthorized(owner, spender, tokenId) */\n  jump\t// in\ntag_113:\n    /* \"@openzeppelin/contracts/token/ERC721/ERC721.sol\":7189:7444  if (!_isAuthorized(owner, spender, tokenId)) {... */\n  tag_36\n  jumpi\n  sub(shl(0xa0, 0x01), 0x01)\n    /* \"@openzeppelin/contracts/token/ERC721/ERC721.sol\":7252:7271  owner == address(0) */\n  dup4\n  and\n    /* \"@openzeppelin/contracts/token/ERC721/ERC721.sol\":7248:7434  if (owner == address(0)) {... */\n  tag_116\n  jumpi\n    /* \"@openzeppelin/contracts/token/ERC721/ERC721.sol\":7298:7329  ERC721NonexistentToken(tokenId) */\n  mload(0x40)\n  shl(0xe0, 0x7e273289)\n  dup2\n  mstore\n  0x04\n  dup2\n  add\n    /* \"#utility.yul\":5346:5371   */\n  dup3\n  swap1\n  mstore\n    /* \"#utility.yul\":5319:5337   */\n  0x24\n  add\n    /* \"@openzeppelin/contracts/token/ERC721/ERC721.sol\":7298:7329  ERC721NonexistentToken(tokenId) */\n  tag_13\n    /* \"#utility.yul\":5200:5377   */\n  jump\n    /* \"@openzeppelin/contracts/token/ERC721/ERC721.sol\":7248:7434  if (owner == address(0)) {... */\ntag_116:\n    /* \"@openzeppelin/contracts/token/ERC721/ERC721.sol\":7375:7419  ERC721InsufficientApproval(spender, tokenId) */\n  mload(0x40)\n  shl(0xe0, 0x177e802f)\n  dup2\n  mstore\n  sub(shl(0xa0, 0x01), 0x01)\n    /* \"#utility.yul\":5574:5606   */\n  dup4\n  and\n    /* \"@openzeppelin/contracts/token/ERC721/ERC721.sol\":7375:7419  ERC721InsufficientApproval(spender, tokenId) */\n  0x04\n  dup3\n  add\n    /* \"#utility.yul\":5556:5607   */\n  mstore\n    /* \"#utility.yul\":5623:5641   */\n  0x24\n  dup2\n  add\n    /* \"#utility.yul\":5616:5650   */\n  dup3\n  swap1\n  mstore\n    /* \"#utility.yul\":5529:5547   */\n  0x44\n  add\n    /* \"@openzeppelin/contracts/token/ERC721/ERC721.sol\":7375:7419  ERC721InsufficientApproval(spender, tokenId) */\n  tag_13\n    /* \"#utility.yul\":5382:5656   */\n  jump\n    /* \"@openzeppelin/contracts/token/ERC721/ERC721.sol\":14720:15382  function _approve(address to, uint256 tokenId, address auth, bool emitEvent) internal virtual {... */\ntag_109:\n    /* \"@openzeppelin/contracts/token/ERC721/ERC721.sol\":14880:14889  emitEvent */\n  dup1\n    /* \"@openzeppelin/contracts/token/ERC721/ERC721.sol\":14880:14911  emitEvent || auth != address(0) */\n  dup1\n  tag_123\n  jumpi\n  pop\n  sub(shl(0xa0, 0x01), 0x01)\n    /* \"@openzeppelin/contracts/token/ERC721/ERC721.sol\":14893:14911  auth != address(0) */\n  dup3\n  and\n  iszero\n  iszero\n    /* \"@openzeppelin/contracts/token/ERC721/ERC721.sol\":14880:14911  emitEvent || auth != address(0) */\ntag_123:\n    /* \"@openzeppelin/contracts/token/ERC721/ERC721.sol\":14876:15336  if (emitEvent || auth != address(0)) {... */\n  iszero\n  tag_124\n  jumpi\n    /* \"@openzeppelin/contracts/token/ERC721/ERC721.sol\":14927:14940  address owner */\n  0x00\n    /* \"@openzeppelin/contracts/token/ERC721/ERC721.sol\":14943:14965  _requireOwned(tokenId) */\n  tag_125\n    /* \"@openzeppelin/contracts/token/ERC721/ERC721.sol\":14957:14964  tokenId */\n  dup5\n    /* \"@openzeppelin/contracts/token/ERC721/ERC721.sol\":14943:14956  _requireOwned */\n  tag_126\n    /* \"@openzeppelin/contracts/token/ERC721/ERC721.sol\":14943:14965  _requireOwned(tokenId) */\n  jump\t// in\ntag_125:\n    /* \"@openzeppelin/contracts/token/ERC721/ERC721.sol\":14927:14965  address owner = _requireOwned(tokenId) */\n  swap1\n  pop\n  sub(shl(0xa0, 0x01), 0x01)\n    /* \"@openzeppelin/contracts/token/ERC721/ERC721.sol\":15093:15111  auth != address(0) */\n  dup4\n  and\n  iszero\n  dup1\n  iszero\n  swap1\n    /* \"@openzeppelin/contracts/token/ERC721/ERC721.sol\":15093:15128  auth != address(0) && owner != auth */\n  tag_127\n  jumpi\n  pop\n    /* \"@openzeppelin/contracts/token/ERC721/ERC721.sol\":15124:15128  auth */\n  dup3\n  sub(shl(0xa0, 0x01), 0x01)\n    /* \"@openzeppelin/contracts/token/ERC721/ERC721.sol\":15115:15128  owner != auth */\n  and\n    /* \"@openzeppelin/contracts/token/ERC721/ERC721.sol\":15115:15120  owner */\n  dup2\n  sub(shl(0xa0, 0x01), 0x01)\n    /* \"@openzeppelin/contracts/token/ERC721/ERC721.sol\":15115:15128  owner != auth */\n  and\n  eq\n  iszero\n    /* \"@openzeppelin/contracts/token/ERC721/ERC721.sol\":15093:15128  auth != address(0) && owner != auth */\ntag_127:\n    /* \"@openzeppelin/contracts/token/ERC721/ERC721.sol\":15093:15162  auth != address(0) && owner != auth && !isApprovedForAll(owner, auth) */\n  dup1\n  iszero\n  tag_128\n  jumpi\n  pop\n  sub(shl(0xa0, 0x01), 0x01)\n    /* \"@openzeppelin/contracts/token/ERC721/ERC721.sol\":4039:4064  _operatorApprovals[owner] */\n  dup1\n  dup3\n  and\n    /* \"@openzeppelin/contracts/token/ERC721/ERC721.sol\":4016:4020  bool */\n  0x00\n    /* \"@openzeppelin/contracts/token/ERC721/ERC721.sol\":4039:4064  _operatorApprovals[owner] */\n  swap1\n  dup2\n  mstore\n    /* \"@openzeppelin/contracts/token/ERC721/ERC721.sol\":4039:4057  _operatorApprovals */\n  0x05\n    /* \"@openzeppelin/contracts/token/ERC721/ERC721.sol\":4039:4064  _operatorApprovals[owner] */\n  0x20\n  swap1\n  dup2\n  mstore\n  0x40\n  dup1\n  dup4\n  keccak256\n    /* \"@openzeppelin/contracts/token/ERC721/ERC721.sol\":4039:4074  _operatorApprovals[owner][operator] */\n  swap4\n  dup8\n  and\n  dup4\n  mstore\n  swap3\n  swap1\n  mstore\n  keccak256\n  sload\n  0xff\n  and\n    /* \"@openzeppelin/contracts/token/ERC721/ERC721.sol\":15132:15162  !isApprovedForAll(owner, auth) */\n  iszero\n    /* \"@openzeppelin/contracts/token/ERC721/ERC721.sol\":15093:15162  auth != address(0) && owner != auth && !isApprovedForAll(owner, auth) */\ntag_128:\n    /* \"@openzeppelin/contracts/token/ERC721/ERC721.sol\":15089:15231  if (auth != address(0) && owner != auth && !isApprovedForAll(owner, auth)) {... */\n  iszero\n  tag_131\n  jumpi\n    /* \"@openzeppelin/contracts/token/ERC721/ERC721.sol\":15189:15216  ERC721InvalidApprover(auth) */\n  mload(0x40)\n  shl(0xe0, 0xa9fbf51f)\n  dup2\n  mstore\n  sub(shl(0xa0, 0x01), 0x01)\n    /* \"#utility.yul\":3464:3496   */\n  dup5\n  and\n    /* \"@openzeppelin/contracts/token/ERC721/ERC721.sol\":15189:15216  ERC721InvalidApprover(auth) */\n  0x04\n  dup3\n  add\n    /* \"#utility.yul\":3446:3497   */\n  mstore\n    /* \"#utility.yul\":3419:3437   */\n  0x24\n  add\n    /* \"@openzeppelin/contracts/token/ERC721/ERC721.sol\":15189:15216  ERC721InvalidApprover(auth) */\n  tag_13\n    /* \"#utility.yul\":3300:3503   */\n  jump\n    /* \"@openzeppelin/contracts/token/ERC721/ERC721.sol\":15089:15231  if (auth != address(0) && owner != auth && !isApprovedForAll(owner, auth)) {... */\ntag_131:\n    /* \"@openzeppelin/contracts/token/ERC721/ERC721.sol\":15249:15258  emitEvent */\n  dup2\n    /* \"@openzeppelin/contracts/token/ERC721/ERC721.sol\":15245:15326  if (emitEvent) {... */\n  iszero\n  tag_133\n  jumpi\n    /* \"@openzeppelin/contracts/token/ERC721/ERC721.sol\":15303:15310  tokenId */\n  dup4\n    /* \"@openzeppelin/contracts/token/ERC721/ERC721.sol\":15299:15301  to */\n  dup6\n  sub(shl(0xa0, 0x01), 0x01)\n    /* \"@openzeppelin/contracts/token/ERC721/ERC721.sol\":15283:15311  Approval(owner, to, tokenId) */\n  and\n    /* \"@openzeppelin/contracts/token/ERC721/ERC721.sol\":15292:15297  owner */\n  dup3\n  sub(shl(0xa0, 0x01), 0x01)\n    /* \"@openzeppelin/contracts/token/ERC721/ERC721.sol\":15283:15311  Approval(owner, to, tokenId) */\n  and\n  0x8c5be1e5ebec7d5bd14f71427d1e84f3dd0314c0f7b2291e5b200ac8c7c3b925\n  mload(0x40)\n  mload(0x40)\n  dup1\n  swap2\n  sub\n  swap1\n  log4\n    /* \"@openzeppelin/contracts/token/ERC721/ERC721.sol\":15245:15326  if (emitEvent) {... */\ntag_133:\n    /* \"@openzeppelin/contracts/token/ERC721/ERC721.sol\":14913:15336  {... */\n  pop\n    /* \"@openzeppelin/contracts/token/ERC721/ERC721.sol\":14876:15336  if (emitEvent || auth != address(0)) {... */\ntag_124:\n  pop\n  pop\n    /* \"@openzeppelin/contracts/token/ERC721/ERC721.sol\":15346:15370  _tokenApprovals[tokenId] */\n  0x00\n  swap1\n  dup2\n  mstore\n    /* \"@openzeppelin/contracts/token/ERC721/ERC721.sol\":15346:15361  _tokenApprovals */\n  0x04\n    /* \"@openzeppelin/contracts/token/ERC721/ERC721.sol\":15346:15370  _tokenApprovals[tokenId] */\n  0x20\n  mstore\n  0x40\n  swap1\n  keccak256\n    /* \"@openzeppelin/contracts/token/ERC721/ERC721.sol\":15346:15375  _tokenApprovals[tokenId] = to */\n  dup1\n  sload\n  not(sub(shl(0xa0, 0x01), 0x01))\n  and\n  sub(shl(0xa0, 0x01), 0x01)\n  swap3\n  swap1\n  swap3\n  and\n  swap2\n  swap1\n  swap2\n  or\n  swap1\n  sstore\n    /* \"@openzeppelin/contracts/token/ERC721/ERC721.sol\":14720:15382  function _approve(address to, uint256 tokenId, address auth, bool emitEvent) internal virtual {... */\n  jump\t// out\n    /* \"@openzeppelin/contracts/token/ERC721/ERC721.sol\":6376:6648  function _isAuthorized(address owner, address spender, uint256 tokenId) internal view virtual returns (bool) {... */\ntag_114:\n    /* \"@openzeppelin/contracts/token/ERC721/ERC721.sol\":6479:6483  bool */\n  0x00\n  sub(shl(0xa0, 0x01), 0x01)\n    /* \"@openzeppelin/contracts/token/ERC721/ERC721.sol\":6514:6535  spender != address(0) */\n  dup4\n  and\n  iszero\n  dup1\n  iszero\n  swap1\n    /* \"@openzeppelin/contracts/token/ERC721/ERC721.sol\":6514:6641  spender != address(0) &&... */\n  tag_138\n  jumpi\n  pop\n    /* \"@openzeppelin/contracts/token/ERC721/ERC721.sol\":6561:6568  spender */\n  dup3\n  sub(shl(0xa0, 0x01), 0x01)\n    /* \"@openzeppelin/contracts/token/ERC721/ERC721.sol\":6552:6568  owner == spender */\n  and\n    /* \"@openzeppelin/contracts/token/ERC721/ERC721.sol\":6552:6557  owner */\n  dup5\n  sub(shl(0xa0, 0x01), 0x01)\n    /* \"@openzeppelin/contracts/token/ERC721/ERC721.sol\":6552:6568  owner == spender */\n  and\n  eq\n    /* \"@openzeppelin/contracts/token/ERC721/ERC721.sol\":6552:6604  owner == spender || isApprovedForAll(owner, spender) */\n  dup1\n  tag_137\n  jumpi\n  pop\n  sub(shl(0xa0, 0x01), 0x01)\n    /* \"@openzeppelin/contracts/token/ERC721/ERC721.sol\":4039:4064  _operatorApprovals[owner] */\n  dup1\n  dup6\n  and\n    /* \"@openzeppelin/contracts/token/ERC721/ERC721.sol\":4016:4020  bool */\n  0x00\n    /* \"@openzeppelin/contracts/token/ERC721/ERC721.sol\":4039:4064  _operatorApprovals[owner] */\n  swap1\n  dup2\n  mstore\n    /* \"@openzeppelin/contracts/token/ERC721/ERC721.sol\":4039:4057  _operatorApprovals */\n  0x05\n    /* \"@openzeppelin/contracts/token/ERC721/ERC721.sol\":4039:4064  _operatorApprovals[owner] */\n  0x20\n  swap1\n  dup2\n  mstore\n  0x40\n  dup1\n  dup4\n  keccak256\n    /* \"@openzeppelin/contracts/token/ERC721/ERC721.sol\":4039:4074  _operatorApprovals[owner][operator] */\n  swap4\n  dup8\n  and\n  dup4\n  mstore\n  swap3\n  swap1\n  mstore\n  keccak256\n  sload\n  0xff\n  and\n    /* \"@openzeppelin/contracts/token/ERC721/ERC721.sol\":6572:6604  isApprovedForAll(owner, spender) */\ntag_137:\n    /* \"@openzeppelin/contracts/token/ERC721/ERC721.sol\":6552:6640  owner == spender || isApprovedForAll(owner, spender) || _getApproved(tokenId) == spender */\n  dup1\n  tag_138\n  jumpi\n  pop\n    /* \"@openzeppelin/contracts/token/ERC721/ERC721.sol\":6008:6015  address */\n  0x00\n    /* \"@openzeppelin/contracts/token/ERC721/ERC721.sol\":6034:6058  _tokenApprovals[tokenId] */\n  dup3\n  dup2\n  mstore\n    /* \"@openzeppelin/contracts/token/ERC721/ERC721.sol\":6034:6049  _tokenApprovals */\n  0x04\n    /* \"@openzeppelin/contracts/token/ERC721/ERC721.sol\":6034:6058  _tokenApprovals[tokenId] */\n  0x20\n  mstore\n  0x40\n  swap1\n  keccak256\n  sload\n  sub(shl(0xa0, 0x01), 0x01)\n    /* \"@openzeppelin/contracts/token/ERC721/ERC721.sol\":6608:6640  _getApproved(tokenId) == spender */\n  dup5\n  dup2\n  and\n    /* \"@openzeppelin/contracts/token/ERC721/ERC721.sol\":6034:6058  _tokenApprovals[tokenId] */\n  swap2\n  and\n    /* \"@openzeppelin/contracts/token/ERC721/ERC721.sol\":6608:6640  _getApproved(tokenId) == spender */\n  eq\n    /* \"@openzeppelin/contracts/token/ERC721/ERC721.sol\":6552:6640  owner == spender || isApprovedForAll(owner, spender) || _getApproved(tokenId) == spender */\ntag_138:\n    /* \"@openzeppelin/contracts/token/ERC721/ERC721.sol\":6495:6641  return... */\n  swap5\n    /* \"@openzeppelin/contracts/token/ERC721/ERC721.sol\":6376:6648  function _isAuthorized(address owner, address spender, uint256 tokenId) internal view virtual returns (bool) {... */\n  swap4\n  pop\n  pop\n  pop\n  pop\n  jump\t// out\n    /* \"@openzeppelin/contracts/token/ERC721/ERC721.sol\":16138:16379  function _requireOwned(uint256 tokenId) internal view returns (address) {... */\ntag_126:\n    /* \"@openzeppelin/contracts/token/ERC721/ERC721.sol\":16201:16208  address */\n  0x00\n    /* \"@openzeppelin/contracts/token/ERC721/ERC721.sol\":5799:5815  _owners[tokenId] */\n  dup2\n  dup2\n  mstore\n    /* \"@openzeppelin/contracts/token/ERC721/ERC721.sol\":5799:5806  _owners */\n  0x02\n    /* \"@openzeppelin/contracts/token/ERC721/ERC721.sol\":5799:5815  _owners[tokenId] */\n  0x20\n  mstore\n  0x40\n  dup2\n  keccak256\n  sload\n  sub(shl(0xa0, 0x01), 0x01)\n  and\n  dup1\n    /* \"@openzeppelin/contracts/token/ERC721/ERC721.sol\":16263:16351  if (owner == address(0)) {... */\n  tag_143\n  jumpi\n    /* \"@openzeppelin/contracts/token/ERC721/ERC721.sol\":16309:16340  ERC721NonexistentToken(tokenId) */\n  mload(0x40)\n  shl(0xe0, 0x7e273289)\n  dup2\n  mstore\n  0x04\n  dup2\n  add\n    /* \"#utility.yul\":5346:5371   */\n  dup5\n  swap1\n  mstore\n    /* \"#utility.yul\":5319:5337   */\n  0x24\n  add\n    /* \"@openzeppelin/contracts/token/ERC721/ERC721.sol\":16309:16340  ERC721NonexistentToken(tokenId) */\n  tag_13\n    /* \"#utility.yul\":5200:5377   */\n  jump\n    /* \"@openzeppelin/contracts/token/ERC721/ERC721.sol\":16263:16351  if (owner == address(0)) {... */\ntag_143:\n    /* \"@openzeppelin/contracts/token/ERC721/ERC721.sol\":16367:16372  owner */\n  swap3\n    /* \"@openzeppelin/contracts/token/ERC721/ERC721.sol\":16138:16379  function _requireOwned(uint256 tokenId) internal view returns (address) {... */\n  swap2\n  pop\n  pop\n  jump\t// out\n    /* \"#utility.yul\":14:191   */\ntag_147:\n    /* \"#utility.yul\":93:106   */\n  dup1\n  mload\n  sub(shl(0xa0, 0x01), 0x01)\n    /* \"#utility.yul\":135:166   */\n  dup2\n  and\n    /* \"#utility.yul\":125:167   */\n  dup2\n  eq\n    /* \"#utility.yul\":115:185   */\n  tag_155\n  jumpi\n    /* \"#utility.yul\":181:182   */\n  0x00\n    /* \"#utility.yul\":178:179   */\n  dup1\n    /* \"#utility.yul\":171:183   */\n  revert\n    /* \"#utility.yul\":115:185   */\ntag_155:\n    /* \"#utility.yul\":14:191   */\n  swap2\n  swap1\n  pop\n  jump\t// out\n    /* \"#utility.yul\":196:654   */\ntag_3:\n    /* \"#utility.yul\":283:289   */\n  0x00\n    /* \"#utility.yul\":291:297   */\n  dup1\n    /* \"#utility.yul\":299:305   */\n  0x00\n    /* \"#utility.yul\":352:354   */\n  0x60\n    /* \"#utility.yul\":340:349   */\n  dup5\n    /* \"#utility.yul\":331:338   */\n  dup7\n    /* \"#utility.yul\":327:350   */\n  sub\n    /* \"#utility.yul\":323:355   */\n  slt\n    /* \"#utility.yul\":320:372   */\n  iszero\n  tag_157\n  jumpi\n    /* \"#utility.yul\":368:369   */\n  0x00\n    /* \"#utility.yul\":365:366   */\n  dup1\n    /* \"#utility.yul\":358:370   */\n  revert\n    /* \"#utility.yul\":320:372   */\ntag_157:\n    /* \"#utility.yul\":394:410   */\n  dup4\n  mload\n  sub(shl(0x60, 0x01), 0x01)\n    /* \"#utility.yul\":439:469   */\n  dup2\n  and\n    /* \"#utility.yul\":429:470   */\n  dup2\n  eq\n    /* \"#utility.yul\":419:488   */\n  tag_158\n  jumpi\n    /* \"#utility.yul\":484:485   */\n  0x00\n    /* \"#utility.yul\":481:482   */\n  dup1\n    /* \"#utility.yul\":474:486   */\n  revert\n    /* \"#utility.yul\":419:488   */\ntag_158:\n    /* \"#utility.yul\":507:512   */\n  swap3\n  pop\n    /* \"#utility.yul\":531:580   */\n  tag_159\n    /* \"#utility.yul\":576:578   */\n  0x20\n    /* \"#utility.yul\":561:579   */\n  dup6\n  add\n    /* \"#utility.yul\":531:580   */\n  tag_147\n  jump\t// in\ntag_159:\n    /* \"#utility.yul\":521:580   */\n  swap2\n  pop\n    /* \"#utility.yul\":599:648   */\n  tag_160\n    /* \"#utility.yul\":644:646   */\n  0x40\n    /* \"#utility.yul\":633:642   */\n  dup6\n    /* \"#utility.yul\":629:647   */\n  add\n    /* \"#utility.yul\":599:648   */\n  tag_147\n  jump\t// in\ntag_160:\n    /* \"#utility.yul\":589:648   */\n  swap1\n  pop\n    /* \"#utility.yul\":196:654   */\n  swap3\n  pop\n  swap3\n  pop\n  swap3\n  jump\t// out\n    /* \"#utility.yul\":659:786   */\ntag_148:\n    /* \"#utility.yul\":720:730   */\n  0x4e487b71\n    /* \"#utility.yul\":715:718   */\n  0xe0\n    /* \"#utility.yul\":711:731   */\n  shl\n    /* \"#utility.yul\":708:709   */\n  0x00\n    /* \"#utility.yul\":701:732   */\n  mstore\n    /* \"#utility.yul\":751:755   */\n  0x41\n    /* \"#utility.yul\":748:749   */\n  0x04\n    /* \"#utility.yul\":741:756   */\n  mstore\n    /* \"#utility.yul\":775:779   */\n  0x24\n    /* \"#utility.yul\":772:773   */\n  0x00\n    /* \"#utility.yul\":765:780   */\n  revert\n    /* \"#utility.yul\":791:1171   */\ntag_149:\n    /* \"#utility.yul\":870:871   */\n  0x01\n    /* \"#utility.yul\":866:878   */\n  dup2\n  dup2\n  shr\n  swap1\n    /* \"#utility.yul\":913:925   */\n  dup3\n  and\n  dup1\n    /* \"#utility.yul\":934:995   */\n  tag_163\n  jumpi\n    /* \"#utility.yul\":988:992   */\n  0x7f\n    /* \"#utility.yul\":980:986   */\n  dup3\n    /* \"#utility.yul\":976:993   */\n  and\n    /* \"#utility.yul\":966:993   */\n  swap2\n  pop\n    /* \"#utility.yul\":934:995   */\ntag_163:\n    /* \"#utility.yul\":1041:1043   */\n  0x20\n    /* \"#utility.yul\":1033:1039   */\n  dup3\n    /* \"#utility.yul\":1030:1044   */\n  lt\n    /* \"#utility.yul\":1010:1028   */\n  dup2\n    /* \"#utility.yul\":1007:1045   */\n  sub\n    /* \"#utility.yul\":1004:1165   */\n  tag_164\n  jumpi\n    /* \"#utility.yul\":1087:1097   */\n  0x4e487b71\n    /* \"#utility.yul\":1082:1085   */\n  0xe0\n    /* \"#utility.yul\":1078:1098   */\n  shl\n    /* \"#utility.yul\":1075:1076   */\n  0x00\n    /* \"#utility.yul\":1068:1099   */\n  mstore\n    /* \"#utility.yul\":1122:1126   */\n  0x22\n    /* \"#utility.yul\":1119:1120   */\n  0x04\n    /* \"#utility.yul\":1112:1127   */\n  mstore\n    /* \"#utility.yul\":1150:1154   */\n  0x24\n    /* \"#utility.yul\":1147:1148   */\n  0x00\n    /* \"#utility.yul\":1140:1155   */\n  revert\n    /* \"#utility.yul\":1004:1165   */\ntag_164:\n  pop\n    /* \"#utility.yul\":791:1171   */\n  swap2\n  swap1\n  pop\n  jump\t// out\n    /* \"#utility.yul\":1302:1820   */\ntag_151:\n    /* \"#utility.yul\":1404:1406   */\n  0x1f\n    /* \"#utility.yul\":1399:1402   */\n  dup3\n    /* \"#utility.yul\":1396:1407   */\n  gt\n    /* \"#utility.yul\":1393:1814   */\n  iszero\n  tag_36\n  jumpi\n    /* \"#utility.yul\":1440:1445   */\n  dup1\n    /* \"#utility.yul\":1437:1438   */\n  0x00\n    /* \"#utility.yul\":1430:1446   */\n  mstore\n    /* \"#utility.yul\":1484:1488   */\n  0x20\n    /* \"#utility.yul\":1481:1482   */\n  0x00\n    /* \"#utility.yul\":1471:1489   */\n  keccak256\n    /* \"#utility.yul\":1554:1556   */\n  0x1f\n    /* \"#utility.yul\":1542:1552   */\n  dup5\n    /* \"#utility.yul\":1538:1557   */\n  add\n    /* \"#utility.yul\":1535:1536   */\n  0x05\n    /* \"#utility.yul\":1531:1558   */\n  shr\n    /* \"#utility.yul\":1525:1529   */\n  dup2\n    /* \"#utility.yul\":1521:1559   */\n  add\n    /* \"#utility.yul\":1590:1594   */\n  0x20\n    /* \"#utility.yul\":1578:1588   */\n  dup6\n    /* \"#utility.yul\":1575:1595   */\n  lt\n    /* \"#utility.yul\":1572:1619   */\n  iszero\n  tag_168\n  jumpi\n  pop\n    /* \"#utility.yul\":1613:1617   */\n  dup1\n    /* \"#utility.yul\":1572:1619   */\ntag_168:\n    /* \"#utility.yul\":1668:1670   */\n  0x1f\n    /* \"#utility.yul\":1663:1666   */\n  dup5\n    /* \"#utility.yul\":1659:1671   */\n  add\n    /* \"#utility.yul\":1656:1657   */\n  0x05\n    /* \"#utility.yul\":1652:1672   */\n  shr\n    /* \"#utility.yul\":1646:1650   */\n  dup3\n    /* \"#utility.yul\":1642:1673   */\n  add\n    /* \"#utility.yul\":1632:1673   */\n  swap2\n  pop\n    /* \"#utility.yul\":1723:1804   */\ntag_169:\n    /* \"#utility.yul\":1741:1743   */\n  dup2\n    /* \"#utility.yul\":1734:1739   */\n  dup2\n    /* \"#utility.yul\":1731:1744   */\n  lt\n    /* \"#utility.yul\":1723:1804   */\n  iszero\n  tag_99\n  jumpi\n    /* \"#utility.yul\":1800:1801   */\n  0x00\n    /* \"#utility.yul\":1786:1802   */\n  dup2\n  sstore\n    /* \"#utility.yul\":1767:1768   */\n  0x01\n    /* \"#utility.yul\":1756:1769   */\n  add\n    /* \"#utility.yul\":1723:1804   */\n  jump(tag_169)\n    /* \"#utility.yul\":1996:3295   */\ntag_9:\n    /* \"#utility.yul\":2116:2126   */\n  dup2\n  mload\n  sub(shl(0x40, 0x01), 0x01)\n    /* \"#utility.yul\":2138:2168   */\n  dup2\n  gt\n    /* \"#utility.yul\":2135:2191   */\n  iszero\n  tag_175\n  jumpi\n    /* \"#utility.yul\":2171:2189   */\n  tag_175\n  tag_148\n  jump\t// in\ntag_175:\n    /* \"#utility.yul\":2200:2297   */\n  tag_176\n    /* \"#utility.yul\":2290:2296   */\n  dup2\n    /* \"#utility.yul\":2250:2288   */\n  tag_177\n    /* \"#utility.yul\":2282:2286   */\n  dup5\n    /* \"#utility.yul\":2276:2287   */\n  sload\n    /* \"#utility.yul\":2250:2288   */\n  tag_149\n  jump\t// in\ntag_177:\n    /* \"#utility.yul\":2244:2248   */\n  dup5\n    /* \"#utility.yul\":2200:2297   */\n  tag_151\n  jump\t// in\ntag_176:\n    /* \"#utility.yul\":2346:2350   */\n  0x20\n    /* \"#utility.yul\":2377:2379   */\n  0x1f\n    /* \"#utility.yul\":2366:2380   */\n  dup3\n  gt\n    /* \"#utility.yul\":2394:2395   */\n  0x01\n    /* \"#utility.yul\":2389:3038   */\n  dup2\n  eq\n  tag_179\n  jumpi\n    /* \"#utility.yul\":3082:3083   */\n  0x00\n    /* \"#utility.yul\":3099:3105   */\n  dup4\n    /* \"#utility.yul\":3096:3185   */\n  iszero\n  tag_180\n  jumpi\n  pop\n    /* \"#utility.yul\":3151:3170   */\n  dup5\n  dup3\n  add\n    /* \"#utility.yul\":3145:3171   */\n  mload\n    /* \"#utility.yul\":3096:3185   */\ntag_180:\n  not(0x00)\n    /* \"#utility.yul\":1953:1954   */\n  0x03\n    /* \"#utility.yul\":1949:1960   */\n  dup6\n  swap1\n  shl\n    /* \"#utility.yul\":1945:1969   */\n  shr\n    /* \"#utility.yul\":1941:1970   */\n  not\n    /* \"#utility.yul\":1931:1971   */\n  and\n    /* \"#utility.yul\":1977:1978   */\n  0x01\n    /* \"#utility.yul\":1973:1984   */\n  dup5\n  swap1\n  shl\n    /* \"#utility.yul\":1928:1985   */\n  or\n    /* \"#utility.yul\":3198:3279   */\n  dup5\n  sstore\n    /* \"#utility.yul\":2359:3289   */\n  jump(tag_99)\n    /* \"#utility.yul\":2389:3038   */\ntag_179:\n    /* \"#utility.yul\":1249:1250   */\n  0x00\n    /* \"#utility.yul\":1242:1256   */\n  dup5\n  dup2\n  mstore\n    /* \"#utility.yul\":1286:1290   */\n  0x20\n    /* \"#utility.yul\":1273:1291   */\n  dup2\n  keccak256\n  not(0x1f)\n    /* \"#utility.yul\":2425:2445   */\n  dup6\n  and\n  swap2\n    /* \"#utility.yul\":2543:2765   */\ntag_183:\n    /* \"#utility.yul\":2557:2564   */\n  dup3\n    /* \"#utility.yul\":2554:2555   */\n  dup2\n    /* \"#utility.yul\":2551:2565   */\n  lt\n    /* \"#utility.yul\":2543:2765   */\n  iszero\n  tag_185\n  jumpi\n    /* \"#utility.yul\":2639:2658   */\n  dup8\n  dup6\n  add\n    /* \"#utility.yul\":2633:2659   */\n  mload\n    /* \"#utility.yul\":2618:2660   */\n  dup3\n  sstore\n    /* \"#utility.yul\":2746:2750   */\n  0x20\n    /* \"#utility.yul\":2731:2751   */\n  swap5\n  dup6\n  add\n  swap5\n    /* \"#utility.yul\":2699:2700   */\n  0x01\n    /* \"#utility.yul\":2687:2701   */\n  swap1\n  swap3\n  add\n  swap2\n    /* \"#utility.yul\":2573:2585   */\n  add\n    /* \"#utility.yul\":2543:2765   */\n  jump(tag_183)\ntag_185:\n    /* \"#utility.yul\":2547:2550   */\n  pop\n    /* \"#utility.yul\":2793:2799   */\n  dup5\n    /* \"#utility.yul\":2784:2791   */\n  dup3\n    /* \"#utility.yul\":2781:2800   */\n  lt\n    /* \"#utility.yul\":2778:2979   */\n  iszero\n  tag_186\n  jumpi\n    /* \"#utility.yul\":2854:2873   */\n  dup7\n  dup5\n  add\n    /* \"#utility.yul\":2848:2874   */\n  mload\n  not(0x00)\n    /* \"#utility.yul\":2937:2938   */\n  0x03\n    /* \"#utility.yul\":2933:2947   */\n  dup8\n  swap1\n  shl\n    /* \"#utility.yul\":2949:2952   */\n  0xf8\n    /* \"#utility.yul\":2929:2953   */\n  and\n    /* \"#utility.yul\":2925:2962   */\n  shr\n    /* \"#utility.yul\":2921:2963   */\n  not\n    /* \"#utility.yul\":2906:2964   */\n  and\n    /* \"#utility.yul\":2891:2965   */\n  dup2\n  sstore\n    /* \"#utility.yul\":2778:2979   */\ntag_186:\n  pop\n  pop\n  pop\n  pop\n    /* \"#utility.yul\":3025:3026   */\n  0x01\n    /* \"#utility.yul\":3009:3023   */\n  swap1\n  dup2\n  shl\n    /* \"#utility.yul\":3005:3027   */\n  add\n    /* \"#utility.yul\":2992:3028   */\n  swap1\n  sstore\n  pop\n    /* \"#utility.yul\":1996:3295   */\n  jump\t// out\n    /* \"#utility.yul\":3508:3740   */\ntag_39:\n    /* \"#utility.yul\":3547:3550   */\n  0x00\n    /* \"#utility.yul\":3568:3585   */\n  0x01\n  dup3\n  add\n    /* \"#utility.yul\":3565:3705   */\n  tag_189\n  jumpi\n    /* \"#utility.yul\":3627:3637   */\n  0x4e487b71\n    /* \"#utility.yul\":3622:3625   */\n  0xe0\n    /* \"#utility.yul\":3618:3638   */\n  shl\n    /* \"#utility.yul\":3615:3616   */\n  0x00\n    /* \"#utility.yul\":3608:3639   */\n  mstore\n    /* \"#utility.yul\":3662:3666   */\n  0x11\n    /* \"#utility.yul\":3659:3660   */\n  0x04\n    /* \"#utility.yul\":3652:3667   */\n  mstore\n    /* \"#utility.yul\":3690:3694   */\n  0x24\n    /* \"#utility.yul\":3687:3688   */\n  0x00\n    /* \"#utility.yul\":3680:3695   */\n  revert\n    /* \"#utility.yul\":3565:3705   */\ntag_189:\n  pop\n    /* \"#utility.yul\":3732:3733   */\n  0x01\n    /* \"#utility.yul\":3721:3734   */\n  add\n  swap1\n    /* \"#utility.yul\":3508:3740   */\n  jump\t// out\n    /* \"#utility.yul\":4214:4900   */\ntag_85:\n    /* \"#utility.yul\":4474:4475   */\n  0x01\n    /* \"#utility.yul\":4470:4471   */\n  dup1\n    /* \"#utility.yul\":4465:4468   */\n  0xa0\n    /* \"#utility.yul\":4461:4472   */\n  shl\n    /* \"#utility.yul\":4457:4476   */\n  sub\n    /* \"#utility.yul\":4449:4455   */\n  dup6\n    /* \"#utility.yul\":4445:4477   */\n  and\n    /* \"#utility.yul\":4434:4443   */\n  dup2\n    /* \"#utility.yul\":4427:4478   */\n  mstore\n    /* \"#utility.yul\":4543:4544   */\n  0x01\n    /* \"#utility.yul\":4539:4540   */\n  dup1\n    /* \"#utility.yul\":4534:4537   */\n  0xa0\n    /* \"#utility.yul\":4530:4541   */\n  shl\n    /* \"#utility.yul\":4526:4545   */\n  sub\n    /* \"#utility.yul\":4518:4524   */\n  dup5\n    /* \"#utility.yul\":4514:4546   */\n  and\n    /* \"#utility.yul\":4509:4511   */\n  0x20\n    /* \"#utility.yul\":4498:4507   */\n  dup3\n    /* \"#utility.yul\":4494:4512   */\n  add\n    /* \"#utility.yul\":4487:4547   */\n  mstore\n    /* \"#utility.yul\":4583:4589   */\n  dup3\n    /* \"#utility.yul\":4578:4580   */\n  0x40\n    /* \"#utility.yul\":4567:4576   */\n  dup3\n    /* \"#utility.yul\":4563:4581   */\n  add\n    /* \"#utility.yul\":4556:4590   */\n  mstore\n    /* \"#utility.yul\":4626:4629   */\n  0x80\n    /* \"#utility.yul\":4621:4623   */\n  0x60\n    /* \"#utility.yul\":4610:4619   */\n  dup3\n    /* \"#utility.yul\":4606:4624   */\n  add\n    /* \"#utility.yul\":4599:4630   */\n  mstore\n    /* \"#utility.yul\":4408:4412   */\n  0x00\n    /* \"#utility.yul\":4659:4665   */\n  dup3\n    /* \"#utility.yul\":4653:4666   */\n  mload\n    /* \"#utility.yul\":4703:4709   */\n  dup1\n    /* \"#utility.yul\":4697:4700   */\n  0x80\n    /* \"#utility.yul\":4686:4695   */\n  dup5\n    /* \"#utility.yul\":4682:4701   */\n  add\n    /* \"#utility.yul\":4675:4710   */\n  mstore\n    /* \"#utility.yul\":4763:4769   */\n  dup1\n    /* \"#utility.yul\":4758:4760   */\n  0x20\n    /* \"#utility.yul\":4750:4756   */\n  dup6\n    /* \"#utility.yul\":4746:4761   */\n  add\n    /* \"#utility.yul\":4740:4743   */\n  0xa0\n    /* \"#utility.yul\":4729:4738   */\n  dup6\n    /* \"#utility.yul\":4725:4744   */\n  add\n    /* \"#utility.yul\":4719:4770   */\n  mcopy\n    /* \"#utility.yul\":4820:4821   */\n  0x00\n    /* \"#utility.yul\":4814:4817   */\n  0xa0\n    /* \"#utility.yul\":4805:4811   */\n  dup3\n    /* \"#utility.yul\":4794:4803   */\n  dup6\n    /* \"#utility.yul\":4790:4812   */\n  add\n    /* \"#utility.yul\":4786:4818   */\n  add\n    /* \"#utility.yul\":4779:4822   */\n  mstore\n    /* \"#utility.yul\":4890:4893   */\n  0xa0\n    /* \"#utility.yul\":4883:4885   */\n  0x1f\n    /* \"#utility.yul\":4879:4886   */\n  not\n    /* \"#utility.yul\":4874:4876   */\n  0x1f\n    /* \"#utility.yul\":4866:4872   */\n  dup4\n    /* \"#utility.yul\":4862:4877   */\n  add\n    /* \"#utility.yul\":4858:4887   */\n  and\n    /* \"#utility.yul\":4847:4856   */\n  dup5\n    /* \"#utility.yul\":4843:4888   */\n  add\n    /* \"#utility.yul\":4839:4894   */\n  add\n    /* \"#utility.yul\":4831:4894   */\n  swap2\n  pop\n  pop\n    /* \"#utility.yul\":4214:4900   */\n  swap6\n  swap5\n  pop\n  pop\n  pop\n  pop\n  pop\n  jump\t// out\n    /* \"#utility.yul\":4905:5195   */\ntag_88:\n    /* \"#utility.yul\":4974:4980   */\n  0x00\n    /* \"#utility.yul\":5027:5029   */\n  0x20\n    /* \"#utility.yul\":5015:5024   */\n  dup3\n    /* \"#utility.yul\":5006:5013   */\n  dup5\n    /* \"#utility.yul\":5002:5025   */\n  sub\n    /* \"#utility.yul\":4998:5030   */\n  slt\n    /* \"#utility.yul\":4995:5047   */\n  iszero\n  tag_194\n  jumpi\n    /* \"#utility.yul\":5043:5044   */\n  0x00\n    /* \"#utility.yul\":5040:5041   */\n  dup1\n    /* \"#utility.yul\":5033:5045   */\n  revert\n    /* \"#utility.yul\":4995:5047   */\ntag_194:\n    /* \"#utility.yul\":5069:5085   */\n  dup2\n  mload\n  not(sub(shl(0xe0, 0x01), 0x01))\n    /* \"#utility.yul\":5114:5146   */\n  dup2\n  and\n    /* \"#utility.yul\":5104:5147   */\n  dup2\n  eq\n    /* \"#utility.yul\":5094:5165   */\n  tag_195\n  jumpi\n    /* \"#utility.yul\":5161:5162   */\n  0x00\n    /* \"#utility.yul\":5158:5159   */\n  dup1\n    /* \"#utility.yul\":5151:5163   */\n  revert\n    /* \"#utility.yul\":5094:5165   */\ntag_195:\n    /* \"#utility.yul\":5184:5189   */\n  swap4\n    /* \"#utility.yul\":4905:5195   */\n  swap3\n  pop\n  pop\n  pop\n  jump\t// out\n    /* \"#utility.yul\":5382:5656   */\ntag_153:\n    /* \"totalEclipseNFT.sol\":236:2526  contract totalEclipseNFT is ERC721, Ownable, ERC2981 {... */\n  dataSize(sub_0)\n  dup1\n  dataOffset(sub_0)\n  0x00\n  codecopy\n  0x00\n  return\nstop\n\nsub_0: assembly {\n        /* \"totalEclipseNFT.sol\":236:2526  contract totalEclipseNFT is ERC721, Ownable, ERC2981 {... */\n      mstore(0x40, 0x80)\n      callvalue\n      dup1\n      iszero\n      tag_1\n      jumpi\n      0x00\n      dup1\n      revert\n    tag_1:\n      pop\n      jumpi(tag_2, lt(calldatasize, 0x04))\n      shr(0xe0, calldataload(0x00))\n      dup1\n      0x6352211e\n      gt\n      tag_22\n      jumpi\n      dup1\n      0xa22cb465\n      gt\n      tag_23\n      jumpi\n      dup1\n      0xa22cb465\n      eq\n      tag_17\n      jumpi\n      dup1\n      0xb88d4fde\n      eq\n      tag_18\n      jumpi\n      dup1\n      0xc87b56dd\n      eq\n      tag_19\n      jumpi\n      dup1\n      0xe985e9c5\n      eq\n      tag_20\n      jumpi\n      dup1\n      0xf2fde38b\n      eq\n      tag_21\n      jumpi\n      0x00\n      dup1\n      revert\n    tag_23:\n      dup1\n      0x6352211e\n      eq\n      tag_12\n      jumpi\n      dup1\n      0x70a08231\n      eq\n      tag_13\n      jumpi\n      dup1\n      0x715018a6\n      eq\n      tag_14\n      jumpi\n      dup1\n      0x8da5cb5b\n      eq\n      tag_15\n      jumpi\n      dup1\n      0x95d89b41\n      eq\n      tag_16\n      jumpi\n      0x00\n      dup1\n      revert\n    tag_22:\n      dup1\n      0x01ffc9a7\n      eq\n      tag_3\n      jumpi\n      dup1\n      0x02fa7c47\n      eq\n      tag_4\n      jumpi\n      dup1\n      0x06fdde03\n      eq\n      tag_5\n      jumpi\n      dup1\n      0x081812fc\n      eq\n      tag_6\n      jumpi\n      dup1\n      0x095ea7b3\n      eq\n      tag_7\n      jumpi\n      dup1\n      0x18160ddd\n      eq\n      tag_8\n      jumpi\n      dup1\n      0x23b872dd\n      eq\n      tag_9\n      jumpi\n      dup1\n      0x2a55205a\n      eq\n      tag_10\n      jumpi\n      dup1\n      0x42842e0e\n      eq\n      tag_11\n      jumpi\n    tag_2:\n      0x00\n      dup1\n      revert\n        /* \"totalEclipseNFT.sol\":2320:2523  function supportsInterface(bytes4 interfaceId)... */\n    tag_3:\n      tag_24\n      tag_25\n      calldatasize\n      0x04\n      tag_26\n      jump\t// in\n    tag_25:\n      tag_27\n      jump\t// in\n    tag_24:\n      mload(0x40)\n        /* \"#utility.yul\":565:579   */\n      swap1\n      iszero\n        /* \"#utility.yul\":558:580   */\n      iszero\n        /* \"#utility.yul\":540:581   */\n      dup2\n      mstore\n        /* \"#utility.yul\":528:530   */\n      0x20\n        /* \"#utility.yul\":513:531   */\n      add\n        /* \"totalEclipseNFT.sol\":2320:2523  function supportsInterface(bytes4 interfaceId)... */\n    tag_28:\n      mload(0x40)\n      dup1\n      swap2\n      sub\n      swap1\n      return\n        /* \"totalEclipseNFT.sol\":2134:2312  function setRoyaltyInfo(address _receiver, uint96 _royaltyFeesInBips)... */\n    tag_4:\n      tag_30\n      tag_31\n      calldatasize\n      0x04\n      tag_32\n      jump\t// in\n    tag_31:\n      tag_33\n      jump\t// in\n    tag_30:\n      stop\n        /* \"@openzeppelin/contracts/token/ERC721/ERC721.sol\":2365:2454  function name() public view virtual returns (string memory) {... */\n    tag_5:\n      tag_34\n      tag_35\n      jump\t// in\n    tag_34:\n      mload(0x40)\n      tag_28\n      swap2\n      swap1\n      tag_37\n      jump\t// in\n        /* \"@openzeppelin/contracts/token/ERC721/ERC721.sol\":3497:3651  function getApproved(uint256 tokenId) public view virtual returns (address) {... */\n    tag_6:\n      tag_38\n      tag_39\n      calldatasize\n      0x04\n      tag_40\n      jump\t// in\n    tag_39:\n      tag_41\n      jump\t// in\n    tag_38:\n      mload(0x40)\n      tag_28\n      swap2\n      swap1\n      tag_43\n      jump\t// in\n        /* \"@openzeppelin/contracts/token/ERC721/ERC721.sol\":3323:3436  function approve(address to, uint256 tokenId) public virtual {... */\n    tag_7:\n      tag_30\n      tag_45\n      calldatasize\n      0x04\n      tag_46\n      jump\t// in\n    tag_45:\n      tag_47\n      jump\t// in\n        /* \"totalEclipseNFT.sol\":1934:2072  function totalSupply() public view returns (uint256) {... */\n    tag_8:\n      tag_48\n      tag_49\n      jump\t// in\n    tag_48:\n      mload(0x40)\n        /* \"#utility.yul\":2572:2597   */\n      swap1\n      dup2\n      mstore\n        /* \"#utility.yul\":2560:2562   */\n      0x20\n        /* \"#utility.yul\":2545:2563   */\n      add\n        /* \"totalEclipseNFT.sol\":1934:2072  function totalSupply() public view returns (uint256) {... */\n      tag_28\n        /* \"#utility.yul\":2426:2603   */\n      jump\n        /* \"@openzeppelin/contracts/token/ERC721/ERC721.sol\":4143:4721  function transferFrom(address from, address to, uint256 tokenId) public virtual {... */\n    tag_9:\n      tag_30\n      tag_53\n      calldatasize\n      0x04\n      tag_54\n      jump\t// in\n    tag_53:\n      tag_55\n      jump\t// in\n        /* \"@openzeppelin/contracts/token/common/ERC2981.sol\":2379:2798  function royaltyInfo(uint256 tokenId, uint256 salePrice) public view virtual returns (address, uint256) {... */\n    tag_10:\n      tag_56\n      tag_57\n      calldatasize\n      0x04\n      tag_58\n      jump\t// in\n    tag_57:\n      tag_59\n      jump\t// in\n    tag_56:\n      0x40\n      dup1\n      mload\n      sub(shl(0xa0, 0x01), 0x01)\n        /* \"#utility.yul\":3530:3562   */\n      swap1\n      swap4\n      and\n        /* \"#utility.yul\":3512:3563   */\n      dup4\n      mstore\n        /* \"#utility.yul\":3594:3596   */\n      0x20\n        /* \"#utility.yul\":3579:3597   */\n      dup4\n      add\n        /* \"#utility.yul\":3572:3606   */\n      swap2\n      swap1\n      swap2\n      mstore\n        /* \"#utility.yul\":3485:3503   */\n      add\n        /* \"@openzeppelin/contracts/token/common/ERC2981.sol\":2379:2798  function royaltyInfo(uint256 tokenId, uint256 salePrice) public view virtual returns (address, uint256) {... */\n      tag_28\n        /* \"#utility.yul\":3338:3612   */\n      jump\n        /* \"@openzeppelin/contracts/token/ERC721/ERC721.sol\":4787:4919  function safeTransferFrom(address from, address to, uint256 tokenId) public {... */\n    tag_11:\n      tag_30\n      tag_63\n      calldatasize\n      0x04\n      tag_54\n      jump\t// in\n    tag_63:\n      tag_64\n      jump\t// in\n        /* \"@openzeppelin/contracts/token/ERC721/ERC721.sol\":2185:2303  function ownerOf(uint256 tokenId) public view virtual returns (address) {... */\n    tag_12:\n      tag_38\n      tag_66\n      calldatasize\n      0x04\n      tag_40\n      jump\t// in\n    tag_66:\n      tag_67\n      jump\t// in\n        /* \"@openzeppelin/contracts/token/ERC721/ERC721.sol\":1920:2128  function balanceOf(address owner) public view virtual returns (uint256) {... */\n    tag_13:\n      tag_48\n      tag_70\n      calldatasize\n      0x04\n      tag_71\n      jump\t// in\n    tag_70:\n      tag_72\n      jump\t// in\n        /* \"@openzeppelin/contracts/access/Ownable.sol\":2293:2394  function renounceOwnership() public virtual onlyOwner {... */\n    tag_14:\n      tag_30\n      tag_75\n      jump\t// in\n        /* \"@openzeppelin/contracts/access/Ownable.sol\":1638:1723  function owner() public view virtual returns (address) {... */\n    tag_15:\n        /* \"@openzeppelin/contracts/access/Ownable.sol\":1710:1716  _owner */\n      and(sub(shl(0xa0, 0x01), 0x01), sload(0x06))\n        /* \"@openzeppelin/contracts/access/Ownable.sol\":1638:1723  function owner() public view virtual returns (address) {... */\n      jump(tag_38)\n        /* \"@openzeppelin/contracts/token/ERC721/ERC721.sol\":2518:2611  function symbol() public view virtual returns (string memory) {... */\n    tag_16:\n      tag_34\n      tag_80\n      jump\t// in\n        /* \"@openzeppelin/contracts/token/ERC721/ERC721.sol\":3718:3862  function setApprovalForAll(address operator, bool approved) public virtual {... */\n    tag_17:\n      tag_30\n      tag_83\n      calldatasize\n      0x04\n      tag_84\n      jump\t// in\n    tag_83:\n      tag_85\n      jump\t// in\n        /* \"@openzeppelin/contracts/token/ERC721/ERC721.sol\":4985:5193  function safeTransferFrom(address from, address to, uint256 tokenId, bytes memory data) public virtual {... */\n    tag_18:\n      tag_30\n      tag_87\n      calldatasize\n      0x04\n      tag_88\n      jump\t// in\n    tag_87:\n      tag_89\n      jump\t// in\n        /* \"@openzeppelin/contracts/token/ERC721/ERC721.sol\":2677:2932  function tokenURI(uint256 tokenId) public view virtual returns (string memory) {... */\n    tag_19:\n      tag_34\n      tag_91\n      calldatasize\n      0x04\n      tag_40\n      jump\t// in\n    tag_91:\n      tag_92\n      jump\t// in\n        /* \"@openzeppelin/contracts/token/ERC721/ERC721.sol\":3928:4081  function isApprovedForAll(address owner, address operator) public view virtual returns (bool) {... */\n    tag_20:\n      tag_24\n      tag_95\n      calldatasize\n      0x04\n      tag_96\n      jump\t// in\n    tag_95:\n      tag_97\n      jump\t// in\n        /* \"@openzeppelin/contracts/access/Ownable.sol\":2543:2758  function transferOwnership(address newOwner) public virtual onlyOwner {... */\n    tag_21:\n      tag_30\n      tag_100\n      calldatasize\n      0x04\n      tag_71\n      jump\t// in\n    tag_100:\n      tag_101\n      jump\t// in\n        /* \"totalEclipseNFT.sol\":2320:2523  function supportsInterface(bytes4 interfaceId)... */\n    tag_27:\n        /* \"totalEclipseNFT.sol\":2450:2454  bool */\n      0x00\n        /* \"totalEclipseNFT.sol\":2479:2515  super.supportsInterface(interfaceId) */\n      tag_103\n        /* \"totalEclipseNFT.sol\":2503:2514  interfaceId */\n      dup3\n        /* \"totalEclipseNFT.sol\":2479:2502  super.supportsInterface */\n      tag_104\n        /* \"totalEclipseNFT.sol\":2479:2515  super.supportsInterface(interfaceId) */\n      jump\t// in\n    tag_103:\n        /* \"totalEclipseNFT.sol\":2472:2515  return super.supportsInterface(interfaceId) */\n      swap3\n        /* \"totalEclipseNFT.sol\":2320:2523  function supportsInterface(bytes4 interfaceId)... */\n      swap2\n      pop\n      pop\n      jump\t// out\n        /* \"totalEclipseNFT.sol\":2134:2312  function setRoyaltyInfo(address _receiver, uint96 _royaltyFeesInBips)... */\n    tag_33:\n        /* \"@openzeppelin/contracts/access/Ownable.sol\":1531:1544  _checkOwner() */\n      tag_106\n        /* \"@openzeppelin/contracts/access/Ownable.sol\":1531:1542  _checkOwner */\n      tag_107\n        /* \"@openzeppelin/contracts/access/Ownable.sol\":1531:1544  _checkOwner() */\n      jump\t// in\n    tag_106:\n        /* \"totalEclipseNFT.sol\":2255:2304  _setDefaultRoyalty(_receiver, _royaltyFeesInBips) */\n      tag_109\n        /* \"totalEclipseNFT.sol\":2274:2283  _receiver */\n      dup3\n        /* \"totalEclipseNFT.sol\":2285:2303  _royaltyFeesInBips */\n      dup3\n        /* \"totalEclipseNFT.sol\":2255:2273  _setDefaultRoyalty */\n      tag_110\n        /* \"totalEclipseNFT.sol\":2255:2304  _setDefaultRoyalty(_receiver, _royaltyFeesInBips) */\n      jump\t// in\n    tag_109:\n        /* \"totalEclipseNFT.sol\":2134:2312  function setRoyaltyInfo(address _receiver, uint96 _royaltyFeesInBips)... */\n      pop\n      pop\n      jump\t// out\n        /* \"@openzeppelin/contracts/token/ERC721/ERC721.sol\":2365:2454  function name() public view virtual returns (string memory) {... */\n    tag_35:\n        /* \"@openzeppelin/contracts/token/ERC721/ERC721.sol\":2410:2423  string memory */\n      0x60\n        /* \"@openzeppelin/contracts/token/ERC721/ERC721.sol\":2442:2447  _name */\n      0x00\n        /* \"@openzeppelin/contracts/token/ERC721/ERC721.sol\":2435:2447  return _name */\n      dup1\n      sload\n      tag_112\n      swap1\n      tag_113\n      jump\t// in\n    tag_112:\n      dup1\n      0x1f\n      add\n      0x20\n      dup1\n      swap2\n      div\n      mul\n      0x20\n      add\n      mload(0x40)\n      swap1\n      dup2\n      add\n      0x40\n      mstore\n      dup1\n      swap3\n      swap2\n      swap1\n      dup2\n      dup2\n      mstore\n      0x20\n      add\n      dup3\n      dup1\n      sload\n      tag_114\n      swap1\n      tag_113\n      jump\t// in\n    tag_114:\n      dup1\n      iszero\n      tag_115\n      jumpi\n      dup1\n      0x1f\n      lt\n      tag_116\n      jumpi\n      0x0100\n      dup1\n      dup4\n      sload\n      div\n      mul\n      dup4\n      mstore\n      swap2\n      0x20\n      add\n      swap2\n      jump(tag_115)\n    tag_116:\n      dup3\n      add\n      swap2\n      swap1\n      0x00\n      mstore\n      keccak256(0x00, 0x20)\n      swap1\n    tag_117:\n      dup2\n      sload\n      dup2\n      mstore\n      swap1\n      0x01\n      add\n      swap1\n      0x20\n      add\n      dup1\n      dup4\n      gt\n      tag_117\n      jumpi\n      dup3\n      swap1\n      sub\n      0x1f\n      and\n      dup3\n      add\n      swap2\n    tag_115:\n      pop\n      pop\n      pop\n      pop\n      pop\n      swap1\n      pop\n        /* \"@openzeppelin/contracts/token/ERC721/ERC721.sol\":2365:2454  function name() public view virtual returns (string memory) {... */\n      swap1\n      jump\t// out\n        /* \"@openzeppelin/contracts/token/ERC721/ERC721.sol\":3497:3651  function getApproved(uint256 tokenId) public view virtual returns (address) {... */\n    tag_41:\n        /* \"@openzeppelin/contracts/token/ERC721/ERC721.sol\":3564:3571  address */\n      0x00\n        /* \"@openzeppelin/contracts/token/ERC721/ERC721.sol\":3583:3605  _requireOwned(tokenId) */\n      tag_119\n        /* \"@openzeppelin/contracts/token/ERC721/ERC721.sol\":3597:3604  tokenId */\n      dup3\n        /* \"@openzeppelin/contracts/token/ERC721/ERC721.sol\":3583:3596  _requireOwned */\n      tag_120\n        /* \"@openzeppelin/contracts/token/ERC721/ERC721.sol\":3583:3605  _requireOwned(tokenId) */\n      jump\t// in\n    tag_119:\n      pop\n        /* \"@openzeppelin/contracts/token/ERC721/ERC721.sol\":6008:6015  address */\n      0x00\n        /* \"@openzeppelin/contracts/token/ERC721/ERC721.sol\":6034:6058  _tokenApprovals[tokenId] */\n      dup3\n      dup2\n      mstore\n        /* \"@openzeppelin/contracts/token/ERC721/ERC721.sol\":6034:6049  _tokenApprovals */\n      0x04\n        /* \"@openzeppelin/contracts/token/ERC721/ERC721.sol\":6034:6058  _tokenApprovals[tokenId] */\n      0x20\n      mstore\n      0x40\n      swap1\n      keccak256\n      sload\n      sub(shl(0xa0, 0x01), 0x01)\n      and\n        /* \"@openzeppelin/contracts/token/ERC721/ERC721.sol\":3623:3644  _getApproved(tokenId) */\n      tag_103\n        /* \"@openzeppelin/contracts/token/ERC721/ERC721.sol\":5938:6065  function _getApproved(uint256 tokenId) internal view virtual returns (address) {... */\n      jump\n        /* \"@openzeppelin/contracts/token/ERC721/ERC721.sol\":3323:3436  function approve(address to, uint256 tokenId) public virtual {... */\n    tag_47:\n        /* \"@openzeppelin/contracts/token/ERC721/ERC721.sol\":3394:3429  _approve(to, tokenId, _msgSender()) */\n      tag_109\n        /* \"@openzeppelin/contracts/token/ERC721/ERC721.sol\":3403:3405  to */\n      dup3\n        /* \"@openzeppelin/contracts/token/ERC721/ERC721.sol\":3407:3414  tokenId */\n      dup3\n        /* \"@openzeppelin/contracts/utils/Context.sol\":735:745  msg.sender */\n      caller\n        /* \"@openzeppelin/contracts/token/ERC721/ERC721.sol\":3394:3402  _approve */\n      tag_127\n        /* \"@openzeppelin/contracts/token/ERC721/ERC721.sol\":3394:3429  _approve(to, tokenId, _msgSender()) */\n      jump\t// in\n        /* \"totalEclipseNFT.sol\":1934:2072  function totalSupply() public view returns (uint256) {... */\n    tag_49:\n        /* \"totalEclipseNFT.sol\":1978:1985  uint256 */\n      0x00\n        /* \"totalEclipseNFT.sol\":2020:2021  1 */\n      0x01\n        /* \"totalEclipseNFT.sol\":2005:2017  _nextTokenId */\n      sload(0x09)\n        /* \"totalEclipseNFT.sol\":2005:2021  _nextTokenId - 1 */\n      tag_129\n      swap2\n      swap1\n      tag_130\n      jump\t// in\n    tag_129:\n        /* \"totalEclipseNFT.sol\":1998:2021  return _nextTokenId - 1 */\n      swap1\n      pop\n        /* \"totalEclipseNFT.sol\":1934:2072  function totalSupply() public view returns (uint256) {... */\n      swap1\n      jump\t// out\n        /* \"@openzeppelin/contracts/token/ERC721/ERC721.sol\":4143:4721  function transferFrom(address from, address to, uint256 tokenId) public virtual {... */\n    tag_55:\n      sub(shl(0xa0, 0x01), 0x01)\n        /* \"@openzeppelin/contracts/token/ERC721/ERC721.sol\":4237:4253  to == address(0) */\n      dup3\n      and\n        /* \"@openzeppelin/contracts/token/ERC721/ERC721.sol\":4233:4320  if (to == address(0)) {... */\n      tag_132\n      jumpi\n        /* \"@openzeppelin/contracts/token/ERC721/ERC721.sol\":4306:4307  0 */\n      0x00\n        /* \"@openzeppelin/contracts/token/ERC721/ERC721.sol\":4276:4309  ERC721InvalidReceiver(address(0)) */\n      mload(0x40)\n      shl(0xe1, 0x32505749)\n      dup2\n      mstore\n      0x04\n      add\n      tag_133\n      swap2\n      swap1\n      tag_43\n      jump\t// in\n    tag_133:\n      mload(0x40)\n      dup1\n      swap2\n      sub\n      swap1\n      revert\n        /* \"@openzeppelin/contracts/token/ERC721/ERC721.sol\":4233:4320  if (to == address(0)) {... */\n    tag_132:\n        /* \"@openzeppelin/contracts/token/ERC721/ERC721.sol\":4538:4559  address previousOwner */\n      0x00\n        /* \"@openzeppelin/contracts/token/ERC721/ERC721.sol\":4562:4596  _update(to, tokenId, _msgSender()) */\n      tag_134\n        /* \"@openzeppelin/contracts/token/ERC721/ERC721.sol\":4570:4572  to */\n      dup4\n        /* \"@openzeppelin/contracts/token/ERC721/ERC721.sol\":4574:4581  tokenId */\n      dup4\n        /* \"@openzeppelin/contracts/utils/Context.sol\":735:745  msg.sender */\n      caller\n        /* \"@openzeppelin/contracts/token/ERC721/ERC721.sol\":4562:4569  _update */\n      tag_136\n        /* \"@openzeppelin/contracts/token/ERC721/ERC721.sol\":4562:4596  _update(to, tokenId, _msgSender()) */\n      jump\t// in\n    tag_134:\n        /* \"@openzeppelin/contracts/token/ERC721/ERC721.sol\":4538:4596  address previousOwner = _update(to, tokenId, _msgSender()) */\n      swap1\n      pop\n        /* \"@openzeppelin/contracts/token/ERC721/ERC721.sol\":4627:4631  from */\n      dup4\n      sub(shl(0xa0, 0x01), 0x01)\n        /* \"@openzeppelin/contracts/token/ERC721/ERC721.sol\":4610:4631  previousOwner != from */\n      and\n        /* \"@openzeppelin/contracts/token/ERC721/ERC721.sol\":4610:4623  previousOwner */\n      dup2\n      sub(shl(0xa0, 0x01), 0x01)\n        /* \"@openzeppelin/contracts/token/ERC721/ERC721.sol\":4610:4631  previousOwner != from */\n      and\n      eq\n        /* \"@openzeppelin/contracts/token/ERC721/ERC721.sol\":4606:4715  if (previousOwner != from) {... */\n      tag_137\n      jumpi\n        /* \"@openzeppelin/contracts/token/ERC721/ERC721.sol\":4654:4704  ERC721IncorrectOwner(from, tokenId, previousOwner) */\n      mload(0x40)\n      shl(0xe0, 0x64283d7b)\n      dup2\n      mstore\n      sub(shl(0xa0, 0x01), 0x01)\n        /* \"#utility.yul\":6639:6671   */\n      dup1\n      dup7\n      and\n        /* \"@openzeppelin/contracts/token/ERC721/ERC721.sol\":4654:4704  ERC721IncorrectOwner(from, tokenId, previousOwner) */\n      0x04\n      dup4\n      add\n        /* \"#utility.yul\":6621:6672   */\n      mstore\n        /* \"#utility.yul\":6688:6706   */\n      0x24\n      dup3\n      add\n        /* \"#utility.yul\":6681:6715   */\n      dup5\n      swap1\n      mstore\n        /* \"#utility.yul\":6751:6783   */\n      dup3\n      and\n        /* \"#utility.yul\":6731:6749   */\n      0x44\n      dup3\n      add\n        /* \"#utility.yul\":6724:6784   */\n      mstore\n        /* \"#utility.yul\":6594:6612   */\n      0x64\n      add\n        /* \"@openzeppelin/contracts/token/ERC721/ERC721.sol\":4654:4704  ERC721IncorrectOwner(from, tokenId, previousOwner) */\n      tag_133\n        /* \"#utility.yul\":6419:6790   */\n      jump\n        /* \"@openzeppelin/contracts/token/ERC721/ERC721.sol\":4606:4715  if (previousOwner != from) {... */\n    tag_137:\n        /* \"@openzeppelin/contracts/token/ERC721/ERC721.sol\":4223:4721  {... */\n      pop\n        /* \"@openzeppelin/contracts/token/ERC721/ERC721.sol\":4143:4721  function transferFrom(address from, address to, uint256 tokenId) public virtual {... */\n      pop\n      pop\n      pop\n      jump\t// out\n        /* \"@openzeppelin/contracts/token/common/ERC2981.sol\":2379:2798  function royaltyInfo(uint256 tokenId, uint256 salePrice) public view virtual returns (address, uint256) {... */\n    tag_59:\n        /* \"@openzeppelin/contracts/token/common/ERC2981.sol\":2465:2472  address */\n      0x00\n        /* \"@openzeppelin/contracts/token/common/ERC2981.sol\":2522:2548  _tokenRoyaltyInfo[tokenId] */\n      dup3\n      dup2\n      mstore\n        /* \"@openzeppelin/contracts/token/common/ERC2981.sol\":2522:2539  _tokenRoyaltyInfo */\n      0x08\n        /* \"@openzeppelin/contracts/token/common/ERC2981.sol\":2522:2548  _tokenRoyaltyInfo[tokenId] */\n      0x20\n      swap1\n      dup2\n      mstore\n      0x40\n      dup1\n      dup4\n      keccak256\n        /* \"@openzeppelin/contracts/token/common/ERC2981.sol\":2493:2548  RoyaltyInfo memory royalty = _tokenRoyaltyInfo[tokenId] */\n      dup2\n      mload\n      dup1\n      dup4\n      add\n      swap1\n      swap3\n      mstore\n      sload\n      sub(shl(0xa0, 0x01), 0x01)\n      dup2\n      and\n      dup1\n      dup4\n      mstore\n      shl(0xa0, 0x01)\n      swap1\n      swap2\n      div\n      sub(shl(0x60, 0x01), 0x01)\n      and\n      swap3\n      dup3\n      add\n      swap3\n      swap1\n      swap3\n      mstore\n        /* \"@openzeppelin/contracts/token/common/ERC2981.sol\":2465:2472  address */\n      dup3\n      swap2\n        /* \"@openzeppelin/contracts/token/common/ERC2981.sol\":2559:2649  if (royalty.receiver == address(0)) {... */\n      tag_141\n      jumpi\n      pop\n        /* \"@openzeppelin/contracts/token/common/ERC2981.sol\":2609:2638  royalty = _defaultRoyaltyInfo */\n      0x40\n      dup1\n      mload\n      dup1\n      dup3\n      add\n      swap1\n      swap2\n      mstore\n        /* \"@openzeppelin/contracts/token/common/ERC2981.sol\":2619:2638  _defaultRoyaltyInfo */\n      0x07\n        /* \"@openzeppelin/contracts/token/common/ERC2981.sol\":2609:2638  royalty = _defaultRoyaltyInfo */\n      sload\n      sub(shl(0xa0, 0x01), 0x01)\n      dup2\n      and\n      dup3\n      mstore\n      shl(0xa0, 0x01)\n      swap1\n      div\n      sub(shl(0x60, 0x01), 0x01)\n      and\n      0x20\n      dup3\n      add\n      mstore\n        /* \"@openzeppelin/contracts/token/common/ERC2981.sol\":2559:2649  if (royalty.receiver == address(0)) {... */\n    tag_141:\n        /* \"@openzeppelin/contracts/token/common/ERC2981.sol\":2696:2719  royalty.royaltyFraction */\n      0x20\n      dup2\n      add\n      mload\n        /* \"@openzeppelin/contracts/token/common/ERC2981.sol\":2659:2680  uint256 royaltyAmount */\n      0x00\n      swap1\n        /* \"@openzeppelin/contracts/token/common/ERC2981.sol\":3156:3161  10000 */\n      0x2710\n      swap1\n        /* \"@openzeppelin/contracts/token/common/ERC2981.sol\":2684:2719  salePrice * royalty.royaltyFraction */\n      tag_144\n      swap1\n      sub(shl(0x60, 0x01), 0x01)\n      and\n        /* \"@openzeppelin/contracts/token/common/ERC2981.sol\":2684:2693  salePrice */\n      dup8\n        /* \"@openzeppelin/contracts/token/common/ERC2981.sol\":2684:2719  salePrice * royalty.royaltyFraction */\n      tag_145\n      jump\t// in\n    tag_144:\n        /* \"@openzeppelin/contracts/token/common/ERC2981.sol\":2683:2740  (salePrice * royalty.royaltyFraction) / _feeDenominator() */\n      tag_146\n      swap2\n      swap1\n      tag_147\n      jump\t// in\n    tag_146:\n        /* \"@openzeppelin/contracts/token/common/ERC2981.sol\":2759:2775  royalty.receiver */\n      swap2\n      mload\n      swap7\n      swap2\n      swap6\n      pop\n        /* \"@openzeppelin/contracts/token/common/ERC2981.sol\":2379:2798  function royaltyInfo(uint256 tokenId, uint256 salePrice) public view virtual returns (address, uint256) {... */\n      swap1\n      swap4\n      pop\n      pop\n      pop\n      pop\n      jump\t// out\n        /* \"@openzeppelin/contracts/token/ERC721/ERC721.sol\":4787:4919  function safeTransferFrom(address from, address to, uint256 tokenId) public {... */\n    tag_64:\n        /* \"@openzeppelin/contracts/token/ERC721/ERC721.sol\":4873:4912  safeTransferFrom(from, to, tokenId, \"\") */\n      tag_149\n        /* \"@openzeppelin/contracts/token/ERC721/ERC721.sol\":4890:4894  from */\n      dup4\n        /* \"@openzeppelin/contracts/token/ERC721/ERC721.sol\":4896:4898  to */\n      dup4\n        /* \"@openzeppelin/contracts/token/ERC721/ERC721.sol\":4900:4907  tokenId */\n      dup4\n        /* \"@openzeppelin/contracts/token/ERC721/ERC721.sol\":4873:4912  safeTransferFrom(from, to, tokenId, \"\") */\n      mload(0x40)\n      dup1\n      0x20\n      add\n      0x40\n      mstore\n      dup1\n      0x00\n      dup2\n      mstore\n      pop\n        /* \"@openzeppelin/contracts/token/ERC721/ERC721.sol\":4873:4889  safeTransferFrom */\n      tag_89\n        /* \"@openzeppelin/contracts/token/ERC721/ERC721.sol\":4873:4912  safeTransferFrom(from, to, tokenId, \"\") */\n      jump\t// in\n    tag_149:\n        /* \"@openzeppelin/contracts/token/ERC721/ERC721.sol\":4787:4919  function safeTransferFrom(address from, address to, uint256 tokenId) public {... */\n      pop\n      pop\n      pop\n      jump\t// out\n        /* \"@openzeppelin/contracts/token/ERC721/ERC721.sol\":2185:2303  function ownerOf(uint256 tokenId) public view virtual returns (address) {... */\n    tag_67:\n        /* \"@openzeppelin/contracts/token/ERC721/ERC721.sol\":2248:2255  address */\n      0x00\n        /* \"@openzeppelin/contracts/token/ERC721/ERC721.sol\":2274:2296  _requireOwned(tokenId) */\n      tag_103\n        /* \"@openzeppelin/contracts/token/ERC721/ERC721.sol\":2288:2295  tokenId */\n      dup3\n        /* \"@openzeppelin/contracts/token/ERC721/ERC721.sol\":2274:2287  _requireOwned */\n      tag_120\n        /* \"@openzeppelin/contracts/token/ERC721/ERC721.sol\":2274:2296  _requireOwned(tokenId) */\n      jump\t// in\n        /* \"@openzeppelin/contracts/token/ERC721/ERC721.sol\":1920:2128  function balanceOf(address owner) public view virtual returns (uint256) {... */\n    tag_72:\n        /* \"@openzeppelin/contracts/token/ERC721/ERC721.sol\":1983:1990  uint256 */\n      0x00\n      sub(shl(0xa0, 0x01), 0x01)\n        /* \"@openzeppelin/contracts/token/ERC721/ERC721.sol\":2006:2025  owner == address(0) */\n      dup3\n      and\n        /* \"@openzeppelin/contracts/token/ERC721/ERC721.sol\":2002:2089  if (owner == address(0)) {... */\n      tag_153\n      jumpi\n        /* \"@openzeppelin/contracts/token/ERC721/ERC721.sol\":2075:2076  0 */\n      0x00\n        /* \"@openzeppelin/contracts/token/ERC721/ERC721.sol\":2048:2078  ERC721InvalidOwner(address(0)) */\n      mload(0x40)\n      shl(0xe2, 0x22718ad9)\n      dup2\n      mstore\n      0x04\n      add\n      tag_133\n      swap2\n      swap1\n      tag_43\n      jump\t// in\n        /* \"@openzeppelin/contracts/token/ERC721/ERC721.sol\":2002:2089  if (owner == address(0)) {... */\n    tag_153:\n      pop\n      sub(shl(0xa0, 0x01), 0x01)\n        /* \"@openzeppelin/contracts/token/ERC721/ERC721.sol\":2105:2121  _balances[owner] */\n      and\n      0x00\n      swap1\n      dup2\n      mstore\n        /* \"@openzeppelin/contracts/token/ERC721/ERC721.sol\":2105:2114  _balances */\n      0x03\n        /* \"@openzeppelin/contracts/token/ERC721/ERC721.sol\":2105:2121  _balances[owner] */\n      0x20\n      mstore\n      0x40\n      swap1\n      keccak256\n      sload\n      swap1\n        /* \"@openzeppelin/contracts/token/ERC721/ERC721.sol\":1920:2128  function balanceOf(address owner) public view virtual returns (uint256) {... */\n      jump\t// out\n        /* \"@openzeppelin/contracts/access/Ownable.sol\":2293:2394  function renounceOwnership() public virtual onlyOwner {... */\n    tag_75:\n        /* \"@openzeppelin/contracts/access/Ownable.sol\":1531:1544  _checkOwner() */\n      tag_156\n        /* \"@openzeppelin/contracts/access/Ownable.sol\":1531:1542  _checkOwner */\n      tag_107\n        /* \"@openzeppelin/contracts/access/Ownable.sol\":1531:1544  _checkOwner() */\n      jump\t// in\n    tag_156:\n        /* \"@openzeppelin/contracts/access/Ownable.sol\":2357:2387  _transferOwnership(address(0)) */\n      tag_158\n        /* \"@openzeppelin/contracts/access/Ownable.sol\":2384:2385  0 */\n      0x00\n        /* \"@openzeppelin/contracts/access/Ownable.sol\":2357:2375  _transferOwnership */\n      tag_159\n        /* \"@openzeppelin/contracts/access/Ownable.sol\":2357:2387  _transferOwnership(address(0)) */\n      jump\t// in\n    tag_158:\n        /* \"@openzeppelin/contracts/access/Ownable.sol\":2293:2394  function renounceOwnership() public virtual onlyOwner {... */\n      jump\t// out\n        /* \"@openzeppelin/contracts/token/ERC721/ERC721.sol\":2518:2611  function symbol() public view virtual returns (string memory) {... */\n    tag_80:\n        /* \"@openzeppelin/contracts/token/ERC721/ERC721.sol\":2565:2578  string memory */\n      0x60\n        /* \"@openzeppelin/contracts/token/ERC721/ERC721.sol\":2597:2604  _symbol */\n      0x01\n        /* \"@openzeppelin/contracts/token/ERC721/ERC721.sol\":2590:2604  return _symbol */\n      dup1\n      sload\n      tag_112\n      swap1\n      tag_113\n      jump\t// in\n        /* \"@openzeppelin/contracts/token/ERC721/ERC721.sol\":3718:3862  function setApprovalForAll(address operator, bool approved) public virtual {... */\n    tag_85:\n        /* \"@openzeppelin/contracts/token/ERC721/ERC721.sol\":3803:3855  _setApprovalForAll(_msgSender(), operator, approved) */\n      tag_109\n        /* \"@openzeppelin/contracts/utils/Context.sol\":735:745  msg.sender */\n      caller\n        /* \"@openzeppelin/contracts/token/ERC721/ERC721.sol\":3836:3844  operator */\n      dup4\n        /* \"@openzeppelin/contracts/token/ERC721/ERC721.sol\":3846:3854  approved */\n      dup4\n        /* \"@openzeppelin/contracts/token/ERC721/ERC721.sol\":3803:3821  _setApprovalForAll */\n      tag_170\n        /* \"@openzeppelin/contracts/token/ERC721/ERC721.sol\":3803:3855  _setApprovalForAll(_msgSender(), operator, approved) */\n      jump\t// in\n        /* \"@openzeppelin/contracts/token/ERC721/ERC721.sol\":4985:5193  function safeTransferFrom(address from, address to, uint256 tokenId, bytes memory data) public virtual {... */\n    tag_89:\n        /* \"@openzeppelin/contracts/token/ERC721/ERC721.sol\":5098:5129  transferFrom(from, to, tokenId) */\n      tag_172\n        /* \"@openzeppelin/contracts/token/ERC721/ERC721.sol\":5111:5115  from */\n      dup5\n        /* \"@openzeppelin/contracts/token/ERC721/ERC721.sol\":5117:5119  to */\n      dup5\n        /* \"@openzeppelin/contracts/token/ERC721/ERC721.sol\":5121:5128  tokenId */\n      dup5\n        /* \"@openzeppelin/contracts/token/ERC721/ERC721.sol\":5098:5110  transferFrom */\n      tag_55\n        /* \"@openzeppelin/contracts/token/ERC721/ERC721.sol\":5098:5129  transferFrom(from, to, tokenId) */\n      jump\t// in\n    tag_172:\n        /* \"@openzeppelin/contracts/token/ERC721/ERC721.sol\":5139:5186  _checkOnERC721Received(from, to, tokenId, data) */\n      tag_137\n        /* \"@openzeppelin/contracts/token/ERC721/ERC721.sol\":5162:5166  from */\n      dup5\n        /* \"@openzeppelin/contracts/token/ERC721/ERC721.sol\":5168:5170  to */\n      dup5\n        /* \"@openzeppelin/contracts/token/ERC721/ERC721.sol\":5172:5179  tokenId */\n      dup5\n        /* \"@openzeppelin/contracts/token/ERC721/ERC721.sol\":5181:5185  data */\n      dup5\n        /* \"@openzeppelin/contracts/token/ERC721/ERC721.sol\":5139:5161  _checkOnERC721Received */\n      tag_174\n        /* \"@openzeppelin/contracts/token/ERC721/ERC721.sol\":5139:5186  _checkOnERC721Received(from, to, tokenId, data) */\n      jump\t// in\n        /* \"@openzeppelin/contracts/token/ERC721/ERC721.sol\":2677:2932  function tokenURI(uint256 tokenId) public view virtual returns (string memory) {... */\n    tag_92:\n        /* \"@openzeppelin/contracts/token/ERC721/ERC721.sol\":2741:2754  string memory */\n      0x60\n        /* \"@openzeppelin/contracts/token/ERC721/ERC721.sol\":2766:2788  _requireOwned(tokenId) */\n      tag_176\n        /* \"@openzeppelin/contracts/token/ERC721/ERC721.sol\":2780:2787  tokenId */\n      dup3\n        /* \"@openzeppelin/contracts/token/ERC721/ERC721.sol\":2766:2779  _requireOwned */\n      tag_120\n        /* \"@openzeppelin/contracts/token/ERC721/ERC721.sol\":2766:2788  _requireOwned(tokenId) */\n      jump\t// in\n    tag_176:\n      pop\n        /* \"@openzeppelin/contracts/token/ERC721/ERC721.sol\":2799:2820  string memory baseURI */\n      0x00\n        /* \"@openzeppelin/contracts/token/ERC721/ERC721.sol\":2823:2833  _baseURI() */\n      tag_177\n        /* \"@openzeppelin/contracts/token/ERC721/ERC721.sol\":2823:2831  _baseURI */\n      tag_178\n        /* \"@openzeppelin/contracts/token/ERC721/ERC721.sol\":2823:2833  _baseURI() */\n      jump\t// in\n    tag_177:\n        /* \"@openzeppelin/contracts/token/ERC721/ERC721.sol\":2799:2833  string memory baseURI = _baseURI() */\n      swap1\n      pop\n        /* \"@openzeppelin/contracts/token/ERC721/ERC721.sol\":2874:2875  0 */\n      0x00\n        /* \"@openzeppelin/contracts/token/ERC721/ERC721.sol\":2856:2863  baseURI */\n      dup2\n        /* \"@openzeppelin/contracts/token/ERC721/ERC721.sol\":2850:2871  bytes(baseURI).length */\n      mload\n        /* \"@openzeppelin/contracts/token/ERC721/ERC721.sol\":2850:2875  bytes(baseURI).length > 0 */\n      gt\n        /* \"@openzeppelin/contracts/token/ERC721/ERC721.sol\":2850:2925  bytes(baseURI).length > 0 ? string.concat(baseURI, tokenId.toString()) : \"\" */\n      tag_179\n      jumpi\n      mload(0x40)\n      dup1\n      0x20\n      add\n      0x40\n      mstore\n      dup1\n      0x00\n      dup2\n      mstore\n      pop\n      jump(tag_180)\n    tag_179:\n        /* \"@openzeppelin/contracts/token/ERC721/ERC721.sol\":2892:2899  baseURI */\n      dup1\n        /* \"@openzeppelin/contracts/token/ERC721/ERC721.sol\":2901:2919  tokenId.toString() */\n      tag_181\n        /* \"@openzeppelin/contracts/token/ERC721/ERC721.sol\":2901:2908  tokenId */\n      dup5\n        /* \"@openzeppelin/contracts/token/ERC721/ERC721.sol\":2901:2917  tokenId.toString */\n      tag_182\n        /* \"@openzeppelin/contracts/token/ERC721/ERC721.sol\":2901:2919  tokenId.toString() */\n      jump\t// in\n    tag_181:\n        /* \"@openzeppelin/contracts/token/ERC721/ERC721.sol\":2878:2920  string.concat(baseURI, tokenId.toString()) */\n      add(0x20, mload(0x40))\n      tag_183\n      swap3\n      swap2\n      swap1\n      tag_184\n      jump\t// in\n    tag_183:\n      mload(0x40)\n      0x20\n      dup2\n      dup4\n      sub\n      sub\n      dup2\n      mstore\n      swap1\n      0x40\n      mstore\n        /* \"@openzeppelin/contracts/token/ERC721/ERC721.sol\":2850:2925  bytes(baseURI).length > 0 ? string.concat(baseURI, tokenId.toString()) : \"\" */\n    tag_180:\n        /* \"@openzeppelin/contracts/token/ERC721/ERC721.sol\":2843:2925  return bytes(baseURI).length > 0 ? string.concat(baseURI, tokenId.toString()) : \"\" */\n      swap4\n        /* \"@openzeppelin/contracts/token/ERC721/ERC721.sol\":2677:2932  function tokenURI(uint256 tokenId) public view virtual returns (string memory) {... */\n      swap3\n      pop\n      pop\n      pop\n      jump\t// out\n        /* \"@openzeppelin/contracts/token/ERC721/ERC721.sol\":3928:4081  function isApprovedForAll(address owner, address operator) public view virtual returns (bool) {... */\n    tag_97:\n      sub(shl(0xa0, 0x01), 0x01)\n        /* \"@openzeppelin/contracts/token/ERC721/ERC721.sol\":4039:4064  _operatorApprovals[owner] */\n      swap2\n      dup3\n      and\n        /* \"@openzeppelin/contracts/token/ERC721/ERC721.sol\":4016:4020  bool */\n      0x00\n        /* \"@openzeppelin/contracts/token/ERC721/ERC721.sol\":4039:4064  _operatorApprovals[owner] */\n      swap1\n      dup2\n      mstore\n        /* \"@openzeppelin/contracts/token/ERC721/ERC721.sol\":4039:4057  _operatorApprovals */\n      0x05\n        /* \"@openzeppelin/contracts/token/ERC721/ERC721.sol\":4039:4064  _operatorApprovals[owner] */\n      0x20\n      swap1\n      dup2\n      mstore\n      0x40\n      dup1\n      dup4\n      keccak256\n        /* \"@openzeppelin/contracts/token/ERC721/ERC721.sol\":4039:4074  _operatorApprovals[owner][operator] */\n      swap4\n      swap1\n      swap5\n      and\n      dup3\n      mstore\n      swap2\n      swap1\n      swap2\n      mstore\n      keccak256\n      sload\n      0xff\n      and\n      swap1\n        /* \"@openzeppelin/contracts/token/ERC721/ERC721.sol\":3928:4081  function isApprovedForAll(address owner, address operator) public view virtual returns (bool) {... */\n      jump\t// out\n        /* \"@openzeppelin/contracts/access/Ownable.sol\":2543:2758  function transferOwnership(address newOwner) public virtual onlyOwner {... */\n    tag_101:\n        /* \"@openzeppelin/contracts/access/Ownable.sol\":1531:1544  _checkOwner() */\n      tag_187\n        /* \"@openzeppelin/contracts/access/Ownable.sol\":1531:1542  _checkOwner */\n      tag_107\n        /* \"@openzeppelin/contracts/access/Ownable.sol\":1531:1544  _checkOwner() */\n      jump\t// in\n    tag_187:\n      sub(shl(0xa0, 0x01), 0x01)\n        /* \"@openzeppelin/contracts/access/Ownable.sol\":2627:2649  newOwner == address(0) */\n      dup2\n      and\n        /* \"@openzeppelin/contracts/access/Ownable.sol\":2623:2714  if (newOwner == address(0)) {... */\n      tag_189\n      jumpi\n        /* \"@openzeppelin/contracts/access/Ownable.sol\":2700:2701  0 */\n      0x00\n        /* \"@openzeppelin/contracts/access/Ownable.sol\":2672:2703  OwnableInvalidOwner(address(0)) */\n      mload(0x40)\n      shl(0xe0, 0x1e4fbdf7)\n      dup2\n      mstore\n      0x04\n      add\n      tag_133\n      swap2\n      swap1\n      tag_43\n      jump\t// in\n        /* \"@openzeppelin/contracts/access/Ownable.sol\":2623:2714  if (newOwner == address(0)) {... */\n    tag_189:\n        /* \"@openzeppelin/contracts/access/Ownable.sol\":2723:2751  _transferOwnership(newOwner) */\n      tag_191\n        /* \"@openzeppelin/contracts/access/Ownable.sol\":2742:2750  newOwner */\n      dup2\n        /* \"@openzeppelin/contracts/access/Ownable.sol\":2723:2741  _transferOwnership */\n      tag_159\n        /* \"@openzeppelin/contracts/access/Ownable.sol\":2723:2751  _transferOwnership(newOwner) */\n      jump\t// in\n    tag_191:\n        /* \"@openzeppelin/contracts/access/Ownable.sol\":2543:2758  function transferOwnership(address newOwner) public virtual onlyOwner {... */\n      pop\n      jump\t// out\n        /* \"@openzeppelin/contracts/token/common/ERC2981.sol\":2116:2329  function supportsInterface(bytes4 interfaceId) public view virtual override(IERC165, ERC165) returns (bool) {... */\n    tag_104:\n        /* \"@openzeppelin/contracts/token/common/ERC2981.sol\":2218:2222  bool */\n      0x00\n      not(sub(shl(0xe0, 0x01), 0x01))\n        /* \"@openzeppelin/contracts/token/common/ERC2981.sol\":2241:2282  interfaceId == type(IERC2981).interfaceId */\n      dup3\n      and\n      shl(0xe1, 0x152a902d)\n      eq\n      dup1\n        /* \"@openzeppelin/contracts/token/common/ERC2981.sol\":2241:2322  interfaceId == type(IERC2981).interfaceId || super.supportsInterface(interfaceId) */\n      tag_103\n      jumpi\n      pop\n        /* \"@openzeppelin/contracts/token/common/ERC2981.sol\":2286:2322  super.supportsInterface(interfaceId) */\n      tag_103\n        /* \"@openzeppelin/contracts/token/common/ERC2981.sol\":2310:2321  interfaceId */\n      dup3\n        /* \"@openzeppelin/contracts/token/common/ERC2981.sol\":2286:2309  super.supportsInterface */\n      tag_195\n        /* \"@openzeppelin/contracts/token/common/ERC2981.sol\":2286:2322  super.supportsInterface(interfaceId) */\n      jump\t// in\n        /* \"@openzeppelin/contracts/access/Ownable.sol\":1796:1958  function _checkOwner() internal view virtual {... */\n    tag_107:\n        /* \"@openzeppelin/contracts/access/Ownable.sol\":1710:1716  _owner */\n      and(sub(shl(0xa0, 0x01), 0x01), sload(0x06))\n        /* \"@openzeppelin/contracts/utils/Context.sol\":735:745  msg.sender */\n      caller\n        /* \"@openzeppelin/contracts/access/Ownable.sol\":1855:1878  owner() != _msgSender() */\n      eq\n        /* \"@openzeppelin/contracts/access/Ownable.sol\":1851:1952  if (owner() != _msgSender()) {... */\n      tag_158\n      jumpi\n        /* \"@openzeppelin/contracts/utils/Context.sol\":735:745  msg.sender */\n      caller\n        /* \"@openzeppelin/contracts/access/Ownable.sol\":1901:1941  OwnableUnauthorizedAccount(_msgSender()) */\n      mload(0x40)\n      shl(0xe0, 0x118cdaa7)\n      dup2\n      mstore\n      0x04\n      add\n      tag_133\n      swap2\n      swap1\n      tag_43\n      jump\t// in\n        /* \"@openzeppelin/contracts/token/common/ERC2981.sol\":3429:3936  function _setDefaultRoyalty(address receiver, uint96 feeNumerator) internal virtual {... */\n    tag_110:\n        /* \"@openzeppelin/contracts/token/common/ERC2981.sol\":3156:3161  10000 */\n      0x2710\n      sub(shl(0x60, 0x01), 0x01)\n        /* \"@openzeppelin/contracts/token/common/ERC2981.sol\":3576:3602  feeNumerator > denominator */\n      dup3\n      and\n      dup2\n      lt\n        /* \"@openzeppelin/contracts/token/common/ERC2981.sol\":3572:3745  if (feeNumerator > denominator) {... */\n      iszero\n      tag_204\n      jumpi\n        /* \"@openzeppelin/contracts/token/common/ERC2981.sol\":3679:3734  ERC2981InvalidDefaultRoyalty(feeNumerator, denominator) */\n      mload(0x40)\n      shl(0xe0, 0x6f483d09)\n      dup2\n      mstore\n      sub(shl(0x60, 0x01), 0x01)\n        /* \"#utility.yul\":8002:8041   */\n      dup4\n      and\n        /* \"@openzeppelin/contracts/token/common/ERC2981.sol\":3679:3734  ERC2981InvalidDefaultRoyalty(feeNumerator, denominator) */\n      0x04\n      dup3\n      add\n        /* \"#utility.yul\":7984:8042   */\n      mstore\n        /* \"#utility.yul\":8058:8076   */\n      0x24\n      dup2\n      add\n        /* \"#utility.yul\":8051:8085   */\n      dup3\n      swap1\n      mstore\n        /* \"#utility.yul\":7957:7975   */\n      0x44\n      add\n        /* \"@openzeppelin/contracts/token/common/ERC2981.sol\":3679:3734  ERC2981InvalidDefaultRoyalty(feeNumerator, denominator) */\n      tag_133\n        /* \"#utility.yul\":7811:8091   */\n      jump\n        /* \"@openzeppelin/contracts/token/common/ERC2981.sol\":3572:3745  if (feeNumerator > denominator) {... */\n    tag_204:\n      sub(shl(0xa0, 0x01), 0x01)\n        /* \"@openzeppelin/contracts/token/common/ERC2981.sol\":3758:3780  receiver == address(0) */\n      dup4\n      and\n        /* \"@openzeppelin/contracts/token/common/ERC2981.sol\":3754:3862  if (receiver == address(0)) {... */\n      tag_207\n      jumpi\n        /* \"@openzeppelin/contracts/token/common/ERC2981.sol\":3848:3849  0 */\n      0x00\n        /* \"@openzeppelin/contracts/token/common/ERC2981.sol\":3803:3851  ERC2981InvalidDefaultRoyaltyReceiver(address(0)) */\n      mload(0x40)\n      shl(0xe1, 0x5b6cc805)\n      dup2\n      mstore\n      0x04\n      add\n      tag_133\n      swap2\n      swap1\n      tag_43\n      jump\t// in\n        /* \"@openzeppelin/contracts/token/common/ERC2981.sol\":3754:3862  if (receiver == address(0)) {... */\n    tag_207:\n      pop\n        /* \"@openzeppelin/contracts/token/common/ERC2981.sol\":3894:3929  RoyaltyInfo(receiver, feeNumerator) */\n      0x40\n      dup1\n      mload\n      dup1\n      dup3\n      add\n      swap1\n      swap2\n      mstore\n      sub(shl(0xa0, 0x01), 0x01)\n      swap1\n      swap3\n      and\n      dup1\n      dup4\n      mstore\n      sub(shl(0x60, 0x01), 0x01)\n      swap1\n      swap2\n      and\n      0x20\n      swap1\n      swap3\n      add\n      dup3\n      swap1\n      mstore\n      shl(0xa0, 0x01)\n        /* \"@openzeppelin/contracts/token/common/ERC2981.sol\":3872:3929  _defaultRoyaltyInfo = RoyaltyInfo(receiver, feeNumerator) */\n      swap1\n      swap2\n      mul\n      or\n        /* \"@openzeppelin/contracts/token/common/ERC2981.sol\":3872:3891  _defaultRoyaltyInfo */\n      0x07\n        /* \"@openzeppelin/contracts/token/common/ERC2981.sol\":3872:3929  _defaultRoyaltyInfo = RoyaltyInfo(receiver, feeNumerator) */\n      sstore\n        /* \"@openzeppelin/contracts/token/common/ERC2981.sol\":3429:3936  function _setDefaultRoyalty(address receiver, uint96 feeNumerator) internal virtual {... */\n      jump\t// out\n        /* \"@openzeppelin/contracts/token/ERC721/ERC721.sol\":16138:16379  function _requireOwned(uint256 tokenId) internal view returns (address) {... */\n    tag_120:\n        /* \"@openzeppelin/contracts/token/ERC721/ERC721.sol\":16201:16208  address */\n      0x00\n        /* \"@openzeppelin/contracts/token/ERC721/ERC721.sol\":5799:5815  _owners[tokenId] */\n      dup2\n      dup2\n      mstore\n        /* \"@openzeppelin/contracts/token/ERC721/ERC721.sol\":5799:5806  _owners */\n      0x02\n        /* \"@openzeppelin/contracts/token/ERC721/ERC721.sol\":5799:5815  _owners[tokenId] */\n      0x20\n      mstore\n      0x40\n      dup2\n      keccak256\n      sload\n      sub(shl(0xa0, 0x01), 0x01)\n      and\n      dup1\n        /* \"@openzeppelin/contracts/token/ERC721/ERC721.sol\":16263:16351  if (owner == address(0)) {... */\n      tag_103\n      jumpi\n        /* \"@openzeppelin/contracts/token/ERC721/ERC721.sol\":16309:16340  ERC721NonexistentToken(tokenId) */\n      mload(0x40)\n      shl(0xe0, 0x7e273289)\n      dup2\n      mstore\n      0x04\n      dup2\n      add\n        /* \"#utility.yul\":2572:2597   */\n      dup5\n      swap1\n      mstore\n        /* \"#utility.yul\":2545:2563   */\n      0x24\n      add\n        /* \"@openzeppelin/contracts/token/ERC721/ERC721.sol\":16309:16340  ERC721NonexistentToken(tokenId) */\n      tag_133\n        /* \"#utility.yul\":2426:2603   */\n      jump\n        /* \"@openzeppelin/contracts/token/ERC721/ERC721.sol\":14418:14538  function _approve(address to, uint256 tokenId, address auth) internal {... */\n    tag_127:\n        /* \"@openzeppelin/contracts/token/ERC721/ERC721.sol\":14498:14531  _approve(to, tokenId, auth, true) */\n      tag_149\n        /* \"@openzeppelin/contracts/token/ERC721/ERC721.sol\":14507:14509  to */\n      dup4\n        /* \"@openzeppelin/contracts/token/ERC721/ERC721.sol\":14511:14518  tokenId */\n      dup4\n        /* \"@openzeppelin/contracts/token/ERC721/ERC721.sol\":14520:14524  auth */\n      dup4\n        /* \"@openzeppelin/contracts/token/ERC721/ERC721.sol\":14526:14530  true */\n      0x01\n        /* \"@openzeppelin/contracts/token/ERC721/ERC721.sol\":14498:14506  _approve */\n      tag_218\n        /* \"@openzeppelin/contracts/token/ERC721/ERC721.sol\":14498:14531  _approve(to, tokenId, auth, true) */\n      jump\t// in\n        /* \"@openzeppelin/contracts/token/ERC721/ERC721.sol\":8838:9633  function _update(address to, uint256 tokenId, address auth) internal virtual returns (address) {... */\n    tag_136:\n        /* \"@openzeppelin/contracts/token/ERC721/ERC721.sol\":8924:8931  address */\n      0x00\n        /* \"@openzeppelin/contracts/token/ERC721/ERC721.sol\":5799:5815  _owners[tokenId] */\n      dup3\n      dup2\n      mstore\n        /* \"@openzeppelin/contracts/token/ERC721/ERC721.sol\":5799:5806  _owners */\n      0x02\n        /* \"@openzeppelin/contracts/token/ERC721/ERC721.sol\":5799:5815  _owners[tokenId] */\n      0x20\n      mstore\n      0x40\n      dup2\n      keccak256\n      sload\n      sub(shl(0xa0, 0x01), 0x01)\n      swap1\n      dup2\n      and\n      swap1\n        /* \"@openzeppelin/contracts/token/ERC721/ERC721.sol\":9035:9053  auth != address(0) */\n      dup4\n      and\n      iszero\n        /* \"@openzeppelin/contracts/token/ERC721/ERC721.sol\":9031:9117  if (auth != address(0)) {... */\n      tag_222\n      jumpi\n        /* \"@openzeppelin/contracts/token/ERC721/ERC721.sol\":9069:9106  _checkAuthorized(from, auth, tokenId) */\n      tag_222\n        /* \"@openzeppelin/contracts/token/ERC721/ERC721.sol\":9086:9090  from */\n      dup2\n        /* \"@openzeppelin/contracts/token/ERC721/ERC721.sol\":9092:9096  auth */\n      dup5\n        /* \"@openzeppelin/contracts/token/ERC721/ERC721.sol\":9098:9105  tokenId */\n      dup7\n        /* \"@openzeppelin/contracts/token/ERC721/ERC721.sol\":9069:9085  _checkAuthorized */\n      tag_223\n        /* \"@openzeppelin/contracts/token/ERC721/ERC721.sol\":9069:9106  _checkAuthorized(from, auth, tokenId) */\n      jump\t// in\n    tag_222:\n      sub(shl(0xa0, 0x01), 0x01)\n        /* \"@openzeppelin/contracts/token/ERC721/ERC721.sol\":9161:9179  from != address(0) */\n      dup2\n      and\n      iszero\n        /* \"@openzeppelin/contracts/token/ERC721/ERC721.sol\":9157:9413  if (from != address(0)) {... */\n      tag_224\n      jumpi\n        /* \"@openzeppelin/contracts/token/ERC721/ERC721.sol\":9277:9325  _approve(address(0), tokenId, address(0), false) */\n      tag_225\n        /* \"@openzeppelin/contracts/token/ERC721/ERC721.sol\":9294:9295  0 */\n      0x00\n        /* \"@openzeppelin/contracts/token/ERC721/ERC721.sol\":9298:9305  tokenId */\n      dup6\n        /* \"@openzeppelin/contracts/token/ERC721/ERC721.sol\":9315:9316  0 */\n      0x00\n        /* \"@openzeppelin/contracts/token/ERC721/ERC721.sol\":9319:9324  false */\n      dup1\n        /* \"@openzeppelin/contracts/token/ERC721/ERC721.sol\":9277:9285  _approve */\n      tag_218\n        /* \"@openzeppelin/contracts/token/ERC721/ERC721.sol\":9277:9325  _approve(address(0), tokenId, address(0), false) */\n      jump\t// in\n    tag_225:\n      sub(shl(0xa0, 0x01), 0x01)\n        /* \"@openzeppelin/contracts/token/ERC721/ERC721.sol\":9368:9383  _balances[from] */\n      dup2\n      and\n      0x00\n      swap1\n      dup2\n      mstore\n        /* \"@openzeppelin/contracts/token/ERC721/ERC721.sol\":9368:9377  _balances */\n      0x03\n        /* \"@openzeppelin/contracts/token/ERC721/ERC721.sol\":9368:9383  _balances[from] */\n      0x20\n      mstore\n      0x40\n      swap1\n      keccak256\n        /* \"@openzeppelin/contracts/token/ERC721/ERC721.sol\":9368:9388  _balances[from] -= 1 */\n      dup1\n      sload\n      not(0x00)\n      add\n      swap1\n      sstore\n        /* \"@openzeppelin/contracts/token/ERC721/ERC721.sol\":9157:9413  if (from != address(0)) {... */\n    tag_224:\n      sub(shl(0xa0, 0x01), 0x01)\n        /* \"@openzeppelin/contracts/token/ERC721/ERC721.sol\":9427:9443  to != address(0) */\n      dup6\n      and\n      iszero\n        /* \"@openzeppelin/contracts/token/ERC721/ERC721.sol\":9423:9530  if (to != address(0)) {... */\n      tag_226\n      jumpi\n      sub(shl(0xa0, 0x01), 0x01)\n        /* \"@openzeppelin/contracts/token/ERC721/ERC721.sol\":9487:9500  _balances[to] */\n      dup6\n      and\n      0x00\n      swap1\n      dup2\n      mstore\n        /* \"@openzeppelin/contracts/token/ERC721/ERC721.sol\":9487:9496  _balances */\n      0x03\n        /* \"@openzeppelin/contracts/token/ERC721/ERC721.sol\":9487:9500  _balances[to] */\n      0x20\n      mstore\n      0x40\n      swap1\n      keccak256\n        /* \"@openzeppelin/contracts/token/ERC721/ERC721.sol\":9487:9505  _balances[to] += 1 */\n      dup1\n      sload\n        /* \"@openzeppelin/contracts/token/ERC721/ERC721.sol\":9504:9505  1 */\n      0x01\n        /* \"@openzeppelin/contracts/token/ERC721/ERC721.sol\":9487:9505  _balances[to] += 1 */\n      add\n      swap1\n      sstore\n        /* \"@openzeppelin/contracts/token/ERC721/ERC721.sol\":9423:9530  if (to != address(0)) {... */\n    tag_226:\n        /* \"@openzeppelin/contracts/token/ERC721/ERC721.sol\":9540:9556  _owners[tokenId] */\n      0x00\n      dup5\n      dup2\n      mstore\n        /* \"@openzeppelin/contracts/token/ERC721/ERC721.sol\":9540:9547  _owners */\n      0x02\n        /* \"@openzeppelin/contracts/token/ERC721/ERC721.sol\":9540:9556  _owners[tokenId] */\n      0x20\n      mstore\n      0x40\n      dup1\n      dup3\n      keccak256\n        /* \"@openzeppelin/contracts/token/ERC721/ERC721.sol\":9540:9561  _owners[tokenId] = to */\n      dup1\n      sload\n      not(sub(shl(0xa0, 0x01), 0x01))\n      and\n      sub(shl(0xa0, 0x01), 0x01)\n      dup10\n      dup2\n      and\n      swap2\n      dup3\n      or\n      swap1\n      swap3\n      sstore\n        /* \"@openzeppelin/contracts/token/ERC721/ERC721.sol\":9577:9604  Transfer(from, to, tokenId) */\n      swap2\n      mload\n        /* \"@openzeppelin/contracts/token/ERC721/ERC721.sol\":9540:9556  _owners[tokenId] */\n      dup8\n      swap4\n        /* \"@openzeppelin/contracts/token/ERC721/ERC721.sol\":9577:9604  Transfer(from, to, tokenId) */\n      swap2\n      dup6\n      and\n      swap2\n      0xddf252ad1be2c89b69c2b068fc378daa952ba7f163c4a11628f55a4df523b3ef\n      swap2\n      log4\n        /* \"@openzeppelin/contracts/token/ERC721/ERC721.sol\":9622:9626  from */\n      swap5\n        /* \"@openzeppelin/contracts/token/ERC721/ERC721.sol\":8838:9633  function _update(address to, uint256 tokenId, address auth) internal virtual returns (address) {... */\n      swap4\n      pop\n      pop\n      pop\n      pop\n      jump\t// out\n        /* \"@openzeppelin/contracts/access/Ownable.sol\":2912:3099  function _transferOwnership(address newOwner) internal virtual {... */\n    tag_159:\n        /* \"@openzeppelin/contracts/access/Ownable.sol\":3004:3010  _owner */\n      0x06\n      dup1\n      sload\n      sub(shl(0xa0, 0x01), 0x01)\n        /* \"@openzeppelin/contracts/access/Ownable.sol\":3020:3037  _owner = newOwner */\n      dup4\n      dup2\n      and\n      not(sub(shl(0xa0, 0x01), 0x01))\n      dup4\n      and\n      dup2\n      or\n      swap1\n      swap4\n      sstore\n        /* \"@openzeppelin/contracts/access/Ownable.sol\":3052:3092  OwnershipTransferred(oldOwner, newOwner) */\n      mload(0x40)\n        /* \"@openzeppelin/contracts/access/Ownable.sol\":3004:3010  _owner */\n      swap2\n      and\n      swap2\n        /* \"@openzeppelin/contracts/access/Ownable.sol\":3020:3037  _owner = newOwner */\n      swap1\n        /* \"@openzeppelin/contracts/access/Ownable.sol\":3004:3010  _owner */\n      dup3\n      swap1\n        /* \"@openzeppelin/contracts/access/Ownable.sol\":3052:3092  OwnershipTransferred(oldOwner, newOwner) */\n      0x8be0079c531659141344cd1fd0a4f28419497f9722a3daafe3b4186f6b6457e0\n      swap1\n        /* \"@openzeppelin/contracts/access/Ownable.sol\":2985:3001  address oldOwner */\n      0x00\n      swap1\n        /* \"@openzeppelin/contracts/access/Ownable.sol\":3052:3092  OwnershipTransferred(oldOwner, newOwner) */\n      log3\n        /* \"@openzeppelin/contracts/access/Ownable.sol\":2975:3099  {... */\n      pop\n        /* \"@openzeppelin/contracts/access/Ownable.sol\":2912:3099  function _transferOwnership(address newOwner) internal virtual {... */\n      pop\n      jump\t// out\n        /* \"@openzeppelin/contracts/token/ERC721/ERC721.sol\":15591:15903  function _setApprovalForAll(address owner, address operator, bool approved) internal virtual {... */\n    tag_170:\n      sub(shl(0xa0, 0x01), 0x01)\n        /* \"@openzeppelin/contracts/token/ERC721/ERC721.sol\":15698:15720  operator == address(0) */\n      dup3\n      and\n        /* \"@openzeppelin/contracts/token/ERC721/ERC721.sol\":15694:15785  if (operator == address(0)) {... */\n      tag_230\n      jumpi\n        /* \"@openzeppelin/contracts/token/ERC721/ERC721.sol\":15765:15773  operator */\n      dup2\n        /* \"@openzeppelin/contracts/token/ERC721/ERC721.sol\":15743:15774  ERC721InvalidOperator(operator) */\n      mload(0x40)\n      shl(0xe3, 0x0b611743)\n      dup2\n      mstore\n      0x04\n      add\n      tag_133\n      swap2\n      swap1\n      tag_43\n      jump\t// in\n        /* \"@openzeppelin/contracts/token/ERC721/ERC721.sol\":15694:15785  if (operator == address(0)) {... */\n    tag_230:\n      sub(shl(0xa0, 0x01), 0x01)\n        /* \"@openzeppelin/contracts/token/ERC721/ERC721.sol\":15794:15819  _operatorApprovals[owner] */\n      dup4\n      dup2\n      and\n      0x00\n      dup2\n      dup2\n      mstore\n        /* \"@openzeppelin/contracts/token/ERC721/ERC721.sol\":15794:15812  _operatorApprovals */\n      0x05\n        /* \"@openzeppelin/contracts/token/ERC721/ERC721.sol\":15794:15819  _operatorApprovals[owner] */\n      0x20\n      swap1\n      dup2\n      mstore\n      0x40\n      dup1\n      dup4\n      keccak256\n        /* \"@openzeppelin/contracts/token/ERC721/ERC721.sol\":15794:15829  _operatorApprovals[owner][operator] */\n      swap5\n      dup8\n      and\n      dup1\n      dup5\n      mstore\n      swap5\n      dup3\n      mstore\n      swap2\n      dup3\n      swap1\n      keccak256\n        /* \"@openzeppelin/contracts/token/ERC721/ERC721.sol\":15794:15840  _operatorApprovals[owner][operator] = approved */\n      dup1\n      sload\n      not(0xff)\n      and\n      dup7\n      iszero\n      iszero\n      swap1\n      dup2\n      or\n      swap1\n      swap2\n      sstore\n        /* \"@openzeppelin/contracts/token/ERC721/ERC721.sol\":15855:15896  ApprovalForAll(owner, operator, approved) */\n      swap2\n      mload\n        /* \"#utility.yul\":540:581   */\n      swap2\n      dup3\n      mstore\n        /* \"@openzeppelin/contracts/token/ERC721/ERC721.sol\":15855:15896  ApprovalForAll(owner, operator, approved) */\n      0x17307eab39ab6107e8899845ad3d59bd9653f200f220920489ca2b5937696c31\n      swap2\n        /* \"#utility.yul\":513:531   */\n      add\n        /* \"@openzeppelin/contracts/token/ERC721/ERC721.sol\":15855:15896  ApprovalForAll(owner, operator, approved) */\n      mload(0x40)\n      dup1\n      swap2\n      sub\n      swap1\n      log3\n        /* \"@openzeppelin/contracts/token/ERC721/ERC721.sol\":15591:15903  function _setApprovalForAll(address owner, address operator, bool approved) internal virtual {... */\n      pop\n      pop\n      pop\n      jump\t// out\n        /* \"@openzeppelin/contracts/token/ERC721/ERC721.sol\":16918:17700  function _checkOnERC721Received(address from, address to, uint256 tokenId, bytes memory data) private {... */\n    tag_174:\n      sub(shl(0xa0, 0x01), 0x01)\n        /* \"@openzeppelin/contracts/token/ERC721/ERC721.sol\":17034:17048  to.code.length */\n      dup4\n      and\n      extcodesize\n        /* \"@openzeppelin/contracts/token/ERC721/ERC721.sol\":17034:17052  to.code.length > 0 */\n      iszero\n        /* \"@openzeppelin/contracts/token/ERC721/ERC721.sol\":17030:17694  if (to.code.length > 0) {... */\n      tag_137\n      jumpi\n        /* \"@openzeppelin/contracts/token/ERC721/ERC721.sol\":17072:17143  IERC721Receiver(to).onERC721Received(_msgSender(), from, tokenId, data) */\n      mload(0x40)\n      shl(0xe1, 0x0a85bd01)\n      dup2\n      mstore\n      sub(shl(0xa0, 0x01), 0x01)\n        /* \"@openzeppelin/contracts/token/ERC721/ERC721.sol\":17072:17108  IERC721Receiver(to).onERC721Received */\n      dup5\n      and\n      swap1\n      0x150b7a02\n      swap1\n        /* \"@openzeppelin/contracts/token/ERC721/ERC721.sol\":17072:17143  IERC721Receiver(to).onERC721Received(_msgSender(), from, tokenId, data) */\n      tag_236\n      swap1\n        /* \"@openzeppelin/contracts/utils/Context.sol\":735:745  msg.sender */\n      caller\n      swap1\n        /* \"@openzeppelin/contracts/token/ERC721/ERC721.sol\":17123:17127  from */\n      dup9\n      swap1\n        /* \"@openzeppelin/contracts/token/ERC721/ERC721.sol\":17129:17136  tokenId */\n      dup8\n      swap1\n        /* \"@openzeppelin/contracts/token/ERC721/ERC721.sol\":17138:17142  data */\n      dup8\n      swap1\n        /* \"@openzeppelin/contracts/token/ERC721/ERC721.sol\":17072:17143  IERC721Receiver(to).onERC721Received(_msgSender(), from, tokenId, data) */\n      0x04\n      add\n      tag_237\n      jump\t// in\n    tag_236:\n      0x20\n      mload(0x40)\n      dup1\n      dup4\n      sub\n      dup2\n      0x00\n      dup8\n      gas\n      call\n      swap3\n      pop\n      pop\n      pop\n      dup1\n      iszero\n      tag_238\n      jumpi\n      pop\n      0x40\n      dup1\n      mload\n      0x1f\n      returndatasize\n      swap1\n      dup2\n      add\n      not(0x1f)\n      and\n      dup3\n      add\n      swap1\n      swap3\n      mstore\n      tag_239\n      swap2\n      dup2\n      add\n      swap1\n      tag_240\n      jump\t// in\n    tag_239:\n      0x01\n    tag_238:\n        /* \"@openzeppelin/contracts/token/ERC721/ERC721.sol\":17068:17684  try IERC721Receiver(to).onERC721Received(_msgSender(), from, tokenId, data) returns (bytes4 retval) {... */\n      tag_241\n      jumpi\n      returndatasize\n      dup1\n      dup1\n      iszero\n      tag_246\n      jumpi\n      mload(0x40)\n      swap2\n      pop\n      and(add(returndatasize, 0x3f), not(0x1f))\n      dup3\n      add\n      0x40\n      mstore\n      returndatasize\n      dup3\n      mstore\n      returndatasize\n      0x00\n      0x20\n      dup5\n      add\n      returndatacopy\n      jump(tag_245)\n    tag_246:\n      0x60\n      swap2\n      pop\n    tag_245:\n      pop\n        /* \"@openzeppelin/contracts/token/ERC721/ERC721.sol\":17381:17387  reason */\n      dup1\n        /* \"@openzeppelin/contracts/token/ERC721/ERC721.sol\":17381:17394  reason.length */\n      mload\n        /* \"@openzeppelin/contracts/token/ERC721/ERC721.sol\":17398:17399  0 */\n      0x00\n        /* \"@openzeppelin/contracts/token/ERC721/ERC721.sol\":17381:17399  reason.length == 0 */\n      sub\n        /* \"@openzeppelin/contracts/token/ERC721/ERC721.sol\":17377:17670  if (reason.length == 0) {... */\n      tag_247\n      jumpi\n        /* \"@openzeppelin/contracts/token/ERC721/ERC721.sol\":17452:17454  to */\n      dup4\n        /* \"@openzeppelin/contracts/token/ERC721/ERC721.sol\":17430:17455  ERC721InvalidReceiver(to) */\n      mload(0x40)\n      shl(0xe1, 0x32505749)\n      dup2\n      mstore\n      0x04\n      add\n      tag_133\n      swap2\n      swap1\n      tag_43\n      jump\t// in\n        /* \"@openzeppelin/contracts/token/ERC721/ERC721.sol\":17377:17670  if (reason.length == 0) {... */\n    tag_247:\n        /* \"@openzeppelin/contracts/token/ERC721/ERC721.sol\":17622:17628  reason */\n      dup1\n        /* \"@openzeppelin/contracts/token/ERC721/ERC721.sol\":17616:17629  mload(reason) */\n      mload\n        /* \"@openzeppelin/contracts/token/ERC721/ERC721.sol\":17607:17613  reason */\n      dup2\n        /* \"@openzeppelin/contracts/token/ERC721/ERC721.sol\":17603:17605  32 */\n      0x20\n        /* \"@openzeppelin/contracts/token/ERC721/ERC721.sol\":17599:17614  add(32, reason) */\n      add\n        /* \"@openzeppelin/contracts/token/ERC721/ERC721.sol\":17592:17630  revert(add(32, reason), mload(reason)) */\n      revert\n        /* \"@openzeppelin/contracts/token/ERC721/ERC721.sol\":17068:17684  try IERC721Receiver(to).onERC721Received(_msgSender(), from, tokenId, data) returns (bytes4 retval) {... */\n    tag_241:\n      not(sub(shl(0xe0, 0x01), 0x01))\n        /* \"@openzeppelin/contracts/token/ERC721/ERC721.sol\":17190:17241  retval != IERC721Receiver.onERC721Received.selector */\n      dup2\n      and\n      shl(0xe1, 0x0a85bd01)\n      eq\n        /* \"@openzeppelin/contracts/token/ERC721/ERC721.sol\":17186:17316  if (retval != IERC721Receiver.onERC721Received.selector) {... */\n      tag_251\n      jumpi\n        /* \"@openzeppelin/contracts/token/ERC721/ERC721.sol\":17294:17296  to */\n      dup4\n        /* \"@openzeppelin/contracts/token/ERC721/ERC721.sol\":17272:17297  ERC721InvalidReceiver(to) */\n      mload(0x40)\n      shl(0xe1, 0x32505749)\n      dup2\n      mstore\n      0x04\n      add\n      tag_133\n      swap2\n      swap1\n      tag_43\n      jump\t// in\n        /* \"@openzeppelin/contracts/token/ERC721/ERC721.sol\":17186:17316  if (retval != IERC721Receiver.onERC721Received.selector) {... */\n    tag_251:\n        /* \"@openzeppelin/contracts/token/ERC721/ERC721.sol\":17144:17330  returns (bytes4 retval) {... */\n      pop\n        /* \"@openzeppelin/contracts/token/ERC721/ERC721.sol\":16918:17700  function _checkOnERC721Received(address from, address to, uint256 tokenId, bytes memory data) private {... */\n      pop\n      pop\n      pop\n      pop\n      jump\t// out\n        /* \"totalEclipseNFT.sol\":1343:1562  function _baseURI() internal pure override returns (string memory) {... */\n    tag_178:\n        /* \"totalEclipseNFT.sol\":1395:1408  string memory */\n      0x60\n        /* \"totalEclipseNFT.sol\":1421:1520  return... */\n      mload(0x40)\n      dup1\n      0x80\n      add\n      0x40\n      mstore\n      dup1\n      0x4d\n      dup2\n      mstore\n      0x20\n      add\n      data_528dd67e901864c021e91bc02682ccaf0f079aa4e76798fe2da7da838db9c5cf\n      0x4d\n      swap2\n      codecopy\n      swap1\n      pop\n        /* \"totalEclipseNFT.sol\":1343:1562  function _baseURI() internal pure override returns (string memory) {... */\n      swap1\n      jump\t// out\n        /* \"@openzeppelin/contracts/utils/Strings.sol\":637:1335  function toString(uint256 value) internal pure returns (string memory) {... */\n    tag_182:\n        /* \"@openzeppelin/contracts/utils/Strings.sol\":693:706  string memory */\n      0x60\n        /* \"@openzeppelin/contracts/utils/Strings.sol\":742:756  uint256 length */\n      0x00\n        /* \"@openzeppelin/contracts/utils/Strings.sol\":759:776  Math.log10(value) */\n      tag_255\n        /* \"@openzeppelin/contracts/utils/Strings.sol\":770:775  value */\n      dup4\n        /* \"@openzeppelin/contracts/utils/Strings.sol\":759:769  Math.log10 */\n      tag_256\n        /* \"@openzeppelin/contracts/utils/Strings.sol\":759:776  Math.log10(value) */\n      jump\t// in\n    tag_255:\n        /* \"@openzeppelin/contracts/utils/Strings.sol\":779:780  1 */\n      0x01\n        /* \"@openzeppelin/contracts/utils/Strings.sol\":759:780  Math.log10(value) + 1 */\n      add\n        /* \"@openzeppelin/contracts/utils/Strings.sol\":742:780  uint256 length = Math.log10(value) + 1 */\n      swap1\n      pop\n        /* \"@openzeppelin/contracts/utils/Strings.sol\":794:814  string memory buffer */\n      0x00\n        /* \"@openzeppelin/contracts/utils/Strings.sol\":828:834  length */\n      dup2\n        /* \"@openzeppelin/contracts/utils/Strings.sol\":817:835  new string(length) */\n      0xffffffffffffffff\n      dup2\n      gt\n      iszero\n      tag_258\n      jumpi\n      tag_258\n      tag_259\n      jump\t// in\n    tag_258:\n      mload(0x40)\n      swap1\n      dup1\n      dup3\n      mstore\n      dup1\n      0x1f\n      add\n      not(0x1f)\n      and\n      0x20\n      add\n      dup3\n      add\n      0x40\n      mstore\n      dup1\n      iszero\n      tag_260\n      jumpi\n      0x20\n      dup3\n      add\n      dup2\n      dup1\n      calldatasize\n      dup4\n      calldatacopy\n      add\n      swap1\n      pop\n    tag_260:\n      pop\n        /* \"@openzeppelin/contracts/utils/Strings.sol\":794:835  string memory buffer = new string(length) */\n      swap1\n      pop\n        /* \"@openzeppelin/contracts/utils/Strings.sol\":955:983  add(buffer, add(32, length)) */\n      dup2\n      dup2\n      add\n        /* \"@openzeppelin/contracts/utils/Strings.sol\":971:973  32 */\n      0x20\n        /* \"@openzeppelin/contracts/utils/Strings.sol\":955:983  add(buffer, add(32, length)) */\n      add\n        /* \"@openzeppelin/contracts/utils/Strings.sol\":1010:1292  while (true) {... */\n    tag_261:\n      not(0x00)\n        /* \"@openzeppelin/contracts/utils/Strings.sol\":1041:1046  ptr-- */\n      add\n      shl(0x81, 0x181899199a1a9b1b9c1cb0b131b232b3)\n        /* \"@openzeppelin/contracts/utils/Strings.sol\":1175:1177  10 */\n      0x0a\n        /* \"@openzeppelin/contracts/utils/Strings.sol\":1164:1178  mod(value, 10) */\n      dup7\n      mod\n        /* \"@openzeppelin/contracts/utils/Strings.sol\":1159:1191  byte(mod(value, 10), HEX_DIGITS) */\n      byte\n        /* \"@openzeppelin/contracts/utils/Strings.sol\":1041:1046  ptr-- */\n      dup2\n        /* \"@openzeppelin/contracts/utils/Strings.sol\":1146:1192  mstore8(ptr, byte(mod(value, 10), HEX_DIGITS)) */\n      mstore8\n        /* \"@openzeppelin/contracts/utils/Strings.sol\":1236:1238  10 */\n      0x0a\n        /* \"@openzeppelin/contracts/utils/Strings.sol\":1227:1238  value /= 10 */\n      dup6\n      div\n      swap5\n      pop\n        /* \"@openzeppelin/contracts/utils/Strings.sol\":1256:1277  if (value == 0) break */\n      dup5\n        /* \"@openzeppelin/contracts/utils/Strings.sol\":1010:1292  while (true) {... */\n      tag_261\n        /* \"@openzeppelin/contracts/utils/Strings.sol\":1256:1277  if (value == 0) break */\n      jumpi\n      pop\n        /* \"@openzeppelin/contracts/utils/Strings.sol\":1312:1318  buffer */\n      swap4\n        /* \"@openzeppelin/contracts/utils/Strings.sol\":637:1335  function toString(uint256 value) internal pure returns (string memory) {... */\n      swap3\n      pop\n      pop\n      pop\n      jump\t// out\n        /* \"@openzeppelin/contracts/token/ERC721/ERC721.sol\":1561:1861  function supportsInterface(bytes4 interfaceId) public view virtual override(ERC165, IERC165) returns (bool) {... */\n    tag_195:\n        /* \"@openzeppelin/contracts/token/ERC721/ERC721.sol\":1663:1667  bool */\n      0x00\n      not(sub(shl(0xe0, 0x01), 0x01))\n        /* \"@openzeppelin/contracts/token/ERC721/ERC721.sol\":1698:1738  interfaceId == type(IERC721).interfaceId */\n      dup3\n      and\n      shl(0xe0, 0x80ac58cd)\n      eq\n      dup1\n        /* \"@openzeppelin/contracts/token/ERC721/ERC721.sol\":1698:1802  interfaceId == type(IERC721).interfaceId ||... */\n      tag_268\n      jumpi\n      pop\n      not(sub(shl(0xe0, 0x01), 0x01))\n        /* \"@openzeppelin/contracts/token/ERC721/ERC721.sol\":1754:1802  interfaceId == type(IERC721Metadata).interfaceId */\n      dup3\n      and\n      shl(0xe0, 0x5b5e139f)\n      eq\n        /* \"@openzeppelin/contracts/token/ERC721/ERC721.sol\":1698:1802  interfaceId == type(IERC721).interfaceId ||... */\n    tag_268:\n        /* \"@openzeppelin/contracts/token/ERC721/ERC721.sol\":1698:1854  interfaceId == type(IERC721).interfaceId ||... */\n      dup1\n      tag_103\n      jumpi\n      pop\n      shl(0xe0, 0x01ffc9a7)\n      not(sub(shl(0xe0, 0x01), 0x01))\n        /* \"@openzeppelin/contracts/utils/introspection/ERC165.sol\":861:901  interfaceId == type(IERC165).interfaceId */\n      dup4\n      and\n      eq\n        /* \"@openzeppelin/contracts/token/ERC721/ERC721.sol\":1818:1854  super.supportsInterface(interfaceId) */\n      tag_103\n        /* \"@openzeppelin/contracts/utils/introspection/ERC165.sol\":762:908  function supportsInterface(bytes4 interfaceId) public view virtual returns (bool) {... */\n      jump\n        /* \"@openzeppelin/contracts/token/ERC721/ERC721.sol\":14720:15382  function _approve(address to, uint256 tokenId, address auth, bool emitEvent) internal virtual {... */\n    tag_218:\n        /* \"@openzeppelin/contracts/token/ERC721/ERC721.sol\":14880:14889  emitEvent */\n      dup1\n        /* \"@openzeppelin/contracts/token/ERC721/ERC721.sol\":14880:14911  emitEvent || auth != address(0) */\n      dup1\n      tag_274\n      jumpi\n      pop\n      sub(shl(0xa0, 0x01), 0x01)\n        /* \"@openzeppelin/contracts/token/ERC721/ERC721.sol\":14893:14911  auth != address(0) */\n      dup3\n      and\n      iszero\n      iszero\n        /* \"@openzeppelin/contracts/token/ERC721/ERC721.sol\":14880:14911  emitEvent || auth != address(0) */\n    tag_274:\n        /* \"@openzeppelin/contracts/token/ERC721/ERC721.sol\":14876:15336  if (emitEvent || auth != address(0)) {... */\n      iszero\n      tag_275\n      jumpi\n        /* \"@openzeppelin/contracts/token/ERC721/ERC721.sol\":14927:14940  address owner */\n      0x00\n        /* \"@openzeppelin/contracts/token/ERC721/ERC721.sol\":14943:14965  _requireOwned(tokenId) */\n      tag_276\n        /* \"@openzeppelin/contracts/token/ERC721/ERC721.sol\":14957:14964  tokenId */\n      dup5\n        /* \"@openzeppelin/contracts/token/ERC721/ERC721.sol\":14943:14956  _requireOwned */\n      tag_120\n        /* \"@openzeppelin/contracts/token/ERC721/ERC721.sol\":14943:14965  _requireOwned(tokenId) */\n      jump\t// in\n    tag_276:\n        /* \"@openzeppelin/contracts/token/ERC721/ERC721.sol\":14927:14965  address owner = _requireOwned(tokenId) */\n      swap1\n      pop\n      sub(shl(0xa0, 0x01), 0x01)\n        /* \"@openzeppelin/contracts/token/ERC721/ERC721.sol\":15093:15111  auth != address(0) */\n      dup4\n      and\n      iszero\n      dup1\n      iszero\n      swap1\n        /* \"@openzeppelin/contracts/token/ERC721/ERC721.sol\":15093:15128  auth != address(0) && owner != auth */\n      tag_277\n      jumpi\n      pop\n        /* \"@openzeppelin/contracts/token/ERC721/ERC721.sol\":15124:15128  auth */\n      dup3\n      sub(shl(0xa0, 0x01), 0x01)\n        /* \"@openzeppelin/contracts/token/ERC721/ERC721.sol\":15115:15128  owner != auth */\n      and\n        /* \"@openzeppelin/contracts/token/ERC721/ERC721.sol\":15115:15120  owner */\n      dup2\n      sub(shl(0xa0, 0x01), 0x01)\n        /* \"@openzeppelin/contracts/token/ERC721/ERC721.sol\":15115:15128  owner != auth */\n      and\n      eq\n      iszero\n        /* \"@openzeppelin/contracts/token/ERC721/ERC721.sol\":15093:15128  auth != address(0) && owner != auth */\n    tag_277:\n        /* \"@openzeppelin/contracts/token/ERC721/ERC721.sol\":15093:15162  auth != address(0) && owner != auth && !isApprovedForAll(owner, auth) */\n      dup1\n      iszero\n      tag_278\n      jumpi\n      pop\n        /* \"@openzeppelin/contracts/token/ERC721/ERC721.sol\":15133:15162  isApprovedForAll(owner, auth) */\n      tag_279\n        /* \"@openzeppelin/contracts/token/ERC721/ERC721.sol\":15150:15155  owner */\n      dup2\n        /* \"@openzeppelin/contracts/token/ERC721/ERC721.sol\":15157:15161  auth */\n      dup5\n        /* \"@openzeppelin/contracts/token/ERC721/ERC721.sol\":15133:15149  isApprovedForAll */\n      tag_97\n        /* \"@openzeppelin/contracts/token/ERC721/ERC721.sol\":15133:15162  isApprovedForAll(owner, auth) */\n      jump\t// in\n    tag_279:\n        /* \"@openzeppelin/contracts/token/ERC721/ERC721.sol\":15132:15162  !isApprovedForAll(owner, auth) */\n      iszero\n        /* \"@openzeppelin/contracts/token/ERC721/ERC721.sol\":15093:15162  auth != address(0) && owner != auth && !isApprovedForAll(owner, auth) */\n    tag_278:\n        /* \"@openzeppelin/contracts/token/ERC721/ERC721.sol\":15089:15231  if (auth != address(0) && owner != auth && !isApprovedForAll(owner, auth)) {... */\n      iszero\n      tag_280\n      jumpi\n        /* \"@openzeppelin/contracts/token/ERC721/ERC721.sol\":15211:15215  auth */\n      dup3\n        /* \"@openzeppelin/contracts/token/ERC721/ERC721.sol\":15189:15216  ERC721InvalidApprover(auth) */\n      mload(0x40)\n      shl(0xe0, 0xa9fbf51f)\n      dup2\n      mstore\n      0x04\n      add\n      tag_133\n      swap2\n      swap1\n      tag_43\n      jump\t// in\n        /* \"@openzeppelin/contracts/token/ERC721/ERC721.sol\":15089:15231  if (auth != address(0) && owner != auth && !isApprovedForAll(owner, auth)) {... */\n    tag_280:\n        /* \"@openzeppelin/contracts/token/ERC721/ERC721.sol\":15249:15258  emitEvent */\n      dup2\n        /* \"@openzeppelin/contracts/token/ERC721/ERC721.sol\":15245:15326  if (emitEvent) {... */\n      iszero\n      tag_282\n      jumpi\n        /* \"@openzeppelin/contracts/token/ERC721/ERC721.sol\":15303:15310  tokenId */\n      dup4\n        /* \"@openzeppelin/contracts/token/ERC721/ERC721.sol\":15299:15301  to */\n      dup6\n      sub(shl(0xa0, 0x01), 0x01)\n        /* \"@openzeppelin/contracts/token/ERC721/ERC721.sol\":15283:15311  Approval(owner, to, tokenId) */\n      and\n        /* \"@openzeppelin/contracts/token/ERC721/ERC721.sol\":15292:15297  owner */\n      dup3\n      sub(shl(0xa0, 0x01), 0x01)\n        /* \"@openzeppelin/contracts/token/ERC721/ERC721.sol\":15283:15311  Approval(owner, to, tokenId) */\n      and\n      0x8c5be1e5ebec7d5bd14f71427d1e84f3dd0314c0f7b2291e5b200ac8c7c3b925\n      mload(0x40)\n      mload(0x40)\n      dup1\n      swap2\n      sub\n      swap1\n      log4\n        /* \"@openzeppelin/contracts/token/ERC721/ERC721.sol\":15245:15326  if (emitEvent) {... */\n    tag_282:\n        /* \"@openzeppelin/contracts/token/ERC721/ERC721.sol\":14913:15336  {... */\n      pop\n        /* \"@openzeppelin/contracts/token/ERC721/ERC721.sol\":14876:15336  if (emitEvent || auth != address(0)) {... */\n    tag_275:\n      pop\n      pop\n        /* \"@openzeppelin/contracts/token/ERC721/ERC721.sol\":15346:15370  _tokenApprovals[tokenId] */\n      0x00\n      swap1\n      dup2\n      mstore\n        /* \"@openzeppelin/contracts/token/ERC721/ERC721.sol\":15346:15361  _tokenApprovals */\n      0x04\n        /* \"@openzeppelin/contracts/token/ERC721/ERC721.sol\":15346:15370  _tokenApprovals[tokenId] */\n      0x20\n      mstore\n      0x40\n      swap1\n      keccak256\n        /* \"@openzeppelin/contracts/token/ERC721/ERC721.sol\":15346:15375  _tokenApprovals[tokenId] = to */\n      dup1\n      sload\n      not(sub(shl(0xa0, 0x01), 0x01))\n      and\n      sub(shl(0xa0, 0x01), 0x01)\n      swap3\n      swap1\n      swap3\n      and\n      swap2\n      swap1\n      swap2\n      or\n      swap1\n      sstore\n        /* \"@openzeppelin/contracts/token/ERC721/ERC721.sol\":14720:15382  function _approve(address to, uint256 tokenId, address auth, bool emitEvent) internal virtual {... */\n      jump\t// out\n        /* \"@openzeppelin/contracts/token/ERC721/ERC721.sol\":7082:7450  function _checkAuthorized(address owner, address spender, uint256 tokenId) internal view virtual {... */\n    tag_223:\n        /* \"@openzeppelin/contracts/token/ERC721/ERC721.sol\":7194:7232  _isAuthorized(owner, spender, tokenId) */\n      tag_284\n        /* \"@openzeppelin/contracts/token/ERC721/ERC721.sol\":7208:7213  owner */\n      dup4\n        /* \"@openzeppelin/contracts/token/ERC721/ERC721.sol\":7215:7222  spender */\n      dup4\n        /* \"@openzeppelin/contracts/token/ERC721/ERC721.sol\":7224:7231  tokenId */\n      dup4\n        /* \"@openzeppelin/contracts/token/ERC721/ERC721.sol\":7194:7207  _isAuthorized */\n      tag_285\n        /* \"@openzeppelin/contracts/token/ERC721/ERC721.sol\":7194:7232  _isAuthorized(owner, spender, tokenId) */\n      jump\t// in\n    tag_284:\n        /* \"@openzeppelin/contracts/token/ERC721/ERC721.sol\":7189:7444  if (!_isAuthorized(owner, spender, tokenId)) {... */\n      tag_149\n      jumpi\n      sub(shl(0xa0, 0x01), 0x01)\n        /* \"@openzeppelin/contracts/token/ERC721/ERC721.sol\":7252:7271  owner == address(0) */\n      dup4\n      and\n        /* \"@openzeppelin/contracts/token/ERC721/ERC721.sol\":7248:7434  if (owner == address(0)) {... */\n      tag_287\n      jumpi\n        /* \"@openzeppelin/contracts/token/ERC721/ERC721.sol\":7298:7329  ERC721NonexistentToken(tokenId) */\n      mload(0x40)\n      shl(0xe0, 0x7e273289)\n      dup2\n      mstore\n      0x04\n      dup2\n      add\n        /* \"#utility.yul\":2572:2597   */\n      dup3\n      swap1\n      mstore\n        /* \"#utility.yul\":2545:2563   */\n      0x24\n      add\n        /* \"@openzeppelin/contracts/token/ERC721/ERC721.sol\":7298:7329  ERC721NonexistentToken(tokenId) */\n      tag_133\n        /* \"#utility.yul\":2426:2603   */\n      jump\n        /* \"@openzeppelin/contracts/token/ERC721/ERC721.sol\":7248:7434  if (owner == address(0)) {... */\n    tag_287:\n        /* \"@openzeppelin/contracts/token/ERC721/ERC721.sol\":7375:7419  ERC721InsufficientApproval(spender, tokenId) */\n      mload(0x40)\n      shl(0xe0, 0x177e802f)\n      dup2\n      mstore\n      sub(shl(0xa0, 0x01), 0x01)\n        /* \"#utility.yul\":3530:3562   */\n      dup4\n      and\n        /* \"@openzeppelin/contracts/token/ERC721/ERC721.sol\":7375:7419  ERC721InsufficientApproval(spender, tokenId) */\n      0x04\n      dup3\n      add\n        /* \"#utility.yul\":3512:3563   */\n      mstore\n        /* \"#utility.yul\":3579:3597   */\n      0x24\n      dup2\n      add\n        /* \"#utility.yul\":3572:3606   */\n      dup3\n      swap1\n      mstore\n        /* \"#utility.yul\":3485:3503   */\n      0x44\n      add\n        /* \"@openzeppelin/contracts/token/ERC721/ERC721.sol\":7375:7419  ERC721InsufficientApproval(spender, tokenId) */\n      tag_133\n        /* \"#utility.yul\":3338:3612   */\n      jump\n        /* \"@openzeppelin/contracts/utils/math/Math.sol\":12214:13130  function log10(uint256 value) internal pure returns (uint256) {... */\n    tag_256:\n        /* \"@openzeppelin/contracts/utils/math/Math.sol\":12267:12274  uint256 */\n      0x00\n      dup1\n      shl(0x40, 0x184f03e93ff9f4daa797ed6e38ed64bf6a1f01)\n        /* \"@openzeppelin/contracts/utils/math/Math.sol\":12342:12359  value >= 10 ** 64 */\n      dup4\n      lt\n        /* \"@openzeppelin/contracts/utils/math/Math.sol\":12338:12441  if (value >= 10 ** 64) {... */\n      tag_292\n      jumpi\n      shl(0x40, 0x184f03e93ff9f4daa797ed6e38ed64bf6a1f01)\n        /* \"@openzeppelin/contracts/utils/math/Math.sol\":12379:12396  value /= 10 ** 64 */\n      dup4\n      div\n      swap3\n      pop\n        /* \"@openzeppelin/contracts/utils/math/Math.sol\":12424:12426  64 */\n      0x40\n        /* \"@openzeppelin/contracts/utils/math/Math.sol\":12414:12426  result += 64 */\n      add\n        /* \"@openzeppelin/contracts/utils/math/Math.sol\":12338:12441  if (value >= 10 ** 64) {... */\n    tag_292:\n        /* \"@openzeppelin/contracts/utils/math/Math.sol\":12467:12475  10 ** 32 */\n      0x04ee2d6d415b85acef8100000000\n        /* \"@openzeppelin/contracts/utils/math/Math.sol\":12458:12463  value */\n      dup4\n        /* \"@openzeppelin/contracts/utils/math/Math.sol\":12458:12475  value >= 10 ** 32 */\n      lt\n        /* \"@openzeppelin/contracts/utils/math/Math.sol\":12454:12557  if (value >= 10 ** 32) {... */\n      tag_295\n      jumpi\n        /* \"@openzeppelin/contracts/utils/math/Math.sol\":12504:12512  10 ** 32 */\n      0x04ee2d6d415b85acef8100000000\n        /* \"@openzeppelin/contracts/utils/math/Math.sol\":12495:12512  value /= 10 ** 32 */\n      dup4\n      div\n      swap3\n      pop\n        /* \"@openzeppelin/contracts/utils/math/Math.sol\":12540:12542  32 */\n      0x20\n        /* \"@openzeppelin/contracts/utils/math/Math.sol\":12530:12542  result += 32 */\n      add\n        /* \"@openzeppelin/contracts/utils/math/Math.sol\":12454:12557  if (value >= 10 ** 32) {... */\n    tag_295:\n        /* \"@openzeppelin/contracts/utils/math/Math.sol\":12583:12591  10 ** 16 */\n      0x2386f26fc10000\n        /* \"@openzeppelin/contracts/utils/math/Math.sol\":12574:12579  value */\n      dup4\n        /* \"@openzeppelin/contracts/utils/math/Math.sol\":12574:12591  value >= 10 ** 16 */\n      lt\n        /* \"@openzeppelin/contracts/utils/math/Math.sol\":12570:12673  if (value >= 10 ** 16) {... */\n      tag_298\n      jumpi\n        /* \"@openzeppelin/contracts/utils/math/Math.sol\":12620:12628  10 ** 16 */\n      0x2386f26fc10000\n        /* \"@openzeppelin/contracts/utils/math/Math.sol\":12611:12628  value /= 10 ** 16 */\n      dup4\n      div\n      swap3\n      pop\n        /* \"@openzeppelin/contracts/utils/math/Math.sol\":12656:12658  16 */\n      0x10\n        /* \"@openzeppelin/contracts/utils/math/Math.sol\":12646:12658  result += 16 */\n      add\n        /* \"@openzeppelin/contracts/utils/math/Math.sol\":12570:12673  if (value >= 10 ** 16) {... */\n    tag_298:\n        /* \"@openzeppelin/contracts/utils/math/Math.sol\":12699:12706  10 ** 8 */\n      0x05f5e100\n        /* \"@openzeppelin/contracts/utils/math/Math.sol\":12690:12695  value */\n      dup4\n        /* \"@openzeppelin/contracts/utils/math/Math.sol\":12690:12706  value >= 10 ** 8 */\n      lt\n        /* \"@openzeppelin/contracts/utils/math/Math.sol\":12686:12786  if (value >= 10 ** 8) {... */\n      tag_301\n      jumpi\n        /* \"@openzeppelin/contracts/utils/math/Math.sol\":12735:12742  10 ** 8 */\n      0x05f5e100\n        /* \"@openzeppelin/contracts/utils/math/Math.sol\":12726:12742  value /= 10 ** 8 */\n      dup4\n      div\n      swap3\n      pop\n        /* \"@openzeppelin/contracts/utils/math/Math.sol\":12770:12771  8 */\n      0x08\n        /* \"@openzeppelin/contracts/utils/math/Math.sol\":12760:12771  result += 8 */\n      add\n        /* \"@openzeppelin/contracts/utils/math/Math.sol\":12686:12786  if (value >= 10 ** 8) {... */\n    tag_301:\n        /* \"@openzeppelin/contracts/utils/math/Math.sol\":12812:12819  10 ** 4 */\n      0x2710\n        /* \"@openzeppelin/contracts/utils/math/Math.sol\":12803:12808  value */\n      dup4\n        /* \"@openzeppelin/contracts/utils/math/Math.sol\":12803:12819  value >= 10 ** 4 */\n      lt\n        /* \"@openzeppelin/contracts/utils/math/Math.sol\":12799:12899  if (value >= 10 ** 4) {... */\n      tag_304\n      jumpi\n        /* \"@openzeppelin/contracts/utils/math/Math.sol\":12848:12855  10 ** 4 */\n      0x2710\n        /* \"@openzeppelin/contracts/utils/math/Math.sol\":12839:12855  value /= 10 ** 4 */\n      dup4\n      div\n      swap3\n      pop\n        /* \"@openzeppelin/contracts/utils/math/Math.sol\":12883:12884  4 */\n      0x04\n        /* \"@openzeppelin/contracts/utils/math/Math.sol\":12873:12884  result += 4 */\n      add\n        /* \"@openzeppelin/contracts/utils/math/Math.sol\":12799:12899  if (value >= 10 ** 4) {... */\n    tag_304:\n        /* \"@openzeppelin/contracts/utils/math/Math.sol\":12925:12932  10 ** 2 */\n      0x64\n        /* \"@openzeppelin/contracts/utils/math/Math.sol\":12916:12921  value */\n      dup4\n        /* \"@openzeppelin/contracts/utils/math/Math.sol\":12916:12932  value >= 10 ** 2 */\n      lt\n        /* \"@openzeppelin/contracts/utils/math/Math.sol\":12912:13012  if (value >= 10 ** 2) {... */\n      tag_307\n      jumpi\n        /* \"@openzeppelin/contracts/utils/math/Math.sol\":12961:12968  10 ** 2 */\n      0x64\n        /* \"@openzeppelin/contracts/utils/math/Math.sol\":12952:12968  value /= 10 ** 2 */\n      dup4\n      div\n      swap3\n      pop\n        /* \"@openzeppelin/contracts/utils/math/Math.sol\":12996:12997  2 */\n      0x02\n        /* \"@openzeppelin/contracts/utils/math/Math.sol\":12986:12997  result += 2 */\n      add\n        /* \"@openzeppelin/contracts/utils/math/Math.sol\":12912:13012  if (value >= 10 ** 2) {... */\n    tag_307:\n        /* \"@openzeppelin/contracts/utils/math/Math.sol\":13038:13045  10 ** 1 */\n      0x0a\n        /* \"@openzeppelin/contracts/utils/math/Math.sol\":13029:13034  value */\n      dup4\n        /* \"@openzeppelin/contracts/utils/math/Math.sol\":13029:13045  value >= 10 ** 1 */\n      lt\n        /* \"@openzeppelin/contracts/utils/math/Math.sol\":13025:13091  if (value >= 10 ** 1) {... */\n      tag_103\n      jumpi\n        /* \"@openzeppelin/contracts/utils/math/Math.sol\":13075:13076  1 */\n      0x01\n        /* \"@openzeppelin/contracts/utils/math/Math.sol\":13065:13076  result += 1 */\n      add\n        /* \"@openzeppelin/contracts/utils/math/Math.sol\":13117:13123  result */\n      swap3\n        /* \"@openzeppelin/contracts/utils/math/Math.sol\":12214:13130  function log10(uint256 value) internal pure returns (uint256) {... */\n      swap2\n      pop\n      pop\n      jump\t// out\n        /* \"@openzeppelin/contracts/token/ERC721/ERC721.sol\":6376:6648  function _isAuthorized(address owner, address spender, uint256 tokenId) internal view virtual returns (bool) {... */\n    tag_285:\n        /* \"@openzeppelin/contracts/token/ERC721/ERC721.sol\":6479:6483  bool */\n      0x00\n      sub(shl(0xa0, 0x01), 0x01)\n        /* \"@openzeppelin/contracts/token/ERC721/ERC721.sol\":6514:6535  spender != address(0) */\n      dup4\n      and\n      iszero\n      dup1\n      iszero\n      swap1\n        /* \"@openzeppelin/contracts/token/ERC721/ERC721.sol\":6514:6641  spender != address(0) &&... */\n      tag_316\n      jumpi\n      pop\n        /* \"@openzeppelin/contracts/token/ERC721/ERC721.sol\":6561:6568  spender */\n      dup3\n      sub(shl(0xa0, 0x01), 0x01)\n        /* \"@openzeppelin/contracts/token/ERC721/ERC721.sol\":6552:6568  owner == spender */\n      and\n        /* \"@openzeppelin/contracts/token/ERC721/ERC721.sol\":6552:6557  owner */\n      dup5\n      sub(shl(0xa0, 0x01), 0x01)\n        /* \"@openzeppelin/contracts/token/ERC721/ERC721.sol\":6552:6568  owner == spender */\n      and\n      eq\n        /* \"@openzeppelin/contracts/token/ERC721/ERC721.sol\":6552:6604  owner == spender || isApprovedForAll(owner, spender) */\n      dup1\n      tag_315\n      jumpi\n      pop\n        /* \"@openzeppelin/contracts/token/ERC721/ERC721.sol\":6572:6604  isApprovedForAll(owner, spender) */\n      tag_315\n        /* \"@openzeppelin/contracts/token/ERC721/ERC721.sol\":6589:6594  owner */\n      dup5\n        /* \"@openzeppelin/contracts/token/ERC721/ERC721.sol\":6596:6603  spender */\n      dup5\n        /* \"@openzeppelin/contracts/token/ERC721/ERC721.sol\":6572:6588  isApprovedForAll */\n      tag_97\n        /* \"@openzeppelin/contracts/token/ERC721/ERC721.sol\":6572:6604  isApprovedForAll(owner, spender) */\n      jump\t// in\n    tag_315:\n        /* \"@openzeppelin/contracts/token/ERC721/ERC721.sol\":6552:6640  owner == spender || isApprovedForAll(owner, spender) || _getApproved(tokenId) == spender */\n      dup1\n      tag_316\n      jumpi\n      pop\n        /* \"@openzeppelin/contracts/token/ERC721/ERC721.sol\":6008:6015  address */\n      0x00\n        /* \"@openzeppelin/contracts/token/ERC721/ERC721.sol\":6034:6058  _tokenApprovals[tokenId] */\n      dup3\n      dup2\n      mstore\n        /* \"@openzeppelin/contracts/token/ERC721/ERC721.sol\":6034:6049  _tokenApprovals */\n      0x04\n        /* \"@openzeppelin/contracts/token/ERC721/ERC721.sol\":6034:6058  _tokenApprovals[tokenId] */\n      0x20\n      mstore\n      0x40\n      swap1\n      keccak256\n      sload\n      sub(shl(0xa0, 0x01), 0x01)\n        /* \"@openzeppelin/contracts/token/ERC721/ERC721.sol\":6608:6640  _getApproved(tokenId) == spender */\n      dup5\n      dup2\n      and\n        /* \"@openzeppelin/contracts/token/ERC721/ERC721.sol\":6034:6058  _tokenApprovals[tokenId] */\n      swap2\n      and\n        /* \"@openzeppelin/contracts/token/ERC721/ERC721.sol\":6608:6640  _getApproved(tokenId) == spender */\n      eq\n        /* \"@openzeppelin/contracts/token/ERC721/ERC721.sol\":6552:6640  owner == spender || isApprovedForAll(owner, spender) || _getApproved(tokenId) == spender */\n    tag_316:\n        /* \"@openzeppelin/contracts/token/ERC721/ERC721.sol\":6495:6641  return... */\n      swap5\n        /* \"@openzeppelin/contracts/token/ERC721/ERC721.sol\":6376:6648  function _isAuthorized(address owner, address spender, uint256 tokenId) internal view virtual returns (bool) {... */\n      swap4\n      pop\n      pop\n      pop\n      pop\n      jump\t// out\n        /* \"#utility.yul\":14:145   */\n    tag_318:\n      not(sub(shl(0xe0, 0x01), 0x01))\n        /* \"#utility.yul\":88:120   */\n      dup2\n      and\n        /* \"#utility.yul\":78:121   */\n      dup2\n      eq\n        /* \"#utility.yul\":68:139   */\n      tag_191\n      jumpi\n        /* \"#utility.yul\":135:136   */\n      0x00\n        /* \"#utility.yul\":132:133   */\n      dup1\n        /* \"#utility.yul\":125:137   */\n      revert\n        /* \"#utility.yul\":150:395   */\n    tag_26:\n        /* \"#utility.yul\":208:214   */\n      0x00\n        /* \"#utility.yul\":261:263   */\n      0x20\n        /* \"#utility.yul\":249:258   */\n      dup3\n        /* \"#utility.yul\":240:247   */\n      dup5\n        /* \"#utility.yul\":236:259   */\n      sub\n        /* \"#utility.yul\":232:264   */\n      slt\n        /* \"#utility.yul\":229:281   */\n      iszero\n      tag_327\n      jumpi\n        /* \"#utility.yul\":277:278   */\n      0x00\n        /* \"#utility.yul\":274:275   */\n      dup1\n        /* \"#utility.yul\":267:279   */\n      revert\n        /* \"#utility.yul\":229:281   */\n    tag_327:\n        /* \"#utility.yul\":316:325   */\n      dup2\n        /* \"#utility.yul\":303:326   */\n      calldataload\n        /* \"#utility.yul\":335:365   */\n      tag_180\n        /* \"#utility.yul\":359:364   */\n      dup2\n        /* \"#utility.yul\":335:365   */\n      tag_318\n      jump\t// in\n        /* \"#utility.yul\":592:765   */\n    tag_319:\n        /* \"#utility.yul\":660:680   */\n      dup1\n      calldataload\n      sub(shl(0xa0, 0x01), 0x01)\n        /* \"#utility.yul\":709:740   */\n      dup2\n      and\n        /* \"#utility.yul\":699:741   */\n      dup2\n      eq\n        /* \"#utility.yul\":689:759   */\n      tag_331\n      jumpi\n        /* \"#utility.yul\":755:756   */\n      0x00\n        /* \"#utility.yul\":752:753   */\n      dup1\n        /* \"#utility.yul\":745:757   */\n      revert\n        /* \"#utility.yul\":689:759   */\n    tag_331:\n        /* \"#utility.yul\":592:765   */\n      swap2\n      swap1\n      pop\n      jump\t// out\n        /* \"#utility.yul\":770:1136   */\n    tag_32:\n        /* \"#utility.yul\":837:843   */\n      0x00\n        /* \"#utility.yul\":845:851   */\n      dup1\n        /* \"#utility.yul\":898:900   */\n      0x40\n        /* \"#utility.yul\":886:895   */\n      dup4\n        /* \"#utility.yul\":877:884   */\n      dup6\n        /* \"#utility.yul\":873:896   */\n      sub\n        /* \"#utility.yul\":869:901   */\n      slt\n        /* \"#utility.yul\":866:918   */\n      iszero\n      tag_333\n      jumpi\n        /* \"#utility.yul\":914:915   */\n      0x00\n        /* \"#utility.yul\":911:912   */\n      dup1\n        /* \"#utility.yul\":904:916   */\n      revert\n        /* \"#utility.yul\":866:918   */\n    tag_333:\n        /* \"#utility.yul\":937:966   */\n      tag_334\n        /* \"#utility.yul\":956:965   */\n      dup4\n        /* \"#utility.yul\":937:966   */\n      tag_319\n      jump\t// in\n    tag_334:\n        /* \"#utility.yul\":927:966   */\n      swap2\n      pop\n        /* \"#utility.yul\":1016:1018   */\n      0x20\n        /* \"#utility.yul\":1005:1014   */\n      dup4\n        /* \"#utility.yul\":1001:1019   */\n      add\n        /* \"#utility.yul\":988:1020   */\n      calldataload\n      sub(shl(0x60, 0x01), 0x01)\n        /* \"#utility.yul\":1053:1058   */\n      dup2\n        /* \"#utility.yul\":1049:1087   */\n      and\n        /* \"#utility.yul\":1042:1047   */\n      dup2\n        /* \"#utility.yul\":1039:1088   */\n      eq\n        /* \"#utility.yul\":1029:1106   */\n      tag_335\n      jumpi\n        /* \"#utility.yul\":1102:1103   */\n      0x00\n        /* \"#utility.yul\":1099:1100   */\n      dup1\n        /* \"#utility.yul\":1092:1104   */\n      revert\n        /* \"#utility.yul\":1029:1106   */\n    tag_335:\n        /* \"#utility.yul\":1125:1130   */\n      dup1\n        /* \"#utility.yul\":1115:1130   */\n      swap2\n      pop\n      pop\n        /* \"#utility.yul\":770:1136   */\n      swap3\n      pop\n      swap3\n      swap1\n      pop\n      jump\t// out\n        /* \"#utility.yul\":1141:1441   */\n    tag_320:\n        /* \"#utility.yul\":1194:1197   */\n      0x00\n        /* \"#utility.yul\":1232:1237   */\n      dup2\n        /* \"#utility.yul\":1226:1238   */\n      mload\n        /* \"#utility.yul\":1259:1265   */\n      dup1\n        /* \"#utility.yul\":1254:1257   */\n      dup5\n        /* \"#utility.yul\":1247:1266   */\n      mstore\n        /* \"#utility.yul\":1315:1321   */\n      dup1\n        /* \"#utility.yul\":1308:1312   */\n      0x20\n        /* \"#utility.yul\":1301:1306   */\n      dup5\n        /* \"#utility.yul\":1297:1313   */\n      add\n        /* \"#utility.yul\":1290:1294   */\n      0x20\n        /* \"#utility.yul\":1285:1288   */\n      dup7\n        /* \"#utility.yul\":1281:1295   */\n      add\n        /* \"#utility.yul\":1275:1322   */\n      mcopy\n        /* \"#utility.yul\":1367:1368   */\n      0x00\n        /* \"#utility.yul\":1360:1364   */\n      0x20\n        /* \"#utility.yul\":1351:1357   */\n      dup3\n        /* \"#utility.yul\":1346:1349   */\n      dup7\n        /* \"#utility.yul\":1342:1358   */\n      add\n        /* \"#utility.yul\":1338:1365   */\n      add\n        /* \"#utility.yul\":1331:1369   */\n      mstore\n        /* \"#utility.yul\":1430:1434   */\n      0x20\n        /* \"#utility.yul\":1423:1425   */\n      0x1f\n        /* \"#utility.yul\":1419:1426   */\n      not\n        /* \"#utility.yul\":1414:1416   */\n      0x1f\n        /* \"#utility.yul\":1406:1412   */\n      dup4\n        /* \"#utility.yul\":1402:1417   */\n      add\n        /* \"#utility.yul\":1398:1427   */\n      and\n        /* \"#utility.yul\":1393:1396   */\n      dup6\n        /* \"#utility.yul\":1389:1428   */\n      add\n        /* \"#utility.yul\":1385:1435   */\n      add\n        /* \"#utility.yul\":1378:1435   */\n      swap2\n      pop\n      pop\n        /* \"#utility.yul\":1141:1441   */\n      swap3\n      swap2\n      pop\n      pop\n      jump\t// out\n        /* \"#utility.yul\":1446:1677   */\n    tag_37:\n        /* \"#utility.yul\":1595:1597   */\n      0x20\n        /* \"#utility.yul\":1584:1593   */\n      dup2\n        /* \"#utility.yul\":1577:1598   */\n      mstore\n        /* \"#utility.yul\":1558:1562   */\n      0x00\n        /* \"#utility.yul\":1615:1671   */\n      tag_180\n        /* \"#utility.yul\":1667:1669   */\n      0x20\n        /* \"#utility.yul\":1656:1665   */\n      dup4\n        /* \"#utility.yul\":1652:1670   */\n      add\n        /* \"#utility.yul\":1644:1650   */\n      dup5\n        /* \"#utility.yul\":1615:1671   */\n      tag_320\n      jump\t// in\n        /* \"#utility.yul\":1682:1908   */\n    tag_40:\n        /* \"#utility.yul\":1741:1747   */\n      0x00\n        /* \"#utility.yul\":1794:1796   */\n      0x20\n        /* \"#utility.yul\":1782:1791   */\n      dup3\n        /* \"#utility.yul\":1773:1780   */\n      dup5\n        /* \"#utility.yul\":1769:1792   */\n      sub\n        /* \"#utility.yul\":1765:1797   */\n      slt\n        /* \"#utility.yul\":1762:1814   */\n      iszero\n      tag_340\n      jumpi\n        /* \"#utility.yul\":1810:1811   */\n      0x00\n        /* \"#utility.yul\":1807:1808   */\n      dup1\n        /* \"#utility.yul\":1800:1812   */\n      revert\n        /* \"#utility.yul\":1762:1814   */\n    tag_340:\n      pop\n        /* \"#utility.yul\":1855:1878   */\n      calldataload\n      swap2\n        /* \"#utility.yul\":1682:1908   */\n      swap1\n      pop\n      jump\t// out\n        /* \"#utility.yul\":1913:2116   */\n    tag_43:\n      sub(shl(0xa0, 0x01), 0x01)\n        /* \"#utility.yul\":2077:2109   */\n      swap2\n      swap1\n      swap2\n      and\n        /* \"#utility.yul\":2059:2110   */\n      dup2\n      mstore\n        /* \"#utility.yul\":2047:2049   */\n      0x20\n        /* \"#utility.yul\":2032:2050   */\n      add\n      swap1\n        /* \"#utility.yul\":1913:2116   */\n      jump\t// out\n        /* \"#utility.yul\":2121:2421   */\n    tag_46:\n        /* \"#utility.yul\":2189:2195   */\n      0x00\n        /* \"#utility.yul\":2197:2203   */\n      dup1\n        /* \"#utility.yul\":2250:2252   */\n      0x40\n        /* \"#utility.yul\":2238:2247   */\n      dup4\n        /* \"#utility.yul\":2229:2236   */\n      dup6\n        /* \"#utility.yul\":2225:2248   */\n      sub\n        /* \"#utility.yul\":2221:2253   */\n      slt\n        /* \"#utility.yul\":2218:2270   */\n      iszero\n      tag_343\n      jumpi\n        /* \"#utility.yul\":2266:2267   */\n      0x00\n        /* \"#utility.yul\":2263:2264   */\n      dup1\n        /* \"#utility.yul\":2256:2268   */\n      revert\n        /* \"#utility.yul\":2218:2270   */\n    tag_343:\n        /* \"#utility.yul\":2289:2318   */\n      tag_344\n        /* \"#utility.yul\":2308:2317   */\n      dup4\n        /* \"#utility.yul\":2289:2318   */\n      tag_319\n      jump\t// in\n    tag_344:\n        /* \"#utility.yul\":2279:2318   */\n      swap5\n        /* \"#utility.yul\":2387:2389   */\n      0x20\n        /* \"#utility.yul\":2372:2390   */\n      swap4\n      swap1\n      swap4\n      add\n        /* \"#utility.yul\":2359:2391   */\n      calldataload\n      swap4\n      pop\n      pop\n      pop\n        /* \"#utility.yul\":2121:2421   */\n      jump\t// out\n        /* \"#utility.yul\":2608:2982   */\n    tag_54:\n        /* \"#utility.yul\":2685:2691   */\n      0x00\n        /* \"#utility.yul\":2693:2699   */\n      dup1\n        /* \"#utility.yul\":2701:2707   */\n      0x00\n        /* \"#utility.yul\":2754:2756   */\n      0x60\n        /* \"#utility.yul\":2742:2751   */\n      dup5\n        /* \"#utility.yul\":2733:2740   */\n      dup7\n        /* \"#utility.yul\":2729:2752   */\n      sub\n        /* \"#utility.yul\":2725:2757   */\n      slt\n        /* \"#utility.yul\":2722:2774   */\n      iszero\n      tag_347\n      jumpi\n        /* \"#utility.yul\":2770:2771   */\n      0x00\n        /* \"#utility.yul\":2767:2768   */\n      dup1\n        /* \"#utility.yul\":2760:2772   */\n      revert\n        /* \"#utility.yul\":2722:2774   */\n    tag_347:\n        /* \"#utility.yul\":2793:2822   */\n      tag_348\n        /* \"#utility.yul\":2812:2821   */\n      dup5\n        /* \"#utility.yul\":2793:2822   */\n      tag_319\n      jump\t// in\n    tag_348:\n        /* \"#utility.yul\":2783:2822   */\n      swap3\n      pop\n        /* \"#utility.yul\":2841:2879   */\n      tag_349\n        /* \"#utility.yul\":2875:2877   */\n      0x20\n        /* \"#utility.yul\":2864:2873   */\n      dup6\n        /* \"#utility.yul\":2860:2878   */\n      add\n        /* \"#utility.yul\":2841:2879   */\n      tag_319\n      jump\t// in\n    tag_349:\n        /* \"#utility.yul\":2608:2982   */\n      swap3\n      swap6\n        /* \"#utility.yul\":2831:2879   */\n      swap3\n      swap5\n      pop\n      pop\n      pop\n        /* \"#utility.yul\":2948:2950   */\n      0x40\n        /* \"#utility.yul\":2933:2951   */\n      swap2\n      swap1\n      swap2\n      add\n        /* \"#utility.yul\":2920:2952   */\n      calldataload\n      swap1\n        /* \"#utility.yul\":2608:2982   */\n      jump\t// out\n        /* \"#utility.yul\":2987:3333   */\n    tag_58:\n        /* \"#utility.yul\":3055:3061   */\n      0x00\n        /* \"#utility.yul\":3063:3069   */\n      dup1\n        /* \"#utility.yul\":3116:3118   */\n      0x40\n        /* \"#utility.yul\":3104:3113   */\n      dup4\n        /* \"#utility.yul\":3095:3102   */\n      dup6\n        /* \"#utility.yul\":3091:3114   */\n      sub\n        /* \"#utility.yul\":3087:3119   */\n      slt\n        /* \"#utility.yul\":3084:3136   */\n      iszero\n      tag_351\n      jumpi\n        /* \"#utility.yul\":3132:3133   */\n      0x00\n        /* \"#utility.yul\":3129:3130   */\n      dup1\n        /* \"#utility.yul\":3122:3134   */\n      revert\n        /* \"#utility.yul\":3084:3136   */\n    tag_351:\n      pop\n      pop\n        /* \"#utility.yul\":3177:3200   */\n      dup1\n      calldataload\n      swap3\n        /* \"#utility.yul\":3297:3299   */\n      0x20\n        /* \"#utility.yul\":3282:3300   */\n      swap1\n      swap2\n      add\n        /* \"#utility.yul\":3269:3301   */\n      calldataload\n      swap2\n      pop\n        /* \"#utility.yul\":2987:3333   */\n      jump\t// out\n        /* \"#utility.yul\":3617:3803   */\n    tag_71:\n        /* \"#utility.yul\":3676:3682   */\n      0x00\n        /* \"#utility.yul\":3729:3731   */\n      0x20\n        /* \"#utility.yul\":3717:3726   */\n      dup3\n        /* \"#utility.yul\":3708:3715   */\n      dup5\n        /* \"#utility.yul\":3704:3727   */\n      sub\n        /* \"#utility.yul\":3700:3732   */\n      slt\n        /* \"#utility.yul\":3697:3749   */\n      iszero\n      tag_354\n      jumpi\n        /* \"#utility.yul\":3745:3746   */\n      0x00\n        /* \"#utility.yul\":3742:3743   */\n      dup1\n        /* \"#utility.yul\":3735:3747   */\n      revert\n        /* \"#utility.yul\":3697:3749   */\n    tag_354:\n        /* \"#utility.yul\":3768:3797   */\n      tag_180\n        /* \"#utility.yul\":3787:3796   */\n      dup3\n        /* \"#utility.yul\":3768:3797   */\n      tag_319\n      jump\t// in\n        /* \"#utility.yul\":3808:4155   */\n    tag_84:\n        /* \"#utility.yul\":3873:3879   */\n      0x00\n        /* \"#utility.yul\":3881:3887   */\n      dup1\n        /* \"#utility.yul\":3934:3936   */\n      0x40\n        /* \"#utility.yul\":3922:3931   */\n      dup4\n        /* \"#utility.yul\":3913:3920   */\n      dup6\n        /* \"#utility.yul\":3909:3932   */\n      sub\n        /* \"#utility.yul\":3905:3937   */\n      slt\n        /* \"#utility.yul\":3902:3954   */\n      iszero\n      tag_357\n      jumpi\n        /* \"#utility.yul\":3950:3951   */\n      0x00\n        /* \"#utility.yul\":3947:3948   */\n      dup1\n        /* \"#utility.yul\":3940:3952   */\n      revert\n        /* \"#utility.yul\":3902:3954   */\n    tag_357:\n        /* \"#utility.yul\":3973:4002   */\n      tag_358\n        /* \"#utility.yul\":3992:4001   */\n      dup4\n        /* \"#utility.yul\":3973:4002   */\n      tag_319\n      jump\t// in\n    tag_358:\n        /* \"#utility.yul\":3963:4002   */\n      swap2\n      pop\n        /* \"#utility.yul\":4052:4054   */\n      0x20\n        /* \"#utility.yul\":4041:4050   */\n      dup4\n        /* \"#utility.yul\":4037:4055   */\n      add\n        /* \"#utility.yul\":4024:4056   */\n      calldataload\n        /* \"#utility.yul\":4099:4104   */\n      dup1\n        /* \"#utility.yul\":4092:4105   */\n      iszero\n        /* \"#utility.yul\":4085:4106   */\n      iszero\n        /* \"#utility.yul\":4078:4083   */\n      dup2\n        /* \"#utility.yul\":4075:4107   */\n      eq\n        /* \"#utility.yul\":4065:4125   */\n      tag_335\n      jumpi\n        /* \"#utility.yul\":4121:4122   */\n      0x00\n        /* \"#utility.yul\":4118:4119   */\n      dup1\n        /* \"#utility.yul\":4111:4123   */\n      revert\n        /* \"#utility.yul\":4160:4287   */\n    tag_259:\n        /* \"#utility.yul\":4221:4231   */\n      0x4e487b71\n        /* \"#utility.yul\":4216:4219   */\n      0xe0\n        /* \"#utility.yul\":4212:4232   */\n      shl\n        /* \"#utility.yul\":4209:4210   */\n      0x00\n        /* \"#utility.yul\":4202:4233   */\n      mstore\n        /* \"#utility.yul\":4252:4256   */\n      0x41\n        /* \"#utility.yul\":4249:4250   */\n      0x04\n        /* \"#utility.yul\":4242:4257   */\n      mstore\n        /* \"#utility.yul\":4276:4280   */\n      0x24\n        /* \"#utility.yul\":4273:4274   */\n      0x00\n        /* \"#utility.yul\":4266:4281   */\n      revert\n        /* \"#utility.yul\":4292:5499   */\n    tag_88:\n        /* \"#utility.yul\":4387:4393   */\n      0x00\n        /* \"#utility.yul\":4395:4401   */\n      dup1\n        /* \"#utility.yul\":4403:4409   */\n      0x00\n        /* \"#utility.yul\":4411:4417   */\n      dup1\n        /* \"#utility.yul\":4464:4467   */\n      0x80\n        /* \"#utility.yul\":4452:4461   */\n      dup6\n        /* \"#utility.yul\":4443:4450   */\n      dup8\n        /* \"#utility.yul\":4439:4462   */\n      sub\n        /* \"#utility.yul\":4435:4468   */\n      slt\n        /* \"#utility.yul\":4432:4485   */\n      iszero\n      tag_362\n      jumpi\n        /* \"#utility.yul\":4481:4482   */\n      0x00\n        /* \"#utility.yul\":4478:4479   */\n      dup1\n        /* \"#utility.yul\":4471:4483   */\n      revert\n        /* \"#utility.yul\":4432:4485   */\n    tag_362:\n        /* \"#utility.yul\":4504:4533   */\n      tag_363\n        /* \"#utility.yul\":4523:4532   */\n      dup6\n        /* \"#utility.yul\":4504:4533   */\n      tag_319\n      jump\t// in\n    tag_363:\n        /* \"#utility.yul\":4494:4533   */\n      swap4\n      pop\n        /* \"#utility.yul\":4552:4590   */\n      tag_364\n        /* \"#utility.yul\":4586:4588   */\n      0x20\n        /* \"#utility.yul\":4575:4584   */\n      dup7\n        /* \"#utility.yul\":4571:4589   */\n      add\n        /* \"#utility.yul\":4552:4590   */\n      tag_319\n      jump\t// in\n    tag_364:\n        /* \"#utility.yul\":4542:4590   */\n      swap3\n      pop\n        /* \"#utility.yul\":4659:4661   */\n      0x40\n        /* \"#utility.yul\":4644:4662   */\n      dup6\n      add\n        /* \"#utility.yul\":4631:4663   */\n      calldataload\n      swap2\n      pop\n        /* \"#utility.yul\":4738:4740   */\n      0x60\n        /* \"#utility.yul\":4723:4741   */\n      dup6\n      add\n        /* \"#utility.yul\":4710:4742   */\n      calldataload\n        /* \"#utility.yul\":4765:4783   */\n      0xffffffffffffffff\n        /* \"#utility.yul\":4754:4784   */\n      dup2\n      gt\n        /* \"#utility.yul\":4751:4801   */\n      iszero\n      tag_365\n      jumpi\n        /* \"#utility.yul\":4797:4798   */\n      0x00\n        /* \"#utility.yul\":4794:4795   */\n      dup1\n        /* \"#utility.yul\":4787:4799   */\n      revert\n        /* \"#utility.yul\":4751:4801   */\n    tag_365:\n        /* \"#utility.yul\":4820:4842   */\n      dup6\n      add\n        /* \"#utility.yul\":4873:4877   */\n      0x1f\n        /* \"#utility.yul\":4865:4878   */\n      dup2\n      add\n        /* \"#utility.yul\":4861:4888   */\n      dup8\n      sgt\n        /* \"#utility.yul\":4851:4906   */\n      tag_366\n      jumpi\n        /* \"#utility.yul\":4902:4903   */\n      0x00\n        /* \"#utility.yul\":4899:4900   */\n      dup1\n        /* \"#utility.yul\":4892:4904   */\n      revert\n        /* \"#utility.yul\":4851:4906   */\n    tag_366:\n        /* \"#utility.yul\":4942:4944   */\n      dup1\n        /* \"#utility.yul\":4929:4945   */\n      calldataload\n        /* \"#utility.yul\":4968:4986   */\n      0xffffffffffffffff\n        /* \"#utility.yul\":4960:4966   */\n      dup2\n        /* \"#utility.yul\":4957:4987   */\n      gt\n        /* \"#utility.yul\":4954:5010   */\n      iszero\n      tag_368\n      jumpi\n        /* \"#utility.yul\":4990:5008   */\n      tag_368\n      tag_259\n      jump\t// in\n    tag_368:\n        /* \"#utility.yul\":5039:5041   */\n      0x40\n        /* \"#utility.yul\":5033:5042   */\n      mload\n        /* \"#utility.yul\":5131:5133   */\n      0x1f\n        /* \"#utility.yul\":5093:5110   */\n      dup3\n      add\n      not(0x1f)\n        /* \"#utility.yul\":5089:5120   */\n      swap1\n      dup2\n      and\n        /* \"#utility.yul\":5122:5124   */\n      0x3f\n        /* \"#utility.yul\":5085:5125   */\n      add\n        /* \"#utility.yul\":5081:5135   */\n      and\n        /* \"#utility.yul\":5069:5136   */\n      dup2\n      add\n        /* \"#utility.yul\":5166:5184   */\n      0xffffffffffffffff\n        /* \"#utility.yul\":5151:5185   */\n      dup2\n      gt\n        /* \"#utility.yul\":5187:5209   */\n      dup3\n      dup3\n      lt\n        /* \"#utility.yul\":5148:5210   */\n      or\n        /* \"#utility.yul\":5145:5233   */\n      iszero\n      tag_370\n      jumpi\n        /* \"#utility.yul\":5213:5231   */\n      tag_370\n      tag_259\n      jump\t// in\n    tag_370:\n        /* \"#utility.yul\":5249:5251   */\n      0x40\n        /* \"#utility.yul\":5242:5264   */\n      mstore\n        /* \"#utility.yul\":5273:5295   */\n      dup2\n      dup2\n      mstore\n        /* \"#utility.yul\":5314:5329   */\n      dup3\n      dup3\n      add\n        /* \"#utility.yul\":5331:5333   */\n      0x20\n        /* \"#utility.yul\":5310:5334   */\n      add\n        /* \"#utility.yul\":5307:5344   */\n      dup10\n      lt\n        /* \"#utility.yul\":5304:5361   */\n      iszero\n      tag_371\n      jumpi\n        /* \"#utility.yul\":5357:5358   */\n      0x00\n        /* \"#utility.yul\":5354:5355   */\n      dup1\n        /* \"#utility.yul\":5347:5359   */\n      revert\n        /* \"#utility.yul\":5304:5361   */\n    tag_371:\n        /* \"#utility.yul\":5413:5419   */\n      dup2\n        /* \"#utility.yul\":5408:5410   */\n      0x20\n        /* \"#utility.yul\":5404:5406   */\n      dup5\n        /* \"#utility.yul\":5400:5411   */\n      add\n        /* \"#utility.yul\":5395:5397   */\n      0x20\n        /* \"#utility.yul\":5387:5393   */\n      dup4\n        /* \"#utility.yul\":5383:5398   */\n      add\n        /* \"#utility.yul\":5370:5420   */\n      calldatacopy\n        /* \"#utility.yul\":5466:5467   */\n      0x00\n        /* \"#utility.yul\":5461:5463   */\n      0x20\n        /* \"#utility.yul\":5452:5458   */\n      dup4\n        /* \"#utility.yul\":5444:5450   */\n      dup4\n        /* \"#utility.yul\":5440:5459   */\n      add\n        /* \"#utility.yul\":5436:5464   */\n      add\n        /* \"#utility.yul\":5429:5468   */\n      mstore\n        /* \"#utility.yul\":5487:5493   */\n      dup1\n        /* \"#utility.yul\":5477:5493   */\n      swap4\n      pop\n      pop\n      pop\n      pop\n        /* \"#utility.yul\":4292:5499   */\n      swap3\n      swap6\n      swap2\n      swap5\n      pop\n      swap3\n      pop\n      jump\t// out\n        /* \"#utility.yul\":5504:5764   */\n    tag_96:\n        /* \"#utility.yul\":5572:5578   */\n      0x00\n        /* \"#utility.yul\":5580:5586   */\n      dup1\n        /* \"#utility.yul\":5633:5635   */\n      0x40\n        /* \"#utility.yul\":5621:5630   */\n      dup4\n        /* \"#utility.yul\":5612:5619   */\n      dup6\n        /* \"#utility.yul\":5608:5631   */\n      sub\n        /* \"#utility.yul\":5604:5636   */\n      slt\n        /* \"#utility.yul\":5601:5653   */\n      iszero\n      tag_373\n      jumpi\n        /* \"#utility.yul\":5649:5650   */\n      0x00\n        /* \"#utility.yul\":5646:5647   */\n      dup1\n        /* \"#utility.yul\":5639:5651   */\n      revert\n        /* \"#utility.yul\":5601:5653   */\n    tag_373:\n        /* \"#utility.yul\":5672:5701   */\n      tag_374\n        /* \"#utility.yul\":5691:5700   */\n      dup4\n        /* \"#utility.yul\":5672:5701   */\n      tag_319\n      jump\t// in\n    tag_374:\n        /* \"#utility.yul\":5662:5701   */\n      swap2\n      pop\n        /* \"#utility.yul\":5720:5758   */\n      tag_375\n        /* \"#utility.yul\":5754:5756   */\n      0x20\n        /* \"#utility.yul\":5743:5752   */\n      dup5\n        /* \"#utility.yul\":5739:5757   */\n      add\n        /* \"#utility.yul\":5720:5758   */\n      tag_319\n      jump\t// in\n    tag_375:\n        /* \"#utility.yul\":5710:5758   */\n      swap1\n      pop\n        /* \"#utility.yul\":5504:5764   */\n      swap3\n      pop\n      swap3\n      swap1\n      pop\n      jump\t// out\n        /* \"#utility.yul\":5769:6149   */\n    tag_113:\n        /* \"#utility.yul\":5848:5849   */\n      0x01\n        /* \"#utility.yul\":5844:5856   */\n      dup2\n      dup2\n      shr\n      swap1\n        /* \"#utility.yul\":5891:5903   */\n      dup3\n      and\n      dup1\n        /* \"#utility.yul\":5912:5973   */\n      tag_377\n      jumpi\n        /* \"#utility.yul\":5966:5970   */\n      0x7f\n        /* \"#utility.yul\":5958:5964   */\n      dup3\n        /* \"#utility.yul\":5954:5971   */\n      and\n        /* \"#utility.yul\":5944:5971   */\n      swap2\n      pop\n        /* \"#utility.yul\":5912:5973   */\n    tag_377:\n        /* \"#utility.yul\":6019:6021   */\n      0x20\n        /* \"#utility.yul\":6011:6017   */\n      dup3\n        /* \"#utility.yul\":6008:6022   */\n      lt\n        /* \"#utility.yul\":5988:6006   */\n      dup2\n        /* \"#utility.yul\":5985:6023   */\n      sub\n        /* \"#utility.yul\":5982:6143   */\n      tag_378\n      jumpi\n        /* \"#utility.yul\":6065:6075   */\n      0x4e487b71\n        /* \"#utility.yul\":6060:6063   */\n      0xe0\n        /* \"#utility.yul\":6056:6076   */\n      shl\n        /* \"#utility.yul\":6053:6054   */\n      0x00\n        /* \"#utility.yul\":6046:6077   */\n      mstore\n        /* \"#utility.yul\":6100:6104   */\n      0x22\n        /* \"#utility.yul\":6097:6098   */\n      0x04\n        /* \"#utility.yul\":6090:6105   */\n      mstore\n        /* \"#utility.yul\":6128:6132   */\n      0x24\n        /* \"#utility.yul\":6125:6126   */\n      0x00\n        /* \"#utility.yul\":6118:6133   */\n      revert\n        /* \"#utility.yul\":5982:6143   */\n    tag_378:\n      pop\n        /* \"#utility.yul\":5769:6149   */\n      swap2\n      swap1\n      pop\n      jump\t// out\n        /* \"#utility.yul\":6154:6281   */\n    tag_321:\n        /* \"#utility.yul\":6215:6225   */\n      0x4e487b71\n        /* \"#utility.yul\":6210:6213   */\n      0xe0\n        /* \"#utility.yul\":6206:6226   */\n      shl\n        /* \"#utility.yul\":6203:6204   */\n      0x00\n        /* \"#utility.yul\":6196:6227   */\n      mstore\n        /* \"#utility.yul\":6246:6250   */\n      0x11\n        /* \"#utility.yul\":6243:6244   */\n      0x04\n        /* \"#utility.yul\":6236:6251   */\n      mstore\n        /* \"#utility.yul\":6270:6274   */\n      0x24\n        /* \"#utility.yul\":6267:6268   */\n      0x00\n        /* \"#utility.yul\":6260:6275   */\n      revert\n        /* \"#utility.yul\":6286:6414   */\n    tag_130:\n        /* \"#utility.yul\":6353:6362   */\n      dup2\n      dup2\n      sub\n        /* \"#utility.yul\":6374:6385   */\n      dup2\n      dup2\n      gt\n        /* \"#utility.yul\":6371:6408   */\n      iszero\n      tag_103\n      jumpi\n        /* \"#utility.yul\":6388:6406   */\n      tag_103\n      tag_321\n      jump\t// in\n        /* \"#utility.yul\":6795:6963   */\n    tag_145:\n        /* \"#utility.yul\":6868:6877   */\n      dup1\n      dup3\n      mul\n        /* \"#utility.yul\":6899:6908   */\n      dup2\n      iszero\n        /* \"#utility.yul\":6916:6931   */\n      dup3\n      dup3\n      div\n        /* \"#utility.yul\":6910:6932   */\n      dup5\n      eq\n        /* \"#utility.yul\":6896:6933   */\n      or\n        /* \"#utility.yul\":6886:6957   */\n      tag_103\n      jumpi\n        /* \"#utility.yul\":6937:6955   */\n      tag_103\n      tag_321\n      jump\t// in\n        /* \"#utility.yul\":7100:7317   */\n    tag_147:\n        /* \"#utility.yul\":7140:7141   */\n      0x00\n        /* \"#utility.yul\":7166:7167   */\n      dup3\n        /* \"#utility.yul\":7156:7288   */\n      tag_389\n      jumpi\n        /* \"#utility.yul\":7210:7220   */\n      0x4e487b71\n        /* \"#utility.yul\":7205:7208   */\n      0xe0\n        /* \"#utility.yul\":7201:7221   */\n      shl\n        /* \"#utility.yul\":7198:7199   */\n      0x00\n        /* \"#utility.yul\":7191:7222   */\n      mstore\n        /* \"#utility.yul\":7245:7249   */\n      0x12\n        /* \"#utility.yul\":7242:7243   */\n      0x04\n        /* \"#utility.yul\":7235:7250   */\n      mstore\n        /* \"#utility.yul\":7273:7277   */\n      0x24\n        /* \"#utility.yul\":7270:7271   */\n      0x00\n        /* \"#utility.yul\":7263:7278   */\n      revert\n        /* \"#utility.yul\":7156:7288   */\n    tag_389:\n      pop\n        /* \"#utility.yul\":7302:7311   */\n      div\n      swap1\n        /* \"#utility.yul\":7100:7317   */\n      jump\t// out\n        /* \"#utility.yul\":7322:7534   */\n    tag_322:\n        /* \"#utility.yul\":7364:7367   */\n      0x00\n        /* \"#utility.yul\":7402:7407   */\n      dup2\n        /* \"#utility.yul\":7396:7408   */\n      mload\n        /* \"#utility.yul\":7446:7452   */\n      dup1\n        /* \"#utility.yul\":7439:7443   */\n      0x20\n        /* \"#utility.yul\":7432:7437   */\n      dup5\n        /* \"#utility.yul\":7428:7444   */\n      add\n        /* \"#utility.yul\":7423:7426   */\n      dup6\n        /* \"#utility.yul\":7417:7453   */\n      mcopy\n        /* \"#utility.yul\":7508:7509   */\n      0x00\n        /* \"#utility.yul\":7472:7488   */\n      swap4\n      add\n        /* \"#utility.yul\":7497:7510   */\n      swap3\n      dup4\n      mstore\n      pop\n        /* \"#utility.yul\":7472:7488   */\n      swap1\n      swap2\n        /* \"#utility.yul\":7322:7534   */\n      swap1\n      pop\n      jump\t// out\n        /* \"#utility.yul\":7539:7806   */\n    tag_184:\n        /* \"#utility.yul\":7718:7721   */\n      0x00\n        /* \"#utility.yul\":7743:7800   */\n      tag_316\n        /* \"#utility.yul\":7769:7799   */\n      tag_393\n        /* \"#utility.yul\":7795:7798   */\n      dup4\n        /* \"#utility.yul\":7787:7793   */\n      dup7\n        /* \"#utility.yul\":7769:7799   */\n      tag_322\n      jump\t// in\n    tag_393:\n        /* \"#utility.yul\":7761:7767   */\n      dup5\n        /* \"#utility.yul\":7743:7800   */\n      tag_322\n      jump\t// in\n        /* \"#utility.yul\":8096:8592   */\n    tag_237:\n      sub(shl(0xa0, 0x01), 0x01)\n        /* \"#utility.yul\":8327:8359   */\n      dup6\n      dup2\n      and\n        /* \"#utility.yul\":8309:8360   */\n      dup3\n      mstore\n        /* \"#utility.yul\":8396:8428   */\n      dup5\n      and\n        /* \"#utility.yul\":8391:8393   */\n      0x20\n        /* \"#utility.yul\":8376:8394   */\n      dup3\n      add\n        /* \"#utility.yul\":8369:8429   */\n      mstore\n        /* \"#utility.yul\":8460:8462   */\n      0x40\n        /* \"#utility.yul\":8445:8463   */\n      dup2\n      add\n        /* \"#utility.yul\":8438:8472   */\n      dup4\n      swap1\n      mstore\n        /* \"#utility.yul\":8508:8511   */\n      0x80\n        /* \"#utility.yul\":8503:8505   */\n      0x60\n        /* \"#utility.yul\":8488:8506   */\n      dup3\n      add\n        /* \"#utility.yul\":8481:8512   */\n      dup2\n      swap1\n      mstore\n      0x00\n      swap1\n        /* \"#utility.yul\":8529:8586   */\n      tag_396\n      swap1\n        /* \"#utility.yul\":8566:8585   */\n      dup4\n      add\n        /* \"#utility.yul\":8558:8564   */\n      dup5\n        /* \"#utility.yul\":8529:8586   */\n      tag_320\n      jump\t// in\n    tag_396:\n        /* \"#utility.yul\":8521:8586   */\n      swap7\n        /* \"#utility.yul\":8096:8592   */\n      swap6\n      pop\n      pop\n      pop\n      pop\n      pop\n      pop\n      jump\t// out\n        /* \"#utility.yul\":8597:8846   */\n    tag_240:\n        /* \"#utility.yul\":8666:8672   */\n      0x00\n        /* \"#utility.yul\":8719:8721   */\n      0x20\n        /* \"#utility.yul\":8707:8716   */\n      dup3\n        /* \"#utility.yul\":8698:8705   */\n      dup5\n        /* \"#utility.yul\":8694:8717   */\n      sub\n        /* \"#utility.yul\":8690:8722   */\n      slt\n        /* \"#utility.yul\":8687:8739   */\n      iszero\n      tag_398\n      jumpi\n        /* \"#utility.yul\":8735:8736   */\n      0x00\n        /* \"#utility.yul\":8732:8733   */\n      dup1\n        /* \"#utility.yul\":8725:8737   */\n      revert\n        /* \"#utility.yul\":8687:8739   */\n    tag_398:\n        /* \"#utility.yul\":8767:8776   */\n      dup2\n        /* \"#utility.yul\":8761:8777   */\n      mload\n        /* \"#utility.yul\":8786:8816   */\n      tag_180\n        /* \"#utility.yul\":8810:8815   */\n      dup2\n        /* \"#utility.yul\":8786:8816   */\n      tag_318\n      jump\t// in\n    stop\n    data_528dd67e901864c021e91bc02682ccaf0f079aa4e76798fe2da7da838db9c5cf 68747470733a2f2f697066732e66696c65626173652e696f2f697066732f516d586341317245656f5576634d6e4c5165464a76334c7655456558696a66426b714a6745354c434761394d41502f\n\n    auxdata: 0xa26469706673582212207565ff58153e7c7baee26d2076128fe672fa88556d2419c5e79891dc7efa8a4064736f6c634300081a0033\n}\n",
				"bytecode": {
					"linkReferences": {},
					"object": "60806040526001600955348015610014575f80fd5b50604051611d07380380611d078339810160408190526100339161081c565b336040518060400160405280600d81526020016c546f74616c2045636c6970736560981b8152506040518060400160405280600381526020016254454160e81b815250815f908161008491906108f9565b50600161009182826108f9565b5050506001600160a01b0381166100c257604051631e4fbdf760e01b81525f60048201526024015b60405180910390fd5b6100cb816100f5565b506100d68284610146565b6100e182600a61015c565b6100ed8282600161019c565b505050610a5f565b600680546001600160a01b038381166001600160a01b0319831681179093556040519116919082907f8be0079c531659141344cd1fd0a4f28419497f9722a3daafe3b4186f6b6457e0905f90a35050565b61014e61023a565b6101588282610269565b5050565b61016461023a565b5f5b8181101561019757600980545f918261017e836109b3565b90915550905061018e848261030b565b50600101610166565b505050565b6001600160a01b0382166101ce57604051630b61174360e31b81526001600160a01b03831660048201526024016100b9565b6001600160a01b038381165f81815260056020908152604080832094871680845294825291829020805460ff191686151590811790915591519182527f17307eab39ab6107e8899845ad3d59bd9653f200f220920489ca2b5937696c31910160405180910390a3505050565b6006546001600160a01b031633146102675760405163118cdaa760e01b81523360048201526024016100b9565b565b6127106001600160601b0382168110156102a857604051636f483d0960e01b81526001600160601b0383166004820152602481018290526044016100b9565b6001600160a01b0383166102d157604051635b6cc80560e11b81525f60048201526024016100b9565b50604080518082019091526001600160a01b039092168083526001600160601b039091166020909201829052600160a01b90910217600755565b610158828260405180602001604052805f81525061032a60201b60201c565b6103348383610340565b6101975f8484846103a1565b6001600160a01b03821661036957604051633250574960e11b81525f60048201526024016100b9565b5f6103758383836104c8565b90506001600160a01b03811615610197576040516339e3563760e11b81525f60048201526024016100b9565b6001600160a01b0383163b156104c257604051630a85bd0160e11b81526001600160a01b0384169063150b7a02906103e39033908890879087906004016109d7565b6020604051808303815f875af192505050801561041d575060408051601f3d908101601f1916820190925261041a91810190610a31565b60015b610484573d80801561044a576040519150601f19603f3d011682016040523d82523d5f602084013e61044f565b606091505b5080515f0361047c57604051633250574960e11b81526001600160a01b03851660048201526024016100b9565b805181602001fd5b6001600160e01b03198116630a85bd0160e11b146104c057604051633250574960e11b81526001600160a01b03851660048201526024016100b9565b505b50505050565b5f828152600260205260408120546001600160a01b03908116908316156104f4576104f48184866105ba565b6001600160a01b0381161561052e5761050f5f85818061061e565b6001600160a01b0381165f90815260036020526040902080545f190190555b6001600160a01b0385161561055c576001600160a01b0385165f908152600360205260409020805460010190555b5f8481526002602052604080822080546001600160a01b0319166001600160a01b0389811691821790925591518793918516917fddf252ad1be2c89b69c2b068fc378daa952ba7f163c4a11628f55a4df523b3ef91a4949350505050565b6105c5838383610740565b610197576001600160a01b0383166105f357604051637e27328960e01b8152600481018290526024016100b9565b60405163177e802f60e01b81526001600160a01b0383166004820152602481018290526044016100b9565b808061063257506001600160a01b03821615155b15610711575f610641846107c3565b90506001600160a01b0383161580159061066d5750826001600160a01b0316816001600160a01b031614155b801561069e57506001600160a01b038082165f9081526005602090815260408083209387168352929052205460ff16155b156106c75760405163a9fbf51f60e01b81526001600160a01b03841660048201526024016100b9565b811561070f5783856001600160a01b0316826001600160a01b03167f8c5be1e5ebec7d5bd14f71427d1e84f3dd0314c0f7b2291e5b200ac8c7c3b92560405160405180910390a45b505b50505f90815260046020526040902080546001600160a01b0319166001600160a01b0392909216919091179055565b5f6001600160a01b038316158015906107bb5750826001600160a01b0316846001600160a01b0316148061079857506001600160a01b038085165f9081526005602090815260408083209387168352929052205460ff165b806107bb57505f828152600460205260409020546001600160a01b038481169116145b949350505050565b5f818152600260205260408120546001600160a01b0316806107fb57604051637e27328960e01b8152600481018490526024016100b9565b92915050565b80516001600160a01b0381168114610817575f80fd5b919050565b5f805f6060848603121561082e575f80fd5b83516001600160601b0381168114610844575f80fd5b925061085260208501610801565b915061086060408501610801565b90509250925092565b634e487b7160e01b5f52604160045260245ffd5b600181811c9082168061089157607f821691505b6020821081036108af57634e487b7160e01b5f52602260045260245ffd5b50919050565b601f82111561019757805f5260205f20601f840160051c810160208510156108da5750805b601f840160051c820191505b818110156104c0575f81556001016108e6565b81516001600160401b0381111561091257610912610869565b61092681610920845461087d565b846108b5565b6020601f821160018114610958575f83156109415750848201515b5f19600385901b1c1916600184901b1784556104c0565b5f84815260208120601f198516915b828110156109875787850151825560209485019460019092019101610967565b50848210156109a457868401515f19600387901b60f8161c191681555b50505050600190811b01905550565b5f600182016109d057634e487b7160e01b5f52601160045260245ffd5b5060010190565b60018060a01b038516815260018060a01b0384166020820152826040820152608060608201525f8251806080840152806020850160a085015e5f60a0828501015260a0601f19601f83011684010191505095945050505050565b5f60208284031215610a41575f80fd5b81516001600160e01b031981168114610a58575f80fd5b9392505050565b61129b80610a6c5f395ff3fe608060405234801561000f575f80fd5b506004361061010d575f3560e01c80636352211e116100a9578063a22cb4651161006e578063a22cb4651461024b578063b88d4fde1461025e578063c87b56dd14610271578063e985e9c514610284578063f2fde38b14610297575f80fd5b80636352211e1461020457806370a0823114610217578063715018a61461022a5780638da5cb5b1461023257806395d89b4114610243575f80fd5b806301ffc9a71461011157806302fa7c471461013957806306fdde031461014e578063081812fc14610163578063095ea7b31461018357806318160ddd1461019657806323b872dd146101ac5780632a55205a146101bf57806342842e0e146101f1575b5f80fd5b61012461011f366004610e35565b6102aa565b60405190151581526020015b60405180910390f35b61014c610147366004610e6b565b6102ba565b005b6101566102d0565b6040516101309190610ed9565b610176610171366004610eeb565b61035f565b6040516101309190610f02565b61014c610191366004610f16565b610386565b61019e610391565b604051908152602001610130565b61014c6101ba366004610f3e565b6103a6565b6101d26101cd366004610f78565b610438565b604080516001600160a01b039093168352602083019190915201610130565b61014c6101ff366004610f3e565b6104e2565b610176610212366004610eeb565b610501565b61019e610225366004610f98565b61050b565b61014c610550565b6006546001600160a01b0316610176565b610156610563565b61014c610259366004610fb1565b610572565b61014c61026c366004610ff3565b61057d565b61015661027f366004610eeb565b610594565b6101246102923660046110d0565b6105f9565b61014c6102a5366004610f98565b610626565b5f6102b482610663565b92915050565b6102c2610687565b6102cc82826106b4565b5050565b60605f80546102de90611101565b80601f016020809104026020016040519081016040528092919081815260200182805461030a90611101565b80156103555780601f1061032c57610100808354040283529160200191610355565b820191905f5260205f20905b81548152906001019060200180831161033857829003601f168201915b5050505050905090565b5f61036982610756565b505f828152600460205260409020546001600160a01b03166102b4565b6102cc82823361078e565b5f60016009546103a1919061114d565b905090565b6001600160a01b0382166103d8575f604051633250574960e11b81526004016103cf9190610f02565b60405180910390fd5b5f6103e483833361079b565b9050836001600160a01b0316816001600160a01b031614610432576040516364283d7b60e01b81526001600160a01b03808616600483015260248201849052821660448201526064016103cf565b50505050565b5f8281526008602090815260408083208151808301909252546001600160a01b038116808352600160a01b9091046001600160601b03169282019290925282916104ac5750604080518082019091526007546001600160a01b0381168252600160a01b90046001600160601b031660208201525b60208101515f90612710906104ca906001600160601b031687611160565b6104d49190611177565b915196919550909350505050565b6104fc83838360405180602001604052805f81525061057d565b505050565b5f6102b482610756565b5f6001600160a01b038216610535575f6040516322718ad960e21b81526004016103cf9190610f02565b506001600160a01b03165f9081526003602052604090205490565b610558610687565b6105615f61088d565b565b6060600180546102de90611101565b6102cc3383836108de565b6105888484846103a6565b61043284848484610973565b606061059f82610756565b505f6105a9610a87565b90505f8151116105c75760405180602001604052805f8152506105f2565b806105d184610aa7565b6040516020016105e29291906111ad565b6040516020818303038152906040525b9392505050565b6001600160a01b039182165f90815260056020908152604080832093909416825291909152205460ff1690565b61062e610687565b6001600160a01b038116610657575f604051631e4fbdf760e01b81526004016103cf9190610f02565b6106608161088d565b50565b5f6001600160e01b0319821663152a902d60e11b14806102b457506102b482610b37565b6006546001600160a01b03163314610561573360405163118cdaa760e01b81526004016103cf9190610f02565b6127106001600160601b0382168110156106f357604051636f483d0960e01b81526001600160601b0383166004820152602481018290526044016103cf565b6001600160a01b03831661071c575f604051635b6cc80560e11b81526004016103cf9190610f02565b50604080518082019091526001600160a01b039092168083526001600160601b039091166020909201829052600160a01b90910217600755565b5f818152600260205260408120546001600160a01b0316806102b457604051637e27328960e01b8152600481018490526024016103cf565b6104fc8383836001610b86565b5f828152600260205260408120546001600160a01b03908116908316156107c7576107c7818486610c81565b6001600160a01b03811615610801576107e25f855f80610b86565b6001600160a01b0381165f90815260036020526040902080545f190190555b6001600160a01b0385161561082f576001600160a01b0385165f908152600360205260409020805460010190555b5f8481526002602052604080822080546001600160a01b0319166001600160a01b0389811691821790925591518793918516917fddf252ad1be2c89b69c2b068fc378daa952ba7f163c4a11628f55a4df523b3ef91a4949350505050565b600680546001600160a01b038381166001600160a01b0319831681179093556040519116919082907f8be0079c531659141344cd1fd0a4f28419497f9722a3daafe3b4186f6b6457e0905f90a35050565b6001600160a01b0382166109075781604051630b61174360e31b81526004016103cf9190610f02565b6001600160a01b038381165f81815260056020908152604080832094871680845294825291829020805460ff191686151590811790915591519182527f17307eab39ab6107e8899845ad3d59bd9653f200f220920489ca2b5937696c31910160405180910390a3505050565b6001600160a01b0383163b1561043257604051630a85bd0160e11b81526001600160a01b0384169063150b7a02906109b59033908890879087906004016111c1565b6020604051808303815f875af19250505080156109ef575060408051601f3d908101601f191682019092526109ec918101906111fd565b60015b610a4d573d808015610a1c576040519150601f19603f3d011682016040523d82523d5f602084013e610a21565b606091505b5080515f03610a455783604051633250574960e11b81526004016103cf9190610f02565b805181602001fd5b6001600160e01b03198116630a85bd0160e11b14610a805783604051633250574960e11b81526004016103cf9190610f02565b5050505050565b60606040518060800160405280604d8152602001611219604d9139905090565b60605f610ab383610ce5565b60010190505f8167ffffffffffffffff811115610ad257610ad2610fdf565b6040519080825280601f01601f191660200182016040528015610afc576020820181803683370190505b5090508181016020015b5f19016f181899199a1a9b1b9c1cb0b131b232b360811b600a86061a8153600a8504945084610b0657509392505050565b5f6001600160e01b031982166380ac58cd60e01b1480610b6757506001600160e01b03198216635b5e139f60e01b145b806102b457506301ffc9a760e01b6001600160e01b03198316146102b4565b8080610b9a57506001600160a01b03821615155b15610c52575f610ba984610756565b90506001600160a01b03831615801590610bd55750826001600160a01b0316816001600160a01b031614155b8015610be85750610be681846105f9565b155b15610c08578260405163a9fbf51f60e01b81526004016103cf9190610f02565b8115610c505783856001600160a01b0316826001600160a01b03167f8c5be1e5ebec7d5bd14f71427d1e84f3dd0314c0f7b2291e5b200ac8c7c3b92560405160405180910390a45b505b50505f90815260046020526040902080546001600160a01b0319166001600160a01b0392909216919091179055565b610c8c838383610dbc565b6104fc576001600160a01b038316610cba57604051637e27328960e01b8152600481018290526024016103cf565b60405163177e802f60e01b81526001600160a01b0383166004820152602481018290526044016103cf565b5f8072184f03e93ff9f4daa797ed6e38ed64bf6a1f0160401b8310610d235772184f03e93ff9f4daa797ed6e38ed64bf6a1f0160401b830492506040015b6d04ee2d6d415b85acef81000000008310610d4f576d04ee2d6d415b85acef8100000000830492506020015b662386f26fc100008310610d6d57662386f26fc10000830492506010015b6305f5e1008310610d85576305f5e100830492506008015b6127108310610d9957612710830492506004015b60648310610dab576064830492506002015b600a83106102b45760010192915050565b5f6001600160a01b03831615801590610e185750826001600160a01b0316846001600160a01b03161480610df55750610df584846105f9565b80610e1857505f828152600460205260409020546001600160a01b038481169116145b949350505050565b6001600160e01b031981168114610660575f80fd5b5f60208284031215610e45575f80fd5b81356105f281610e20565b80356001600160a01b0381168114610e66575f80fd5b919050565b5f8060408385031215610e7c575f80fd5b610e8583610e50565b915060208301356001600160601b0381168114610ea0575f80fd5b809150509250929050565b5f81518084528060208401602086015e5f602082860101526020601f19601f83011685010191505092915050565b602081525f6105f26020830184610eab565b5f60208284031215610efb575f80fd5b5035919050565b6001600160a01b0391909116815260200190565b5f8060408385031215610f27575f80fd5b610f3083610e50565b946020939093013593505050565b5f805f60608486031215610f50575f80fd5b610f5984610e50565b9250610f6760208501610e50565b929592945050506040919091013590565b5f8060408385031215610f89575f80fd5b50508035926020909101359150565b5f60208284031215610fa8575f80fd5b6105f282610e50565b5f8060408385031215610fc2575f80fd5b610fcb83610e50565b915060208301358015158114610ea0575f80fd5b634e487b7160e01b5f52604160045260245ffd5b5f805f8060808587031215611006575f80fd5b61100f85610e50565b935061101d60208601610e50565b925060408501359150606085013567ffffffffffffffff81111561103f575f80fd5b8501601f8101871361104f575f80fd5b803567ffffffffffffffff81111561106957611069610fdf565b604051601f8201601f19908116603f0116810167ffffffffffffffff8111828210171561109857611098610fdf565b6040528181528282016020018910156110af575f80fd5b816020840160208301375f6020838301015280935050505092959194509250565b5f80604083850312156110e1575f80fd5b6110ea83610e50565b91506110f860208401610e50565b90509250929050565b600181811c9082168061111557607f821691505b60208210810361113357634e487b7160e01b5f52602260045260245ffd5b50919050565b634e487b7160e01b5f52601160045260245ffd5b818103818111156102b4576102b4611139565b80820281158282048414176102b4576102b4611139565b5f8261119157634e487b7160e01b5f52601260045260245ffd5b500490565b5f81518060208401855e5f93019283525090919050565b5f610e186111bb8386611196565b84611196565b6001600160a01b03858116825284166020820152604081018390526080606082018190525f906111f390830184610eab565b9695505050505050565b5f6020828403121561120d575f80fd5b81516105f281610e2056fe68747470733a2f2f697066732e66696c65626173652e696f2f697066732f516d586341317245656f5576634d6e4c5165464a76334c7655456558696a66426b714a6745354c434761394d41502fa26469706673582212207565ff58153e7c7baee26d2076128fe672fa88556d2419c5e79891dc7efa8a4064736f6c634300081a0033",
					"opcodes": "PUSH1 0x80 PUSH1 0x40 MSTORE PUSH1 0x1 PUSH1 0x9 SSTORE CALLVALUE DUP1 ISZERO PUSH2 0x14 JUMPI PUSH0 DUP1 REVERT JUMPDEST POP PUSH1 0x40 MLOAD PUSH2 0x1D07 CODESIZE SUB DUP1 PUSH2 0x1D07 DUP4 CODECOPY DUP2 ADD PUSH1 0x40 DUP2 SWAP1 MSTORE PUSH2 0x33 SWAP2 PUSH2 0x81C JUMP JUMPDEST CALLER PUSH1 0x40 MLOAD DUP1 PUSH1 0x40 ADD PUSH1 0x40 MSTORE DUP1 PUSH1 0xD DUP2 MSTORE PUSH1 0x20 ADD PUSH13 0x546F74616C2045636C69707365 PUSH1 0x98 SHL DUP2 MSTORE POP PUSH1 0x40 MLOAD DUP1 PUSH1 0x40 ADD PUSH1 0x40 MSTORE DUP1 PUSH1 0x3 DUP2 MSTORE PUSH1 0x20 ADD PUSH3 0x544541 PUSH1 0xE8 SHL DUP2 MSTORE POP DUP2 PUSH0 SWAP1 DUP2 PUSH2 0x84 SWAP2 SWAP1 PUSH2 0x8F9 JUMP JUMPDEST POP PUSH1 0x1 PUSH2 0x91 DUP3 DUP3 PUSH2 0x8F9 JUMP JUMPDEST POP POP POP PUSH1 0x1 PUSH1 0x1 PUSH1 0xA0 SHL SUB DUP2 AND PUSH2 0xC2 JUMPI PUSH1 0x40 MLOAD PUSH4 0x1E4FBDF7 PUSH1 0xE0 SHL DUP2 MSTORE PUSH0 PUSH1 0x4 DUP3 ADD MSTORE PUSH1 0x24 ADD JUMPDEST PUSH1 0x40 MLOAD DUP1 SWAP2 SUB SWAP1 REVERT JUMPDEST PUSH2 0xCB DUP2 PUSH2 0xF5 JUMP JUMPDEST POP PUSH2 0xD6 DUP3 DUP5 PUSH2 0x146 JUMP JUMPDEST PUSH2 0xE1 DUP3 PUSH1 0xA PUSH2 0x15C JUMP JUMPDEST PUSH2 0xED DUP3 DUP3 PUSH1 0x1 PUSH2 0x19C JUMP JUMPDEST POP POP POP PUSH2 0xA5F JUMP JUMPDEST PUSH1 0x6 DUP1 SLOAD PUSH1 0x1 PUSH1 0x1 PUSH1 0xA0 SHL SUB DUP4 DUP2 AND PUSH1 0x1 PUSH1 0x1 PUSH1 0xA0 SHL SUB NOT DUP4 AND DUP2 OR SWAP1 SWAP4 SSTORE PUSH1 0x40 MLOAD SWAP2 AND SWAP2 SWAP1 DUP3 SWAP1 PUSH32 0x8BE0079C531659141344CD1FD0A4F28419497F9722A3DAAFE3B4186F6B6457E0 SWAP1 PUSH0 SWAP1 LOG3 POP POP JUMP JUMPDEST PUSH2 0x14E PUSH2 0x23A JUMP JUMPDEST PUSH2 0x158 DUP3 DUP3 PUSH2 0x269 JUMP JUMPDEST POP POP JUMP JUMPDEST PUSH2 0x164 PUSH2 0x23A JUMP JUMPDEST PUSH0 JUMPDEST DUP2 DUP2 LT ISZERO PUSH2 0x197 JUMPI PUSH1 0x9 DUP1 SLOAD PUSH0 SWAP2 DUP3 PUSH2 0x17E DUP4 PUSH2 0x9B3 JUMP JUMPDEST SWAP1 SWAP2 SSTORE POP SWAP1 POP PUSH2 0x18E DUP5 DUP3 PUSH2 0x30B JUMP JUMPDEST POP PUSH1 0x1 ADD PUSH2 0x166 JUMP JUMPDEST POP POP POP JUMP JUMPDEST PUSH1 0x1 PUSH1 0x1 PUSH1 0xA0 SHL SUB DUP3 AND PUSH2 0x1CE JUMPI PUSH1 0x40 MLOAD PUSH4 0xB611743 PUSH1 0xE3 SHL DUP2 MSTORE PUSH1 0x1 PUSH1 0x1 PUSH1 0xA0 SHL SUB DUP4 AND PUSH1 0x4 DUP3 ADD MSTORE PUSH1 0x24 ADD PUSH2 0xB9 JUMP JUMPDEST PUSH1 0x1 PUSH1 0x1 PUSH1 0xA0 SHL SUB DUP4 DUP2 AND PUSH0 DUP2 DUP2 MSTORE PUSH1 0x5 PUSH1 0x20 SWAP1 DUP2 MSTORE PUSH1 0x40 DUP1 DUP4 KECCAK256 SWAP5 DUP8 AND DUP1 DUP5 MSTORE SWAP5 DUP3 MSTORE SWAP2 DUP3 SWAP1 KECCAK256 DUP1 SLOAD PUSH1 0xFF NOT AND DUP7 ISZERO ISZERO SWAP1 DUP2 OR SWAP1 SWAP2 SSTORE SWAP2 MLOAD SWAP2 DUP3 MSTORE PUSH32 0x17307EAB39AB6107E8899845AD3D59BD9653F200F220920489CA2B5937696C31 SWAP2 ADD PUSH1 0x40 MLOAD DUP1 SWAP2 SUB SWAP1 LOG3 POP POP POP JUMP JUMPDEST PUSH1 0x6 SLOAD PUSH1 0x1 PUSH1 0x1 PUSH1 0xA0 SHL SUB AND CALLER EQ PUSH2 0x267 JUMPI PUSH1 0x40 MLOAD PUSH4 0x118CDAA7 PUSH1 0xE0 SHL DUP2 MSTORE CALLER PUSH1 0x4 DUP3 ADD MSTORE PUSH1 0x24 ADD PUSH2 0xB9 JUMP JUMPDEST JUMP JUMPDEST PUSH2 0x2710 PUSH1 0x1 PUSH1 0x1 PUSH1 0x60 SHL SUB DUP3 AND DUP2 LT ISZERO PUSH2 0x2A8 JUMPI PUSH1 0x40 MLOAD PUSH4 0x6F483D09 PUSH1 0xE0 SHL DUP2 MSTORE PUSH1 0x1 PUSH1 0x1 PUSH1 0x60 SHL SUB DUP4 AND PUSH1 0x4 DUP3 ADD MSTORE PUSH1 0x24 DUP2 ADD DUP3 SWAP1 MSTORE PUSH1 0x44 ADD PUSH2 0xB9 JUMP JUMPDEST PUSH1 0x1 PUSH1 0x1 PUSH1 0xA0 SHL SUB DUP4 AND PUSH2 0x2D1 JUMPI PUSH1 0x40 MLOAD PUSH4 0x5B6CC805 PUSH1 0xE1 SHL DUP2 MSTORE PUSH0 PUSH1 0x4 DUP3 ADD MSTORE PUSH1 0x24 ADD PUSH2 0xB9 JUMP JUMPDEST POP PUSH1 0x40 DUP1 MLOAD DUP1 DUP3 ADD SWAP1 SWAP2 MSTORE PUSH1 0x1 PUSH1 0x1 PUSH1 0xA0 SHL SUB SWAP1 SWAP3 AND DUP1 DUP4 MSTORE PUSH1 0x1 PUSH1 0x1 PUSH1 0x60 SHL SUB SWAP1 SWAP2 AND PUSH1 0x20 SWAP1 SWAP3 ADD DUP3 SWAP1 MSTORE PUSH1 0x1 PUSH1 0xA0 SHL SWAP1 SWAP2 MUL OR PUSH1 0x7 SSTORE JUMP JUMPDEST PUSH2 0x158 DUP3 DUP3 PUSH1 0x40 MLOAD DUP1 PUSH1 0x20 ADD PUSH1 0x40 MSTORE DUP1 PUSH0 DUP2 MSTORE POP PUSH2 0x32A PUSH1 0x20 SHL PUSH1 0x20 SHR JUMP JUMPDEST PUSH2 0x334 DUP4 DUP4 PUSH2 0x340 JUMP JUMPDEST PUSH2 0x197 PUSH0 DUP5 DUP5 DUP5 PUSH2 0x3A1 JUMP JUMPDEST PUSH1 0x1 PUSH1 0x1 PUSH1 0xA0 SHL SUB DUP3 AND PUSH2 0x369 JUMPI PUSH1 0x40 MLOAD PUSH4 0x32505749 PUSH1 0xE1 SHL DUP2 MSTORE PUSH0 PUSH1 0x4 DUP3 ADD MSTORE PUSH1 0x24 ADD PUSH2 0xB9 JUMP JUMPDEST PUSH0 PUSH2 0x375 DUP4 DUP4 DUP4 PUSH2 0x4C8 JUMP JUMPDEST SWAP1 POP PUSH1 0x1 PUSH1 0x1 PUSH1 0xA0 SHL SUB DUP2 AND ISZERO PUSH2 0x197 JUMPI PUSH1 0x40 MLOAD PUSH4 0x39E35637 PUSH1 0xE1 SHL DUP2 MSTORE PUSH0 PUSH1 0x4 DUP3 ADD MSTORE PUSH1 0x24 ADD PUSH2 0xB9 JUMP JUMPDEST PUSH1 0x1 PUSH1 0x1 PUSH1 0xA0 SHL SUB DUP4 AND EXTCODESIZE ISZERO PUSH2 0x4C2 JUMPI PUSH1 0x40 MLOAD PUSH4 0xA85BD01 PUSH1 0xE1 SHL DUP2 MSTORE PUSH1 0x1 PUSH1 0x1 PUSH1 0xA0 SHL SUB DUP5 AND SWAP1 PUSH4 0x150B7A02 SWAP1 PUSH2 0x3E3 SWAP1 CALLER SWAP1 DUP9 SWAP1 DUP8 SWAP1 DUP8 SWAP1 PUSH1 0x4 ADD PUSH2 0x9D7 JUMP JUMPDEST PUSH1 0x20 PUSH1 0x40 MLOAD DUP1 DUP4 SUB DUP2 PUSH0 DUP8 GAS CALL SWAP3 POP POP POP DUP1 ISZERO PUSH2 0x41D JUMPI POP PUSH1 0x40 DUP1 MLOAD PUSH1 0x1F RETURNDATASIZE SWAP1 DUP2 ADD PUSH1 0x1F NOT AND DUP3 ADD SWAP1 SWAP3 MSTORE PUSH2 0x41A SWAP2 DUP2 ADD SWAP1 PUSH2 0xA31 JUMP JUMPDEST PUSH1 0x1 JUMPDEST PUSH2 0x484 JUMPI RETURNDATASIZE DUP1 DUP1 ISZERO PUSH2 0x44A JUMPI PUSH1 0x40 MLOAD SWAP2 POP PUSH1 0x1F NOT PUSH1 0x3F RETURNDATASIZE ADD AND DUP3 ADD PUSH1 0x40 MSTORE RETURNDATASIZE DUP3 MSTORE RETURNDATASIZE PUSH0 PUSH1 0x20 DUP5 ADD RETURNDATACOPY PUSH2 0x44F JUMP JUMPDEST PUSH1 0x60 SWAP2 POP JUMPDEST POP DUP1 MLOAD PUSH0 SUB PUSH2 0x47C JUMPI PUSH1 0x40 MLOAD PUSH4 0x32505749 PUSH1 0xE1 SHL DUP2 MSTORE PUSH1 0x1 PUSH1 0x1 PUSH1 0xA0 SHL SUB DUP6 AND PUSH1 0x4 DUP3 ADD MSTORE PUSH1 0x24 ADD PUSH2 0xB9 JUMP JUMPDEST DUP1 MLOAD DUP2 PUSH1 0x20 ADD REVERT JUMPDEST PUSH1 0x1 PUSH1 0x1 PUSH1 0xE0 SHL SUB NOT DUP2 AND PUSH4 0xA85BD01 PUSH1 0xE1 SHL EQ PUSH2 0x4C0 JUMPI PUSH1 0x40 MLOAD PUSH4 0x32505749 PUSH1 0xE1 SHL DUP2 MSTORE PUSH1 0x1 PUSH1 0x1 PUSH1 0xA0 SHL SUB DUP6 AND PUSH1 0x4 DUP3 ADD MSTORE PUSH1 0x24 ADD PUSH2 0xB9 JUMP JUMPDEST POP JUMPDEST POP POP POP POP JUMP JUMPDEST PUSH0 DUP3 DUP2 MSTORE PUSH1 0x2 PUSH1 0x20 MSTORE PUSH1 0x40 DUP2 KECCAK256 SLOAD PUSH1 0x1 PUSH1 0x1 PUSH1 0xA0 SHL SUB SWAP1 DUP2 AND SWAP1 DUP4 AND ISZERO PUSH2 0x4F4 JUMPI PUSH2 0x4F4 DUP2 DUP5 DUP7 PUSH2 0x5BA JUMP JUMPDEST PUSH1 0x1 PUSH1 0x1 PUSH1 0xA0 SHL SUB DUP2 AND ISZERO PUSH2 0x52E JUMPI PUSH2 0x50F PUSH0 DUP6 DUP2 DUP1 PUSH2 0x61E JUMP JUMPDEST PUSH1 0x1 PUSH1 0x1 PUSH1 0xA0 SHL SUB DUP2 AND PUSH0 SWAP1 DUP2 MSTORE PUSH1 0x3 PUSH1 0x20 MSTORE PUSH1 0x40 SWAP1 KECCAK256 DUP1 SLOAD PUSH0 NOT ADD SWAP1 SSTORE JUMPDEST PUSH1 0x1 PUSH1 0x1 PUSH1 0xA0 SHL SUB DUP6 AND ISZERO PUSH2 0x55C JUMPI PUSH1 0x1 PUSH1 0x1 PUSH1 0xA0 SHL SUB DUP6 AND PUSH0 SWAP1 DUP2 MSTORE PUSH1 0x3 PUSH1 0x20 MSTORE PUSH1 0x40 SWAP1 KECCAK256 DUP1 SLOAD PUSH1 0x1 ADD SWAP1 SSTORE JUMPDEST PUSH0 DUP5 DUP2 MSTORE PUSH1 0x2 PUSH1 0x20 MSTORE PUSH1 0x40 DUP1 DUP3 KECCAK256 DUP1 SLOAD PUSH1 0x1 PUSH1 0x1 PUSH1 0xA0 SHL SUB NOT AND PUSH1 0x1 PUSH1 0x1 PUSH1 0xA0 SHL SUB DUP10 DUP2 AND SWAP2 DUP3 OR SWAP1 SWAP3 SSTORE SWAP2 MLOAD DUP8 SWAP4 SWAP2 DUP6 AND SWAP2 PUSH32 0xDDF252AD1BE2C89B69C2B068FC378DAA952BA7F163C4A11628F55A4DF523B3EF SWAP2 LOG4 SWAP5 SWAP4 POP POP POP POP JUMP JUMPDEST PUSH2 0x5C5 DUP4 DUP4 DUP4 PUSH2 0x740 JUMP JUMPDEST PUSH2 0x197 JUMPI PUSH1 0x1 PUSH1 0x1 PUSH1 0xA0 SHL SUB DUP4 AND PUSH2 0x5F3 JUMPI PUSH1 0x40 MLOAD PUSH4 0x7E273289 PUSH1 0xE0 SHL DUP2 MSTORE PUSH1 0x4 DUP2 ADD DUP3 SWAP1 MSTORE PUSH1 0x24 ADD PUSH2 0xB9 JUMP JUMPDEST PUSH1 0x40 MLOAD PUSH4 0x177E802F PUSH1 0xE0 SHL DUP2 MSTORE PUSH1 0x1 PUSH1 0x1 PUSH1 0xA0 SHL SUB DUP4 AND PUSH1 0x4 DUP3 ADD MSTORE PUSH1 0x24 DUP2 ADD DUP3 SWAP1 MSTORE PUSH1 0x44 ADD PUSH2 0xB9 JUMP JUMPDEST DUP1 DUP1 PUSH2 0x632 JUMPI POP PUSH1 0x1 PUSH1 0x1 PUSH1 0xA0 SHL SUB DUP3 AND ISZERO ISZERO JUMPDEST ISZERO PUSH2 0x711 JUMPI PUSH0 PUSH2 0x641 DUP5 PUSH2 0x7C3 JUMP JUMPDEST SWAP1 POP PUSH1 0x1 PUSH1 0x1 PUSH1 0xA0 SHL SUB DUP4 AND ISZERO DUP1 ISZERO SWAP1 PUSH2 0x66D JUMPI POP DUP3 PUSH1 0x1 PUSH1 0x1 PUSH1 0xA0 SHL SUB AND DUP2 PUSH1 0x1 PUSH1 0x1 PUSH1 0xA0 SHL SUB AND EQ ISZERO JUMPDEST DUP1 ISZERO PUSH2 0x69E JUMPI POP PUSH1 0x1 PUSH1 0x1 PUSH1 0xA0 SHL SUB DUP1 DUP3 AND PUSH0 SWAP1 DUP2 MSTORE PUSH1 0x5 PUSH1 0x20 SWAP1 DUP2 MSTORE PUSH1 0x40 DUP1 DUP4 KECCAK256 SWAP4 DUP8 AND DUP4 MSTORE SWAP3 SWAP1 MSTORE KECCAK256 SLOAD PUSH1 0xFF AND ISZERO JUMPDEST ISZERO PUSH2 0x6C7 JUMPI PUSH1 0x40 MLOAD PUSH4 0xA9FBF51F PUSH1 0xE0 SHL DUP2 MSTORE PUSH1 0x1 PUSH1 0x1 PUSH1 0xA0 SHL SUB DUP5 AND PUSH1 0x4 DUP3 ADD MSTORE PUSH1 0x24 ADD PUSH2 0xB9 JUMP JUMPDEST DUP2 ISZERO PUSH2 0x70F JUMPI DUP4 DUP6 PUSH1 0x1 PUSH1 0x1 PUSH1 0xA0 SHL SUB AND DUP3 PUSH1 0x1 PUSH1 0x1 PUSH1 0xA0 SHL SUB AND PUSH32 0x8C5BE1E5EBEC7D5BD14F71427D1E84F3DD0314C0F7B2291E5B200AC8C7C3B925 PUSH1 0x40 MLOAD PUSH1 0x40 MLOAD DUP1 SWAP2 SUB SWAP1 LOG4 JUMPDEST POP JUMPDEST POP POP PUSH0 SWAP1 DUP2 MSTORE PUSH1 0x4 PUSH1 0x20 MSTORE PUSH1 0x40 SWAP1 KECCAK256 DUP1 SLOAD PUSH1 0x1 PUSH1 0x1 PUSH1 0xA0 SHL SUB NOT AND PUSH1 0x1 PUSH1 0x1 PUSH1 0xA0 SHL SUB SWAP3 SWAP1 SWAP3 AND SWAP2 SWAP1 SWAP2 OR SWAP1 SSTORE JUMP JUMPDEST PUSH0 PUSH1 0x1 PUSH1 0x1 PUSH1 0xA0 SHL SUB DUP4 AND ISZERO DUP1 ISZERO SWAP1 PUSH2 0x7BB JUMPI POP DUP3 PUSH1 0x1 PUSH1 0x1 PUSH1 0xA0 SHL SUB AND DUP5 PUSH1 0x1 PUSH1 0x1 PUSH1 0xA0 SHL SUB AND EQ DUP1 PUSH2 0x798 JUMPI POP PUSH1 0x1 PUSH1 0x1 PUSH1 0xA0 SHL SUB DUP1 DUP6 AND PUSH0 SWAP1 DUP2 MSTORE PUSH1 0x5 PUSH1 0x20 SWAP1 DUP2 MSTORE PUSH1 0x40 DUP1 DUP4 KECCAK256 SWAP4 DUP8 AND DUP4 MSTORE SWAP3 SWAP1 MSTORE KECCAK256 SLOAD PUSH1 0xFF AND JUMPDEST DUP1 PUSH2 0x7BB JUMPI POP PUSH0 DUP3 DUP2 MSTORE PUSH1 0x4 PUSH1 0x20 MSTORE PUSH1 0x40 SWAP1 KECCAK256 SLOAD PUSH1 0x1 PUSH1 0x1 PUSH1 0xA0 SHL SUB DUP5 DUP2 AND SWAP2 AND EQ JUMPDEST SWAP5 SWAP4 POP POP POP POP JUMP JUMPDEST PUSH0 DUP2 DUP2 MSTORE PUSH1 0x2 PUSH1 0x20 MSTORE PUSH1 0x40 DUP2 KECCAK256 SLOAD PUSH1 0x1 PUSH1 0x1 PUSH1 0xA0 SHL SUB AND DUP1 PUSH2 0x7FB JUMPI PUSH1 0x40 MLOAD PUSH4 0x7E273289 PUSH1 0xE0 SHL DUP2 MSTORE PUSH1 0x4 DUP2 ADD DUP5 SWAP1 MSTORE PUSH1 0x24 ADD PUSH2 0xB9 JUMP JUMPDEST SWAP3 SWAP2 POP POP JUMP JUMPDEST DUP1 MLOAD PUSH1 0x1 PUSH1 0x1 PUSH1 0xA0 SHL SUB DUP2 AND DUP2 EQ PUSH2 0x817 JUMPI PUSH0 DUP1 REVERT JUMPDEST SWAP2 SWAP1 POP JUMP JUMPDEST PUSH0 DUP1 PUSH0 PUSH1 0x60 DUP5 DUP7 SUB SLT ISZERO PUSH2 0x82E JUMPI PUSH0 DUP1 REVERT JUMPDEST DUP4 MLOAD PUSH1 0x1 PUSH1 0x1 PUSH1 0x60 SHL SUB DUP2 AND DUP2 EQ PUSH2 0x844 JUMPI PUSH0 DUP1 REVERT JUMPDEST SWAP3 POP PUSH2 0x852 PUSH1 0x20 DUP6 ADD PUSH2 0x801 JUMP JUMPDEST SWAP2 POP PUSH2 0x860 PUSH1 0x40 DUP6 ADD PUSH2 0x801 JUMP JUMPDEST SWAP1 POP SWAP3 POP SWAP3 POP SWAP3 JUMP JUMPDEST PUSH4 0x4E487B71 PUSH1 0xE0 SHL PUSH0 MSTORE PUSH1 0x41 PUSH1 0x4 MSTORE PUSH1 0x24 PUSH0 REVERT JUMPDEST PUSH1 0x1 DUP2 DUP2 SHR SWAP1 DUP3 AND DUP1 PUSH2 0x891 JUMPI PUSH1 0x7F DUP3 AND SWAP2 POP JUMPDEST PUSH1 0x20 DUP3 LT DUP2 SUB PUSH2 0x8AF JUMPI PUSH4 0x4E487B71 PUSH1 0xE0 SHL PUSH0 MSTORE PUSH1 0x22 PUSH1 0x4 MSTORE PUSH1 0x24 PUSH0 REVERT JUMPDEST POP SWAP2 SWAP1 POP JUMP JUMPDEST PUSH1 0x1F DUP3 GT ISZERO PUSH2 0x197 JUMPI DUP1 PUSH0 MSTORE PUSH1 0x20 PUSH0 KECCAK256 PUSH1 0x1F DUP5 ADD PUSH1 0x5 SHR DUP2 ADD PUSH1 0x20 DUP6 LT ISZERO PUSH2 0x8DA JUMPI POP DUP1 JUMPDEST PUSH1 0x1F DUP5 ADD PUSH1 0x5 SHR DUP3 ADD SWAP2 POP JUMPDEST DUP2 DUP2 LT ISZERO PUSH2 0x4C0 JUMPI PUSH0 DUP2 SSTORE PUSH1 0x1 ADD PUSH2 0x8E6 JUMP JUMPDEST DUP2 MLOAD PUSH1 0x1 PUSH1 0x1 PUSH1 0x40 SHL SUB DUP2 GT ISZERO PUSH2 0x912 JUMPI PUSH2 0x912 PUSH2 0x869 JUMP JUMPDEST PUSH2 0x926 DUP2 PUSH2 0x920 DUP5 SLOAD PUSH2 0x87D JUMP JUMPDEST DUP5 PUSH2 0x8B5 JUMP JUMPDEST PUSH1 0x20 PUSH1 0x1F DUP3 GT PUSH1 0x1 DUP2 EQ PUSH2 0x958 JUMPI PUSH0 DUP4 ISZERO PUSH2 0x941 JUMPI POP DUP5 DUP3 ADD MLOAD JUMPDEST PUSH0 NOT PUSH1 0x3 DUP6 SWAP1 SHL SHR NOT AND PUSH1 0x1 DUP5 SWAP1 SHL OR DUP5 SSTORE PUSH2 0x4C0 JUMP JUMPDEST PUSH0 DUP5 DUP2 MSTORE PUSH1 0x20 DUP2 KECCAK256 PUSH1 0x1F NOT DUP6 AND SWAP2 JUMPDEST DUP3 DUP2 LT ISZERO PUSH2 0x987 JUMPI DUP8 DUP6 ADD MLOAD DUP3 SSTORE PUSH1 0x20 SWAP5 DUP6 ADD SWAP5 PUSH1 0x1 SWAP1 SWAP3 ADD SWAP2 ADD PUSH2 0x967 JUMP JUMPDEST POP DUP5 DUP3 LT ISZERO PUSH2 0x9A4 JUMPI DUP7 DUP5 ADD MLOAD PUSH0 NOT PUSH1 0x3 DUP8 SWAP1 SHL PUSH1 0xF8 AND SHR NOT AND DUP2 SSTORE JUMPDEST POP POP POP POP PUSH1 0x1 SWAP1 DUP2 SHL ADD SWAP1 SSTORE POP JUMP JUMPDEST PUSH0 PUSH1 0x1 DUP3 ADD PUSH2 0x9D0 JUMPI PUSH4 0x4E487B71 PUSH1 0xE0 SHL PUSH0 MSTORE PUSH1 0x11 PUSH1 0x4 MSTORE PUSH1 0x24 PUSH0 REVERT JUMPDEST POP PUSH1 0x1 ADD SWAP1 JUMP JUMPDEST PUSH1 0x1 DUP1 PUSH1 0xA0 SHL SUB DUP6 AND DUP2 MSTORE PUSH1 0x1 DUP1 PUSH1 0xA0 SHL SUB DUP5 AND PUSH1 0x20 DUP3 ADD MSTORE DUP3 PUSH1 0x40 DUP3 ADD MSTORE PUSH1 0x80 PUSH1 0x60 DUP3 ADD MSTORE PUSH0 DUP3 MLOAD DUP1 PUSH1 0x80 DUP5 ADD MSTORE DUP1 PUSH1 0x20 DUP6 ADD PUSH1 0xA0 DUP6 ADD MCOPY PUSH0 PUSH1 0xA0 DUP3 DUP6 ADD ADD MSTORE PUSH1 0xA0 PUSH1 0x1F NOT PUSH1 0x1F DUP4 ADD AND DUP5 ADD ADD SWAP2 POP POP SWAP6 SWAP5 POP POP POP POP POP JUMP JUMPDEST PUSH0 PUSH1 0x20 DUP3 DUP5 SUB SLT ISZERO PUSH2 0xA41 JUMPI PUSH0 DUP1 REVERT JUMPDEST DUP2 MLOAD PUSH1 0x1 PUSH1 0x1 PUSH1 0xE0 SHL SUB NOT DUP2 AND DUP2 EQ PUSH2 0xA58 JUMPI PUSH0 DUP1 REVERT JUMPDEST SWAP4 SWAP3 POP POP POP JUMP JUMPDEST PUSH2 0x129B DUP1 PUSH2 0xA6C PUSH0 CODECOPY PUSH0 RETURN INVALID PUSH1 0x80 PUSH1 0x40 MSTORE CALLVALUE DUP1 ISZERO PUSH2 0xF JUMPI PUSH0 DUP1 REVERT JUMPDEST POP PUSH1 0x4 CALLDATASIZE LT PUSH2 0x10D JUMPI PUSH0 CALLDATALOAD PUSH1 0xE0 SHR DUP1 PUSH4 0x6352211E GT PUSH2 0xA9 JUMPI DUP1 PUSH4 0xA22CB465 GT PUSH2 0x6E JUMPI DUP1 PUSH4 0xA22CB465 EQ PUSH2 0x24B JUMPI DUP1 PUSH4 0xB88D4FDE EQ PUSH2 0x25E JUMPI DUP1 PUSH4 0xC87B56DD EQ PUSH2 0x271 JUMPI DUP1 PUSH4 0xE985E9C5 EQ PUSH2 0x284 JUMPI DUP1 PUSH4 0xF2FDE38B EQ PUSH2 0x297 JUMPI PUSH0 DUP1 REVERT JUMPDEST DUP1 PUSH4 0x6352211E EQ PUSH2 0x204 JUMPI DUP1 PUSH4 0x70A08231 EQ PUSH2 0x217 JUMPI DUP1 PUSH4 0x715018A6 EQ PUSH2 0x22A JUMPI DUP1 PUSH4 0x8DA5CB5B EQ PUSH2 0x232 JUMPI DUP1 PUSH4 0x95D89B41 EQ PUSH2 0x243 JUMPI PUSH0 DUP1 REVERT JUMPDEST DUP1 PUSH4 0x1FFC9A7 EQ PUSH2 0x111 JUMPI DUP1 PUSH4 0x2FA7C47 EQ PUSH2 0x139 JUMPI DUP1 PUSH4 0x6FDDE03 EQ PUSH2 0x14E JUMPI DUP1 PUSH4 0x81812FC EQ PUSH2 0x163 JUMPI DUP1 PUSH4 0x95EA7B3 EQ PUSH2 0x183 JUMPI DUP1 PUSH4 0x18160DDD EQ PUSH2 0x196 JUMPI DUP1 PUSH4 0x23B872DD EQ PUSH2 0x1AC JUMPI DUP1 PUSH4 0x2A55205A EQ PUSH2 0x1BF JUMPI DUP1 PUSH4 0x42842E0E EQ PUSH2 0x1F1 JUMPI JUMPDEST PUSH0 DUP1 REVERT JUMPDEST PUSH2 0x124 PUSH2 0x11F CALLDATASIZE PUSH1 0x4 PUSH2 0xE35 JUMP JUMPDEST PUSH2 0x2AA JUMP JUMPDEST PUSH1 0x40 MLOAD SWAP1 ISZERO ISZERO DUP2 MSTORE PUSH1 0x20 ADD JUMPDEST PUSH1 0x40 MLOAD DUP1 SWAP2 SUB SWAP1 RETURN JUMPDEST PUSH2 0x14C PUSH2 0x147 CALLDATASIZE PUSH1 0x4 PUSH2 0xE6B JUMP JUMPDEST PUSH2 0x2BA JUMP JUMPDEST STOP JUMPDEST PUSH2 0x156 PUSH2 0x2D0 JUMP JUMPDEST PUSH1 0x40 MLOAD PUSH2 0x130 SWAP2 SWAP1 PUSH2 0xED9 JUMP JUMPDEST PUSH2 0x176 PUSH2 0x171 CALLDATASIZE PUSH1 0x4 PUSH2 0xEEB JUMP JUMPDEST PUSH2 0x35F JUMP JUMPDEST PUSH1 0x40 MLOAD PUSH2 0x130 SWAP2 SWAP1 PUSH2 0xF02 JUMP JUMPDEST PUSH2 0x14C PUSH2 0x191 CALLDATASIZE PUSH1 0x4 PUSH2 0xF16 JUMP JUMPDEST PUSH2 0x386 JUMP JUMPDEST PUSH2 0x19E PUSH2 0x391 JUMP JUMPDEST PUSH1 0x40 MLOAD SWAP1 DUP2 MSTORE PUSH1 0x20 ADD PUSH2 0x130 JUMP JUMPDEST PUSH2 0x14C PUSH2 0x1BA CALLDATASIZE PUSH1 0x4 PUSH2 0xF3E JUMP JUMPDEST PUSH2 0x3A6 JUMP JUMPDEST PUSH2 0x1D2 PUSH2 0x1CD CALLDATASIZE PUSH1 0x4 PUSH2 0xF78 JUMP JUMPDEST PUSH2 0x438 JUMP JUMPDEST PUSH1 0x40 DUP1 MLOAD PUSH1 0x1 PUSH1 0x1 PUSH1 0xA0 SHL SUB SWAP1 SWAP4 AND DUP4 MSTORE PUSH1 0x20 DUP4 ADD SWAP2 SWAP1 SWAP2 MSTORE ADD PUSH2 0x130 JUMP JUMPDEST PUSH2 0x14C PUSH2 0x1FF CALLDATASIZE PUSH1 0x4 PUSH2 0xF3E JUMP JUMPDEST PUSH2 0x4E2 JUMP JUMPDEST PUSH2 0x176 PUSH2 0x212 CALLDATASIZE PUSH1 0x4 PUSH2 0xEEB JUMP JUMPDEST PUSH2 0x501 JUMP JUMPDEST PUSH2 0x19E PUSH2 0x225 CALLDATASIZE PUSH1 0x4 PUSH2 0xF98 JUMP JUMPDEST PUSH2 0x50B JUMP JUMPDEST PUSH2 0x14C PUSH2 0x550 JUMP JUMPDEST PUSH1 0x6 SLOAD PUSH1 0x1 PUSH1 0x1 PUSH1 0xA0 SHL SUB AND PUSH2 0x176 JUMP JUMPDEST PUSH2 0x156 PUSH2 0x563 JUMP JUMPDEST PUSH2 0x14C PUSH2 0x259 CALLDATASIZE PUSH1 0x4 PUSH2 0xFB1 JUMP JUMPDEST PUSH2 0x572 JUMP JUMPDEST PUSH2 0x14C PUSH2 0x26C CALLDATASIZE PUSH1 0x4 PUSH2 0xFF3 JUMP JUMPDEST PUSH2 0x57D JUMP JUMPDEST PUSH2 0x156 PUSH2 0x27F CALLDATASIZE PUSH1 0x4 PUSH2 0xEEB JUMP JUMPDEST PUSH2 0x594 JUMP JUMPDEST PUSH2 0x124 PUSH2 0x292 CALLDATASIZE PUSH1 0x4 PUSH2 0x10D0 JUMP JUMPDEST PUSH2 0x5F9 JUMP JUMPDEST PUSH2 0x14C PUSH2 0x2A5 CALLDATASIZE PUSH1 0x4 PUSH2 0xF98 JUMP JUMPDEST PUSH2 0x626 JUMP JUMPDEST PUSH0 PUSH2 0x2B4 DUP3 PUSH2 0x663 JUMP JUMPDEST SWAP3 SWAP2 POP POP JUMP JUMPDEST PUSH2 0x2C2 PUSH2 0x687 JUMP JUMPDEST PUSH2 0x2CC DUP3 DUP3 PUSH2 0x6B4 JUMP JUMPDEST POP POP JUMP JUMPDEST PUSH1 0x60 PUSH0 DUP1 SLOAD PUSH2 0x2DE SWAP1 PUSH2 0x1101 JUMP JUMPDEST DUP1 PUSH1 0x1F ADD PUSH1 0x20 DUP1 SWAP2 DIV MUL PUSH1 0x20 ADD PUSH1 0x40 MLOAD SWAP1 DUP2 ADD PUSH1 0x40 MSTORE DUP1 SWAP3 SWAP2 SWAP1 DUP2 DUP2 MSTORE PUSH1 0x20 ADD DUP3 DUP1 SLOAD PUSH2 0x30A SWAP1 PUSH2 0x1101 JUMP JUMPDEST DUP1 ISZERO PUSH2 0x355 JUMPI DUP1 PUSH1 0x1F LT PUSH2 0x32C JUMPI PUSH2 0x100 DUP1 DUP4 SLOAD DIV MUL DUP4 MSTORE SWAP2 PUSH1 0x20 ADD SWAP2 PUSH2 0x355 JUMP JUMPDEST DUP3 ADD SWAP2 SWAP1 PUSH0 MSTORE PUSH1 0x20 PUSH0 KECCAK256 SWAP1 JUMPDEST DUP2 SLOAD DUP2 MSTORE SWAP1 PUSH1 0x1 ADD SWAP1 PUSH1 0x20 ADD DUP1 DUP4 GT PUSH2 0x338 JUMPI DUP3 SWAP1 SUB PUSH1 0x1F AND DUP3 ADD SWAP2 JUMPDEST POP POP POP POP POP SWAP1 POP SWAP1 JUMP JUMPDEST PUSH0 PUSH2 0x369 DUP3 PUSH2 0x756 JUMP JUMPDEST POP PUSH0 DUP3 DUP2 MSTORE PUSH1 0x4 PUSH1 0x20 MSTORE PUSH1 0x40 SWAP1 KECCAK256 SLOAD PUSH1 0x1 PUSH1 0x1 PUSH1 0xA0 SHL SUB AND PUSH2 0x2B4 JUMP JUMPDEST PUSH2 0x2CC DUP3 DUP3 CALLER PUSH2 0x78E JUMP JUMPDEST PUSH0 PUSH1 0x1 PUSH1 0x9 SLOAD PUSH2 0x3A1 SWAP2 SWAP1 PUSH2 0x114D JUMP JUMPDEST SWAP1 POP SWAP1 JUMP JUMPDEST PUSH1 0x1 PUSH1 0x1 PUSH1 0xA0 SHL SUB DUP3 AND PUSH2 0x3D8 JUMPI PUSH0 PUSH1 0x40 MLOAD PUSH4 0x32505749 PUSH1 0xE1 SHL DUP2 MSTORE PUSH1 0x4 ADD PUSH2 0x3CF SWAP2 SWAP1 PUSH2 0xF02 JUMP JUMPDEST PUSH1 0x40 MLOAD DUP1 SWAP2 SUB SWAP1 REVERT JUMPDEST PUSH0 PUSH2 0x3E4 DUP4 DUP4 CALLER PUSH2 0x79B JUMP JUMPDEST SWAP1 POP DUP4 PUSH1 0x1 PUSH1 0x1 PUSH1 0xA0 SHL SUB AND DUP2 PUSH1 0x1 PUSH1 0x1 PUSH1 0xA0 SHL SUB AND EQ PUSH2 0x432 JUMPI PUSH1 0x40 MLOAD PUSH4 0x64283D7B PUSH1 0xE0 SHL DUP2 MSTORE PUSH1 0x1 PUSH1 0x1 PUSH1 0xA0 SHL SUB DUP1 DUP7 AND PUSH1 0x4 DUP4 ADD MSTORE PUSH1 0x24 DUP3 ADD DUP5 SWAP1 MSTORE DUP3 AND PUSH1 0x44 DUP3 ADD MSTORE PUSH1 0x64 ADD PUSH2 0x3CF JUMP JUMPDEST POP POP POP POP JUMP JUMPDEST PUSH0 DUP3 DUP2 MSTORE PUSH1 0x8 PUSH1 0x20 SWAP1 DUP2 MSTORE PUSH1 0x40 DUP1 DUP4 KECCAK256 DUP2 MLOAD DUP1 DUP4 ADD SWAP1 SWAP3 MSTORE SLOAD PUSH1 0x1 PUSH1 0x1 PUSH1 0xA0 SHL SUB DUP2 AND DUP1 DUP4 MSTORE PUSH1 0x1 PUSH1 0xA0 SHL SWAP1 SWAP2 DIV PUSH1 0x1 PUSH1 0x1 PUSH1 0x60 SHL SUB AND SWAP3 DUP3 ADD SWAP3 SWAP1 SWAP3 MSTORE DUP3 SWAP2 PUSH2 0x4AC JUMPI POP PUSH1 0x40 DUP1 MLOAD DUP1 DUP3 ADD SWAP1 SWAP2 MSTORE PUSH1 0x7 SLOAD PUSH1 0x1 PUSH1 0x1 PUSH1 0xA0 SHL SUB DUP2 AND DUP3 MSTORE PUSH1 0x1 PUSH1 0xA0 SHL SWAP1 DIV PUSH1 0x1 PUSH1 0x1 PUSH1 0x60 SHL SUB AND PUSH1 0x20 DUP3 ADD MSTORE JUMPDEST PUSH1 0x20 DUP2 ADD MLOAD PUSH0 SWAP1 PUSH2 0x2710 SWAP1 PUSH2 0x4CA SWAP1 PUSH1 0x1 PUSH1 0x1 PUSH1 0x60 SHL SUB AND DUP8 PUSH2 0x1160 JUMP JUMPDEST PUSH2 0x4D4 SWAP2 SWAP1 PUSH2 0x1177 JUMP JUMPDEST SWAP2 MLOAD SWAP7 SWAP2 SWAP6 POP SWAP1 SWAP4 POP POP POP POP JUMP JUMPDEST PUSH2 0x4FC DUP4 DUP4 DUP4 PUSH1 0x40 MLOAD DUP1 PUSH1 0x20 ADD PUSH1 0x40 MSTORE DUP1 PUSH0 DUP2 MSTORE POP PUSH2 0x57D JUMP JUMPDEST POP POP POP JUMP JUMPDEST PUSH0 PUSH2 0x2B4 DUP3 PUSH2 0x756 JUMP JUMPDEST PUSH0 PUSH1 0x1 PUSH1 0x1 PUSH1 0xA0 SHL SUB DUP3 AND PUSH2 0x535 JUMPI PUSH0 PUSH1 0x40 MLOAD PUSH4 0x22718AD9 PUSH1 0xE2 SHL DUP2 MSTORE PUSH1 0x4 ADD PUSH2 0x3CF SWAP2 SWAP1 PUSH2 0xF02 JUMP JUMPDEST POP PUSH1 0x1 PUSH1 0x1 PUSH1 0xA0 SHL SUB AND PUSH0 SWAP1 DUP2 MSTORE PUSH1 0x3 PUSH1 0x20 MSTORE PUSH1 0x40 SWAP1 KECCAK256 SLOAD SWAP1 JUMP JUMPDEST PUSH2 0x558 PUSH2 0x687 JUMP JUMPDEST PUSH2 0x561 PUSH0 PUSH2 0x88D JUMP JUMPDEST JUMP JUMPDEST PUSH1 0x60 PUSH1 0x1 DUP1 SLOAD PUSH2 0x2DE SWAP1 PUSH2 0x1101 JUMP JUMPDEST PUSH2 0x2CC CALLER DUP4 DUP4 PUSH2 0x8DE JUMP JUMPDEST PUSH2 0x588 DUP5 DUP5 DUP5 PUSH2 0x3A6 JUMP JUMPDEST PUSH2 0x432 DUP5 DUP5 DUP5 DUP5 PUSH2 0x973 JUMP JUMPDEST PUSH1 0x60 PUSH2 0x59F DUP3 PUSH2 0x756 JUMP JUMPDEST POP PUSH0 PUSH2 0x5A9 PUSH2 0xA87 JUMP JUMPDEST SWAP1 POP PUSH0 DUP2 MLOAD GT PUSH2 0x5C7 JUMPI PUSH1 0x40 MLOAD DUP1 PUSH1 0x20 ADD PUSH1 0x40 MSTORE DUP1 PUSH0 DUP2 MSTORE POP PUSH2 0x5F2 JUMP JUMPDEST DUP1 PUSH2 0x5D1 DUP5 PUSH2 0xAA7 JUMP JUMPDEST PUSH1 0x40 MLOAD PUSH1 0x20 ADD PUSH2 0x5E2 SWAP3 SWAP2 SWAP1 PUSH2 0x11AD JUMP JUMPDEST PUSH1 0x40 MLOAD PUSH1 0x20 DUP2 DUP4 SUB SUB DUP2 MSTORE SWAP1 PUSH1 0x40 MSTORE JUMPDEST SWAP4 SWAP3 POP POP POP JUMP JUMPDEST PUSH1 0x1 PUSH1 0x1 PUSH1 0xA0 SHL SUB SWAP2 DUP3 AND PUSH0 SWAP1 DUP2 MSTORE PUSH1 0x5 PUSH1 0x20 SWAP1 DUP2 MSTORE PUSH1 0x40 DUP1 DUP4 KECCAK256 SWAP4 SWAP1 SWAP5 AND DUP3 MSTORE SWAP2 SWAP1 SWAP2 MSTORE KECCAK256 SLOAD PUSH1 0xFF AND SWAP1 JUMP JUMPDEST PUSH2 0x62E PUSH2 0x687 JUMP JUMPDEST PUSH1 0x1 PUSH1 0x1 PUSH1 0xA0 SHL SUB DUP2 AND PUSH2 0x657 JUMPI PUSH0 PUSH1 0x40 MLOAD PUSH4 0x1E4FBDF7 PUSH1 0xE0 SHL DUP2 MSTORE PUSH1 0x4 ADD PUSH2 0x3CF SWAP2 SWAP1 PUSH2 0xF02 JUMP JUMPDEST PUSH2 0x660 DUP2 PUSH2 0x88D JUMP JUMPDEST POP JUMP JUMPDEST PUSH0 PUSH1 0x1 PUSH1 0x1 PUSH1 0xE0 SHL SUB NOT DUP3 AND PUSH4 0x152A902D PUSH1 0xE1 SHL EQ DUP1 PUSH2 0x2B4 JUMPI POP PUSH2 0x2B4 DUP3 PUSH2 0xB37 JUMP JUMPDEST PUSH1 0x6 SLOAD PUSH1 0x1 PUSH1 0x1 PUSH1 0xA0 SHL SUB AND CALLER EQ PUSH2 0x561 JUMPI CALLER PUSH1 0x40 MLOAD PUSH4 0x118CDAA7 PUSH1 0xE0 SHL DUP2 MSTORE PUSH1 0x4 ADD PUSH2 0x3CF SWAP2 SWAP1 PUSH2 0xF02 JUMP JUMPDEST PUSH2 0x2710 PUSH1 0x1 PUSH1 0x1 PUSH1 0x60 SHL SUB DUP3 AND DUP2 LT ISZERO PUSH2 0x6F3 JUMPI PUSH1 0x40 MLOAD PUSH4 0x6F483D09 PUSH1 0xE0 SHL DUP2 MSTORE PUSH1 0x1 PUSH1 0x1 PUSH1 0x60 SHL SUB DUP4 AND PUSH1 0x4 DUP3 ADD MSTORE PUSH1 0x24 DUP2 ADD DUP3 SWAP1 MSTORE PUSH1 0x44 ADD PUSH2 0x3CF JUMP JUMPDEST PUSH1 0x1 PUSH1 0x1 PUSH1 0xA0 SHL SUB DUP4 AND PUSH2 0x71C JUMPI PUSH0 PUSH1 0x40 MLOAD PUSH4 0x5B6CC805 PUSH1 0xE1 SHL DUP2 MSTORE PUSH1 0x4 ADD PUSH2 0x3CF SWAP2 SWAP1 PUSH2 0xF02 JUMP JUMPDEST POP PUSH1 0x40 DUP1 MLOAD DUP1 DUP3 ADD SWAP1 SWAP2 MSTORE PUSH1 0x1 PUSH1 0x1 PUSH1 0xA0 SHL SUB SWAP1 SWAP3 AND DUP1 DUP4 MSTORE PUSH1 0x1 PUSH1 0x1 PUSH1 0x60 SHL SUB SWAP1 SWAP2 AND PUSH1 0x20 SWAP1 SWAP3 ADD DUP3 SWAP1 MSTORE PUSH1 0x1 PUSH1 0xA0 SHL SWAP1 SWAP2 MUL OR PUSH1 0x7 SSTORE JUMP JUMPDEST PUSH0 DUP2 DUP2 MSTORE PUSH1 0x2 PUSH1 0x20 MSTORE PUSH1 0x40 DUP2 KECCAK256 SLOAD PUSH1 0x1 PUSH1 0x1 PUSH1 0xA0 SHL SUB AND DUP1 PUSH2 0x2B4 JUMPI PUSH1 0x40 MLOAD PUSH4 0x7E273289 PUSH1 0xE0 SHL DUP2 MSTORE PUSH1 0x4 DUP2 ADD DUP5 SWAP1 MSTORE PUSH1 0x24 ADD PUSH2 0x3CF JUMP JUMPDEST PUSH2 0x4FC DUP4 DUP4 DUP4 PUSH1 0x1 PUSH2 0xB86 JUMP JUMPDEST PUSH0 DUP3 DUP2 MSTORE PUSH1 0x2 PUSH1 0x20 MSTORE PUSH1 0x40 DUP2 KECCAK256 SLOAD PUSH1 0x1 PUSH1 0x1 PUSH1 0xA0 SHL SUB SWAP1 DUP2 AND SWAP1 DUP4 AND ISZERO PUSH2 0x7C7 JUMPI PUSH2 0x7C7 DUP2 DUP5 DUP7 PUSH2 0xC81 JUMP JUMPDEST PUSH1 0x1 PUSH1 0x1 PUSH1 0xA0 SHL SUB DUP2 AND ISZERO PUSH2 0x801 JUMPI PUSH2 0x7E2 PUSH0 DUP6 PUSH0 DUP1 PUSH2 0xB86 JUMP JUMPDEST PUSH1 0x1 PUSH1 0x1 PUSH1 0xA0 SHL SUB DUP2 AND PUSH0 SWAP1 DUP2 MSTORE PUSH1 0x3 PUSH1 0x20 MSTORE PUSH1 0x40 SWAP1 KECCAK256 DUP1 SLOAD PUSH0 NOT ADD SWAP1 SSTORE JUMPDEST PUSH1 0x1 PUSH1 0x1 PUSH1 0xA0 SHL SUB DUP6 AND ISZERO PUSH2 0x82F JUMPI PUSH1 0x1 PUSH1 0x1 PUSH1 0xA0 SHL SUB DUP6 AND PUSH0 SWAP1 DUP2 MSTORE PUSH1 0x3 PUSH1 0x20 MSTORE PUSH1 0x40 SWAP1 KECCAK256 DUP1 SLOAD PUSH1 0x1 ADD SWAP1 SSTORE JUMPDEST PUSH0 DUP5 DUP2 MSTORE PUSH1 0x2 PUSH1 0x20 MSTORE PUSH1 0x40 DUP1 DUP3 KECCAK256 DUP1 SLOAD PUSH1 0x1 PUSH1 0x1 PUSH1 0xA0 SHL SUB NOT AND PUSH1 0x1 PUSH1 0x1 PUSH1 0xA0 SHL SUB DUP10 DUP2 AND SWAP2 DUP3 OR SWAP1 SWAP3 SSTORE SWAP2 MLOAD DUP8 SWAP4 SWAP2 DUP6 AND SWAP2 PUSH32 0xDDF252AD1BE2C89B69C2B068FC378DAA952BA7F163C4A11628F55A4DF523B3EF SWAP2 LOG4 SWAP5 SWAP4 POP POP POP POP JUMP JUMPDEST PUSH1 0x6 DUP1 SLOAD PUSH1 0x1 PUSH1 0x1 PUSH1 0xA0 SHL SUB DUP4 DUP2 AND PUSH1 0x1 PUSH1 0x1 PUSH1 0xA0 SHL SUB NOT DUP4 AND DUP2 OR SWAP1 SWAP4 SSTORE PUSH1 0x40 MLOAD SWAP2 AND SWAP2 SWAP1 DUP3 SWAP1 PUSH32 0x8BE0079C531659141344CD1FD0A4F28419497F9722A3DAAFE3B4186F6B6457E0 SWAP1 PUSH0 SWAP1 LOG3 POP POP JUMP JUMPDEST PUSH1 0x1 PUSH1 0x1 PUSH1 0xA0 SHL SUB DUP3 AND PUSH2 0x907 JUMPI DUP2 PUSH1 0x40 MLOAD PUSH4 0xB611743 PUSH1 0xE3 SHL DUP2 MSTORE PUSH1 0x4 ADD PUSH2 0x3CF SWAP2 SWAP1 PUSH2 0xF02 JUMP JUMPDEST PUSH1 0x1 PUSH1 0x1 PUSH1 0xA0 SHL SUB DUP4 DUP2 AND PUSH0 DUP2 DUP2 MSTORE PUSH1 0x5 PUSH1 0x20 SWAP1 DUP2 MSTORE PUSH1 0x40 DUP1 DUP4 KECCAK256 SWAP5 DUP8 AND DUP1 DUP5 MSTORE SWAP5 DUP3 MSTORE SWAP2 DUP3 SWAP1 KECCAK256 DUP1 SLOAD PUSH1 0xFF NOT AND DUP7 ISZERO ISZERO SWAP1 DUP2 OR SWAP1 SWAP2 SSTORE SWAP2 MLOAD SWAP2 DUP3 MSTORE PUSH32 0x17307EAB39AB6107E8899845AD3D59BD9653F200F220920489CA2B5937696C31 SWAP2 ADD PUSH1 0x40 MLOAD DUP1 SWAP2 SUB SWAP1 LOG3 POP POP POP JUMP JUMPDEST PUSH1 0x1 PUSH1 0x1 PUSH1 0xA0 SHL SUB DUP4 AND EXTCODESIZE ISZERO PUSH2 0x432 JUMPI PUSH1 0x40 MLOAD PUSH4 0xA85BD01 PUSH1 0xE1 SHL DUP2 MSTORE PUSH1 0x1 PUSH1 0x1 PUSH1 0xA0 SHL SUB DUP5 AND SWAP1 PUSH4 0x150B7A02 SWAP1 PUSH2 0x9B5 SWAP1 CALLER SWAP1 DUP9 SWAP1 DUP8 SWAP1 DUP8 SWAP1 PUSH1 0x4 ADD PUSH2 0x11C1 JUMP JUMPDEST PUSH1 0x20 PUSH1 0x40 MLOAD DUP1 DUP4 SUB DUP2 PUSH0 DUP8 GAS CALL SWAP3 POP POP POP DUP1 ISZERO PUSH2 0x9EF JUMPI POP PUSH1 0x40 DUP1 MLOAD PUSH1 0x1F RETURNDATASIZE SWAP1 DUP2 ADD PUSH1 0x1F NOT AND DUP3 ADD SWAP1 SWAP3 MSTORE PUSH2 0x9EC SWAP2 DUP2 ADD SWAP1 PUSH2 0x11FD JUMP JUMPDEST PUSH1 0x1 JUMPDEST PUSH2 0xA4D JUMPI RETURNDATASIZE DUP1 DUP1 ISZERO PUSH2 0xA1C JUMPI PUSH1 0x40 MLOAD SWAP2 POP PUSH1 0x1F NOT PUSH1 0x3F RETURNDATASIZE ADD AND DUP3 ADD PUSH1 0x40 MSTORE RETURNDATASIZE DUP3 MSTORE RETURNDATASIZE PUSH0 PUSH1 0x20 DUP5 ADD RETURNDATACOPY PUSH2 0xA21 JUMP JUMPDEST PUSH1 0x60 SWAP2 POP JUMPDEST POP DUP1 MLOAD PUSH0 SUB PUSH2 0xA45 JUMPI DUP4 PUSH1 0x40 MLOAD PUSH4 0x32505749 PUSH1 0xE1 SHL DUP2 MSTORE PUSH1 0x4 ADD PUSH2 0x3CF SWAP2 SWAP1 PUSH2 0xF02 JUMP JUMPDEST DUP1 MLOAD DUP2 PUSH1 0x20 ADD REVERT JUMPDEST PUSH1 0x1 PUSH1 0x1 PUSH1 0xE0 SHL SUB NOT DUP2 AND PUSH4 0xA85BD01 PUSH1 0xE1 SHL EQ PUSH2 0xA80 JUMPI DUP4 PUSH1 0x40 MLOAD PUSH4 0x32505749 PUSH1 0xE1 SHL DUP2 MSTORE PUSH1 0x4 ADD PUSH2 0x3CF SWAP2 SWAP1 PUSH2 0xF02 JUMP JUMPDEST POP POP POP POP POP JUMP JUMPDEST PUSH1 0x60 PUSH1 0x40 MLOAD DUP1 PUSH1 0x80 ADD PUSH1 0x40 MSTORE DUP1 PUSH1 0x4D DUP2 MSTORE PUSH1 0x20 ADD PUSH2 0x1219 PUSH1 0x4D SWAP2 CODECOPY SWAP1 POP SWAP1 JUMP JUMPDEST PUSH1 0x60 PUSH0 PUSH2 0xAB3 DUP4 PUSH2 0xCE5 JUMP JUMPDEST PUSH1 0x1 ADD SWAP1 POP PUSH0 DUP2 PUSH8 0xFFFFFFFFFFFFFFFF DUP2 GT ISZERO PUSH2 0xAD2 JUMPI PUSH2 0xAD2 PUSH2 0xFDF JUMP JUMPDEST PUSH1 0x40 MLOAD SWAP1 DUP1 DUP3 MSTORE DUP1 PUSH1 0x1F ADD PUSH1 0x1F NOT AND PUSH1 0x20 ADD DUP3 ADD PUSH1 0x40 MSTORE DUP1 ISZERO PUSH2 0xAFC JUMPI PUSH1 0x20 DUP3 ADD DUP2 DUP1 CALLDATASIZE DUP4 CALLDATACOPY ADD SWAP1 POP JUMPDEST POP SWAP1 POP DUP2 DUP2 ADD PUSH1 0x20 ADD JUMPDEST PUSH0 NOT ADD PUSH16 0x181899199A1A9B1B9C1CB0B131B232B3 PUSH1 0x81 SHL PUSH1 0xA DUP7 MOD BYTE DUP2 MSTORE8 PUSH1 0xA DUP6 DIV SWAP5 POP DUP5 PUSH2 0xB06 JUMPI POP SWAP4 SWAP3 POP POP POP JUMP JUMPDEST PUSH0 PUSH1 0x1 PUSH1 0x1 PUSH1 0xE0 SHL SUB NOT DUP3 AND PUSH4 0x80AC58CD PUSH1 0xE0 SHL EQ DUP1 PUSH2 0xB67 JUMPI POP PUSH1 0x1 PUSH1 0x1 PUSH1 0xE0 SHL SUB NOT DUP3 AND PUSH4 0x5B5E139F PUSH1 0xE0 SHL EQ JUMPDEST DUP1 PUSH2 0x2B4 JUMPI POP PUSH4 0x1FFC9A7 PUSH1 0xE0 SHL PUSH1 0x1 PUSH1 0x1 PUSH1 0xE0 SHL SUB NOT DUP4 AND EQ PUSH2 0x2B4 JUMP JUMPDEST DUP1 DUP1 PUSH2 0xB9A JUMPI POP PUSH1 0x1 PUSH1 0x1 PUSH1 0xA0 SHL SUB DUP3 AND ISZERO ISZERO JUMPDEST ISZERO PUSH2 0xC52 JUMPI PUSH0 PUSH2 0xBA9 DUP5 PUSH2 0x756 JUMP JUMPDEST SWAP1 POP PUSH1 0x1 PUSH1 0x1 PUSH1 0xA0 SHL SUB DUP4 AND ISZERO DUP1 ISZERO SWAP1 PUSH2 0xBD5 JUMPI POP DUP3 PUSH1 0x1 PUSH1 0x1 PUSH1 0xA0 SHL SUB AND DUP2 PUSH1 0x1 PUSH1 0x1 PUSH1 0xA0 SHL SUB AND EQ ISZERO JUMPDEST DUP1 ISZERO PUSH2 0xBE8 JUMPI POP PUSH2 0xBE6 DUP2 DUP5 PUSH2 0x5F9 JUMP JUMPDEST ISZERO JUMPDEST ISZERO PUSH2 0xC08 JUMPI DUP3 PUSH1 0x40 MLOAD PUSH4 0xA9FBF51F PUSH1 0xE0 SHL DUP2 MSTORE PUSH1 0x4 ADD PUSH2 0x3CF SWAP2 SWAP1 PUSH2 0xF02 JUMP JUMPDEST DUP2 ISZERO PUSH2 0xC50 JUMPI DUP4 DUP6 PUSH1 0x1 PUSH1 0x1 PUSH1 0xA0 SHL SUB AND DUP3 PUSH1 0x1 PUSH1 0x1 PUSH1 0xA0 SHL SUB AND PUSH32 0x8C5BE1E5EBEC7D5BD14F71427D1E84F3DD0314C0F7B2291E5B200AC8C7C3B925 PUSH1 0x40 MLOAD PUSH1 0x40 MLOAD DUP1 SWAP2 SUB SWAP1 LOG4 JUMPDEST POP JUMPDEST POP POP PUSH0 SWAP1 DUP2 MSTORE PUSH1 0x4 PUSH1 0x20 MSTORE PUSH1 0x40 SWAP1 KECCAK256 DUP1 SLOAD PUSH1 0x1 PUSH1 0x1 PUSH1 0xA0 SHL SUB NOT AND PUSH1 0x1 PUSH1 0x1 PUSH1 0xA0 SHL SUB SWAP3 SWAP1 SWAP3 AND SWAP2 SWAP1 SWAP2 OR SWAP1 SSTORE JUMP JUMPDEST PUSH2 0xC8C DUP4 DUP4 DUP4 PUSH2 0xDBC JUMP JUMPDEST PUSH2 0x4FC JUMPI PUSH1 0x1 PUSH1 0x1 PUSH1 0xA0 SHL SUB DUP4 AND PUSH2 0xCBA JUMPI PUSH1 0x40 MLOAD PUSH4 0x7E273289 PUSH1 0xE0 SHL DUP2 MSTORE PUSH1 0x4 DUP2 ADD DUP3 SWAP1 MSTORE PUSH1 0x24 ADD PUSH2 0x3CF JUMP JUMPDEST PUSH1 0x40 MLOAD PUSH4 0x177E802F PUSH1 0xE0 SHL DUP2 MSTORE PUSH1 0x1 PUSH1 0x1 PUSH1 0xA0 SHL SUB DUP4 AND PUSH1 0x4 DUP3 ADD MSTORE PUSH1 0x24 DUP2 ADD DUP3 SWAP1 MSTORE PUSH1 0x44 ADD PUSH2 0x3CF JUMP JUMPDEST PUSH0 DUP1 PUSH19 0x184F03E93FF9F4DAA797ED6E38ED64BF6A1F01 PUSH1 0x40 SHL DUP4 LT PUSH2 0xD23 JUMPI PUSH19 0x184F03E93FF9F4DAA797ED6E38ED64BF6A1F01 PUSH1 0x40 SHL DUP4 DIV SWAP3 POP PUSH1 0x40 ADD JUMPDEST PUSH14 0x4EE2D6D415B85ACEF8100000000 DUP4 LT PUSH2 0xD4F JUMPI PUSH14 0x4EE2D6D415B85ACEF8100000000 DUP4 DIV SWAP3 POP PUSH1 0x20 ADD JUMPDEST PUSH7 0x2386F26FC10000 DUP4 LT PUSH2 0xD6D JUMPI PUSH7 0x2386F26FC10000 DUP4 DIV SWAP3 POP PUSH1 0x10 ADD JUMPDEST PUSH4 0x5F5E100 DUP4 LT PUSH2 0xD85 JUMPI PUSH4 0x5F5E100 DUP4 DIV SWAP3 POP PUSH1 0x8 ADD JUMPDEST PUSH2 0x2710 DUP4 LT PUSH2 0xD99 JUMPI PUSH2 0x2710 DUP4 DIV SWAP3 POP PUSH1 0x4 ADD JUMPDEST PUSH1 0x64 DUP4 LT PUSH2 0xDAB JUMPI PUSH1 0x64 DUP4 DIV SWAP3 POP PUSH1 0x2 ADD JUMPDEST PUSH1 0xA DUP4 LT PUSH2 0x2B4 JUMPI PUSH1 0x1 ADD SWAP3 SWAP2 POP POP JUMP JUMPDEST PUSH0 PUSH1 0x1 PUSH1 0x1 PUSH1 0xA0 SHL SUB DUP4 AND ISZERO DUP1 ISZERO SWAP1 PUSH2 0xE18 JUMPI POP DUP3 PUSH1 0x1 PUSH1 0x1 PUSH1 0xA0 SHL SUB AND DUP5 PUSH1 0x1 PUSH1 0x1 PUSH1 0xA0 SHL SUB AND EQ DUP1 PUSH2 0xDF5 JUMPI POP PUSH2 0xDF5 DUP5 DUP5 PUSH2 0x5F9 JUMP JUMPDEST DUP1 PUSH2 0xE18 JUMPI POP PUSH0 DUP3 DUP2 MSTORE PUSH1 0x4 PUSH1 0x20 MSTORE PUSH1 0x40 SWAP1 KECCAK256 SLOAD PUSH1 0x1 PUSH1 0x1 PUSH1 0xA0 SHL SUB DUP5 DUP2 AND SWAP2 AND EQ JUMPDEST SWAP5 SWAP4 POP POP POP POP JUMP JUMPDEST PUSH1 0x1 PUSH1 0x1 PUSH1 0xE0 SHL SUB NOT DUP2 AND DUP2 EQ PUSH2 0x660 JUMPI PUSH0 DUP1 REVERT JUMPDEST PUSH0 PUSH1 0x20 DUP3 DUP5 SUB SLT ISZERO PUSH2 0xE45 JUMPI PUSH0 DUP1 REVERT JUMPDEST DUP2 CALLDATALOAD PUSH2 0x5F2 DUP2 PUSH2 0xE20 JUMP JUMPDEST DUP1 CALLDATALOAD PUSH1 0x1 PUSH1 0x1 PUSH1 0xA0 SHL SUB DUP2 AND DUP2 EQ PUSH2 0xE66 JUMPI PUSH0 DUP1 REVERT JUMPDEST SWAP2 SWAP1 POP JUMP JUMPDEST PUSH0 DUP1 PUSH1 0x40 DUP4 DUP6 SUB SLT ISZERO PUSH2 0xE7C JUMPI PUSH0 DUP1 REVERT JUMPDEST PUSH2 0xE85 DUP4 PUSH2 0xE50 JUMP JUMPDEST SWAP2 POP PUSH1 0x20 DUP4 ADD CALLDATALOAD PUSH1 0x1 PUSH1 0x1 PUSH1 0x60 SHL SUB DUP2 AND DUP2 EQ PUSH2 0xEA0 JUMPI PUSH0 DUP1 REVERT JUMPDEST DUP1 SWAP2 POP POP SWAP3 POP SWAP3 SWAP1 POP JUMP JUMPDEST PUSH0 DUP2 MLOAD DUP1 DUP5 MSTORE DUP1 PUSH1 0x20 DUP5 ADD PUSH1 0x20 DUP7 ADD MCOPY PUSH0 PUSH1 0x20 DUP3 DUP7 ADD ADD MSTORE PUSH1 0x20 PUSH1 0x1F NOT PUSH1 0x1F DUP4 ADD AND DUP6 ADD ADD SWAP2 POP POP SWAP3 SWAP2 POP POP JUMP JUMPDEST PUSH1 0x20 DUP2 MSTORE PUSH0 PUSH2 0x5F2 PUSH1 0x20 DUP4 ADD DUP5 PUSH2 0xEAB JUMP JUMPDEST PUSH0 PUSH1 0x20 DUP3 DUP5 SUB SLT ISZERO PUSH2 0xEFB JUMPI PUSH0 DUP1 REVERT JUMPDEST POP CALLDATALOAD SWAP2 SWAP1 POP JUMP JUMPDEST PUSH1 0x1 PUSH1 0x1 PUSH1 0xA0 SHL SUB SWAP2 SWAP1 SWAP2 AND DUP2 MSTORE PUSH1 0x20 ADD SWAP1 JUMP JUMPDEST PUSH0 DUP1 PUSH1 0x40 DUP4 DUP6 SUB SLT ISZERO PUSH2 0xF27 JUMPI PUSH0 DUP1 REVERT JUMPDEST PUSH2 0xF30 DUP4 PUSH2 0xE50 JUMP JUMPDEST SWAP5 PUSH1 0x20 SWAP4 SWAP1 SWAP4 ADD CALLDATALOAD SWAP4 POP POP POP JUMP JUMPDEST PUSH0 DUP1 PUSH0 PUSH1 0x60 DUP5 DUP7 SUB SLT ISZERO PUSH2 0xF50 JUMPI PUSH0 DUP1 REVERT JUMPDEST PUSH2 0xF59 DUP5 PUSH2 0xE50 JUMP JUMPDEST SWAP3 POP PUSH2 0xF67 PUSH1 0x20 DUP6 ADD PUSH2 0xE50 JUMP JUMPDEST SWAP3 SWAP6 SWAP3 SWAP5 POP POP POP PUSH1 0x40 SWAP2 SWAP1 SWAP2 ADD CALLDATALOAD SWAP1 JUMP JUMPDEST PUSH0 DUP1 PUSH1 0x40 DUP4 DUP6 SUB SLT ISZERO PUSH2 0xF89 JUMPI PUSH0 DUP1 REVERT JUMPDEST POP POP DUP1 CALLDATALOAD SWAP3 PUSH1 0x20 SWAP1 SWAP2 ADD CALLDATALOAD SWAP2 POP JUMP JUMPDEST PUSH0 PUSH1 0x20 DUP3 DUP5 SUB SLT ISZERO PUSH2 0xFA8 JUMPI PUSH0 DUP1 REVERT JUMPDEST PUSH2 0x5F2 DUP3 PUSH2 0xE50 JUMP JUMPDEST PUSH0 DUP1 PUSH1 0x40 DUP4 DUP6 SUB SLT ISZERO PUSH2 0xFC2 JUMPI PUSH0 DUP1 REVERT JUMPDEST PUSH2 0xFCB DUP4 PUSH2 0xE50 JUMP JUMPDEST SWAP2 POP PUSH1 0x20 DUP4 ADD CALLDATALOAD DUP1 ISZERO ISZERO DUP2 EQ PUSH2 0xEA0 JUMPI PUSH0 DUP1 REVERT JUMPDEST PUSH4 0x4E487B71 PUSH1 0xE0 SHL PUSH0 MSTORE PUSH1 0x41 PUSH1 0x4 MSTORE PUSH1 0x24 PUSH0 REVERT JUMPDEST PUSH0 DUP1 PUSH0 DUP1 PUSH1 0x80 DUP6 DUP8 SUB SLT ISZERO PUSH2 0x1006 JUMPI PUSH0 DUP1 REVERT JUMPDEST PUSH2 0x100F DUP6 PUSH2 0xE50 JUMP JUMPDEST SWAP4 POP PUSH2 0x101D PUSH1 0x20 DUP7 ADD PUSH2 0xE50 JUMP JUMPDEST SWAP3 POP PUSH1 0x40 DUP6 ADD CALLDATALOAD SWAP2 POP PUSH1 0x60 DUP6 ADD CALLDATALOAD PUSH8 0xFFFFFFFFFFFFFFFF DUP2 GT ISZERO PUSH2 0x103F JUMPI PUSH0 DUP1 REVERT JUMPDEST DUP6 ADD PUSH1 0x1F DUP2 ADD DUP8 SGT PUSH2 0x104F JUMPI PUSH0 DUP1 REVERT JUMPDEST DUP1 CALLDATALOAD PUSH8 0xFFFFFFFFFFFFFFFF DUP2 GT ISZERO PUSH2 0x1069 JUMPI PUSH2 0x1069 PUSH2 0xFDF JUMP JUMPDEST PUSH1 0x40 MLOAD PUSH1 0x1F DUP3 ADD PUSH1 0x1F NOT SWAP1 DUP2 AND PUSH1 0x3F ADD AND DUP2 ADD PUSH8 0xFFFFFFFFFFFFFFFF DUP2 GT DUP3 DUP3 LT OR ISZERO PUSH2 0x1098 JUMPI PUSH2 0x1098 PUSH2 0xFDF JUMP JUMPDEST PUSH1 0x40 MSTORE DUP2 DUP2 MSTORE DUP3 DUP3 ADD PUSH1 0x20 ADD DUP10 LT ISZERO PUSH2 0x10AF JUMPI PUSH0 DUP1 REVERT JUMPDEST DUP2 PUSH1 0x20 DUP5 ADD PUSH1 0x20 DUP4 ADD CALLDATACOPY PUSH0 PUSH1 0x20 DUP4 DUP4 ADD ADD MSTORE DUP1 SWAP4 POP POP POP POP SWAP3 SWAP6 SWAP2 SWAP5 POP SWAP3 POP JUMP JUMPDEST PUSH0 DUP1 PUSH1 0x40 DUP4 DUP6 SUB SLT ISZERO PUSH2 0x10E1 JUMPI PUSH0 DUP1 REVERT JUMPDEST PUSH2 0x10EA DUP4 PUSH2 0xE50 JUMP JUMPDEST SWAP2 POP PUSH2 0x10F8 PUSH1 0x20 DUP5 ADD PUSH2 0xE50 JUMP JUMPDEST SWAP1 POP SWAP3 POP SWAP3 SWAP1 POP JUMP JUMPDEST PUSH1 0x1 DUP2 DUP2 SHR SWAP1 DUP3 AND DUP1 PUSH2 0x1115 JUMPI PUSH1 0x7F DUP3 AND SWAP2 POP JUMPDEST PUSH1 0x20 DUP3 LT DUP2 SUB PUSH2 0x1133 JUMPI PUSH4 0x4E487B71 PUSH1 0xE0 SHL PUSH0 MSTORE PUSH1 0x22 PUSH1 0x4 MSTORE PUSH1 0x24 PUSH0 REVERT JUMPDEST POP SWAP2 SWAP1 POP JUMP JUMPDEST PUSH4 0x4E487B71 PUSH1 0xE0 SHL PUSH0 MSTORE PUSH1 0x11 PUSH1 0x4 MSTORE PUSH1 0x24 PUSH0 REVERT JUMPDEST DUP2 DUP2 SUB DUP2 DUP2 GT ISZERO PUSH2 0x2B4 JUMPI PUSH2 0x2B4 PUSH2 0x1139 JUMP JUMPDEST DUP1 DUP3 MUL DUP2 ISZERO DUP3 DUP3 DIV DUP5 EQ OR PUSH2 0x2B4 JUMPI PUSH2 0x2B4 PUSH2 0x1139 JUMP JUMPDEST PUSH0 DUP3 PUSH2 0x1191 JUMPI PUSH4 0x4E487B71 PUSH1 0xE0 SHL PUSH0 MSTORE PUSH1 0x12 PUSH1 0x4 MSTORE PUSH1 0x24 PUSH0 REVERT JUMPDEST POP DIV SWAP1 JUMP JUMPDEST PUSH0 DUP2 MLOAD DUP1 PUSH1 0x20 DUP5 ADD DUP6 MCOPY PUSH0 SWAP4 ADD SWAP3 DUP4 MSTORE POP SWAP1 SWAP2 SWAP1 POP JUMP JUMPDEST PUSH0 PUSH2 0xE18 PUSH2 0x11BB DUP4 DUP7 PUSH2 0x1196 JUMP JUMPDEST DUP5 PUSH2 0x1196 JUMP JUMPDEST PUSH1 0x1 PUSH1 0x1 PUSH1 0xA0 SHL SUB DUP6 DUP2 AND DUP3 MSTORE DUP5 AND PUSH1 0x20 DUP3 ADD MSTORE PUSH1 0x40 DUP2 ADD DUP4 SWAP1 MSTORE PUSH1 0x80 PUSH1 0x60 DUP3 ADD DUP2 SWAP1 MSTORE PUSH0 SWAP1 PUSH2 0x11F3 SWAP1 DUP4 ADD DUP5 PUSH2 0xEAB JUMP JUMPDEST SWAP7 SWAP6 POP POP POP POP POP POP JUMP JUMPDEST PUSH0 PUSH1 0x20 DUP3 DUP5 SUB SLT ISZERO PUSH2 0x120D JUMPI PUSH0 DUP1 REVERT JUMPDEST DUP2 MLOAD PUSH2 0x5F2 DUP2 PUSH2 0xE20 JUMP INVALID PUSH9 0x747470733A2F2F6970 PUSH7 0x732E66696C6562 PUSH2 0x7365 0x2E PUSH10 0x6F2F697066732F516D58 PUSH4 0x41317245 PUSH6 0x6F5576634D6E 0x4C MLOAD PUSH6 0x464A76334C76 SSTORE GASLIMIT PUSH6 0x58696A66426B PUSH18 0x4A6745354C434761394D41502FA264697066 PUSH20 0x582212207565FF58153E7C7BAEE26D2076128FE6 PUSH19 0xFA88556D2419C5E79891DC7EFA8A4064736F6C PUSH4 0x4300081A STOP CALLER "
				},
				"gasEstimates": {
					"creation": {
						"codeDepositCost": "952600",
						"executionCost": "infinite",
						"totalCost": "infinite"
					},
					"external": {
						"approve(address,uint256)": "31530",
						"balanceOf(address)": "2630",
						"getApproved(uint256)": "infinite",
						"isApprovedForAll(address,address)": "infinite",
						"name()": "infinite",
						"owner()": "2443",
						"ownerOf(uint256)": "infinite",
						"renounceOwnership()": "infinite",
						"royaltyInfo(uint256,uint256)": "5249",
						"safeTransferFrom(address,address,uint256)": "infinite",
						"safeTransferFrom(address,address,uint256,bytes)": "infinite",
						"setApprovalForAll(address,bool)": "26678",
						"setRoyaltyInfo(address,uint96)": "24917",
						"supportsInterface(bytes4)": "infinite",
						"symbol()": "infinite",
						"tokenURI(uint256)": "infinite",
						"totalSupply()": "2502",
						"transferFrom(address,address,uint256)": "infinite",
						"transferOwnership(address)": "28443"
					},
					"internal": {
						"_baseURI()": "infinite",
						"collectiveMinting(address,uint256)": "infinite"
					}
				},
				"methodIdentifiers": {
					"approve(address,uint256)": "095ea7b3",
					"balanceOf(address)": "70a08231",
					"getApproved(uint256)": "081812fc",
					"isApprovedForAll(address,address)": "e985e9c5",
					"name()": "06fdde03",
					"owner()": "8da5cb5b",
					"ownerOf(uint256)": "6352211e",
					"renounceOwnership()": "715018a6",
					"royaltyInfo(uint256,uint256)": "2a55205a",
					"safeTransferFrom(address,address,uint256)": "42842e0e",
					"safeTransferFrom(address,address,uint256,bytes)": "b88d4fde",
					"setApprovalForAll(address,bool)": "a22cb465",
					"setRoyaltyInfo(address,uint96)": "02fa7c47",
					"supportsInterface(bytes4)": "01ffc9a7",
					"symbol()": "95d89b41",
					"tokenURI(uint256)": "c87b56dd",
					"totalSupply()": "18160ddd",
					"transferFrom(address,address,uint256)": "23b872dd",
					"transferOwnership(address)": "f2fde38b"
				}
			},
			"storageLayout": {
				"storage": [
					{
						"astId": 337,
						"contract": "totalEclipseNFT.sol:totalEclipseNFT",
						"label": "_name",
						"offset": 0,
						"slot": "0",
						"type": "t_string_storage"
					},
					{
						"astId": 339,
						"contract": "totalEclipseNFT.sol:totalEclipseNFT",
						"label": "_symbol",
						"offset": 0,
						"slot": "1",
						"type": "t_string_storage"
					},
					{
						"astId": 343,
						"contract": "totalEclipseNFT.sol:totalEclipseNFT",
						"label": "_owners",
						"offset": 0,
						"slot": "2",
						"type": "t_mapping(t_uint256,t_address)"
					},
					{
						"astId": 347,
						"contract": "totalEclipseNFT.sol:totalEclipseNFT",
						"label": "_balances",
						"offset": 0,
						"slot": "3",
						"type": "t_mapping(t_address,t_uint256)"
					},
					{
						"astId": 351,
						"contract": "totalEclipseNFT.sol:totalEclipseNFT",
						"label": "_tokenApprovals",
						"offset": 0,
						"slot": "4",
						"type": "t_mapping(t_uint256,t_address)"
					},
					{
						"astId": 357,
						"contract": "totalEclipseNFT.sol:totalEclipseNFT",
						"label": "_operatorApprovals",
						"offset": 0,
						"slot": "5",
						"type": "t_mapping(t_address,t_mapping(t_address,t_bool))"
					},
					{
						"astId": 8,
						"contract": "totalEclipseNFT.sol:totalEclipseNFT",
						"label": "_owner",
						"offset": 0,
						"slot": "6",
						"type": "t_address"
					},
					{
						"astId": 1496,
						"contract": "totalEclipseNFT.sol:totalEclipseNFT",
						"label": "_defaultRoyaltyInfo",
						"offset": 0,
						"slot": "7",
						"type": "t_struct(RoyaltyInfo)1493_storage"
					},
					{
						"astId": 1501,
						"contract": "totalEclipseNFT.sol:totalEclipseNFT",
						"label": "_tokenRoyaltyInfo",
						"offset": 0,
						"slot": "8",
						"type": "t_mapping(t_uint256,t_struct(RoyaltyInfo)1493_storage)"
					},
					{
						"astId": 3224,
						"contract": "totalEclipseNFT.sol:totalEclipseNFT",
						"label": "_nextTokenId",
						"offset": 0,
						"slot": "9",
						"type": "t_uint256"
					}
				],
				"types": {
					"t_address": {
						"encoding": "inplace",
						"label": "address",
						"numberOfBytes": "20"
					},
					"t_bool": {
						"encoding": "inplace",
						"label": "bool",
						"numberOfBytes": "1"
					},
					"t_mapping(t_address,t_bool)": {
						"encoding": "mapping",
						"key": "t_address",
						"label": "mapping(address => bool)",
						"numberOfBytes": "32",
						"value": "t_bool"
					},
					"t_mapping(t_address,t_mapping(t_address,t_bool))": {
						"encoding": "mapping",
						"key": "t_address",
						"label": "mapping(address => mapping(address => bool))",
						"numberOfBytes": "32",
						"value": "t_mapping(t_address,t_bool)"
					},
					"t_mapping(t_address,t_uint256)": {
						"encoding": "mapping",
						"key": "t_address",
						"label": "mapping(address => uint256)",
						"numberOfBytes": "32",
						"value": "t_uint256"
					},
					"t_mapping(t_uint256,t_address)": {
						"encoding": "mapping",
						"key": "t_uint256",
						"label": "mapping(uint256 => address)",
						"numberOfBytes": "32",
						"value": "t_address"
					},
					"t_mapping(t_uint256,t_struct(RoyaltyInfo)1493_storage)": {
						"encoding": "mapping",
						"key": "t_uint256",
						"label": "mapping(uint256 => struct ERC2981.RoyaltyInfo)",
						"numberOfBytes": "32",
						"value": "t_struct(RoyaltyInfo)1493_storage"
					},
					"t_string_storage": {
						"encoding": "bytes",
						"label": "string",
						"numberOfBytes": "32"
					},
					"t_struct(RoyaltyInfo)1493_storage": {
						"encoding": "inplace",
						"label": "struct ERC2981.RoyaltyInfo",
						"members": [
							{
								"astId": 1490,
								"contract": "totalEclipseNFT.sol:totalEclipseNFT",
								"label": "receiver",
								"offset": 0,
								"slot": "0",
								"type": "t_address"
							},
							{
								"astId": 1492,
								"contract": "totalEclipseNFT.sol:totalEclipseNFT",
								"label": "royaltyFraction",
								"offset": 20,
								"slot": "0",
								"type": "t_uint96"
							}
						],
						"numberOfBytes": "32"
					},
					"t_uint256": {
						"encoding": "inplace",
						"label": "uint256",
						"numberOfBytes": "32"
					},
					"t_uint96": {
						"encoding": "inplace",
						"label": "uint96",
						"numberOfBytes": "12"
					}
				}
			},
			"userdoc": {
				"kind": "user",
				"methods": {},
				"version": 1
			}
		}
	}
}