{
	"data": {
		"bytecode": {
			"linkReferences": {},
			"object": "608060405234801561000f575f80fd5b5060405161222638038061222683398101604081905261002e9161027a565b336040518060400160405280601381526020017f546f74616c2045636c6970736520416c62756d000000000000000000000000008152506040518060400160405280600381526020016254454160e81b815250815f908161008f9190610360565b50600161009c8282610360565b5050506001600160a01b0381166100cd57604051631e4fbdf760e01b81525f60048201526024015b60405180910390fd5b6100d681610105565b506100e18183610156565b6100fe73a39c821c6999acc27d71882b1ca49fddfa264cca61016c565b505061041a565b600680546001600160a01b038381166001600160a01b0319831681179093556040519116919082907f8be0079c531659141344cd1fd0a4f28419497f9722a3daafe3b4186f6b6457e0905f90a35050565b61015e6101a9565b61016882826101d8565b5050565b6101746101a9565b6001600160a01b03811661019d57604051631e4fbdf760e01b81525f60048201526024016100c4565b6101a681610105565b50565b6006546001600160a01b031633146101d65760405163118cdaa760e01b81523360048201526024016100c4565b565b6127106001600160601b03821681101561021757604051636f483d0960e01b81526001600160601b0383166004820152602481018290526044016100c4565b6001600160a01b03831661024057604051635b6cc80560e11b81525f60048201526024016100c4565b50604080518082019091526001600160a01b039092168083526001600160601b039091166020909201829052600160a01b90910217600755565b5f806040838503121561028b575f80fd5b82516001600160601b03811681146102a1575f80fd5b60208401519092506001600160a01b03811681146102bd575f80fd5b809150509250929050565b634e487b7160e01b5f52604160045260245ffd5b600181811c908216806102f057607f821691505b60208210810361030e57634e487b7160e01b5f52602260045260245ffd5b50919050565b601f82111561035b57805f5260205f20601f840160051c810160208510156103395750805b601f840160051c820191505b81811015610358575f8155600101610345565b50505b505050565b81516001600160401b03811115610379576103796102c8565b61038d8161038784546102dc565b84610314565b6020601f8211600181146103bf575f83156103a85750848201515b5f19600385901b1c1916600184901b178455610358565b5f84815260208120601f198516915b828110156103ee57878501518255602094850194600190920191016103ce565b508482101561040b57868401515f19600387901b60f8161c191681555b50505050600190811b01905550565b611dff806104275f395ff3fe608060405260043610610168575f3560e01c80636352211e116100c9578063b88d4fde11610078578063b88d4fde146103f1578063bb86759f14610410578063c87b56dd14610423578063d2bcdc6014610442578063e985e9c514610455578063f2fde38b14610474578063f3720cca14610493575f80fd5b80636352211e1461031e57806370a082311461033d578063715018a61461035c5780638da5cb5b1461037057806395d89b411461038d578063a22cb465146103a1578063a2e34586146103c0575f80fd5b806323b872dd1161012557806323b872dd1461024f578063293945b41461026e5780632a55205a14610283578063343e988c146102c1578063414e80291461026e57806342842e0e146102e057806357a2eda9146102ff575f80fd5b806301ffc9a71461016c57806302fa7c47146101a057806306fdde03146101c1578063081812fc146101e2578063095ea7b31461020e57806318160ddd1461022d575b5f80fd5b348015610177575f80fd5b5061018b61018636600461172e565b6104b2565b60405190151581526020015b60405180910390f35b3480156101ab575f80fd5b506101bf6101ba366004611764565b6104c2565b005b3480156101cc575f80fd5b506101d56104d8565b60405161019791906117d2565b3480156101ed575f80fd5b506102016101fc3660046117e4565b610567565b60405161019791906117fb565b348015610219575f80fd5b506101bf61022836600461180f565b61058e565b348015610238575f80fd5b50610241610599565b604051908152602001610197565b34801561025a575f80fd5b506101bf610269366004611837565b6105a8565b348015610279575f80fd5b506102416104e281565b34801561028e575f80fd5b506102a261029d366004611871565b61063a565b604080516001600160a01b039093168352602083019190915201610197565b3480156102cc575f80fd5b506102416102db366004611891565b6106e4565b3480156102eb575f80fd5b506101bf6102fa366004611837565b610732565b34801561030a575f80fd5b506101bf6103193660046117e4565b610751565b348015610329575f80fd5b506102016103383660046117e4565b6108df565b348015610348575f80fd5b506102416103573660046118bb565b6108e9565b348015610367575f80fd5b506101bf61092e565b34801561037b575f80fd5b506006546001600160a01b0316610201565b348015610398575f80fd5b506101d5610941565b3480156103ac575f80fd5b506101bf6103bb3660046118d4565b610950565b3480156103cb575f80fd5b506103df6103da3660046117e4565b61095b565b60405161019796959493929190611902565b3480156103fc575f80fd5b506101bf61040b3660046119d5565b610aa1565b6101bf61041e3660046117e4565b610ab8565b34801561042e575f80fd5b506101d561043d3660046117e4565b610b7f565b6101bf610450366004611871565b610be4565b348015610460575f80fd5b5061018b61046f366004611a4b565b610db0565b34801561047f575f80fd5b506101bf61048e3660046118bb565b610ddd565b34801561049e575f80fd5b506101bf6104ad366004611a91565b610e1a565b5f6104bc82610ecd565b92915050565b6104ca610ef1565b6104d48282610f1e565b5050565b60605f80546104e690611af4565b80601f016020809104026020016040519081016040528092919081815260200182805461051290611af4565b801561055d5780601f106105345761010080835404028352916020019161055d565b820191905f5260205f20905b81548152906001019060200180831161054057829003601f168201915b5050505050905090565b5f61057182610fc0565b505f828152600460205260409020546001600160a01b03166104bc565b6104d4828233610ff8565b5f6105a3600a5490565b905090565b6001600160a01b0382166105da575f604051633250574960e11b81526004016105d191906117fb565b60405180910390fd5b5f6105e6838333611005565b9050836001600160a01b0316816001600160a01b031614610634576040516364283d7b60e01b81526001600160a01b03808616600483015260248201849052821660448201526064016105d1565b50505050565b5f8281526008602090815260408083208151808301909252546001600160a01b038116808352600160a01b9091046001600160601b03169282019290925282916106ae5750604080518082019091526007546001600160a01b0381168252600160a01b90046001600160601b031660208201525b60208101515f90612710906106cc906001600160601b031687611b40565b6106d69190611b57565b915196919550909350505050565b5f8281526009602090815260408083206001600160a01b0385168452600681019092528220546104e261071f82670de0b6b3a7640000611b40565b6107299190611b57565b95945050505050565b61074c83838360405180602001604052805f815250610aa1565b505050565b5f8181526009602090815260408083203384526006810190925290912054806107cc5760405162461bcd60e51b815260206004820152602760248201527f596f7520646f206e6f74206f776e20616e7920736861726573206f66207468696044820152667320747261636b60c81b60648201526084016105d1565b5f6107d784336106e4565b90505f670de0b6b3a76400008285600501546107f39190611b40565b6107fd9190611b57565b90505f811161085a5760405162461bcd60e51b815260206004820152602360248201527f4e6f20726f79616c747920617661696c61626c6520666f7220776974686472616044820152621dd85b60ea1b60648201526084016105d1565b80846005015f82825461086d9190611b76565b9091555050604051339082156108fc029083905f818181858888f1935050505015801561089c573d5f803e3d5ffd5b507fd6ce75900eecaacadb4848f3b1a4e89cba8434d748d82adab2caf1bf248b5d178533836040516108d093929190611b89565b60405180910390a15050505050565b5f6104bc82610fc0565b5f6001600160a01b038216610913575f6040516322718ad960e21b81526004016105d191906117fb565b506001600160a01b03165f9081526003602052604090205490565b610936610ef1565b61093f5f6110f7565b565b6060600180546104e690611af4565b6104d4338383611148565b60096020525f908152604090208054819061097590611af4565b80601f01602080910402602001604051908101604052809291908181526020018280546109a190611af4565b80156109ec5780601f106109c3576101008083540402835291602001916109ec565b820191905f5260205f20905b8154815290600101906020018083116109cf57829003601f168201915b505050505090806001018054610a0190611af4565b80601f0160208091040260200160405190810160405280929190818152602001828054610a2d90611af4565b8015610a785780601f10610a4f57610100808354040283529160200191610a78565b820191905f5260205f20905b815481529060010190602001808311610a5b57829003601f168201915b5050506002840154600385015460048601546005909601549495919490935060ff909116915086565b610aac8484846105a8565b610634848484846111dd565b610ac0610ef1565b5f81815260096020526040902034610b2b5760405162461bcd60e51b815260206004820152602860248201527f526f79616c747920616d6f756e74206d7573742062652067726561746572207460448201526768616e207a65726f60c01b60648201526084016105d1565b34816005015f828254610b3e9190611ba8565b9091555050604080518381523460208201527fe03872bdffa6568df2cc485cf9f211d60a716c99c5633e1edc87102d16112500910160405180910390a15050565b6060610b8a82610fc0565b505f610b946112f1565b90505f815111610bb25760405180602001604052805f815250610bdd565b80610bbc84611311565b604051602001610bcd929190611bd2565b6040516020818303038152906040525b9392505050565b5f828152600960205260409020600481015460ff16610c3b5760405162461bcd60e51b8152602060048201526013602482015272547261636b206e6f7420617661696c61626c6560681b60448201526064016105d1565b5f82118015610c4e575080600301548211155b610c945760405162461bcd60e51b8152602060048201526017602482015276496e76616c6964206e756d626572206f6673686172657360481b60448201526064016105d1565b6002810154610ca39083611b40565b610cb490662386f26fc10000611b40565b341015610cfa5760405162461bcd60e51b8152602060048201526014602482015273125b9cdd59999a58da595b9d081c185e5b595b9d60621b60448201526064016105d1565b335f90815260068201602052604081208054849290610d1a908490611ba8565b9250508190555081816003015f828254610d349190611b76565b90915550506006546040516001600160a01b03909116903480156108fc02915f818181858888f19350505050158015610d6f573d5f803e3d5ffd5b507fa5afafc7c052a234f91512f360beeb7b6db7a0692bbd017ab5632d80a03a4bc0833384604051610da393929190611b89565b60405180910390a1505050565b6001600160a01b039182165f90815260056020908152604080832093909416825291909152205460ff1690565b610de5610ef1565b6001600160a01b038116610e0e575f604051631e4fbdf760e01b81526004016105d191906117fb565b610e17816110f7565b50565b610e22610ef1565b5f610e2c600a5490565b9050610e3833826113a0565b5f81815260096020526040902080610e508582611c2a565b5060018101610e5f8482611c2a565b506104e260028201819055600382015560048101805460ff19166001179055610e8c600a80546001019055565b7f21579433a032855e20e8afc48e980ddae0b6285e4aa03370f03192be12bea28b828585604051610ebf93929190611ce4565b60405180910390a150505050565b5f6001600160e01b0319821663152a902d60e11b14806104bc57506104bc826113b9565b6006546001600160a01b0316331461093f573360405163118cdaa760e01b81526004016105d191906117fb565b6127106001600160601b038216811015610f5d57604051636f483d0960e01b81526001600160601b0383166004820152602481018290526044016105d1565b6001600160a01b038316610f86575f604051635b6cc80560e11b81526004016105d191906117fb565b50604080518082019091526001600160a01b039092168083526001600160601b039091166020909201829052600160a01b90910217600755565b5f818152600260205260408120546001600160a01b0316806104bc57604051637e27328960e01b8152600481018490526024016105d1565b61074c8383836001611408565b5f828152600260205260408120546001600160a01b039081169083161561103157611031818486611503565b6001600160a01b0381161561106b5761104c5f855f80611408565b6001600160a01b0381165f90815260036020526040902080545f190190555b6001600160a01b03851615611099576001600160a01b0385165f908152600360205260409020805460010190555b5f8481526002602052604080822080546001600160a01b0319166001600160a01b0389811691821790925591518793918516917fddf252ad1be2c89b69c2b068fc378daa952ba7f163c4a11628f55a4df523b3ef91a4949350505050565b600680546001600160a01b038381166001600160a01b0319831681179093556040519116919082907f8be0079c531659141344cd1fd0a4f28419497f9722a3daafe3b4186f6b6457e0905f90a35050565b6001600160a01b0382166111715781604051630b61174360e31b81526004016105d191906117fb565b6001600160a01b038381165f81815260056020908152604080832094871680845294825291829020805460ff191686151590811790915591519182527f17307eab39ab6107e8899845ad3d59bd9653f200f220920489ca2b5937696c31910160405180910390a3505050565b6001600160a01b0383163b1561063457604051630a85bd0160e11b81526001600160a01b0384169063150b7a029061121f903390889087908790600401611d18565b6020604051808303815f875af1925050508015611259575060408051601f3d908101601f1916820190925261125691810190611d4a565b60015b6112b7573d808015611286576040519150601f19603f3d011682016040523d82523d5f602084013e61128b565b606091505b5080515f036112af5783604051633250574960e11b81526004016105d191906117fb565b805181602001fd5b6001600160e01b03198116630a85bd0160e11b146112ea5783604051633250574960e11b81526004016105d191906117fb565b5050505050565b60606040518060a0016040528060648152602001611d6660649139905090565b60605f61131d83611567565b60010190505f816001600160401b0381111561133b5761133b61194c565b6040519080825280601f01601f191660200182016040528015611365576020820181803683370190505b5090508181016020015b5f19016f181899199a1a9b1b9c1cb0b131b232b360811b600a86061a8153600a850494508461136f57509392505050565b6104d4828260405180602001604052805f81525061163e565b5f6001600160e01b031982166380ac58cd60e01b14806113e957506001600160e01b03198216635b5e139f60e01b145b806104bc57506301ffc9a760e01b6001600160e01b03198316146104bc565b808061141c57506001600160a01b03821615155b156114d4575f61142b84610fc0565b90506001600160a01b038316158015906114575750826001600160a01b0316816001600160a01b031614155b801561146a57506114688184610db0565b155b1561148a578260405163a9fbf51f60e01b81526004016105d191906117fb565b81156114d25783856001600160a01b0316826001600160a01b03167f8c5be1e5ebec7d5bd14f71427d1e84f3dd0314c0f7b2291e5b200ac8c7c3b92560405160405180910390a45b505b50505f90815260046020526040902080546001600160a01b0319166001600160a01b0392909216919091179055565b61150e838383611654565b61074c576001600160a01b03831661153c57604051637e27328960e01b8152600481018290526024016105d1565b60405163177e802f60e01b81526001600160a01b0383166004820152602481018290526044016105d1565b5f8072184f03e93ff9f4daa797ed6e38ed64bf6a1f0160401b83106115a55772184f03e93ff9f4daa797ed6e38ed64bf6a1f0160401b830492506040015b6d04ee2d6d415b85acef810000000083106115d1576d04ee2d6d415b85acef8100000000830492506020015b662386f26fc1000083106115ef57662386f26fc10000830492506010015b6305f5e1008310611607576305f5e100830492506008015b612710831061161b57612710830492506004015b6064831061162d576064830492506002015b600a83106104bc5760010192915050565b61164883836116b8565b61074c5f8484846111dd565b5f6001600160a01b038316158015906116b05750826001600160a01b0316846001600160a01b0316148061168d575061168d8484610db0565b806116b057505f828152600460205260409020546001600160a01b038481169116145b949350505050565b6001600160a01b0382166116e1575f604051633250574960e11b81526004016105d191906117fb565b5f6116ed83835f611005565b90506001600160a01b0381161561074c575f6040516339e3563760e11b81526004016105d191906117fb565b6001600160e01b031981168114610e17575f80fd5b5f6020828403121561173e575f80fd5b8135610bdd81611719565b80356001600160a01b038116811461175f575f80fd5b919050565b5f8060408385031215611775575f80fd5b61177e83611749565b915060208301356001600160601b0381168114611799575f80fd5b809150509250929050565b5f81518084528060208401602086015e5f602082860101526020601f19601f83011685010191505092915050565b602081525f610bdd60208301846117a4565b5f602082840312156117f4575f80fd5b5035919050565b6001600160a01b0391909116815260200190565b5f8060408385031215611820575f80fd5b61182983611749565b946020939093013593505050565b5f805f60608486031215611849575f80fd5b61185284611749565b925061186060208501611749565b929592945050506040919091013590565b5f8060408385031215611882575f80fd5b50508035926020909101359150565b5f80604083850312156118a2575f80fd5b823591506118b260208401611749565b90509250929050565b5f602082840312156118cb575f80fd5b610bdd82611749565b5f80604083850312156118e5575f80fd5b6118ee83611749565b915060208301358015158114611799575f80fd5b60c081525f61191460c08301896117a4565b828103602084015261192681896117a4565b604084019790975250506060810193909352901515608083015260a09091015292915050565b634e487b7160e01b5f52604160045260245ffd5b5f806001600160401b038411156119795761197961194c565b50604051601f19601f85018116603f011681018181106001600160401b03821117156119a7576119a761194c565b6040528381529050808284018510156119be575f80fd5b838360208301375f60208583010152509392505050565b5f805f80608085870312156119e8575f80fd5b6119f185611749565b93506119ff60208601611749565b92506040850135915060608501356001600160401b03811115611a20575f80fd5b8501601f81018713611a30575f80fd5b611a3f87823560208401611960565b91505092959194509250565b5f8060408385031215611a5c575f80fd5b611a6583611749565b91506118b260208401611749565b5f82601f830112611a82575f80fd5b610bdd83833560208501611960565b5f8060408385031215611aa2575f80fd5b82356001600160401b03811115611ab7575f80fd5b611ac385828601611a73565b92505060208301356001600160401b03811115611ade575f80fd5b611aea85828601611a73565b9150509250929050565b600181811c90821680611b0857607f821691505b602082108103611b2657634e487b7160e01b5f52602260045260245ffd5b50919050565b634e487b7160e01b5f52601160045260245ffd5b80820281158282048414176104bc576104bc611b2c565b5f82611b7157634e487b7160e01b5f52601260045260245ffd5b500490565b818103818111156104bc576104bc611b2c565b9283526001600160a01b03919091166020830152604082015260600190565b808201808211156104bc576104bc611b2c565b5f81518060208401855e5f93019283525090919050565b5f6116b0611be08386611bbb565b84611bbb565b601f82111561074c57805f5260205f20601f840160051c81016020851015611c0b5750805b601f840160051c820191505b818110156112ea575f8155600101611c17565b81516001600160401b03811115611c4357611c4361194c565b611c5781611c518454611af4565b84611be6565b6020601f821160018114611c89575f8315611c725750848201515b5f19600385901b1c1916600184901b1784556112ea565b5f84815260208120601f198516915b82811015611cb85787850151825560209485019460019092019101611c98565b5084821015611cd557868401515f19600387901b60f8161c191681555b50505050600190811b01905550565b838152606060208201525f611cfc60608301856117a4565b8281036040840152611d0e81856117a4565b9695505050505050565b6001600160a01b03858116825284166020820152604081018390526080606082018190525f90611d0e908301846117a4565b5f60208284031215611d5a575f80fd5b8151610bdd8161171956fe68747470733a2f2f696e686572656e742d736361726c65742d746172736965722e6d7966696c65626173652e636f6d2f697066732f516d64414b6a4c3339684e5952434470344a7339613844524a794d75567362615967375334764b586354526637652fa2646970667358221220472ef6ddb1512f61777cbbea249284f7f1ed7aa56f1dea5870dd89f3af5df03264736f6c634300081a0033",
			"opcodes": "PUSH1 0x80 PUSH1 0x40 MSTORE CALLVALUE DUP1 ISZERO PUSH2 0xF JUMPI PUSH0 DUP1 REVERT JUMPDEST POP PUSH1 0x40 MLOAD PUSH2 0x2226 CODESIZE SUB DUP1 PUSH2 0x2226 DUP4 CODECOPY DUP2 ADD PUSH1 0x40 DUP2 SWAP1 MSTORE PUSH2 0x2E SWAP2 PUSH2 0x27A JUMP JUMPDEST CALLER PUSH1 0x40 MLOAD DUP1 PUSH1 0x40 ADD PUSH1 0x40 MSTORE DUP1 PUSH1 0x13 DUP2 MSTORE PUSH1 0x20 ADD PUSH32 0x546F74616C2045636C6970736520416C62756D00000000000000000000000000 DUP2 MSTORE POP PUSH1 0x40 MLOAD DUP1 PUSH1 0x40 ADD PUSH1 0x40 MSTORE DUP1 PUSH1 0x3 DUP2 MSTORE PUSH1 0x20 ADD PUSH3 0x544541 PUSH1 0xE8 SHL DUP2 MSTORE POP DUP2 PUSH0 SWAP1 DUP2 PUSH2 0x8F SWAP2 SWAP1 PUSH2 0x360 JUMP JUMPDEST POP PUSH1 0x1 PUSH2 0x9C DUP3 DUP3 PUSH2 0x360 JUMP JUMPDEST POP POP POP PUSH1 0x1 PUSH1 0x1 PUSH1 0xA0 SHL SUB DUP2 AND PUSH2 0xCD JUMPI PUSH1 0x40 MLOAD PUSH4 0x1E4FBDF7 PUSH1 0xE0 SHL DUP2 MSTORE PUSH0 PUSH1 0x4 DUP3 ADD MSTORE PUSH1 0x24 ADD JUMPDEST PUSH1 0x40 MLOAD DUP1 SWAP2 SUB SWAP1 REVERT JUMPDEST PUSH2 0xD6 DUP2 PUSH2 0x105 JUMP JUMPDEST POP PUSH2 0xE1 DUP2 DUP4 PUSH2 0x156 JUMP JUMPDEST PUSH2 0xFE PUSH20 0xA39C821C6999ACC27D71882B1CA49FDDFA264CCA PUSH2 0x16C JUMP JUMPDEST POP POP PUSH2 0x41A JUMP JUMPDEST PUSH1 0x6 DUP1 SLOAD PUSH1 0x1 PUSH1 0x1 PUSH1 0xA0 SHL SUB DUP4 DUP2 AND PUSH1 0x1 PUSH1 0x1 PUSH1 0xA0 SHL SUB NOT DUP4 AND DUP2 OR SWAP1 SWAP4 SSTORE PUSH1 0x40 MLOAD SWAP2 AND SWAP2 SWAP1 DUP3 SWAP1 PUSH32 0x8BE0079C531659141344CD1FD0A4F28419497F9722A3DAAFE3B4186F6B6457E0 SWAP1 PUSH0 SWAP1 LOG3 POP POP JUMP JUMPDEST PUSH2 0x15E PUSH2 0x1A9 JUMP JUMPDEST PUSH2 0x168 DUP3 DUP3 PUSH2 0x1D8 JUMP JUMPDEST POP POP JUMP JUMPDEST PUSH2 0x174 PUSH2 0x1A9 JUMP JUMPDEST PUSH1 0x1 PUSH1 0x1 PUSH1 0xA0 SHL SUB DUP2 AND PUSH2 0x19D JUMPI PUSH1 0x40 MLOAD PUSH4 0x1E4FBDF7 PUSH1 0xE0 SHL DUP2 MSTORE PUSH0 PUSH1 0x4 DUP3 ADD MSTORE PUSH1 0x24 ADD PUSH2 0xC4 JUMP JUMPDEST PUSH2 0x1A6 DUP2 PUSH2 0x105 JUMP JUMPDEST POP JUMP JUMPDEST PUSH1 0x6 SLOAD PUSH1 0x1 PUSH1 0x1 PUSH1 0xA0 SHL SUB AND CALLER EQ PUSH2 0x1D6 JUMPI PUSH1 0x40 MLOAD PUSH4 0x118CDAA7 PUSH1 0xE0 SHL DUP2 MSTORE CALLER PUSH1 0x4 DUP3 ADD MSTORE PUSH1 0x24 ADD PUSH2 0xC4 JUMP JUMPDEST JUMP JUMPDEST PUSH2 0x2710 PUSH1 0x1 PUSH1 0x1 PUSH1 0x60 SHL SUB DUP3 AND DUP2 LT ISZERO PUSH2 0x217 JUMPI PUSH1 0x40 MLOAD PUSH4 0x6F483D09 PUSH1 0xE0 SHL DUP2 MSTORE PUSH1 0x1 PUSH1 0x1 PUSH1 0x60 SHL SUB DUP4 AND PUSH1 0x4 DUP3 ADD MSTORE PUSH1 0x24 DUP2 ADD DUP3 SWAP1 MSTORE PUSH1 0x44 ADD PUSH2 0xC4 JUMP JUMPDEST PUSH1 0x1 PUSH1 0x1 PUSH1 0xA0 SHL SUB DUP4 AND PUSH2 0x240 JUMPI PUSH1 0x40 MLOAD PUSH4 0x5B6CC805 PUSH1 0xE1 SHL DUP2 MSTORE PUSH0 PUSH1 0x4 DUP3 ADD MSTORE PUSH1 0x24 ADD PUSH2 0xC4 JUMP JUMPDEST POP PUSH1 0x40 DUP1 MLOAD DUP1 DUP3 ADD SWAP1 SWAP2 MSTORE PUSH1 0x1 PUSH1 0x1 PUSH1 0xA0 SHL SUB SWAP1 SWAP3 AND DUP1 DUP4 MSTORE PUSH1 0x1 PUSH1 0x1 PUSH1 0x60 SHL SUB SWAP1 SWAP2 AND PUSH1 0x20 SWAP1 SWAP3 ADD DUP3 SWAP1 MSTORE PUSH1 0x1 PUSH1 0xA0 SHL SWAP1 SWAP2 MUL OR PUSH1 0x7 SSTORE JUMP JUMPDEST PUSH0 DUP1 PUSH1 0x40 DUP4 DUP6 SUB SLT ISZERO PUSH2 0x28B JUMPI PUSH0 DUP1 REVERT JUMPDEST DUP3 MLOAD PUSH1 0x1 PUSH1 0x1 PUSH1 0x60 SHL SUB DUP2 AND DUP2 EQ PUSH2 0x2A1 JUMPI PUSH0 DUP1 REVERT JUMPDEST PUSH1 0x20 DUP5 ADD MLOAD SWAP1 SWAP3 POP PUSH1 0x1 PUSH1 0x1 PUSH1 0xA0 SHL SUB DUP2 AND DUP2 EQ PUSH2 0x2BD JUMPI PUSH0 DUP1 REVERT JUMPDEST DUP1 SWAP2 POP POP SWAP3 POP SWAP3 SWAP1 POP JUMP JUMPDEST PUSH4 0x4E487B71 PUSH1 0xE0 SHL PUSH0 MSTORE PUSH1 0x41 PUSH1 0x4 MSTORE PUSH1 0x24 PUSH0 REVERT JUMPDEST PUSH1 0x1 DUP2 DUP2 SHR SWAP1 DUP3 AND DUP1 PUSH2 0x2F0 JUMPI PUSH1 0x7F DUP3 AND SWAP2 POP JUMPDEST PUSH1 0x20 DUP3 LT DUP2 SUB PUSH2 0x30E JUMPI PUSH4 0x4E487B71 PUSH1 0xE0 SHL PUSH0 MSTORE PUSH1 0x22 PUSH1 0x4 MSTORE PUSH1 0x24 PUSH0 REVERT JUMPDEST POP SWAP2 SWAP1 POP JUMP JUMPDEST PUSH1 0x1F DUP3 GT ISZERO PUSH2 0x35B JUMPI DUP1 PUSH0 MSTORE PUSH1 0x20 PUSH0 KECCAK256 PUSH1 0x1F DUP5 ADD PUSH1 0x5 SHR DUP2 ADD PUSH1 0x20 DUP6 LT ISZERO PUSH2 0x339 JUMPI POP DUP1 JUMPDEST PUSH1 0x1F DUP5 ADD PUSH1 0x5 SHR DUP3 ADD SWAP2 POP JUMPDEST DUP2 DUP2 LT ISZERO PUSH2 0x358 JUMPI PUSH0 DUP2 SSTORE PUSH1 0x1 ADD PUSH2 0x345 JUMP JUMPDEST POP POP JUMPDEST POP POP POP JUMP JUMPDEST DUP2 MLOAD PUSH1 0x1 PUSH1 0x1 PUSH1 0x40 SHL SUB DUP2 GT ISZERO PUSH2 0x379 JUMPI PUSH2 0x379 PUSH2 0x2C8 JUMP JUMPDEST PUSH2 0x38D DUP2 PUSH2 0x387 DUP5 SLOAD PUSH2 0x2DC JUMP JUMPDEST DUP5 PUSH2 0x314 JUMP JUMPDEST PUSH1 0x20 PUSH1 0x1F DUP3 GT PUSH1 0x1 DUP2 EQ PUSH2 0x3BF JUMPI PUSH0 DUP4 ISZERO PUSH2 0x3A8 JUMPI POP DUP5 DUP3 ADD MLOAD JUMPDEST PUSH0 NOT PUSH1 0x3 DUP6 SWAP1 SHL SHR NOT AND PUSH1 0x1 DUP5 SWAP1 SHL OR DUP5 SSTORE PUSH2 0x358 JUMP JUMPDEST PUSH0 DUP5 DUP2 MSTORE PUSH1 0x20 DUP2 KECCAK256 PUSH1 0x1F NOT DUP6 AND SWAP2 JUMPDEST DUP3 DUP2 LT ISZERO PUSH2 0x3EE JUMPI DUP8 DUP6 ADD MLOAD DUP3 SSTORE PUSH1 0x20 SWAP5 DUP6 ADD SWAP5 PUSH1 0x1 SWAP1 SWAP3 ADD SWAP2 ADD PUSH2 0x3CE JUMP JUMPDEST POP DUP5 DUP3 LT ISZERO PUSH2 0x40B JUMPI DUP7 DUP5 ADD MLOAD PUSH0 NOT PUSH1 0x3 DUP8 SWAP1 SHL PUSH1 0xF8 AND SHR NOT AND DUP2 SSTORE JUMPDEST POP POP POP POP PUSH1 0x1 SWAP1 DUP2 SHL ADD SWAP1 SSTORE POP JUMP JUMPDEST PUSH2 0x1DFF DUP1 PUSH2 0x427 PUSH0 CODECOPY PUSH0 RETURN INVALID PUSH1 0x80 PUSH1 0x40 MSTORE PUSH1 0x4 CALLDATASIZE LT PUSH2 0x168 JUMPI PUSH0 CALLDATALOAD PUSH1 0xE0 SHR DUP1 PUSH4 0x6352211E GT PUSH2 0xC9 JUMPI DUP1 PUSH4 0xB88D4FDE GT PUSH2 0x78 JUMPI DUP1 PUSH4 0xB88D4FDE EQ PUSH2 0x3F1 JUMPI DUP1 PUSH4 0xBB86759F EQ PUSH2 0x410 JUMPI DUP1 PUSH4 0xC87B56DD EQ PUSH2 0x423 JUMPI DUP1 PUSH4 0xD2BCDC60 EQ PUSH2 0x442 JUMPI DUP1 PUSH4 0xE985E9C5 EQ PUSH2 0x455 JUMPI DUP1 PUSH4 0xF2FDE38B EQ PUSH2 0x474 JUMPI DUP1 PUSH4 0xF3720CCA EQ PUSH2 0x493 JUMPI PUSH0 DUP1 REVERT JUMPDEST DUP1 PUSH4 0x6352211E EQ PUSH2 0x31E JUMPI DUP1 PUSH4 0x70A08231 EQ PUSH2 0x33D JUMPI DUP1 PUSH4 0x715018A6 EQ PUSH2 0x35C JUMPI DUP1 PUSH4 0x8DA5CB5B EQ PUSH2 0x370 JUMPI DUP1 PUSH4 0x95D89B41 EQ PUSH2 0x38D JUMPI DUP1 PUSH4 0xA22CB465 EQ PUSH2 0x3A1 JUMPI DUP1 PUSH4 0xA2E34586 EQ PUSH2 0x3C0 JUMPI PUSH0 DUP1 REVERT JUMPDEST DUP1 PUSH4 0x23B872DD GT PUSH2 0x125 JUMPI DUP1 PUSH4 0x23B872DD EQ PUSH2 0x24F JUMPI DUP1 PUSH4 0x293945B4 EQ PUSH2 0x26E JUMPI DUP1 PUSH4 0x2A55205A EQ PUSH2 0x283 JUMPI DUP1 PUSH4 0x343E988C EQ PUSH2 0x2C1 JUMPI DUP1 PUSH4 0x414E8029 EQ PUSH2 0x26E JUMPI DUP1 PUSH4 0x42842E0E EQ PUSH2 0x2E0 JUMPI DUP1 PUSH4 0x57A2EDA9 EQ PUSH2 0x2FF JUMPI PUSH0 DUP1 REVERT JUMPDEST DUP1 PUSH4 0x1FFC9A7 EQ PUSH2 0x16C JUMPI DUP1 PUSH4 0x2FA7C47 EQ PUSH2 0x1A0 JUMPI DUP1 PUSH4 0x6FDDE03 EQ PUSH2 0x1C1 JUMPI DUP1 PUSH4 0x81812FC EQ PUSH2 0x1E2 JUMPI DUP1 PUSH4 0x95EA7B3 EQ PUSH2 0x20E JUMPI DUP1 PUSH4 0x18160DDD EQ PUSH2 0x22D JUMPI JUMPDEST PUSH0 DUP1 REVERT JUMPDEST CALLVALUE DUP1 ISZERO PUSH2 0x177 JUMPI PUSH0 DUP1 REVERT JUMPDEST POP PUSH2 0x18B PUSH2 0x186 CALLDATASIZE PUSH1 0x4 PUSH2 0x172E JUMP JUMPDEST PUSH2 0x4B2 JUMP JUMPDEST PUSH1 0x40 MLOAD SWAP1 ISZERO ISZERO DUP2 MSTORE PUSH1 0x20 ADD JUMPDEST PUSH1 0x40 MLOAD DUP1 SWAP2 SUB SWAP1 RETURN JUMPDEST CALLVALUE DUP1 ISZERO PUSH2 0x1AB JUMPI PUSH0 DUP1 REVERT JUMPDEST POP PUSH2 0x1BF PUSH2 0x1BA CALLDATASIZE PUSH1 0x4 PUSH2 0x1764 JUMP JUMPDEST PUSH2 0x4C2 JUMP JUMPDEST STOP JUMPDEST CALLVALUE DUP1 ISZERO PUSH2 0x1CC JUMPI PUSH0 DUP1 REVERT JUMPDEST POP PUSH2 0x1D5 PUSH2 0x4D8 JUMP JUMPDEST PUSH1 0x40 MLOAD PUSH2 0x197 SWAP2 SWAP1 PUSH2 0x17D2 JUMP JUMPDEST CALLVALUE DUP1 ISZERO PUSH2 0x1ED JUMPI PUSH0 DUP1 REVERT JUMPDEST POP PUSH2 0x201 PUSH2 0x1FC CALLDATASIZE PUSH1 0x4 PUSH2 0x17E4 JUMP JUMPDEST PUSH2 0x567 JUMP JUMPDEST PUSH1 0x40 MLOAD PUSH2 0x197 SWAP2 SWAP1 PUSH2 0x17FB JUMP JUMPDEST CALLVALUE DUP1 ISZERO PUSH2 0x219 JUMPI PUSH0 DUP1 REVERT JUMPDEST POP PUSH2 0x1BF PUSH2 0x228 CALLDATASIZE PUSH1 0x4 PUSH2 0x180F JUMP JUMPDEST PUSH2 0x58E JUMP JUMPDEST CALLVALUE DUP1 ISZERO PUSH2 0x238 JUMPI PUSH0 DUP1 REVERT JUMPDEST POP PUSH2 0x241 PUSH2 0x599 JUMP JUMPDEST PUSH1 0x40 MLOAD SWAP1 DUP2 MSTORE PUSH1 0x20 ADD PUSH2 0x197 JUMP JUMPDEST CALLVALUE DUP1 ISZERO PUSH2 0x25A JUMPI PUSH0 DUP1 REVERT JUMPDEST POP PUSH2 0x1BF PUSH2 0x269 CALLDATASIZE PUSH1 0x4 PUSH2 0x1837 JUMP JUMPDEST PUSH2 0x5A8 JUMP JUMPDEST CALLVALUE DUP1 ISZERO PUSH2 0x279 JUMPI PUSH0 DUP1 REVERT JUMPDEST POP PUSH2 0x241 PUSH2 0x4E2 DUP2 JUMP JUMPDEST CALLVALUE DUP1 ISZERO PUSH2 0x28E JUMPI PUSH0 DUP1 REVERT JUMPDEST POP PUSH2 0x2A2 PUSH2 0x29D CALLDATASIZE PUSH1 0x4 PUSH2 0x1871 JUMP JUMPDEST PUSH2 0x63A JUMP JUMPDEST PUSH1 0x40 DUP1 MLOAD PUSH1 0x1 PUSH1 0x1 PUSH1 0xA0 SHL SUB SWAP1 SWAP4 AND DUP4 MSTORE PUSH1 0x20 DUP4 ADD SWAP2 SWAP1 SWAP2 MSTORE ADD PUSH2 0x197 JUMP JUMPDEST CALLVALUE DUP1 ISZERO PUSH2 0x2CC JUMPI PUSH0 DUP1 REVERT JUMPDEST POP PUSH2 0x241 PUSH2 0x2DB CALLDATASIZE PUSH1 0x4 PUSH2 0x1891 JUMP JUMPDEST PUSH2 0x6E4 JUMP JUMPDEST CALLVALUE DUP1 ISZERO PUSH2 0x2EB JUMPI PUSH0 DUP1 REVERT JUMPDEST POP PUSH2 0x1BF PUSH2 0x2FA CALLDATASIZE PUSH1 0x4 PUSH2 0x1837 JUMP JUMPDEST PUSH2 0x732 JUMP JUMPDEST CALLVALUE DUP1 ISZERO PUSH2 0x30A JUMPI PUSH0 DUP1 REVERT JUMPDEST POP PUSH2 0x1BF PUSH2 0x319 CALLDATASIZE PUSH1 0x4 PUSH2 0x17E4 JUMP JUMPDEST PUSH2 0x751 JUMP JUMPDEST CALLVALUE DUP1 ISZERO PUSH2 0x329 JUMPI PUSH0 DUP1 REVERT JUMPDEST POP PUSH2 0x201 PUSH2 0x338 CALLDATASIZE PUSH1 0x4 PUSH2 0x17E4 JUMP JUMPDEST PUSH2 0x8DF JUMP JUMPDEST CALLVALUE DUP1 ISZERO PUSH2 0x348 JUMPI PUSH0 DUP1 REVERT JUMPDEST POP PUSH2 0x241 PUSH2 0x357 CALLDATASIZE PUSH1 0x4 PUSH2 0x18BB JUMP JUMPDEST PUSH2 0x8E9 JUMP JUMPDEST CALLVALUE DUP1 ISZERO PUSH2 0x367 JUMPI PUSH0 DUP1 REVERT JUMPDEST POP PUSH2 0x1BF PUSH2 0x92E JUMP JUMPDEST CALLVALUE DUP1 ISZERO PUSH2 0x37B JUMPI PUSH0 DUP1 REVERT JUMPDEST POP PUSH1 0x6 SLOAD PUSH1 0x1 PUSH1 0x1 PUSH1 0xA0 SHL SUB AND PUSH2 0x201 JUMP JUMPDEST CALLVALUE DUP1 ISZERO PUSH2 0x398 JUMPI PUSH0 DUP1 REVERT JUMPDEST POP PUSH2 0x1D5 PUSH2 0x941 JUMP JUMPDEST CALLVALUE DUP1 ISZERO PUSH2 0x3AC JUMPI PUSH0 DUP1 REVERT JUMPDEST POP PUSH2 0x1BF PUSH2 0x3BB CALLDATASIZE PUSH1 0x4 PUSH2 0x18D4 JUMP JUMPDEST PUSH2 0x950 JUMP JUMPDEST CALLVALUE DUP1 ISZERO PUSH2 0x3CB JUMPI PUSH0 DUP1 REVERT JUMPDEST POP PUSH2 0x3DF PUSH2 0x3DA CALLDATASIZE PUSH1 0x4 PUSH2 0x17E4 JUMP JUMPDEST PUSH2 0x95B JUMP JUMPDEST PUSH1 0x40 MLOAD PUSH2 0x197 SWAP7 SWAP6 SWAP5 SWAP4 SWAP3 SWAP2 SWAP1 PUSH2 0x1902 JUMP JUMPDEST CALLVALUE DUP1 ISZERO PUSH2 0x3FC JUMPI PUSH0 DUP1 REVERT JUMPDEST POP PUSH2 0x1BF PUSH2 0x40B CALLDATASIZE PUSH1 0x4 PUSH2 0x19D5 JUMP JUMPDEST PUSH2 0xAA1 JUMP JUMPDEST PUSH2 0x1BF PUSH2 0x41E CALLDATASIZE PUSH1 0x4 PUSH2 0x17E4 JUMP JUMPDEST PUSH2 0xAB8 JUMP JUMPDEST CALLVALUE DUP1 ISZERO PUSH2 0x42E JUMPI PUSH0 DUP1 REVERT JUMPDEST POP PUSH2 0x1D5 PUSH2 0x43D CALLDATASIZE PUSH1 0x4 PUSH2 0x17E4 JUMP JUMPDEST PUSH2 0xB7F JUMP JUMPDEST PUSH2 0x1BF PUSH2 0x450 CALLDATASIZE PUSH1 0x4 PUSH2 0x1871 JUMP JUMPDEST PUSH2 0xBE4 JUMP JUMPDEST CALLVALUE DUP1 ISZERO PUSH2 0x460 JUMPI PUSH0 DUP1 REVERT JUMPDEST POP PUSH2 0x18B PUSH2 0x46F CALLDATASIZE PUSH1 0x4 PUSH2 0x1A4B JUMP JUMPDEST PUSH2 0xDB0 JUMP JUMPDEST CALLVALUE DUP1 ISZERO PUSH2 0x47F JUMPI PUSH0 DUP1 REVERT JUMPDEST POP PUSH2 0x1BF PUSH2 0x48E CALLDATASIZE PUSH1 0x4 PUSH2 0x18BB JUMP JUMPDEST PUSH2 0xDDD JUMP JUMPDEST CALLVALUE DUP1 ISZERO PUSH2 0x49E JUMPI PUSH0 DUP1 REVERT JUMPDEST POP PUSH2 0x1BF PUSH2 0x4AD CALLDATASIZE PUSH1 0x4 PUSH2 0x1A91 JUMP JUMPDEST PUSH2 0xE1A JUMP JUMPDEST PUSH0 PUSH2 0x4BC DUP3 PUSH2 0xECD JUMP JUMPDEST SWAP3 SWAP2 POP POP JUMP JUMPDEST PUSH2 0x4CA PUSH2 0xEF1 JUMP JUMPDEST PUSH2 0x4D4 DUP3 DUP3 PUSH2 0xF1E JUMP JUMPDEST POP POP JUMP JUMPDEST PUSH1 0x60 PUSH0 DUP1 SLOAD PUSH2 0x4E6 SWAP1 PUSH2 0x1AF4 JUMP JUMPDEST DUP1 PUSH1 0x1F ADD PUSH1 0x20 DUP1 SWAP2 DIV MUL PUSH1 0x20 ADD PUSH1 0x40 MLOAD SWAP1 DUP2 ADD PUSH1 0x40 MSTORE DUP1 SWAP3 SWAP2 SWAP1 DUP2 DUP2 MSTORE PUSH1 0x20 ADD DUP3 DUP1 SLOAD PUSH2 0x512 SWAP1 PUSH2 0x1AF4 JUMP JUMPDEST DUP1 ISZERO PUSH2 0x55D JUMPI DUP1 PUSH1 0x1F LT PUSH2 0x534 JUMPI PUSH2 0x100 DUP1 DUP4 SLOAD DIV MUL DUP4 MSTORE SWAP2 PUSH1 0x20 ADD SWAP2 PUSH2 0x55D JUMP JUMPDEST DUP3 ADD SWAP2 SWAP1 PUSH0 MSTORE PUSH1 0x20 PUSH0 KECCAK256 SWAP1 JUMPDEST DUP2 SLOAD DUP2 MSTORE SWAP1 PUSH1 0x1 ADD SWAP1 PUSH1 0x20 ADD DUP1 DUP4 GT PUSH2 0x540 JUMPI DUP3 SWAP1 SUB PUSH1 0x1F AND DUP3 ADD SWAP2 JUMPDEST POP POP POP POP POP SWAP1 POP SWAP1 JUMP JUMPDEST PUSH0 PUSH2 0x571 DUP3 PUSH2 0xFC0 JUMP JUMPDEST POP PUSH0 DUP3 DUP2 MSTORE PUSH1 0x4 PUSH1 0x20 MSTORE PUSH1 0x40 SWAP1 KECCAK256 SLOAD PUSH1 0x1 PUSH1 0x1 PUSH1 0xA0 SHL SUB AND PUSH2 0x4BC JUMP JUMPDEST PUSH2 0x4D4 DUP3 DUP3 CALLER PUSH2 0xFF8 JUMP JUMPDEST PUSH0 PUSH2 0x5A3 PUSH1 0xA SLOAD SWAP1 JUMP JUMPDEST SWAP1 POP SWAP1 JUMP JUMPDEST PUSH1 0x1 PUSH1 0x1 PUSH1 0xA0 SHL SUB DUP3 AND PUSH2 0x5DA JUMPI PUSH0 PUSH1 0x40 MLOAD PUSH4 0x32505749 PUSH1 0xE1 SHL DUP2 MSTORE PUSH1 0x4 ADD PUSH2 0x5D1 SWAP2 SWAP1 PUSH2 0x17FB JUMP JUMPDEST PUSH1 0x40 MLOAD DUP1 SWAP2 SUB SWAP1 REVERT JUMPDEST PUSH0 PUSH2 0x5E6 DUP4 DUP4 CALLER PUSH2 0x1005 JUMP JUMPDEST SWAP1 POP DUP4 PUSH1 0x1 PUSH1 0x1 PUSH1 0xA0 SHL SUB AND DUP2 PUSH1 0x1 PUSH1 0x1 PUSH1 0xA0 SHL SUB AND EQ PUSH2 0x634 JUMPI PUSH1 0x40 MLOAD PUSH4 0x64283D7B PUSH1 0xE0 SHL DUP2 MSTORE PUSH1 0x1 PUSH1 0x1 PUSH1 0xA0 SHL SUB DUP1 DUP7 AND PUSH1 0x4 DUP4 ADD MSTORE PUSH1 0x24 DUP3 ADD DUP5 SWAP1 MSTORE DUP3 AND PUSH1 0x44 DUP3 ADD MSTORE PUSH1 0x64 ADD PUSH2 0x5D1 JUMP JUMPDEST POP POP POP POP JUMP JUMPDEST PUSH0 DUP3 DUP2 MSTORE PUSH1 0x8 PUSH1 0x20 SWAP1 DUP2 MSTORE PUSH1 0x40 DUP1 DUP4 KECCAK256 DUP2 MLOAD DUP1 DUP4 ADD SWAP1 SWAP3 MSTORE SLOAD PUSH1 0x1 PUSH1 0x1 PUSH1 0xA0 SHL SUB DUP2 AND DUP1 DUP4 MSTORE PUSH1 0x1 PUSH1 0xA0 SHL SWAP1 SWAP2 DIV PUSH1 0x1 PUSH1 0x1 PUSH1 0x60 SHL SUB AND SWAP3 DUP3 ADD SWAP3 SWAP1 SWAP3 MSTORE DUP3 SWAP2 PUSH2 0x6AE JUMPI POP PUSH1 0x40 DUP1 MLOAD DUP1 DUP3 ADD SWAP1 SWAP2 MSTORE PUSH1 0x7 SLOAD PUSH1 0x1 PUSH1 0x1 PUSH1 0xA0 SHL SUB DUP2 AND DUP3 MSTORE PUSH1 0x1 PUSH1 0xA0 SHL SWAP1 DIV PUSH1 0x1 PUSH1 0x1 PUSH1 0x60 SHL SUB AND PUSH1 0x20 DUP3 ADD MSTORE JUMPDEST PUSH1 0x20 DUP2 ADD MLOAD PUSH0 SWAP1 PUSH2 0x2710 SWAP1 PUSH2 0x6CC SWAP1 PUSH1 0x1 PUSH1 0x1 PUSH1 0x60 SHL SUB AND DUP8 PUSH2 0x1B40 JUMP JUMPDEST PUSH2 0x6D6 SWAP2 SWAP1 PUSH2 0x1B57 JUMP JUMPDEST SWAP2 MLOAD SWAP7 SWAP2 SWAP6 POP SWAP1 SWAP4 POP POP POP POP JUMP JUMPDEST PUSH0 DUP3 DUP2 MSTORE PUSH1 0x9 PUSH1 0x20 SWAP1 DUP2 MSTORE PUSH1 0x40 DUP1 DUP4 KECCAK256 PUSH1 0x1 PUSH1 0x1 PUSH1 0xA0 SHL SUB DUP6 AND DUP5 MSTORE PUSH1 0x6 DUP2 ADD SWAP1 SWAP3 MSTORE DUP3 KECCAK256 SLOAD PUSH2 0x4E2 PUSH2 0x71F DUP3 PUSH8 0xDE0B6B3A7640000 PUSH2 0x1B40 JUMP JUMPDEST PUSH2 0x729 SWAP2 SWAP1 PUSH2 0x1B57 JUMP JUMPDEST SWAP6 SWAP5 POP POP POP POP POP JUMP JUMPDEST PUSH2 0x74C DUP4 DUP4 DUP4 PUSH1 0x40 MLOAD DUP1 PUSH1 0x20 ADD PUSH1 0x40 MSTORE DUP1 PUSH0 DUP2 MSTORE POP PUSH2 0xAA1 JUMP JUMPDEST POP POP POP JUMP JUMPDEST PUSH0 DUP2 DUP2 MSTORE PUSH1 0x9 PUSH1 0x20 SWAP1 DUP2 MSTORE PUSH1 0x40 DUP1 DUP4 KECCAK256 CALLER DUP5 MSTORE PUSH1 0x6 DUP2 ADD SWAP1 SWAP3 MSTORE SWAP1 SWAP2 KECCAK256 SLOAD DUP1 PUSH2 0x7CC JUMPI PUSH1 0x40 MLOAD PUSH3 0x461BCD PUSH1 0xE5 SHL DUP2 MSTORE PUSH1 0x20 PUSH1 0x4 DUP3 ADD MSTORE PUSH1 0x27 PUSH1 0x24 DUP3 ADD MSTORE PUSH32 0x596F7520646F206E6F74206F776E20616E7920736861726573206F6620746869 PUSH1 0x44 DUP3 ADD MSTORE PUSH7 0x7320747261636B PUSH1 0xC8 SHL PUSH1 0x64 DUP3 ADD MSTORE PUSH1 0x84 ADD PUSH2 0x5D1 JUMP JUMPDEST PUSH0 PUSH2 0x7D7 DUP5 CALLER PUSH2 0x6E4 JUMP JUMPDEST SWAP1 POP PUSH0 PUSH8 0xDE0B6B3A7640000 DUP3 DUP6 PUSH1 0x5 ADD SLOAD PUSH2 0x7F3 SWAP2 SWAP1 PUSH2 0x1B40 JUMP JUMPDEST PUSH2 0x7FD SWAP2 SWAP1 PUSH2 0x1B57 JUMP JUMPDEST SWAP1 POP PUSH0 DUP2 GT PUSH2 0x85A JUMPI PUSH1 0x40 MLOAD PUSH3 0x461BCD PUSH1 0xE5 SHL DUP2 MSTORE PUSH1 0x20 PUSH1 0x4 DUP3 ADD MSTORE PUSH1 0x23 PUSH1 0x24 DUP3 ADD MSTORE PUSH32 0x4E6F20726F79616C747920617661696C61626C6520666F722077697468647261 PUSH1 0x44 DUP3 ADD MSTORE PUSH3 0x1DD85B PUSH1 0xEA SHL PUSH1 0x64 DUP3 ADD MSTORE PUSH1 0x84 ADD PUSH2 0x5D1 JUMP JUMPDEST DUP1 DUP5 PUSH1 0x5 ADD PUSH0 DUP3 DUP3 SLOAD PUSH2 0x86D SWAP2 SWAP1 PUSH2 0x1B76 JUMP JUMPDEST SWAP1 SWAP2 SSTORE POP POP PUSH1 0x40 MLOAD CALLER SWAP1 DUP3 ISZERO PUSH2 0x8FC MUL SWAP1 DUP4 SWAP1 PUSH0 DUP2 DUP2 DUP2 DUP6 DUP9 DUP9 CALL SWAP4 POP POP POP POP ISZERO DUP1 ISZERO PUSH2 0x89C JUMPI RETURNDATASIZE PUSH0 DUP1 RETURNDATACOPY RETURNDATASIZE PUSH0 REVERT JUMPDEST POP PUSH32 0xD6CE75900EECAACADB4848F3B1A4E89CBA8434D748D82ADAB2CAF1BF248B5D17 DUP6 CALLER DUP4 PUSH1 0x40 MLOAD PUSH2 0x8D0 SWAP4 SWAP3 SWAP2 SWAP1 PUSH2 0x1B89 JUMP JUMPDEST PUSH1 0x40 MLOAD DUP1 SWAP2 SUB SWAP1 LOG1 POP POP POP POP POP JUMP JUMPDEST PUSH0 PUSH2 0x4BC DUP3 PUSH2 0xFC0 JUMP JUMPDEST PUSH0 PUSH1 0x1 PUSH1 0x1 PUSH1 0xA0 SHL SUB DUP3 AND PUSH2 0x913 JUMPI PUSH0 PUSH1 0x40 MLOAD PUSH4 0x22718AD9 PUSH1 0xE2 SHL DUP2 MSTORE PUSH1 0x4 ADD PUSH2 0x5D1 SWAP2 SWAP1 PUSH2 0x17FB JUMP JUMPDEST POP PUSH1 0x1 PUSH1 0x1 PUSH1 0xA0 SHL SUB AND PUSH0 SWAP1 DUP2 MSTORE PUSH1 0x3 PUSH1 0x20 MSTORE PUSH1 0x40 SWAP1 KECCAK256 SLOAD SWAP1 JUMP JUMPDEST PUSH2 0x936 PUSH2 0xEF1 JUMP JUMPDEST PUSH2 0x93F PUSH0 PUSH2 0x10F7 JUMP JUMPDEST JUMP JUMPDEST PUSH1 0x60 PUSH1 0x1 DUP1 SLOAD PUSH2 0x4E6 SWAP1 PUSH2 0x1AF4 JUMP JUMPDEST PUSH2 0x4D4 CALLER DUP4 DUP4 PUSH2 0x1148 JUMP JUMPDEST PUSH1 0x9 PUSH1 0x20 MSTORE PUSH0 SWAP1 DUP2 MSTORE PUSH1 0x40 SWAP1 KECCAK256 DUP1 SLOAD DUP2 SWAP1 PUSH2 0x975 SWAP1 PUSH2 0x1AF4 JUMP JUMPDEST DUP1 PUSH1 0x1F ADD PUSH1 0x20 DUP1 SWAP2 DIV MUL PUSH1 0x20 ADD PUSH1 0x40 MLOAD SWAP1 DUP2 ADD PUSH1 0x40 MSTORE DUP1 SWAP3 SWAP2 SWAP1 DUP2 DUP2 MSTORE PUSH1 0x20 ADD DUP3 DUP1 SLOAD PUSH2 0x9A1 SWAP1 PUSH2 0x1AF4 JUMP JUMPDEST DUP1 ISZERO PUSH2 0x9EC JUMPI DUP1 PUSH1 0x1F LT PUSH2 0x9C3 JUMPI PUSH2 0x100 DUP1 DUP4 SLOAD DIV MUL DUP4 MSTORE SWAP2 PUSH1 0x20 ADD SWAP2 PUSH2 0x9EC JUMP JUMPDEST DUP3 ADD SWAP2 SWAP1 PUSH0 MSTORE PUSH1 0x20 PUSH0 KECCAK256 SWAP1 JUMPDEST DUP2 SLOAD DUP2 MSTORE SWAP1 PUSH1 0x1 ADD SWAP1 PUSH1 0x20 ADD DUP1 DUP4 GT PUSH2 0x9CF JUMPI DUP3 SWAP1 SUB PUSH1 0x1F AND DUP3 ADD SWAP2 JUMPDEST POP POP POP POP POP SWAP1 DUP1 PUSH1 0x1 ADD DUP1 SLOAD PUSH2 0xA01 SWAP1 PUSH2 0x1AF4 JUMP JUMPDEST DUP1 PUSH1 0x1F ADD PUSH1 0x20 DUP1 SWAP2 DIV MUL PUSH1 0x20 ADD PUSH1 0x40 MLOAD SWAP1 DUP2 ADD PUSH1 0x40 MSTORE DUP1 SWAP3 SWAP2 SWAP1 DUP2 DUP2 MSTORE PUSH1 0x20 ADD DUP3 DUP1 SLOAD PUSH2 0xA2D SWAP1 PUSH2 0x1AF4 JUMP JUMPDEST DUP1 ISZERO PUSH2 0xA78 JUMPI DUP1 PUSH1 0x1F LT PUSH2 0xA4F JUMPI PUSH2 0x100 DUP1 DUP4 SLOAD DIV MUL DUP4 MSTORE SWAP2 PUSH1 0x20 ADD SWAP2 PUSH2 0xA78 JUMP JUMPDEST DUP3 ADD SWAP2 SWAP1 PUSH0 MSTORE PUSH1 0x20 PUSH0 KECCAK256 SWAP1 JUMPDEST DUP2 SLOAD DUP2 MSTORE SWAP1 PUSH1 0x1 ADD SWAP1 PUSH1 0x20 ADD DUP1 DUP4 GT PUSH2 0xA5B JUMPI DUP3 SWAP1 SUB PUSH1 0x1F AND DUP3 ADD SWAP2 JUMPDEST POP POP POP PUSH1 0x2 DUP5 ADD SLOAD PUSH1 0x3 DUP6 ADD SLOAD PUSH1 0x4 DUP7 ADD SLOAD PUSH1 0x5 SWAP1 SWAP7 ADD SLOAD SWAP5 SWAP6 SWAP2 SWAP5 SWAP1 SWAP4 POP PUSH1 0xFF SWAP1 SWAP2 AND SWAP2 POP DUP7 JUMP JUMPDEST PUSH2 0xAAC DUP5 DUP5 DUP5 PUSH2 0x5A8 JUMP JUMPDEST PUSH2 0x634 DUP5 DUP5 DUP5 DUP5 PUSH2 0x11DD JUMP JUMPDEST PUSH2 0xAC0 PUSH2 0xEF1 JUMP JUMPDEST PUSH0 DUP2 DUP2 MSTORE PUSH1 0x9 PUSH1 0x20 MSTORE PUSH1 0x40 SWAP1 KECCAK256 CALLVALUE PUSH2 0xB2B JUMPI PUSH1 0x40 MLOAD PUSH3 0x461BCD PUSH1 0xE5 SHL DUP2 MSTORE PUSH1 0x20 PUSH1 0x4 DUP3 ADD MSTORE PUSH1 0x28 PUSH1 0x24 DUP3 ADD MSTORE PUSH32 0x526F79616C747920616D6F756E74206D75737420626520677265617465722074 PUSH1 0x44 DUP3 ADD MSTORE PUSH8 0x68616E207A65726F PUSH1 0xC0 SHL PUSH1 0x64 DUP3 ADD MSTORE PUSH1 0x84 ADD PUSH2 0x5D1 JUMP JUMPDEST CALLVALUE DUP2 PUSH1 0x5 ADD PUSH0 DUP3 DUP3 SLOAD PUSH2 0xB3E SWAP2 SWAP1 PUSH2 0x1BA8 JUMP JUMPDEST SWAP1 SWAP2 SSTORE POP POP PUSH1 0x40 DUP1 MLOAD DUP4 DUP2 MSTORE CALLVALUE PUSH1 0x20 DUP3 ADD MSTORE PUSH32 0xE03872BDFFA6568DF2CC485CF9F211D60A716C99C5633E1EDC87102D16112500 SWAP2 ADD PUSH1 0x40 MLOAD DUP1 SWAP2 SUB SWAP1 LOG1 POP POP JUMP JUMPDEST PUSH1 0x60 PUSH2 0xB8A DUP3 PUSH2 0xFC0 JUMP JUMPDEST POP PUSH0 PUSH2 0xB94 PUSH2 0x12F1 JUMP JUMPDEST SWAP1 POP PUSH0 DUP2 MLOAD GT PUSH2 0xBB2 JUMPI PUSH1 0x40 MLOAD DUP1 PUSH1 0x20 ADD PUSH1 0x40 MSTORE DUP1 PUSH0 DUP2 MSTORE POP PUSH2 0xBDD JUMP JUMPDEST DUP1 PUSH2 0xBBC DUP5 PUSH2 0x1311 JUMP JUMPDEST PUSH1 0x40 MLOAD PUSH1 0x20 ADD PUSH2 0xBCD SWAP3 SWAP2 SWAP1 PUSH2 0x1BD2 JUMP JUMPDEST PUSH1 0x40 MLOAD PUSH1 0x20 DUP2 DUP4 SUB SUB DUP2 MSTORE SWAP1 PUSH1 0x40 MSTORE JUMPDEST SWAP4 SWAP3 POP POP POP JUMP JUMPDEST PUSH0 DUP3 DUP2 MSTORE PUSH1 0x9 PUSH1 0x20 MSTORE PUSH1 0x40 SWAP1 KECCAK256 PUSH1 0x4 DUP2 ADD SLOAD PUSH1 0xFF AND PUSH2 0xC3B JUMPI PUSH1 0x40 MLOAD PUSH3 0x461BCD PUSH1 0xE5 SHL DUP2 MSTORE PUSH1 0x20 PUSH1 0x4 DUP3 ADD MSTORE PUSH1 0x13 PUSH1 0x24 DUP3 ADD MSTORE PUSH19 0x547261636B206E6F7420617661696C61626C65 PUSH1 0x68 SHL PUSH1 0x44 DUP3 ADD MSTORE PUSH1 0x64 ADD PUSH2 0x5D1 JUMP JUMPDEST PUSH0 DUP3 GT DUP1 ISZERO PUSH2 0xC4E JUMPI POP DUP1 PUSH1 0x3 ADD SLOAD DUP3 GT ISZERO JUMPDEST PUSH2 0xC94 JUMPI PUSH1 0x40 MLOAD PUSH3 0x461BCD PUSH1 0xE5 SHL DUP2 MSTORE PUSH1 0x20 PUSH1 0x4 DUP3 ADD MSTORE PUSH1 0x17 PUSH1 0x24 DUP3 ADD MSTORE PUSH23 0x496E76616C6964206E756D626572206F66736861726573 PUSH1 0x48 SHL PUSH1 0x44 DUP3 ADD MSTORE PUSH1 0x64 ADD PUSH2 0x5D1 JUMP JUMPDEST PUSH1 0x2 DUP2 ADD SLOAD PUSH2 0xCA3 SWAP1 DUP4 PUSH2 0x1B40 JUMP JUMPDEST PUSH2 0xCB4 SWAP1 PUSH7 0x2386F26FC10000 PUSH2 0x1B40 JUMP JUMPDEST CALLVALUE LT ISZERO PUSH2 0xCFA JUMPI PUSH1 0x40 MLOAD PUSH3 0x461BCD PUSH1 0xE5 SHL DUP2 MSTORE PUSH1 0x20 PUSH1 0x4 DUP3 ADD MSTORE PUSH1 0x14 PUSH1 0x24 DUP3 ADD MSTORE PUSH20 0x125B9CDD59999A58DA595B9D081C185E5B595B9D PUSH1 0x62 SHL PUSH1 0x44 DUP3 ADD MSTORE PUSH1 0x64 ADD PUSH2 0x5D1 JUMP JUMPDEST CALLER PUSH0 SWAP1 DUP2 MSTORE PUSH1 0x6 DUP3 ADD PUSH1 0x20 MSTORE PUSH1 0x40 DUP2 KECCAK256 DUP1 SLOAD DUP5 SWAP3 SWAP1 PUSH2 0xD1A SWAP1 DUP5 SWAP1 PUSH2 0x1BA8 JUMP JUMPDEST SWAP3 POP POP DUP2 SWAP1 SSTORE POP DUP2 DUP2 PUSH1 0x3 ADD PUSH0 DUP3 DUP3 SLOAD PUSH2 0xD34 SWAP2 SWAP1 PUSH2 0x1B76 JUMP JUMPDEST SWAP1 SWAP2 SSTORE POP POP PUSH1 0x6 SLOAD PUSH1 0x40 MLOAD PUSH1 0x1 PUSH1 0x1 PUSH1 0xA0 SHL SUB SWAP1 SWAP2 AND SWAP1 CALLVALUE DUP1 ISZERO PUSH2 0x8FC MUL SWAP2 PUSH0 DUP2 DUP2 DUP2 DUP6 DUP9 DUP9 CALL SWAP4 POP POP POP POP ISZERO DUP1 ISZERO PUSH2 0xD6F JUMPI RETURNDATASIZE PUSH0 DUP1 RETURNDATACOPY RETURNDATASIZE PUSH0 REVERT JUMPDEST POP PUSH32 0xA5AFAFC7C052A234F91512F360BEEB7B6DB7A0692BBD017AB5632D80A03A4BC0 DUP4 CALLER DUP5 PUSH1 0x40 MLOAD PUSH2 0xDA3 SWAP4 SWAP3 SWAP2 SWAP1 PUSH2 0x1B89 JUMP JUMPDEST PUSH1 0x40 MLOAD DUP1 SWAP2 SUB SWAP1 LOG1 POP POP POP JUMP JUMPDEST PUSH1 0x1 PUSH1 0x1 PUSH1 0xA0 SHL SUB SWAP2 DUP3 AND PUSH0 SWAP1 DUP2 MSTORE PUSH1 0x5 PUSH1 0x20 SWAP1 DUP2 MSTORE PUSH1 0x40 DUP1 DUP4 KECCAK256 SWAP4 SWAP1 SWAP5 AND DUP3 MSTORE SWAP2 SWAP1 SWAP2 MSTORE KECCAK256 SLOAD PUSH1 0xFF AND SWAP1 JUMP JUMPDEST PUSH2 0xDE5 PUSH2 0xEF1 JUMP JUMPDEST PUSH1 0x1 PUSH1 0x1 PUSH1 0xA0 SHL SUB DUP2 AND PUSH2 0xE0E JUMPI PUSH0 PUSH1 0x40 MLOAD PUSH4 0x1E4FBDF7 PUSH1 0xE0 SHL DUP2 MSTORE PUSH1 0x4 ADD PUSH2 0x5D1 SWAP2 SWAP1 PUSH2 0x17FB JUMP JUMPDEST PUSH2 0xE17 DUP2 PUSH2 0x10F7 JUMP JUMPDEST POP JUMP JUMPDEST PUSH2 0xE22 PUSH2 0xEF1 JUMP JUMPDEST PUSH0 PUSH2 0xE2C PUSH1 0xA SLOAD SWAP1 JUMP JUMPDEST SWAP1 POP PUSH2 0xE38 CALLER DUP3 PUSH2 0x13A0 JUMP JUMPDEST PUSH0 DUP2 DUP2 MSTORE PUSH1 0x9 PUSH1 0x20 MSTORE PUSH1 0x40 SWAP1 KECCAK256 DUP1 PUSH2 0xE50 DUP6 DUP3 PUSH2 0x1C2A JUMP JUMPDEST POP PUSH1 0x1 DUP2 ADD PUSH2 0xE5F DUP5 DUP3 PUSH2 0x1C2A JUMP JUMPDEST POP PUSH2 0x4E2 PUSH1 0x2 DUP3 ADD DUP2 SWAP1 SSTORE PUSH1 0x3 DUP3 ADD SSTORE PUSH1 0x4 DUP2 ADD DUP1 SLOAD PUSH1 0xFF NOT AND PUSH1 0x1 OR SWAP1 SSTORE PUSH2 0xE8C PUSH1 0xA DUP1 SLOAD PUSH1 0x1 ADD SWAP1 SSTORE JUMP JUMPDEST PUSH32 0x21579433A032855E20E8AFC48E980DDAE0B6285E4AA03370F03192BE12BEA28B DUP3 DUP6 DUP6 PUSH1 0x40 MLOAD PUSH2 0xEBF SWAP4 SWAP3 SWAP2 SWAP1 PUSH2 0x1CE4 JUMP JUMPDEST PUSH1 0x40 MLOAD DUP1 SWAP2 SUB SWAP1 LOG1 POP POP POP POP JUMP JUMPDEST PUSH0 PUSH1 0x1 PUSH1 0x1 PUSH1 0xE0 SHL SUB NOT DUP3 AND PUSH4 0x152A902D PUSH1 0xE1 SHL EQ DUP1 PUSH2 0x4BC JUMPI POP PUSH2 0x4BC DUP3 PUSH2 0x13B9 JUMP JUMPDEST PUSH1 0x6 SLOAD PUSH1 0x1 PUSH1 0x1 PUSH1 0xA0 SHL SUB AND CALLER EQ PUSH2 0x93F JUMPI CALLER PUSH1 0x40 MLOAD PUSH4 0x118CDAA7 PUSH1 0xE0 SHL DUP2 MSTORE PUSH1 0x4 ADD PUSH2 0x5D1 SWAP2 SWAP1 PUSH2 0x17FB JUMP JUMPDEST PUSH2 0x2710 PUSH1 0x1 PUSH1 0x1 PUSH1 0x60 SHL SUB DUP3 AND DUP2 LT ISZERO PUSH2 0xF5D JUMPI PUSH1 0x40 MLOAD PUSH4 0x6F483D09 PUSH1 0xE0 SHL DUP2 MSTORE PUSH1 0x1 PUSH1 0x1 PUSH1 0x60 SHL SUB DUP4 AND PUSH1 0x4 DUP3 ADD MSTORE PUSH1 0x24 DUP2 ADD DUP3 SWAP1 MSTORE PUSH1 0x44 ADD PUSH2 0x5D1 JUMP JUMPDEST PUSH1 0x1 PUSH1 0x1 PUSH1 0xA0 SHL SUB DUP4 AND PUSH2 0xF86 JUMPI PUSH0 PUSH1 0x40 MLOAD PUSH4 0x5B6CC805 PUSH1 0xE1 SHL DUP2 MSTORE PUSH1 0x4 ADD PUSH2 0x5D1 SWAP2 SWAP1 PUSH2 0x17FB JUMP JUMPDEST POP PUSH1 0x40 DUP1 MLOAD DUP1 DUP3 ADD SWAP1 SWAP2 MSTORE PUSH1 0x1 PUSH1 0x1 PUSH1 0xA0 SHL SUB SWAP1 SWAP3 AND DUP1 DUP4 MSTORE PUSH1 0x1 PUSH1 0x1 PUSH1 0x60 SHL SUB SWAP1 SWAP2 AND PUSH1 0x20 SWAP1 SWAP3 ADD DUP3 SWAP1 MSTORE PUSH1 0x1 PUSH1 0xA0 SHL SWAP1 SWAP2 MUL OR PUSH1 0x7 SSTORE JUMP JUMPDEST PUSH0 DUP2 DUP2 MSTORE PUSH1 0x2 PUSH1 0x20 MSTORE PUSH1 0x40 DUP2 KECCAK256 SLOAD PUSH1 0x1 PUSH1 0x1 PUSH1 0xA0 SHL SUB AND DUP1 PUSH2 0x4BC JUMPI PUSH1 0x40 MLOAD PUSH4 0x7E273289 PUSH1 0xE0 SHL DUP2 MSTORE PUSH1 0x4 DUP2 ADD DUP5 SWAP1 MSTORE PUSH1 0x24 ADD PUSH2 0x5D1 JUMP JUMPDEST PUSH2 0x74C DUP4 DUP4 DUP4 PUSH1 0x1 PUSH2 0x1408 JUMP JUMPDEST PUSH0 DUP3 DUP2 MSTORE PUSH1 0x2 PUSH1 0x20 MSTORE PUSH1 0x40 DUP2 KECCAK256 SLOAD PUSH1 0x1 PUSH1 0x1 PUSH1 0xA0 SHL SUB SWAP1 DUP2 AND SWAP1 DUP4 AND ISZERO PUSH2 0x1031 JUMPI PUSH2 0x1031 DUP2 DUP5 DUP7 PUSH2 0x1503 JUMP JUMPDEST PUSH1 0x1 PUSH1 0x1 PUSH1 0xA0 SHL SUB DUP2 AND ISZERO PUSH2 0x106B JUMPI PUSH2 0x104C PUSH0 DUP6 PUSH0 DUP1 PUSH2 0x1408 JUMP JUMPDEST PUSH1 0x1 PUSH1 0x1 PUSH1 0xA0 SHL SUB DUP2 AND PUSH0 SWAP1 DUP2 MSTORE PUSH1 0x3 PUSH1 0x20 MSTORE PUSH1 0x40 SWAP1 KECCAK256 DUP1 SLOAD PUSH0 NOT ADD SWAP1 SSTORE JUMPDEST PUSH1 0x1 PUSH1 0x1 PUSH1 0xA0 SHL SUB DUP6 AND ISZERO PUSH2 0x1099 JUMPI PUSH1 0x1 PUSH1 0x1 PUSH1 0xA0 SHL SUB DUP6 AND PUSH0 SWAP1 DUP2 MSTORE PUSH1 0x3 PUSH1 0x20 MSTORE PUSH1 0x40 SWAP1 KECCAK256 DUP1 SLOAD PUSH1 0x1 ADD SWAP1 SSTORE JUMPDEST PUSH0 DUP5 DUP2 MSTORE PUSH1 0x2 PUSH1 0x20 MSTORE PUSH1 0x40 DUP1 DUP3 KECCAK256 DUP1 SLOAD PUSH1 0x1 PUSH1 0x1 PUSH1 0xA0 SHL SUB NOT AND PUSH1 0x1 PUSH1 0x1 PUSH1 0xA0 SHL SUB DUP10 DUP2 AND SWAP2 DUP3 OR SWAP1 SWAP3 SSTORE SWAP2 MLOAD DUP8 SWAP4 SWAP2 DUP6 AND SWAP2 PUSH32 0xDDF252AD1BE2C89B69C2B068FC378DAA952BA7F163C4A11628F55A4DF523B3EF SWAP2 LOG4 SWAP5 SWAP4 POP POP POP POP JUMP JUMPDEST PUSH1 0x6 DUP1 SLOAD PUSH1 0x1 PUSH1 0x1 PUSH1 0xA0 SHL SUB DUP4 DUP2 AND PUSH1 0x1 PUSH1 0x1 PUSH1 0xA0 SHL SUB NOT DUP4 AND DUP2 OR SWAP1 SWAP4 SSTORE PUSH1 0x40 MLOAD SWAP2 AND SWAP2 SWAP1 DUP3 SWAP1 PUSH32 0x8BE0079C531659141344CD1FD0A4F28419497F9722A3DAAFE3B4186F6B6457E0 SWAP1 PUSH0 SWAP1 LOG3 POP POP JUMP JUMPDEST PUSH1 0x1 PUSH1 0x1 PUSH1 0xA0 SHL SUB DUP3 AND PUSH2 0x1171 JUMPI DUP2 PUSH1 0x40 MLOAD PUSH4 0xB611743 PUSH1 0xE3 SHL DUP2 MSTORE PUSH1 0x4 ADD PUSH2 0x5D1 SWAP2 SWAP1 PUSH2 0x17FB JUMP JUMPDEST PUSH1 0x1 PUSH1 0x1 PUSH1 0xA0 SHL SUB DUP4 DUP2 AND PUSH0 DUP2 DUP2 MSTORE PUSH1 0x5 PUSH1 0x20 SWAP1 DUP2 MSTORE PUSH1 0x40 DUP1 DUP4 KECCAK256 SWAP5 DUP8 AND DUP1 DUP5 MSTORE SWAP5 DUP3 MSTORE SWAP2 DUP3 SWAP1 KECCAK256 DUP1 SLOAD PUSH1 0xFF NOT AND DUP7 ISZERO ISZERO SWAP1 DUP2 OR SWAP1 SWAP2 SSTORE SWAP2 MLOAD SWAP2 DUP3 MSTORE PUSH32 0x17307EAB39AB6107E8899845AD3D59BD9653F200F220920489CA2B5937696C31 SWAP2 ADD PUSH1 0x40 MLOAD DUP1 SWAP2 SUB SWAP1 LOG3 POP POP POP JUMP JUMPDEST PUSH1 0x1 PUSH1 0x1 PUSH1 0xA0 SHL SUB DUP4 AND EXTCODESIZE ISZERO PUSH2 0x634 JUMPI PUSH1 0x40 MLOAD PUSH4 0xA85BD01 PUSH1 0xE1 SHL DUP2 MSTORE PUSH1 0x1 PUSH1 0x1 PUSH1 0xA0 SHL SUB DUP5 AND SWAP1 PUSH4 0x150B7A02 SWAP1 PUSH2 0x121F SWAP1 CALLER SWAP1 DUP9 SWAP1 DUP8 SWAP1 DUP8 SWAP1 PUSH1 0x4 ADD PUSH2 0x1D18 JUMP JUMPDEST PUSH1 0x20 PUSH1 0x40 MLOAD DUP1 DUP4 SUB DUP2 PUSH0 DUP8 GAS CALL SWAP3 POP POP POP DUP1 ISZERO PUSH2 0x1259 JUMPI POP PUSH1 0x40 DUP1 MLOAD PUSH1 0x1F RETURNDATASIZE SWAP1 DUP2 ADD PUSH1 0x1F NOT AND DUP3 ADD SWAP1 SWAP3 MSTORE PUSH2 0x1256 SWAP2 DUP2 ADD SWAP1 PUSH2 0x1D4A JUMP JUMPDEST PUSH1 0x1 JUMPDEST PUSH2 0x12B7 JUMPI RETURNDATASIZE DUP1 DUP1 ISZERO PUSH2 0x1286 JUMPI PUSH1 0x40 MLOAD SWAP2 POP PUSH1 0x1F NOT PUSH1 0x3F RETURNDATASIZE ADD AND DUP3 ADD PUSH1 0x40 MSTORE RETURNDATASIZE DUP3 MSTORE RETURNDATASIZE PUSH0 PUSH1 0x20 DUP5 ADD RETURNDATACOPY PUSH2 0x128B JUMP JUMPDEST PUSH1 0x60 SWAP2 POP JUMPDEST POP DUP1 MLOAD PUSH0 SUB PUSH2 0x12AF JUMPI DUP4 PUSH1 0x40 MLOAD PUSH4 0x32505749 PUSH1 0xE1 SHL DUP2 MSTORE PUSH1 0x4 ADD PUSH2 0x5D1 SWAP2 SWAP1 PUSH2 0x17FB JUMP JUMPDEST DUP1 MLOAD DUP2 PUSH1 0x20 ADD REVERT JUMPDEST PUSH1 0x1 PUSH1 0x1 PUSH1 0xE0 SHL SUB NOT DUP2 AND PUSH4 0xA85BD01 PUSH1 0xE1 SHL EQ PUSH2 0x12EA JUMPI DUP4 PUSH1 0x40 MLOAD PUSH4 0x32505749 PUSH1 0xE1 SHL DUP2 MSTORE PUSH1 0x4 ADD PUSH2 0x5D1 SWAP2 SWAP1 PUSH2 0x17FB JUMP JUMPDEST POP POP POP POP POP JUMP JUMPDEST PUSH1 0x60 PUSH1 0x40 MLOAD DUP1 PUSH1 0xA0 ADD PUSH1 0x40 MSTORE DUP1 PUSH1 0x64 DUP2 MSTORE PUSH1 0x20 ADD PUSH2 0x1D66 PUSH1 0x64 SWAP2 CODECOPY SWAP1 POP SWAP1 JUMP JUMPDEST PUSH1 0x60 PUSH0 PUSH2 0x131D DUP4 PUSH2 0x1567 JUMP JUMPDEST PUSH1 0x1 ADD SWAP1 POP PUSH0 DUP2 PUSH1 0x1 PUSH1 0x1 PUSH1 0x40 SHL SUB DUP2 GT ISZERO PUSH2 0x133B JUMPI PUSH2 0x133B PUSH2 0x194C JUMP JUMPDEST PUSH1 0x40 MLOAD SWAP1 DUP1 DUP3 MSTORE DUP1 PUSH1 0x1F ADD PUSH1 0x1F NOT AND PUSH1 0x20 ADD DUP3 ADD PUSH1 0x40 MSTORE DUP1 ISZERO PUSH2 0x1365 JUMPI PUSH1 0x20 DUP3 ADD DUP2 DUP1 CALLDATASIZE DUP4 CALLDATACOPY ADD SWAP1 POP JUMPDEST POP SWAP1 POP DUP2 DUP2 ADD PUSH1 0x20 ADD JUMPDEST PUSH0 NOT ADD PUSH16 0x181899199A1A9B1B9C1CB0B131B232B3 PUSH1 0x81 SHL PUSH1 0xA DUP7 MOD BYTE DUP2 MSTORE8 PUSH1 0xA DUP6 DIV SWAP5 POP DUP5 PUSH2 0x136F JUMPI POP SWAP4 SWAP3 POP POP POP JUMP JUMPDEST PUSH2 0x4D4 DUP3 DUP3 PUSH1 0x40 MLOAD DUP1 PUSH1 0x20 ADD PUSH1 0x40 MSTORE DUP1 PUSH0 DUP2 MSTORE POP PUSH2 0x163E JUMP JUMPDEST PUSH0 PUSH1 0x1 PUSH1 0x1 PUSH1 0xE0 SHL SUB NOT DUP3 AND PUSH4 0x80AC58CD PUSH1 0xE0 SHL EQ DUP1 PUSH2 0x13E9 JUMPI POP PUSH1 0x1 PUSH1 0x1 PUSH1 0xE0 SHL SUB NOT DUP3 AND PUSH4 0x5B5E139F PUSH1 0xE0 SHL EQ JUMPDEST DUP1 PUSH2 0x4BC JUMPI POP PUSH4 0x1FFC9A7 PUSH1 0xE0 SHL PUSH1 0x1 PUSH1 0x1 PUSH1 0xE0 SHL SUB NOT DUP4 AND EQ PUSH2 0x4BC JUMP JUMPDEST DUP1 DUP1 PUSH2 0x141C JUMPI POP PUSH1 0x1 PUSH1 0x1 PUSH1 0xA0 SHL SUB DUP3 AND ISZERO ISZERO JUMPDEST ISZERO PUSH2 0x14D4 JUMPI PUSH0 PUSH2 0x142B DUP5 PUSH2 0xFC0 JUMP JUMPDEST SWAP1 POP PUSH1 0x1 PUSH1 0x1 PUSH1 0xA0 SHL SUB DUP4 AND ISZERO DUP1 ISZERO SWAP1 PUSH2 0x1457 JUMPI POP DUP3 PUSH1 0x1 PUSH1 0x1 PUSH1 0xA0 SHL SUB AND DUP2 PUSH1 0x1 PUSH1 0x1 PUSH1 0xA0 SHL SUB AND EQ ISZERO JUMPDEST DUP1 ISZERO PUSH2 0x146A JUMPI POP PUSH2 0x1468 DUP2 DUP5 PUSH2 0xDB0 JUMP JUMPDEST ISZERO JUMPDEST ISZERO PUSH2 0x148A JUMPI DUP3 PUSH1 0x40 MLOAD PUSH4 0xA9FBF51F PUSH1 0xE0 SHL DUP2 MSTORE PUSH1 0x4 ADD PUSH2 0x5D1 SWAP2 SWAP1 PUSH2 0x17FB JUMP JUMPDEST DUP2 ISZERO PUSH2 0x14D2 JUMPI DUP4 DUP6 PUSH1 0x1 PUSH1 0x1 PUSH1 0xA0 SHL SUB AND DUP3 PUSH1 0x1 PUSH1 0x1 PUSH1 0xA0 SHL SUB AND PUSH32 0x8C5BE1E5EBEC7D5BD14F71427D1E84F3DD0314C0F7B2291E5B200AC8C7C3B925 PUSH1 0x40 MLOAD PUSH1 0x40 MLOAD DUP1 SWAP2 SUB SWAP1 LOG4 JUMPDEST POP JUMPDEST POP POP PUSH0 SWAP1 DUP2 MSTORE PUSH1 0x4 PUSH1 0x20 MSTORE PUSH1 0x40 SWAP1 KECCAK256 DUP1 SLOAD PUSH1 0x1 PUSH1 0x1 PUSH1 0xA0 SHL SUB NOT AND PUSH1 0x1 PUSH1 0x1 PUSH1 0xA0 SHL SUB SWAP3 SWAP1 SWAP3 AND SWAP2 SWAP1 SWAP2 OR SWAP1 SSTORE JUMP JUMPDEST PUSH2 0x150E DUP4 DUP4 DUP4 PUSH2 0x1654 JUMP JUMPDEST PUSH2 0x74C JUMPI PUSH1 0x1 PUSH1 0x1 PUSH1 0xA0 SHL SUB DUP4 AND PUSH2 0x153C JUMPI PUSH1 0x40 MLOAD PUSH4 0x7E273289 PUSH1 0xE0 SHL DUP2 MSTORE PUSH1 0x4 DUP2 ADD DUP3 SWAP1 MSTORE PUSH1 0x24 ADD PUSH2 0x5D1 JUMP JUMPDEST PUSH1 0x40 MLOAD PUSH4 0x177E802F PUSH1 0xE0 SHL DUP2 MSTORE PUSH1 0x1 PUSH1 0x1 PUSH1 0xA0 SHL SUB DUP4 AND PUSH1 0x4 DUP3 ADD MSTORE PUSH1 0x24 DUP2 ADD DUP3 SWAP1 MSTORE PUSH1 0x44 ADD PUSH2 0x5D1 JUMP JUMPDEST PUSH0 DUP1 PUSH19 0x184F03E93FF9F4DAA797ED6E38ED64BF6A1F01 PUSH1 0x40 SHL DUP4 LT PUSH2 0x15A5 JUMPI PUSH19 0x184F03E93FF9F4DAA797ED6E38ED64BF6A1F01 PUSH1 0x40 SHL DUP4 DIV SWAP3 POP PUSH1 0x40 ADD JUMPDEST PUSH14 0x4EE2D6D415B85ACEF8100000000 DUP4 LT PUSH2 0x15D1 JUMPI PUSH14 0x4EE2D6D415B85ACEF8100000000 DUP4 DIV SWAP3 POP PUSH1 0x20 ADD JUMPDEST PUSH7 0x2386F26FC10000 DUP4 LT PUSH2 0x15EF JUMPI PUSH7 0x2386F26FC10000 DUP4 DIV SWAP3 POP PUSH1 0x10 ADD JUMPDEST PUSH4 0x5F5E100 DUP4 LT PUSH2 0x1607 JUMPI PUSH4 0x5F5E100 DUP4 DIV SWAP3 POP PUSH1 0x8 ADD JUMPDEST PUSH2 0x2710 DUP4 LT PUSH2 0x161B JUMPI PUSH2 0x2710 DUP4 DIV SWAP3 POP PUSH1 0x4 ADD JUMPDEST PUSH1 0x64 DUP4 LT PUSH2 0x162D JUMPI PUSH1 0x64 DUP4 DIV SWAP3 POP PUSH1 0x2 ADD JUMPDEST PUSH1 0xA DUP4 LT PUSH2 0x4BC JUMPI PUSH1 0x1 ADD SWAP3 SWAP2 POP POP JUMP JUMPDEST PUSH2 0x1648 DUP4 DUP4 PUSH2 0x16B8 JUMP JUMPDEST PUSH2 0x74C PUSH0 DUP5 DUP5 DUP5 PUSH2 0x11DD JUMP JUMPDEST PUSH0 PUSH1 0x1 PUSH1 0x1 PUSH1 0xA0 SHL SUB DUP4 AND ISZERO DUP1 ISZERO SWAP1 PUSH2 0x16B0 JUMPI POP DUP3 PUSH1 0x1 PUSH1 0x1 PUSH1 0xA0 SHL SUB AND DUP5 PUSH1 0x1 PUSH1 0x1 PUSH1 0xA0 SHL SUB AND EQ DUP1 PUSH2 0x168D JUMPI POP PUSH2 0x168D DUP5 DUP5 PUSH2 0xDB0 JUMP JUMPDEST DUP1 PUSH2 0x16B0 JUMPI POP PUSH0 DUP3 DUP2 MSTORE PUSH1 0x4 PUSH1 0x20 MSTORE PUSH1 0x40 SWAP1 KECCAK256 SLOAD PUSH1 0x1 PUSH1 0x1 PUSH1 0xA0 SHL SUB DUP5 DUP2 AND SWAP2 AND EQ JUMPDEST SWAP5 SWAP4 POP POP POP POP JUMP JUMPDEST PUSH1 0x1 PUSH1 0x1 PUSH1 0xA0 SHL SUB DUP3 AND PUSH2 0x16E1 JUMPI PUSH0 PUSH1 0x40 MLOAD PUSH4 0x32505749 PUSH1 0xE1 SHL DUP2 MSTORE PUSH1 0x4 ADD PUSH2 0x5D1 SWAP2 SWAP1 PUSH2 0x17FB JUMP JUMPDEST PUSH0 PUSH2 0x16ED DUP4 DUP4 PUSH0 PUSH2 0x1005 JUMP JUMPDEST SWAP1 POP PUSH1 0x1 PUSH1 0x1 PUSH1 0xA0 SHL SUB DUP2 AND ISZERO PUSH2 0x74C JUMPI PUSH0 PUSH1 0x40 MLOAD PUSH4 0x39E35637 PUSH1 0xE1 SHL DUP2 MSTORE PUSH1 0x4 ADD PUSH2 0x5D1 SWAP2 SWAP1 PUSH2 0x17FB JUMP JUMPDEST PUSH1 0x1 PUSH1 0x1 PUSH1 0xE0 SHL SUB NOT DUP2 AND DUP2 EQ PUSH2 0xE17 JUMPI PUSH0 DUP1 REVERT JUMPDEST PUSH0 PUSH1 0x20 DUP3 DUP5 SUB SLT ISZERO PUSH2 0x173E JUMPI PUSH0 DUP1 REVERT JUMPDEST DUP2 CALLDATALOAD PUSH2 0xBDD DUP2 PUSH2 0x1719 JUMP JUMPDEST DUP1 CALLDATALOAD PUSH1 0x1 PUSH1 0x1 PUSH1 0xA0 SHL SUB DUP2 AND DUP2 EQ PUSH2 0x175F JUMPI PUSH0 DUP1 REVERT JUMPDEST SWAP2 SWAP1 POP JUMP JUMPDEST PUSH0 DUP1 PUSH1 0x40 DUP4 DUP6 SUB SLT ISZERO PUSH2 0x1775 JUMPI PUSH0 DUP1 REVERT JUMPDEST PUSH2 0x177E DUP4 PUSH2 0x1749 JUMP JUMPDEST SWAP2 POP PUSH1 0x20 DUP4 ADD CALLDATALOAD PUSH1 0x1 PUSH1 0x1 PUSH1 0x60 SHL SUB DUP2 AND DUP2 EQ PUSH2 0x1799 JUMPI PUSH0 DUP1 REVERT JUMPDEST DUP1 SWAP2 POP POP SWAP3 POP SWAP3 SWAP1 POP JUMP JUMPDEST PUSH0 DUP2 MLOAD DUP1 DUP5 MSTORE DUP1 PUSH1 0x20 DUP5 ADD PUSH1 0x20 DUP7 ADD MCOPY PUSH0 PUSH1 0x20 DUP3 DUP7 ADD ADD MSTORE PUSH1 0x20 PUSH1 0x1F NOT PUSH1 0x1F DUP4 ADD AND DUP6 ADD ADD SWAP2 POP POP SWAP3 SWAP2 POP POP JUMP JUMPDEST PUSH1 0x20 DUP2 MSTORE PUSH0 PUSH2 0xBDD PUSH1 0x20 DUP4 ADD DUP5 PUSH2 0x17A4 JUMP JUMPDEST PUSH0 PUSH1 0x20 DUP3 DUP5 SUB SLT ISZERO PUSH2 0x17F4 JUMPI PUSH0 DUP1 REVERT JUMPDEST POP CALLDATALOAD SWAP2 SWAP1 POP JUMP JUMPDEST PUSH1 0x1 PUSH1 0x1 PUSH1 0xA0 SHL SUB SWAP2 SWAP1 SWAP2 AND DUP2 MSTORE PUSH1 0x20 ADD SWAP1 JUMP JUMPDEST PUSH0 DUP1 PUSH1 0x40 DUP4 DUP6 SUB SLT ISZERO PUSH2 0x1820 JUMPI PUSH0 DUP1 REVERT JUMPDEST PUSH2 0x1829 DUP4 PUSH2 0x1749 JUMP JUMPDEST SWAP5 PUSH1 0x20 SWAP4 SWAP1 SWAP4 ADD CALLDATALOAD SWAP4 POP POP POP JUMP JUMPDEST PUSH0 DUP1 PUSH0 PUSH1 0x60 DUP5 DUP7 SUB SLT ISZERO PUSH2 0x1849 JUMPI PUSH0 DUP1 REVERT JUMPDEST PUSH2 0x1852 DUP5 PUSH2 0x1749 JUMP JUMPDEST SWAP3 POP PUSH2 0x1860 PUSH1 0x20 DUP6 ADD PUSH2 0x1749 JUMP JUMPDEST SWAP3 SWAP6 SWAP3 SWAP5 POP POP POP PUSH1 0x40 SWAP2 SWAP1 SWAP2 ADD CALLDATALOAD SWAP1 JUMP JUMPDEST PUSH0 DUP1 PUSH1 0x40 DUP4 DUP6 SUB SLT ISZERO PUSH2 0x1882 JUMPI PUSH0 DUP1 REVERT JUMPDEST POP POP DUP1 CALLDATALOAD SWAP3 PUSH1 0x20 SWAP1 SWAP2 ADD CALLDATALOAD SWAP2 POP JUMP JUMPDEST PUSH0 DUP1 PUSH1 0x40 DUP4 DUP6 SUB SLT ISZERO PUSH2 0x18A2 JUMPI PUSH0 DUP1 REVERT JUMPDEST DUP3 CALLDATALOAD SWAP2 POP PUSH2 0x18B2 PUSH1 0x20 DUP5 ADD PUSH2 0x1749 JUMP JUMPDEST SWAP1 POP SWAP3 POP SWAP3 SWAP1 POP JUMP JUMPDEST PUSH0 PUSH1 0x20 DUP3 DUP5 SUB SLT ISZERO PUSH2 0x18CB JUMPI PUSH0 DUP1 REVERT JUMPDEST PUSH2 0xBDD DUP3 PUSH2 0x1749 JUMP JUMPDEST PUSH0 DUP1 PUSH1 0x40 DUP4 DUP6 SUB SLT ISZERO PUSH2 0x18E5 JUMPI PUSH0 DUP1 REVERT JUMPDEST PUSH2 0x18EE DUP4 PUSH2 0x1749 JUMP JUMPDEST SWAP2 POP PUSH1 0x20 DUP4 ADD CALLDATALOAD DUP1 ISZERO ISZERO DUP2 EQ PUSH2 0x1799 JUMPI PUSH0 DUP1 REVERT JUMPDEST PUSH1 0xC0 DUP2 MSTORE PUSH0 PUSH2 0x1914 PUSH1 0xC0 DUP4 ADD DUP10 PUSH2 0x17A4 JUMP JUMPDEST DUP3 DUP2 SUB PUSH1 0x20 DUP5 ADD MSTORE PUSH2 0x1926 DUP2 DUP10 PUSH2 0x17A4 JUMP JUMPDEST PUSH1 0x40 DUP5 ADD SWAP8 SWAP1 SWAP8 MSTORE POP POP PUSH1 0x60 DUP2 ADD SWAP4 SWAP1 SWAP4 MSTORE SWAP1 ISZERO ISZERO PUSH1 0x80 DUP4 ADD MSTORE PUSH1 0xA0 SWAP1 SWAP2 ADD MSTORE SWAP3 SWAP2 POP POP JUMP JUMPDEST PUSH4 0x4E487B71 PUSH1 0xE0 SHL PUSH0 MSTORE PUSH1 0x41 PUSH1 0x4 MSTORE PUSH1 0x24 PUSH0 REVERT JUMPDEST PUSH0 DUP1 PUSH1 0x1 PUSH1 0x1 PUSH1 0x40 SHL SUB DUP5 GT ISZERO PUSH2 0x1979 JUMPI PUSH2 0x1979 PUSH2 0x194C JUMP JUMPDEST POP PUSH1 0x40 MLOAD PUSH1 0x1F NOT PUSH1 0x1F DUP6 ADD DUP2 AND PUSH1 0x3F ADD AND DUP2 ADD DUP2 DUP2 LT PUSH1 0x1 PUSH1 0x1 PUSH1 0x40 SHL SUB DUP3 GT OR ISZERO PUSH2 0x19A7 JUMPI PUSH2 0x19A7 PUSH2 0x194C JUMP JUMPDEST PUSH1 0x40 MSTORE DUP4 DUP2 MSTORE SWAP1 POP DUP1 DUP3 DUP5 ADD DUP6 LT ISZERO PUSH2 0x19BE JUMPI PUSH0 DUP1 REVERT JUMPDEST DUP4 DUP4 PUSH1 0x20 DUP4 ADD CALLDATACOPY PUSH0 PUSH1 0x20 DUP6 DUP4 ADD ADD MSTORE POP SWAP4 SWAP3 POP POP POP JUMP JUMPDEST PUSH0 DUP1 PUSH0 DUP1 PUSH1 0x80 DUP6 DUP8 SUB SLT ISZERO PUSH2 0x19E8 JUMPI PUSH0 DUP1 REVERT JUMPDEST PUSH2 0x19F1 DUP6 PUSH2 0x1749 JUMP JUMPDEST SWAP4 POP PUSH2 0x19FF PUSH1 0x20 DUP7 ADD PUSH2 0x1749 JUMP JUMPDEST SWAP3 POP PUSH1 0x40 DUP6 ADD CALLDATALOAD SWAP2 POP PUSH1 0x60 DUP6 ADD CALLDATALOAD PUSH1 0x1 PUSH1 0x1 PUSH1 0x40 SHL SUB DUP2 GT ISZERO PUSH2 0x1A20 JUMPI PUSH0 DUP1 REVERT JUMPDEST DUP6 ADD PUSH1 0x1F DUP2 ADD DUP8 SGT PUSH2 0x1A30 JUMPI PUSH0 DUP1 REVERT JUMPDEST PUSH2 0x1A3F DUP8 DUP3 CALLDATALOAD PUSH1 0x20 DUP5 ADD PUSH2 0x1960 JUMP JUMPDEST SWAP2 POP POP SWAP3 SWAP6 SWAP2 SWAP5 POP SWAP3 POP JUMP JUMPDEST PUSH0 DUP1 PUSH1 0x40 DUP4 DUP6 SUB SLT ISZERO PUSH2 0x1A5C JUMPI PUSH0 DUP1 REVERT JUMPDEST PUSH2 0x1A65 DUP4 PUSH2 0x1749 JUMP JUMPDEST SWAP2 POP PUSH2 0x18B2 PUSH1 0x20 DUP5 ADD PUSH2 0x1749 JUMP JUMPDEST PUSH0 DUP3 PUSH1 0x1F DUP4 ADD SLT PUSH2 0x1A82 JUMPI PUSH0 DUP1 REVERT JUMPDEST PUSH2 0xBDD DUP4 DUP4 CALLDATALOAD PUSH1 0x20 DUP6 ADD PUSH2 0x1960 JUMP JUMPDEST PUSH0 DUP1 PUSH1 0x40 DUP4 DUP6 SUB SLT ISZERO PUSH2 0x1AA2 JUMPI PUSH0 DUP1 REVERT JUMPDEST DUP3 CALLDATALOAD PUSH1 0x1 PUSH1 0x1 PUSH1 0x40 SHL SUB DUP2 GT ISZERO PUSH2 0x1AB7 JUMPI PUSH0 DUP1 REVERT JUMPDEST PUSH2 0x1AC3 DUP6 DUP3 DUP7 ADD PUSH2 0x1A73 JUMP JUMPDEST SWAP3 POP POP PUSH1 0x20 DUP4 ADD CALLDATALOAD PUSH1 0x1 PUSH1 0x1 PUSH1 0x40 SHL SUB DUP2 GT ISZERO PUSH2 0x1ADE JUMPI PUSH0 DUP1 REVERT JUMPDEST PUSH2 0x1AEA DUP6 DUP3 DUP7 ADD PUSH2 0x1A73 JUMP JUMPDEST SWAP2 POP POP SWAP3 POP SWAP3 SWAP1 POP JUMP JUMPDEST PUSH1 0x1 DUP2 DUP2 SHR SWAP1 DUP3 AND DUP1 PUSH2 0x1B08 JUMPI PUSH1 0x7F DUP3 AND SWAP2 POP JUMPDEST PUSH1 0x20 DUP3 LT DUP2 SUB PUSH2 0x1B26 JUMPI PUSH4 0x4E487B71 PUSH1 0xE0 SHL PUSH0 MSTORE PUSH1 0x22 PUSH1 0x4 MSTORE PUSH1 0x24 PUSH0 REVERT JUMPDEST POP SWAP2 SWAP1 POP JUMP JUMPDEST PUSH4 0x4E487B71 PUSH1 0xE0 SHL PUSH0 MSTORE PUSH1 0x11 PUSH1 0x4 MSTORE PUSH1 0x24 PUSH0 REVERT JUMPDEST DUP1 DUP3 MUL DUP2 ISZERO DUP3 DUP3 DIV DUP5 EQ OR PUSH2 0x4BC JUMPI PUSH2 0x4BC PUSH2 0x1B2C JUMP JUMPDEST PUSH0 DUP3 PUSH2 0x1B71 JUMPI PUSH4 0x4E487B71 PUSH1 0xE0 SHL PUSH0 MSTORE PUSH1 0x12 PUSH1 0x4 MSTORE PUSH1 0x24 PUSH0 REVERT JUMPDEST POP DIV SWAP1 JUMP JUMPDEST DUP2 DUP2 SUB DUP2 DUP2 GT ISZERO PUSH2 0x4BC JUMPI PUSH2 0x4BC PUSH2 0x1B2C JUMP JUMPDEST SWAP3 DUP4 MSTORE PUSH1 0x1 PUSH1 0x1 PUSH1 0xA0 SHL SUB SWAP2 SWAP1 SWAP2 AND PUSH1 0x20 DUP4 ADD MSTORE PUSH1 0x40 DUP3 ADD MSTORE PUSH1 0x60 ADD SWAP1 JUMP JUMPDEST DUP1 DUP3 ADD DUP1 DUP3 GT ISZERO PUSH2 0x4BC JUMPI PUSH2 0x4BC PUSH2 0x1B2C JUMP JUMPDEST PUSH0 DUP2 MLOAD DUP1 PUSH1 0x20 DUP5 ADD DUP6 MCOPY PUSH0 SWAP4 ADD SWAP3 DUP4 MSTORE POP SWAP1 SWAP2 SWAP1 POP JUMP JUMPDEST PUSH0 PUSH2 0x16B0 PUSH2 0x1BE0 DUP4 DUP7 PUSH2 0x1BBB JUMP JUMPDEST DUP5 PUSH2 0x1BBB JUMP JUMPDEST PUSH1 0x1F DUP3 GT ISZERO PUSH2 0x74C JUMPI DUP1 PUSH0 MSTORE PUSH1 0x20 PUSH0 KECCAK256 PUSH1 0x1F DUP5 ADD PUSH1 0x5 SHR DUP2 ADD PUSH1 0x20 DUP6 LT ISZERO PUSH2 0x1C0B JUMPI POP DUP1 JUMPDEST PUSH1 0x1F DUP5 ADD PUSH1 0x5 SHR DUP3 ADD SWAP2 POP JUMPDEST DUP2 DUP2 LT ISZERO PUSH2 0x12EA JUMPI PUSH0 DUP2 SSTORE PUSH1 0x1 ADD PUSH2 0x1C17 JUMP JUMPDEST DUP2 MLOAD PUSH1 0x1 PUSH1 0x1 PUSH1 0x40 SHL SUB DUP2 GT ISZERO PUSH2 0x1C43 JUMPI PUSH2 0x1C43 PUSH2 0x194C JUMP JUMPDEST PUSH2 0x1C57 DUP2 PUSH2 0x1C51 DUP5 SLOAD PUSH2 0x1AF4 JUMP JUMPDEST DUP5 PUSH2 0x1BE6 JUMP JUMPDEST PUSH1 0x20 PUSH1 0x1F DUP3 GT PUSH1 0x1 DUP2 EQ PUSH2 0x1C89 JUMPI PUSH0 DUP4 ISZERO PUSH2 0x1C72 JUMPI POP DUP5 DUP3 ADD MLOAD JUMPDEST PUSH0 NOT PUSH1 0x3 DUP6 SWAP1 SHL SHR NOT AND PUSH1 0x1 DUP5 SWAP1 SHL OR DUP5 SSTORE PUSH2 0x12EA JUMP JUMPDEST PUSH0 DUP5 DUP2 MSTORE PUSH1 0x20 DUP2 KECCAK256 PUSH1 0x1F NOT DUP6 AND SWAP2 JUMPDEST DUP3 DUP2 LT ISZERO PUSH2 0x1CB8 JUMPI DUP8 DUP6 ADD MLOAD DUP3 SSTORE PUSH1 0x20 SWAP5 DUP6 ADD SWAP5 PUSH1 0x1 SWAP1 SWAP3 ADD SWAP2 ADD PUSH2 0x1C98 JUMP JUMPDEST POP DUP5 DUP3 LT ISZERO PUSH2 0x1CD5 JUMPI DUP7 DUP5 ADD MLOAD PUSH0 NOT PUSH1 0x3 DUP8 SWAP1 SHL PUSH1 0xF8 AND SHR NOT AND DUP2 SSTORE JUMPDEST POP POP POP POP PUSH1 0x1 SWAP1 DUP2 SHL ADD SWAP1 SSTORE POP JUMP JUMPDEST DUP4 DUP2 MSTORE PUSH1 0x60 PUSH1 0x20 DUP3 ADD MSTORE PUSH0 PUSH2 0x1CFC PUSH1 0x60 DUP4 ADD DUP6 PUSH2 0x17A4 JUMP JUMPDEST DUP3 DUP2 SUB PUSH1 0x40 DUP5 ADD MSTORE PUSH2 0x1D0E DUP2 DUP6 PUSH2 0x17A4 JUMP JUMPDEST SWAP7 SWAP6 POP POP POP POP POP POP JUMP JUMPDEST PUSH1 0x1 PUSH1 0x1 PUSH1 0xA0 SHL SUB DUP6 DUP2 AND DUP3 MSTORE DUP5 AND PUSH1 0x20 DUP3 ADD MSTORE PUSH1 0x40 DUP2 ADD DUP4 SWAP1 MSTORE PUSH1 0x80 PUSH1 0x60 DUP3 ADD DUP2 SWAP1 MSTORE PUSH0 SWAP1 PUSH2 0x1D0E SWAP1 DUP4 ADD DUP5 PUSH2 0x17A4 JUMP JUMPDEST PUSH0 PUSH1 0x20 DUP3 DUP5 SUB SLT ISZERO PUSH2 0x1D5A JUMPI PUSH0 DUP1 REVERT JUMPDEST DUP2 MLOAD PUSH2 0xBDD DUP2 PUSH2 0x1719 JUMP INVALID PUSH9 0x747470733A2F2F696E PUSH9 0x6572656E742D736361 PUSH19 0x6C65742D746172736965722E6D7966696C6562 PUSH2 0x7365 0x2E PUSH4 0x6F6D2F69 PUSH17 0x66732F516D64414B6A4C3339684E595243 PREVRANDAO PUSH17 0x344A7339613844524A794D755673626159 PUSH8 0x375334764B586354 MSTORE PUSH7 0x37652FA2646970 PUSH7 0x7358221220472E 0xF6 0xDD 0xB1 MLOAD 0x2F PUSH2 0x777C 0xBB 0xEA 0x24 SWAP3 DUP5 0xF7 CALL 0xED PUSH27 0xA56F1DEA5870DD89F3AF5DF03264736F6C634300081A0033000000 "
		},
		"gasEstimates": {
			"creation": {
				"codeDepositCost": "1535800",
				"executionCost": "infinite",
				"totalCost": "infinite"
			},
			"external": {
				"MAX_SHARES_PER_TRACK()": "239",
				"SHARE_PRICE_USD()": "305",
				"accumulateRoyalty(uint256)": "28125",
				"approve(address,uint256)": "31553",
				"balanceOf(address)": "2630",
				"createTrack(string,string)": "infinite",
				"getApproved(uint256)": "infinite",
				"getOwnerSharePercentage(uint256,address)": "2908",
				"isApprovedForAll(address,address)": "infinite",
				"name()": "infinite",
				"owner()": "2443",
				"ownerOf(uint256)": "infinite",
				"purchaseShares(uint256,uint256)": "infinite",
				"renounceOwnership()": "infinite",
				"royaltyInfo(uint256,uint256)": "5161",
				"safeTransferFrom(address,address,uint256)": "infinite",
				"safeTransferFrom(address,address,uint256,bytes)": "infinite",
				"setApprovalForAll(address,bool)": "26789",
				"setRoyaltyInfo(address,uint96)": "24940",
				"supportsInterface(bytes4)": "infinite",
				"symbol()": "infinite",
				"tokenURI(uint256)": "infinite",
				"totalSupply()": "2462",
				"tracks(uint256)": "infinite",
				"transferFrom(address,address,uint256)": "infinite",
				"transferOwnership(address)": "28465",
				"withdrawRoyalty(uint256)": "infinite"
			},
			"internal": {
				"_baseURI()": "infinite"
			}
		},
		"methodIdentifiers": {
			"MAX_SHARES_PER_TRACK()": "293945b4",
			"SHARE_PRICE_USD()": "414e8029",
			"accumulateRoyalty(uint256)": "bb86759f",
			"approve(address,uint256)": "095ea7b3",
			"balanceOf(address)": "70a08231",
			"createTrack(string,string)": "f3720cca",
			"getApproved(uint256)": "081812fc",
			"getOwnerSharePercentage(uint256,address)": "343e988c",
			"isApprovedForAll(address,address)": "e985e9c5",
			"name()": "06fdde03",
			"owner()": "8da5cb5b",
			"ownerOf(uint256)": "6352211e",
			"purchaseShares(uint256,uint256)": "d2bcdc60",
			"renounceOwnership()": "715018a6",
			"royaltyInfo(uint256,uint256)": "2a55205a",
			"safeTransferFrom(address,address,uint256)": "42842e0e",
			"safeTransferFrom(address,address,uint256,bytes)": "b88d4fde",
			"setApprovalForAll(address,bool)": "a22cb465",
			"setRoyaltyInfo(address,uint96)": "02fa7c47",
			"supportsInterface(bytes4)": "01ffc9a7",
			"symbol()": "95d89b41",
			"tokenURI(uint256)": "c87b56dd",
			"totalSupply()": "18160ddd",
			"tracks(uint256)": "a2e34586",
			"transferFrom(address,address,uint256)": "23b872dd",
			"transferOwnership(address)": "f2fde38b",
			"withdrawRoyalty(uint256)": "57a2eda9"
		}
	},
	"abi": [
		{
			"inputs": [
				{
					"internalType": "uint96",
					"name": "_royaltyFeesInBips",
					"type": "uint96"
				},
				{
					"internalType": "address",
					"name": "_royaltyReceiverAddress",
					"type": "address"
				}
			],
			"stateMutability": "nonpayable",
			"type": "constructor"
		},
		{
			"inputs": [
				{
					"internalType": "uint256",
					"name": "numerator",
					"type": "uint256"
				},
				{
					"internalType": "uint256",
					"name": "denominator",
					"type": "uint256"
				}
			],
			"name": "ERC2981InvalidDefaultRoyalty",
			"type": "error"
		},
		{
			"inputs": [
				{
					"internalType": "address",
					"name": "receiver",
					"type": "address"
				}
			],
			"name": "ERC2981InvalidDefaultRoyaltyReceiver",
			"type": "error"
		},
		{
			"inputs": [
				{
					"internalType": "uint256",
					"name": "tokenId",
					"type": "uint256"
				},
				{
					"internalType": "uint256",
					"name": "numerator",
					"type": "uint256"
				},
				{
					"internalType": "uint256",
					"name": "denominator",
					"type": "uint256"
				}
			],
			"name": "ERC2981InvalidTokenRoyalty",
			"type": "error"
		},
		{
			"inputs": [
				{
					"internalType": "uint256",
					"name": "tokenId",
					"type": "uint256"
				},
				{
					"internalType": "address",
					"name": "receiver",
					"type": "address"
				}
			],
			"name": "ERC2981InvalidTokenRoyaltyReceiver",
			"type": "error"
		},
		{
			"inputs": [
				{
					"internalType": "address",
					"name": "sender",
					"type": "address"
				},
				{
					"internalType": "uint256",
					"name": "tokenId",
					"type": "uint256"
				},
				{
					"internalType": "address",
					"name": "owner",
					"type": "address"
				}
			],
			"name": "ERC721IncorrectOwner",
			"type": "error"
		},
		{
			"inputs": [
				{
					"internalType": "address",
					"name": "operator",
					"type": "address"
				},
				{
					"internalType": "uint256",
					"name": "tokenId",
					"type": "uint256"
				}
			],
			"name": "ERC721InsufficientApproval",
			"type": "error"
		},
		{
			"inputs": [
				{
					"internalType": "address",
					"name": "approver",
					"type": "address"
				}
			],
			"name": "ERC721InvalidApprover",
			"type": "error"
		},
		{
			"inputs": [
				{
					"internalType": "address",
					"name": "operator",
					"type": "address"
				}
			],
			"name": "ERC721InvalidOperator",
			"type": "error"
		},
		{
			"inputs": [
				{
					"internalType": "address",
					"name": "owner",
					"type": "address"
				}
			],
			"name": "ERC721InvalidOwner",
			"type": "error"
		},
		{
			"inputs": [
				{
					"internalType": "address",
					"name": "receiver",
					"type": "address"
				}
			],
			"name": "ERC721InvalidReceiver",
			"type": "error"
		},
		{
			"inputs": [
				{
					"internalType": "address",
					"name": "sender",
					"type": "address"
				}
			],
			"name": "ERC721InvalidSender",
			"type": "error"
		},
		{
			"inputs": [
				{
					"internalType": "uint256",
					"name": "tokenId",
					"type": "uint256"
				}
			],
			"name": "ERC721NonexistentToken",
			"type": "error"
		},
		{
			"inputs": [
				{
					"internalType": "address",
					"name": "owner",
					"type": "address"
				}
			],
			"name": "OwnableInvalidOwner",
			"type": "error"
		},
		{
			"inputs": [
				{
					"internalType": "address",
					"name": "account",
					"type": "address"
				}
			],
			"name": "OwnableUnauthorizedAccount",
			"type": "error"
		},
		{
			"anonymous": false,
			"inputs": [
				{
					"indexed": true,
					"internalType": "address",
					"name": "owner",
					"type": "address"
				},
				{
					"indexed": true,
					"internalType": "address",
					"name": "approved",
					"type": "address"
				},
				{
					"indexed": true,
					"internalType": "uint256",
					"name": "tokenId",
					"type": "uint256"
				}
			],
			"name": "Approval",
			"type": "event"
		},
		{
			"anonymous": false,
			"inputs": [
				{
					"indexed": true,
					"internalType": "address",
					"name": "owner",
					"type": "address"
				},
				{
					"indexed": true,
					"internalType": "address",
					"name": "operator",
					"type": "address"
				},
				{
					"indexed": false,
					"internalType": "bool",
					"name": "approved",
					"type": "bool"
				}
			],
			"name": "ApprovalForAll",
			"type": "event"
		},
		{
			"anonymous": false,
			"inputs": [
				{
					"indexed": true,
					"internalType": "address",
					"name": "previousOwner",
					"type": "address"
				},
				{
					"indexed": true,
					"internalType": "address",
					"name": "newOwner",
					"type": "address"
				}
			],
			"name": "OwnershipTransferred",
			"type": "event"
		},
		{
			"anonymous": false,
			"inputs": [
				{
					"indexed": false,
					"internalType": "uint256",
					"name": "trackId",
					"type": "uint256"
				},
				{
					"indexed": false,
					"internalType": "uint256",
					"name": "amount",
					"type": "uint256"
				}
			],
			"name": "RoyaltyAccrued",
			"type": "event"
		},
		{
			"anonymous": false,
			"inputs": [
				{
					"indexed": false,
					"internalType": "uint256",
					"name": "trackId",
					"type": "uint256"
				},
				{
					"indexed": false,
					"internalType": "address",
					"name": "owner",
					"type": "address"
				},
				{
					"indexed": false,
					"internalType": "uint256",
					"name": "amount",
					"type": "uint256"
				}
			],
			"name": "RoyaltyWithdrawn",
			"type": "event"
		},
		{
			"anonymous": false,
			"inputs": [
				{
					"indexed": false,
					"internalType": "uint256",
					"name": "trackId",
					"type": "uint256"
				},
				{
					"indexed": false,
					"internalType": "address",
					"name": "buyer",
					"type": "address"
				},
				{
					"indexed": false,
					"internalType": "uint256",
					"name": "shares",
					"type": "uint256"
				}
			],
			"name": "SharePurchased",
			"type": "event"
		},
		{
			"anonymous": false,
			"inputs": [
				{
					"indexed": false,
					"internalType": "uint256",
					"name": "trackId",
					"type": "uint256"
				},
				{
					"indexed": false,
					"internalType": "string",
					"name": "title",
					"type": "string"
				},
				{
					"indexed": false,
					"internalType": "string",
					"name": "isrc",
					"type": "string"
				}
			],
			"name": "TrackCreated",
			"type": "event"
		},
		{
			"anonymous": false,
			"inputs": [
				{
					"indexed": true,
					"internalType": "address",
					"name": "from",
					"type": "address"
				},
				{
					"indexed": true,
					"internalType": "address",
					"name": "to",
					"type": "address"
				},
				{
					"indexed": true,
					"internalType": "uint256",
					"name": "tokenId",
					"type": "uint256"
				}
			],
			"name": "Transfer",
			"type": "event"
		},
		{
			"inputs": [],
			"name": "MAX_SHARES_PER_TRACK",
			"outputs": [
				{
					"internalType": "uint256",
					"name": "",
					"type": "uint256"
				}
			],
			"stateMutability": "view",
			"type": "function"
		},
		{
			"inputs": [],
			"name": "SHARE_PRICE_USD",
			"outputs": [
				{
					"internalType": "uint256",
					"name": "",
					"type": "uint256"
				}
			],
			"stateMutability": "view",
			"type": "function"
		},
		{
			"inputs": [
				{
					"internalType": "uint256",
					"name": "trackId",
					"type": "uint256"
				}
			],
			"name": "accumulateRoyalty",
			"outputs": [],
			"stateMutability": "payable",
			"type": "function"
		},
		{
			"inputs": [
				{
					"internalType": "address",
					"name": "to",
					"type": "address"
				},
				{
					"internalType": "uint256",
					"name": "tokenId",
					"type": "uint256"
				}
			],
			"name": "approve",
			"outputs": [],
			"stateMutability": "nonpayable",
			"type": "function"
		},
		{
			"inputs": [
				{
					"internalType": "address",
					"name": "owner",
					"type": "address"
				}
			],
			"name": "balanceOf",
			"outputs": [
				{
					"internalType": "uint256",
					"name": "",
					"type": "uint256"
				}
			],
			"stateMutability": "view",
			"type": "function"
		},
		{
			"inputs": [
				{
					"internalType": "string",
					"name": "_title",
					"type": "string"
				},
				{
					"internalType": "string",
					"name": "_isrc",
					"type": "string"
				}
			],
			"name": "createTrack",
			"outputs": [],
			"stateMutability": "nonpayable",
			"type": "function"
		},
		{
			"inputs": [
				{
					"internalType": "uint256",
					"name": "tokenId",
					"type": "uint256"
				}
			],
			"name": "getApproved",
			"outputs": [
				{
					"internalType": "address",
					"name": "",
					"type": "address"
				}
			],
			"stateMutability": "view",
			"type": "function"
		},
		{
			"inputs": [
				{
					"internalType": "uint256",
					"name": "trackId",
					"type": "uint256"
				},
				{
					"internalType": "address",
					"name": "owner",
					"type": "address"
				}
			],
			"name": "getOwnerSharePercentage",
			"outputs": [
				{
					"internalType": "uint256",
					"name": "",
					"type": "uint256"
				}
			],
			"stateMutability": "view",
			"type": "function"
		},
		{
			"inputs": [
				{
					"internalType": "address",
					"name": "owner",
					"type": "address"
				},
				{
					"internalType": "address",
					"name": "operator",
					"type": "address"
				}
			],
			"name": "isApprovedForAll",
			"outputs": [
				{
					"internalType": "bool",
					"name": "",
					"type": "bool"
				}
			],
			"stateMutability": "view",
			"type": "function"
		},
		{
			"inputs": [],
			"name": "name",
			"outputs": [
				{
					"internalType": "string",
					"name": "",
					"type": "string"
				}
			],
			"stateMutability": "view",
			"type": "function"
		},
		{
			"inputs": [],
			"name": "owner",
			"outputs": [
				{
					"internalType": "address",
					"name": "",
					"type": "address"
				}
			],
			"stateMutability": "view",
			"type": "function"
		},
		{
			"inputs": [
				{
					"internalType": "uint256",
					"name": "tokenId",
					"type": "uint256"
				}
			],
			"name": "ownerOf",
			"outputs": [
				{
					"internalType": "address",
					"name": "",
					"type": "address"
				}
			],
			"stateMutability": "view",
			"type": "function"
		},
		{
			"inputs": [
				{
					"internalType": "uint256",
					"name": "trackId",
					"type": "uint256"
				},
				{
					"internalType": "uint256",
					"name": "numShares",
					"type": "uint256"
				}
			],
			"name": "purchaseShares",
			"outputs": [],
			"stateMutability": "payable",
			"type": "function"
		},
		{
			"inputs": [],
			"name": "renounceOwnership",
			"outputs": [],
			"stateMutability": "nonpayable",
			"type": "function"
		},
		{
			"inputs": [
				{
					"internalType": "uint256",
					"name": "tokenId",
					"type": "uint256"
				},
				{
					"internalType": "uint256",
					"name": "salePrice",
					"type": "uint256"
				}
			],
			"name": "royaltyInfo",
			"outputs": [
				{
					"internalType": "address",
					"name": "",
					"type": "address"
				},
				{
					"internalType": "uint256",
					"name": "",
					"type": "uint256"
				}
			],
			"stateMutability": "view",
			"type": "function"
		},
		{
			"inputs": [
				{
					"internalType": "address",
					"name": "from",
					"type": "address"
				},
				{
					"internalType": "address",
					"name": "to",
					"type": "address"
				},
				{
					"internalType": "uint256",
					"name": "tokenId",
					"type": "uint256"
				}
			],
			"name": "safeTransferFrom",
			"outputs": [],
			"stateMutability": "nonpayable",
			"type": "function"
		},
		{
			"inputs": [
				{
					"internalType": "address",
					"name": "from",
					"type": "address"
				},
				{
					"internalType": "address",
					"name": "to",
					"type": "address"
				},
				{
					"internalType": "uint256",
					"name": "tokenId",
					"type": "uint256"
				},
				{
					"internalType": "bytes",
					"name": "data",
					"type": "bytes"
				}
			],
			"name": "safeTransferFrom",
			"outputs": [],
			"stateMutability": "nonpayable",
			"type": "function"
		},
		{
			"inputs": [
				{
					"internalType": "address",
					"name": "operator",
					"type": "address"
				},
				{
					"internalType": "bool",
					"name": "approved",
					"type": "bool"
				}
			],
			"name": "setApprovalForAll",
			"outputs": [],
			"stateMutability": "nonpayable",
			"type": "function"
		},
		{
			"inputs": [
				{
					"internalType": "address",
					"name": "_receiver",
					"type": "address"
				},
				{
					"internalType": "uint96",
					"name": "_royaltyFeesInBips",
					"type": "uint96"
				}
			],
			"name": "setRoyaltyInfo",
			"outputs": [],
			"stateMutability": "nonpayable",
			"type": "function"
		},
		{
			"inputs": [
				{
					"internalType": "bytes4",
					"name": "interfaceId",
					"type": "bytes4"
				}
			],
			"name": "supportsInterface",
			"outputs": [
				{
					"internalType": "bool",
					"name": "",
					"type": "bool"
				}
			],
			"stateMutability": "view",
			"type": "function"
		},
		{
			"inputs": [],
			"name": "symbol",
			"outputs": [
				{
					"internalType": "string",
					"name": "",
					"type": "string"
				}
			],
			"stateMutability": "view",
			"type": "function"
		},
		{
			"inputs": [
				{
					"internalType": "uint256",
					"name": "tokenId",
					"type": "uint256"
				}
			],
			"name": "tokenURI",
			"outputs": [
				{
					"internalType": "string",
					"name": "",
					"type": "string"
				}
			],
			"stateMutability": "view",
			"type": "function"
		},
		{
			"inputs": [],
			"name": "totalSupply",
			"outputs": [
				{
					"internalType": "uint256",
					"name": "",
					"type": "uint256"
				}
			],
			"stateMutability": "view",
			"type": "function"
		},
		{
			"inputs": [
				{
					"internalType": "uint256",
					"name": "",
					"type": "uint256"
				}
			],
			"name": "tracks",
			"outputs": [
				{
					"internalType": "string",
					"name": "title",
					"type": "string"
				},
				{
					"internalType": "string",
					"name": "isrc",
					"type": "string"
				},
				{
					"internalType": "uint256",
					"name": "pricePerShare",
					"type": "uint256"
				},
				{
					"internalType": "uint256",
					"name": "sharesRemaining",
					"type": "uint256"
				},
				{
					"internalType": "bool",
					"name": "isAvailable",
					"type": "bool"
				},
				{
					"internalType": "uint256",
					"name": "totalRoyalty",
					"type": "uint256"
				}
			],
			"stateMutability": "view",
			"type": "function"
		},
		{
			"inputs": [
				{
					"internalType": "address",
					"name": "from",
					"type": "address"
				},
				{
					"internalType": "address",
					"name": "to",
					"type": "address"
				},
				{
					"internalType": "uint256",
					"name": "tokenId",
					"type": "uint256"
				}
			],
			"name": "transferFrom",
			"outputs": [],
			"stateMutability": "nonpayable",
			"type": "function"
		},
		{
			"inputs": [
				{
					"internalType": "address",
					"name": "newOwner",
					"type": "address"
				}
			],
			"name": "transferOwnership",
			"outputs": [],
			"stateMutability": "nonpayable",
			"type": "function"
		},
		{
			"inputs": [
				{
					"internalType": "uint256",
					"name": "trackId",
					"type": "uint256"
				}
			],
			"name": "withdrawRoyalty",
			"outputs": [],
			"stateMutability": "nonpayable",
			"type": "function"
		}
	]
}