{
	"data": {
		"bytecode": {
			"linkReferences": {},
			"object": "6080604052348015600e575f80fd5b503380603357604051631e4fbdf760e01b81525f600482015260240160405180910390fd5b603a81603f565b50608e565b5f80546001600160a01b038381166001600160a01b0319831681178455604051919092169283917f8be0079c531659141344cd1fd0a4f28419497f9722a3daafe3b4186f6b6457e09190a35050565b6132a88061009b5f395ff3fe60806040526004361061009a575f3560e01c80638c64ea4a116100625780638c64ea4a146101595780638da5cb5b146101ea578063ac9580411461020e578063e210a72d14610232578063f2fde38b14610245578063ff52575c14610264575f80fd5b8063058340581461009e578063150b7a02146100bf578063383d870914610107578063715018a61461012657806381257bd51461013a575b5f80fd5b3480156100a9575f80fd5b506100bd6100b8366004610fb7565b610298565b005b3480156100ca575f80fd5b506100e96100d936600461106d565b630a85bd0160e11b949350505050565b6040516001600160e01b031990911681526020015b60405180910390f35b348015610112575f80fd5b506100bd61012136600461110d565b6106f9565b348015610131575f80fd5b506100bd6108f4565b348015610145575f80fd5b506100bd61015436600461118b565b610907565b348015610164575f80fd5b506101d4610173366004610fb7565b600160208190525f91825260409091208054918101546002820154600383015460048401546005850154600686015460078701546009909701546001600160a01b039889169896979587169680861696600160a01b90960460ff169516908a565b6040516100fe9a999897969594939291906111bf565b3480156101f5575f80fd5b505f546001600160a01b03166040516100fe9190611247565b348015610219575f80fd5b506002546102249081565b6040519081526020016100fe565b6100bd61024036600461125b565b610cb7565b348015610250575f80fd5b506100bd61025f366004611284565b610e1e565b34801561026f575f80fd5b5061028361027e366004610fb7565b610e5b565b604080519283529015156020830152016100fe565b5f818152600160205260409020600581015442116102f45760405162461bcd60e51b81526020600482015260146024820152734f66666572206973207374696c2061637469766560601b60448201526064015b60405180910390fd5b60038101546007820154604080516318160ddd60e01b815290516001600160a01b0393841693909216915f9184916318160ddd916004808201926020929091908290030181865afa15801561034b573d5f803e3d5ffd5b505050506040513d601f19601f8201168201806040525081019061036f919061129f565b90505f606485600601548361038491906112ca565b61038e91906112e7565b905080856009015410156104c85760048501546040516001600160a01b0385169180156108fc02915f818181858888f193505050501580156103d2573d5f803e3d5ffd5b505f5b600a8601548110156104c2575f86600a0182815481106103f7576103f7611306565b5f9182526020808320909101546001600160a01b031680835260088a0190915260408220549092509081900361042e5750506104ba565b60405163a9059cbb60e01b81526001600160a01b0383811660048301526024820183905288169063a9059cbb906044016020604051808303815f875af115801561047a573d5f803e3d5ffd5b505050506040513d601f19601f8201168201806040525081019061049e919061131a565b50506001600160a01b03165f9081526008870160205260408120555b6001016103d5565b506106a0565b60405163a9059cbb60e01b81526001600160a01b0384811660048301526024820183905285169063a9059cbb906044016020604051808303815f875af1158015610514573d5f803e3d5ffd5b505050506040513d601f19601f82011682018060405250810190610538919061131a565b505f600a866004015461054b91906112e7565b90505f81876004015461055e9190611339565b90506105715f546001600160a01b031690565b6001600160a01b03166108fc8390811502906040515f60405180830381858888f193505050501580156105a6573d5f803e3d5ffd5b505f836105bb83670de0b6b3a76400006112ca565b6105c591906112e7565b90505f5b600a89015481101561069b575f89600a0182815481106105eb576105eb611306565b5f9182526020808320909101546001600160a01b031680835260088d01909152604082205490925090819003610622575050610693565b5f670de0b6b3a764000061063686846112ca565b61064091906112e7565b6040519091506001600160a01b0384169082156108fc029083905f818181858888f19350505050158015610676573d5f803e3d5ffd5b5050506001600160a01b03165f90815260088a0160205260408120555b6001016105c9565b505050505b5f600686018190556007860180546001600160a01b03191690556009860181905560058601819055600486018190556003860154600160a01b900460ff1660018111156106ef576106ef6111ab565b5050505050505050565b610701610f2f565b61070f600280546001019055565b5f61071960025490565b6040516331a9108f60e11b8152600481018490529091505f906001600160a01b03851690636352211e90602401602060405180830381865afa158015610761573d5f803e3d5ffd5b505050506040513d601f19601f82011682018060405250810190610785919061134c565b604051632142170760e11b81529091506001600160a01b038516906342842e0e906107b890849030908890600401611367565b5f604051808303815f87803b1580156107cf575f80fd5b505af11580156107e1573d5f803e3d5ffd5b5050505f838152600160208190526040822080546001600160a01b03808a166001600160a01b03199283161783559282018890556002820180549387169390911692909217909155915087876843c33c19375648000085873061084b5f546001600160a01b031690565b60405161085790610faa565b61086797969594939291906113b9565b604051809103905ff080158015610880573d5f803e3d5ffd5b506003830180546001600160a01b0319166001600160a01b038381169190911790915560408051918916825260208201889052339082015290915084907fc87ebaa7d5fc0db3eebbf1a47ea5fcebff3acb2c32423ebd3335adc1778174179060600160405180910390a25050505050505050565b6108fc610f2f565b6109055f610f5b565b565b5f828152600160205260409020600581015442106109595760405162461bcd60e51b815260206004820152600f60248201526e13d999995c881dd85cc8195b991959608a1b60448201526064016102eb565b6003810154604051636eb1769f60e11b815233600482015230602482015283916001600160a01b03169063dd62ed3e90604401602060405180830381865afa1580156109a7573d5f803e3d5ffd5b505050506040513d601f19601f820116820180604052508101906109cb919061129f565b148015610a4757506003810154604051636eb1769f60e11b81523360048201523060248201525f916001600160a01b03169063dd62ed3e90604401602060405180830381865afa158015610a21573d5f803e3d5ffd5b505050506040513d601f19601f82011682018060405250810190610a45919061129f565b115b610aa55760405162461bcd60e51b815260206004820152602960248201527f496e73756666696369656e7420616c6c6f77616e636520746f207472616e7366604482015268657220746f6b656e7360b81b60648201526084016102eb565b6003810154604080516318160ddd60e01b815290515f926001600160a01b0316916318160ddd9160048083019260209291908290030181865afa158015610aee573d5f803e3d5ffd5b505050506040513d601f19601f82011682018060405250810190610b12919061129f565b90505f6064836006015483610b2791906112ca565b610b3191906112e7565b905080848460090154610b449190611416565b1115610ba75760405162461bcd60e51b815260206004820152602c60248201527f506c656173652120636865636b2074686520617661696c61626c6520616d6f7560448201526b1b9d081d1bc81858d8d95c1d60a21b60648201526084016102eb565b60038301546040516323b872dd60e01b81526001600160a01b03909116906323b872dd90610bdd90339030908990600401611367565b6020604051808303815f875af1158015610bf9573d5f803e3d5ffd5b505050506040513d601f19601f82011682018060405250810190610c1d919061131a565b50335f9081526008840160205260408120859055600984018054869290610c45908490611416565b9091555050600a830180546001810182555f91825260209091200180546001600160a01b03191633179055600983015460405186917f397f87b3946767b09967764d50032941de13a2606bcb39dfed61d7b1ed0192cc91610ca891815260200190565b60405180910390a25050505050565b5f838152600160205260408120906003820154600160a01b900460ff166001811115610ce557610ce56111ab565b14610d3c5760405162461bcd60e51b815260206004820152602160248201527f5661756c7420616c72656164792068616420616e20616374697665206f6666656044820152603960f91b60648201526084016102eb565b5f3411610d9a5760405162461bcd60e51b815260206004820152602660248201527f4f6666657220616d6f756e74206d7573742062652067726561746572207468616044820152656e207a65726f60d01b60648201526084016102eb565b600681018390556007810180546001600160a01b03191633179055610dbf8242611416565b600582015560038101805460ff60a01b1916600160a01b17905534600482015560408051848152336020820152815186927f53658d2ac4988b1c671f54219e366b4c7cdebdbfd92fd0762b1524d9abbc5cc1928290030190a250505050565b610e26610f2f565b6001600160a01b038116610e4f575f604051631e4fbdf760e01b81526004016102eb9190611247565b610e5881610f5b565b50565b5f818152600160209081526040808320600381015482516318160ddd60e01b815292518594929385936001600160a01b03909316926318160ddd926004808401938290030181865afa158015610eb3573d5f803e3d5ffd5b505050506040513d601f19601f82011682018060405250810190610ed7919061129f565b90505f6064836006015483610eec91906112ca565b610ef691906112e7565b905080836009015410610f1057505f958695509350505050565b5f836009015482610f219190611339565b976001975095505050505050565b5f546001600160a01b03163314610905573360405163118cdaa760e01b81526004016102eb9190611247565b5f80546001600160a01b038381166001600160a01b0319831681178455604051919092169283917f8be0079c531659141344cd1fd0a4f28419497f9722a3daafe3b4186f6b6457e09190a35050565b611e498061142a83390190565b5f60208284031215610fc7575f80fd5b5035919050565b6001600160a01b0381168114610e58575f80fd5b634e487b7160e01b5f52604160045260245ffd5b5f8067ffffffffffffffff84111561101057611010610fe2565b50604051601f19601f85018116603f0116810181811067ffffffffffffffff8211171561103f5761103f610fe2565b604052838152905080828401851015611056575f80fd5b838360208301375f60208583010152509392505050565b5f805f8060808587031215611080575f80fd5b843561108b81610fce565b9350602085013561109b81610fce565b925060408501359150606085013567ffffffffffffffff8111156110bd575f80fd5b8501601f810187136110cd575f80fd5b6110dc87823560208401610ff6565b91505092959194509250565b5f82601f8301126110f7575f80fd5b61110683833560208501610ff6565b9392505050565b5f805f8060808587031215611120575f80fd5b843567ffffffffffffffff811115611136575f80fd5b611142878288016110e8565b945050602085013567ffffffffffffffff81111561115e575f80fd5b61116a878288016110e8565b935050604085013561117b81610fce565b9396929550929360600135925050565b5f806040838503121561119c575f80fd5b50508035926020909101359150565b634e487b7160e01b5f52602160045260245ffd5b6001600160a01b038b81168252602082018b905289811660408301528816606082015261014081016002881061120357634e487b7160e01b5f52602160045260245ffd5b8760808301528660a08301528560c08301528460e08301526112316101008301856001600160a01b03169052565b826101208301529b9a5050505050505050505050565b6001600160a01b0391909116815260200190565b5f805f6060848603121561126d575f80fd5b505081359360208301359350604090920135919050565b5f60208284031215611294575f80fd5b813561110681610fce565b5f602082840312156112af575f80fd5b5051919050565b634e487b7160e01b5f52601160045260245ffd5b80820281158282048414176112e1576112e16112b6565b92915050565b5f8261130157634e487b7160e01b5f52601260045260245ffd5b500490565b634e487b7160e01b5f52603260045260245ffd5b5f6020828403121561132a575f80fd5b81518015158114611106575f80fd5b818103818111156112e1576112e16112b6565b5f6020828403121561135c575f80fd5b815161110681610fce565b6001600160a01b039384168152919092166020820152604081019190915260600190565b5f81518084528060208401602086015e5f602082860101526020601f19601f83011685010191505092915050565b60e081525f6113cb60e083018a61138b565b82810360208401526113dd818a61138b565b604084019890985250506001600160a01b039485166060820152608081019390935290831660a083015290911660c09091015292915050565b808201808211156112e1576112e16112b656fe610160604052348015610010575f80fd5b50604051611e49380380611e4983398101604081905261002f916103eb565b6040805180820190915260018152603160f81b602082015287908190818960036100598382610519565b5060046100668282610519565b5061007691508390506005610161565b61012052610085816006610161565b61014052815160208084019190912060e052815190820120610100524660a05261011160e05161010051604080517f8b73c3c69bb8fe3d512ecc4cf759cc79239f7b179b0ffacaa9a75d522b39400f60208201529081019290925260608201524660808201523060a08201525f9060c00160405160208183030381529060405280519060200120905090565b60805250503060c052506101258486610193565b600892909255600980546001600160a01b039283166001600160a01b031991821617909155600c80549290931691161790555061064a92505050565b5f60208351101561017c57610175836101d0565b905061018d565b816101878482610519565b5060ff90505b92915050565b6001600160a01b0382166101c15760405163ec442f0560e01b81525f60048201526024015b60405180910390fd5b6101cc5f838361020d565b5050565b5f80829050601f815111156101fa578260405163305a27a960e01b81526004016101b891906105d3565b805161020582610608565b179392505050565b6001600160a01b038316610237578060025f82825461022c919061062b565b909155506102a79050565b6001600160a01b0383165f90815260208190526040902054818110156102895760405163391434e360e21b81526001600160a01b038516600482015260248101829052604481018390526064016101b8565b6001600160a01b0384165f9081526020819052604090209082900390555b6001600160a01b0382166102c3576002805482900390556102e1565b6001600160a01b0382165f9081526020819052604090208054820190555b816001600160a01b0316836001600160a01b03167fddf252ad1be2c89b69c2b068fc378daa952ba7f163c4a11628f55a4df523b3ef8360405161032691815260200190565b60405180910390a3505050565b634e487b7160e01b5f52604160045260245ffd5b5f82601f830112610356575f80fd5b81516001600160401b0381111561036f5761036f610333565b604051601f8201601f19908116603f011681016001600160401b038111828210171561039d5761039d610333565b6040528181528382016020018510156103b4575f80fd5b8160208501602083015e5f918101602001919091529392505050565b80516001600160a01b03811681146103e6575f80fd5b919050565b5f805f805f805f60e0888a031215610401575f80fd5b87516001600160401b03811115610416575f80fd5b6104228a828b01610347565b60208a015190985090506001600160401b0381111561043f575f80fd5b61044b8a828b01610347565b60408a015190975095506104639050606089016103d0565b6080890151909450925061047960a089016103d0565b915061048760c089016103d0565b905092959891949750929550565b600181811c908216806104a957607f821691505b6020821081036104c757634e487b7160e01b5f52602260045260245ffd5b50919050565b601f82111561051457805f5260205f20601f840160051c810160208510156104f25750805b601f840160051c820191505b81811015610511575f81556001016104fe565b50505b505050565b81516001600160401b0381111561053257610532610333565b610546816105408454610495565b846104cd565b6020601f821160018114610578575f83156105615750848201515b5f19600385901b1c1916600184901b178455610511565b5f84815260208120601f198516915b828110156105a75787850151825560209485019460019092019101610587565b50848210156105c457868401515f19600387901b60f8161c191681555b50505050600190811b01905550565b602081525f82518060208401528060208501604085015e5f604082850101526040601f19601f83011684010191505092915050565b805160208083015191908110156104c7575f1960209190910360031b1b16919050565b8082018082111561018d57634e487b7160e01b5f52601160045260245ffd5b60805160a05160c05160e0516101005161012051610140516117ae61069b5f395f610ee401525f610eb701525f610e6001525f610e3801525f610d9301525f610dbd01525f610de701526117ae5ff3fe608060405260043610610131575f3560e01c806395d89b41116100a8578063d505accf1161006d578063d505accf14610335578063db5eb70214610354578063dd62ed3e14610373578063ec8ac4d814610392578063ed9772b6146103a5578063f98e629b146103c4575f80fd5b806395d89b411461029f5780639dc29fac146102b3578063a9059cbb146102d4578063c7d5b6f1146102f3578063c9fa5d2d14610307575f80fd5b80633644e515116100f95780633644e515146101e657806370a08231146101fa5780637ecebe00146102195780638332a1441461023857806384b0196e1461024c578063923108d914610273575f80fd5b806306fdde0314610135578063095ea7b31461015f57806318160ddd1461018e57806323b872dd146101ac578063313ce567146101cb575b5f80fd5b348015610140575f80fd5b50610149610408565b604051610156919061142c565b60405180910390f35b34801561016a575f80fd5b5061017e610179366004611460565b610498565b6040519015158152602001610156565b348015610199575f80fd5b506002545b604051908152602001610156565b3480156101b7575f80fd5b5061017e6101c6366004611488565b6104b1565b3480156101d6575f80fd5b5060405160128152602001610156565b3480156101f1575f80fd5b5061019e6104d4565b348015610205575f80fd5b5061019e6102143660046114c2565b6104e2565b348015610224575f80fd5b5061019e6102333660046114c2565b6104fc565b348015610243575f80fd5b50600a5461019e565b348015610257575f80fd5b50610260610519565b60405161015697969594939291906114db565b34801561027e575f80fd5b5061029261028d366004611571565b61055b565b6040516101569190611588565b3480156102aa575f80fd5b50610149610583565b3480156102be575f80fd5b506102d26102cd366004611460565b610592565b005b3480156102df575f80fd5b5061017e6102ee366004611460565b6105a0565b3480156102fe575f80fd5b506102d26105ad565b348015610312575f80fd5b50610326610321366004611571565b6106b7565b6040516101569392919061159c565b348015610340575f80fd5b506102d261034f3660046115bd565b610716565b34801561035f575f80fd5b50600c54610292906001600160a01b031681565b34801561037e575f80fd5b5061019e61038d36600461162a565b61084c565b6102d26103a03660046114c2565b610876565b3480156103b0575f80fd5b506102d26103bf36600461165b565b610ad8565b3480156103cf575f80fd5b506103266103de3660046114c2565b600d6020525f90815260409020805460018201546002909201546001600160a01b03909116919083565b6060600380546104179061167b565b80601f01602080910402602001604051908101604052809291908181526020018280546104439061167b565b801561048e5780601f106104655761010080835404028352916020019161048e565b820191905f5260205f20905b81548152906001019060200180831161047157829003601f168201915b5050505050905090565b5f336104a5818585610ccd565b60019150505b92915050565b5f336104be858285610cda565b6104c9858585610d2a565b506001949350505050565b5f6104dd610d87565b905090565b6001600160a01b03165f9081526020819052604090205490565b6001600160a01b0381165f908152600760205260408120546104ab565b5f6060805f805f606061052a610eb0565b610532610edd565b604080515f80825260208201909252600f60f81b9b939a50919850469750309650945092509050565b600b818154811061056a575f80fd5b5f918252602090912001546001600160a01b0316905081565b6060600480546104179061167b565b61059c8282610f0a565b5050565b5f336104a5818585610d2a565b335f818152600d60205260409020546001600160a01b0316146106175760405162461bcd60e51b815260206004820152601c60248201527f4e6f74207468652073656c6c6572206f662074686973206f666665720000000060448201526064015b60405180910390fd5b335f818152600d6020526040902060010154610634913091610d2a565b600a8054905f610643836116c7565b9091555050335f818152600d60209081526040918290206001015491519182527f2305ea46f6a0d5d361dcca0e07548b4ccabfee632414d2f56deebfcebb78de2f910160405180910390a2335f908152600d6020526040812080546001600160a01b03191681556001810182905560020155565b5f805f80600d5f600b87815481106106d1576106d16116dc565b5f9182526020808320909101546001600160a01b0390811684529083019390935260409091019020805460018201546002909201549216955093509150509193909250565b8342111561073a5760405163313c898160e11b81526004810185905260240161060e565b5f7f6e71edae12b1b97f4d1f60370fef10105fa2faae0126114a169c64845d6126c98888886107858c6001600160a01b03165f90815260076020526040902080546001810190915590565b6040805160208101969096526001600160a01b0394851690860152929091166060840152608083015260a082015260c0810186905260e0016040516020818303038152906040528051906020012090505f6107df82610f3e565b90505f6107ee82878787610f6a565b9050896001600160a01b0316816001600160a01b031614610835576040516325c0072360e11b81526001600160a01b0380831660048301528b16602482015260440161060e565b6108408a8a8a610ccd565b50505050505050505050565b6001600160a01b039182165f90815260016020908152604080832093909416825291909152205490565b6001600160a01b0381165f908152600d60205260408120600201546108a334670de0b6b3a76400006116f0565b6108ad9190611707565b9050346001600160a01b0383165f908152600d60205260409020600101548211156109115760405162461bcd60e51b8152602060048201526014602482015273115b9d195c8818481d985b1a5908185b5bdd5b9d60621b604482015260640161060e565b5f61091d600a83611707565b90505f61092a8284611726565b9050610937303386610d2a565b6001600160a01b0385165f908152600d602052604081206001018054869290610961908490611726565b9091555050600c546040516001600160a01b039091169083156108fc029084905f818181858888f1935050505015801561099d573d5f803e3d5ffd5b506040516001600160a01b0386169082156108fc029083905f818181858888f193505050501580156109d1573d5f803e3d5ffd5b506001600160a01b0385165f908152600d60205260408120600101549003610a39576001600160a01b0385165f908152600d6020526040812080546001600160a01b031916815560018101829055600201819055600a805491610a33836116c7565b91905055505b600b8054600181019091557f0175b7a638427703f0dbe7bb9bbf987a2551717b34e79f33b5b1008d1fa01db90180546001600160a01b031916339081179091556001600160a01b038681165f908152600d602090815260409182902054825189815291820188905290921692917f6faf93231a456e552dbc9961f58d9713ee4f2e69d15f1975b050ef0911053a7b910160405180910390a35050505050565b81610ae2336104e2565b10158015610af757505f610af5336104e2565b115b610b435760405162461bcd60e51b815260206004820152601c60248201527f496e73756666696369656e742062616c616e636520746f2073656c6c00000000604482015260640161060e565b335f908152600d60205260409020600181015415610bdd5782816001015f828254610b6e9190611739565b909155505060028101829055610b85333085610d2a565b336001600160a01b03167fae2dd361664f2897b54566a5c1ee8a85cc16aab0fdd23cde8152d6eb4b3e6161848360010154610bc09190611739565b6040805191825260208201869052015b60405180910390a2505050565b610be8333085610d2a565b604080516060810182523380825260208083018781528385018781525f938452600d909252938220925183546001600160a01b0319166001600160a01b03909116178355925160018301559151600290910155600a805491610c498361174c565b9091555050600b80546001810182555f919091527f0175b7a638427703f0dbe7bb9bbf987a2551717b34e79f33b5b1008d1fa01db90180546001600160a01b0319163390811790915560408051858152602081018590527fae2dd361664f2897b54566a5c1ee8a85cc16aab0fdd23cde8152d6eb4b3e61619101610bd0565b505050565b610cc88383836001610f96565b5f610ce5848461084c565b90505f198114610d245781811015610d1657828183604051637dc7a0d960e11b815260040161060e9392919061159c565b610d2484848484035f610f96565b50505050565b6001600160a01b038316610d53575f604051634b637e8f60e11b815260040161060e9190611588565b6001600160a01b038216610d7c575f60405163ec442f0560e01b815260040161060e9190611588565b610cc8838383611068565b5f306001600160a01b037f000000000000000000000000000000000000000000000000000000000000000016148015610ddf57507f000000000000000000000000000000000000000000000000000000000000000046145b15610e0957507f000000000000000000000000000000000000000000000000000000000000000090565b6104dd604080517f8b73c3c69bb8fe3d512ecc4cf759cc79239f7b179b0ffacaa9a75d522b39400f60208201527f0000000000000000000000000000000000000000000000000000000000000000918101919091527f000000000000000000000000000000000000000000000000000000000000000060608201524660808201523060a08201525f9060c00160405160208183030381529060405280519060200120905090565b60606104dd7f0000000000000000000000000000000000000000000000000000000000000000600561117b565b60606104dd7f0000000000000000000000000000000000000000000000000000000000000000600661117b565b6001600160a01b038216610f33575f604051634b637e8f60e11b815260040161060e9190611588565b61059c825f83611068565b5f6104ab610f4a610d87565b8360405161190160f01b8152600281019290925260228201526042902090565b5f805f80610f7a88888888611224565b925092509250610f8a82826112e2565b50909695505050505050565b6001600160a01b038416610fbf575f60405163e602df0560e01b815260040161060e9190611588565b6001600160a01b038316610fe8575f604051634a1406b160e11b815260040161060e9190611588565b6001600160a01b038085165f9081526001602090815260408083209387168352929052208290558015610d2457826001600160a01b0316846001600160a01b03167f8c5be1e5ebec7d5bd14f71427d1e84f3dd0314c0f7b2291e5b200ac8c7c3b9258460405161105a91815260200190565b60405180910390a350505050565b6001600160a01b038316611092578060025f8282546110879190611739565b909155506110ef9050565b6001600160a01b0383165f90815260208190526040902054818110156110d15783818360405163391434e360e21b815260040161060e9392919061159c565b6001600160a01b0384165f9081526020819052604090209082900390555b6001600160a01b03821661110b57600280548290039055611129565b6001600160a01b0382165f9081526020819052604090208054820190555b816001600160a01b0316836001600160a01b03167fddf252ad1be2c89b69c2b068fc378daa952ba7f163c4a11628f55a4df523b3ef8360405161116e91815260200190565b60405180910390a3505050565b606060ff83146111955761118e8361139a565b90506104ab565b8180546111a19061167b565b80601f01602080910402602001604051908101604052809291908181526020018280546111cd9061167b565b80156112185780601f106111ef57610100808354040283529160200191611218565b820191905f5260205f20905b8154815290600101906020018083116111fb57829003601f168201915b505050505090506104ab565b5f80806fa2a8918ca85bafe22016d0b997e4df60600160ff1b0384111561125357505f915060039050826112d8565b604080515f808252602082018084528a905260ff891692820192909252606081018790526080810186905260019060a0016020604051602081039080840390855afa1580156112a4573d5f803e3d5ffd5b5050604051601f1901519150506001600160a01b0381166112cf57505f9250600191508290506112d8565b92505f91508190505b9450945094915050565b5f8260038111156112f5576112f5611764565b036112fe575050565b600182600381111561131257611312611764565b036113305760405163f645eedf60e01b815260040160405180910390fd5b600282600381111561134457611344611764565b036113655760405163fce698f760e01b81526004810182905260240161060e565b600382600381111561137957611379611764565b0361059c576040516335e2f38360e21b81526004810182905260240161060e565b60605f6113a6836113d7565b6040805160208082528183019092529192505f91906020820181803683375050509182525060208101929092525090565b5f60ff8216601f8111156104ab57604051632cd44ac360e21b815260040160405180910390fd5b5f81518084528060208401602086015e5f602082860101526020601f19601f83011685010191505092915050565b602081525f61143e60208301846113fe565b9392505050565b80356001600160a01b038116811461145b575f80fd5b919050565b5f8060408385031215611471575f80fd5b61147a83611445565b946020939093013593505050565b5f805f6060848603121561149a575f80fd5b6114a384611445565b92506114b160208501611445565b929592945050506040919091013590565b5f602082840312156114d2575f80fd5b61143e82611445565b60ff60f81b8816815260e060208201525f6114f960e08301896113fe565b828103604084015261150b81896113fe565b606084018890526001600160a01b038716608085015260a0840186905283810360c0850152845180825260208087019350909101905f5b81811015611560578351835260209384019390920191600101611542565b50909b9a5050505050505050505050565b5f60208284031215611581575f80fd5b5035919050565b6001600160a01b0391909116815260200190565b6001600160a01b039390931683526020830191909152604082015260600190565b5f805f805f805f60e0888a0312156115d3575f80fd5b6115dc88611445565b96506115ea60208901611445565b95506040880135945060608801359350608088013560ff8116811461160d575f80fd5b9699959850939692959460a0840135945060c09093013592915050565b5f806040838503121561163b575f80fd5b61164483611445565b915061165260208401611445565b90509250929050565b5f806040838503121561166c575f80fd5b50508035926020909101359150565b600181811c9082168061168f57607f821691505b6020821081036116ad57634e487b7160e01b5f52602260045260245ffd5b50919050565b634e487b7160e01b5f52601160045260245ffd5b5f816116d5576116d56116b3565b505f190190565b634e487b7160e01b5f52603260045260245ffd5b80820281158282048414176104ab576104ab6116b3565b5f8261172157634e487b7160e01b5f52601260045260245ffd5b500490565b818103818111156104ab576104ab6116b3565b808201808211156104ab576104ab6116b3565b5f6001820161175d5761175d6116b3565b5060010190565b634e487b7160e01b5f52602160045260245ffdfea2646970667358221220d406815b5d6d087b49a895356638a582b8d5f3dec30fda32ef80817a42be2e7264736f6c634300081a0033a264697066735822122063258dc691ace2dac28b7e5a872c93bf15d29a180f5c2706f1a86ace2c4c53cf64736f6c634300081a0033",
			"opcodes": "PUSH1 0x80 PUSH1 0x40 MSTORE CALLVALUE DUP1 ISZERO PUSH1 0xE JUMPI PUSH0 DUP1 REVERT JUMPDEST POP CALLER DUP1 PUSH1 0x33 JUMPI PUSH1 0x40 MLOAD PUSH4 0x1E4FBDF7 PUSH1 0xE0 SHL DUP2 MSTORE PUSH0 PUSH1 0x4 DUP3 ADD MSTORE PUSH1 0x24 ADD PUSH1 0x40 MLOAD DUP1 SWAP2 SUB SWAP1 REVERT JUMPDEST PUSH1 0x3A DUP2 PUSH1 0x3F JUMP JUMPDEST POP PUSH1 0x8E JUMP JUMPDEST PUSH0 DUP1 SLOAD PUSH1 0x1 PUSH1 0x1 PUSH1 0xA0 SHL SUB DUP4 DUP2 AND PUSH1 0x1 PUSH1 0x1 PUSH1 0xA0 SHL SUB NOT DUP4 AND DUP2 OR DUP5 SSTORE PUSH1 0x40 MLOAD SWAP2 SWAP1 SWAP3 AND SWAP3 DUP4 SWAP2 PUSH32 0x8BE0079C531659141344CD1FD0A4F28419497F9722A3DAAFE3B4186F6B6457E0 SWAP2 SWAP1 LOG3 POP POP JUMP JUMPDEST PUSH2 0x32A8 DUP1 PUSH2 0x9B PUSH0 CODECOPY PUSH0 RETURN INVALID PUSH1 0x80 PUSH1 0x40 MSTORE PUSH1 0x4 CALLDATASIZE LT PUSH2 0x9A JUMPI PUSH0 CALLDATALOAD PUSH1 0xE0 SHR DUP1 PUSH4 0x8C64EA4A GT PUSH2 0x62 JUMPI DUP1 PUSH4 0x8C64EA4A EQ PUSH2 0x159 JUMPI DUP1 PUSH4 0x8DA5CB5B EQ PUSH2 0x1EA JUMPI DUP1 PUSH4 0xAC958041 EQ PUSH2 0x20E JUMPI DUP1 PUSH4 0xE210A72D EQ PUSH2 0x232 JUMPI DUP1 PUSH4 0xF2FDE38B EQ PUSH2 0x245 JUMPI DUP1 PUSH4 0xFF52575C EQ PUSH2 0x264 JUMPI PUSH0 DUP1 REVERT JUMPDEST DUP1 PUSH4 0x5834058 EQ PUSH2 0x9E JUMPI DUP1 PUSH4 0x150B7A02 EQ PUSH2 0xBF JUMPI DUP1 PUSH4 0x383D8709 EQ PUSH2 0x107 JUMPI DUP1 PUSH4 0x715018A6 EQ PUSH2 0x126 JUMPI DUP1 PUSH4 0x81257BD5 EQ PUSH2 0x13A JUMPI JUMPDEST PUSH0 DUP1 REVERT JUMPDEST CALLVALUE DUP1 ISZERO PUSH2 0xA9 JUMPI PUSH0 DUP1 REVERT JUMPDEST POP PUSH2 0xBD PUSH2 0xB8 CALLDATASIZE PUSH1 0x4 PUSH2 0xFB7 JUMP JUMPDEST PUSH2 0x298 JUMP JUMPDEST STOP JUMPDEST CALLVALUE DUP1 ISZERO PUSH2 0xCA JUMPI PUSH0 DUP1 REVERT JUMPDEST POP PUSH2 0xE9 PUSH2 0xD9 CALLDATASIZE PUSH1 0x4 PUSH2 0x106D JUMP JUMPDEST PUSH4 0xA85BD01 PUSH1 0xE1 SHL SWAP5 SWAP4 POP POP POP POP JUMP JUMPDEST PUSH1 0x40 MLOAD PUSH1 0x1 PUSH1 0x1 PUSH1 0xE0 SHL SUB NOT SWAP1 SWAP2 AND DUP2 MSTORE PUSH1 0x20 ADD JUMPDEST PUSH1 0x40 MLOAD DUP1 SWAP2 SUB SWAP1 RETURN JUMPDEST CALLVALUE DUP1 ISZERO PUSH2 0x112 JUMPI PUSH0 DUP1 REVERT JUMPDEST POP PUSH2 0xBD PUSH2 0x121 CALLDATASIZE PUSH1 0x4 PUSH2 0x110D JUMP JUMPDEST PUSH2 0x6F9 JUMP JUMPDEST CALLVALUE DUP1 ISZERO PUSH2 0x131 JUMPI PUSH0 DUP1 REVERT JUMPDEST POP PUSH2 0xBD PUSH2 0x8F4 JUMP JUMPDEST CALLVALUE DUP1 ISZERO PUSH2 0x145 JUMPI PUSH0 DUP1 REVERT JUMPDEST POP PUSH2 0xBD PUSH2 0x154 CALLDATASIZE PUSH1 0x4 PUSH2 0x118B JUMP JUMPDEST PUSH2 0x907 JUMP JUMPDEST CALLVALUE DUP1 ISZERO PUSH2 0x164 JUMPI PUSH0 DUP1 REVERT JUMPDEST POP PUSH2 0x1D4 PUSH2 0x173 CALLDATASIZE PUSH1 0x4 PUSH2 0xFB7 JUMP JUMPDEST PUSH1 0x1 PUSH1 0x20 DUP2 SWAP1 MSTORE PUSH0 SWAP2 DUP3 MSTORE PUSH1 0x40 SWAP1 SWAP2 KECCAK256 DUP1 SLOAD SWAP2 DUP2 ADD SLOAD PUSH1 0x2 DUP3 ADD SLOAD PUSH1 0x3 DUP4 ADD SLOAD PUSH1 0x4 DUP5 ADD SLOAD PUSH1 0x5 DUP6 ADD SLOAD PUSH1 0x6 DUP7 ADD SLOAD PUSH1 0x7 DUP8 ADD SLOAD PUSH1 0x9 SWAP1 SWAP8 ADD SLOAD PUSH1 0x1 PUSH1 0x1 PUSH1 0xA0 SHL SUB SWAP9 DUP10 AND SWAP9 SWAP7 SWAP8 SWAP6 DUP8 AND SWAP7 DUP1 DUP7 AND SWAP7 PUSH1 0x1 PUSH1 0xA0 SHL SWAP1 SWAP7 DIV PUSH1 0xFF AND SWAP6 AND SWAP1 DUP11 JUMP JUMPDEST PUSH1 0x40 MLOAD PUSH2 0xFE SWAP11 SWAP10 SWAP9 SWAP8 SWAP7 SWAP6 SWAP5 SWAP4 SWAP3 SWAP2 SWAP1 PUSH2 0x11BF JUMP JUMPDEST CALLVALUE DUP1 ISZERO PUSH2 0x1F5 JUMPI PUSH0 DUP1 REVERT JUMPDEST POP PUSH0 SLOAD PUSH1 0x1 PUSH1 0x1 PUSH1 0xA0 SHL SUB AND PUSH1 0x40 MLOAD PUSH2 0xFE SWAP2 SWAP1 PUSH2 0x1247 JUMP JUMPDEST CALLVALUE DUP1 ISZERO PUSH2 0x219 JUMPI PUSH0 DUP1 REVERT JUMPDEST POP PUSH1 0x2 SLOAD PUSH2 0x224 SWAP1 DUP2 JUMP JUMPDEST PUSH1 0x40 MLOAD SWAP1 DUP2 MSTORE PUSH1 0x20 ADD PUSH2 0xFE JUMP JUMPDEST PUSH2 0xBD PUSH2 0x240 CALLDATASIZE PUSH1 0x4 PUSH2 0x125B JUMP JUMPDEST PUSH2 0xCB7 JUMP JUMPDEST CALLVALUE DUP1 ISZERO PUSH2 0x250 JUMPI PUSH0 DUP1 REVERT JUMPDEST POP PUSH2 0xBD PUSH2 0x25F CALLDATASIZE PUSH1 0x4 PUSH2 0x1284 JUMP JUMPDEST PUSH2 0xE1E JUMP JUMPDEST CALLVALUE DUP1 ISZERO PUSH2 0x26F JUMPI PUSH0 DUP1 REVERT JUMPDEST POP PUSH2 0x283 PUSH2 0x27E CALLDATASIZE PUSH1 0x4 PUSH2 0xFB7 JUMP JUMPDEST PUSH2 0xE5B JUMP JUMPDEST PUSH1 0x40 DUP1 MLOAD SWAP3 DUP4 MSTORE SWAP1 ISZERO ISZERO PUSH1 0x20 DUP4 ADD MSTORE ADD PUSH2 0xFE JUMP JUMPDEST PUSH0 DUP2 DUP2 MSTORE PUSH1 0x1 PUSH1 0x20 MSTORE PUSH1 0x40 SWAP1 KECCAK256 PUSH1 0x5 DUP2 ADD SLOAD TIMESTAMP GT PUSH2 0x2F4 JUMPI PUSH1 0x40 MLOAD PUSH3 0x461BCD PUSH1 0xE5 SHL DUP2 MSTORE PUSH1 0x20 PUSH1 0x4 DUP3 ADD MSTORE PUSH1 0x14 PUSH1 0x24 DUP3 ADD MSTORE PUSH20 0x4F66666572206973207374696C20616374697665 PUSH1 0x60 SHL PUSH1 0x44 DUP3 ADD MSTORE PUSH1 0x64 ADD JUMPDEST PUSH1 0x40 MLOAD DUP1 SWAP2 SUB SWAP1 REVERT JUMPDEST PUSH1 0x3 DUP2 ADD SLOAD PUSH1 0x7 DUP3 ADD SLOAD PUSH1 0x40 DUP1 MLOAD PUSH4 0x18160DDD PUSH1 0xE0 SHL DUP2 MSTORE SWAP1 MLOAD PUSH1 0x1 PUSH1 0x1 PUSH1 0xA0 SHL SUB SWAP4 DUP5 AND SWAP4 SWAP1 SWAP3 AND SWAP2 PUSH0 SWAP2 DUP5 SWAP2 PUSH4 0x18160DDD SWAP2 PUSH1 0x4 DUP1 DUP3 ADD SWAP3 PUSH1 0x20 SWAP3 SWAP1 SWAP2 SWAP1 DUP3 SWAP1 SUB ADD DUP2 DUP7 GAS STATICCALL ISZERO DUP1 ISZERO PUSH2 0x34B JUMPI RETURNDATASIZE PUSH0 DUP1 RETURNDATACOPY RETURNDATASIZE PUSH0 REVERT JUMPDEST POP POP POP POP PUSH1 0x40 MLOAD RETURNDATASIZE PUSH1 0x1F NOT PUSH1 0x1F DUP3 ADD AND DUP3 ADD DUP1 PUSH1 0x40 MSTORE POP DUP2 ADD SWAP1 PUSH2 0x36F SWAP2 SWAP1 PUSH2 0x129F JUMP JUMPDEST SWAP1 POP PUSH0 PUSH1 0x64 DUP6 PUSH1 0x6 ADD SLOAD DUP4 PUSH2 0x384 SWAP2 SWAP1 PUSH2 0x12CA JUMP JUMPDEST PUSH2 0x38E SWAP2 SWAP1 PUSH2 0x12E7 JUMP JUMPDEST SWAP1 POP DUP1 DUP6 PUSH1 0x9 ADD SLOAD LT ISZERO PUSH2 0x4C8 JUMPI PUSH1 0x4 DUP6 ADD SLOAD PUSH1 0x40 MLOAD PUSH1 0x1 PUSH1 0x1 PUSH1 0xA0 SHL SUB DUP6 AND SWAP2 DUP1 ISZERO PUSH2 0x8FC MUL SWAP2 PUSH0 DUP2 DUP2 DUP2 DUP6 DUP9 DUP9 CALL SWAP4 POP POP POP POP ISZERO DUP1 ISZERO PUSH2 0x3D2 JUMPI RETURNDATASIZE PUSH0 DUP1 RETURNDATACOPY RETURNDATASIZE PUSH0 REVERT JUMPDEST POP PUSH0 JUMPDEST PUSH1 0xA DUP7 ADD SLOAD DUP2 LT ISZERO PUSH2 0x4C2 JUMPI PUSH0 DUP7 PUSH1 0xA ADD DUP3 DUP2 SLOAD DUP2 LT PUSH2 0x3F7 JUMPI PUSH2 0x3F7 PUSH2 0x1306 JUMP JUMPDEST PUSH0 SWAP2 DUP3 MSTORE PUSH1 0x20 DUP1 DUP4 KECCAK256 SWAP1 SWAP2 ADD SLOAD PUSH1 0x1 PUSH1 0x1 PUSH1 0xA0 SHL SUB AND DUP1 DUP4 MSTORE PUSH1 0x8 DUP11 ADD SWAP1 SWAP2 MSTORE PUSH1 0x40 DUP3 KECCAK256 SLOAD SWAP1 SWAP3 POP SWAP1 DUP2 SWAP1 SUB PUSH2 0x42E JUMPI POP POP PUSH2 0x4BA JUMP JUMPDEST PUSH1 0x40 MLOAD PUSH4 0xA9059CBB PUSH1 0xE0 SHL DUP2 MSTORE PUSH1 0x1 PUSH1 0x1 PUSH1 0xA0 SHL SUB DUP4 DUP2 AND PUSH1 0x4 DUP4 ADD MSTORE PUSH1 0x24 DUP3 ADD DUP4 SWAP1 MSTORE DUP9 AND SWAP1 PUSH4 0xA9059CBB SWAP1 PUSH1 0x44 ADD PUSH1 0x20 PUSH1 0x40 MLOAD DUP1 DUP4 SUB DUP2 PUSH0 DUP8 GAS CALL ISZERO DUP1 ISZERO PUSH2 0x47A JUMPI RETURNDATASIZE PUSH0 DUP1 RETURNDATACOPY RETURNDATASIZE PUSH0 REVERT JUMPDEST POP POP POP POP PUSH1 0x40 MLOAD RETURNDATASIZE PUSH1 0x1F NOT PUSH1 0x1F DUP3 ADD AND DUP3 ADD DUP1 PUSH1 0x40 MSTORE POP DUP2 ADD SWAP1 PUSH2 0x49E SWAP2 SWAP1 PUSH2 0x131A JUMP JUMPDEST POP POP PUSH1 0x1 PUSH1 0x1 PUSH1 0xA0 SHL SUB AND PUSH0 SWAP1 DUP2 MSTORE PUSH1 0x8 DUP8 ADD PUSH1 0x20 MSTORE PUSH1 0x40 DUP2 KECCAK256 SSTORE JUMPDEST PUSH1 0x1 ADD PUSH2 0x3D5 JUMP JUMPDEST POP PUSH2 0x6A0 JUMP JUMPDEST PUSH1 0x40 MLOAD PUSH4 0xA9059CBB PUSH1 0xE0 SHL DUP2 MSTORE PUSH1 0x1 PUSH1 0x1 PUSH1 0xA0 SHL SUB DUP5 DUP2 AND PUSH1 0x4 DUP4 ADD MSTORE PUSH1 0x24 DUP3 ADD DUP4 SWAP1 MSTORE DUP6 AND SWAP1 PUSH4 0xA9059CBB SWAP1 PUSH1 0x44 ADD PUSH1 0x20 PUSH1 0x40 MLOAD DUP1 DUP4 SUB DUP2 PUSH0 DUP8 GAS CALL ISZERO DUP1 ISZERO PUSH2 0x514 JUMPI RETURNDATASIZE PUSH0 DUP1 RETURNDATACOPY RETURNDATASIZE PUSH0 REVERT JUMPDEST POP POP POP POP PUSH1 0x40 MLOAD RETURNDATASIZE PUSH1 0x1F NOT PUSH1 0x1F DUP3 ADD AND DUP3 ADD DUP1 PUSH1 0x40 MSTORE POP DUP2 ADD SWAP1 PUSH2 0x538 SWAP2 SWAP1 PUSH2 0x131A JUMP JUMPDEST POP PUSH0 PUSH1 0xA DUP7 PUSH1 0x4 ADD SLOAD PUSH2 0x54B SWAP2 SWAP1 PUSH2 0x12E7 JUMP JUMPDEST SWAP1 POP PUSH0 DUP2 DUP8 PUSH1 0x4 ADD SLOAD PUSH2 0x55E SWAP2 SWAP1 PUSH2 0x1339 JUMP JUMPDEST SWAP1 POP PUSH2 0x571 PUSH0 SLOAD PUSH1 0x1 PUSH1 0x1 PUSH1 0xA0 SHL SUB AND SWAP1 JUMP JUMPDEST PUSH1 0x1 PUSH1 0x1 PUSH1 0xA0 SHL SUB AND PUSH2 0x8FC DUP4 SWAP1 DUP2 ISZERO MUL SWAP1 PUSH1 0x40 MLOAD PUSH0 PUSH1 0x40 MLOAD DUP1 DUP4 SUB DUP2 DUP6 DUP9 DUP9 CALL SWAP4 POP POP POP POP ISZERO DUP1 ISZERO PUSH2 0x5A6 JUMPI RETURNDATASIZE PUSH0 DUP1 RETURNDATACOPY RETURNDATASIZE PUSH0 REVERT JUMPDEST POP PUSH0 DUP4 PUSH2 0x5BB DUP4 PUSH8 0xDE0B6B3A7640000 PUSH2 0x12CA JUMP JUMPDEST PUSH2 0x5C5 SWAP2 SWAP1 PUSH2 0x12E7 JUMP JUMPDEST SWAP1 POP PUSH0 JUMPDEST PUSH1 0xA DUP10 ADD SLOAD DUP2 LT ISZERO PUSH2 0x69B JUMPI PUSH0 DUP10 PUSH1 0xA ADD DUP3 DUP2 SLOAD DUP2 LT PUSH2 0x5EB JUMPI PUSH2 0x5EB PUSH2 0x1306 JUMP JUMPDEST PUSH0 SWAP2 DUP3 MSTORE PUSH1 0x20 DUP1 DUP4 KECCAK256 SWAP1 SWAP2 ADD SLOAD PUSH1 0x1 PUSH1 0x1 PUSH1 0xA0 SHL SUB AND DUP1 DUP4 MSTORE PUSH1 0x8 DUP14 ADD SWAP1 SWAP2 MSTORE PUSH1 0x40 DUP3 KECCAK256 SLOAD SWAP1 SWAP3 POP SWAP1 DUP2 SWAP1 SUB PUSH2 0x622 JUMPI POP POP PUSH2 0x693 JUMP JUMPDEST PUSH0 PUSH8 0xDE0B6B3A7640000 PUSH2 0x636 DUP7 DUP5 PUSH2 0x12CA JUMP JUMPDEST PUSH2 0x640 SWAP2 SWAP1 PUSH2 0x12E7 JUMP JUMPDEST PUSH1 0x40 MLOAD SWAP1 SWAP2 POP PUSH1 0x1 PUSH1 0x1 PUSH1 0xA0 SHL SUB DUP5 AND SWAP1 DUP3 ISZERO PUSH2 0x8FC MUL SWAP1 DUP4 SWAP1 PUSH0 DUP2 DUP2 DUP2 DUP6 DUP9 DUP9 CALL SWAP4 POP POP POP POP ISZERO DUP1 ISZERO PUSH2 0x676 JUMPI RETURNDATASIZE PUSH0 DUP1 RETURNDATACOPY RETURNDATASIZE PUSH0 REVERT JUMPDEST POP POP POP PUSH1 0x1 PUSH1 0x1 PUSH1 0xA0 SHL SUB AND PUSH0 SWAP1 DUP2 MSTORE PUSH1 0x8 DUP11 ADD PUSH1 0x20 MSTORE PUSH1 0x40 DUP2 KECCAK256 SSTORE JUMPDEST PUSH1 0x1 ADD PUSH2 0x5C9 JUMP JUMPDEST POP POP POP POP JUMPDEST PUSH0 PUSH1 0x6 DUP7 ADD DUP2 SWAP1 SSTORE PUSH1 0x7 DUP7 ADD DUP1 SLOAD PUSH1 0x1 PUSH1 0x1 PUSH1 0xA0 SHL SUB NOT AND SWAP1 SSTORE PUSH1 0x9 DUP7 ADD DUP2 SWAP1 SSTORE PUSH1 0x5 DUP7 ADD DUP2 SWAP1 SSTORE PUSH1 0x4 DUP7 ADD DUP2 SWAP1 SSTORE PUSH1 0x3 DUP7 ADD SLOAD PUSH1 0x1 PUSH1 0xA0 SHL SWAP1 DIV PUSH1 0xFF AND PUSH1 0x1 DUP2 GT ISZERO PUSH2 0x6EF JUMPI PUSH2 0x6EF PUSH2 0x11AB JUMP JUMPDEST POP POP POP POP POP POP POP POP JUMP JUMPDEST PUSH2 0x701 PUSH2 0xF2F JUMP JUMPDEST PUSH2 0x70F PUSH1 0x2 DUP1 SLOAD PUSH1 0x1 ADD SWAP1 SSTORE JUMP JUMPDEST PUSH0 PUSH2 0x719 PUSH1 0x2 SLOAD SWAP1 JUMP JUMPDEST PUSH1 0x40 MLOAD PUSH4 0x31A9108F PUSH1 0xE1 SHL DUP2 MSTORE PUSH1 0x4 DUP2 ADD DUP5 SWAP1 MSTORE SWAP1 SWAP2 POP PUSH0 SWAP1 PUSH1 0x1 PUSH1 0x1 PUSH1 0xA0 SHL SUB DUP6 AND SWAP1 PUSH4 0x6352211E SWAP1 PUSH1 0x24 ADD PUSH1 0x20 PUSH1 0x40 MLOAD DUP1 DUP4 SUB DUP2 DUP7 GAS STATICCALL ISZERO DUP1 ISZERO PUSH2 0x761 JUMPI RETURNDATASIZE PUSH0 DUP1 RETURNDATACOPY RETURNDATASIZE PUSH0 REVERT JUMPDEST POP POP POP POP PUSH1 0x40 MLOAD RETURNDATASIZE PUSH1 0x1F NOT PUSH1 0x1F DUP3 ADD AND DUP3 ADD DUP1 PUSH1 0x40 MSTORE POP DUP2 ADD SWAP1 PUSH2 0x785 SWAP2 SWAP1 PUSH2 0x134C JUMP JUMPDEST PUSH1 0x40 MLOAD PUSH4 0x21421707 PUSH1 0xE1 SHL DUP2 MSTORE SWAP1 SWAP2 POP PUSH1 0x1 PUSH1 0x1 PUSH1 0xA0 SHL SUB DUP6 AND SWAP1 PUSH4 0x42842E0E SWAP1 PUSH2 0x7B8 SWAP1 DUP5 SWAP1 ADDRESS SWAP1 DUP9 SWAP1 PUSH1 0x4 ADD PUSH2 0x1367 JUMP JUMPDEST PUSH0 PUSH1 0x40 MLOAD DUP1 DUP4 SUB DUP2 PUSH0 DUP8 DUP1 EXTCODESIZE ISZERO DUP1 ISZERO PUSH2 0x7CF JUMPI PUSH0 DUP1 REVERT JUMPDEST POP GAS CALL ISZERO DUP1 ISZERO PUSH2 0x7E1 JUMPI RETURNDATASIZE PUSH0 DUP1 RETURNDATACOPY RETURNDATASIZE PUSH0 REVERT JUMPDEST POP POP POP PUSH0 DUP4 DUP2 MSTORE PUSH1 0x1 PUSH1 0x20 DUP2 SWAP1 MSTORE PUSH1 0x40 DUP3 KECCAK256 DUP1 SLOAD PUSH1 0x1 PUSH1 0x1 PUSH1 0xA0 SHL SUB DUP1 DUP11 AND PUSH1 0x1 PUSH1 0x1 PUSH1 0xA0 SHL SUB NOT SWAP3 DUP4 AND OR DUP4 SSTORE SWAP3 DUP3 ADD DUP9 SWAP1 SSTORE PUSH1 0x2 DUP3 ADD DUP1 SLOAD SWAP4 DUP8 AND SWAP4 SWAP1 SWAP2 AND SWAP3 SWAP1 SWAP3 OR SWAP1 SWAP2 SSTORE SWAP2 POP DUP8 DUP8 PUSH9 0x43C33C193756480000 DUP6 DUP8 ADDRESS PUSH2 0x84B PUSH0 SLOAD PUSH1 0x1 PUSH1 0x1 PUSH1 0xA0 SHL SUB AND SWAP1 JUMP JUMPDEST PUSH1 0x40 MLOAD PUSH2 0x857 SWAP1 PUSH2 0xFAA JUMP JUMPDEST PUSH2 0x867 SWAP8 SWAP7 SWAP6 SWAP5 SWAP4 SWAP3 SWAP2 SWAP1 PUSH2 0x13B9 JUMP JUMPDEST PUSH1 0x40 MLOAD DUP1 SWAP2 SUB SWAP1 PUSH0 CREATE DUP1 ISZERO DUP1 ISZERO PUSH2 0x880 JUMPI RETURNDATASIZE PUSH0 DUP1 RETURNDATACOPY RETURNDATASIZE PUSH0 REVERT JUMPDEST POP PUSH1 0x3 DUP4 ADD DUP1 SLOAD PUSH1 0x1 PUSH1 0x1 PUSH1 0xA0 SHL SUB NOT AND PUSH1 0x1 PUSH1 0x1 PUSH1 0xA0 SHL SUB DUP4 DUP2 AND SWAP2 SWAP1 SWAP2 OR SWAP1 SWAP2 SSTORE PUSH1 0x40 DUP1 MLOAD SWAP2 DUP10 AND DUP3 MSTORE PUSH1 0x20 DUP3 ADD DUP9 SWAP1 MSTORE CALLER SWAP1 DUP3 ADD MSTORE SWAP1 SWAP2 POP DUP5 SWAP1 PUSH32 0xC87EBAA7D5FC0DB3EEBBF1A47EA5FCEBFF3ACB2C32423EBD3335ADC177817417 SWAP1 PUSH1 0x60 ADD PUSH1 0x40 MLOAD DUP1 SWAP2 SUB SWAP1 LOG2 POP POP POP POP POP POP POP POP JUMP JUMPDEST PUSH2 0x8FC PUSH2 0xF2F JUMP JUMPDEST PUSH2 0x905 PUSH0 PUSH2 0xF5B JUMP JUMPDEST JUMP JUMPDEST PUSH0 DUP3 DUP2 MSTORE PUSH1 0x1 PUSH1 0x20 MSTORE PUSH1 0x40 SWAP1 KECCAK256 PUSH1 0x5 DUP2 ADD SLOAD TIMESTAMP LT PUSH2 0x959 JUMPI PUSH1 0x40 MLOAD PUSH3 0x461BCD PUSH1 0xE5 SHL DUP2 MSTORE PUSH1 0x20 PUSH1 0x4 DUP3 ADD MSTORE PUSH1 0xF PUSH1 0x24 DUP3 ADD MSTORE PUSH15 0x13D999995C881DD85CC8195B991959 PUSH1 0x8A SHL PUSH1 0x44 DUP3 ADD MSTORE PUSH1 0x64 ADD PUSH2 0x2EB JUMP JUMPDEST PUSH1 0x3 DUP2 ADD SLOAD PUSH1 0x40 MLOAD PUSH4 0x6EB1769F PUSH1 0xE1 SHL DUP2 MSTORE CALLER PUSH1 0x4 DUP3 ADD MSTORE ADDRESS PUSH1 0x24 DUP3 ADD MSTORE DUP4 SWAP2 PUSH1 0x1 PUSH1 0x1 PUSH1 0xA0 SHL SUB AND SWAP1 PUSH4 0xDD62ED3E SWAP1 PUSH1 0x44 ADD PUSH1 0x20 PUSH1 0x40 MLOAD DUP1 DUP4 SUB DUP2 DUP7 GAS STATICCALL ISZERO DUP1 ISZERO PUSH2 0x9A7 JUMPI RETURNDATASIZE PUSH0 DUP1 RETURNDATACOPY RETURNDATASIZE PUSH0 REVERT JUMPDEST POP POP POP POP PUSH1 0x40 MLOAD RETURNDATASIZE PUSH1 0x1F NOT PUSH1 0x1F DUP3 ADD AND DUP3 ADD DUP1 PUSH1 0x40 MSTORE POP DUP2 ADD SWAP1 PUSH2 0x9CB SWAP2 SWAP1 PUSH2 0x129F JUMP JUMPDEST EQ DUP1 ISZERO PUSH2 0xA47 JUMPI POP PUSH1 0x3 DUP2 ADD SLOAD PUSH1 0x40 MLOAD PUSH4 0x6EB1769F PUSH1 0xE1 SHL DUP2 MSTORE CALLER PUSH1 0x4 DUP3 ADD MSTORE ADDRESS PUSH1 0x24 DUP3 ADD MSTORE PUSH0 SWAP2 PUSH1 0x1 PUSH1 0x1 PUSH1 0xA0 SHL SUB AND SWAP1 PUSH4 0xDD62ED3E SWAP1 PUSH1 0x44 ADD PUSH1 0x20 PUSH1 0x40 MLOAD DUP1 DUP4 SUB DUP2 DUP7 GAS STATICCALL ISZERO DUP1 ISZERO PUSH2 0xA21 JUMPI RETURNDATASIZE PUSH0 DUP1 RETURNDATACOPY RETURNDATASIZE PUSH0 REVERT JUMPDEST POP POP POP POP PUSH1 0x40 MLOAD RETURNDATASIZE PUSH1 0x1F NOT PUSH1 0x1F DUP3 ADD AND DUP3 ADD DUP1 PUSH1 0x40 MSTORE POP DUP2 ADD SWAP1 PUSH2 0xA45 SWAP2 SWAP1 PUSH2 0x129F JUMP JUMPDEST GT JUMPDEST PUSH2 0xAA5 JUMPI PUSH1 0x40 MLOAD PUSH3 0x461BCD PUSH1 0xE5 SHL DUP2 MSTORE PUSH1 0x20 PUSH1 0x4 DUP3 ADD MSTORE PUSH1 0x29 PUSH1 0x24 DUP3 ADD MSTORE PUSH32 0x496E73756666696369656E7420616C6C6F77616E636520746F207472616E7366 PUSH1 0x44 DUP3 ADD MSTORE PUSH9 0x657220746F6B656E73 PUSH1 0xB8 SHL PUSH1 0x64 DUP3 ADD MSTORE PUSH1 0x84 ADD PUSH2 0x2EB JUMP JUMPDEST PUSH1 0x3 DUP2 ADD SLOAD PUSH1 0x40 DUP1 MLOAD PUSH4 0x18160DDD PUSH1 0xE0 SHL DUP2 MSTORE SWAP1 MLOAD PUSH0 SWAP3 PUSH1 0x1 PUSH1 0x1 PUSH1 0xA0 SHL SUB AND SWAP2 PUSH4 0x18160DDD SWAP2 PUSH1 0x4 DUP1 DUP4 ADD SWAP3 PUSH1 0x20 SWAP3 SWAP2 SWAP1 DUP3 SWAP1 SUB ADD DUP2 DUP7 GAS STATICCALL ISZERO DUP1 ISZERO PUSH2 0xAEE JUMPI RETURNDATASIZE PUSH0 DUP1 RETURNDATACOPY RETURNDATASIZE PUSH0 REVERT JUMPDEST POP POP POP POP PUSH1 0x40 MLOAD RETURNDATASIZE PUSH1 0x1F NOT PUSH1 0x1F DUP3 ADD AND DUP3 ADD DUP1 PUSH1 0x40 MSTORE POP DUP2 ADD SWAP1 PUSH2 0xB12 SWAP2 SWAP1 PUSH2 0x129F JUMP JUMPDEST SWAP1 POP PUSH0 PUSH1 0x64 DUP4 PUSH1 0x6 ADD SLOAD DUP4 PUSH2 0xB27 SWAP2 SWAP1 PUSH2 0x12CA JUMP JUMPDEST PUSH2 0xB31 SWAP2 SWAP1 PUSH2 0x12E7 JUMP JUMPDEST SWAP1 POP DUP1 DUP5 DUP5 PUSH1 0x9 ADD SLOAD PUSH2 0xB44 SWAP2 SWAP1 PUSH2 0x1416 JUMP JUMPDEST GT ISZERO PUSH2 0xBA7 JUMPI PUSH1 0x40 MLOAD PUSH3 0x461BCD PUSH1 0xE5 SHL DUP2 MSTORE PUSH1 0x20 PUSH1 0x4 DUP3 ADD MSTORE PUSH1 0x2C PUSH1 0x24 DUP3 ADD MSTORE PUSH32 0x506C656173652120636865636B2074686520617661696C61626C6520616D6F75 PUSH1 0x44 DUP3 ADD MSTORE PUSH12 0x1B9D081D1BC81858D8D95C1D PUSH1 0xA2 SHL PUSH1 0x64 DUP3 ADD MSTORE PUSH1 0x84 ADD PUSH2 0x2EB JUMP JUMPDEST PUSH1 0x3 DUP4 ADD SLOAD PUSH1 0x40 MLOAD PUSH4 0x23B872DD PUSH1 0xE0 SHL DUP2 MSTORE PUSH1 0x1 PUSH1 0x1 PUSH1 0xA0 SHL SUB SWAP1 SWAP2 AND SWAP1 PUSH4 0x23B872DD SWAP1 PUSH2 0xBDD SWAP1 CALLER SWAP1 ADDRESS SWAP1 DUP10 SWAP1 PUSH1 0x4 ADD PUSH2 0x1367 JUMP JUMPDEST PUSH1 0x20 PUSH1 0x40 MLOAD DUP1 DUP4 SUB DUP2 PUSH0 DUP8 GAS CALL ISZERO DUP1 ISZERO PUSH2 0xBF9 JUMPI RETURNDATASIZE PUSH0 DUP1 RETURNDATACOPY RETURNDATASIZE PUSH0 REVERT JUMPDEST POP POP POP POP PUSH1 0x40 MLOAD RETURNDATASIZE PUSH1 0x1F NOT PUSH1 0x1F DUP3 ADD AND DUP3 ADD DUP1 PUSH1 0x40 MSTORE POP DUP2 ADD SWAP1 PUSH2 0xC1D SWAP2 SWAP1 PUSH2 0x131A JUMP JUMPDEST POP CALLER PUSH0 SWAP1 DUP2 MSTORE PUSH1 0x8 DUP5 ADD PUSH1 0x20 MSTORE PUSH1 0x40 DUP2 KECCAK256 DUP6 SWAP1 SSTORE PUSH1 0x9 DUP5 ADD DUP1 SLOAD DUP7 SWAP3 SWAP1 PUSH2 0xC45 SWAP1 DUP5 SWAP1 PUSH2 0x1416 JUMP JUMPDEST SWAP1 SWAP2 SSTORE POP POP PUSH1 0xA DUP4 ADD DUP1 SLOAD PUSH1 0x1 DUP2 ADD DUP3 SSTORE PUSH0 SWAP2 DUP3 MSTORE PUSH1 0x20 SWAP1 SWAP2 KECCAK256 ADD DUP1 SLOAD PUSH1 0x1 PUSH1 0x1 PUSH1 0xA0 SHL SUB NOT AND CALLER OR SWAP1 SSTORE PUSH1 0x9 DUP4 ADD SLOAD PUSH1 0x40 MLOAD DUP7 SWAP2 PUSH32 0x397F87B3946767B09967764D50032941DE13A2606BCB39DFED61D7B1ED0192CC SWAP2 PUSH2 0xCA8 SWAP2 DUP2 MSTORE PUSH1 0x20 ADD SWAP1 JUMP JUMPDEST PUSH1 0x40 MLOAD DUP1 SWAP2 SUB SWAP1 LOG2 POP POP POP POP POP JUMP JUMPDEST PUSH0 DUP4 DUP2 MSTORE PUSH1 0x1 PUSH1 0x20 MSTORE PUSH1 0x40 DUP2 KECCAK256 SWAP1 PUSH1 0x3 DUP3 ADD SLOAD PUSH1 0x1 PUSH1 0xA0 SHL SWAP1 DIV PUSH1 0xFF AND PUSH1 0x1 DUP2 GT ISZERO PUSH2 0xCE5 JUMPI PUSH2 0xCE5 PUSH2 0x11AB JUMP JUMPDEST EQ PUSH2 0xD3C JUMPI PUSH1 0x40 MLOAD PUSH3 0x461BCD PUSH1 0xE5 SHL DUP2 MSTORE PUSH1 0x20 PUSH1 0x4 DUP3 ADD MSTORE PUSH1 0x21 PUSH1 0x24 DUP3 ADD MSTORE PUSH32 0x5661756C7420616C72656164792068616420616E20616374697665206F666665 PUSH1 0x44 DUP3 ADD MSTORE PUSH1 0x39 PUSH1 0xF9 SHL PUSH1 0x64 DUP3 ADD MSTORE PUSH1 0x84 ADD PUSH2 0x2EB JUMP JUMPDEST PUSH0 CALLVALUE GT PUSH2 0xD9A JUMPI PUSH1 0x40 MLOAD PUSH3 0x461BCD PUSH1 0xE5 SHL DUP2 MSTORE PUSH1 0x20 PUSH1 0x4 DUP3 ADD MSTORE PUSH1 0x26 PUSH1 0x24 DUP3 ADD MSTORE PUSH32 0x4F6666657220616D6F756E74206D757374206265206772656174657220746861 PUSH1 0x44 DUP3 ADD MSTORE PUSH6 0x6E207A65726F PUSH1 0xD0 SHL PUSH1 0x64 DUP3 ADD MSTORE PUSH1 0x84 ADD PUSH2 0x2EB JUMP JUMPDEST PUSH1 0x6 DUP2 ADD DUP4 SWAP1 SSTORE PUSH1 0x7 DUP2 ADD DUP1 SLOAD PUSH1 0x1 PUSH1 0x1 PUSH1 0xA0 SHL SUB NOT AND CALLER OR SWAP1 SSTORE PUSH2 0xDBF DUP3 TIMESTAMP PUSH2 0x1416 JUMP JUMPDEST PUSH1 0x5 DUP3 ADD SSTORE PUSH1 0x3 DUP2 ADD DUP1 SLOAD PUSH1 0xFF PUSH1 0xA0 SHL NOT AND PUSH1 0x1 PUSH1 0xA0 SHL OR SWAP1 SSTORE CALLVALUE PUSH1 0x4 DUP3 ADD SSTORE PUSH1 0x40 DUP1 MLOAD DUP5 DUP2 MSTORE CALLER PUSH1 0x20 DUP3 ADD MSTORE DUP2 MLOAD DUP7 SWAP3 PUSH32 0x53658D2AC4988B1C671F54219E366B4C7CDEBDBFD92FD0762B1524D9ABBC5CC1 SWAP3 DUP3 SWAP1 SUB ADD SWAP1 LOG2 POP POP POP POP JUMP JUMPDEST PUSH2 0xE26 PUSH2 0xF2F JUMP JUMPDEST PUSH1 0x1 PUSH1 0x1 PUSH1 0xA0 SHL SUB DUP2 AND PUSH2 0xE4F JUMPI PUSH0 PUSH1 0x40 MLOAD PUSH4 0x1E4FBDF7 PUSH1 0xE0 SHL DUP2 MSTORE PUSH1 0x4 ADD PUSH2 0x2EB SWAP2 SWAP1 PUSH2 0x1247 JUMP JUMPDEST PUSH2 0xE58 DUP2 PUSH2 0xF5B JUMP JUMPDEST POP JUMP JUMPDEST PUSH0 DUP2 DUP2 MSTORE PUSH1 0x1 PUSH1 0x20 SWAP1 DUP2 MSTORE PUSH1 0x40 DUP1 DUP4 KECCAK256 PUSH1 0x3 DUP2 ADD SLOAD DUP3 MLOAD PUSH4 0x18160DDD PUSH1 0xE0 SHL DUP2 MSTORE SWAP3 MLOAD DUP6 SWAP5 SWAP3 SWAP4 DUP6 SWAP4 PUSH1 0x1 PUSH1 0x1 PUSH1 0xA0 SHL SUB SWAP1 SWAP4 AND SWAP3 PUSH4 0x18160DDD SWAP3 PUSH1 0x4 DUP1 DUP5 ADD SWAP4 DUP3 SWAP1 SUB ADD DUP2 DUP7 GAS STATICCALL ISZERO DUP1 ISZERO PUSH2 0xEB3 JUMPI RETURNDATASIZE PUSH0 DUP1 RETURNDATACOPY RETURNDATASIZE PUSH0 REVERT JUMPDEST POP POP POP POP PUSH1 0x40 MLOAD RETURNDATASIZE PUSH1 0x1F NOT PUSH1 0x1F DUP3 ADD AND DUP3 ADD DUP1 PUSH1 0x40 MSTORE POP DUP2 ADD SWAP1 PUSH2 0xED7 SWAP2 SWAP1 PUSH2 0x129F JUMP JUMPDEST SWAP1 POP PUSH0 PUSH1 0x64 DUP4 PUSH1 0x6 ADD SLOAD DUP4 PUSH2 0xEEC SWAP2 SWAP1 PUSH2 0x12CA JUMP JUMPDEST PUSH2 0xEF6 SWAP2 SWAP1 PUSH2 0x12E7 JUMP JUMPDEST SWAP1 POP DUP1 DUP4 PUSH1 0x9 ADD SLOAD LT PUSH2 0xF10 JUMPI POP PUSH0 SWAP6 DUP7 SWAP6 POP SWAP4 POP POP POP POP JUMP JUMPDEST PUSH0 DUP4 PUSH1 0x9 ADD SLOAD DUP3 PUSH2 0xF21 SWAP2 SWAP1 PUSH2 0x1339 JUMP JUMPDEST SWAP8 PUSH1 0x1 SWAP8 POP SWAP6 POP POP POP POP POP POP JUMP JUMPDEST PUSH0 SLOAD PUSH1 0x1 PUSH1 0x1 PUSH1 0xA0 SHL SUB AND CALLER EQ PUSH2 0x905 JUMPI CALLER PUSH1 0x40 MLOAD PUSH4 0x118CDAA7 PUSH1 0xE0 SHL DUP2 MSTORE PUSH1 0x4 ADD PUSH2 0x2EB SWAP2 SWAP1 PUSH2 0x1247 JUMP JUMPDEST PUSH0 DUP1 SLOAD PUSH1 0x1 PUSH1 0x1 PUSH1 0xA0 SHL SUB DUP4 DUP2 AND PUSH1 0x1 PUSH1 0x1 PUSH1 0xA0 SHL SUB NOT DUP4 AND DUP2 OR DUP5 SSTORE PUSH1 0x40 MLOAD SWAP2 SWAP1 SWAP3 AND SWAP3 DUP4 SWAP2 PUSH32 0x8BE0079C531659141344CD1FD0A4F28419497F9722A3DAAFE3B4186F6B6457E0 SWAP2 SWAP1 LOG3 POP POP JUMP JUMPDEST PUSH2 0x1E49 DUP1 PUSH2 0x142A DUP4 CODECOPY ADD SWAP1 JUMP JUMPDEST PUSH0 PUSH1 0x20 DUP3 DUP5 SUB SLT ISZERO PUSH2 0xFC7 JUMPI PUSH0 DUP1 REVERT JUMPDEST POP CALLDATALOAD SWAP2 SWAP1 POP JUMP JUMPDEST PUSH1 0x1 PUSH1 0x1 PUSH1 0xA0 SHL SUB DUP2 AND DUP2 EQ PUSH2 0xE58 JUMPI PUSH0 DUP1 REVERT JUMPDEST PUSH4 0x4E487B71 PUSH1 0xE0 SHL PUSH0 MSTORE PUSH1 0x41 PUSH1 0x4 MSTORE PUSH1 0x24 PUSH0 REVERT JUMPDEST PUSH0 DUP1 PUSH8 0xFFFFFFFFFFFFFFFF DUP5 GT ISZERO PUSH2 0x1010 JUMPI PUSH2 0x1010 PUSH2 0xFE2 JUMP JUMPDEST POP PUSH1 0x40 MLOAD PUSH1 0x1F NOT PUSH1 0x1F DUP6 ADD DUP2 AND PUSH1 0x3F ADD AND DUP2 ADD DUP2 DUP2 LT PUSH8 0xFFFFFFFFFFFFFFFF DUP3 GT OR ISZERO PUSH2 0x103F JUMPI PUSH2 0x103F PUSH2 0xFE2 JUMP JUMPDEST PUSH1 0x40 MSTORE DUP4 DUP2 MSTORE SWAP1 POP DUP1 DUP3 DUP5 ADD DUP6 LT ISZERO PUSH2 0x1056 JUMPI PUSH0 DUP1 REVERT JUMPDEST DUP4 DUP4 PUSH1 0x20 DUP4 ADD CALLDATACOPY PUSH0 PUSH1 0x20 DUP6 DUP4 ADD ADD MSTORE POP SWAP4 SWAP3 POP POP POP JUMP JUMPDEST PUSH0 DUP1 PUSH0 DUP1 PUSH1 0x80 DUP6 DUP8 SUB SLT ISZERO PUSH2 0x1080 JUMPI PUSH0 DUP1 REVERT JUMPDEST DUP5 CALLDATALOAD PUSH2 0x108B DUP2 PUSH2 0xFCE JUMP JUMPDEST SWAP4 POP PUSH1 0x20 DUP6 ADD CALLDATALOAD PUSH2 0x109B DUP2 PUSH2 0xFCE JUMP JUMPDEST SWAP3 POP PUSH1 0x40 DUP6 ADD CALLDATALOAD SWAP2 POP PUSH1 0x60 DUP6 ADD CALLDATALOAD PUSH8 0xFFFFFFFFFFFFFFFF DUP2 GT ISZERO PUSH2 0x10BD JUMPI PUSH0 DUP1 REVERT JUMPDEST DUP6 ADD PUSH1 0x1F DUP2 ADD DUP8 SGT PUSH2 0x10CD JUMPI PUSH0 DUP1 REVERT JUMPDEST PUSH2 0x10DC DUP8 DUP3 CALLDATALOAD PUSH1 0x20 DUP5 ADD PUSH2 0xFF6 JUMP JUMPDEST SWAP2 POP POP SWAP3 SWAP6 SWAP2 SWAP5 POP SWAP3 POP JUMP JUMPDEST PUSH0 DUP3 PUSH1 0x1F DUP4 ADD SLT PUSH2 0x10F7 JUMPI PUSH0 DUP1 REVERT JUMPDEST PUSH2 0x1106 DUP4 DUP4 CALLDATALOAD PUSH1 0x20 DUP6 ADD PUSH2 0xFF6 JUMP JUMPDEST SWAP4 SWAP3 POP POP POP JUMP JUMPDEST PUSH0 DUP1 PUSH0 DUP1 PUSH1 0x80 DUP6 DUP8 SUB SLT ISZERO PUSH2 0x1120 JUMPI PUSH0 DUP1 REVERT JUMPDEST DUP5 CALLDATALOAD PUSH8 0xFFFFFFFFFFFFFFFF DUP2 GT ISZERO PUSH2 0x1136 JUMPI PUSH0 DUP1 REVERT JUMPDEST PUSH2 0x1142 DUP8 DUP3 DUP9 ADD PUSH2 0x10E8 JUMP JUMPDEST SWAP5 POP POP PUSH1 0x20 DUP6 ADD CALLDATALOAD PUSH8 0xFFFFFFFFFFFFFFFF DUP2 GT ISZERO PUSH2 0x115E JUMPI PUSH0 DUP1 REVERT JUMPDEST PUSH2 0x116A DUP8 DUP3 DUP9 ADD PUSH2 0x10E8 JUMP JUMPDEST SWAP4 POP POP PUSH1 0x40 DUP6 ADD CALLDATALOAD PUSH2 0x117B DUP2 PUSH2 0xFCE JUMP JUMPDEST SWAP4 SWAP7 SWAP3 SWAP6 POP SWAP3 SWAP4 PUSH1 0x60 ADD CALLDATALOAD SWAP3 POP POP JUMP JUMPDEST PUSH0 DUP1 PUSH1 0x40 DUP4 DUP6 SUB SLT ISZERO PUSH2 0x119C JUMPI PUSH0 DUP1 REVERT JUMPDEST POP POP DUP1 CALLDATALOAD SWAP3 PUSH1 0x20 SWAP1 SWAP2 ADD CALLDATALOAD SWAP2 POP JUMP JUMPDEST PUSH4 0x4E487B71 PUSH1 0xE0 SHL PUSH0 MSTORE PUSH1 0x21 PUSH1 0x4 MSTORE PUSH1 0x24 PUSH0 REVERT JUMPDEST PUSH1 0x1 PUSH1 0x1 PUSH1 0xA0 SHL SUB DUP12 DUP2 AND DUP3 MSTORE PUSH1 0x20 DUP3 ADD DUP12 SWAP1 MSTORE DUP10 DUP2 AND PUSH1 0x40 DUP4 ADD MSTORE DUP9 AND PUSH1 0x60 DUP3 ADD MSTORE PUSH2 0x140 DUP2 ADD PUSH1 0x2 DUP9 LT PUSH2 0x1203 JUMPI PUSH4 0x4E487B71 PUSH1 0xE0 SHL PUSH0 MSTORE PUSH1 0x21 PUSH1 0x4 MSTORE PUSH1 0x24 PUSH0 REVERT JUMPDEST DUP8 PUSH1 0x80 DUP4 ADD MSTORE DUP7 PUSH1 0xA0 DUP4 ADD MSTORE DUP6 PUSH1 0xC0 DUP4 ADD MSTORE DUP5 PUSH1 0xE0 DUP4 ADD MSTORE PUSH2 0x1231 PUSH2 0x100 DUP4 ADD DUP6 PUSH1 0x1 PUSH1 0x1 PUSH1 0xA0 SHL SUB AND SWAP1 MSTORE JUMP JUMPDEST DUP3 PUSH2 0x120 DUP4 ADD MSTORE SWAP12 SWAP11 POP POP POP POP POP POP POP POP POP POP POP JUMP JUMPDEST PUSH1 0x1 PUSH1 0x1 PUSH1 0xA0 SHL SUB SWAP2 SWAP1 SWAP2 AND DUP2 MSTORE PUSH1 0x20 ADD SWAP1 JUMP JUMPDEST PUSH0 DUP1 PUSH0 PUSH1 0x60 DUP5 DUP7 SUB SLT ISZERO PUSH2 0x126D JUMPI PUSH0 DUP1 REVERT JUMPDEST POP POP DUP2 CALLDATALOAD SWAP4 PUSH1 0x20 DUP4 ADD CALLDATALOAD SWAP4 POP PUSH1 0x40 SWAP1 SWAP3 ADD CALLDATALOAD SWAP2 SWAP1 POP JUMP JUMPDEST PUSH0 PUSH1 0x20 DUP3 DUP5 SUB SLT ISZERO PUSH2 0x1294 JUMPI PUSH0 DUP1 REVERT JUMPDEST DUP2 CALLDATALOAD PUSH2 0x1106 DUP2 PUSH2 0xFCE JUMP JUMPDEST PUSH0 PUSH1 0x20 DUP3 DUP5 SUB SLT ISZERO PUSH2 0x12AF JUMPI PUSH0 DUP1 REVERT JUMPDEST POP MLOAD SWAP2 SWAP1 POP JUMP JUMPDEST PUSH4 0x4E487B71 PUSH1 0xE0 SHL PUSH0 MSTORE PUSH1 0x11 PUSH1 0x4 MSTORE PUSH1 0x24 PUSH0 REVERT JUMPDEST DUP1 DUP3 MUL DUP2 ISZERO DUP3 DUP3 DIV DUP5 EQ OR PUSH2 0x12E1 JUMPI PUSH2 0x12E1 PUSH2 0x12B6 JUMP JUMPDEST SWAP3 SWAP2 POP POP JUMP JUMPDEST PUSH0 DUP3 PUSH2 0x1301 JUMPI PUSH4 0x4E487B71 PUSH1 0xE0 SHL PUSH0 MSTORE PUSH1 0x12 PUSH1 0x4 MSTORE PUSH1 0x24 PUSH0 REVERT JUMPDEST POP DIV SWAP1 JUMP JUMPDEST PUSH4 0x4E487B71 PUSH1 0xE0 SHL PUSH0 MSTORE PUSH1 0x32 PUSH1 0x4 MSTORE PUSH1 0x24 PUSH0 REVERT JUMPDEST PUSH0 PUSH1 0x20 DUP3 DUP5 SUB SLT ISZERO PUSH2 0x132A JUMPI PUSH0 DUP1 REVERT JUMPDEST DUP2 MLOAD DUP1 ISZERO ISZERO DUP2 EQ PUSH2 0x1106 JUMPI PUSH0 DUP1 REVERT JUMPDEST DUP2 DUP2 SUB DUP2 DUP2 GT ISZERO PUSH2 0x12E1 JUMPI PUSH2 0x12E1 PUSH2 0x12B6 JUMP JUMPDEST PUSH0 PUSH1 0x20 DUP3 DUP5 SUB SLT ISZERO PUSH2 0x135C JUMPI PUSH0 DUP1 REVERT JUMPDEST DUP2 MLOAD PUSH2 0x1106 DUP2 PUSH2 0xFCE JUMP JUMPDEST PUSH1 0x1 PUSH1 0x1 PUSH1 0xA0 SHL SUB SWAP4 DUP5 AND DUP2 MSTORE SWAP2 SWAP1 SWAP3 AND PUSH1 0x20 DUP3 ADD MSTORE PUSH1 0x40 DUP2 ADD SWAP2 SWAP1 SWAP2 MSTORE PUSH1 0x60 ADD SWAP1 JUMP JUMPDEST PUSH0 DUP2 MLOAD DUP1 DUP5 MSTORE DUP1 PUSH1 0x20 DUP5 ADD PUSH1 0x20 DUP7 ADD MCOPY PUSH0 PUSH1 0x20 DUP3 DUP7 ADD ADD MSTORE PUSH1 0x20 PUSH1 0x1F NOT PUSH1 0x1F DUP4 ADD AND DUP6 ADD ADD SWAP2 POP POP SWAP3 SWAP2 POP POP JUMP JUMPDEST PUSH1 0xE0 DUP2 MSTORE PUSH0 PUSH2 0x13CB PUSH1 0xE0 DUP4 ADD DUP11 PUSH2 0x138B JUMP JUMPDEST DUP3 DUP2 SUB PUSH1 0x20 DUP5 ADD MSTORE PUSH2 0x13DD DUP2 DUP11 PUSH2 0x138B JUMP JUMPDEST PUSH1 0x40 DUP5 ADD SWAP9 SWAP1 SWAP9 MSTORE POP POP PUSH1 0x1 PUSH1 0x1 PUSH1 0xA0 SHL SUB SWAP5 DUP6 AND PUSH1 0x60 DUP3 ADD MSTORE PUSH1 0x80 DUP2 ADD SWAP4 SWAP1 SWAP4 MSTORE SWAP1 DUP4 AND PUSH1 0xA0 DUP4 ADD MSTORE SWAP1 SWAP2 AND PUSH1 0xC0 SWAP1 SWAP2 ADD MSTORE SWAP3 SWAP2 POP POP JUMP JUMPDEST DUP1 DUP3 ADD DUP1 DUP3 GT ISZERO PUSH2 0x12E1 JUMPI PUSH2 0x12E1 PUSH2 0x12B6 JUMP INVALID PUSH2 0x160 PUSH1 0x40 MSTORE CALLVALUE DUP1 ISZERO PUSH2 0x10 JUMPI PUSH0 DUP1 REVERT JUMPDEST POP PUSH1 0x40 MLOAD PUSH2 0x1E49 CODESIZE SUB DUP1 PUSH2 0x1E49 DUP4 CODECOPY DUP2 ADD PUSH1 0x40 DUP2 SWAP1 MSTORE PUSH2 0x2F SWAP2 PUSH2 0x3EB JUMP JUMPDEST PUSH1 0x40 DUP1 MLOAD DUP1 DUP3 ADD SWAP1 SWAP2 MSTORE PUSH1 0x1 DUP2 MSTORE PUSH1 0x31 PUSH1 0xF8 SHL PUSH1 0x20 DUP3 ADD MSTORE DUP8 SWAP1 DUP2 SWAP1 DUP2 DUP10 PUSH1 0x3 PUSH2 0x59 DUP4 DUP3 PUSH2 0x519 JUMP JUMPDEST POP PUSH1 0x4 PUSH2 0x66 DUP3 DUP3 PUSH2 0x519 JUMP JUMPDEST POP PUSH2 0x76 SWAP2 POP DUP4 SWAP1 POP PUSH1 0x5 PUSH2 0x161 JUMP JUMPDEST PUSH2 0x120 MSTORE PUSH2 0x85 DUP2 PUSH1 0x6 PUSH2 0x161 JUMP JUMPDEST PUSH2 0x140 MSTORE DUP2 MLOAD PUSH1 0x20 DUP1 DUP5 ADD SWAP2 SWAP1 SWAP2 KECCAK256 PUSH1 0xE0 MSTORE DUP2 MLOAD SWAP1 DUP3 ADD KECCAK256 PUSH2 0x100 MSTORE CHAINID PUSH1 0xA0 MSTORE PUSH2 0x111 PUSH1 0xE0 MLOAD PUSH2 0x100 MLOAD PUSH1 0x40 DUP1 MLOAD PUSH32 0x8B73C3C69BB8FE3D512ECC4CF759CC79239F7B179B0FFACAA9A75D522B39400F PUSH1 0x20 DUP3 ADD MSTORE SWAP1 DUP2 ADD SWAP3 SWAP1 SWAP3 MSTORE PUSH1 0x60 DUP3 ADD MSTORE CHAINID PUSH1 0x80 DUP3 ADD MSTORE ADDRESS PUSH1 0xA0 DUP3 ADD MSTORE PUSH0 SWAP1 PUSH1 0xC0 ADD PUSH1 0x40 MLOAD PUSH1 0x20 DUP2 DUP4 SUB SUB DUP2 MSTORE SWAP1 PUSH1 0x40 MSTORE DUP1 MLOAD SWAP1 PUSH1 0x20 ADD KECCAK256 SWAP1 POP SWAP1 JUMP JUMPDEST PUSH1 0x80 MSTORE POP POP ADDRESS PUSH1 0xC0 MSTORE POP PUSH2 0x125 DUP5 DUP7 PUSH2 0x193 JUMP JUMPDEST PUSH1 0x8 SWAP3 SWAP1 SWAP3 SSTORE PUSH1 0x9 DUP1 SLOAD PUSH1 0x1 PUSH1 0x1 PUSH1 0xA0 SHL SUB SWAP3 DUP4 AND PUSH1 0x1 PUSH1 0x1 PUSH1 0xA0 SHL SUB NOT SWAP2 DUP3 AND OR SWAP1 SWAP2 SSTORE PUSH1 0xC DUP1 SLOAD SWAP3 SWAP1 SWAP4 AND SWAP2 AND OR SWAP1 SSTORE POP PUSH2 0x64A SWAP3 POP POP POP JUMP JUMPDEST PUSH0 PUSH1 0x20 DUP4 MLOAD LT ISZERO PUSH2 0x17C JUMPI PUSH2 0x175 DUP4 PUSH2 0x1D0 JUMP JUMPDEST SWAP1 POP PUSH2 0x18D JUMP JUMPDEST DUP2 PUSH2 0x187 DUP5 DUP3 PUSH2 0x519 JUMP JUMPDEST POP PUSH1 0xFF SWAP1 POP JUMPDEST SWAP3 SWAP2 POP POP JUMP JUMPDEST PUSH1 0x1 PUSH1 0x1 PUSH1 0xA0 SHL SUB DUP3 AND PUSH2 0x1C1 JUMPI PUSH1 0x40 MLOAD PUSH4 0xEC442F05 PUSH1 0xE0 SHL DUP2 MSTORE PUSH0 PUSH1 0x4 DUP3 ADD MSTORE PUSH1 0x24 ADD JUMPDEST PUSH1 0x40 MLOAD DUP1 SWAP2 SUB SWAP1 REVERT JUMPDEST PUSH2 0x1CC PUSH0 DUP4 DUP4 PUSH2 0x20D JUMP JUMPDEST POP POP JUMP JUMPDEST PUSH0 DUP1 DUP3 SWAP1 POP PUSH1 0x1F DUP2 MLOAD GT ISZERO PUSH2 0x1FA JUMPI DUP3 PUSH1 0x40 MLOAD PUSH4 0x305A27A9 PUSH1 0xE0 SHL DUP2 MSTORE PUSH1 0x4 ADD PUSH2 0x1B8 SWAP2 SWAP1 PUSH2 0x5D3 JUMP JUMPDEST DUP1 MLOAD PUSH2 0x205 DUP3 PUSH2 0x608 JUMP JUMPDEST OR SWAP4 SWAP3 POP POP POP JUMP JUMPDEST PUSH1 0x1 PUSH1 0x1 PUSH1 0xA0 SHL SUB DUP4 AND PUSH2 0x237 JUMPI DUP1 PUSH1 0x2 PUSH0 DUP3 DUP3 SLOAD PUSH2 0x22C SWAP2 SWAP1 PUSH2 0x62B JUMP JUMPDEST SWAP1 SWAP2 SSTORE POP PUSH2 0x2A7 SWAP1 POP JUMP JUMPDEST PUSH1 0x1 PUSH1 0x1 PUSH1 0xA0 SHL SUB DUP4 AND PUSH0 SWAP1 DUP2 MSTORE PUSH1 0x20 DUP2 SWAP1 MSTORE PUSH1 0x40 SWAP1 KECCAK256 SLOAD DUP2 DUP2 LT ISZERO PUSH2 0x289 JUMPI PUSH1 0x40 MLOAD PUSH4 0x391434E3 PUSH1 0xE2 SHL DUP2 MSTORE PUSH1 0x1 PUSH1 0x1 PUSH1 0xA0 SHL SUB DUP6 AND PUSH1 0x4 DUP3 ADD MSTORE PUSH1 0x24 DUP2 ADD DUP3 SWAP1 MSTORE PUSH1 0x44 DUP2 ADD DUP4 SWAP1 MSTORE PUSH1 0x64 ADD PUSH2 0x1B8 JUMP JUMPDEST PUSH1 0x1 PUSH1 0x1 PUSH1 0xA0 SHL SUB DUP5 AND PUSH0 SWAP1 DUP2 MSTORE PUSH1 0x20 DUP2 SWAP1 MSTORE PUSH1 0x40 SWAP1 KECCAK256 SWAP1 DUP3 SWAP1 SUB SWAP1 SSTORE JUMPDEST PUSH1 0x1 PUSH1 0x1 PUSH1 0xA0 SHL SUB DUP3 AND PUSH2 0x2C3 JUMPI PUSH1 0x2 DUP1 SLOAD DUP3 SWAP1 SUB SWAP1 SSTORE PUSH2 0x2E1 JUMP JUMPDEST PUSH1 0x1 PUSH1 0x1 PUSH1 0xA0 SHL SUB DUP3 AND PUSH0 SWAP1 DUP2 MSTORE PUSH1 0x20 DUP2 SWAP1 MSTORE PUSH1 0x40 SWAP1 KECCAK256 DUP1 SLOAD DUP3 ADD SWAP1 SSTORE JUMPDEST DUP2 PUSH1 0x1 PUSH1 0x1 PUSH1 0xA0 SHL SUB AND DUP4 PUSH1 0x1 PUSH1 0x1 PUSH1 0xA0 SHL SUB AND PUSH32 0xDDF252AD1BE2C89B69C2B068FC378DAA952BA7F163C4A11628F55A4DF523B3EF DUP4 PUSH1 0x40 MLOAD PUSH2 0x326 SWAP2 DUP2 MSTORE PUSH1 0x20 ADD SWAP1 JUMP JUMPDEST PUSH1 0x40 MLOAD DUP1 SWAP2 SUB SWAP1 LOG3 POP POP POP JUMP JUMPDEST PUSH4 0x4E487B71 PUSH1 0xE0 SHL PUSH0 MSTORE PUSH1 0x41 PUSH1 0x4 MSTORE PUSH1 0x24 PUSH0 REVERT JUMPDEST PUSH0 DUP3 PUSH1 0x1F DUP4 ADD SLT PUSH2 0x356 JUMPI PUSH0 DUP1 REVERT JUMPDEST DUP2 MLOAD PUSH1 0x1 PUSH1 0x1 PUSH1 0x40 SHL SUB DUP2 GT ISZERO PUSH2 0x36F JUMPI PUSH2 0x36F PUSH2 0x333 JUMP JUMPDEST PUSH1 0x40 MLOAD PUSH1 0x1F DUP3 ADD PUSH1 0x1F NOT SWAP1 DUP2 AND PUSH1 0x3F ADD AND DUP2 ADD PUSH1 0x1 PUSH1 0x1 PUSH1 0x40 SHL SUB DUP2 GT DUP3 DUP3 LT OR ISZERO PUSH2 0x39D JUMPI PUSH2 0x39D PUSH2 0x333 JUMP JUMPDEST PUSH1 0x40 MSTORE DUP2 DUP2 MSTORE DUP4 DUP3 ADD PUSH1 0x20 ADD DUP6 LT ISZERO PUSH2 0x3B4 JUMPI PUSH0 DUP1 REVERT JUMPDEST DUP2 PUSH1 0x20 DUP6 ADD PUSH1 0x20 DUP4 ADD MCOPY PUSH0 SWAP2 DUP2 ADD PUSH1 0x20 ADD SWAP2 SWAP1 SWAP2 MSTORE SWAP4 SWAP3 POP POP POP JUMP JUMPDEST DUP1 MLOAD PUSH1 0x1 PUSH1 0x1 PUSH1 0xA0 SHL SUB DUP2 AND DUP2 EQ PUSH2 0x3E6 JUMPI PUSH0 DUP1 REVERT JUMPDEST SWAP2 SWAP1 POP JUMP JUMPDEST PUSH0 DUP1 PUSH0 DUP1 PUSH0 DUP1 PUSH0 PUSH1 0xE0 DUP9 DUP11 SUB SLT ISZERO PUSH2 0x401 JUMPI PUSH0 DUP1 REVERT JUMPDEST DUP8 MLOAD PUSH1 0x1 PUSH1 0x1 PUSH1 0x40 SHL SUB DUP2 GT ISZERO PUSH2 0x416 JUMPI PUSH0 DUP1 REVERT JUMPDEST PUSH2 0x422 DUP11 DUP3 DUP12 ADD PUSH2 0x347 JUMP JUMPDEST PUSH1 0x20 DUP11 ADD MLOAD SWAP1 SWAP9 POP SWAP1 POP PUSH1 0x1 PUSH1 0x1 PUSH1 0x40 SHL SUB DUP2 GT ISZERO PUSH2 0x43F JUMPI PUSH0 DUP1 REVERT JUMPDEST PUSH2 0x44B DUP11 DUP3 DUP12 ADD PUSH2 0x347 JUMP JUMPDEST PUSH1 0x40 DUP11 ADD MLOAD SWAP1 SWAP8 POP SWAP6 POP PUSH2 0x463 SWAP1 POP PUSH1 0x60 DUP10 ADD PUSH2 0x3D0 JUMP JUMPDEST PUSH1 0x80 DUP10 ADD MLOAD SWAP1 SWAP5 POP SWAP3 POP PUSH2 0x479 PUSH1 0xA0 DUP10 ADD PUSH2 0x3D0 JUMP JUMPDEST SWAP2 POP PUSH2 0x487 PUSH1 0xC0 DUP10 ADD PUSH2 0x3D0 JUMP JUMPDEST SWAP1 POP SWAP3 SWAP6 SWAP9 SWAP2 SWAP5 SWAP8 POP SWAP3 SWAP6 POP JUMP JUMPDEST PUSH1 0x1 DUP2 DUP2 SHR SWAP1 DUP3 AND DUP1 PUSH2 0x4A9 JUMPI PUSH1 0x7F DUP3 AND SWAP2 POP JUMPDEST PUSH1 0x20 DUP3 LT DUP2 SUB PUSH2 0x4C7 JUMPI PUSH4 0x4E487B71 PUSH1 0xE0 SHL PUSH0 MSTORE PUSH1 0x22 PUSH1 0x4 MSTORE PUSH1 0x24 PUSH0 REVERT JUMPDEST POP SWAP2 SWAP1 POP JUMP JUMPDEST PUSH1 0x1F DUP3 GT ISZERO PUSH2 0x514 JUMPI DUP1 PUSH0 MSTORE PUSH1 0x20 PUSH0 KECCAK256 PUSH1 0x1F DUP5 ADD PUSH1 0x5 SHR DUP2 ADD PUSH1 0x20 DUP6 LT ISZERO PUSH2 0x4F2 JUMPI POP DUP1 JUMPDEST PUSH1 0x1F DUP5 ADD PUSH1 0x5 SHR DUP3 ADD SWAP2 POP JUMPDEST DUP2 DUP2 LT ISZERO PUSH2 0x511 JUMPI PUSH0 DUP2 SSTORE PUSH1 0x1 ADD PUSH2 0x4FE JUMP JUMPDEST POP POP JUMPDEST POP POP POP JUMP JUMPDEST DUP2 MLOAD PUSH1 0x1 PUSH1 0x1 PUSH1 0x40 SHL SUB DUP2 GT ISZERO PUSH2 0x532 JUMPI PUSH2 0x532 PUSH2 0x333 JUMP JUMPDEST PUSH2 0x546 DUP2 PUSH2 0x540 DUP5 SLOAD PUSH2 0x495 JUMP JUMPDEST DUP5 PUSH2 0x4CD JUMP JUMPDEST PUSH1 0x20 PUSH1 0x1F DUP3 GT PUSH1 0x1 DUP2 EQ PUSH2 0x578 JUMPI PUSH0 DUP4 ISZERO PUSH2 0x561 JUMPI POP DUP5 DUP3 ADD MLOAD JUMPDEST PUSH0 NOT PUSH1 0x3 DUP6 SWAP1 SHL SHR NOT AND PUSH1 0x1 DUP5 SWAP1 SHL OR DUP5 SSTORE PUSH2 0x511 JUMP JUMPDEST PUSH0 DUP5 DUP2 MSTORE PUSH1 0x20 DUP2 KECCAK256 PUSH1 0x1F NOT DUP6 AND SWAP2 JUMPDEST DUP3 DUP2 LT ISZERO PUSH2 0x5A7 JUMPI DUP8 DUP6 ADD MLOAD DUP3 SSTORE PUSH1 0x20 SWAP5 DUP6 ADD SWAP5 PUSH1 0x1 SWAP1 SWAP3 ADD SWAP2 ADD PUSH2 0x587 JUMP JUMPDEST POP DUP5 DUP3 LT ISZERO PUSH2 0x5C4 JUMPI DUP7 DUP5 ADD MLOAD PUSH0 NOT PUSH1 0x3 DUP8 SWAP1 SHL PUSH1 0xF8 AND SHR NOT AND DUP2 SSTORE JUMPDEST POP POP POP POP PUSH1 0x1 SWAP1 DUP2 SHL ADD SWAP1 SSTORE POP JUMP JUMPDEST PUSH1 0x20 DUP2 MSTORE PUSH0 DUP3 MLOAD DUP1 PUSH1 0x20 DUP5 ADD MSTORE DUP1 PUSH1 0x20 DUP6 ADD PUSH1 0x40 DUP6 ADD MCOPY PUSH0 PUSH1 0x40 DUP3 DUP6 ADD ADD MSTORE PUSH1 0x40 PUSH1 0x1F NOT PUSH1 0x1F DUP4 ADD AND DUP5 ADD ADD SWAP2 POP POP SWAP3 SWAP2 POP POP JUMP JUMPDEST DUP1 MLOAD PUSH1 0x20 DUP1 DUP4 ADD MLOAD SWAP2 SWAP1 DUP2 LT ISZERO PUSH2 0x4C7 JUMPI PUSH0 NOT PUSH1 0x20 SWAP2 SWAP1 SWAP2 SUB PUSH1 0x3 SHL SHL AND SWAP2 SWAP1 POP JUMP JUMPDEST DUP1 DUP3 ADD DUP1 DUP3 GT ISZERO PUSH2 0x18D JUMPI PUSH4 0x4E487B71 PUSH1 0xE0 SHL PUSH0 MSTORE PUSH1 0x11 PUSH1 0x4 MSTORE PUSH1 0x24 PUSH0 REVERT JUMPDEST PUSH1 0x80 MLOAD PUSH1 0xA0 MLOAD PUSH1 0xC0 MLOAD PUSH1 0xE0 MLOAD PUSH2 0x100 MLOAD PUSH2 0x120 MLOAD PUSH2 0x140 MLOAD PUSH2 0x17AE PUSH2 0x69B PUSH0 CODECOPY PUSH0 PUSH2 0xEE4 ADD MSTORE PUSH0 PUSH2 0xEB7 ADD MSTORE PUSH0 PUSH2 0xE60 ADD MSTORE PUSH0 PUSH2 0xE38 ADD MSTORE PUSH0 PUSH2 0xD93 ADD MSTORE PUSH0 PUSH2 0xDBD ADD MSTORE PUSH0 PUSH2 0xDE7 ADD MSTORE PUSH2 0x17AE PUSH0 RETURN INVALID PUSH1 0x80 PUSH1 0x40 MSTORE PUSH1 0x4 CALLDATASIZE LT PUSH2 0x131 JUMPI PUSH0 CALLDATALOAD PUSH1 0xE0 SHR DUP1 PUSH4 0x95D89B41 GT PUSH2 0xA8 JUMPI DUP1 PUSH4 0xD505ACCF GT PUSH2 0x6D JUMPI DUP1 PUSH4 0xD505ACCF EQ PUSH2 0x335 JUMPI DUP1 PUSH4 0xDB5EB702 EQ PUSH2 0x354 JUMPI DUP1 PUSH4 0xDD62ED3E EQ PUSH2 0x373 JUMPI DUP1 PUSH4 0xEC8AC4D8 EQ PUSH2 0x392 JUMPI DUP1 PUSH4 0xED9772B6 EQ PUSH2 0x3A5 JUMPI DUP1 PUSH4 0xF98E629B EQ PUSH2 0x3C4 JUMPI PUSH0 DUP1 REVERT JUMPDEST DUP1 PUSH4 0x95D89B41 EQ PUSH2 0x29F JUMPI DUP1 PUSH4 0x9DC29FAC EQ PUSH2 0x2B3 JUMPI DUP1 PUSH4 0xA9059CBB EQ PUSH2 0x2D4 JUMPI DUP1 PUSH4 0xC7D5B6F1 EQ PUSH2 0x2F3 JUMPI DUP1 PUSH4 0xC9FA5D2D EQ PUSH2 0x307 JUMPI PUSH0 DUP1 REVERT JUMPDEST DUP1 PUSH4 0x3644E515 GT PUSH2 0xF9 JUMPI DUP1 PUSH4 0x3644E515 EQ PUSH2 0x1E6 JUMPI DUP1 PUSH4 0x70A08231 EQ PUSH2 0x1FA JUMPI DUP1 PUSH4 0x7ECEBE00 EQ PUSH2 0x219 JUMPI DUP1 PUSH4 0x8332A144 EQ PUSH2 0x238 JUMPI DUP1 PUSH4 0x84B0196E EQ PUSH2 0x24C JUMPI DUP1 PUSH4 0x923108D9 EQ PUSH2 0x273 JUMPI PUSH0 DUP1 REVERT JUMPDEST DUP1 PUSH4 0x6FDDE03 EQ PUSH2 0x135 JUMPI DUP1 PUSH4 0x95EA7B3 EQ PUSH2 0x15F JUMPI DUP1 PUSH4 0x18160DDD EQ PUSH2 0x18E JUMPI DUP1 PUSH4 0x23B872DD EQ PUSH2 0x1AC JUMPI DUP1 PUSH4 0x313CE567 EQ PUSH2 0x1CB JUMPI JUMPDEST PUSH0 DUP1 REVERT JUMPDEST CALLVALUE DUP1 ISZERO PUSH2 0x140 JUMPI PUSH0 DUP1 REVERT JUMPDEST POP PUSH2 0x149 PUSH2 0x408 JUMP JUMPDEST PUSH1 0x40 MLOAD PUSH2 0x156 SWAP2 SWAP1 PUSH2 0x142C JUMP JUMPDEST PUSH1 0x40 MLOAD DUP1 SWAP2 SUB SWAP1 RETURN JUMPDEST CALLVALUE DUP1 ISZERO PUSH2 0x16A JUMPI PUSH0 DUP1 REVERT JUMPDEST POP PUSH2 0x17E PUSH2 0x179 CALLDATASIZE PUSH1 0x4 PUSH2 0x1460 JUMP JUMPDEST PUSH2 0x498 JUMP JUMPDEST PUSH1 0x40 MLOAD SWAP1 ISZERO ISZERO DUP2 MSTORE PUSH1 0x20 ADD PUSH2 0x156 JUMP JUMPDEST CALLVALUE DUP1 ISZERO PUSH2 0x199 JUMPI PUSH0 DUP1 REVERT JUMPDEST POP PUSH1 0x2 SLOAD JUMPDEST PUSH1 0x40 MLOAD SWAP1 DUP2 MSTORE PUSH1 0x20 ADD PUSH2 0x156 JUMP JUMPDEST CALLVALUE DUP1 ISZERO PUSH2 0x1B7 JUMPI PUSH0 DUP1 REVERT JUMPDEST POP PUSH2 0x17E PUSH2 0x1C6 CALLDATASIZE PUSH1 0x4 PUSH2 0x1488 JUMP JUMPDEST PUSH2 0x4B1 JUMP JUMPDEST CALLVALUE DUP1 ISZERO PUSH2 0x1D6 JUMPI PUSH0 DUP1 REVERT JUMPDEST POP PUSH1 0x40 MLOAD PUSH1 0x12 DUP2 MSTORE PUSH1 0x20 ADD PUSH2 0x156 JUMP JUMPDEST CALLVALUE DUP1 ISZERO PUSH2 0x1F1 JUMPI PUSH0 DUP1 REVERT JUMPDEST POP PUSH2 0x19E PUSH2 0x4D4 JUMP JUMPDEST CALLVALUE DUP1 ISZERO PUSH2 0x205 JUMPI PUSH0 DUP1 REVERT JUMPDEST POP PUSH2 0x19E PUSH2 0x214 CALLDATASIZE PUSH1 0x4 PUSH2 0x14C2 JUMP JUMPDEST PUSH2 0x4E2 JUMP JUMPDEST CALLVALUE DUP1 ISZERO PUSH2 0x224 JUMPI PUSH0 DUP1 REVERT JUMPDEST POP PUSH2 0x19E PUSH2 0x233 CALLDATASIZE PUSH1 0x4 PUSH2 0x14C2 JUMP JUMPDEST PUSH2 0x4FC JUMP JUMPDEST CALLVALUE DUP1 ISZERO PUSH2 0x243 JUMPI PUSH0 DUP1 REVERT JUMPDEST POP PUSH1 0xA SLOAD PUSH2 0x19E JUMP JUMPDEST CALLVALUE DUP1 ISZERO PUSH2 0x257 JUMPI PUSH0 DUP1 REVERT JUMPDEST POP PUSH2 0x260 PUSH2 0x519 JUMP JUMPDEST PUSH1 0x40 MLOAD PUSH2 0x156 SWAP8 SWAP7 SWAP6 SWAP5 SWAP4 SWAP3 SWAP2 SWAP1 PUSH2 0x14DB JUMP JUMPDEST CALLVALUE DUP1 ISZERO PUSH2 0x27E JUMPI PUSH0 DUP1 REVERT JUMPDEST POP PUSH2 0x292 PUSH2 0x28D CALLDATASIZE PUSH1 0x4 PUSH2 0x1571 JUMP JUMPDEST PUSH2 0x55B JUMP JUMPDEST PUSH1 0x40 MLOAD PUSH2 0x156 SWAP2 SWAP1 PUSH2 0x1588 JUMP JUMPDEST CALLVALUE DUP1 ISZERO PUSH2 0x2AA JUMPI PUSH0 DUP1 REVERT JUMPDEST POP PUSH2 0x149 PUSH2 0x583 JUMP JUMPDEST CALLVALUE DUP1 ISZERO PUSH2 0x2BE JUMPI PUSH0 DUP1 REVERT JUMPDEST POP PUSH2 0x2D2 PUSH2 0x2CD CALLDATASIZE PUSH1 0x4 PUSH2 0x1460 JUMP JUMPDEST PUSH2 0x592 JUMP JUMPDEST STOP JUMPDEST CALLVALUE DUP1 ISZERO PUSH2 0x2DF JUMPI PUSH0 DUP1 REVERT JUMPDEST POP PUSH2 0x17E PUSH2 0x2EE CALLDATASIZE PUSH1 0x4 PUSH2 0x1460 JUMP JUMPDEST PUSH2 0x5A0 JUMP JUMPDEST CALLVALUE DUP1 ISZERO PUSH2 0x2FE JUMPI PUSH0 DUP1 REVERT JUMPDEST POP PUSH2 0x2D2 PUSH2 0x5AD JUMP JUMPDEST CALLVALUE DUP1 ISZERO PUSH2 0x312 JUMPI PUSH0 DUP1 REVERT JUMPDEST POP PUSH2 0x326 PUSH2 0x321 CALLDATASIZE PUSH1 0x4 PUSH2 0x1571 JUMP JUMPDEST PUSH2 0x6B7 JUMP JUMPDEST PUSH1 0x40 MLOAD PUSH2 0x156 SWAP4 SWAP3 SWAP2 SWAP1 PUSH2 0x159C JUMP JUMPDEST CALLVALUE DUP1 ISZERO PUSH2 0x340 JUMPI PUSH0 DUP1 REVERT JUMPDEST POP PUSH2 0x2D2 PUSH2 0x34F CALLDATASIZE PUSH1 0x4 PUSH2 0x15BD JUMP JUMPDEST PUSH2 0x716 JUMP JUMPDEST CALLVALUE DUP1 ISZERO PUSH2 0x35F JUMPI PUSH0 DUP1 REVERT JUMPDEST POP PUSH1 0xC SLOAD PUSH2 0x292 SWAP1 PUSH1 0x1 PUSH1 0x1 PUSH1 0xA0 SHL SUB AND DUP2 JUMP JUMPDEST CALLVALUE DUP1 ISZERO PUSH2 0x37E JUMPI PUSH0 DUP1 REVERT JUMPDEST POP PUSH2 0x19E PUSH2 0x38D CALLDATASIZE PUSH1 0x4 PUSH2 0x162A JUMP JUMPDEST PUSH2 0x84C JUMP JUMPDEST PUSH2 0x2D2 PUSH2 0x3A0 CALLDATASIZE PUSH1 0x4 PUSH2 0x14C2 JUMP JUMPDEST PUSH2 0x876 JUMP JUMPDEST CALLVALUE DUP1 ISZERO PUSH2 0x3B0 JUMPI PUSH0 DUP1 REVERT JUMPDEST POP PUSH2 0x2D2 PUSH2 0x3BF CALLDATASIZE PUSH1 0x4 PUSH2 0x165B JUMP JUMPDEST PUSH2 0xAD8 JUMP JUMPDEST CALLVALUE DUP1 ISZERO PUSH2 0x3CF JUMPI PUSH0 DUP1 REVERT JUMPDEST POP PUSH2 0x326 PUSH2 0x3DE CALLDATASIZE PUSH1 0x4 PUSH2 0x14C2 JUMP JUMPDEST PUSH1 0xD PUSH1 0x20 MSTORE PUSH0 SWAP1 DUP2 MSTORE PUSH1 0x40 SWAP1 KECCAK256 DUP1 SLOAD PUSH1 0x1 DUP3 ADD SLOAD PUSH1 0x2 SWAP1 SWAP3 ADD SLOAD PUSH1 0x1 PUSH1 0x1 PUSH1 0xA0 SHL SUB SWAP1 SWAP2 AND SWAP2 SWAP1 DUP4 JUMP JUMPDEST PUSH1 0x60 PUSH1 0x3 DUP1 SLOAD PUSH2 0x417 SWAP1 PUSH2 0x167B JUMP JUMPDEST DUP1 PUSH1 0x1F ADD PUSH1 0x20 DUP1 SWAP2 DIV MUL PUSH1 0x20 ADD PUSH1 0x40 MLOAD SWAP1 DUP2 ADD PUSH1 0x40 MSTORE DUP1 SWAP3 SWAP2 SWAP1 DUP2 DUP2 MSTORE PUSH1 0x20 ADD DUP3 DUP1 SLOAD PUSH2 0x443 SWAP1 PUSH2 0x167B JUMP JUMPDEST DUP1 ISZERO PUSH2 0x48E JUMPI DUP1 PUSH1 0x1F LT PUSH2 0x465 JUMPI PUSH2 0x100 DUP1 DUP4 SLOAD DIV MUL DUP4 MSTORE SWAP2 PUSH1 0x20 ADD SWAP2 PUSH2 0x48E JUMP JUMPDEST DUP3 ADD SWAP2 SWAP1 PUSH0 MSTORE PUSH1 0x20 PUSH0 KECCAK256 SWAP1 JUMPDEST DUP2 SLOAD DUP2 MSTORE SWAP1 PUSH1 0x1 ADD SWAP1 PUSH1 0x20 ADD DUP1 DUP4 GT PUSH2 0x471 JUMPI DUP3 SWAP1 SUB PUSH1 0x1F AND DUP3 ADD SWAP2 JUMPDEST POP POP POP POP POP SWAP1 POP SWAP1 JUMP JUMPDEST PUSH0 CALLER PUSH2 0x4A5 DUP2 DUP6 DUP6 PUSH2 0xCCD JUMP JUMPDEST PUSH1 0x1 SWAP2 POP POP JUMPDEST SWAP3 SWAP2 POP POP JUMP JUMPDEST PUSH0 CALLER PUSH2 0x4BE DUP6 DUP3 DUP6 PUSH2 0xCDA JUMP JUMPDEST PUSH2 0x4C9 DUP6 DUP6 DUP6 PUSH2 0xD2A JUMP JUMPDEST POP PUSH1 0x1 SWAP5 SWAP4 POP POP POP POP JUMP JUMPDEST PUSH0 PUSH2 0x4DD PUSH2 0xD87 JUMP JUMPDEST SWAP1 POP SWAP1 JUMP JUMPDEST PUSH1 0x1 PUSH1 0x1 PUSH1 0xA0 SHL SUB AND PUSH0 SWAP1 DUP2 MSTORE PUSH1 0x20 DUP2 SWAP1 MSTORE PUSH1 0x40 SWAP1 KECCAK256 SLOAD SWAP1 JUMP JUMPDEST PUSH1 0x1 PUSH1 0x1 PUSH1 0xA0 SHL SUB DUP2 AND PUSH0 SWAP1 DUP2 MSTORE PUSH1 0x7 PUSH1 0x20 MSTORE PUSH1 0x40 DUP2 KECCAK256 SLOAD PUSH2 0x4AB JUMP JUMPDEST PUSH0 PUSH1 0x60 DUP1 PUSH0 DUP1 PUSH0 PUSH1 0x60 PUSH2 0x52A PUSH2 0xEB0 JUMP JUMPDEST PUSH2 0x532 PUSH2 0xEDD JUMP JUMPDEST PUSH1 0x40 DUP1 MLOAD PUSH0 DUP1 DUP3 MSTORE PUSH1 0x20 DUP3 ADD SWAP1 SWAP3 MSTORE PUSH1 0xF PUSH1 0xF8 SHL SWAP12 SWAP4 SWAP11 POP SWAP2 SWAP9 POP CHAINID SWAP8 POP ADDRESS SWAP7 POP SWAP5 POP SWAP3 POP SWAP1 POP JUMP JUMPDEST PUSH1 0xB DUP2 DUP2 SLOAD DUP2 LT PUSH2 0x56A JUMPI PUSH0 DUP1 REVERT JUMPDEST PUSH0 SWAP2 DUP3 MSTORE PUSH1 0x20 SWAP1 SWAP2 KECCAK256 ADD SLOAD PUSH1 0x1 PUSH1 0x1 PUSH1 0xA0 SHL SUB AND SWAP1 POP DUP2 JUMP JUMPDEST PUSH1 0x60 PUSH1 0x4 DUP1 SLOAD PUSH2 0x417 SWAP1 PUSH2 0x167B JUMP JUMPDEST PUSH2 0x59C DUP3 DUP3 PUSH2 0xF0A JUMP JUMPDEST POP POP JUMP JUMPDEST PUSH0 CALLER PUSH2 0x4A5 DUP2 DUP6 DUP6 PUSH2 0xD2A JUMP JUMPDEST CALLER PUSH0 DUP2 DUP2 MSTORE PUSH1 0xD PUSH1 0x20 MSTORE PUSH1 0x40 SWAP1 KECCAK256 SLOAD PUSH1 0x1 PUSH1 0x1 PUSH1 0xA0 SHL SUB AND EQ PUSH2 0x617 JUMPI PUSH1 0x40 MLOAD PUSH3 0x461BCD PUSH1 0xE5 SHL DUP2 MSTORE PUSH1 0x20 PUSH1 0x4 DUP3 ADD MSTORE PUSH1 0x1C PUSH1 0x24 DUP3 ADD MSTORE PUSH32 0x4E6F74207468652073656C6C6572206F662074686973206F6666657200000000 PUSH1 0x44 DUP3 ADD MSTORE PUSH1 0x64 ADD JUMPDEST PUSH1 0x40 MLOAD DUP1 SWAP2 SUB SWAP1 REVERT JUMPDEST CALLER PUSH0 DUP2 DUP2 MSTORE PUSH1 0xD PUSH1 0x20 MSTORE PUSH1 0x40 SWAP1 KECCAK256 PUSH1 0x1 ADD SLOAD PUSH2 0x634 SWAP2 ADDRESS SWAP2 PUSH2 0xD2A JUMP JUMPDEST PUSH1 0xA DUP1 SLOAD SWAP1 PUSH0 PUSH2 0x643 DUP4 PUSH2 0x16C7 JUMP JUMPDEST SWAP1 SWAP2 SSTORE POP POP CALLER PUSH0 DUP2 DUP2 MSTORE PUSH1 0xD PUSH1 0x20 SWAP1 DUP2 MSTORE PUSH1 0x40 SWAP2 DUP3 SWAP1 KECCAK256 PUSH1 0x1 ADD SLOAD SWAP2 MLOAD SWAP2 DUP3 MSTORE PUSH32 0x2305EA46F6A0D5D361DCCA0E07548B4CCABFEE632414D2F56DEEBFCEBB78DE2F SWAP2 ADD PUSH1 0x40 MLOAD DUP1 SWAP2 SUB SWAP1 LOG2 CALLER PUSH0 SWAP1 DUP2 MSTORE PUSH1 0xD PUSH1 0x20 MSTORE PUSH1 0x40 DUP2 KECCAK256 DUP1 SLOAD PUSH1 0x1 PUSH1 0x1 PUSH1 0xA0 SHL SUB NOT AND DUP2 SSTORE PUSH1 0x1 DUP2 ADD DUP3 SWAP1 SSTORE PUSH1 0x2 ADD SSTORE JUMP JUMPDEST PUSH0 DUP1 PUSH0 DUP1 PUSH1 0xD PUSH0 PUSH1 0xB DUP8 DUP2 SLOAD DUP2 LT PUSH2 0x6D1 JUMPI PUSH2 0x6D1 PUSH2 0x16DC JUMP JUMPDEST PUSH0 SWAP2 DUP3 MSTORE PUSH1 0x20 DUP1 DUP4 KECCAK256 SWAP1 SWAP2 ADD SLOAD PUSH1 0x1 PUSH1 0x1 PUSH1 0xA0 SHL SUB SWAP1 DUP2 AND DUP5 MSTORE SWAP1 DUP4 ADD SWAP4 SWAP1 SWAP4 MSTORE PUSH1 0x40 SWAP1 SWAP2 ADD SWAP1 KECCAK256 DUP1 SLOAD PUSH1 0x1 DUP3 ADD SLOAD PUSH1 0x2 SWAP1 SWAP3 ADD SLOAD SWAP3 AND SWAP6 POP SWAP4 POP SWAP2 POP POP SWAP2 SWAP4 SWAP1 SWAP3 POP JUMP JUMPDEST DUP4 TIMESTAMP GT ISZERO PUSH2 0x73A JUMPI PUSH1 0x40 MLOAD PUSH4 0x313C8981 PUSH1 0xE1 SHL DUP2 MSTORE PUSH1 0x4 DUP2 ADD DUP6 SWAP1 MSTORE PUSH1 0x24 ADD PUSH2 0x60E JUMP JUMPDEST PUSH0 PUSH32 0x6E71EDAE12B1B97F4D1F60370FEF10105FA2FAAE0126114A169C64845D6126C9 DUP9 DUP9 DUP9 PUSH2 0x785 DUP13 PUSH1 0x1 PUSH1 0x1 PUSH1 0xA0 SHL SUB AND PUSH0 SWAP1 DUP2 MSTORE PUSH1 0x7 PUSH1 0x20 MSTORE PUSH1 0x40 SWAP1 KECCAK256 DUP1 SLOAD PUSH1 0x1 DUP2 ADD SWAP1 SWAP2 SSTORE SWAP1 JUMP JUMPDEST PUSH1 0x40 DUP1 MLOAD PUSH1 0x20 DUP2 ADD SWAP7 SWAP1 SWAP7 MSTORE PUSH1 0x1 PUSH1 0x1 PUSH1 0xA0 SHL SUB SWAP5 DUP6 AND SWAP1 DUP7 ADD MSTORE SWAP3 SWAP1 SWAP2 AND PUSH1 0x60 DUP5 ADD MSTORE PUSH1 0x80 DUP4 ADD MSTORE PUSH1 0xA0 DUP3 ADD MSTORE PUSH1 0xC0 DUP2 ADD DUP7 SWAP1 MSTORE PUSH1 0xE0 ADD PUSH1 0x40 MLOAD PUSH1 0x20 DUP2 DUP4 SUB SUB DUP2 MSTORE SWAP1 PUSH1 0x40 MSTORE DUP1 MLOAD SWAP1 PUSH1 0x20 ADD KECCAK256 SWAP1 POP PUSH0 PUSH2 0x7DF DUP3 PUSH2 0xF3E JUMP JUMPDEST SWAP1 POP PUSH0 PUSH2 0x7EE DUP3 DUP8 DUP8 DUP8 PUSH2 0xF6A JUMP JUMPDEST SWAP1 POP DUP10 PUSH1 0x1 PUSH1 0x1 PUSH1 0xA0 SHL SUB AND DUP2 PUSH1 0x1 PUSH1 0x1 PUSH1 0xA0 SHL SUB AND EQ PUSH2 0x835 JUMPI PUSH1 0x40 MLOAD PUSH4 0x25C00723 PUSH1 0xE1 SHL DUP2 MSTORE PUSH1 0x1 PUSH1 0x1 PUSH1 0xA0 SHL SUB DUP1 DUP4 AND PUSH1 0x4 DUP4 ADD MSTORE DUP12 AND PUSH1 0x24 DUP3 ADD MSTORE PUSH1 0x44 ADD PUSH2 0x60E JUMP JUMPDEST PUSH2 0x840 DUP11 DUP11 DUP11 PUSH2 0xCCD JUMP JUMPDEST POP POP POP POP POP POP POP POP POP POP JUMP JUMPDEST PUSH1 0x1 PUSH1 0x1 PUSH1 0xA0 SHL SUB SWAP2 DUP3 AND PUSH0 SWAP1 DUP2 MSTORE PUSH1 0x1 PUSH1 0x20 SWAP1 DUP2 MSTORE PUSH1 0x40 DUP1 DUP4 KECCAK256 SWAP4 SWAP1 SWAP5 AND DUP3 MSTORE SWAP2 SWAP1 SWAP2 MSTORE KECCAK256 SLOAD SWAP1 JUMP JUMPDEST PUSH1 0x1 PUSH1 0x1 PUSH1 0xA0 SHL SUB DUP2 AND PUSH0 SWAP1 DUP2 MSTORE PUSH1 0xD PUSH1 0x20 MSTORE PUSH1 0x40 DUP2 KECCAK256 PUSH1 0x2 ADD SLOAD PUSH2 0x8A3 CALLVALUE PUSH8 0xDE0B6B3A7640000 PUSH2 0x16F0 JUMP JUMPDEST PUSH2 0x8AD SWAP2 SWAP1 PUSH2 0x1707 JUMP JUMPDEST SWAP1 POP CALLVALUE PUSH1 0x1 PUSH1 0x1 PUSH1 0xA0 SHL SUB DUP4 AND PUSH0 SWAP1 DUP2 MSTORE PUSH1 0xD PUSH1 0x20 MSTORE PUSH1 0x40 SWAP1 KECCAK256 PUSH1 0x1 ADD SLOAD DUP3 GT ISZERO PUSH2 0x911 JUMPI PUSH1 0x40 MLOAD PUSH3 0x461BCD PUSH1 0xE5 SHL DUP2 MSTORE PUSH1 0x20 PUSH1 0x4 DUP3 ADD MSTORE PUSH1 0x14 PUSH1 0x24 DUP3 ADD MSTORE PUSH20 0x115B9D195C8818481D985B1A5908185B5BDD5B9D PUSH1 0x62 SHL PUSH1 0x44 DUP3 ADD MSTORE PUSH1 0x64 ADD PUSH2 0x60E JUMP JUMPDEST PUSH0 PUSH2 0x91D PUSH1 0xA DUP4 PUSH2 0x1707 JUMP JUMPDEST SWAP1 POP PUSH0 PUSH2 0x92A DUP3 DUP5 PUSH2 0x1726 JUMP JUMPDEST SWAP1 POP PUSH2 0x937 ADDRESS CALLER DUP7 PUSH2 0xD2A JUMP JUMPDEST PUSH1 0x1 PUSH1 0x1 PUSH1 0xA0 SHL SUB DUP6 AND PUSH0 SWAP1 DUP2 MSTORE PUSH1 0xD PUSH1 0x20 MSTORE PUSH1 0x40 DUP2 KECCAK256 PUSH1 0x1 ADD DUP1 SLOAD DUP7 SWAP3 SWAP1 PUSH2 0x961 SWAP1 DUP5 SWAP1 PUSH2 0x1726 JUMP JUMPDEST SWAP1 SWAP2 SSTORE POP POP PUSH1 0xC SLOAD PUSH1 0x40 MLOAD PUSH1 0x1 PUSH1 0x1 PUSH1 0xA0 SHL SUB SWAP1 SWAP2 AND SWAP1 DUP4 ISZERO PUSH2 0x8FC MUL SWAP1 DUP5 SWAP1 PUSH0 DUP2 DUP2 DUP2 DUP6 DUP9 DUP9 CALL SWAP4 POP POP POP POP ISZERO DUP1 ISZERO PUSH2 0x99D JUMPI RETURNDATASIZE PUSH0 DUP1 RETURNDATACOPY RETURNDATASIZE PUSH0 REVERT JUMPDEST POP PUSH1 0x40 MLOAD PUSH1 0x1 PUSH1 0x1 PUSH1 0xA0 SHL SUB DUP7 AND SWAP1 DUP3 ISZERO PUSH2 0x8FC MUL SWAP1 DUP4 SWAP1 PUSH0 DUP2 DUP2 DUP2 DUP6 DUP9 DUP9 CALL SWAP4 POP POP POP POP ISZERO DUP1 ISZERO PUSH2 0x9D1 JUMPI RETURNDATASIZE PUSH0 DUP1 RETURNDATACOPY RETURNDATASIZE PUSH0 REVERT JUMPDEST POP PUSH1 0x1 PUSH1 0x1 PUSH1 0xA0 SHL SUB DUP6 AND PUSH0 SWAP1 DUP2 MSTORE PUSH1 0xD PUSH1 0x20 MSTORE PUSH1 0x40 DUP2 KECCAK256 PUSH1 0x1 ADD SLOAD SWAP1 SUB PUSH2 0xA39 JUMPI PUSH1 0x1 PUSH1 0x1 PUSH1 0xA0 SHL SUB DUP6 AND PUSH0 SWAP1 DUP2 MSTORE PUSH1 0xD PUSH1 0x20 MSTORE PUSH1 0x40 DUP2 KECCAK256 DUP1 SLOAD PUSH1 0x1 PUSH1 0x1 PUSH1 0xA0 SHL SUB NOT AND DUP2 SSTORE PUSH1 0x1 DUP2 ADD DUP3 SWAP1 SSTORE PUSH1 0x2 ADD DUP2 SWAP1 SSTORE PUSH1 0xA DUP1 SLOAD SWAP2 PUSH2 0xA33 DUP4 PUSH2 0x16C7 JUMP JUMPDEST SWAP2 SWAP1 POP SSTORE POP JUMPDEST PUSH1 0xB DUP1 SLOAD PUSH1 0x1 DUP2 ADD SWAP1 SWAP2 SSTORE PUSH32 0x175B7A638427703F0DBE7BB9BBF987A2551717B34E79F33B5B1008D1FA01DB9 ADD DUP1 SLOAD PUSH1 0x1 PUSH1 0x1 PUSH1 0xA0 SHL SUB NOT AND CALLER SWAP1 DUP2 OR SWAP1 SWAP2 SSTORE PUSH1 0x1 PUSH1 0x1 PUSH1 0xA0 SHL SUB DUP7 DUP2 AND PUSH0 SWAP1 DUP2 MSTORE PUSH1 0xD PUSH1 0x20 SWAP1 DUP2 MSTORE PUSH1 0x40 SWAP2 DUP3 SWAP1 KECCAK256 SLOAD DUP3 MLOAD DUP10 DUP2 MSTORE SWAP2 DUP3 ADD DUP9 SWAP1 MSTORE SWAP1 SWAP3 AND SWAP3 SWAP2 PUSH32 0x6FAF93231A456E552DBC9961F58D9713EE4F2E69D15F1975B050EF0911053A7B SWAP2 ADD PUSH1 0x40 MLOAD DUP1 SWAP2 SUB SWAP1 LOG3 POP POP POP POP POP JUMP JUMPDEST DUP2 PUSH2 0xAE2 CALLER PUSH2 0x4E2 JUMP JUMPDEST LT ISZERO DUP1 ISZERO PUSH2 0xAF7 JUMPI POP PUSH0 PUSH2 0xAF5 CALLER PUSH2 0x4E2 JUMP JUMPDEST GT JUMPDEST PUSH2 0xB43 JUMPI PUSH1 0x40 MLOAD PUSH3 0x461BCD PUSH1 0xE5 SHL DUP2 MSTORE PUSH1 0x20 PUSH1 0x4 DUP3 ADD MSTORE PUSH1 0x1C PUSH1 0x24 DUP3 ADD MSTORE PUSH32 0x496E73756666696369656E742062616C616E636520746F2073656C6C00000000 PUSH1 0x44 DUP3 ADD MSTORE PUSH1 0x64 ADD PUSH2 0x60E JUMP JUMPDEST CALLER PUSH0 SWAP1 DUP2 MSTORE PUSH1 0xD PUSH1 0x20 MSTORE PUSH1 0x40 SWAP1 KECCAK256 PUSH1 0x1 DUP2 ADD SLOAD ISZERO PUSH2 0xBDD JUMPI DUP3 DUP2 PUSH1 0x1 ADD PUSH0 DUP3 DUP3 SLOAD PUSH2 0xB6E SWAP2 SWAP1 PUSH2 0x1739 JUMP JUMPDEST SWAP1 SWAP2 SSTORE POP POP PUSH1 0x2 DUP2 ADD DUP3 SWAP1 SSTORE PUSH2 0xB85 CALLER ADDRESS DUP6 PUSH2 0xD2A JUMP JUMPDEST CALLER PUSH1 0x1 PUSH1 0x1 PUSH1 0xA0 SHL SUB AND PUSH32 0xAE2DD361664F2897B54566A5C1EE8A85CC16AAB0FDD23CDE8152D6EB4B3E6161 DUP5 DUP4 PUSH1 0x1 ADD SLOAD PUSH2 0xBC0 SWAP2 SWAP1 PUSH2 0x1739 JUMP JUMPDEST PUSH1 0x40 DUP1 MLOAD SWAP2 DUP3 MSTORE PUSH1 0x20 DUP3 ADD DUP7 SWAP1 MSTORE ADD JUMPDEST PUSH1 0x40 MLOAD DUP1 SWAP2 SUB SWAP1 LOG2 POP POP POP JUMP JUMPDEST PUSH2 0xBE8 CALLER ADDRESS DUP6 PUSH2 0xD2A JUMP JUMPDEST PUSH1 0x40 DUP1 MLOAD PUSH1 0x60 DUP2 ADD DUP3 MSTORE CALLER DUP1 DUP3 MSTORE PUSH1 0x20 DUP1 DUP4 ADD DUP8 DUP2 MSTORE DUP4 DUP6 ADD DUP8 DUP2 MSTORE PUSH0 SWAP4 DUP5 MSTORE PUSH1 0xD SWAP1 SWAP3 MSTORE SWAP4 DUP3 KECCAK256 SWAP3 MLOAD DUP4 SLOAD PUSH1 0x1 PUSH1 0x1 PUSH1 0xA0 SHL SUB NOT AND PUSH1 0x1 PUSH1 0x1 PUSH1 0xA0 SHL SUB SWAP1 SWAP2 AND OR DUP4 SSTORE SWAP3 MLOAD PUSH1 0x1 DUP4 ADD SSTORE SWAP2 MLOAD PUSH1 0x2 SWAP1 SWAP2 ADD SSTORE PUSH1 0xA DUP1 SLOAD SWAP2 PUSH2 0xC49 DUP4 PUSH2 0x174C JUMP JUMPDEST SWAP1 SWAP2 SSTORE POP POP PUSH1 0xB DUP1 SLOAD PUSH1 0x1 DUP2 ADD DUP3 SSTORE PUSH0 SWAP2 SWAP1 SWAP2 MSTORE PUSH32 0x175B7A638427703F0DBE7BB9BBF987A2551717B34E79F33B5B1008D1FA01DB9 ADD DUP1 SLOAD PUSH1 0x1 PUSH1 0x1 PUSH1 0xA0 SHL SUB NOT AND CALLER SWAP1 DUP2 OR SWAP1 SWAP2 SSTORE PUSH1 0x40 DUP1 MLOAD DUP6 DUP2 MSTORE PUSH1 0x20 DUP2 ADD DUP6 SWAP1 MSTORE PUSH32 0xAE2DD361664F2897B54566A5C1EE8A85CC16AAB0FDD23CDE8152D6EB4B3E6161 SWAP2 ADD PUSH2 0xBD0 JUMP JUMPDEST POP POP POP JUMP JUMPDEST PUSH2 0xCC8 DUP4 DUP4 DUP4 PUSH1 0x1 PUSH2 0xF96 JUMP JUMPDEST PUSH0 PUSH2 0xCE5 DUP5 DUP5 PUSH2 0x84C JUMP JUMPDEST SWAP1 POP PUSH0 NOT DUP2 EQ PUSH2 0xD24 JUMPI DUP2 DUP2 LT ISZERO PUSH2 0xD16 JUMPI DUP3 DUP2 DUP4 PUSH1 0x40 MLOAD PUSH4 0x7DC7A0D9 PUSH1 0xE1 SHL DUP2 MSTORE PUSH1 0x4 ADD PUSH2 0x60E SWAP4 SWAP3 SWAP2 SWAP1 PUSH2 0x159C JUMP JUMPDEST PUSH2 0xD24 DUP5 DUP5 DUP5 DUP5 SUB PUSH0 PUSH2 0xF96 JUMP JUMPDEST POP POP POP POP JUMP JUMPDEST PUSH1 0x1 PUSH1 0x1 PUSH1 0xA0 SHL SUB DUP4 AND PUSH2 0xD53 JUMPI PUSH0 PUSH1 0x40 MLOAD PUSH4 0x4B637E8F PUSH1 0xE1 SHL DUP2 MSTORE PUSH1 0x4 ADD PUSH2 0x60E SWAP2 SWAP1 PUSH2 0x1588 JUMP JUMPDEST PUSH1 0x1 PUSH1 0x1 PUSH1 0xA0 SHL SUB DUP3 AND PUSH2 0xD7C JUMPI PUSH0 PUSH1 0x40 MLOAD PUSH4 0xEC442F05 PUSH1 0xE0 SHL DUP2 MSTORE PUSH1 0x4 ADD PUSH2 0x60E SWAP2 SWAP1 PUSH2 0x1588 JUMP JUMPDEST PUSH2 0xCC8 DUP4 DUP4 DUP4 PUSH2 0x1068 JUMP JUMPDEST PUSH0 ADDRESS PUSH1 0x1 PUSH1 0x1 PUSH1 0xA0 SHL SUB PUSH32 0x0 AND EQ DUP1 ISZERO PUSH2 0xDDF JUMPI POP PUSH32 0x0 CHAINID EQ JUMPDEST ISZERO PUSH2 0xE09 JUMPI POP PUSH32 0x0 SWAP1 JUMP JUMPDEST PUSH2 0x4DD PUSH1 0x40 DUP1 MLOAD PUSH32 0x8B73C3C69BB8FE3D512ECC4CF759CC79239F7B179B0FFACAA9A75D522B39400F PUSH1 0x20 DUP3 ADD MSTORE PUSH32 0x0 SWAP2 DUP2 ADD SWAP2 SWAP1 SWAP2 MSTORE PUSH32 0x0 PUSH1 0x60 DUP3 ADD MSTORE CHAINID PUSH1 0x80 DUP3 ADD MSTORE ADDRESS PUSH1 0xA0 DUP3 ADD MSTORE PUSH0 SWAP1 PUSH1 0xC0 ADD PUSH1 0x40 MLOAD PUSH1 0x20 DUP2 DUP4 SUB SUB DUP2 MSTORE SWAP1 PUSH1 0x40 MSTORE DUP1 MLOAD SWAP1 PUSH1 0x20 ADD KECCAK256 SWAP1 POP SWAP1 JUMP JUMPDEST PUSH1 0x60 PUSH2 0x4DD PUSH32 0x0 PUSH1 0x5 PUSH2 0x117B JUMP JUMPDEST PUSH1 0x60 PUSH2 0x4DD PUSH32 0x0 PUSH1 0x6 PUSH2 0x117B JUMP JUMPDEST PUSH1 0x1 PUSH1 0x1 PUSH1 0xA0 SHL SUB DUP3 AND PUSH2 0xF33 JUMPI PUSH0 PUSH1 0x40 MLOAD PUSH4 0x4B637E8F PUSH1 0xE1 SHL DUP2 MSTORE PUSH1 0x4 ADD PUSH2 0x60E SWAP2 SWAP1 PUSH2 0x1588 JUMP JUMPDEST PUSH2 0x59C DUP3 PUSH0 DUP4 PUSH2 0x1068 JUMP JUMPDEST PUSH0 PUSH2 0x4AB PUSH2 0xF4A PUSH2 0xD87 JUMP JUMPDEST DUP4 PUSH1 0x40 MLOAD PUSH2 0x1901 PUSH1 0xF0 SHL DUP2 MSTORE PUSH1 0x2 DUP2 ADD SWAP3 SWAP1 SWAP3 MSTORE PUSH1 0x22 DUP3 ADD MSTORE PUSH1 0x42 SWAP1 KECCAK256 SWAP1 JUMP JUMPDEST PUSH0 DUP1 PUSH0 DUP1 PUSH2 0xF7A DUP9 DUP9 DUP9 DUP9 PUSH2 0x1224 JUMP JUMPDEST SWAP3 POP SWAP3 POP SWAP3 POP PUSH2 0xF8A DUP3 DUP3 PUSH2 0x12E2 JUMP JUMPDEST POP SWAP1 SWAP7 SWAP6 POP POP POP POP POP POP JUMP JUMPDEST PUSH1 0x1 PUSH1 0x1 PUSH1 0xA0 SHL SUB DUP5 AND PUSH2 0xFBF JUMPI PUSH0 PUSH1 0x40 MLOAD PUSH4 0xE602DF05 PUSH1 0xE0 SHL DUP2 MSTORE PUSH1 0x4 ADD PUSH2 0x60E SWAP2 SWAP1 PUSH2 0x1588 JUMP JUMPDEST PUSH1 0x1 PUSH1 0x1 PUSH1 0xA0 SHL SUB DUP4 AND PUSH2 0xFE8 JUMPI PUSH0 PUSH1 0x40 MLOAD PUSH4 0x4A1406B1 PUSH1 0xE1 SHL DUP2 MSTORE PUSH1 0x4 ADD PUSH2 0x60E SWAP2 SWAP1 PUSH2 0x1588 JUMP JUMPDEST PUSH1 0x1 PUSH1 0x1 PUSH1 0xA0 SHL SUB DUP1 DUP6 AND PUSH0 SWAP1 DUP2 MSTORE PUSH1 0x1 PUSH1 0x20 SWAP1 DUP2 MSTORE PUSH1 0x40 DUP1 DUP4 KECCAK256 SWAP4 DUP8 AND DUP4 MSTORE SWAP3 SWAP1 MSTORE KECCAK256 DUP3 SWAP1 SSTORE DUP1 ISZERO PUSH2 0xD24 JUMPI DUP3 PUSH1 0x1 PUSH1 0x1 PUSH1 0xA0 SHL SUB AND DUP5 PUSH1 0x1 PUSH1 0x1 PUSH1 0xA0 SHL SUB AND PUSH32 0x8C5BE1E5EBEC7D5BD14F71427D1E84F3DD0314C0F7B2291E5B200AC8C7C3B925 DUP5 PUSH1 0x40 MLOAD PUSH2 0x105A SWAP2 DUP2 MSTORE PUSH1 0x20 ADD SWAP1 JUMP JUMPDEST PUSH1 0x40 MLOAD DUP1 SWAP2 SUB SWAP1 LOG3 POP POP POP POP JUMP JUMPDEST PUSH1 0x1 PUSH1 0x1 PUSH1 0xA0 SHL SUB DUP4 AND PUSH2 0x1092 JUMPI DUP1 PUSH1 0x2 PUSH0 DUP3 DUP3 SLOAD PUSH2 0x1087 SWAP2 SWAP1 PUSH2 0x1739 JUMP JUMPDEST SWAP1 SWAP2 SSTORE POP PUSH2 0x10EF SWAP1 POP JUMP JUMPDEST PUSH1 0x1 PUSH1 0x1 PUSH1 0xA0 SHL SUB DUP4 AND PUSH0 SWAP1 DUP2 MSTORE PUSH1 0x20 DUP2 SWAP1 MSTORE PUSH1 0x40 SWAP1 KECCAK256 SLOAD DUP2 DUP2 LT ISZERO PUSH2 0x10D1 JUMPI DUP4 DUP2 DUP4 PUSH1 0x40 MLOAD PUSH4 0x391434E3 PUSH1 0xE2 SHL DUP2 MSTORE PUSH1 0x4 ADD PUSH2 0x60E SWAP4 SWAP3 SWAP2 SWAP1 PUSH2 0x159C JUMP JUMPDEST PUSH1 0x1 PUSH1 0x1 PUSH1 0xA0 SHL SUB DUP5 AND PUSH0 SWAP1 DUP2 MSTORE PUSH1 0x20 DUP2 SWAP1 MSTORE PUSH1 0x40 SWAP1 KECCAK256 SWAP1 DUP3 SWAP1 SUB SWAP1 SSTORE JUMPDEST PUSH1 0x1 PUSH1 0x1 PUSH1 0xA0 SHL SUB DUP3 AND PUSH2 0x110B JUMPI PUSH1 0x2 DUP1 SLOAD DUP3 SWAP1 SUB SWAP1 SSTORE PUSH2 0x1129 JUMP JUMPDEST PUSH1 0x1 PUSH1 0x1 PUSH1 0xA0 SHL SUB DUP3 AND PUSH0 SWAP1 DUP2 MSTORE PUSH1 0x20 DUP2 SWAP1 MSTORE PUSH1 0x40 SWAP1 KECCAK256 DUP1 SLOAD DUP3 ADD SWAP1 SSTORE JUMPDEST DUP2 PUSH1 0x1 PUSH1 0x1 PUSH1 0xA0 SHL SUB AND DUP4 PUSH1 0x1 PUSH1 0x1 PUSH1 0xA0 SHL SUB AND PUSH32 0xDDF252AD1BE2C89B69C2B068FC378DAA952BA7F163C4A11628F55A4DF523B3EF DUP4 PUSH1 0x40 MLOAD PUSH2 0x116E SWAP2 DUP2 MSTORE PUSH1 0x20 ADD SWAP1 JUMP JUMPDEST PUSH1 0x40 MLOAD DUP1 SWAP2 SUB SWAP1 LOG3 POP POP POP JUMP JUMPDEST PUSH1 0x60 PUSH1 0xFF DUP4 EQ PUSH2 0x1195 JUMPI PUSH2 0x118E DUP4 PUSH2 0x139A JUMP JUMPDEST SWAP1 POP PUSH2 0x4AB JUMP JUMPDEST DUP2 DUP1 SLOAD PUSH2 0x11A1 SWAP1 PUSH2 0x167B JUMP JUMPDEST DUP1 PUSH1 0x1F ADD PUSH1 0x20 DUP1 SWAP2 DIV MUL PUSH1 0x20 ADD PUSH1 0x40 MLOAD SWAP1 DUP2 ADD PUSH1 0x40 MSTORE DUP1 SWAP3 SWAP2 SWAP1 DUP2 DUP2 MSTORE PUSH1 0x20 ADD DUP3 DUP1 SLOAD PUSH2 0x11CD SWAP1 PUSH2 0x167B JUMP JUMPDEST DUP1 ISZERO PUSH2 0x1218 JUMPI DUP1 PUSH1 0x1F LT PUSH2 0x11EF JUMPI PUSH2 0x100 DUP1 DUP4 SLOAD DIV MUL DUP4 MSTORE SWAP2 PUSH1 0x20 ADD SWAP2 PUSH2 0x1218 JUMP JUMPDEST DUP3 ADD SWAP2 SWAP1 PUSH0 MSTORE PUSH1 0x20 PUSH0 KECCAK256 SWAP1 JUMPDEST DUP2 SLOAD DUP2 MSTORE SWAP1 PUSH1 0x1 ADD SWAP1 PUSH1 0x20 ADD DUP1 DUP4 GT PUSH2 0x11FB JUMPI DUP3 SWAP1 SUB PUSH1 0x1F AND DUP3 ADD SWAP2 JUMPDEST POP POP POP POP POP SWAP1 POP PUSH2 0x4AB JUMP JUMPDEST PUSH0 DUP1 DUP1 PUSH16 0xA2A8918CA85BAFE22016D0B997E4DF60 PUSH1 0x1 PUSH1 0xFF SHL SUB DUP5 GT ISZERO PUSH2 0x1253 JUMPI POP PUSH0 SWAP2 POP PUSH1 0x3 SWAP1 POP DUP3 PUSH2 0x12D8 JUMP JUMPDEST PUSH1 0x40 DUP1 MLOAD PUSH0 DUP1 DUP3 MSTORE PUSH1 0x20 DUP3 ADD DUP1 DUP5 MSTORE DUP11 SWAP1 MSTORE PUSH1 0xFF DUP10 AND SWAP3 DUP3 ADD SWAP3 SWAP1 SWAP3 MSTORE PUSH1 0x60 DUP2 ADD DUP8 SWAP1 MSTORE PUSH1 0x80 DUP2 ADD DUP7 SWAP1 MSTORE PUSH1 0x1 SWAP1 PUSH1 0xA0 ADD PUSH1 0x20 PUSH1 0x40 MLOAD PUSH1 0x20 DUP2 SUB SWAP1 DUP1 DUP5 SUB SWAP1 DUP6 GAS STATICCALL ISZERO DUP1 ISZERO PUSH2 0x12A4 JUMPI RETURNDATASIZE PUSH0 DUP1 RETURNDATACOPY RETURNDATASIZE PUSH0 REVERT JUMPDEST POP POP PUSH1 0x40 MLOAD PUSH1 0x1F NOT ADD MLOAD SWAP2 POP POP PUSH1 0x1 PUSH1 0x1 PUSH1 0xA0 SHL SUB DUP2 AND PUSH2 0x12CF JUMPI POP PUSH0 SWAP3 POP PUSH1 0x1 SWAP2 POP DUP3 SWAP1 POP PUSH2 0x12D8 JUMP JUMPDEST SWAP3 POP PUSH0 SWAP2 POP DUP2 SWAP1 POP JUMPDEST SWAP5 POP SWAP5 POP SWAP5 SWAP2 POP POP JUMP JUMPDEST PUSH0 DUP3 PUSH1 0x3 DUP2 GT ISZERO PUSH2 0x12F5 JUMPI PUSH2 0x12F5 PUSH2 0x1764 JUMP JUMPDEST SUB PUSH2 0x12FE JUMPI POP POP JUMP JUMPDEST PUSH1 0x1 DUP3 PUSH1 0x3 DUP2 GT ISZERO PUSH2 0x1312 JUMPI PUSH2 0x1312 PUSH2 0x1764 JUMP JUMPDEST SUB PUSH2 0x1330 JUMPI PUSH1 0x40 MLOAD PUSH4 0xF645EEDF PUSH1 0xE0 SHL DUP2 MSTORE PUSH1 0x4 ADD PUSH1 0x40 MLOAD DUP1 SWAP2 SUB SWAP1 REVERT JUMPDEST PUSH1 0x2 DUP3 PUSH1 0x3 DUP2 GT ISZERO PUSH2 0x1344 JUMPI PUSH2 0x1344 PUSH2 0x1764 JUMP JUMPDEST SUB PUSH2 0x1365 JUMPI PUSH1 0x40 MLOAD PUSH4 0xFCE698F7 PUSH1 0xE0 SHL DUP2 MSTORE PUSH1 0x4 DUP2 ADD DUP3 SWAP1 MSTORE PUSH1 0x24 ADD PUSH2 0x60E JUMP JUMPDEST PUSH1 0x3 DUP3 PUSH1 0x3 DUP2 GT ISZERO PUSH2 0x1379 JUMPI PUSH2 0x1379 PUSH2 0x1764 JUMP JUMPDEST SUB PUSH2 0x59C JUMPI PUSH1 0x40 MLOAD PUSH4 0x35E2F383 PUSH1 0xE2 SHL DUP2 MSTORE PUSH1 0x4 DUP2 ADD DUP3 SWAP1 MSTORE PUSH1 0x24 ADD PUSH2 0x60E JUMP JUMPDEST PUSH1 0x60 PUSH0 PUSH2 0x13A6 DUP4 PUSH2 0x13D7 JUMP JUMPDEST PUSH1 0x40 DUP1 MLOAD PUSH1 0x20 DUP1 DUP3 MSTORE DUP2 DUP4 ADD SWAP1 SWAP3 MSTORE SWAP2 SWAP3 POP PUSH0 SWAP2 SWAP1 PUSH1 0x20 DUP3 ADD DUP2 DUP1 CALLDATASIZE DUP4 CALLDATACOPY POP POP POP SWAP2 DUP3 MSTORE POP PUSH1 0x20 DUP2 ADD SWAP3 SWAP1 SWAP3 MSTORE POP SWAP1 JUMP JUMPDEST PUSH0 PUSH1 0xFF DUP3 AND PUSH1 0x1F DUP2 GT ISZERO PUSH2 0x4AB JUMPI PUSH1 0x40 MLOAD PUSH4 0x2CD44AC3 PUSH1 0xE2 SHL DUP2 MSTORE PUSH1 0x4 ADD PUSH1 0x40 MLOAD DUP1 SWAP2 SUB SWAP1 REVERT JUMPDEST PUSH0 DUP2 MLOAD DUP1 DUP5 MSTORE DUP1 PUSH1 0x20 DUP5 ADD PUSH1 0x20 DUP7 ADD MCOPY PUSH0 PUSH1 0x20 DUP3 DUP7 ADD ADD MSTORE PUSH1 0x20 PUSH1 0x1F NOT PUSH1 0x1F DUP4 ADD AND DUP6 ADD ADD SWAP2 POP POP SWAP3 SWAP2 POP POP JUMP JUMPDEST PUSH1 0x20 DUP2 MSTORE PUSH0 PUSH2 0x143E PUSH1 0x20 DUP4 ADD DUP5 PUSH2 0x13FE JUMP JUMPDEST SWAP4 SWAP3 POP POP POP JUMP JUMPDEST DUP1 CALLDATALOAD PUSH1 0x1 PUSH1 0x1 PUSH1 0xA0 SHL SUB DUP2 AND DUP2 EQ PUSH2 0x145B JUMPI PUSH0 DUP1 REVERT JUMPDEST SWAP2 SWAP1 POP JUMP JUMPDEST PUSH0 DUP1 PUSH1 0x40 DUP4 DUP6 SUB SLT ISZERO PUSH2 0x1471 JUMPI PUSH0 DUP1 REVERT JUMPDEST PUSH2 0x147A DUP4 PUSH2 0x1445 JUMP JUMPDEST SWAP5 PUSH1 0x20 SWAP4 SWAP1 SWAP4 ADD CALLDATALOAD SWAP4 POP POP POP JUMP JUMPDEST PUSH0 DUP1 PUSH0 PUSH1 0x60 DUP5 DUP7 SUB SLT ISZERO PUSH2 0x149A JUMPI PUSH0 DUP1 REVERT JUMPDEST PUSH2 0x14A3 DUP5 PUSH2 0x1445 JUMP JUMPDEST SWAP3 POP PUSH2 0x14B1 PUSH1 0x20 DUP6 ADD PUSH2 0x1445 JUMP JUMPDEST SWAP3 SWAP6 SWAP3 SWAP5 POP POP POP PUSH1 0x40 SWAP2 SWAP1 SWAP2 ADD CALLDATALOAD SWAP1 JUMP JUMPDEST PUSH0 PUSH1 0x20 DUP3 DUP5 SUB SLT ISZERO PUSH2 0x14D2 JUMPI PUSH0 DUP1 REVERT JUMPDEST PUSH2 0x143E DUP3 PUSH2 0x1445 JUMP JUMPDEST PUSH1 0xFF PUSH1 0xF8 SHL DUP9 AND DUP2 MSTORE PUSH1 0xE0 PUSH1 0x20 DUP3 ADD MSTORE PUSH0 PUSH2 0x14F9 PUSH1 0xE0 DUP4 ADD DUP10 PUSH2 0x13FE JUMP JUMPDEST DUP3 DUP2 SUB PUSH1 0x40 DUP5 ADD MSTORE PUSH2 0x150B DUP2 DUP10 PUSH2 0x13FE JUMP JUMPDEST PUSH1 0x60 DUP5 ADD DUP9 SWAP1 MSTORE PUSH1 0x1 PUSH1 0x1 PUSH1 0xA0 SHL SUB DUP8 AND PUSH1 0x80 DUP6 ADD MSTORE PUSH1 0xA0 DUP5 ADD DUP7 SWAP1 MSTORE DUP4 DUP2 SUB PUSH1 0xC0 DUP6 ADD MSTORE DUP5 MLOAD DUP1 DUP3 MSTORE PUSH1 0x20 DUP1 DUP8 ADD SWAP4 POP SWAP1 SWAP2 ADD SWAP1 PUSH0 JUMPDEST DUP2 DUP2 LT ISZERO PUSH2 0x1560 JUMPI DUP4 MLOAD DUP4 MSTORE PUSH1 0x20 SWAP4 DUP5 ADD SWAP4 SWAP1 SWAP3 ADD SWAP2 PUSH1 0x1 ADD PUSH2 0x1542 JUMP JUMPDEST POP SWAP1 SWAP12 SWAP11 POP POP POP POP POP POP POP POP POP POP POP JUMP JUMPDEST PUSH0 PUSH1 0x20 DUP3 DUP5 SUB SLT ISZERO PUSH2 0x1581 JUMPI PUSH0 DUP1 REVERT JUMPDEST POP CALLDATALOAD SWAP2 SWAP1 POP JUMP JUMPDEST PUSH1 0x1 PUSH1 0x1 PUSH1 0xA0 SHL SUB SWAP2 SWAP1 SWAP2 AND DUP2 MSTORE PUSH1 0x20 ADD SWAP1 JUMP JUMPDEST PUSH1 0x1 PUSH1 0x1 PUSH1 0xA0 SHL SUB SWAP4 SWAP1 SWAP4 AND DUP4 MSTORE PUSH1 0x20 DUP4 ADD SWAP2 SWAP1 SWAP2 MSTORE PUSH1 0x40 DUP3 ADD MSTORE PUSH1 0x60 ADD SWAP1 JUMP JUMPDEST PUSH0 DUP1 PUSH0 DUP1 PUSH0 DUP1 PUSH0 PUSH1 0xE0 DUP9 DUP11 SUB SLT ISZERO PUSH2 0x15D3 JUMPI PUSH0 DUP1 REVERT JUMPDEST PUSH2 0x15DC DUP9 PUSH2 0x1445 JUMP JUMPDEST SWAP7 POP PUSH2 0x15EA PUSH1 0x20 DUP10 ADD PUSH2 0x1445 JUMP JUMPDEST SWAP6 POP PUSH1 0x40 DUP9 ADD CALLDATALOAD SWAP5 POP PUSH1 0x60 DUP9 ADD CALLDATALOAD SWAP4 POP PUSH1 0x80 DUP9 ADD CALLDATALOAD PUSH1 0xFF DUP2 AND DUP2 EQ PUSH2 0x160D JUMPI PUSH0 DUP1 REVERT JUMPDEST SWAP7 SWAP10 SWAP6 SWAP9 POP SWAP4 SWAP7 SWAP3 SWAP6 SWAP5 PUSH1 0xA0 DUP5 ADD CALLDATALOAD SWAP5 POP PUSH1 0xC0 SWAP1 SWAP4 ADD CALLDATALOAD SWAP3 SWAP2 POP POP JUMP JUMPDEST PUSH0 DUP1 PUSH1 0x40 DUP4 DUP6 SUB SLT ISZERO PUSH2 0x163B JUMPI PUSH0 DUP1 REVERT JUMPDEST PUSH2 0x1644 DUP4 PUSH2 0x1445 JUMP JUMPDEST SWAP2 POP PUSH2 0x1652 PUSH1 0x20 DUP5 ADD PUSH2 0x1445 JUMP JUMPDEST SWAP1 POP SWAP3 POP SWAP3 SWAP1 POP JUMP JUMPDEST PUSH0 DUP1 PUSH1 0x40 DUP4 DUP6 SUB SLT ISZERO PUSH2 0x166C JUMPI PUSH0 DUP1 REVERT JUMPDEST POP POP DUP1 CALLDATALOAD SWAP3 PUSH1 0x20 SWAP1 SWAP2 ADD CALLDATALOAD SWAP2 POP JUMP JUMPDEST PUSH1 0x1 DUP2 DUP2 SHR SWAP1 DUP3 AND DUP1 PUSH2 0x168F JUMPI PUSH1 0x7F DUP3 AND SWAP2 POP JUMPDEST PUSH1 0x20 DUP3 LT DUP2 SUB PUSH2 0x16AD JUMPI PUSH4 0x4E487B71 PUSH1 0xE0 SHL PUSH0 MSTORE PUSH1 0x22 PUSH1 0x4 MSTORE PUSH1 0x24 PUSH0 REVERT JUMPDEST POP SWAP2 SWAP1 POP JUMP JUMPDEST PUSH4 0x4E487B71 PUSH1 0xE0 SHL PUSH0 MSTORE PUSH1 0x11 PUSH1 0x4 MSTORE PUSH1 0x24 PUSH0 REVERT JUMPDEST PUSH0 DUP2 PUSH2 0x16D5 JUMPI PUSH2 0x16D5 PUSH2 0x16B3 JUMP JUMPDEST POP PUSH0 NOT ADD SWAP1 JUMP JUMPDEST PUSH4 0x4E487B71 PUSH1 0xE0 SHL PUSH0 MSTORE PUSH1 0x32 PUSH1 0x4 MSTORE PUSH1 0x24 PUSH0 REVERT JUMPDEST DUP1 DUP3 MUL DUP2 ISZERO DUP3 DUP3 DIV DUP5 EQ OR PUSH2 0x4AB JUMPI PUSH2 0x4AB PUSH2 0x16B3 JUMP JUMPDEST PUSH0 DUP3 PUSH2 0x1721 JUMPI PUSH4 0x4E487B71 PUSH1 0xE0 SHL PUSH0 MSTORE PUSH1 0x12 PUSH1 0x4 MSTORE PUSH1 0x24 PUSH0 REVERT JUMPDEST POP DIV SWAP1 JUMP JUMPDEST DUP2 DUP2 SUB DUP2 DUP2 GT ISZERO PUSH2 0x4AB JUMPI PUSH2 0x4AB PUSH2 0x16B3 JUMP JUMPDEST DUP1 DUP3 ADD DUP1 DUP3 GT ISZERO PUSH2 0x4AB JUMPI PUSH2 0x4AB PUSH2 0x16B3 JUMP JUMPDEST PUSH0 PUSH1 0x1 DUP3 ADD PUSH2 0x175D JUMPI PUSH2 0x175D PUSH2 0x16B3 JUMP JUMPDEST POP PUSH1 0x1 ADD SWAP1 JUMP JUMPDEST PUSH4 0x4E487B71 PUSH1 0xE0 SHL PUSH0 MSTORE PUSH1 0x21 PUSH1 0x4 MSTORE PUSH1 0x24 PUSH0 REVERT INVALID LOG2 PUSH5 0x6970667358 0x22 SLT KECCAK256 0xD4 MOD DUP2 JUMPDEST TSTORE PUSH14 0x87B49A895356638A582B8D5F3DE 0xC3 0xF 0xDA ORIGIN 0xEF DUP1 DUP2 PUSH27 0x42BE2E7264736F6C634300081A0033A26469706673582212206325 DUP14 0xC6 SWAP2 0xAC 0xE2 0xDA 0xC2 DUP12 PUSH31 0x5A872C93BF15D29A180F5C2706F1A86ACE2C4C53CF64736F6C634300081A00 CALLER "
		},
		"gasEstimates": {
			"creation": {
				"codeDepositCost": "2593600",
				"executionCost": "28668",
				"totalCost": "2622268"
			},
			"external": {
				"acceptOffer(uint256,uint256)": "infinite",
				"checkAvailableSharesToAccept(uint256)": "infinite",
				"createVault(string,string,address,uint256)": "infinite",
				"endOffer(uint256)": "infinite",
				"makeOffer(uint256,uint256,uint256)": "119184",
				"onERC721Received(address,address,uint256,bytes)": "infinite",
				"owner()": "2363",
				"renounceOwnership()": "infinite",
				"transferOwnership(address)": "infinite",
				"vaultCounter()": "2341",
				"vaults(uint256)": "19741"
			}
		},
		"methodIdentifiers": {
			"acceptOffer(uint256,uint256)": "81257bd5",
			"checkAvailableSharesToAccept(uint256)": "ff52575c",
			"createVault(string,string,address,uint256)": "383d8709",
			"endOffer(uint256)": "05834058",
			"makeOffer(uint256,uint256,uint256)": "e210a72d",
			"onERC721Received(address,address,uint256,bytes)": "150b7a02",
			"owner()": "8da5cb5b",
			"renounceOwnership()": "715018a6",
			"transferOwnership(address)": "f2fde38b",
			"vaultCounter()": "ac958041",
			"vaults(uint256)": "8c64ea4a"
		}
	},
	"abi": [
		{
			"inputs": [],
			"stateMutability": "nonpayable",
			"type": "constructor"
		},
		{
			"inputs": [
				{
					"internalType": "address",
					"name": "owner",
					"type": "address"
				}
			],
			"name": "OwnableInvalidOwner",
			"type": "error"
		},
		{
			"inputs": [
				{
					"internalType": "address",
					"name": "account",
					"type": "address"
				}
			],
			"name": "OwnableUnauthorizedAccount",
			"type": "error"
		},
		{
			"anonymous": false,
			"inputs": [
				{
					"indexed": true,
					"internalType": "uint256",
					"name": "vaultId",
					"type": "uint256"
				},
				{
					"indexed": false,
					"internalType": "uint256",
					"name": "totalPaid",
					"type": "uint256"
				}
			],
			"name": "OfferAccepted",
			"type": "event"
		},
		{
			"anonymous": false,
			"inputs": [
				{
					"indexed": true,
					"internalType": "uint256",
					"name": "vaultId",
					"type": "uint256"
				},
				{
					"indexed": false,
					"internalType": "uint256",
					"name": "offerPercentage",
					"type": "uint256"
				},
				{
					"indexed": false,
					"internalType": "address",
					"name": "offerBuyer",
					"type": "address"
				}
			],
			"name": "OfferMade",
			"type": "event"
		},
		{
			"anonymous": false,
			"inputs": [
				{
					"indexed": true,
					"internalType": "address",
					"name": "previousOwner",
					"type": "address"
				},
				{
					"indexed": true,
					"internalType": "address",
					"name": "newOwner",
					"type": "address"
				}
			],
			"name": "OwnershipTransferred",
			"type": "event"
		},
		{
			"anonymous": false,
			"inputs": [
				{
					"indexed": true,
					"internalType": "uint256",
					"name": "vaultId",
					"type": "uint256"
				},
				{
					"indexed": false,
					"internalType": "address",
					"name": "collection",
					"type": "address"
				},
				{
					"indexed": false,
					"internalType": "uint256",
					"name": "tokenId",
					"type": "uint256"
				},
				{
					"indexed": false,
					"internalType": "address",
					"name": "owner",
					"type": "address"
				}
			],
			"name": "VaultCreated",
			"type": "event"
		},
		{
			"inputs": [
				{
					"internalType": "uint256",
					"name": "vaultId",
					"type": "uint256"
				},
				{
					"internalType": "uint256",
					"name": "amountOfShares",
					"type": "uint256"
				}
			],
			"name": "acceptOffer",
			"outputs": [],
			"stateMutability": "nonpayable",
			"type": "function"
		},
		{
			"inputs": [
				{
					"internalType": "uint256",
					"name": "vaultId",
					"type": "uint256"
				}
			],
			"name": "checkAvailableSharesToAccept",
			"outputs": [
				{
					"internalType": "uint256",
					"name": "",
					"type": "uint256"
				},
				{
					"internalType": "bool",
					"name": "",
					"type": "bool"
				}
			],
			"stateMutability": "view",
			"type": "function"
		},
		{
			"inputs": [
				{
					"internalType": "string",
					"name": "_name",
					"type": "string"
				},
				{
					"internalType": "string",
					"name": "_symbol",
					"type": "string"
				},
				{
					"internalType": "address",
					"name": "_collection",
					"type": "address"
				},
				{
					"internalType": "uint256",
					"name": "_tokenId",
					"type": "uint256"
				}
			],
			"name": "createVault",
			"outputs": [],
			"stateMutability": "nonpayable",
			"type": "function"
		},
		{
			"inputs": [
				{
					"internalType": "uint256",
					"name": "vaultId",
					"type": "uint256"
				}
			],
			"name": "endOffer",
			"outputs": [],
			"stateMutability": "nonpayable",
			"type": "function"
		},
		{
			"inputs": [
				{
					"internalType": "uint256",
					"name": "vaultId",
					"type": "uint256"
				},
				{
					"internalType": "uint256",
					"name": "percentage",
					"type": "uint256"
				},
				{
					"internalType": "uint256",
					"name": "_offerTime",
					"type": "uint256"
				}
			],
			"name": "makeOffer",
			"outputs": [],
			"stateMutability": "payable",
			"type": "function"
		},
		{
			"inputs": [
				{
					"internalType": "address",
					"name": "",
					"type": "address"
				},
				{
					"internalType": "address",
					"name": "",
					"type": "address"
				},
				{
					"internalType": "uint256",
					"name": "",
					"type": "uint256"
				},
				{
					"internalType": "bytes",
					"name": "",
					"type": "bytes"
				}
			],
			"name": "onERC721Received",
			"outputs": [
				{
					"internalType": "bytes4",
					"name": "",
					"type": "bytes4"
				}
			],
			"stateMutability": "nonpayable",
			"type": "function"
		},
		{
			"inputs": [],
			"name": "owner",
			"outputs": [
				{
					"internalType": "address",
					"name": "",
					"type": "address"
				}
			],
			"stateMutability": "view",
			"type": "function"
		},
		{
			"inputs": [],
			"name": "renounceOwnership",
			"outputs": [],
			"stateMutability": "nonpayable",
			"type": "function"
		},
		{
			"inputs": [
				{
					"internalType": "address",
					"name": "newOwner",
					"type": "address"
				}
			],
			"name": "transferOwnership",
			"outputs": [],
			"stateMutability": "nonpayable",
			"type": "function"
		},
		{
			"inputs": [],
			"name": "vaultCounter",
			"outputs": [
				{
					"internalType": "uint256",
					"name": "_value",
					"type": "uint256"
				}
			],
			"stateMutability": "view",
			"type": "function"
		},
		{
			"inputs": [
				{
					"internalType": "uint256",
					"name": "",
					"type": "uint256"
				}
			],
			"name": "vaults",
			"outputs": [
				{
					"internalType": "address",
					"name": "collection",
					"type": "address"
				},
				{
					"internalType": "uint256",
					"name": "tokenId",
					"type": "uint256"
				},
				{
					"internalType": "address",
					"name": "owner",
					"type": "address"
				},
				{
					"internalType": "address",
					"name": "fractionalTokenAddress",
					"type": "address"
				},
				{
					"internalType": "enum VaultFactory.State",
					"name": "sellingState",
					"type": "uint8"
				},
				{
					"internalType": "uint256",
					"name": "offerPrice",
					"type": "uint256"
				},
				{
					"internalType": "uint256",
					"name": "offerTime",
					"type": "uint256"
				},
				{
					"internalType": "uint256",
					"name": "offerPercentage",
					"type": "uint256"
				},
				{
					"internalType": "address",
					"name": "offerBuyer",
					"type": "address"
				},
				{
					"internalType": "uint256",
					"name": "totalAcceptedShares",
					"type": "uint256"
				}
			],
			"stateMutability": "view",
			"type": "function"
		}
	]
}